:02002400C10811
:100086009005A2E5A7F0E4F5A753D9BFE0F5A7E4EC
:1000960090004FF09005A3F0A3F0900034F0A37405
:1000A60064F0E4900176F0A3F0900190F090018D59
:1000B600F0900181F090027DF0900178F09001932C
:1000C600F0A3F09001B6F0A3F090021DF0A3F0901B
:1000D6000528F0A3F0900227F0A3F0900256F090C6
:1000E6000288F0900280F0900535F09001ABF09018
:1000F60001A3F0900557F090028FF0900206F09061
:1001060001CAF09004F7F09001C5F0F520900215B1
:10011600F0A3F0900268F0A3F090057DF0A304F040
:10012600A3E4F0A304F0E49004F5F0900237F09015
:10013600004DF0A3F0F50D124ACAE4900534F01212
:10014600002EE4900543F090026FF0C284D296D25E
:1001560097D295900577F0A3F0900578E004F070BB
:1001660006900577E004F0900577E0B427EBA3E06E
:10017600B410E690019CE064556018900212745524
:10018600F074FF124A0A124A6D900212E090019C26
:10019600F080E0E4900577F0A3F0900578E004F0B5
:1001A6007006900577E004F0900577E0B427EBA39E
:1001B600E0B410E690019CE064AA601C9002127400
:1001C600AAF09001C474FFF0124A0E124A6D900212
:1001D60012E090019CF080DCE4900587F0A3F0909B
:1001E6000585E0FEA3E02463F58274053EF583E40D
:1001F600F0900588E004F07006900587E004F09022
:100206000587E07004A3E0641070D4900593124152
:10021600C500000000E49005B0F0900212F09001D5
:10022600C4740AF0124A0E1249FF9005B47401F024
:10023600900212F09001C4740DF0124A0E9005A5BA
:1002460074DEF0A374A8F09005A5E0900212F0E425
:10025600124A0A9005A5A3E0900212F09001C47418
:1002660001F0124A0EE49005A7F0A3F0900212F0F6
:100276009001C47406F0124A0EE490024BF0900509
:100286002DF0900212F09001C47402F0124A0EE4AE
:1002960090026FF0900543F0900212F09001C47442
:1002A60003F0124A0EE49004F4F0900038F0900245
:1002B60012F09001C47404F0124A0EE490055AF04C
:1002C6009001ADF0900212F09001C47408F0124A49
:1002D6000EE490026EF0900540F0900212F090014C
:1002E600C47409F0124A0E124AF8E49001B5F012ED
:1002F600478EE4900204F0A3F0124A9AD2AFE4903B
:100306000033F0900039F0900589F0A3F090052EA7
:10031600F0A3F090780093FE740193FF900000EE36
:10032600F0A3EFF04E6074A31241C54129999A904B
:10033600001A1241C54129999A9000161241C541E9
:1003460029999A90000A1241C541466666900006B0
:100356001241C542BD333390000E1241C540B999D2
:100366009A9000121241C543A50000E4900000F0E7
:10037600A3F090001E74BBF0A374FEF0A37402F009
:10038600A304F0E4A3F0A31241C5425A66669000A6
:10039600277428F0A37448F012491D907802124180
:1003A600A99000021241B990781A1241A990001A38
:1003B6001241B99078161241A99000161241B990CF
:1003C600780A1241A990000A1241B99078061241A2
:1003D600A99000061241B990780E1241A990000E1C
:1003E6001241B99078121241A99000121241B990A7
:1003F600781EE49390001EF090781FE49390001FFF
:10040600F0907820E493900020F0907821E493FF18
:10041600900021F0FB907822E493900022F09078EF
:10042600231241A99000231241B9907827E49390B2
:100436000027F0907828E493900028F0900212EBC1
:10044600F09001C47468F0124A0E90001EE0FCE4BD
:100456001240989001721241B990001FE0FCE4121C
:1004660040989001821241B9900172E0F8A3E0F938
:10047600A3E0FAA3E0FB900182E0FCA3E0FDA3E089
:10048600FEA3E0FF123D86E4FBFA79207841123F95
:100496008490050D1241B990050DE0F8A3E0F9A38B
:1004A600E0FAA3E0FB900182E0FCA3E0FDA3E0FEFE
:1004B600A3E0FF123D869001891241B990050DE037
:1004C600FCA3E0FDA3E0FEA3E0FF900172E0F8A329
:1004D600E0F9A3E0FAA3E0FB123D8A90017D124108
:1004E600B99005301241C507FFFFFF900530E0FCCB
:1004F600A3E0FDA3E0FEA3E0FF781812418390027B
:1005060012EFF09001C47414F0124A0E900530E018
:10051600FCA3E0FDA3E0FEA3E0FF78101241839068
:100526000212EFF09001C47415F0124A0E900530D5
:10053600E0FCA3E0FDA3E0FEA3E0FF780812418300
:10054600900212EFF09001C47416F0124A0E900554
:1005560030A3A3A3E0900212F09001C47417F01226
:100566004A0E9005171241C50059B800900517E0CC
:10057600FCA3E0FDA3E0FEA3E0FF78181241839000
:100586000212EFF09001C47418F0124A0E9005178B
:10059600E0FCA3E0FDA3E0FEA3E0FF781012418398
:1005A600900212EFF09001C47419F0124A0E9005F1
:1005B60017E0FCA3E0FDA3E0FEA3E0FF78081241EC
:1005C60083900212EFF09001C4741AF0124A0E9052
:1005D6000517A3A3A3E0900212F09001C4741BF0C8
:1005E600124A0E9005021241C507FFFFFF90050251
:1005F600E0FCA3E0FDA3E0FEA3E0FF781812418330
:10060600900212EFF09001C4741CF0124A0E90058D
:1006160002E0FCA3E0FDA3E0FEA3E0FF7810124198
:1006260083900212EFF09001C4741DF0124A0E90EE
:100636000502E0FCA3E0FDA3E0FEA3E0FF780812BC
:100646004183900212EFF09001C4741EF0124A0E1C
:10065600900502A3A3A3E0900212F09001C4741FB8
:10066600F0124A0E900020E0FB700A9004E5124159
:10067600C500CDFE60EBB4010A9004E51241C50049
:10068600CDFE60900020E0B4020A9004E51241C558
:10069600020238A09004E5E0FCA3E0FDA3E0FEA37F
:1006A600E0FF7818124183900212EFF09001C474B3
:1006B60020F0124A0E9004E5E0FCA3E0FDA3E0FE64
:1006C600A3E0FF7810124183900212EFF09001C46C
:1006D6007421F0124A0E9004E5E0FCA3E0FDA3E0CD
:1006E600FEA3E0FF7808124183900212EFF090011A
:1006F600C47422F0124A0E9004E5A3A3A3E090026C
:1007060012F09001C47423F0124A0EE4900199F09D
:100716009005791241C500000000E4900583F0A31E
:10072600F0900031F0A3F0900285F0A3F090005015
:10073600F0A3F090052374E8F0E490028DF0A3F0A6
:1007460090020BF0A3F0900209F0A374FAF0E49083
:100756000207F0A3F0900557F090027F04F0E490B2
:10076600028FF09001C304F0E490024AF090024B2D
:10077600E0FF90052DE06F6012E090024BF09002D2
:1007860012F09001C47402F0124A0E90024AE0B4CC
:100796000104D2848002C2849001C3E0FF90028FDC
:1007A600E06F6012E09001C3F0900212F09001C475
:1007B6007403F0124A0E9004F4E0FF900038E06FE4
:1007C6006012E09004F4F0900212F09001C47404F8
:1007D600F0124A0E90055AE0FF9001ADE06F6012EC
:1007E600E090055AF0900212F09001C47408F012DD
:1007F6004A0E90026EE0FF900540E06F6012E090B6
:10080600026EF0900212F09001C47409F0124A0EC2
:1008160090028DE0FEA3E0FFEE6003020950EFB404
:100826000F004003020950900834F8282873020884
:100836006102086F02088902089F0208C40208D3F1
:100846000209500209500209500209500208E10249
:1008560008FB02090F02093002093C90028DE420D0
:100866008551F0A304F0020950900543E090028DF3
:100876007008F0A37402F0020950E4F0A37405F0C6
:1008860002095090024AE0B4010302094990028D20
:10089600E4F0A37403F0020950900557E0B4011B7D
:1008A6009005437401F090028DE4F0A37404F09077
:1008B600050BE4F0A3740AF00209500209499005F9
:1008C6000BE07002A3E06003020950807790024AB1
:1008D600E0B40105E4900543F08068900543E0909C
:1008E600028DB40108E4F0A3740BF0805DE4F0A37C
:1008F600740EF08055900557E0B4010280459002D1
:100906008DE4F0A3740CF0804190024AE0B4011823
:10091600E4900543F090050BF0A3740AF090028D65
:10092600E4F0A3740DF08022801990050BE07002AC
:10093600A3E07016800E900557E0B40106900543BB
:100946007401F0E490028DF0A3F0900050E0FEA355
:10095600E0FFEE600302111BEFB41000400302112A
:100966001B90096EF828287302099E0209C9020D18
:1009760029020D43020D91020E7C020E95020EDD38
:10098600020F1D020F8A020FAB02111B02111B027E
:10099600109A0210CC0211021249FFE49005B0F041
:1009A600900212F09001C4740AF0124A0EE490000C
:1009B6004FF09005347402F0900050E4F0A304F078
:1009C60002111BE49001BDF0A3F0900581F0A3F0A5
:1009D60075BB0AD2EC20ECFD9001BEE025BDF0907F
:1009E60001BDE035BEF0900582E004F0700690058A
:1009F60081E004F0900581E07004A3E0641070D0FB
:100A0600E49001BFF0A3F0900581F0A3F075BB0B55
:100A1600D2EC20ECFD9001C0E025BDF09001BFE0D6
:100A260035BEF0900582E004F07006900581E00482
:100A3600F0900581E07004A3E0641070D0E49001AA
:100A4600C1F0A3F0900581F0A3F075BB0CD2EC20A9
:100A5600ECFD9001C2E025BDF09001C1E035BEF08D
:100A6600900582E004F07006900581E004F09005A0
:100A760081E07004A3E0641070D09001BDE0C4F87A
:100A860054F0C868F0A3E0C4540F48F0A3E0C4F8DB
:100A960054F0C868F0A3E0C4540F48F0A3E0C4F8CB
:100AA60054F0C868F0A3E0C4540F48F0E490052C55
:100AB600F09001BDE0FEA3E0FFD394B9EE940040B0
:100AC60008EF9448EE94034009D3EF94ACEE940DEE
:100AD600400690052C7401F09001BFE0FEA3E0FFF4
:100AE600D394B9EE94004008EF9448EE940340097D
:100AF600D3EF94ACEE940D400690052C7401F09063
:100B060001C1E0FEA3E0FFD394B9EE94004008EFE4
:100B16009448EE94034009D3EF94ACEE940D40064E
:100B260090052C7401F090052CE06401704E900441
:100B3600F67407F0C39001BEE094079001BDE094FF
:100B46000850079004F6E05406F0C39001C0E09404
:100B5600079001BFE0940850079004F6E05405F0B2
:100B6600C39001C2E094079001C1E09408400302DB
:100B76000CB09004F6E05403F0020CB0E49004F6D6
:100B8600F09001C1E0FEA3E0FFC39448EE94034059
:100B96000FEF9490EE940650079004F6E04401F0AF
:100BA6009001C1E0FEA3E0FFC39490EE9406400FCF
:100BB600EF94B0EE940950079004F6E04402F090EA
:100BC60001C1E0FEA3E0FFC394B0EE9409400FEF2D
:100BD60094ACEE940D50079004F6E04403F09004B4
:100BE600F6E025E025E0F09001BFE0FEA3E0FFC3BC
:100BF6009448EE9403400FEF9490EE9406500790BD
:100C060004F6E04401F09001BFE0FEA3E0FFC394C8
:100C160090EE9406400FEF94B0EE940950079004BE
:100C2600F6E04402F09001BFE0FEA3E0FFC394B0FB
:100C3600EE9409400FEF94ACEE940D50079004F635
:100C4600E04403F09004F6E025E025E0F09001BDD5
:100C5600E0FEA3E0FFC39448EE9403400FEF9490A8
:100C6600EE940650079004F6E04401F09001BDE0D2
:100C7600FEA3E0FFC39490EE9406400FEF94B0EE0F
:100C8600940950079004F6E04402F09001BDE0FE9E
:100C9600A3E0FFC394B0EE9409400FEF94ACEE943A
:100CA6000D50079004F6E04403F0900523E0FF9012
:100CB60004F6E0FE6F7061900212F0EEC4540FFF6E
:100CC600BF01037401F0BF02069002127402F09095
:100CD6000212E090019AF09001C47467F0124A0E75
:100CE6009004F6E0540FF0E02414F0C2AFE024EDD7
:100CF600FFE434FFFE7C007D6412414D900204EE59
:100D0600F0A3EFF0124A9AD2AFE49005B7F0A3F041
:100D1600900050F0A37402F09004F6E0900523F0E2
:100D260002111B9005B7E07004A3E064056003029E
:100D3600111B900050F0A37403F002111B9005B232
:100D46007406F0900212F09001C4740CF0124A0E70
:100D56009005B47401F0900212F09001C4740DF085
:100D6600124A0E900022E09005B0F0900212F09028
:100D760001C4740AF0124A0E900022E0124A009052
:100D86000050E4F0A37404F002111B9005B2E0A336
:100D9600F0E4FFFE7DC07C40900257E0F8A3E0F946
:100DA600A3E0FAA3E0FB124021600840069005B2DA
:100DB6007408F0E4FFFE7D707C41900257E0F8A3D2
:100DC600E0F9A3E0FAA3E0FB124021600840069098
:100DD60005B2740AF0E4FFFE7D0C7C42900257E0F7
:100DE600F8A3E0F9A3E0FAA3E0FB12402160084073
:100DF600069005B2740CF09005B2E0FFA3E06F60B8
:100E06000E900212EFF09001C4740CF0124A0EE438
:100E1600FFFE7DC87C42900257E0F8A3E0F9A3E00C
:100E2600FAA3E0FB1240216002500302111B90005E
:100E360020E0FF7006900212740AF0EFB4010690EB
:100E46000212740AF0EFB402069002127406F090D1
:100E560001C4740CF0124A0EE49005B4F09002122C
:100E6600F09001C4740DF0124A0E900050E4F0A305
:100E76007405F002111B740B124A69900212E060AD
:100E86000302111B900050F0A37406F002111BE43C
:100E9600FFFE7D2A7C43900257E0F8A3E0F9A3E029
:100EA600FAA3E0FB1240216002500302111BE4FF8B
:100EB600FE7D827C43900257E0F8A3E0F9A3E0FAB6
:100EC600A3E0FB124021400302111B900050E4F006
:100ED600A37407F002111BE4FFFE7D2A7C439002F7
:100EE6001FE0F8A3E0F9A3E0FAA3E0FB12402160BB
:100EF6001A4018E4900283F0A3F0900279F0A3F070
:100F0600900050F0A37408F002111B900050E4F01A
:100F1600A37409F002111B900284E004F07006909D
:100F26000283E004F07446124A69900212E0FFC39D
:100F360013FEEF5401B5060E90027AE004F0700637
:100F4600900279E004F0900283E064037004A3E069
:100F560064E8600302111BD390027AE094B6900213
:100F660079E064809483400B900050E4F0A3740908
:100F7600F08007E4900283F0A3F0E4900279F0A3F6
:100F8600F002111B9000387401F090052AE4F0A3DA
:100F9600740AF09005347401F0900050E4F0A374E4
:100FA6000AF002111B900256E0640170469005B0EB
:100FB600F0900212F09001C4740AF0124A0E12491F
:100FC600FFE4900038F09001CAF09004F7F0900129
:100FD600C5F090052DF0900540F09005347403F0AF
:100FE60090052A7401F0A37490F0900050E4F0A3E9
:100FF600740EF0900280E0640170469005B0F090A7
:101006000212F09001C4740AF0124A0E1249FFE46B
:10101600900038F09001CAF09004F7F09001C5F006
:1010260090052DF0900540F09005347404F090057D
:101036002A7401F0A3742CF0900050E4F0A3740F0E
:10104600F0900535E06401600302111B9005B0F0D5
:10105600900212F09001C4740AF0124A0E1249FF6F
:10106600E4900038F09001CAF09004F7F09001C5C2
:10107600F090052DF09001AD04F0E4900540F0905D
:1010860001AD04F0E4900534F0900050F0A3740D27
:10109600F002111BE4FFFE7D8C7C4290025DE0F8BD
:1010A600A3E0F9A3E0FAA3E0FB1240215067E49025
:1010B6000193F0A3F0900288F0900280F09001ADC9
:1010C600F0900534804B90052AE07002A3E070454D
:1010D600900256F0900176E07004A3E0640260107E
:1010E600900177E004F0702A900176E004F0802207
:1010F6009000347446F0A37450F0801690052AE0F0
:101106007002A3E0700F900288F0900280F09001C8
:10111600ABF043EF10900215E0FEA3E0FFEE600394
:10112600021546EFB40A004003021546901139F83D
:1011360028287302115702116902117A02118C02D2
:1011460011C702146C0214810214920214A4021430
:10115600DEE490003AF0A3F0900268F0A3F090026B
:1011660015805775BB01D2EC900215E4F0A374020A
:10117600F002154630EC03021546900215E4F0A382
:101186007403F002154690003BE025BDF090003A4E
:10119600E035BEF0900269E004F07006900268E067
:1011A60004F0900268E07004A3E0641090021570E9
:1011B60008F0A37404F0021546E4F0A304F0021547
:1011C6004690003AE0C4F854F0C868FEA3E0C45460
:1011D6000F48FF90003AEEF0A3EFF0FDAC06E412E4
:1011E600409390020E1241B97FCD7ECC7D9C7C400F
:1011F600900012E0F8A3E0F9A3E0FAA3E0FB123EA8
:101206007B7B337A3379537840123F8490020EE029
:10121600F8A3E0F9A3E0FAA3E0FB123E7BE4FBFAB5
:1012260079807845123F847B007A80798878C3126A
:101236003D8A90025D1241B9E4FFFE7D8C7C4290AE
:10124600025DE0F8A3E0F9A3E0FAA3E0FB12402177
:10125600600A40089001937401F08005E4900193C0
:10126600F0E4FFFE7DA07C4290025DE0F8A3E0F989
:10127600A3E0FAA3E0FB124021600E400C9001941B
:101286007401F0900535F08005E4900194F0E4FFD8
:10129600FE7DF07C4190025DE0F8A3E0F9A3E0FA60
:1012A600A3E0FB124021500A9002321241C542FED1
:1012B6000000E4FFFE7DF07C4190025DE0F8A3E0D3
:1012C600F9A3E0FAA3E0FB1240214046E4FFFE7DCD
:1012D600707C4290025DE0F8A3E0F9A3E0FAA3E097
:1012E600FB1240216002502A7FEC7E517D887C40B3
:1012F60090025DE0F8A3E0F9A3E0FAA3E0FB123E5A
:101306007B7B007ACD794C78BF123D8A90023212EF
:1013160041B9E4FFFE7D707C4290025DE0F8A3E0F7
:10132600F9A3E0FAA3E0FB124021600C400A900208
:10133600321241C5437F00009002391241C5437FF6
:101346000000900020E0FB700A90054F1241C54452
:101356002F0000EBB4010A90054F1241C5447A00F4
:1013660000900020E0B4020A90054F1241C544FAED
:101376000000900232E0F8A3E0F9A3E0FAA3E0FB54
:10138600900239E0FCA3E0FDA3E0FEA3E0FF123DDE
:101396008690054FE0F8A3E0F9A3E0FAA3E0FB127C
:1013A6003F84900195E0F8A3E0F9A3E0FAA3E0FBFF
:1013B600123E7B900232E0F8A3E0F9A3E0FAA3E044
:1013C600FB123D8A9002B41241B9E4FFFE7DFE7C19
:1013D600429002B4E0F8A3E0F9A3E0FAA3E0FB121E
:1013E6004021500A9002B41241C542FE0000E4FFBB
:1013F600FE7D7F7C439002B4E0F8A3E0F9A3E0FA17
:10140600A3E0FB124021600C400A9002B41241C5D1
:10141600437F00009002B4E0FCA3E0FDA3E0FEA33E
:10142600E0FF1240CC9005A7EFF0A3E0FEC39F506B
:1014360007EEF46003E004F09005A7E0FFA3E0FEEA
:10144600D39F4005EE600214F09005A8E0900212CA
:10145600F09001C47406F0124A0E900215E4F0A34F
:101466007405F0021546E4900248F0A3F090026875
:10147600F0A3F0900215F0A37406F075BB09D2EC48
:10148600900215E4F0A37407F002154630EC03024F
:101496001546900215E4F0A37408F0021546900272
:1014A60049E025BDF0900248E035BEF0900269E0C3
:1014B60004F07006900268E004F0900268E07004A0
:1014C600A3E064109002157007F0A37409F0807011
:1014D600E4F0A37406F08068900248E0C4F854F083
:1014E600C868FEA3E0C4540F48FF900248EEF0A37C
:1014F600EFF0FDAC06E412409390020E1241B97F64
:10150600337EB37D757C4590020EE0F8A3E0F9A327
:10151600E0FAA3E0FB123E7BE4FBFA798078451201
:101526003F84900023E0F8A3E0F9A3E0FAA3E0FBF0
:10153600123F849002751241B9E4900215F0A3F0AF
:101546009001C47465F0124A6D900212E0700302B5
:1015560019DF9001C4745AF0124A6D900212E0FF2E
:10156600E4FCFDFE9000491241B99001C4745BF0A1
:10157600124A6D900049E0FCA3E0FDA3E0FEA3E063
:10158600FF78081241969000491241B9900212E084
:10159600FF900049E0F8A3E0F9A3E0FAA3E04FFFCB
:1015A600EAFEE9FDE8FC9000491241B99001C474D5
:1015B6005CF0124A6D900049E0FCA3E0FDA3E0FE5A
:1015C600A3E0FF78081241969000491241B99002B3
:1015D60012E0FF900049E0F8A3E0F9A3E0FAA3E0E7
:1015E6004FFFEAFEE9FDE8FC9000491241B9E50D1E
:1015F600700F750D019005481241C500000000806E
:101606004B900049E0FCA3E0FDA3E0FEA3E0FFEC65
:1016160012408E9005481241B9900548E0FCA3E0BF
:10162600FDA3E0FEA3E0FF1246E87BCC7A62794A8E
:101636007840123E7B900002E0F8A3E0F9A3E0FABE
:10164600A3E0FB123F849005481241B9E4FFFE7DFA
:10165600757C43900548E0F8A3E0F9A3E0FAA3E01F
:10166600FB124021600250030216F79001C4745227
:10167600F0124A6D900212E0FFE4FCFDFE90004974
:101686001241B99001C47453F0124A6D900049E0BA
:10169600FCA3E0FDA3E0FEA3E0FF780812419690CC
:1016A60000491241B9900212E0FF900049E0F8A308
:1016B600E0F9A3E0FAA3E04FFFEAFEE9FDE8FC90BB
:1016C60000491241B9E47F0AFEFDFC900049E0F8AA
:1016D600A3E0F9A3E0FAA3E0FBC312416D50129018
:1016E60002807401F01249FF900050E4F0A3740ADE
:1016F600F0900288E07045900172E0FCA3E0FDA343
:10170600E0FEA3E0FF900548E0F8A3E0F9A3E0FAC5
:10171600A3E0FB124021401CE4FFFE7D7E7C43904B
:101726000548E0F8A3E0F9A3E0FAA3E0FB124021A4
:10173600604C404A9002887401F0804290017DE03E
:10174600FCA3E0FDA3E0FEA3E0FF900548E0F8A3BC
:10175600E0F9A3E0FAA3E0FB1240216021401FE478
:10176600FFFE7D707C43900548E0F8A3E0F9A3E016
:10177600FAA3E0FB1240215005E4900288F09002A3
:1017860088E0602AE4900557F090020BF0A3F0D3AE
:1017960090020AE09400900209E064809480404838
:1017A600A3E024FFF0900209E034FFF0803AC390F2
:1017B600020CE094F490020BE064809481500CA338
:1017C600E004F0700690020BE004F0C390020AE019
:1017D60094F4900209E064809481500CA3E004F034
:1017E6007006900209E004F090020BE0B4010BA32E
:1017F600E0B4F4069005577401F0900209E0FEA3E8
:10180600E0FF4E700490028FF0BE0109BFF406900F
:10181600028F7401F09001C4745EF0124A6D90025A
:1018260012E0FFE4FCFDFE9000491241B99001C4AC
:10183600745FF0124A6D900049E0FCA3E0FDA3E05E
:10184600FEA3E0FF78081241969000491241B99034
:101856000212E0FF900049E0F8A3E0F9A3E0FAA342
:10186600E04FFFEAFEE9FDE8FC9000491241B9901D
:1018760001C47460F0124A6D900049E0FCA3E0FDDB
:10188600A3E0FEA3E0FF78081241969000491241BA
:10189600B9900212E0FF900049E0F8A3E0F9A3E056
:1018A600FAA3E04FFFEAFEE9FDE8FC900049124189
:1018B600B9900049E0FCA3E0FDA3E0FEA3E0FFEC45
:1018C60012408E9005441241B9900544E0FCA3E015
:1018D600FDA3E0FEA3E0FF1246E87BCC7A62794ADC
:1018E6007840123E7B90001AE0F8A3E0F9A3E0FAF4
:1018F600A3E0FB123F849005441241B9900243E0F5
:10190600704C900172E0FCA3E0FDA3E0FEA3E0FFB3
:10191600900544E0F8A3E0F9A3E0FAA3E0FB124047
:10192600214023900182E0FCA3E0FDA3E0FEA3E0BA
:10193600FF900544E0F8A3E0F9A3E0FAA3E0FB1268
:101946004021605340519002437401F08049900158
:101956007DE0FCA3E0FDA3E0FEA3E0FF900544E0EC
:10196600F8A3E0F9A3E0FAA3E0FB124021602840C7
:1019760026900189E0FCA3E0FDA3E0FEA3E0FF9032
:101986000544E0F8A3E0F9A3E0FAA3E0FB12402146
:101996005005E4900243F0900243E0600DE49002AB
:1019A6004AF0900207F0A3F0801DC3900208E0946D
:1019B600F4900207E064809481500CA3E004F07078
:1019C60006900207E004F0900207E0B4010BA3E0E2
:1019D600B4F40690024A7401F09001C47464F012E3
:1019E6004A6D900212E06007E49005B5F0A3F0900E
:1019F60005B5E0FEA3E0FFEE60030221CDEF147013
:101A060003021B54147003021E9E147003021FB8B7
:101A16001470030220C4240460030221CD9001C483
:101A26007436F0124A6D900212E0FFE4FCFDFE905F
:101A360000491241B99001C47437F0124A6D900002
:101A460049E0FCA3E0FDA3E0FEA3E0FF7808124115
:101A5600969000491241B9900212E0FF900049E0C9
:101A6600F8A3E0F9A3E0FAA3E04FFFEAFEE9FDE8F8
:101A7600FC9000491241B99001C47438F0124A6DC5
:101A8600900049E0FCA3E0FDA3E0FEA3E0FF780898
:101A96001241969000491241B9900212E0FF90005F
:101AA60049E0F8A3E0F9A3E0FAA3E04FFFEAFEE974
:101AB600FDE8FC9000491241B9900049E0FCA3E022
:101AC600FDA3E0FEA3E0FFEC12408E90022312413C
:101AD600B9900223E0FCA3E0FDA3E0FEA3E0FF1221
:101AE60046E89004DF1241B9900223E0FCA3E0FD32
:101AF600A3E0FEA3E0FF1246E890000AE0F8A3E0A8
:101B0600F9A3E0FAA3E0FB123D86900006E0F8A3F5
:101B1600E0F9A3E0FAA3E0FB123F8490022312410E
:101B2600B9E4FFFEFDFC900223E0F8A3E0F9A3E090
:101B3600FAA3E0FB124021500A9002231241C5008D
:101B46000000009005B5E4F0A304F00221CD900159
:101B5600C4743AF0124A6D900212E0FF900536F016
:101B6600900045E4F0A3EFF09001C4743BF0124AF4
:101B76006D900212E0FF90053BF0900046E0F8E41D
:101B8600F0E8900045F0E0FEA3E04FFF900045EE40
:101B9600F0FEA3EFF0FDAC06EC12409390023E126D
:101BA60041B990000EE0F8A3E0F9A3E0FAA3E0FB48
:101BB60090023EE0FCA3E0FDA3E0FEA3E0FF123F9F
:101BC600849001951241B9E49005ADF0900020E0B3
:101BD6007043FFFE7D2F7C44900195E0F8A3E0F969
:101BE600A3E0FAA3E0FB124021600840069005AD91
:101BF6007401F0E4FFFE7D527C44900195E0F8A369
:101C0600E0F9A3E0FAA3E0FB124021600840069049
:101C160005AD7402F0900020E0B40144E4FFFE7DBF
:101C26007A7C44900195E0F8A3E0F9A3E0FAA3E0FA
:101C3600FB124021600840069005AD7401F0E4FFF8
:101C4600FE7D967C44900195E0F8A3E0F9A3E0FAC6
:101C5600A3E0FB124021600840069005AD7402F037
:101C6600900020E0B40244E4FFFE7DFA7C4490013B
:101C760095E0F8A3E0F9A3E0FAA3E0FB12402160A7
:101C86000840069005AD7401F0E4FFFE7D167C4524
:101C9600900195E0F8A3E0F9A3E0FAA3E0FB124077
:101CA60021600840069005AD7402F0900223E0FC26
:101CB600A3E0FDA3E0FEA3E0FF900257E0F8A3E057
:101CC600F9A3E0FAA3E0FB123E7B9005A91241B905
:101CD600E49005AEF0900020E07045FF7EC07D5A8E
:101CE6007C449005A9E0F8A3E0F9A3E0FAA3E0FBA1
:101CF600124021600840069005AD7401F07F007E19
:101D0600407D837C449005A9E0F8A3E0F9A3E0FABE
:101D1600A3E0FB124021600840069005AD7402F076
:101D2600900020E0B401467F007E407D9C7C44907C
:101D360005A9E0F8A3E0F9A3E0FAA3E0FB1240212D
:101D4600600840069005AE7401F07F007E807DBB82
:101D56007C449005A9E0F8A3E0F9A3E0FAA3E0FB30
:101D6600124021600840069005AE7402F0900020F3
:101D7600E0B402467F007E407D1C7C459005A9E0CC
:101D8600F8A3E0F9A3E0FAA3E0FB124021600840C3
:101D9600069005AE7401F07F007E807D3B7C459009
:101DA60005A9E0F8A3E0F9A3E0FAA3E0FB124021BD
:101DB600600840069005AE7402F0E49001C5F0900C
:101DC60004F7F09001CAF0900206F09005AFF0908B
:101DD60005ADE0FF64046006A3E0FEB4040E9001C6
:101DE600C57401F09005AF7404F08046EF6403609B
:101DF60004EEB4030E9004F77401F09005AF74037B
:101E0600F0802F9005ADE0FF64026006A3E0FEB40B
:101E1600020D9001CA7401F09005AF04F08013EF33
:101E260064016004EEB4010A9002067401F09005A4
:101E3600AFF09005AFE0FF6003B40116900227E013
:101E46007002A3E06046900228E024FFF09002278B
:101E560080369005AFE0FFB40216900528E07002C8
:101E6600A3E06028900529E024FFF090052880185B
:101E7600EFB4031890021DE07002A3E0600E90021A
:101E86001EE024FFF090021DE034FFF09005B5E45B
:101E9600F0A37402F00221CD9001C47432F0124A0C
:101EA6006D900212E0FFE4FCFDFE9000491241B97C
:101EB6009001C47433F0124A6D900049E0FCA3E02F
:101EC600FDA3E0FEA3E0FF780812419690004912B8
:101ED60041B9900212E0FF900049E0F8A3E0F9A3AF
:101EE600E0FAA3E04FFFEAFEE9FDE8FC90004912A4
:101EF60041B99001C47434F0124A6D900049E0FC77
:101F0600A3E0FDA3E0FEA3E0FF780812419690004F
:101F1600491241B9900212E0FF900049E0F8A3E0AF
:101F2600F9A3E0FAA3E04FFFEAFEE9FDE8FC900022
:101F3600491241B9900049E0FCA3E0FDA3E0FEA3ED
:101F4600E0FFEC12408E9002571241B9900257E022
:101F5600FCA3E0FDA3E0FEA3E0FF1246E89000022A
:101F6600E0F8A3E0F9A3E0FAA3E0FB123F849002B5
:101F7600571241B9E4FFFE7D207C41900257E0F8FC
:101F8600A3E0F9A3E0FAA3E0FB124021500A900275
:101F9600571241C5000000009005B8E004F0700635
:101FA6009005B7E004F09005B5E4F0A37403F002E1
:101FB60021CD9001C4743EF0124A6D900212E0FFEA
:101FC600E4FCFDFE9000491241B99001C4743FF053
:101FD600124A6D900049E0FCA3E0FDA3E0FEA3E0F9
:101FE600FF78081241969000491241B9900212E01A
:101FF600FF900049E0F8A3E0F9A3E0FAA3E04FFF61
:10200600EAFEE9FDE8FC9000491241B99001C4746A
:1020160040F0124A6D900049E0FCA3E0FDA3E0FE0B
:10202600A3E0FF78081241969000491241B9900248
:1020360012E0FF900049E0F8A3E0F9A3E0FAA3E07C
:102046004FFFEAFEE9FDE8FC9000491241B9900015
:1020560049E0FCA3E0FDA3E0FEA3E0FFEC12408E06
:1020660090021F1241B990021FE0FCA3E0FDA3E01D
:10207600FEA3E0FF1246E8900016E0F8A3E0F9A3FD
:10208600E0FAA3E0FB123F8490021F1241B9E4FF7D
:10209600FE7D207C4190021FE0F8A3E0F9A3E0FA60
:1020A600A3E0FB124021500A90021F1241C5000016
:1020B60000009005B5E4F0A37404F00221CD900170
:1020C600C47442F0124A6D900212E0FFE4FCFDFE79
:1020D6009000491241B99001C47443F0124A6D90C0
:1020E6000049E0FCA3E0FDA3E0FEA3E0FF780812B0
:1020F60041969000491241B9900212E0FF900049C2
:10210600E0F8A3E0F9A3E0FAA3E04FFFEAFEE9FD59
:10211600E8FC9000491241B99001C47444F0124A97
:102126006D900049E0FCA3E0FDA3E0FEA3E0FF788C
:10213600081241969000491241B9900212E0FF90B0
:102146000049E0F8A3E0F9A3E0FAA3E04FFFEAFEB6
:10215600E9FDE8FC9000491241B9900049E0FCA372
:10216600E0FDA3E0FEA3E0FFEC12408E90024E12CB
:1021760041B990024EE0FCA3E0FDA3E0FEA3E0FF20
:102186001246E890001AE0F8A3E0F9A3E0FAA3E00B
:10219600FB123F8490024E1241B9E4FFFE7D207C83
:1021A6004190024EE0F8A3E0F9A3E0FAA3E0FB12A7
:1021B6004021500A90024E1241C5000000009005D1
:1021C600B5E4F0A37405F0900199E06401600302A0
:1021D60030FEF0900555E07004A3E064DC60030275
:1021E600233290055DE0C313A3E01390023DF05443
:1021F60003FFF090019AE06F6003022332FF90051F
:1022060054E0543F900587CFF0A3EFF0E024ECF0C4
:10221600900587E034FFF0E4F0A3E0540FF090055A
:1022260061E0FCA3E0FD900588E025E0FF900587CE
:10223600E033FE74942FF58274023EF583ECF0A32E
:10224600EDF074942FF58274023EF583C083C0824C
:10225600A3E0D082D083F0A3E4F0900588E025E0E7
:10226600FF900587E033FE74942FF58274023EF5E5
:1022760083E0FCA3E0FD90055FE04CFCA3E04DFD90
:1022860074942FF58274023EF583ECF0A3EDF09082
:102296000029E0FCA3E0FD900588E025E0FF90051D
:1022A60087E033FE74BD2FF58274023EF583ECF0B1
:1022B600A3EDF074BD2FF58274023EF583C083C092
:1022C60082A3E0D082D083F0A3E4F0900588E025D5
:1022D600E0FF900587E033FE74BD2FF58274023E61
:1022E600F583E0FCA3E0FD900573E04CFCA3E04D14
:1022F600FD74BD2FF58274023EF583ECF0A3EDF07C
:1023060090055EE090058730E012E0FEA3E02463CE
:10231600F58274053EF5837402F08010E0FEA3E0BA
:102326002463F58274053EF5837401F0900267E03C
:1023360070030230FE9004F6E0FF7E00900553E045
:102346007003A3E06F60030230FE900555E06E70E7
:1023560003A3E06F60030230FE900558E07004A30B
:10236600E064EE6003022F5A90055FE0FEA3E0FFF3
:1023760090055DE0FCA3E0FD6F7002EC6E60030269
:102386002F5A90004DF0A37432F0ED64024C703C6D
:102396007F9A7E997D097C41900002E0F8A3E0F9DE
:1023A600A3E0FAA3E0FB1240216021401F90000247
:1023B600E0FCA3E0FDA3E0FEA3E0FF7B0A7AD77969
:1023C6002378BC123D8A9000021241B990055DE067
:1023D6007004A3E06403703C7F9A7E997D097C417A
:1023E600900002E0F8A3E0F9A3E0FAA3E0FB1240B4
:1023F600216021401F900002E0FCA3E0FDA3E0FE67
:10240600A3E0FF7BCD7ACC79CC78BD123D8A9000D3
:10241600021241B990055DE07004A3E06404703ACD
:102426007F9A7E997D397C41900002E0F8A3E0F91D
:10243600A3E0FAA3E0FB124021501F900002E0FC4B
:10244600A3E0FDA3E0FEA3E0FF7B0A7AD779237819
:102456003C123D8A9000021241B990055DE070047D
:10246600A3E06405703A7F9A7E997D397C4190009D
:1024760002E0F8A3E0F9A3E0FAA3E0FB1240215042
:102486001F900002E0FCA3E0FDA3E0FEA3E0FF7BBB
:10249600CD7ACC79CC783D123D8A9000021241B9B2
:1024A60090055DE07004A3E06442703C7F9A7E99DB
:1024B6007D097C41900016E0F8A3E0F9A3E0FAA3B9
:1024C600E0FB1240216021401F900016E0FCA3E0D3
:1024D600FDA3E0FEA3E0FF7B0A7AD7792378BC123E
:1024E6003D8A9000161241B990055DE07004A3E0A4
:1024F6006443703C7F9A7E997D097C41900016E08A
:10250600F8A3E0F9A3E0FAA3E0FB12402160214022
:102516001F900016E0FCA3E0FDA3E0FEA3E0FF7B16
:10252600CD7ACC79CC78BD123D8A9000161241B98D
:1025360090055DE07004A3E06444703A7F9A7E994A
:102546007D397C41900016E0F8A3E0F9A3E0FAA3F8
:10255600E0FB124021501F900016E0FCA3E0FDA313
:10256600E0FEA3E0FF7B0A7AD77923783C123D8A06
:102576009000161241B990055DE07004A3E0644531
:10258600703A7F9A7E997D397C41900016E0F8A3D7
:10259600E0F9A3E0FAA3E0FB124021501F900016D9
:1025A600E0FCA3E0FDA3E0FEA3E0FF7BCD7ACC79BF
:1025B600CC783D123D8A9000161241B990055DE037
:1025C6007004A3E06452703C7F9A7E997D097C4139
:1025D60090001AE0F8A3E0F9A3E0FAA3E0FB1240AA
:1025E600216021401F90001AE0FCA3E0FDA3E0FE5D
:1025F600A3E0FF7B0A7AD7792378BC123D8A900044
:102606001A1241B990055DE07004A3E06453703C72
:102616007F9A7E997D097C4190001AE0F8A3E0F943
:10262600A3E0FAA3E0FB1240216021401F90001AAC
:10263600E0FCA3E0FDA3E0FEA3E0FF7BCD7ACC792E
:10264600CC78BD123D8A90001A1241B990055DE022
:102656007004A3E06454703A7F9A7E997D397C4178
:1026660090001AE0F8A3E0F9A3E0FAA3E0FB124019
:1026760021501F90001AE0FCA3E0FDA3E0FEA3E0BA
:10268600FF7B0A7AD77923783C123D8A90001A128A
:1026960041B990055DE07004A3E06455703A7F9AF5
:1026A6007E997D397C4190001AE0F8A3E0F9A3E019
:1026B600FAA3E0FB124021501F90001AE0FCA3E0B1
:1026C600FDA3E0FEA3E0FF7BCD7ACC79CC783D126A
:1026D6003D8A90001A1241B990055DE07004A3E0AE
:1026E6006462703C7F9A7E997D197C4090000EE072
:1026F600F8A3E0F9A3E0FAA3E0FB12402160214031
:102706001F90000EE0FCA3E0FDA3E0FEA3E0FF7B2C
:102716000A7AD7792378BC123D8A90000E1241B905
:1027260090055DE07004A3E06463703C7F9A7E9937
:102736007D197C4090000EE0F8A3E0F9A3E0FAA32F
:10274600E0FB1240216021401F90000EE0FCA3E058
:10275600FDA3E0FEA3E0FF7BCD7ACC79CC78BD1259
:102766003D8A90000E1241B990055DE07004A3E029
:102776006464703A7F9A7E997DD97C4090000EE021
:10278600F8A3E0F9A3E0FAA3E0FB124021501F9062
:10279600000EE0FCA3E0FDA3E0FEA3E0FF7B0A7AC7
:1027A600D77923783C123D8A90000E1241B99005E4
:1027B6005DE07004A3E06465703A7F9A7E997DD9E6
:1027C6007C4090000EE0F8A3E0F9A3E0FAA3E0FB5A
:1027D600124021501F90000EE0FCA3E0FDA3E0FE96
:1027E600A3E0FF7BCD7ACC79CC783D123D8A900070
:1027F6000E1241B990055DE0FAA3E0FB64214A7030
:10280600149004DFE0FCA3E0FDA3E0FEA3E0FF904C
:10281600000A1241B9EB64224A703C7F337E337D55
:10282600A97C42900006E0F8A3E0F9A3E0FAA3E051
:10283600FB1240216021401F900006E0FCA3E0FD52
:10284600A3E0FEA3E0FF7BCD7ACC79CC78BD123D28
:102856008A9000061241B990055DE07004A3E06419
:1028660023703B7F337E337DA97C42900006E0F8DF
:10287600A3E0F9A3E0FAA3E0FB1240216020401E8A
:10288600900006E0FCA3E0FDA3E0FEA3E0FFE4FB6E
:10289600FA798078BF123D8A9000061241B99005F8
:1028A6005DE07004A3E06424703A7F9A7E997D1AF5
:1028B6007C43900006E0F8A3E0F9A3E0FAA3E0FB6E
:1028C600124021501F900006E0FCA3E0FDA3E0FEAD
:1028D600A3E0FF7BCD7ACC79CC783D123D8A90007F
:1028E600061241B990055DE07004A3E064257039D5
:1028F6007F9A7E997D1A7C43900006E0F8A3E0F962
:10290600A3E0FAA3E0FB124021501E900006E0FC73
:10291600A3E0FDA3E0FEA3E0FFE4FBFA7980783FA5
:10292600123D8A9000061241B990055DE07004A33D
:10293600E064327038FFFE7DB47C43900012E0F80C
:10294600A3E0F9A3E0FAA3E0FB124021501F900098
:1029560012E0FCA3E0FDA3E0FEA3E0FF7BCD7ACC72
:1029660079CC783D123D8A9000121241B990055DEE
:10297600E07004A3E064337037FFFE7DB47C4390BF
:102986000012E0F8A3E0F9A3E0FAA3E0FB1240216D
:10299600501E900012E0FCA3E0FDA3E0FEA3E0FFC2
:1029A600E4FBFA7980783F123D8A9000121241B911
:1029B60090055DE07004A3E06434703AFFFE7D96F6
:1029C6007C43900012E0F8A3E0F9A3E0FAA3E0FB51
:1029D6001240216021401F900012E0FCA3E0FDA3FD
:1029E600E0FEA3E0FF7BCD7ACC79CC78BD123D8AA0
:1029F6009000121241B990055DE07004A3E06435C1
:102A06007039FFFE7D967C43900012E0F8A3E0F952
:102A1600A3E0FAA3E0FB1240216020401E900012C2
:102A2600E0FCA3E0FDA3E0FEA3E0FFE4FBFA79806F
:102A360078BF123D8A9000121241B990055DE07090
:102A460004A3E06472703AFFFE7D207C429000236E
:102A5600E0F8A3E0F9A3E0FAA3E0FB12402160212D
:102A6600401F900023E0FCA3E0FDA3E0FEA3E0FFEF
:102A76007B0A7AD7792378BC123D8A9000231241CB
:102A8600B990055DE07004A3E06473703AFFFE7DC3
:102A9600207C42900023E0F8A3E0F9A3E0FAA3E04B
:102AA600FB1240216021401F900023E0FCA3E0FDC3
:102AB600A3E0FEA3E0FF7BCD7ACC79CC78BD123DB6
:102AC6008A9000231241B990055DE07004A3E0648A
:102AD600747038FFFE7DB47C42900023E0F8A3E0DA
:102AE600F9A3E0FAA3E0FB124021501F900023E077
:102AF600FCA3E0FDA3E0FEA3E0FF7B0A7AD77923DF
:102B0600783C123D8A9000231241B990055DE07031
:102B160004A3E064757038FFFE7DB47C4290002308
:102B2600E0F8A3E0F9A3E0FAA3E0FB124021501F6E
:102B3600900023E0FCA3E0FDA3E0FEA3E0FF7BCD35
:102B46007ACC79CC783D123D8A9000231241B99017
:102B5600055DE0FEA3E0FF64824E7010900028E061
:102B6600FD900027E0C39D5003E004F0EF64834E20
:102B76007013900028E024F7FF900027E0C39F50D1
:102B860004E0240AF090055DE07004A3E06484701C
:102B96000C900027E0D394284003E014F090055DE4
:102BA600E0FEA3E0FF64854E700D900027E0D3940D
:102BB600314004E024F6F0EF64924E700C90002849
:102BC600E0C394485003E004F090055DE07004A370
:102BD600E06493700D900028E0C3943F5004E02415
:102BE6000AF090055DE0FEA3E0FF64944E700E903F
:102BF6000027E0FDA3E0D39D4003E014F0EF6495C9
:102C06004E701B900027E02409FFE433FEA3E0D3B7
:102C16009FEE6480F87480984004E024F6F09005F6
:102C26005DE0FEA3E0FF54F064A06003022D2DEFEB
:102C360064A24E701090001FE0FF90001EE0C39F3C
:102C46005003E004F090055DE07004A3E064A37017
:102C56001390001FE024F6FF90001EE0C39F50046F
:102C6600E0240AF090055DE0FEA3E0FF64A44E7048
:102C76000C90001EE0D394964003E014F0EF64A598
:102C86004E700D90001EE0D394A04004E024F6F0B0
:102C960090001EE0FCE41240989001721241B99037
:102CA600001FE0FCE41240989001821241B99001A5
:102CB60072E0F8A3E0F9A3E0FAA3E0FB900182E05A
:102CC600FCA3E0FDA3E0FEA3E0FF123D86E4FBFAD1
:102CD60079207841123F8490050D1241B990050D77
:102CE600E0F8A3E0F9A3E0FAA3E0FB900182E0FCA0
:102CF600A3E0FDA3E0FEA3E0FF123D86900189124A
:102D060041B990050DE0FCA3E0FDA3E0FEA3E0FFC2
:102D1600900172E0F8A3E0F9A3E0FAA3E0FB123D0C
:102D26008A90017D1241B990055DE0FEA3E0FF5453
:102D3600F064B06003022E3CEF64B24E700C90005B
:102D46001FE0C394FF5003E004F090055DE07004BB
:102D5600A3E064B3700D90001FE0C394F65004E046
:102D6600240AF090055DE0FEA3E0FF64B44E700E09
:102D760090001EE0FDA3E0D39D4003E014F0EF6455
:102D8600B54E701B90001EE0240AFFE433FEA3E05C
:102D9600D39FEE6480F87480984004E024F6F090A7
:102DA600001EE0FCE41240989001721241B99000B6
:102DB6001FE0FCE41240989001821241B990017222
:102DC600E0F8A3E0F9A3E0FAA3E0FB900182E0FCBF
:102DD600A3E0FDA3E0FEA3E0FF123D86E4FBFA7943
:102DE600207841123F8490050D1241B990050DE0FF
:102DF600F8A3E0F9A3E0FAA3E0FB900182E0FCA3CC
:102E0600E0FDA3E0FEA3E0FF123D8690018912419A
:102E1600B990050DE0FCA3E0FDA3E0FEA3E0FF9062
:102E26000172E0F8A3E0F9A3E0FAA3E0FB123D8A01
:102E360090017D1241B990055EE054F064C0703F88
:102E46009005B0F0900212F09001C4740AF0124A94
:102E56000E1249FF90055DE0FEA3E0FF64C24E70CE
:102E66000C900020E0C394025003E004F0EF64C429
:102E76004E700C900020E0D394004003E014F090D4
:102E8600055EE054F064D070739005B0F0900212C5
:102E9600F09001C4740AF0124A0E1249FF90055DC3
:102EA600E07004A3E064D27023900021E0B4010333
:102EB6007403F0900021E0700204F0900021E0908D
:102EC6000212F09001C47468F0124A0E90055DE09B
:102ED6007004A3E064D47024900021E0B40102E4FD
:102EE600F0900021E0B403037401F0900021E0901B
:102EF6000212F09001C47468F0124A0E90055EE06A
:102F060054F064E070309005B0F0900212F0900139
:102F1600C4740AF0124A0E1249FF90055DE0FEA342
:102F2600E0FF64E24E700590002204F0EF64E44E88
:102F36007004900022F090055EE054F064F0701486
:102F46009005B0F0900212F09001C4740AF0124A93
:102F56000E1249FF900558E07004A3E064ED60038B
:102F66000230AC900535E06003023043900288E001
:102F76006003023043900256E06003023043FFFED6
:102F86007D487C43A3E0F8A3E0F9A3E0FAA3E0FBC5
:102F9600124021500D9004F9E06405600DE004F044
:102FA60080089004F9E0600214F0E4FFFE7D707C76
:102FB60043900257E0F8A3E0F9A3E0FAA3E0FB127E
:102FC6004021600F400D90003CE06405600DE00478
:102FD600F0800890003CE0600214F090003CE0FFB6
:102FE600B40502D203EF7002C2039004F9E0FFB405
:102FF6000502D204EF7002C204E4FFFE7D8C7C421F
:1030060090025DE0F8A3E0F9A3E0FAA3E0FB12402A
:103016002160064004D2028002C202E4FFFE7DA0C7
:103026007C4290025DE0F8A3E0F9A3E0FAA3E0FB9E
:1030360012402160064004D2018002C2019000398C
:10304600E0FF24CCF582E43401F5837401F0EF64EB
:10305600316008900039E004F08005E4900039F012
:10306600900039E0FF24CCF582E43401F583740244
:10307600F0EF64316008900039E004F08005E490D8
:103086000039F0900039E0FF24CCF582E43401F5F4
:10309600837405F0EF64316008900039E004F08035
:1030A60005E4900039F0900558E07004A3E064FD53
:1030B6007046900039E0FF24CCF582E43401F583B4
:1030C6007404F0EF64316008900039E004F0800584
:1030D600E4900039F0900039E0FF24CCF582E43426
:1030E60001F5837406F0EF64316008900039E0045E
:1030F600F08005E4900039F090004DE07004A3E004
:103106006401700A12491DE490004DF0A3F090028C
:1031160036E06028900039E0FF24CCF582E43401E3
:10312600F5837403F0EF64316008900039E004F031
:103136008005E4900039F0E4900236F0900524E032
:10314600606E900039E0FF24CCF582E43401F5830B
:103156007401F0EF64316008900039E004F08005F6
:10316600E4900039F0900039E0FF24CCF582E43495
:1031760001F5837402F0EF64316008900039E004D1
:10318600F08005E4900039F0900039E0FF24CCF59A
:1031960082E43401F5837405F0EF64316008900031
:1031A60039E004F08005E4900039F0E4900524F05D
:1031B600900238E070030207739001B5E06005E401
:1031C600F012478EE4900238F0900039E0FF90004C
:1031D60033E0FE6F700302077374CC2EF582E4347D
:1031E60001F583E024FE70030233101470030234E9
:1031F60030147003023BB7147003023C02147003D0
:10320600023D2E24056003023D6D9004F6E0444025
:1032160090019BF09001A174DDF0E4FFFE7D207C1F
:1032260041900223E0F8A3E0F9A3E0FAA3E0FB1241
:103236003E7B1240CC9004E4EFF09001A2F0E4FF54
:10324600FE7D207C41900223E0F8A3E0F9A3E0FA9A
:10325600A3E0FB123E7BE4FBFA79807843123F84BD
:103266001240CC9001CBEFF09001AAF0900195E0CE
:10327600FCA3E0FDA3E0FEA3E0FF1240CC900045D6
:10328600EEF0A3EFF0900045E0FCA3E0FDECFF3389
:1032960095E090020DEFF0AE05900501EEF090017D
:1032A600ACF09001B2EFF0E4FFFE7D207C4190028D
:1032B60057E0F8A3E0F9A3E0FAA3E0FB123E7B1285
:1032C60040CC9002BAEFF09001B4F0E4FFFE7D200E
:1032D6007C41900257E0F8A3E0F9A3E0FAA3E0FBF3
:1032E600123E7BE4FBFA79807843123F841240CC8D
:1032F6009001B3EFF09001BCF09001B5E0700302CD
:103306003D6AE4F012478E023D6A9004F6E04440BE
:1033160090019BF09001A174DEF0E4FFFEFDFC90AD
:10332600025DE0F8A3E0F9A3E0FAA3E0FB12402176
:103336005007E490022DF0801690025DE0FCA3E0B9
:10334600FDA3E0FEA3E0FF1240CC90022DEFF0902B
:10335600025DE0FCA3E0FDA3E0FEA3E0FF1240CC8B
:103366009001A2EFF0900038E0B40104D20580028B
:10337600C2059001AAE520F0E4FFFE7D207C419085
:10338600024EE0F8A3E0F9A3E0FAA3E0FB123E7BCD
:103396001240CC9002BAEFF09001ACF0E4FFFE7D53
:1033A600207C4190024EE0F8A3E0F9A3E0FAA3E006
:1033B600FB123E7BE4FBFA79807843123F8412408D
:1033C600CC9001B3EFF09001B2F0E4FFFE7D207CDB
:1033D6004190021FE0F8A3E0F9A3E0FAA3E0FB1294
:1033E6003E7B1240CC9002BAEFF09001B4F0E4FFBD
:1033F600FE7D207C4190021FE0F8A3E0F9A3E0FAED
:10340600A3E0FB123E7BE4FBFA79807843123F840B
:103416001240CC9001B3EFF09001BCF09001B5E002
:103426006005E4F012478E023D6A9004F6E04440DF
:1034360090019BF09001A174DCF09001C47466F0D9
:10344600124A6D900212E0B401089001A27401F0D4
:103456008005E49001A2F090019AE025E09001AA8F
:10346600F0900195E0FCA3E0FDA3E0FEA3E0FF12CF
:1034760040CC90058DEEF0A3EFF0900045EEF0A362
:10348600EFF0900045E0FCA3E0FDECFF3395E09003
:10349600020DEFF0AE05900501EEF09001ACF09054
:1034A60001B2EFF09001B5E0640160067401F0121C
:1034B600478E900038E064017054FFFE7D207C4109
:1034C600900257E0F8A3E0F9A3E0FAA3E0FB123E6E
:1034D6007B1240CC9002BAEFF09001B4F0E4FFFE0C
:1034E6007D207C41900257E0F8A3E0F9A3E0FAA31F
:1034F600E0FB123E7BE4FBFA79807843123F8412AC
:1035060040CC9001B3EFF09001BCF01248B49005A6
:103516008AE004F07006900589E004F0900589E0E1
:103526007004A3E064026003023D6D900589F0A378
:10353600F09004F6E0FF244FF582E43405F5837439
:1035460001F090058DE0FCA3E0FDEF25E0246CF58D
:1035560082E43402F583ECF0A3EDF0E4FFFE7D2077
:103566007C41900257E0F8A3E0F9A3E0FAA3E0FB60
:10357600123E7B1240CC9004F6E025E02495F582BD
:10358600E43402F583EEF0A3EFF09005931241C503
:1035960000000000E490058BF0A3F09005A1F090E8
:1035A6000591F0A3F09005971241C5000000009028
:1035B600059B1241C500000000E4900587F0A3F0CA
:1035C600900587E0FEA3E0FFC39410EE648094802C
:1035D600400302370474632FF58274053EF583E0D9
:1035E6006401600302368490058CE004F070069056
:1035F600058BE004F0900593E0F8A3E0F9A3E0FA68
:10360600A3E0FB900588E025E0FF900587E033FE08
:1036160074942FF58274023EF583E0FEA3E0FFEE7C
:103626003395E0FDFCEB2FFFEA3EFEE93DFDE83C6D
:10363600FC9005931241B9900597E0F8A3E0F9A331
:10364600E0FAA3E0FBC000C001C002C003900588F9
:10365600E025E0FF900587E033FE74BD2FF5827408
:10366600023EF583E0FCA3E0FDEC124093D003D0CC
:1036760002D001D000123D8A9005971241B99005FB
:1036860087E0FEA3E02463F58274053EF583E0B48B
:10369600025B900592E004F07006900591E004F05C
:1036A6009005A17401F090059BE0F8A3E0F9A3E072
:1036B600FAA3E0FBC000C001C002C003900588E089
:1036C60025E0FF900587E033FE74BD2FF582740276
:1036D6003EF583E0FCA3E0FDEC124093D003D0025C
:1036E600D001D000123D8A90059B1241B990058801
:1036F600E004F07006900587E004F00235C69005F8
:1037060093E0FCA3E0FDA3E0FEA3E0FFC006C00734
:1037160090058BE0FEA3E0FBAA06EA3395E0F9F8F4
:10372600D007D00612497C9005931241B990058BBB
:10373600E0FCA3E0FDEC124093A804A905AA06ABA1
:1037460007900597E0FCA3E0FDA3E0FEA3E0FF12CF
:103756003F84E4FBFA79207841123F849005971262
:1037660041B99005A1E06045E4FBFA7920784190E3
:10377600059BE0FCA3E0FDA3E0FEA3E0FF123F846F
:10378600C004C005C006C007900591E0FCA3E0FD9B
:10379600EC124093A804A905AA06AB07D007D006E9
:1037A600D005D004123F849005971241B99005A127
:1037B600E0600990052EE4F0A3741EF0900593A333
:1037C600A3E0FFA3E090058FCFF0A3EFF0900038C1
:1037D600E064016003023A4D9005A5E0FEA3E0FF18
:1037E600E4FCFD9005791241B990058FE0FEA3E057
:1037F600FF90058DE0FCA3E0FDC39FEE6480F8EC2E
:10380600648098500990059F7401F0E4A3F0D3ED0D
:103816009FEE6480F8EC6480984008E490059FF081
:10382600A304F090059FE0606590057DE4F0A30495
:10383600F0E47F6C7EE8FDFC900579E0F8A3E0F902
:10384600A3E0FAA3E0FBC312416D5042900579E074
:10385600F890057FE0FEA3E0FFEE3395E0FDFCEB7C
:103866002FFFEA3EFEE93DFDE83CFC90057912415A
:10387600B9C3900580E0941490057FE0648094803D
:10388600500CA3E004F0700690057FE004F090056C
:10389600A0E0607790057FE4F0A304F0E47FE47E87
:1038A600D4FDFC900579E0F8A3E0F9A3E0FAA3E0E3
:1038B600FBD312416D4054900579E0FCA3E0FDA3D3
:1038C600E0FEA3E0FFC006C007A3E0FEA3E0FBAA5C
:1038D60006EA3395E0F9F8D007D006C3EF9BFFEE72
:1038E6009AFEED99FDEC98FC9005791241B9C390CA
:1038F600057EE0941490057DE064809480500CA3CE
:10390600E004F0700690057DE004F0900579A3A32D
:10391600E0FFA3E09005A5CFF0A3EFF090052EE021
:10392600FEA3E0FF4E6009EF641E4E6003023B619A
:10393600E4FFFE7D487C43900597E0F8A3E0F9A3F9
:10394600E0FAA3E0FB12402160025003023B6190C3
:103956000597E0F8A3E0F9A3E0FAA3E0FBE4FFFE95
:103966007D5C7C43123F841246E89000411241B9C7
:103976007FEE7E7C7D7F7C3F900041E0F8A3E0F9FE
:10398600A3E0FAA3E0FB124021500A900041124145
:10399600C53F7F7CEE7F897E417D807C3F900041E4
:1039A600E0F8A3E0F9A3E0FAA3E0FB124021600CE3
:1039B600400A9000411241C53F8041899005A5E02B
:1039C600FCA3E0FDE4124093900041E0F8A3E0F987
:1039D600A3E0FAA3E0FB123E7B9000411241B97FBF
:1039E600007E6C7D687C47900041E0F8A3E0F9A377
:1039F600E0FAA3E0FB124021600C400A900041125D
:103A060041C547686C007F007EE47D547C4790008A
:103A160041E0F8A3E0F9A3E0FAA3E0FB124021504D
:103A26000A9000411241C54754E400900041E0FC71
:103A3600A3E0FDA3E0FEA3E0FF1240CC9005A5EEB7
:103A4600F0A3EFF0023B61E4FFFE7D487C43900269
:103A560057E0F8A3E0F9A3E0FAA3E0FB12402160E7
:103A6600025003023B61900257E0F8A3E0F9A3E09D
:103A7600FAA3E0FBE4FFFE7D5C7C43123F84124622
:103A8600E89000411241B97F527EB87D7E7C3F901E
:103A96000041E0F8A3E0F9A3E0FAA3E0FB1240211D
:103AA600500A9000411241C53F7EB8527FD77EA38F
:103AB6007D807C3F900041E0F8A3E0F9A3E0FAA303
:103AC600E0FB124021600C400A9000411241C53FC4
:103AD60080A3D79005A5E0FCA3E0FDE412409390F7
:103AE6000041E0F8A3E0F9A3E0FAA3E0FB123E7B75
:103AF6009000411241B97F007E6C7D687C47900042
:103B060041E0F8A3E0F9A3E0FAA3E0FB124021604C
:103B16000C400A9000411241C547686C007F007E48
:103B2600E47D547C47900041E0F8A3E0F9A3E0FA75
:103B3600A3E0FB124021500A9000411241C54754B0
:103B4600E400900041E0FCA3E0FDA3E0FEA3E0FF5B
:103B56001240CC9005A5EEF0A3EFF09005A5E090FD
:103B66000212F0E4124A0A9005A5A3E0900212F0B0
:103B76009001C47401F0124A0EE4900587F0A3F098
:103B8600900587E0FEA3E0FFC39410EE6480948066
:103B96004003023D6D74632FF58274053EF583E4A0
:103BA600F0900588E004F070D7900587E004F08077
:103BB600CF9004F6E0444090019BF09001A174DFA1
:103BC600F090001EE09001A2F090001FE09001AA84
:103BD600F0900020E09001ACF0900021E09001B25E
:103BE600F0900022E09001B4F0E49001BCF0900166
:103BF600B5E06005E4F012478E023D6A9004F6E0F7
:103C0600444090019BF09001A174DAF0E4FFFE7D40
:103C1600207C41900275E0F8A3E0F9A3E0FAA3E066
:103C2600FB123E7B1240CC9002BAEFF09001A2F05C
:103C3600E4FFFE7D207C41900275E0F8A3E0F9A345
:103C4600E0FAA3E0FB123E7BE4FBFA7980784312AC
:103C56003F841240CC9001B3EFF09001AAF0E490BB
:103C660001ACF0900027E0FCE4124098900275E069
:103C7600F8A3E0F9A3E0FAA3E0FB12402150079075
:103C860001ACE04401F07F007E807D3B7C459005E1
:103C9600A9E0F8A3E0F9A3E0FAA3E0FB1240216053
:103CA600234021E4FFFE7D617C459005A9E0F8A351
:103CB600E0F9A3E0FAA3E0FB12402150079001AC23
:103CC600E04402F0E4FFFE7D617C459005A9E0F842
:103CD600A3E0F9A3E0FAA3E0FB1240216009400744
:103CE6009001ACE04404F09001ADE060079001ACB7
:103CF600E04420F0900540E060079001ACE04440CD
:103D0600F090052DE060079001ACE04480F0E4906F
:103D160001B2F09001B4F09001BCF09001B5E06002
:103D260005E4F012478E803C9004F6E04440900192
:103D36009BF09001A174DBF0900027E09001A2F0C7
:103D4600900028E09001AAF0E49001ACF09001B256
:103D5600F09001B4F09001BCF09001B5E06005E48C
:103D6600F012478E1248B4900033E064316006E0EA
:0D3D760004F0020773E4900033F0020773BD
:10002E009005BBE5A7F075A70F43A1C775EF04E0D8
:10003E00F5A775A70F43800C759F66E49005B9F080
:10004E00A3F09005BAE004F070069005B9E004F054
:10005E009005B9E0B40BEBA3E0B4B8E6E59F30E74A
:0A006E00FB758F0175A1C6E4F5A72C
:010078002265
:100003009005BCE5A7F075A70F75981075ADFB7546
:10001300AC8043AB0343AB40D299758810E0F5A79E
:0100230022BA
:104ACA009005B9E5A7F075A70F75D43F75F1F07594
:104ADA00A4507580FF75D51E75F2E175A5E1759034
:0D4AEA001F75E10275E20275C7C0E0F5A777
:014AF700229C
:10478E009005BAE5A7F075A70C43C00143C04E755E
:10479E009B44759ADF75C30075C2F0E4F5C5F5C488
:1047AE00F5C7F5C6F5CBF5CA9001B5E0FF700675F5
:1047BE00CDA675CC38EFB4010675CDA275CC787543
:1047CE00D30075D288E4F5BFF5BEE5BF20E7FB75D3
:1047DE00C30075C2F0E4F5C5F5C4F5C7F5C6F5CB53
:1047EE00F5CA9001B5E0FF700675CD8275CC78EFF5
:1047FE00B4010675CD8675CC3875D31475D288750F
:10480E00BF0075BE01E5BF20E7FB53C0BE43E70204
:09481E0075F7029005BAE0F5A758
:01482700226E
:1048B4009005B9E5A7F075A70CE5A345A5FEE5A20B
:1048C40045A44E600312478EE5A345A5FEE5A24527
:1048D400A44E70F490019BE0F5D49001A1E0F5D5CD
:1048E400A3E0F5D69001AAE0F5D79001ACE0F5DAA3
:1048F4009001B2E0F5DB9001B4E0F5DC9001BCE09E
:10490400F5DD75C30075C287E4F5BFF5BEE5BF20CC
:08491400E7FB9005B9E0F5A7EF
:01491C002278
:030083000245FD36
:1045FD00C0E0C083C082C0D075D000C005C006C069
:01460D0007A5
:10460E00900575E594F0AF9CA3EFF0E0FFB40106C2
:10461E0075C30075C27FEF7005F5C375C20875BF0F
:10462E00008FBEE5BF20E7FB900575E0FF30E4711B
:10463E00A3E0FE6401706AEEFD900187E4F0A3ED45
:10464E00F0AED4EEFD900553E4F0A3EDF0AED5EE52
:10465E00FDA3E4F0A3EDF0AED6EEFD900558E4F028
:10466E00A3EDF0AED7EEFD90055DE4F0A3EDF0AE58
:10467E00DAEEFDA3E4F0A3EDF0AEDBEEFDA3E4F085
:10468E00A3EDF0AEDCEEFD900573E4F0A3EDF0AE1D
:10469E00DDEEFD900029E4F0A3EDF0900199740198
:1046AE00F0900576E0B42002E4F0EF540760066463
:1046BE00076002D208900575E030E702D208900537
:0746CE0075E030E602D2089E
:0F46D500D007D006D005D0D0D082D083D0E0322D
:104AF8009005B9E5A7F0E4F5A7F5E875D12B75BCE5
:064B080030D2EFE0F5A73A
:014B0E002284
:104A9A009005B9E5A7F0E4F5A7F5C8438E10900292
:104AAA0005E024CBFF900204E034D4F5CB8FCA741E
:0F4ABA00FFF5CDF5CCD2ADD2CA9005B9E0F5A786
:014AC90022CA
:03002B000242C4CA
:1042C400C0E0C083C082C0D075D000C007C2CF9008
:1042D40004F5E004F0E064327028F090023804F051
:1042E400900237E004F0E0B40507E4F090023604ED
:1042F400F0900525E004F0E0B41407E4F090052400
:1043040004F0900286E004F07006900285E004F068
:10431400900285E07004A3E064C860030245F29053
:10432400052AE07002A3E0600E90052BE024FFF064
:1043340090052AE034FFF090050BE07002A3E060E2
:104344000E90050CE024FFF090050BE034FFF0D351
:1043540090004EE0940190004DE064809480400C05
:10436400A3E024FFF090004DE034FFF0900285E4D8
:10437400F0A3F0900190E004F0E0B43202E4F09095
:104384000206E0FF600B900190E070059001AD041F
:10439400F0EF600C900190E0B402059001ADE4F000
:1043A40090018DE004F0E0B41E02E4F0900534E0E6
:1043B40014600F14601414602514603E24047062A9
:1043C400805B9005407401F0805890018DE0FF30CF
:1043D400E0069005407401F0EF20E046803F900134
:1043E4008DE0FF6003B404069005407401F0EF64AF
:1043F400026005EF6406702A802390018DE0FF605F
:104404000864046004EFB408069005407401F0EFFA
:1044140064026009EF64066004EFB40A0590054085
:10442400E4F0900181E004F0E0640A6003024519BD
:10443400F09001CAE0600E900228E004F07006904B
:104444000227E004F09004F7E0601C900228E004E6
:10445400F07006900227E004F0900529E004F07063
:1044640006900528E004F09001C5E0602A90022837
:10447400E004F07006900227E004F0900529E004BF
:10448400F07006900528E004F090021EE004F0703D
:104494000690021DE004F0C390021EE09404900212
:1044A4001DE06480948040199002567401F09002DB
:1044B40027E4F0A3F0900528F0A3F090021DF0A3E8
:1044C400F0C3900529E09414900528E0648094805A
:1044D40040199002567401F0900227E4F0A3F09082
:1044E4000528F0A3F090021DF0A3F0C3900228E089
:1044F400943C900227E064809480401990025674A2
:1045040001F0900227E4F0A3F0900528F0A3F090C6
:10451400021DF0A3F09001CAE0FF6014900181E055
:10452400700E9001AD04F090052DF0900506E4F0B6
:10453400EF600C900181E0B402059001ADE4F090CD
:10454400027DE004F0E0B40502E4F09004F7E0FF3B
:10455400601490027DE0700E9001AD04F090052D82
:10456400F0900506E4F0EF600C90027DE0B40205E3
:104574009001ADE4F09001C5E0FF600F9001AD74CF
:1045840001F090052DF0900506E4F090052DE0B4BF
:10459400010F900506E004F0E0B4030590052DE456
:1045A400F0900206E070479001CAE070419004F771
:1045B400E0703BEF703890052DF0900194E06008B6
:1045C4009001AD7401F08026900193E0601B90018E
:1045D4008DE0FF6003B404069001AD7401F0EF6454
:1045E400026006EFB4060780009001ADE4F0D00746
:0945F400D0D0D082D083D0E03297
:10491D0090027B7478F0A37400F01249C090027B72
:10492D007478F0A37400F0E49005B9F0A3F090054D
:10493D00B9E0FEA3E0FFC3EE6480948250307400B2
:10494D002FF58274003EF583E0900273F0124A3524
:10495D0090027CE004F0700690027BE004F090057C
:0E496D00BAE004F070C89005B9E004F080C014
:01497B002219
:1049C000A2AF92099005BBE5A7F0E4F5A7C2AF75C9
:1049D000FFA075EF0290027BE0FEA3E0F5828E83DC
:1049E00075B7A575B7F1438F0375FFA075EF02E4A6
:0E49F000F0538FFCA20992AF9005BBE0F5A733
:0149FE002296
:104A3500A2AF9209C2AF75FFA075EF0290027BE0AD
:104A4500FEA3E0FF75B7A575B7F1438F0175FFA00C
:104A550075EF02900273E08F828E83F0538FFEA272
:034A65000992AF04
:014A6800222B
:0F49FF00E49005B1F0900212F0740B9001C4F037
:104A0E009005B9E5A7F075A70F75A6FF9001C4E054
:104A1E00F5A0C295D295C297900212E0F5A0D2975A
:064A2E009005B9E0F5A7B8
:014A3400225F
:044A69009001C4F004
:104A6D009005B9E5A7F075A70F75A6FF9001C4E0F5
:104A7D00F5A0C295D295E4F5A675A0FFC296900259
:0C4A8D0012E5A0F0D2969005B9E0F5A764
:014A990022FA
:103D8300024138E86480F8E933E83360110460F0F5
:103D9300ED33EC337009E8FCE9FDEAFEEBFF2204A6
:103DA30060DED3EB9FEA9EE99DE8C2E78CF0C2F7A1
:103DB30095F0400CE8CCF8E9CDF9EACEFAEBCFFB6D
:103DC30012410385D0F05804700320D5B3E8047082
:103DD300075002B2D502414292D5EC0460F7E4CC1D
:103DE300C0E0C398F8603B94186008400DD0E0FB36
:103DF30002411AE4FBFAC9FC8028E830E406E4C96E
:103E0300FBE4CAFCE830E305E4C9CACBFCE8540789
:103E13006010F8C3E913F9EA13FAEB13FBEC13FC94
:103E2300D8F130F52FC3E49CFCEF9BFFEE9AFEED37
:103E330099FDD0E0FBEF4E4D4C701222DB030241A3
:103E43003FEC2CFCEF33FFEE33FEED33FDED30E7BB
:103E5300EB02411AEF2BFFEE3AFEED39FDD0E0FB0A
:103E630050130BBB0003024142ED13FDEE13FEEFB3
:083E730013FFEC13FC02411ADD
:103E7B00EC4D6011E8497017ED33EC3304600DE441
:103E8B00FCFFFEFD22E933E8330470F802413812DF
:103E9B00410358046009E4CC2481500628500902E0
:103EAB00414228400302413FC0E0EB4A7044B980D5
:103EBB0006D0E0FB02412EEF4E701CBD8008EBFFDD
:103ECB00EAFEE9FD80EBE98DF0A4FEE5F0023F642C
:103EDB00E9CDF9EAFEEBFFEF89F0A4FCE5F0CE8922
:103EEB00F0A42EFFE435F0CD89F0A42DFEE435F0DF
:103EFB008067EF4E7005BD80D780C3EF8BF0A4AC0D
:103F0B00F0EE8BF0A42CFCE435F0F8EF8AF0A42C47
:103F1B00E5F038FCE433CB8DF0A42CFCE5F03BF85A
:103F2B00EE8AF0A42CFCE5F038F8E433CF89F0A44A
:103F3B002CFCE5F038CF3400CE89F0A42FFFE5F050
:103F4B003EFEE433C98DF0A42EFEE5F039CD8AF0A8
:103F5B00A42FFFE5F03EFEE43DFD33D0E0FB500720
:103F6B000BBB000F024142EC2CFCEF33FFEE33FE98
:063F7B00ED33FD02411AC6
:103F8100024142EC5D046005E859047003024138C6
:103F9100124103580460F6EC4860F2EC7004FDFE37
:103FA100FF22C860DB2481C85009C3986002500613
:103FB10002413F9850CAF582E9294B4A7005AB820C
:103FC10002412E75F0007C1A7880C3EF9BEE9AEDCA
:103FD10099400DC3EF9BFFEE9AFEED99FDE842F08B
:103FE100DC23ACF0D0E0FFD0E0FED0E0FDAB8220DE
:103FF100E7101BEB60BAEC2CFCEF33FFEE33FEED68
:1040010033FD02411AE803F830E705C0F075F0000E
:10401100EF2FFFEE33FEED33FD40B830E7C280AA4B
:1040210074F8CC6480CCC86480C8F582046043C352
:10403100EB9FF5F0EA9E42F0E99D42F0E89C45F0E5
:1040410060305018E5825FFFE582F42B5582FB500A
:10405100210ABA001D09B90019088016E5825BFB27
:10406100E582F42F5582FF50090EBE00050DBD00FB
:10407100010CC3EB9FF5F0EA9E42F0E99D42F0E8A6
:0D4081009C45F06007CC4820E701B3EC221D
:10408E0075F020800E75F010800575F0087D007EAD
:10409E00007F003392D530D50312415FEC334010D0
:1040AE00EF33FFEE33FEED33FDEC33FCD5F0ED22B6
:0E40BE00E5F0247EA2D513CC92E7CDCEFF22F2
:1040CC00EDD2E7CD33EC3392D524814006E4FFFEEC
:1040DC00FDFC22FCE4CFCECDCC24E0501174FF804B
:1040EC00EDC3CC13CCCD13CDCE13CECF13CF0470E8
:0740FC00F030D5DE02415F48
:1046E40002413822EDA2E7D2E7F9EC3340F260F35D
:1046F400B4FF08ED547F70E8024142F82481C2E01F
:10470400C0E0F40428FAC313FCED92E7FD8C088D95
:10471400098E0A8F0BEEA2E7E9BA7F02C3133400B5
:104724009400FA75F091A4E5F013F494FE8AF0A4D1
:1047340033E5F033248CD313FDE492E7FE7F007C51
:104744003F758302ECC0E0F8EDC0E0F9EEC0E0FA9A
:10475400EFC0E0FBAC08AD09AE0AAF0B123F84D04A
:10476400E0FBD0E0FAD0E0F9D0E0F8123D8AED6445
:1047740080FD30E7011CD583CBED33CC33F8D0E09A
:0A478400A2E71328C313CC13FD2293
:10410300E9D2E7C933E833F892D5EDD2E7CD33EC02
:0741130033FC5002B2D5227B
:10411A00EC30E7100FBF000C0EBE00080DBD000406
:10412A000BEB6014A2D5EB13FCED92E7FD2274FFB2
:10413A00FCFDFEFF22E480F8A2D574FF13FC7D800B
:03414A00E480EF1F
:030000000248288B
:0C482800787FE4F6D8FD75812102486F0E
:10414D00EF8DF0A4A8F0CF8CF0A428CE8DF0A42E86
:02415D00FE2240
:10497C00C2D5E830E70FB2D5E4C39BFBE49AFAE466
:10498C0099F9E498F8EC30E717B2D51249B2124213
:10499C0032E4C39BFBE49AFAE499F9E498F88003B7
:1049AC0012423230D50DE4C39FFFE49EFEE49DFD20
:0449BC00E49CFC2259
:0E415F00C3E49FFFE49EFEE49DFDE49CFC2271
:10416D00EB9FF5F0EA9E42F0E99D42F0EC6480C8C9
:06417D0064809845F02269
:10418300E8600FECC313FCED13FDEE13FEEF13FF1A
:03419300D8F1223E
:10419600E8600FEFC333FFEE33FEED33FDEC33FC87
:0341A600D8F1222B
:1041A900E493FC740193FD740293FE740393FF225C
:0C41B900ECF0A3EDF0A3EEF0A3EFF02279
:1041C500A8828583F0D083D0821241DC1241DC12B3
:1041D50041DC1241DCE473E493A3C583C5F0C583D8
:1041E500C8C582C8F0A3C583C5F0C583C8C582C844
:0141F50022A7
:10483400020086E493A3F8E493A34003F68001F214
:1048440008DFF48029E493A3F85407240CC8C33385
:10485400C4540F4420C8834004F456800146F6DF54
:10486400E4800B0102040810204080900024E47EC0
:10487400019360BCA3FF543F30E509541FFEE49349
:10488400A360010ECF54C025E060A840B8E493A310
:10489400FAE493A3F8E493A3C8C582C8CAC583CA3B
:1048A400F0A3C8C582C8CAC583CADFE9DEE780BEF3
:0100260000D9
:1041F60075F008758200EF2FFFEE33FECD33CDCC80
:1042060033CCC58233C5829BED9AEC99E582984002
:104216000CF582EE9BFEED9AFDEC99FC0FD5F0D6DF
:10422600E4CEFBE4CDFAE4CCF9A88222B800C1B909
:104236000059BA002DEC8BF084CFCECDFCE5F0CB47
:10424600F97818EF2FFFEE33FEED33FDEC33FCEB80
:1042560033FB10D703994004EB99FB0FD8E5E4F93B
:10426600FA227818EF2FFFEE33FEED33FDEC33FC28
:10427600C933C910D7059BE99A4007EC9BFCE99A1C
:10428600F90FD8E0E4C9FAE4CCFB2275F010EF2F61
:10429600FFEE33FEED33FDCC33CCC833C810D70761
:1042A6009BEC9AE899400AED9BFDEC9AFCE899F89C
:0E42B6000FD5F0DAE4CDFBE4CCFAE4C8F9222F
:00000001FF
