:02002400C10811
:100086009005A2E5A7F0E4F5A753D9BFE0F5A7E4EC
:1000960090004FF09005A3F0A3F0900034F0A37405
:1000A60064F0E4900176F0A3F0900190F090018D59
:1000B600F0900181F090027DF0900178F09001932C
:1000C600F0A3F09001B6F0A3F090021DF0A3F0901B
:1000D6000528F0A3F0900227F0A3F0900256F090C6
:1000E6000288F0900280F0900535F09001ABF09018
:1000F60001A3F0900557F090028FF0900206F09061
:1001060001CAF09004F7F09001C5F0F520900215B1
:10011600F0A3F0900268F0A3F090057DF0A304F040
:10012600A3E4F0A304F0E49004F5F0900237F09015
:10013600004DF0A3F0F50D124A57E4900534F01285
:10014600002EE4900543F090026FF0C284D296D25E
:1001560097D295900577F0A3F0900578E004F070BB
:1001660006900577E004F0900577E0B427EBA3E06E
:10017600B410E690019CE064556018900212745524
:10018600F074FF1249971249FA900212E090019C0E
:10019600F080E0E4900577F0A3F0900578E004F0B5
:1001A6007006900577E004F0900577E0B427EBA39E
:1001B600E0B410E690019CE064AA601C9002127400
:1001C600AAF09001C474FFF012499B1249FA9002FA
:1001D60012E090019CF080DCE4900587F0A3F0909B
:1001E6000585E0FEA3E02463F58274053EF583E40D
:1001F600F0900588E004F07006900587E004F09022
:100206000587E07004A3E0641070D4900593124152
:100216005200000000E49005B0F0900212F0900148
:10022600C4740AF012499B12498C9005B47401F00B
:10023600900212F09001C4740DF012499B9005A52E
:1002460074DEF0A374A8F09005A5E0900212F0E425
:100256001249979005A5A3E0900212F09001C4748C
:1002660001F012499BE49005A7F0A3F0900212F06A
:100276009001C47406F012499BE490024BF090057D
:100286002DF0900212F09001C47402F012499BE422
:1002960090026FF0900543F0900212F09001C47442
:1002A60003F012499BE49004F4F0900038F09002B9
:1002B60012F09001C47404F012499BE490055AF0C0
:1002C6009001ADF0900212F09001C47408F012494A
:1002D6009BE490026EF0900540F0900212F09001BF
:1002E600C47409F012499B124A85E49001B5F012D4
:1002F600471BE4900204F0A3F0124A27D2AFE49021
:100306000033F0900039F0900589F0A3F090052EA7
:10031600F0A3F090780093FE740193FF900000EE36
:10032600F0A3EFF04E6074A31241524129999A90BE
:10033600001A1241524129999A90001612415241CF
:1003460029999A90000A1241524146666690000623
:1003560012415242BD333390000E12415240B999B8
:100366009A90001212415243A50000E4900000F05A
:10037600A3F090001E74BBF0A374FEF0A37402F009
:10038600A304F0E4A3F0A3124152425A6666900019
:10039600277428F0A37448F01248AA9078021241F4
:1003A6003690000212414690781A12413690001A91
:1003B6001241469078161241369000161241469028
:1003C600780A12413690000A124146907806124188
:1003D6003690000612414690780E12413690000E75
:1003E6001241469078121241369000121241469000
:1003F600781EE49390001EF090781FE49390001FFF
:10040600F0907820E493900020F0907821E493FF18
:10041600900021F0FB907822E493900022F09078EF
:1004260023124136900023124146907827E4939098
:100436000027F0907828E493900028F0900212EBC1
:10044600F09001C47468F012499B90001EE0FCE431
:1004560012402590017212414690001FE0FCE41202
:100466004025900182124146900172E0F8A3E0F91E
:10047600A3E0FAA3E0FB900182E0FCA3E0FDA3E089
:10048600FEA3E0FF123D07E4FBFA79207841123F14
:100496000590050D12414690050DE0F8A3E0F9A37D
:1004A600E0FAA3E0FB900182E0FCA3E0FDA3E0FEFE
:1004B600A3E0FF123D0790018912414690050DE029
:1004C600FCA3E0FDA3E0FEA3E0FF900172E0F8A329
:1004D600E0F9A3E0FAA3E0FB123D0B90017D124187
:1004E6004690053012415207FFFFFF900530E0FCB1
:1004F600A3E0FDA3E0FEA3E0FF78181241109002EE
:1005060012EFF09001C47414F012499B900530E08C
:10051600FCA3E0FDA3E0FEA3E0FF781012411090DB
:100526000212EFF09001C47415F012499B90053049
:10053600E0FCA3E0FDA3E0FEA3E0FF780812411073
:10054600900212EFF09001C47416F012499B9005C8
:1005560030A3A3A3E0900212F09001C47417F01226
:10056600499B9005171241520059B800900517E0B3
:10057600FCA3E0FDA3E0FEA3E0FF78181241109073
:100586000212EFF09001C47418F012499B900517FF
:10059600E0FCA3E0FDA3E0FEA3E0FF78101241100B
:1005A600900212EFF09001C47419F012499B900565
:1005B60017E0FCA3E0FDA3E0FEA3E0FF78081241EC
:1005C60010900212EFF09001C4741AF012499B9039
:1005D6000517A3A3A3E0900212F09001C4741BF0C8
:1005E60012499B90050212415207FFFFFF90050238
:1005F600E0FCA3E0FDA3E0FEA3E0FF7818124110A3
:10060600900212EFF09001C4741CF012499B900501
:1006160002E0FCA3E0FDA3E0FEA3E0FF7810124198
:1006260010900212EFF09001C4741DF012499B90D5
:100636000502E0FCA3E0FDA3E0FEA3E0FF780812BC
:100646004110900212EFF09001C4741EF012499B03
:10065600900502A3A3A3E0900212F09001C4741FB8
:10066600F012499B900020E0FB700A9004E51241CD
:100676005200CDFE60EBB4010A9004E5124152002F
:10068600CDFE60900020E0B4020A9004E5124152CB
:10069600020238A09004E5E0FCA3E0FDA3E0FEA37F
:1006A600E0FF7818124110900212EFF09001C47426
:1006B60020F012499B9004E5E0FCA3E0FDA3E0FED8
:1006C600A3E0FF7810124110900212EFF09001C4DF
:1006D6007421F012499B9004E5E0FCA3E0FDA3E041
:1006E600FEA3E0FF7808124110900212EFF090018D
:1006F600C47422F012499B9004E5A3A3A3E09002E0
:1007060012F09001C47423F012499BE4900199F011
:1007160090057912415200000000E4900583F0A391
:10072600F0900031F0A3F0900285F0A3F090005015
:10073600F0A3F090052374E8F0E490028DF0A3F0A6
:1007460090020BF0A3F0900209F0A374FAF0E49083
:100756000207F0A3F0900557F090027F04F0E490B2
:10076600028FF09001C304F0E490024AF090024B2D
:10077600E0FF90052DE06F6012E090024BF09002D2
:1007860012F09001C47402F012499BD3900051E01C
:100796009405900050E064809480400990024AE0FD
:1007A600B40102D28490024AE07002C2849001C36E
:1007B600E0FF90028FE06F6012E09001C3F09002BC
:1007C60012F09001C47403F012499B9004F4E0FF08
:1007D600900038E06F6012E09004F4F0900212F09E
:1007E6009001C47404F012499B90055AE0FF9001F1
:1007F600ADE06F6012E090055AF0900212F09001A1
:10080600C47408F012499B90026EE0FF900540E028
:100816006F6012E090026EF0900212F09001C474C4
:1008260009F012499B90028DE0FEA3E0FFEE600303
:10083600020965EFB40F004003020965900849F804
:1008460028287302087602088402089E0208B40269
:1008560008D90208E8020965020965020965020964
:10086600650208F602091002092402094502095127
:1008760090028DE4208551F0A304F00209659005ED
:1008860043E090028D7008F0A37402F0020965E45B
:10089600F0A37405F002096590024AE0B401030270
:1008A600095E90028DE4F0A37403F00209659005D9
:1008B60057E0B4011B9005437401F090028DE4F0FB
:1008C600A37404F090050BE4F0A3740AF002096522
:1008D60002095E90050BE07002A3E0600302096561
:1008E600807790024AE0B40105E4900543F0806801
:1008F600900543E090028DB40108E4F0A3740BF078
:10090600805DE4F0A3740EF08055900557E0B401C5
:1009160002804590028DE4F0A3740CF080419002B1
:100926004AE0B40118E4900543F090050BF0A37477
:100936000AF090028DE4F0A3740DF08022801990E5
:10094600050BE07002A3E07016800E900557E0B428
:1009560001069005437401F0E490028DF0A3F09037
:100966000050E0FEA3E0FFEE600302116BEFB4104F
:1009760000400302116B900983F82828730209B31B
:10098600020A38020D98020DB2020E00020EEB02A8
:100996000F04020F4C020F61020FCE020FFB021171
:1009A6006B02116B0210EA02111C02115290024AEC
:1009B600E0701E900028E0FCE4124025900275E0ED
:1009C600F8A3E0F9A3E0FAA3E0FB123FA26002500D
:1009D6003690024AE06401600302116B900027E042
:1009E600FCE41240257466FBFAF9783F123DFC9050
:1009F6000275E0F8A3E0F9A3E0FAA3E0FB123FA238
:100A06006002500302116B12498CE49005B0F0901D
:100A16000212F09001C4740AF012499BE490004F50
:100A2600F09005347402F0900050E4F0A304F00254
:100A3600116BE49001BDF0A3F0900581F0A3F07571
:100A4600BB0AD2EC20ECFD9001BEE025BDF0900182
:100A5600BDE035BEF0900582E004F0700690058199
:100A6600E004F0900581E07004A3E0641070D0E427
:100A76009001BFF0A3F0900581F0A3F075BB0BD2F7
:100A8600EC20ECFD9001C0E025BDF09001BFE03503
:100A9600BEF0900582E004F07006900581E004F057
:100AA600900581E07004A3E0641070D0E49001C169
:100AB600F0A3F0900581F0A3F075BB0CD2EC20EC0E
:100AC600FD9001C2E025BDF09001C1E035BEF09079
:100AD6000582E004F07006900581E004F09005813F
:100AE600E07004A3E0641070D09001BDE0C4F85437
:100AF600F0C868F0A3E0C4540F48F0A3E0C4F8546B
:100B0600F0C868F0A3E0C4540F48F0A3E0C4F8545A
:100B1600F0C868F0A3E0C4540F48F0E490052CF048
:100B26009001BDE0FEA3E0FFD394B9EE9400400827
:100B3600EF9448EE94034009D3EF94ACEE940D4045
:100B46000690052C7401F09001BFE0FEA3E0FFD3F0
:100B560094B9EE94004008EF9448EE94034009D30C
:100B6600EF94ACEE940D400690052C7401F09001C4
:100B7600C1E0FEA3E0FFD394B9EE94004008EF94E1
:100B860048EE94034009D3EF94ACEE940D400690E2
:100B9600052C7401F090052CE06401704E9004F66B
:100BA6007407F0C39001BEE094079001BDE094087D
:100BB60050079004F6E05406F0C39001C0E0940795
:100BC6009001BFE0940850079004F6E05405F0C386
:100BD6009001C2E094079001C1E094084003020D21
:100BE6001F9004F6E05403F0020D1FE49004F6F0A3
:100BF6009001C1E0FEA3E0FFC39448EE9403400FCA
:100C0600EF9490EE940650079004F6E04401F090BD
:100C160001C1E0FEA3E0FFC39490EE9406400FEFFF
:100C260094B0EE940950079004F6E04402F0900167
:100C3600C1E0FEA3E0FFC394B0EE9409400FEF9429
:100C4600ACEE940D50079004F6E04403F09004F6E1
:100C5600E025E025E0F09001BFE0FEA3E0FFC394AD
:100C660048EE9403400FEF9490EE940650079004DC
:100C7600F6E04401F09001BFE0FEA3E0FFC39490CC
:100C8600EE9406400FEF94B0EE940950079004F6E8
:100C9600E04402F09001BFE0FEA3E0FFC394B0EE93
:100CA6009409400FEF94ACEE940D50079004F6E0D3
:100CB6004403F09004F6E025E025E0F09001BDE065
:100CC600FEA3E0FFC39448EE9403400FEF9490EE2A
:100CD600940650079004F6E04401F09001BDE0FE52
:100CE600A3E0FFC39490EE9406400FEF94B0EE9409
:100CF6000950079004F6E04402F09001BDE0FEA31F
:100D0600E0FFC394B0EE9409400FEF94ACEE940D5F
:100D160050079004F6E04403F0900523E0FF9004AA
:100D2600F6E0FE6F7061900212F0EEC4540FFFBF42
:100D360001037401F0BF02069002127402F09002E1
:100D460012E090019AF09001C47467F012499B90EA
:100D560004F6E0540FF0E02414F0C2AFE024EDFFF7
:100D6600E434FFFE7C007D641240DA900204EEF06B
:100D7600A3EFF0124A27D2AFE49005B7F0A3F090A4
:100D86000050F0A37402F09004F6E0900523F00200
:100D9600116B9005B7E07004A3E0640560030211CF
:100DA6006B900050F0A37403F002116B9005B274BF
:100DB60006F0900212F09001C4740CF012499B9058
:100DC60005B47401F0900212F09001C4740DF01293
:100DD600499B900022E09005B0F0900212F090013D
:100DE600C4740AF012499B900022E012498D9000CB
:100DF60050E4F0A37404F002116B9005B2E0A3F086
:100E0600E4FFFE7DC07C40900257E0F8A3E0F9A322
:100E1600E0FAA3E0FB123FA2600840069005B27418
:100E260008F0E4FFFE7D707C41900257E0F8A3E0F5
:100E3600F9A3E0FAA3E0FB123FA260084006900582
:100E4600B2740AF0E4FFFE7D0C7C42900257E0F893
:100E5600A3E0F9A3E0FAA3E0FB123FA26008400674
:100E66009005B2740CF09005B2E0FFA3E06F600E3F
:100E7600900212EFF09001C4740CF012499BE4FF4B
:100E8600FE7DC87C42900257E0F8A3E0F9A3E0FAA1
:100E9600A3E0FB123FA26002500302116B900020F8
:100EA600E0FF7006900212740AF0EFB40106900299
:100EB60012740AF0EFB402069002127406F0900162
:100EC600C4740CF012499BE49005B4F0900212F041
:100ED6009001C4740DF012499B900050E4F0A37485
:100EE60005F002116B740B1249F6900212E06003D2
:100EF60002116B900050F0A37406F002116BE4FF30
:100F0600FE7D2A7C43900257E0F8A3E0F9A3E0FABD
:100F1600A3E0FB123FA26002500302116BE4FFFE46
:100F26007D827C43900257E0F8A3E0F9A3E0FAA3A0
:100F3600E0FB123FA2400302116B900050E4F0A3C5
:100F46007407F002116B90052AE4F0A3741EF0906A
:100F56000050E4F0A37409F002116B900284E004DF
:100F6600F07006900283E004F074461249F690028F
:100F760012E0FFC313FEEF5401B5060E90027AE0AD
:100F860004F07006900279E004F0900283E06403B6
:100F96007004A3E064E8600302116BD390027AE068
:100FA60094B6900279E064809483400B900050E4FC
:100FB600F0A37409F08007E4900283F0A3F0E490B4
:100FC6000279F0A3F002116B90052AE07002A3E00B
:100FD600600302116B90003804F090052AE4F0A338
:100FE600740AF09005347401F0900050E4F0A37494
:100FF6000AF002116B900256E0640170469005B04B
:10100600F0900212F09001C4740AF012499B124942
:101016008CE4900038F09001CAF09004F7F090014B
:10102600C5F090052DF0900540F09005347403F05E
:1010360090052A7401F0A37490F0900050E4F0A398
:10104600740EF0900280E0640170469005B0F09056
:101056000212F09001C4740AF012499B12498CE402
:10106600900038F09001CAF09004F7F09001C5F0B6
:1010760090052DF0900540F09005347404F090052D
:101086002A7401F0A3742CF0900050E4F0A3740FBE
:10109600F0900535E06401600302116B9005B0F035
:1010A600900212F09001C4740AF012499B12498C06
:1010B600E4900038F09001CAF09004F7F09001C572
:1010C600F090052DF09001AD04F0E4900540F0900D
:1010D60001AD04F0E4900534F0900050F0A3740DD7
:1010E600F002116BE4FFFE7D8C7C4290025DE0F81D
:1010F600A3E0F9A3E0FAA3E0FB123FA25067E49055
:101106000193F0A3F0900288F0900280F09001AD78
:10111600F0900534804B90052AE07002A3E07045FC
:10112600900256F0900176E07004A3E0640260102D
:10113600900177E004F0702A900176E004F08022B6
:101146009000347446F0A37450F0801690052AE09F
:101156007002A3E0700F900288F0900280F0900178
:10116600ABF043EF10900215E0FEA3E0FFEE600344
:101176000215BDEFB40A0040030215BD901189F8AF
:101186002828730211A70211B90211CA0211DC0242
:1011960012170214BC0214D10214E20214F402154E
:1011A60030E490003AF0A3F0900268F0A3F09002C9
:1011B60015805775BB01D2EC900215E4F0A37402BA
:1011C600F00215BD30EC030215BD900215E4F0A344
:1011D6007403F00215BD90003BE025BDF090003A87
:1011E600E035BEF0900269E004F07006900268E017
:1011F60004F0900268E07004A3E064109002157099
:1012060008F0A37404F00215BDE4F0A304F002157F
:10121600BD90003AE0C4F854F0C868FEA3E0C45498
:101226000F48FF90003AEEF0A3EFF0FDAC06E41293
:10123600402090020E1241467FCD7ECC7D9C7C40A4
:10124600900012E0F8A3E0F9A3E0FAA3E0FB123D58
:10125600FC7B337A3379537840123F0590020EE0D7
:10126600F8A3E0F9A3E0FAA3E0FB123DFCE4FBFAE5
:1012760079807845123F057B007A80798878C31299
:101286003D0B90025D124146E4FFFE7D8C7C429050
:10129600025DE0F8A3E0F9A3E0FAA3E0FB123FA2A7
:1012A600600A40089001937401F08005E490019370
:1012B600F0E4FFFE7DA07C4290025DE0F8A3E0F939
:1012C600A3E0FAA3E0FB123FA2600E400C9001944B
:1012D6007401F0900535F08005E4900194F0E4FF88
:1012E600FE7DF07C4190025DE0F8A3E0F9A3E0FA10
:1012F600A3E0FB123FA2500A90023212415242FE74
:101306000000E4FFFE7DF07C4190025DE0F8A3E082
:10131600F9A3E0FAA3E0FB123FA24046E4FFFE7DFC
:10132600707C4290025DE0F8A3E0F9A3E0FAA3E046
:10133600FB123FA26002502A7FEC7E517D887C40E2
:1013460090025DE0F8A3E0F9A3E0FAA3E0FB123D0A
:10135600FC7B007ACD794C78BF123D0B900232129D
:101366004146E4FFFE7D707C4290025DE0F8A3E01A
:10137600F9A3E0FAA3E0FB123FA2600C400A900238
:1013860032124152437F0000900239124152437F8C
:101396000000900020E0FB700A90054F1241524475
:1013A6002F0000EBB4010A90054F124152447A0017
:1013B60000900020E0B4020A90054F12415244FA10
:1013C6000000900232E0F8A3E0F9A3E0FAA3E0FB04
:1013D600900239E0FCA3E0FDA3E0FEA3E0FF123D8E
:1013E6000790054FE0F8A3E0F9A3E0FAA3E0FB12AB
:1013F6003F05900195E0F8A3E0F9A3E0FAA3E0FB2E
:10140600123DFC900232E0F8A3E0F9A3E0FAA3E073
:10141600FB123D0B9002B4124146E4FFFE7DFE7CBA
:10142600429002B4E0F8A3E0F9A3E0FAA3E0FB12CD
:101436003FA2500A9002B412415242FE0000E4FF5D
:10144600FE7D7F7C439002B4E0F8A3E0F9A3E0FAC6
:10145600A3E0FB123FA2600C400A9002B412415274
:10146600437F00009002B4E0FCA3E0FDA3E0FEA3EE
:10147600E0FF1240599005A7EFF0A3E0FEC39F508E
:1014860007EEF46003E004F09005A7E0FFA3E0FE9A
:10149600D39F4005EE600214F09005A8E09002127A
:1014A600F09001C47406F012499B900215E4F0A373
:1014B6007405F00215BDE4900248F0A3F0900268AE
:1014C600F0A3F0900215F0A37406F075BB09D2ECF8
:1014D600900215E4F0A37407F00215BD30EC030288
:1014E60015BD900215E4F0A37408F00215BD900234
:1014F60049E025BDF0900248E035BEF0900269E073
:1015060004F07006900268E004F0900268E070044F
:10151600A3E064109002157008F0A37409F0021598
:10152600BDE4F0A37406F00215BD900248E0C4F8CD
:1015360054F0C868FEA3E0C4540F48FF900248EE7A
:10154600F0A3EFF0FDAC06E412402090020E12412B
:10155600467F337EB37D757C4590020EE0F8A3E0AE
:10156600F9A3E0FAA3E0FB123DFCE4FBFA798078EC
:1015760045123F05900023E0F8A3E0F9A3E0FAA3A3
:10158600E0FB123F0590027512414690024AE07058
:101596001F900027E0FCE4124025900275E0F8A3B6
:1015A600E0F9A3E0FAA3E0FB123FA2500343EF10D9
:1015B600E4900215F0A3F09001C47465F01249FAA4
:1015C600900212E07003021A569001C4745AF01287
:1015D60049FA900212E0FFE4FCFDFE900049124138
:1015E600469001C4745BF01249FA900049E0FCA3EE
:1015F600E0FDA3E0FEA3E0FF780812412390004936
:10160600124146900212E0FF900049E0F8A3E0F98B
:10161600A3E0FAA3E04FFFEAFEE9FDE8FC900049EB
:101626001241469001C4745CF01249FA900049E0F8
:10163600FCA3E0FDA3E0FEA3E0FF7808124123909F
:101646000049124146900212E0FF900049E0F8A3DB
:10165600E0F9A3E0FAA3E04FFFEAFEE9FDE8FC901B
:101666000049124146E50D700F750D0190054812AF
:10167600415200000000804B900049E0FCA3E0FDD1
:10168600A3E0FEA3E0FFEC12401B90054812414682
:10169600900548E0FCA3E0FDA3E0FEA3E0FF1246B0
:1016A600757BCC7A62794A7840123DFC900002E064
:1016B600F8A3E0F9A3E0FAA3E0FB123F0590054882
:1016C600124146E4FFFE7D757C43900548E0F8A391
:1016D600E0F9A3E0FAA3E0FB123FA2600250030286
:1016E600176E9001C47452F01249FA900212E0FF8C
:1016F600E4FCFDFE9000491241469001C47453F08B
:101706001249FA900049E0FCA3E0FDA3E0FEA3E045
:10171600FF7808124123900049124146900212E0D8
:10172600FF900049E0F8A3E0F9A3E0FAA3E04FFF39
:10173600EAFEE9FDE8FC900049124146E47F0AFE14
:10174600FDFC900049E0F8A3E0F9A3E0FAA3E0FB72
:10175600C31240FA50129002807401F012498C9024
:101766000050E4F0A3740AF0900288E070459001FE
:1017760072E0FCA3E0FDA3E0FEA3E0FF900548E0D5
:10178600F8A3E0F9A3E0FAA3E0FB123FA2401CE4B1
:10179600FFFE7D7E7C43900548E0F8A3E0F9A3E0D8
:1017A600FAA3E0FB123FA2604C404A900288740103
:1017B600F0804290017DE0FCA3E0FDA3E0FEA3E003
:1017C600FF900548E0F8A3E0F9A3E0FAA3E0FB12D6
:1017D6003FA26021401FE4FFFE7D707C43900548D8
:1017E600E0F8A3E0F9A3E0FAA3E0FB123FA250055C
:1017F600E4900288F0900288E0602AE4900557F0B1
:1018060090020BF0A3F0D390020AE0940090020934
:10181600E0648094804048A3E024FFF0900209E051
:1018260034FFF0803AC390020CE094F490020BE08F
:1018360064809481500CA3E004F0700690020BE0E3
:1018460004F0C390020AE094F4900209E0648094E4
:1018560081500CA3E004F07006900209E004F090B9
:10186600020BE0B4010BA3E0B4F406900557740133
:10187600F0900209E0FEA3E0FF4E700490028FF0A4
:10188600BE0109BFF40690028F7401F09001C47482
:101896005EF01249FA900212E0FFE4FCFDFE9000B1
:1018A600491241469001C4745FF01249FA9000490A
:1018B600E0FCA3E0FDA3E0FEA3E0FF7808124123CD
:1018C600900049124146900212E0FF900049E0F86C
:1018D600A3E0F9A3E0FAA3E04FFFEAFEE9FDE8FC86
:1018E6009000491241469001C47460F01249FA9082
:1018F6000049E0FCA3E0FDA3E0FEA3E0FF780812A8
:101906004123900049124146900212E0FF9000499F
:10191600E0F8A3E0F9A3E0FAA3E04FFFEAFEE9FD51
:10192600E8FC900049124146900049E0FCA3E0FD26
:10193600A3E0FEA3E0FFEC12401B900544124146D3
:10194600900544E0FCA3E0FDA3E0FEA3E0FF124601
:10195600757BCC7A62794A7840123DFC90001AE099
:10196600F8A3E0F9A3E0FAA3E0FB123F05900544D3
:10197600124146900243E0704C900172E0FCA3E0F5
:10198600FDA3E0FEA3E0FF900544E0F8A3E0F9A381
:10199600E0FAA3E0FB123FA24023900182E0FCA301
:1019A600E0FDA3E0FEA3E0FF900544E0F8A3E0F924
:1019B600A3E0FAA3E0FB123FA2605340519002431A
:1019C6007401F0804990017DE0FCA3E0FDA3E0FEF8
:1019D600A3E0FF900544E0F8A3E0F9A3E0FAA3E052
:1019E600FB123FA260284026900189E0FCA3E0FD9F
:1019F600A3E0FEA3E0FF900544E0F8A3E0F9A3E02E
:101A0600FAA3E0FB123FA25005E4900243F09002D5
:101A160043E0600DE490024AF0900207F0A3F080E4
:101A26001DC3900208E094F4900207E0648094815C
:101A3600500CA3E004F07006900207E004F0900258
:101A460007E0B4010BA3E0B4F40690024A7401F077
:101A56009001C47464F01249FA900212E06007E43F
:101A66009005B5F0A3F09005B5E0FEA3E0FFEE60AB
:101A76000302214EEF147003021BCB147003021FE6
:101A86001514700302202F147003022045240460ED
:101A96000302214E9001C47436F01249FA900212E4
:101AA600E0FFE4FCFDFE9000491241469001C4743B
:101AB60037F01249FA900049E0FCA3E0FDA3E0FEEE
:101AC600A3E0FF7808124123900049124146900294
:101AD60012E0FF900049E0F8A3E0F9A3E0FAA3E0E2
:101AE6004FFFEAFEE9FDE8FC9000491241469001ED
:101AF600C47438F01249FA900049E0FCA3E0FDA353
:101B0600E0FEA3E0FF780812412390004912414607
:101B1600900212E0FF900049E0F8A3E0F9A3E0FA92
:101B2600A3E04FFFEAFEE9FDE8FC900049124146BA
:101B3600900049E0FCA3E0FDA3E0FEA3E0FFEC1269
:101B4600401B900223124146900223E0FCA3E0FDD5
:101B5600A3E0FEA3E0FF1246759004DF1241469013
:101B66000223E0FCA3E0FDA3E0FEA3E0FF1246751E
:101B760090000AE0F8A3E0F9A3E0FAA3E0FB123D27
:101B860007900006E0F8A3E0F9A3E0FAA3E0FB1251
:101B96003F05900223124146E4FFFEFDFC9002231E
:101BA600E0F8A3E0F9A3E0FAA3E0FB123FA2500A93
:101BB600900223124152000000009005B5E4F0A304
:101BC60004F002214E9001C4743AF01249FA9002D0
:101BD60012E0FF900536F0900045E4F0A3EFF09098
:101BE60001C4743BF01249FA900212E0FF90053BE3
:101BF600F0900046E0F8E4F0E8900045F0E0FEA33F
:101C0600E04FFF900045EEF0FEA3EFF0FDAC06ECD2
:101C160012402090023E12414690000EE0F8A3E0EA
:101C2600F9A3E0FAA3E0FB90023EE0FCA3E0FDA3EB
:101C3600E0FEA3E0FF123F05900195124146E490B5
:101C460005ADF0900020E07043FFFE7D2F7C4490B0
:101C56000195E0F8A3E0F9A3E0FAA3E0FB123FA2A6
:101C6600600840069005AD7401F0E4FFFE7D527CED
:101C760044900195E0F8A3E0F9A3E0FAA3E0FB1293
:101C86003FA2600840069005AD7402F0900020E087
:101C9600B40144E4FFFE7D7A7C44900195E0F8A30C
:101CA600E0F9A3E0FAA3E0FB123FA2600840069029
:101CB60005AD7401F0E4FFFE7D967C44900195E04D
:101CC600F8A3E0F9A3E0FAA3E0FB123FA260084004
:101CD600069005AD7402F0900020E0B40244E4FFE3
:101CE600FE7DFA7C44900195E0F8A3E0F9A3E0FAC2
:101CF600A3E0FB123FA2600840069005AD7401F018
:101D0600E4FFFE7D167C45900195E0F8A3E0F9A37B
:101D1600E0FAA3E0FB123FA2600840069005AD740E
:101D260002F0900223E0FCA3E0FDA3E0FEA3E0FFA7
:101D3600900257E0F8A3E0F9A3E0FAA3E0FB123D16
:101D4600FC9005A9124146E49005AEF0900020E013
:101D56007045FF7EC07D5A7C449005A9E0F8A3E05B
:101D6600F9A3E0FAA3E0FB123FA260084006900543
:101D7600AD7401F07F007E407D837C449005A9E030
:101D8600F8A3E0F9A3E0FAA3E0FB123FA260084043
:101D9600069005AD7402F0900020E0B401467F0085
:101DA6007E407D9C7C449005A9E0F8A3E0F9A3E081
:101DB600FAA3E0FB123FA2600840069005AE74014C
:101DC600F07F007E807DBB7C449005A9E0F8A3E00F
:101DD600F9A3E0FAA3E0FB123FA2600840069005D3
:101DE600AE7402F0900020E0B402467F007E407D93
:101DF6001C7C459005A9E0F8A3E0F9A3E0FAA3E06E
:101E0600FB123FA2600840069005AE7401F07F0009
:101E16007E807D3B7C459005A9E0F8A3E0F9A3E030
:101E2600FAA3E0FB123FA2600840069005AE7402DA
:101E3600F0E49001C5F09004F7F09001CAF090022A
:101E460006F09005AFF09005ADE0FF64046006A3D0
:101E5600E0FEB4040E9001C57401F09005AF740461
:101E6600F08046EF64036004EEB4030E9004F7744A
:101E760001F09005AF7403F0802F9005ADE0FF648C
:101E8600026006A3E0FEB4020D9001CA7401F09050
:101E960005AF04F08013EF64016004EEB4010A900C
:101EA60002067401F09005AFF09005AFE0FF600305
:101EB600B40116900227E07002A3E0604690022863
:101EC600E024FFF090022780369005AFE0FFB402D1
:101ED60016900528E07002A3E06028900529E0240A
:101EE600FFF09005288018EFB4031890021DE070EB
:101EF60002A3E0600E90021EE024FFF090021DE0B7
:101F060034FFF09005B5E4F0A37402F002214E9080
:101F160001C47432F01249FA900212E0FFE4FCFDAB
:101F2600FE9000491241469001C47433F01249FAFA
:101F3600900049E0FCA3E0FDA3E0FEA3E0FF7808E3
:101F4600124123900049124146900212E0FF900090
:101F560049E0F8A3E0F9A3E0FAA3E04FFFEAFEE9BF
:101F6600FDE8FC9000491241469001C47434F01219
:101F760049FA900049E0FCA3E0FDA3E0FEA3E0FFE0
:101F86007808124123900049124146900212E0FF60
:101F9600900049E0F8A3E0F9A3E0FAA3E04FFFEAD6
:101FA600FEE9FDE8FC900049124146900049E0FC3C
:101FB600A3E0FDA3E0FEA3E0FFEC12401B90025756
:101FC600124146900257E0FCA3E0FDA3E0FEA3E029
:101FD600FF124675900002E0F8A3E0F9A3E0FAA329
:101FE600E0FB123F05900257124146E4FFFE7D20BA
:101FF6007C41900257E0F8A3E0F9A3E0FAA3E0FBE6
:10200600123FA2500A90025712415200000000905F
:1020160005B8E004F070069005B7E004F09005B549
:10202600E4F0A37403F002214E90021F1241520005
:102036000000009005B5E4F0A37404F002214E9070
:1020460001C47442F01249FA900212E0FFE4FCFD6A
:10205600FE9000491241469001C47443F01249FAB9
:10206600900049E0FCA3E0FDA3E0FEA3E0FF7808B2
:10207600124123900049124146900212E0FF90005F
:1020860049E0F8A3E0F9A3E0FAA3E04FFFEAFEE98E
:10209600FDE8FC9000491241469001C47444F012D8
:1020A60049FA900049E0FCA3E0FDA3E0FEA3E0FFAF
:1020B6007808124123900049124146900212E0FF2F
:1020C600900049E0F8A3E0F9A3E0FAA3E04FFFEAA5
:1020D600FEE9FDE8FC900049124146900049E0FC0B
:1020E600A3E0FDA3E0FEA3E0FFEC12401B90024E2E
:1020F60012414690024EE0FCA3E0FDA3E0FEA3E001
:10210600FF12467590001AE0F8A3E0F9A3E0FAA3DF
:10211600E0FB123F0590024E124146E4FFFE7D2091
:102126007C4190024EE0F8A3E0F9A3E0FAA3E0FBBD
:10213600123FA2500A90024E124152000000009037
:1021460005B5E4F0A37405F0900199E0640160031D
:1021560002307FF0900555E07004A3E064DC600374
:102166000222B390055DE0C313A3E01390023DF095
:102176005403FFF090019AE06F60030222B3FF90D0
:102186000554E0543F900587CFF0A3EFF0E024EC30
:10219600F0900587E034FFF0E4F0A3E0540FF090F0
:1021A6000561E0FCA3E0FD900588E025E0FF9005D1
:1021B60087E033FE74942FF58274023EF583ECF0CB
:1021C600A3EDF074942FF58274023EF583C083C0AC
:1021D60082A3E0D082D083F0A3E4F0900588E025C6
:1021E600E0FF900587E033FE74942FF58274023E7B
:1021F600F583E0FCA3E0FD90055FE04CFCA3E04D19
:10220600FD74942FF58274023EF583ECF0A3EDF095
:10221600900029E0FCA3E0FD900588E025E0FF9012
:102226000587E033FE74BD2FF58274023EF583EC1C
:10223600F0A3EDF074BD2FF58274023EF583C083E2
:10224600C082A3E0D082D083F0A3E4F0900588E0BA
:1022560025E0FF900587E033FE74BD2FF5827402FA
:102266003EF583E0FCA3E0FD900573E04CFCA3E0A3
:102276004DFD74BD2FF58274023EF583ECF0A3ED9F
:10228600F090055EE090058730E012E0FEA3E024C2
:1022960063F58274053EF5837402F08010E0FEA3B8
:1022A600E02463F58274053EF5837401F0900267BD
:1022B600E0700302307F9004F6E0FF7E0090055345
:1022C600E07003A3E06F600302307F900555E06E77
:1022D6007003A3E06F600302307F900558E070043E
:1022E600A3E064EE6003022EDB90055FE0FEA3E050
:1022F600FF90055DE0FCA3E0FD6F7002EC6E6003ED
:10230600022EDB90004DF0A37432F0ED64024C70A7
:102316003C7F9A7E997D097C41900002E0F8A3E01B
:10232600F9A3E0FAA3E0FB123FA26021401F900050
:1023360002E0FCA3E0FDA3E0FEA3E0FF7B0A7AD760
:10234600792378BC123D0B90000212414690055D40
:10235600E07004A3E06403703C7F9A7E997D097C5B
:1023660041900002E0F8A3E0F9A3E0FAA3E0FB1233
:102376003FA26021401F900002E0FCA3E0FDA3E025
:10238600FEA3E0FF7BCD7ACC79CC78BD123D0B90D5
:10239600000212414690055DE07004A3E0640470FB
:1023A6003A7F9A7E997D397C41900002E0F8A3E05D
:1023B600F9A3E0FAA3E0FB123FA2501F900002E04F
:1023C600FCA3E0FDA3E0FEA3E0FF7B0A7AD7792316
:1023D600783C123D0B90000212414690055DE0707C
:1023E60004A3E06405703A7F9A7E997D397C41901A
:1023F6000002E0F8A3E0F9A3E0FAA3E0FB123FA293
:10240600501F900002E0FCA3E0FDA3E0FEA3E0FF66
:102416007BCD7ACC79CC783D123D0B9000021241EF
:102426004690055DE07004A3E06442703C7F9A7EAE
:10243600997D097C41900016E0F8A3E0F9A3E0FA43
:10244600A3E0FB123FA26021401F900016E0FCA310
:10245600E0FDA3E0FEA3E0FF7B0A7AD7792378BCF0
:10246600123D0B90001612414690055DE07004A3E4
:10247600E06443703C7F9A7E997D097C419000160A
:10248600E0F8A3E0F9A3E0FAA3E0FB123FA2602183
:10249600401F900016E0FCA3E0FDA3E0FEA3E0FFD2
:1024A6007BCD7ACC79CC78BD123D0B9000161241CB
:1024B6004690055DE07004A3E06444703A7F9A7E1E
:1024C600997D397C41900016E0F8A3E0F9A3E0FA83
:1024D600A3E0FB123FA2501F900016E0FCA3E0FD14
:1024E600A3E0FEA3E0FF7B0A7AD77923783C123D6E
:1024F6000B90001612414690055DE07004A3E0645F
:1025060045703A7F9A7E997D397C41900016E0F8B5
:10251600A3E0F9A3E0FAA3E0FB123FA2501F90004C
:1025260016E0FCA3E0FDA3E0FEA3E0FF7BCD7ACCA2
:1025360079CC783D123D0B90001612414690055D10
:10254600E07004A3E06452703C7F9A7E997D097C1A
:102556004190001AE0F8A3E0F9A3E0FAA3E0FB1229
:102566003FA26021401F90001AE0FCA3E0FDA3E01B
:10257600FEA3E0FF7B0A7AD7792378BC123D0B9045
:10258600001A12414690055DE07004A3E0645370A2
:102596003C7F9A7E997D097C4190001AE0F8A3E081
:1025A600F9A3E0FAA3E0FB123FA26021401F9000CE
:1025B6001AE0FCA3E0FDA3E0FEA3E0FF7BCD7ACC0E
:1025C60079CC78BD123D0B90001A12414690055DFC
:1025D600E07004A3E06454703A7F9A7E997D397C5A
:1025E6004190001AE0F8A3E0F9A3E0FAA3E0FB1299
:1025F6003FA2501F90001AE0FCA3E0FDA3E0FEA35B
:10260600E0FF7B0A7AD77923783C123D0B90001ABB
:1026160012414690055DE07004A3E06455703A7F70
:102626009A7E997D397C4190001AE0F8A3E0F9A3DF
:10263600E0FAA3E0FB123FA2501F90001AE0FCA3B1
:10264600E0FDA3E0FEA3E0FF7BCD7ACC79CC783D1C
:10265600123D0B90001A12414690055DE07004A3EE
:10266600E06462703C7F9A7E997D197C4090000EF2
:10267600E0F8A3E0F9A3E0FAA3E0FB123FA2602191
:10268600401F90000EE0FCA3E0FDA3E0FEA3E0FFE8
:102696007B0A7AD7792378BC123D0B90000E124143
:1026A6004690055DE07004A3E06463703C7F9A7E0B
:1026B600997D197C4090000EE0F8A3E0F9A3E0FABA
:1026C600A3E0FB123FA26021401F90000EE0FCA396
:1026D600E0FDA3E0FEA3E0FF7BCD7ACC79CC78BD0C
:1026E600123D0B90000E12414690055DE07004A36A
:1026F600E06464703A7F9A7E997DD97C4090000EA2
:10270600E0F8A3E0F9A3E0FAA3E0FB123FA2501F12
:1027160090000EE0FCA3E0FDA3E0FEA3E0FF7B0A31
:102726007AD77923783C123D0B90000E12414690E1
:10273600055DE07004A3E06465703A7F9A7E997D3A
:10274600D97C4090000EE0F8A3E0F9A3E0FAA3E0FC
:10275600FB123FA2501F90000EE0FCA3E0FDA3E099
:10276600FEA3E0FF7BCD7ACC79CC783D123D0B9071
:10277600000E12414690055DE0FAA3E0FB64214A93
:1027860070149004DFE0FCA3E0FDA3E0FEA3E0FFED
:1027960090000A124146EB64224A703C7F337E3336
:1027A6007DA97C42900006E0F8A3E0F9A3E0FAA335
:1027B600E0FB123FA26021401F900006E0FCA3E070
:1027C600FDA3E0FEA3E0FF7BCD7ACC79CC78BD12E9
:1027D6003D0B90000612414690055DE07004A3E0B3
:1027E6006423703B7F337E337DA97C42900006E0F4
:1027F600F8A3E0F9A3E0FAA3E0FB123FA2602040B1
:102806001E900006E0FCA3E0FDA3E0FEA3E0FFE4CB
:10281600FBFA798078BF123D0B9000061241469074
:10282600055DE07004A3E06424703A7F9A7E997D8A
:102836001A7C43900006E0F8A3E0F9A3E0FAA3E0CF
:10284600FB123FA2501F900006E0FCA3E0FDA3E0B0
:10285600FEA3E0FF7BCD7ACC79CC783D123D0B9080
:10286600000612414690055DE07004A3E064257001
:10287600397F9A7E997D1A7C43900006E0F8A3E0A2
:10288600F9A3E0FAA3E0FB123FA2501E900006E077
:10289600FCA3E0FDA3E0FEA3E0FFE4FBFA79807869
:1028A6003F123D0B90000612414690055DE0700414
:1028B600A3E064327038FFFE7DB47C43900012E0E2
:1028C600F8A3E0F9A3E0FAA3E0FB123FA2501F90A1
:1028D6000012E0FCA3E0FDA3E0FEA3E0FF7BCD7ABF
:1028E600CC79CC783D123D0B9000121241469005F2
:1028F6005DE07004A3E064337037FFFE7DB47C4373
:10290600900012E0F8A3E0F9A3E0FAA3E0FB123F7F
:10291600A2501E900012E0FCA3E0FDA3E0FEA3E09F
:10292600FFE4FBFA7980783F123D0B9000121241CA
:102936004690055DE07004A3E06434703AFFFE7DC6
:10294600967C43900012E0F8A3E0F9A3E0FAA3E036
:10295600FB123FA26021401F900012E0FCA3E0FDA5
:10296600A3E0FEA3E0FF7BCD7ACC79CC78BD123D07
:102976000B90001212414690055DE07004A3E064DE
:10298600357039FFFE7D967C43900012E0F8A3E097
:10299600F9A3E0FAA3E0FB123FA26020401E9000DC
:1029A60012E0FCA3E0FDA3E0FEA3E0FFE4FBFA795E
:1029B6008078BF123D0B90001212414690055DE0F3
:1029C6007004A3E06472703AFFFE7D207C429000A2
:1029D60023E0F8A3E0F9A3E0FAA3E0FB123FA2602C
:1029E60021401F900023E0FCA3E0FDA3E0FEA3E04E
:1029F600FF7B0A7AD7792378BC123D0B900023120D
:102A0600414690055DE07004A3E06473703AFFFEF2
:102A16007D207C42900023E0F8A3E0F9A3E0FAA32E
:102A2600E0FB123FA26021401F900023E0FCA3E0E0
:102A3600FDA3E0FEA3E0FF7BCD7ACC79CC78BD1276
:102A46003D0B90002312414690055DE07004A3E023
:102A560064747038FFFE7DB47C42900023E0F8A3D6
:102A6600E0F9A3E0FAA3E0FB123FA2501F90002377
:102A7600E0FCA3E0FDA3E0FEA3E0FF7B0A7AD779A2
:102A860023783C123D0B90002312414690055DE0F1
:102A96007004A3E064757038FFFE7DB47C4290003C
:102AA60023E0F8A3E0F9A3E0FAA3E0FB123FA2506B
:102AB6001F900023E0FCA3E0FDA3E0FEA3E0FF7B64
:102AC600CD7ACC79CC783D123D0B9000231241464D
:102AD60090055DE0FEA3E0FF64824E701090002832
:102AE600E0FD900027E0C39D5003E004F0EF64830F
:102AF6004E7013900028E024F7FF900027E0C39F54
:102B06005004E0240AF090055DE07004A3E06484BC
:102B1600700C900027E0D394284003E014F0900551
:102B26005DE0FEA3E0FF64854E700D900027E0D3C4
:102B360094314004E024F6F0EF64924E700C90005D
:102B460028E0C394485003E004F090055DE070046B
:102B5600A3E06493700D900028E0C3943F5004E016
:102B6600240AF090055DE0FEA3E0FF64944E700E2B
:102B7600900027E0FDA3E0D39D4003E014F0EF644E
:102B8600954E701B900027E02409FFE433FEA3E076
:102B9600D39FEE6480F87480984004E024F6F090A9
:102BA600055DE0FEA3E0FF54F064A06003022CAED6
:102BB600EF64A24E701090001FE0FF90001EE0C36D
:102BC6009F5003E004F090055DE07004A3E064A369
:102BD600701390001FE024F6FF90001EE0C39F5084
:102BE60004E0240AF090055DE0FEA3E0FF64A44E35
:102BF600700C90001EE0D394964003E014F0EF644E
:102C0600A54E700D90001EE0D394A04004E024F67B
:102C1600F090001EE0FCE41240259001721241463D
:102C260090001FE0FCE4124025900182124146907C
:102C36000172E0F8A3E0F9A3E0FAA3E0FB900182B9
:102C4600E0FCA3E0FDA3E0FEA3E0FF123D07E4FBEA
:102C5600FA79207841123F0590050D1241469005FC
:102C66000DE0F8A3E0F9A3E0FAA3E0FB900182E00F
:102C7600FCA3E0FDA3E0FEA3E0FF123D079001895F
:102C860012414690050DE0FCA3E0FDA3E0FEA3E0A3
:102C9600FF900172E0F8A3E0F9A3E0FAA3E0FB12CB
:102CA6003D0B90017D12414690055DE0FEA3E0FFDD
:102CB60054F064B06003022DBDEF64B24E700C9008
:102CC600001FE0C394FF5003E004F090055DE07040
:102CD60004A3E064B3700D90001FE0C394F65004A3
:102CE600E0240AF090055DE0FEA3E0FF64B44E70B8
:102CF6000E90001EE0FDA3E0D39D4003E014F0EF2C
:102D060064B54E701B90001EE0240AFFE433FEA358
:102D1600E0D39FEE6480F87480984004E024F6F0D7
:102D260090001EE0FCE4124025900172124146908C
:102D3600001FE0FCE41240259001821241469001FA
:102D460072E0F8A3E0F9A3E0FAA3E0FB900182E0C9
:102D5600FCA3E0FDA3E0FEA3E0FF123D07E4FBFABF
:102D660079207841123F0590050D12414690050DD8
:102D7600E0F8A3E0F9A3E0FAA3E0FB900182E0FC0F
:102D8600A3E0FDA3E0FEA3E0FF123D079001891238
:102D9600414690050DE0FCA3E0FDA3E0FEA3E0FFA5
:102DA600900172E0F8A3E0F9A3E0FAA3E0FB123D7C
:102DB6000B90017D12414690055EE054F064C070B0
:102DC6003F9005B0F0900212F09001C4740AF01220
:102DD600499B12498C90055DE0FEA3E0FF64C24E5C
:102DE600700C900020E0C394025003E004F0EF64FE
:102DF600C44E700C900020E0D394004003E014F021
:102E060090055EE054F064D070739005B0F09002C7
:102E160012F09001C4740AF012499B12498C900575
:102E26005DE07004A3E064D27023900021E0B40159
:102E3600037403F0900021E0700204F0900021E09A
:102E4600900212F09001C47468F012499B90055DDF
:102E5600E07004A3E064D47024900021E0B4010281
:102E6600E4F0900021E0B403037401F0900021E047
:102E7600900212F09001C47468F012499B90055EAE
:102E8600E054F064E070309005B0F0900212F090DB
:102E960001C4740AF012499B12498C90055DE0FE4C
:102EA600A3E0FF64E24E700590002204F0EF64E4B4
:102EB6004E7004900022F090055EE054F064F070CD
:102EC600149005B0F0900212F09001C4740AF0124A
:102ED600499B12498C900558E07004A3E064ED60AC
:102EE6000302302D900535E06003022FC49002885E
:102EF600E06003022FC4900256E06003022FC4FF75
:102F0600FE7D487C43A3E0F8A3E0F9A3E0FAA3E042
:102F1600FB123FA2500D9004F9E06405600DE00439
:102F2600F080089004F9E0600214F0E4FFFE7D7082
:102F36007C43900257E0F8A3E0F9A3E0FAA3E0FB94
:102F4600123FA2600F400D90003CE06405600DE06A
:102F560004F0800890003CE0600214F090003CE031
:102F6600FFB40502D203EF7002C2039004F9E0FF3A
:102F7600B40502D204EF7002C204E4FFFE7D8C7C2D
:102F86004290025DE0F8A3E0F9A3E0FAA3E0FB12A9
:102F96003FA260064004D2028002C202E4FFFE7D28
:102FA600A07C4290025DE0F8A3E0F9A3E0FAA3E07A
:102FB600FB123FA260064004D2018002C2019000CB
:102FC60039E0FF24CCF582E43401F5837401F0EF97
:102FD60064316008900039E004F08005E49000391F
:102FE600F0900039E0FF24CCF582E43401F58374D7
:102FF60002F0EF64316008900039E004F08005E4E7
:10300600900039F0900039E0FF24CCF582E43401D9
:10301600F5837405F0EF64316008900039E004F040
:103026008005E4900039F0900558E07004A3E06450
:10303600FD7046900039E0FF24CCF582E43401F5BA
:10304600837404F0EF64316008900039E004F08086
:1030560005E4900039F0900039E0FF24CCF582E4D5
:103066003401F5837406F0EF64316008900039E0AE
:1030760004F08005E4900039F090004DE07004A360
:10308600E06401700A1248AAE490004DF0A3F090A3
:103096000236E06028900039E0FF24CCF582E43463
:1030A60001F5837403F0EF64316008900039E004A1
:1030B600F08005E4900039F0E4900236F0900524A3
:1030C600E0606E900039E0FF24CCF582E43401F52F
:1030D600837401F0EF64316008900039E004F080F9
:1030E60005E4900039F0900039E0FF24CCF582E445
:1030F6003401F5837402F0EF64316008900039E022
:1031060004F08005E4900039F0900039E0FF24CC0B
:10311600F582E43401F5837405F0EF6431600890BC
:103126000039E004F08005E4900039F0E4900524CD
:10313600F0900238E070030207739001B5E0600575
:10314600E4F012471BE4900238F0900039E0FF905B
:103156000033E0FE6F700302077374CC2EF582E431
:103166003401F583E024FE700302329114700302E9
:1031760033B1147003023B38147003023B8314709E
:1031860003023CAF24056003023CEE9004F6E044E3
:103196004090019BF09001A174DDF0E4FFFE7D20DC
:1031A6007C41900223E0F8A3E0F9A3E0FAA3E0FB58
:1031B600123DFC1240599004E4EFF09001A2F0E4B5
:1031C600FFFE7D207C41900223E0F8A3E0F9A3E016
:1031D600FAA3E0FB123DFCE4FBFA79807843123F48
:1031E600051240599001CBEFF09001AAF09001959D
:1031F600E0FCA3E0FDA3E0FEA3E0FF12405990002F
:1032060045EEF0A3EFF0900045E0FCA3E0FDECFFF7
:103216003395E090020DEFF0AE05900501EEF090CB
:1032260001ACF09001B2EFF0E4FFFE7D207C41900E
:103236000257E0F8A3E0F9A3E0FAA3E0FB123DFC95
:103246001240599002BAEFF09001B4F0E4FFFE7D0F
:10325600207C41900257E0F8A3E0F9A3E0FAA3E04E
:10326600FB123DFCE4FBFA79807843123F051240DD
:10327600599001B3EFF09001BCF09001B5E07003F6
:10328600023CEBE4F012471B023CEB9004F6E044F0
:103296004090019BF09001A174DEF0E4FFFEFDFC7E
:1032A60090025DE0F8A3E0F9A3E0FAA3E0FB123F89
:1032B600A25007E490022DF0801690025DE0FCA378
:1032C600E0FDA3E0FEA3E0FF12405990022DEFF0CF
:1032D60090025DE0FCA3E0FDA3E0FEA3E0FF124048
:1032E600599001A2EFF0900038E0B40104D20580B5
:1032F60002C2059001AAE520F0E4FFFE7D207C4194
:1033060090024EE0F8A3E0F9A3E0FAA3E0FB123D39
:10331600FC1240599002BAEFF09001ACF0E4FFFEC7
:103326007D207C4190024EE0F8A3E0F9A3E0FAA3E9
:10333600E0FB123DFCE4FBFA79807843123F05126C
:1033460040599001B3EFF09001B2F0E4FFFE7D200A
:103356007C4190021FE0F8A3E0F9A3E0FAA3E0FBAA
:10336600123DFC1240599002BAEFF09001B4F0E41D
:10337600FFFE7D207C4190021FE0F8A3E0F9A3E068
:10338600FAA3E0FB123DFCE4FBFA79807843123F96
:10339600051240599001B3EFF09001BCF09001B5D1
:1033A600E06005E4F012471B023CEB9004F6E044B3
:1033B6004090019BF09001A174DCF09001C474660A
:1033C600F01249FA900212E0B401089001A27401C9
:1033D600F08005E49001A2F090019AE025E09001CA
:1033E600AAF0900195E0FCA3E0FDA3E0FEA3E0FFB8
:1033F60012405990058DEEF0A3EFF0900045EEF0E7
:10340600A3EFF0900045E0FCA3E0FDECFF3395E070
:1034160090020DEFF0AE05900501EEF09001ACF0D4
:103426009001B2EFF09001B5E0640160067401F01E
:1034360012471B900038E064017054FFFE7D207C2B
:1034460041900257E0F8A3E0F9A3E0FAA3E0FB12EB
:103456003DFC1240599002BAEFF09001B4F0E4FF3F
:10346600FE7D207C41900257E0F8A3E0F9A3E0FA44
:10347600A3E0FB123DFCE4FBFA79807843123F059A
:103486001240599001B3EFF09001BCF01248419000
:10349600058AE004F07006900589E004F09005893D
:1034A600E07004A3E064026003023CEE900589F03C
:1034B600A3F09004F6E0FF244FF582E43405F5838B
:1034C6007401F090058DE0FCA3E0FDEF25E0246C8F
:1034D600F582E43402F583ECF0A3EDF0E4FFFE7D23
:1034E600207C41900257E0F8A3E0F9A3E0FAA3E0BC
:1034F600FB123DFC1240599004F6E025E02495F5B8
:1035060082E43402F583EEF0A3EFF09005931241C6
:103516005200000000E490058BF0A3F09005A1F0A6
:10352600900591F0A3F0900597124152000000001B
:1035360090059B12415200000000E4900587F0A31D
:10354600F0900587E0FEA3E0FFC39410EE6480943C
:1035560080400302368574632FF58274053EF58339
:10356600E06401600302360590058CE004F0700605
:1035760090058BE004F0900593E0F8A3E0F9A3E052
:10358600FAA3E0FB900588E025E0FF900587E0338D
:10359600FE74942FF58274023EF583E0FEA3E0FFED
:1035A600EE3395E0FDFCEB2FFFEA3EFEE93DFDE83C
:1035B6003CFC900593124146900597E0F8A3E0F98C
:1035C600A3E0FAA3E0FBC000C001C002C00390055F
:1035D60088E025E0FF900587E033FE74BD2FF58275
:1035E60074023EF583E0FCA3E0FDEC124020D0031C
:1035F600D002D001D000123D0B90059712414690A3
:103606000587E0FEA3E02463F58274053EF583E0BA
:10361600B4025B900592E004F07006900591E00418
:10362600F09005A17401F090059BE0F8A3E0F9A3E2
:10363600E0FAA3E0FBC000C001C002C00390058809
:10364600E025E0FF900587E033FE74BD2FF5827418
:10365600023EF583E0FCA3E0FDEC124020D003D04F
:1036660002D001D000123D0B90059B1241469005F9
:1036760088E004F07006900587E004F00235479074
:103686000593E0FCA3E0FDA3E0FEA3E0FFC006C0B7
:103696000790058BE0FEA3E0FBAA06EA3395E0F966
:1036A600F8D007D0061249099005931241469005B5
:1036B6008BE0FCA3E0FDEC124020A804A905AA06B5
:1036C600AB07900597E0FCA3E0FDA3E0FEA3E0FFB7
:1036D600123F05E4FBFA79207841123F05900597E1
:1036E6001241469005A1E06045E4FBFA7920784155
:1036F60090059BE0FCA3E0FDA3E0FEA3E0FF123FE4
:1037060005C004C005C006C007900591E0FCA3E013
:10371600FDEC124020A804A905AA06AB07D007D0E5
:1037260006D005D004123F05900597124146900534
:10373600A1E0600990052EE4F0A3741EF0900593B5
:10374600A3A3E0FFA3E090058FCFF0A3EFF09000D6
:1037560038E0640160030239CE9005A5E0FEA3E0DF
:10376600FFE4FCFD90057912414690058FE0FEA32B
:10377600E0FF90058DE0FCA3E0FDC39FEE6480F8BA
:10378600EC648098500990059F7401F0E4A3F0D38F
:10379600ED9FEE6480F8EC6480984008E490059F05
:1037A600F0A304F090059FE0606590057DE4F0A32A
:1037B60004F0E47F6C7EE8FDFC900579E0F8A3E078
:1037C600F9A3E0FAA3E0FBC31240FA504290057950
:1037D600E0F890057FE0FEA3E0FFEE3395E0FDFC08
:1037E600EB2FFFEA3EFEE93DFDE83CFC9005791231
:1037F6004146C3900580E0941490057FE064809470
:1038060080500CA3E004F0700690057FE004F09071
:1038160005A0E0607790057FE4F0A304F0E47FE480
:103826007ED4FDFC900579E0F8A3E0F9A3E0FAA3C5
:10383600E0FBD31240FA4054900579E0FCA3E0FD8A
:10384600A3E0FEA3E0FFC006C007A3E0FEA3E0FBE3
:10385600AA06EA3395E0F9F8D007D006C3EF9BFF36
:10386600EE9AFEED99FDEC98FC900579124146C35F
:1038760090057EE0941490057DE064809480500C61
:10388600A3E004F0700690057DE004F0900579A3AE
:10389600A3E0FFA3E09005A5CFF0A3EFF090052EDF
:1038A600E0FEA3E0FF4E6009EF641E4E6003023A9D
:1038B600E2E4FFFE7D487C43900597E0F8A3E0F93B
:1038C600A3E0FAA3E0FB123FA260025003023AE231
:1038D600900597E0F8A3E0F9A3E0FAA3E0FBE4FF84
:1038E600FE7D5C7C43123F051246759000411241F5
:1038F600467FEE7E7C7D7F7C3F900041E0F8A3E032
:10390600F9A3E0FAA3E0FB123FA2500A900041128D
:1039160041523F7F7CEE7F897E417D807C3F9000D7
:1039260041E0F8A3E0F9A3E0FAA3E0FB123FA260AE
:103936000C400A9000411241523F8041899005A5F2
:10394600E0FCA3E0FDE4124020900041E0F8A3E093
:10395600F9A3E0FAA3E0FB123DFC900041124146B8
:103966007F007E6C7D687C47900041E0F8A3E0F91B
:10397600A3E0FAA3E0FB123FA2600C400A900041CC
:1039860012415247686C007F007EE47D547C47906C
:103996000041E0F8A3E0F9A3E0FAA3E0FB123FA29E
:1039A600500A9000411241524754E400900041E011
:1039B600FCA3E0FDA3E0FEA3E0FF1240599005A59D
:1039C600EEF0A3EFF0023AE2E4FFFE7D487C43907E
:1039D6000257E0F8A3E0F9A3E0FAA3E0FB123FA246
:1039E60060025003023AE2900257E0F8A3E0F9A31E
:1039F600E0FAA3E0FBE4FFFE7D5C7C43123F051288
:103A060046759000411241467F527EB87D7E7C3FCE
:103A1600900041E0F8A3E0F9A3E0FAA3E0FB123F2F
:103A2600A2500A9000411241523F7EB8527FD77E83
:103A3600A37D807C3F900041E0F8A3E0F9A3E0FA83
:103A4600A3E0FB123FA2600C400A900041124152D3
:103A56003F80A3D79005A5E0FCA3E0FDE41240203B
:103A6600900041E0F8A3E0F9A3E0FAA3E0FB123DE1
:103A7600FC9000411241467F007E6C7D687C479039
:103A86000041E0F8A3E0F9A3E0FAA3E0FB123FA2AD
:103A9600600C400A90004112415247686C007F005A
:103AA6007EE47D547C47900041E0F8A3E0F9A3E072
:103AB600FAA3E0FB123FA2500A900041124152477E
:103AC60054E400900041E0FCA3E0FDA3E0FEA3E087
:103AD600FF1240599005A5EEF0A3EFF09005A5E082
:103AE600900212F0E41249979005A5A3E090021205
:103AF600F09001C47401F012499BE4900587F0A38D
:103B0600F0900587E0FEA3E0FFC39410EE64809476
:103B1600804003023CEE74632FF58274053EF58304
:103B2600E4F0900588E004F070D7900587E004F093
:103B360080CF9004F6E0444090019BF09001A17480
:103B4600DFF090001EE09001A2F090001FE09001CF
:103B5600AAF0900020E09001ACF0900021E09001E6
:103B6600B2F0900022E09001B4F0E49001BCF09035
:103B760001B5E06005E4F012471B023CEB9004F649
:103B8600E0444090019BF09001A174DAF0E4FFFE5E
:103B96007D207C41900275E0F8A3E0F9A3E0FAA34A
:103BA600E0FB123DFC1240599002BAEFF09001A2E0
:103BB600F0E4FFFE7D207C41900275E0F8A3E0F979
:103BC600A3E0FAA3E0FB123DFCE4FBFA798078431C
:103BD600123F051240599001B3EFF09001AAF0E4AC
:103BE6009001ACF0900027E0FCE4124025900275AD
:103BF600E0F8A3E0F9A3E0FAA3E0FB123FA2500726
:103C06009001ACE04401F07F007E807D3B7C4590D6
:103C160005A9E0F8A3E0F9A3E0FAA3E0FB123FA2AE
:103C260060234021E4FFFE7D617C459005A9E0F814
:103C3600A3E0F9A3E0FAA3E0FB123FA2500790012C
:103C4600ACE04402F0E4FFFE7D617C459005A9E00E
:103C5600F8A3E0F9A3E0FAA3E0FB123FA260094053
:103C6600079001ACE04404F09001ADE060079001DC
:103C7600ACE04420F0900540E060079001ACE044E1
:103C860040F090052DE060079001ACE04480F0E440
:103C96009001B2F09001B4F09001BCF09001B5E053
:103CA6006005E4F012471B803C9004F6E044409027
:103CB600019BF09001A174DBF0900027E09001A237
:103CC600F0900028E09001AAF0E49001ACF0900199
:103CD600B2F09001B4F09001BCF09001B5E060053F
:103CE600E4F012471B124841900033E0643160064D
:0E3CF600E004F0020773E4900033F00207735D
:10002E009005BBE5A7F075A70F43A1C775EF04E0D8
:10003E00F5A775A70F43800C759F66E49005B9F080
:10004E00A3F09005BAE004F070069005B9E004F054
:10005E009005B9E0B40BEBA3E0B4B8E6E59F30E74A
:0A006E00FB758F0175A1C6E4F5A72C
:010078002265
:100003009005BCE5A7F075A70F75981075ADFB7546
:10001300AC8043AB0343AB40D299758810E0F5A79E
:0100230022BA
:104A57009005B9E5A7F075A70F75D43F75F1F07507
:104A6700A4507580FF75D51E75F2E175A5E17590A7
:0D4A77001F75E10275E20275C7C0E0F5A7EA
:014A8400220F
:10471B009005BAE5A7F075A70C43C00143C04E75D1
:10472B009B44759ADF75C30075C2F0E4F5C5F5C4FB
:10473B00F5C7F5C6F5CBF5CA9001B5E0FF70067568
:10474B00CDA675CC38EFB4010675CDA275CC7875B6
:10475B00D30075D288E4F5BFF5BEE5BF20E7FB7546
:10476B00C30075C2F0E4F5C5F5C4F5C7F5C6F5CBC6
:10477B00F5CA9001B5E0FF700675CD8275CC78EF68
:10478B00B4010675CD8675CC3875D31475D2887582
:10479B00BF0075BE01E5BF20E7FB53C0BE43E70278
:0947AB0075F7029005BAE0F5A7CC
:0147B40022E2
:104841009005B9E5A7F075A70CE5A345A5FEE5A27E
:1048510045A44E600312471BE5A345A5FEE5A2450D
:10486100A44E70F490019BE0F5D49001A1E0F5D540
:10487100A3E0F5D69001AAE0F5D79001ACE0F5DA16
:104881009001B2E0F5DB9001B4E0F5DC9001BCE011
:10489100F5DD75C30075C287E4F5BFF5BEE5BF2040
:0848A100E7FB9005B9E0F5A763
:0148A90022EC
:0300830002458AA9
:10458A00C0E0C083C082C0D075D000C005C006C0DC
:01459A000719
:10459B00900575E594F0AF9CA3EFF0E0FFB4010636
:1045AB0075C30075C27FEF7005F5C375C20875BF83
:1045BB00008FBEE5BF20E7FB900575E0FF30E4718F
:1045CB00A3E0FE6401706AEEFD900187E4F0A3EDB9
:1045DB00F0AED4EEFD900553E4F0A3EDF0AED5EEC6
:1045EB00FDA3E4F0A3EDF0AED6EEFD900558E4F09C
:1045FB00A3EDF0AED7EEFD90055DE4F0A3EDF0AECC
:10460B00DAEEFDA3E4F0A3EDF0AEDBEEFDA3E4F0F8
:10461B00A3EDF0AEDCEEFD900573E4F0A3EDF0AE90
:10462B00DDEEFD900029E4F0A3EDF090019974010B
:10463B00F0900576E0B42002E4F0EF5407600664D6
:10464B00076002D208900575E030E702D2089005AA
:07465B0075E030E602D20811
:0F466200D007D006D005D0D0D082D083D0E032A0
:104A85009005B9E5A7F0E4F5A7F5E875D12B75BC58
:064A950030D2EFE0F5A7AE
:014A9B0022F8
:104A27009005B9E5A7F0E4F5A7F5C8438E10900205
:104A370005E024CBFF900204E034D4F5CB8FCA7491
:0F4A4700FFF5CDF5CCD2ADD2CA9005B9E0F5A7F9
:014A5600223D
:03002B000242513D
:10425100C0E0C083C082C0D075D000C007C2CF907B
:1042610004F5E004F0E064327028F090023804F0C4
:10427100900237E004F0E0B40507E4F09002360460
:10428100F0900525E004F0E0B41407E4F090052473
:1042910004F0900286E004F07006900285E004F0DC
:1042A100900285E07004A3E064C8600302457F903A
:1042B100052AE07002A3E0600E90052BE024FFF0D8
:1042C10090052AE034FFF090050BE07002A3E06056
:1042D1000E90050CE024FFF090050BE034FFF0D3C5
:1042E10090004EE0940190004DE064809480400C79
:1042F100A3E024FFF090004DE034FFF0900285E44C
:10430100F0A3F0900190E004F0E0B43202E4F09008
:104311000206E0FF600B900190E070059001AD0492
:10432100F0EF600C900190E0B402059001ADE4F073
:1043310090018DE004F0E0B41E02E4F0900534E059
:1043410014600F14601414602514603E240470621C
:10435100805B9005407401F0805890018DE0FF3042
:10436100E0069005407401F0EF20E046803F9001A7
:104371008DE0FF6003B404069005407401F0EF6422
:10438100026005EF6406702A802390018DE0FF60D2
:104391000864046004EFB408069005407401F0EF6E
:1043A10064026009EF64066004EFB40A05900540F9
:1043B100E4F0900181E004F0E0640A60030244A6A5
:1043C100F09001CAE0600E900228E004F0700690BF
:1043D1000227E004F09004F7E0601C900228E0045A
:1043E100F07006900227E004F0900529E004F070D7
:1043F10006900528E004F09001C5E0602A900228AB
:10440100E004F07006900227E004F0900529E00432
:10441100F07006900528E004F090021EE004F070B0
:104421000690021DE004F0C390021EE09404900285
:104431001DE06480948040199002567401F090024E
:1044410027E4F0A3F0900528F0A3F090021DF0A35B
:10445100F0C3900529E09414900528E064809480CD
:1044610040199002567401F0900227E4F0A3F090F5
:104471000528F0A3F090021DF0A3F0C3900228E0FC
:10448100943C900227E06480948040199002567415
:1044910001F0900227E4F0A3F0900528F0A3F0903A
:1044A100021DF0A3F09001CAE0FF6014900181E0C9
:1044B100700E9001AD04F090052DF0900506E4F02A
:1044C100EF600C900181E0B402059001ADE4F09041
:1044D100027DE004F0E0B40502E4F09004F7E0FFAF
:1044E100601490027DE0700E9001AD04F090052DF6
:1044F100F0900506E4F0EF600C90027DE0B4020557
:104501009001ADE4F09001C5E0FF600F9001AD7442
:1045110001F090052DF0900506E4F090052DE0B432
:10452100010F900506E004F0E0B4030590052DE4C9
:10453100F0900206E070479001CAE070419004F7E4
:10454100E0703BEF703890052DF0900194E0600829
:104551009001AD7401F08026900193E0601B900101
:104561008DE0FF6003B404069001AD7401F0EF64C7
:10457100026006EFB4060780009001ADE4F0D007B9
:09458100D0D0D082D083D0E0320A
:1048AA0090027B7478F0A37400F012494D90027B59
:1048BA007478F0A37400F0E49005B9F0A3F09005C1
:1048CA00B9E0FEA3E0FFC3EE648094825030740026
:1048DA002FF58274003EF583E0900273F01249C20C
:1048EA0090027CE004F0700690027BE004F09005F0
:0E48FA00BAE004F070C89005B9E004F080C088
:01490800228C
:10494D00A2AF92099005BBE5A7F0E4F5A7C2AF753C
:10495D00FFA075EF0290027BE0FEA3E0F5828E834F
:10496D0075B7A575B7F1438F0375FFA075EF02E419
:0E497D00F0538FFCA20992AF9005BBE0F5A7A6
:01498B002209
:1049C200A2AF9209C2AF75FFA075EF0290027BE021
:1049D200FEA3E0FF75B7A575B7F1438F0175FFA080
:1049E20075EF02900273E08F828E83F0538FFEA2E6
:0349F2000992AF78
:0149F500229F
:0F498C00E49005B1F0900212F0740B9001C4F0AA
:10499B009005B9E5A7F075A70F75A6FF9001C4E0C8
:1049AB00F5A0C295D295C297900212E0F5A0D297CE
:0649BB009005B9E0F5A72C
:0149C10022D3
:0449F6009001C4F078
:1049FA009005B9E5A7F075A70F75A6FF9001C4E069
:104A0A00F5A0C295D295E4F5A675A0FFC2969002CC
:0C4A1A0012E5A0F0D2969005B9E0F5A7D7
:014A2600226D
:103D04000240C5E86480F8E933E83360110460F0E8
:103D1400ED33EC337009E8FCE9FDEAFEEBFF220425
:103D240060DED3EB9FEA9EE99DE8C2E78CF0C2F720
:103D340095F0400CE8CCF8E9CDF9EACEFAEBCFFBEC
:103D440012409085D0F05804700320D5B3E8047075
:103D5400075002B2D50240CF92D5EC0460F7E4CC10
:103D6400C0E0C398F8603B94186008400DD0E0FBB5
:103D74000240A7E4FBFAC9FC8028E830E406E4C961
:103D8400FBE4CAFCE830E305E4C9CACBFCE8540709
:103D94006010F8C3E913F9EA13FAEB13FBEC13FC14
:103DA400D8F130F52FC3E49CFCEF9BFFEE9AFEEDB7
:103DB40099FDD0E0FBEF4E4D4C701222DB03024024
:103DC400CCEC2CFCEF33FFEE33FEED33FDED30E7AE
:103DD400EB0240A7EF2BFFEE3AFEED39FDD0E0FBFE
:103DE40050130BBB00030240CFED13FDEE13FEEFA7
:083DF40013FFEC13FC0240A7D1
:103DFC00EC4D6011E8497017ED33EC3304600DE4C1
:103E0C00FCFFFEFD22E933E8330470F80240C512D2
:103E1C00409058046009E4CC2481500628500902D3
:103E2C0040CF2840030240CCC0E0EB4A7044B9803C
:103E3C0006D0E0FB0240BBEF4E701CBD8008EBFFD0
:103E4C00EAFEE9FD80EBE98DF0A4FEE5F0023EE52B
:103E5C00E9CDF9EAFEEBFFEF89F0A4FCE5F0CE89A1
:103E6C00F0A42EFFE435F0CD89F0A42DFEE435F05E
:103E7C008067EF4E7005BD80D780C3EF8BF0A4AC8C
:103E8C00F0EE8BF0A42CFCE435F0F8EF8AF0A42CC7
:103E9C00E5F038FCE433CB8DF0A42CFCE5F03BF8DA
:103EAC00EE8AF0A42CFCE5F038F8E433CF89F0A4CA
:103EBC002CFCE5F038CF3400CE89F0A42FFFE5F0D0
:103ECC003EFEE433C98DF0A42EFEE5F039CD8AF028
:103EDC00A42FFFE5F03EFEE43DFD33D0E0FB5007A0
:103EEC000BBB000F0240CFEC2CFCEF33FFEE33FE8C
:063EFC00ED33FD0240A7BA
:103F02000240CFEC5D046005E8590470030240C52D
:103F1200124090580460F6EC4860F2EC7004FDFE2A
:103F2200FF22C860DB2481C85009C3986002500692
:103F32000240CC9850CAF582E9294B4A7005AB82FF
:103F42000240BB75F0007C1A7880C3EF9BEE9AEDBD
:103F520099400DC3EF9BFFEE9AFEED99FDE842F00A
:103F6200DC23ACF0D0E0FFD0E0FED0E0FDAB82205D
:103F7200E7101BEB60BAEC2CFCEF33FFEE33FEEDE7
:103F820033FD0240A7E803F830E705C0F075F00002
:103F9200EF2FFFEE33FEED33FD40B830E7C280AACB
:103FA20074F8CC6480CCC86480C8F58204604FC3C6
:103FB200EB9FF5F0EA9E42F0E99D42F0E89C45F065
:103FC200603C501DE5825FFFE582D313CB5BCBF4EF
:103FD2002B5582FB50280ABA002409B90020088018
:103FE2001DE5825BFBE582D313CF5FCFF4C3132FB2
:103FF2005582FF50090EBE00050DBD00010CC3EB3A
:104002009FF5F0EA9E42F0E99D42F0E89C45F0609F
:0940120007CC4820E701B3EC22C1
:10401B0075F020800E75F010800575F0087D007E20
:10402B00007F003392D530D5031240ECEC334010B7
:10403B00EF33FFEE33FEED33FDEC33FCD5F0ED2229
:0E404B00E5F0247EA2D513CC92E7CDCEFF2265
:10405900EDD2E7CD33EC3392D524814006E4FFFE5F
:10406900FDFC22FCE4CFCECDCC24E0501174FF80BE
:10407900EDC3CC13CCCD13CDCE13CECF13CF04705B
:07408900F030D5DE0240EC2F
:104671000240C522EDA2E7D2E7F9EC3340F260F344
:10468100B4FF08ED547F70E80240CFF82481C2E006
:10469100C0E0F40428FAC313FCED92E7FD8C088D09
:1046A100098E0A8F0BEEA2E7E9BA7F02C313340029
:1046B1009400FA75F091A4E5F013F494FE8AF0A445
:1046C10033E5F033248CD313FDE492E7FE7F007CC5
:1046D1003F758302ECC0E0F8EDC0E0F9EEC0E0FA0E
:1046E100EFC0E0FBAC08AD09AE0AAF0B123F05D03D
:1046F100E0FBD0E0FAD0E0F9D0E0F8123D0BED6438
:1047010080FD30E7011CD583CBED33CC33F8D0E00D
:0A471100A2E71328C313CC13FD2206
:10409000E9D2E7C933E833F892D5EDD2E7CD33EC76
:0740A00033FC5002B2D522EF
:1040A700EC30E7100FBF000C0EBE00080DBD00047A
:1040B7000BEB6014A2D5EB13FCED92E7FD2274FF26
:1040C700FCFDFEFF22E480F8A2D574FF13FC7D807F
:0340D700E480EF93
:030000000247B5FF
:0C47B500787FE4F6D8FD7581210247FCF6
:1040DA00EF8DF0A4A8F0CF8CF0A428CE8DF0A42EFA
:0240EA00FE22B4
:10490900C2D5E830E70FB2D5E4C39BFBE49AFAE4D9
:1049190099F9E498F8EC30E717B2D512493F1241FA
:10492900BFE4C39BFBE49AFAE499F9E498F880039D
:104939001241BF30D50DE4C39FFFE49EFEE49DFD07
:04494900E49CFC22CC
:0E40EC00C3E49FFFE49EFEE49DFDE49CFC22E5
:1040FA00EB9FF5F0EA9E42F0E99D42F0EC6480C83D
:06410A0064809845F022DC
:10411000E8600FECC313FCED13FDEE13FEEF13FF8D
:03412000D8F122B1
:10412300E8600FEFC333FFEE33FEED33FDEC33FCFA
:03413300D8F1229E
:10413600E493FC740193FD740293FE740393FF22CF
:0C414600ECF0A3EDF0A3EEF0A3EFF022EC
:10415200A8828583F0D083D082124169124169120C
:104162004169124169E473E493A3C583C5F0C58331
:10417200C8C582C8F0A3C583C5F0C583C8C582C8B7
:01418200221A
:1047C100020086E493A3F8E493A34003F68001F288
:1047D10008DFF48029E493A3F85407240CC8C333F9
:1047E100C4540F4420C8834004F456800146F6DFC8
:1047F100E4800B0102040810204080900024E47E34
:10480100019360BCA3FF543F30E509541FFEE493BC
:10481100A360010ECF54C025E060A840B8E493A383
:10482100FAE493A3F8E493A3C8C582C8CAC583CAAE
:10483100F0A3C8C582C8CAC583CADFE9DEE780BE66
:0100260000D9
:1041830075F008758200EF2FFFEE33FECD33CDCCF3
:1041930033CCC58233C5829BED9AEC99E582984076
:1041A3000CF582EE9BFEED9AFDEC99FC0FD5F0D653
:1041B300E4CEFBE4CDFAE4CCF9A88222B800C1B97D
:1041C3000059BA002DEC8BF084CFCECDFCE5F0CBBB
:1041D300F97818EF2FFFEE33FEED33FDEC33FCEBF4
:1041E30033FB10D703994004EB99FB0FD8E5E4F9AF
:1041F300FA227818EF2FFFEE33FEED33FDEC33FC9C
:10420300C933C910D7059BE99A4007EC9BFCE99A8F
:10421300F90FD8E0E4C9FAE4CCFB2275F010EF2FD4
:10422300FFEE33FEED33FDCC33CCC833C810D707D4
:104233009BEC9AE899400AED9BFDEC9AFCE899F80F
:0E4243000FD5F0DAE4CDFBE4CCFAE4C8F922A2
:00000001FF
