:02002400C10811
:100086009005A2E5A7F0E4F5A753D9BFE0F5A7E4EC
:1000960090004FF09005A3F0A3F0900034F0A37405
:1000A60064F0E4900176F0A3F0900190F090018D59
:1000B600F0900181F090027DF0900178F09001932C
:1000C600F0A3F09001B6F0A3F090021DF0A3F0901B
:1000D6000528F0A3F0900227F0A3F0900256F090C6
:1000E6000288F0900280F0900535F09001ABF09018
:1000F60001A3F0900557F090028FF0900206F09061
:1001060001CAF09004F7F09001C5F0F520900215B1
:10011600F0A3F0900268F0A3F090057DF0A304F040
:10012600A3E4F0A304F0E49004F5F0900237F09015
:10013600004DF0A3F0F50D124B33E4900534F012A8
:10014600002EE4900543F090026FF0C284D296D25E
:1001560097D295900577F0A3F0900578E004F070BB
:1001660006900577E004F0900577E0B427EBA3E06E
:10017600B410E690019CE064556018900212745524
:10018600F074FF124A73124AD6900212E090019C54
:10019600F080E0E4900577F0A3F0900578E004F0B5
:1001A6007006900577E004F0900577E0B427EBA39E
:1001B600E0B410E690019CE064AA601C9002127400
:1001C600AAF09001C474FFF0124A77124AD6900240
:1001D60012E090019CF080DCE4900587F0A3F0909B
:1001E6000585E0FEA3E02463F58274053EF583E40D
:1001F600F0900588E004F07006900587E004F09022
:100206000587E07004A3E0641070D4900593124251
:100216002E00000000E49005B0F0900212F090016C
:10022600C4740AF0124A77124A689005B47401F051
:10023600900212F09001C4740DF0124A779005A551
:1002460074DEF0A374A8F09005A5E0900212F0E425
:10025600124A739005A5A3E0900212F09001C474AF
:1002660001F0124A77E49005A7F0A3F0900212F08D
:100276009001C47406F0124A77E490024BF09005A0
:100286002DF0900212F09001C47402F0124A77E445
:1002960090026FF0900543F0900212F09001C47442
:1002A60003F0124A77E49004F4F0900038F09002DC
:1002B60012F09001C47404F0124A77E490055AF0E3
:1002C6009001ADF0900212F09001C47408F0124A49
:1002D60077E490026EF0900540F0900212F09001E3
:1002E600C47409F0124A77124B61E49001B5F0121A
:1002F60047F7E4900204F0A3F0124B03D2AFE49068
:100306000033F0900039F0900589F0A3F090052EA7
:10031600F0A3F090780093FE740193FF900000EE36
:10032600F0A3EFF04E6074A312422E4129999A90E1
:10033600001A12422E4129999A90001612422E4115
:1003460029999A90000A12422E4146666690000646
:1003560012422E42BD333390000E12422E40B999FE
:100366009A90001212422E43A50000E4900000F07D
:10037600A3F090001E74BBF0A374FEF0A37402F009
:10038600A304F0E4A3F0A312422E425A666690003C
:10039600277428F0A37448F0124986907802124216
:1003A6001290000212422290781A12421290001AFB
:1003B6001242229078161242129000161242229091
:1003C600780A12421290000A1242229078061242CD
:1003D6001290000612422290780E12421290000EDF
:1003E6001242229078121242129000121242229069
:1003F600781EE49390001EF090781FE49390001FFF
:10040600F0907820E493900020F0907821E493FF18
:10041600900021F0FB907822E493900022F09078EF
:1004260023124212900023124222907827E49390DE
:100436000027F0907828E493900028F0900212EBC1
:10044600F09001C47468F0124A7790001EE0FCE454
:1004560012410190017212422290001FE0FCE41248
:100466004101900182124222900172E0F8A3E0F964
:10047600A3E0FAA3E0FB900182E0FCA3E0FDA3E089
:10048600FEA3E0FF123DE3E4FBFA79207841123F38
:10049600E190050D12422290050DE0F8A3E0F9A3C4
:1004A600E0FAA3E0FB900182E0FCA3E0FDA3E0FEFE
:1004B600A3E0FF123DE390018912422290050DE070
:1004C600FCA3E0FDA3E0FEA3E0FF900172E0F8A329
:1004D600E0F9A3E0FAA3E0FB123DE790017D1242AA
:1004E6002290053012422E07FFFFFF900530E0FCF8
:1004F600A3E0FDA3E0FEA3E0FF78181241EC900212
:1005060012EFF09001C47414F0124A77900530E0AF
:10051600FCA3E0FDA3E0FEA3E0FF78101241EC90FF
:100526000212EFF09001C47415F0124A779005306C
:10053600E0FCA3E0FDA3E0FEA3E0FF78081241EC97
:10054600900212EFF09001C47416F0124A779005EB
:1005560030A3A3A3E0900212F09001C47417F01226
:100566004A7790051712422E0059B800900517E0F9
:10057600FCA3E0FDA3E0FEA3E0FF78181241EC9097
:100586000212EFF09001C47418F0124A7790051722
:10059600E0FCA3E0FDA3E0FEA3E0FF78101241EC2F
:1005A600900212EFF09001C47419F0124A77900588
:1005B60017E0FCA3E0FDA3E0FEA3E0FF78081241EC
:1005C600EC900212EFF09001C4741AF0124A779080
:1005D6000517A3A3A3E0900212F09001C4741BF0C8
:1005E600124A7790050212422E07FFFFFF9005027E
:1005F600E0FCA3E0FDA3E0FEA3E0FF78181241ECC7
:10060600900212EFF09001C4741CF0124A77900524
:1006160002E0FCA3E0FDA3E0FEA3E0FF7810124198
:10062600EC900212EFF09001C4741DF0124A77901C
:100636000502E0FCA3E0FDA3E0FEA3E0FF780812BC
:1006460041EC900212EFF09001C4741EF0124A774A
:10065600900502A3A3A3E0900212F09001C4741FB8
:10066600F0124A77900020E0FB700A9004E51242EF
:100676002E00CDFE60EBB4010A9004E512422E0076
:10068600CDFE60900020E0B4020A9004E512422EEE
:10069600020238A09004E5E0FCA3E0FDA3E0FEA37F
:1006A600E0FF78181241EC900212EFF09001C4744A
:1006B60020F0124A779004E5E0FCA3E0FDA3E0FEFB
:1006C600A3E0FF78101241EC900212EFF09001C403
:1006D6007421F0124A779004E5E0FCA3E0FDA3E064
:1006E600FEA3E0FF78081241EC900212EFF09001B1
:1006F600C47422F0124A779004E5A3A3A3E0900203
:1007060012F09001C47423F0124A77E4900199F034
:1007160090057912422E00000000E4900583F0A3B4
:10072600F0900031F0A3F0900285F0A3F090005015
:10073600F0A3F090052374E8F0E490028DF0A3F0A6
:1007460090020BF0A3F0900209F0A374FAF0E49083
:100756000207F0A3F0900557F090027F04F0E490B2
:10076600028FF09001C304F0E490024AF090024B2D
:10077600E0FF90052DE06F6012E090024BF09002D2
:1007860012F09001C47402F0124A77D3900051E03F
:100796009405900050E064809480400990024AE0FD
:1007A600B40102D28490024AE07002C2849001C36E
:1007B600E0FF90028FE06F6012E09001C3F09002BC
:1007C60012F09001C47403F0124A779004F4E0FF2B
:1007D600900038E06F6012E09004F4F0900212F09E
:1007E6009001C47404F0124A7790055AE0FF900114
:1007F600ADE06F6012E090055AF0900212F09001A1
:10080600C47408F0124A7790026EE0FF900540E04B
:100816006F6012E090026EF0900212F09001C474C4
:1008260009F0124A7790028DE0FEA3E0FFEE600326
:10083600020965EFB40F004003020965900849F804
:1008460028287302087602088402089E0208B40269
:1008560008D90208E8020965020965020965020964
:10086600650208F602091002092402094502095127
:1008760090028DE4208551F0A304F00209659005ED
:1008860043E090028D7008F0A37402F0020965E45B
:10089600F0A37405F002096590024AE0B401030270
:1008A600095E90028DE4F0A37403F00209659005D9
:1008B60057E0B4011B9005437401F090028DE4F0FB
:1008C600A37404F090050BE4F0A3740AF002096522
:1008D60002095E90050BE07002A3E0600302096561
:1008E600807790024AE0B40105E4900543F0806801
:1008F600900543E090028DB40108E4F0A3740BF078
:10090600805DE4F0A3740EF08055900557E0B401C5
:1009160002804590028DE4F0A3740CF080419002B1
:100926004AE0B40118E4900543F090050BF0A37477
:100936000AF090028DE4F0A3740DF08022801990E5
:10094600050BE07002A3E07016800E900557E0B428
:1009560001069005437401F0E490028DF0A3F09037
:100966000050E0FEA3E0FFEE6003021151EFB41069
:10097600004003021151900983F82828730209B335
:100986000209FF020D5F020D79020DC7020EB202C7
:100996000ECB020F13020F53020FC0020FE102111A
:1009A600510211510210D002110202113890002793
:1009B600E0FCE4124101900275E0F8A3E0F9A3E03F
:1009C600FAA3E0FB12407E60025003021151124A64
:1009D60068E49005B0F0900212F09001C4740AF039
:1009E600124A77E490004FF09005347402F09000BC
:1009F60050E4F0A304F0021151E49001BDF0A3F01D
:100A0600900581F0A3F075BB0AD2EC20ECFD9001B5
:100A1600BEE025BDF09001BDE035BEF0900582E058
:100A260004F07006900581E004F0900581E0700402
:100A3600A3E0641070D0E49001BFF0A3F0900581AC
:100A4600F0A3F075BB0BD2EC20ECFD9001C0E025C5
:100A5600BDF09001BFE035BEF0900582E004F07075
:100A660006900581E004F0900581E07004A3E0643F
:100A76001070D0E49001C1F0A3F0900581F0A3F0CE
:100A860075BB0CD2EC20ECFD9001C2E025BDF090C8
:100A960001C1E035BEF0900582E004F070069005D5
:100AA60081E004F0900581E07004A3E0641070D04A
:100AB6009001BDE0C4F854F0C868F0A3E0C4540F38
:100AC60048F0A3E0C4F854F0C868F0A3E0C4540F9B
:100AD60048F0A3E0C4F854F0C868F0A3E0C4540F8B
:100AE60048F0E490052CF09001BDE0FEA3E0FFD3B2
:100AF60094B9EE94004008EF9448EE94034009D36D
:100B0600EF94ACEE940D400690052C7401F0900124
:100B1600BFE0FEA3E0FFD394B9EE94004008EF9443
:100B260048EE94034009D3EF94ACEE940D40069042
:100B3600052C7401F09001C1E0FEA3E0FFD394B947
:100B4600EE94004008EF9448EE94034009D3EF94E6
:100B5600ACEE940D400690052C7401F090052CE047
:100B66006401704E9004F67407F0C39001BEE094E1
:100B7600079001BDE0940850079004F6E05406F093
:100B8600C39001C0E094079001BFE094085007901D
:100B960004F6E05405F0C39001C2E094079001C149
:100BA600E094084003020CE69004F6E05403F002D9
:100BB6000CE6E49004F6F09001C1E0FEA3E0FFC36A
:100BC6009448EE9403400FEF9490EE9406500790ED
:100BD60004F6E04401F09001C1E0FEA3E0FFC394F7
:100BE60090EE9406400FEF94B0EE940950079004EF
:100BF600F6E04402F09001C1E0FEA3E0FFC394B02A
:100C0600EE9409400FEF94ACEE940D50079004F665
:100C1600E04403F09004F6E025E025E0F09001BF03
:100C2600E0FEA3E0FFC39448EE9403400FEF9490D8
:100C3600EE940650079004F6E04401F09001BFE000
:100C4600FEA3E0FFC39490EE9406400FEF94B0EE3F
:100C5600940950079004F6E04402F09001BFE0FECC
:100C6600A3E0FFC394B0EE9409400FEF94ACEE946A
:100C76000D50079004F6E04403F09004F6E025E0FA
:100C860025E0F09001BDE0FEA3E0FFC39448EE949A
:100C960003400FEF9490EE940650079004F6E0445C
:100CA60001F09001BDE0FEA3E0FFC39490EE940630
:100CB600400FEF94B0EE940950079004F6E044021A
:100CC600F09001BDE0FEA3E0FFC394B0EE940940AE
:100CD6000FEF94ACEE940D50079004F6E04403F049
:100CE600900523E0FF9004F6E0FE6F70619002121B
:100CF600F0EEC4540FFFBF01037401F0BF0206906B
:100D060002127402F0900212E090019AF09001C46F
:100D16007467F0124A779004F6E0540FF0E024145A
:100D2600F0C2AFE024EDFFE434FFFE7C007D6412E8
:100D360041B6900204EEF0A3EFF0124B03D2AFE4FB
:100D46009005B7F0A3F0900050F0A37402F0900461
:100D5600F6E0900523F00211519005B7E07004A368
:100D6600E064056003021151900050F0A37403F093
:100D76000211519005B27406F0900212F09001C46F
:100D8600740CF0124A779005B47401F0900212F0D8
:100D96009001C4740DF0124A77900022E09005B0DD
:100DA600F0900212F09001C4740AF0124A77900093
:100DB60022E0124A69900050E4F0A37404F0021194
:100DC600519005B2E0A3F0E4FFFE7DC07C409002A6
:100DD60057E0F8A3E0F9A3E0FAA3E0FB12407E6037
:100DE6000840069005B27408F0E4FFFE7D707C4171
:100DF600900257E0F8A3E0F9A3E0FAA3E0FB124063
:100E06007E600840069005B2740AF0E4FFFE7D0C91
:100E16007C42900257E0F8A3E0F9A3E0FAA3E0FBD6
:100E260012407E600840069005B2740CF09005B240
:100E3600E0FFA3E06F600E900212EFF09001C47421
:100E46000CF0124A77E4FFFE7DC87C42900257E020
:100E5600F8A3E0F9A3E0FAA3E0FB12407E6002509B
:100E660003021151900020E0FF7006900212740AEE
:100E7600F0EFB40106900212740AF0EFB402069085
:100E860002127406F09001C4740CF0124A77E490D2
:100E960005B4F0900212F09001C4740DF0124A7776
:100EA600900050E4F0A37405F0021151740B124A3D
:100EB600D2900212E06003021151900050F0A37428
:100EC60006F0021151E4FFFE7D2A7C43900257E0B2
:100ED600F8A3E0F9A3E0FAA3E0FB12407E6002501B
:100EE60003021151E4FFFE7D827C43900257E0F835
:100EF600A3E0F9A3E0FAA3E0FB12407E400302114F
:100F060051900050E4F0A37407F0021151E4FFFE83
:100F16007D2A7C4390021FE0F8A3E0F9A3E0FAA340
:100F2600E0FB12407E601A4018E4900283F0A3F0C2
:100F3600900279F0A3F0900050F0A37408F002112B
:100F460051900050E4F0A37409F00211519002840C
:100F5600E004F07006900283E004F07446124AD270
:100F6600900212E0FFC313FEEF5401B5060E900285
:100F76007AE004F07006900279E004F0900283E0D3
:100F860064037004A3E064E86003021151D3900285
:100F96007AE094B6900279E064809483400B9000E6
:100FA60050E4F0A37409F08007E4900283F0A3F004
:100FB600E4900279F0A3F00211519000387401F028
:100FC60090052AE4F0A3740AF09005347401F090B9
:100FD6000050E4F0A3740AF0021151900256E06446
:100FE6000170469005B0F0900212F09001C4740AA8
:100FF600F0124A77124A68E4900038F09001CAF07D
:101006009004F7F09001C5F090052DF0900540F0A2
:101016009005347403F090052A7401F0A37490F0DF
:10102600900050E4F0A3740EF0900280E06401702A
:10103600469005B0F0900212F09001C4740AF012C6
:101046004A77124A68E4900038F09001CAF090049A
:10105600F7F09001C5F090052DF0900540F0900551
:10106600347404F090052A7401F0A3742CF09000F7
:1010760050E4F0A3740FF0900535E06401600302BC
:1010860011519005B0F0900212F09001C4740AF06C
:10109600124A77124A68E4900038F09001CAF0903C
:1010A60004F7F09001C5F090052DF09001AD04F025
:1010B600E4900540F09001AD04F0E4900534F09022
:1010C6000050F0A3740DF0021151E4FFFE7D8C7CFC
:1010D6004290025DE0F8A3E0F9A3E0FAA3E0FB1278
:1010E600407E5067E4900193F0A3F0900288F09060
:1010F6000280F09001ADF0900534804B90052AE017
:101106007002A3E07045900256F0900176E07004FC
:10111600A3E064026010900177E004F0702A900169
:1011260076E004F080229000347446F0A37450F008
:10113600801690052AE07002A3E0700F900288F0F6
:10114600900280F09001ABF043EF10900215E0FEA4
:10115600A3E0FFEE60030215A3EFB40A004003020A
:1011660015A390116FF828287302118D02119F02A2
:1011760011B00211C20211FD0214A20214B7021428
:10118600C80214DA021516E490003AF0A3F09002B1
:1011960068F0A3F0900215805775BB01D2EC90025F
:1011A60015E4F0A37402F00215A330EC030215A3B4
:1011B600900215E4F0A37403F00215A390003BE03F
:1011C60025BDF090003AE035BEF0900269E004F0EB
:1011D6007006900268E004F0900268E07004A3E0F4
:1011E60064109002157008F0A37404F00215A3E4CD
:1011F600F0A304F00215A390003AE0C4F854F0C836
:1012060068FEA3E0C4540F48FF90003AEEF0A3EF47
:10121600F0FDAC06E41240FC90020E1242227FCD95
:101226007ECC7D9C7C40900012E0F8A3E0F9A3E020
:10123600FAA3E0FB123ED87B337A33795378401217
:101246003FE190020EE0F8A3E0F9A3E0FAA3E0FB89
:10125600123ED8E4FBFA79807845123FE17B007AAA
:1012660080798878C3123DE790025D124222E4FF3E
:10127600FE7D8C7C4290025DE0F8A3E0F9A3E0FAE3
:10128600A3E0FB12407E600A40089001937401F0CF
:101296008005E4900193F0E4FFFE7DA07C4290027D
:1012A6005DE0F8A3E0F9A3E0FAA3E0FB12407E605C
:1012B6000E400C9001947401F0900535F08005E421
:1012C600900194F0E4FFFE7DF07C4190025DE0F831
:1012D600A3E0F9A3E0FAA3E0FB12407E500A9002D5
:1012E6003212422E42FE0000E4FFFE7DF07C419069
:1012F600025DE0F8A3E0F9A3E0FAA3E0FB12407E6A
:101306004046E4FFFE7D707C4290025DE0F8A3E07B
:10131600F9A3E0FAA3E0FB12407E6002502A7FECBC
:101326007E517D887C4090025DE0F8A3E0F9A3E061
:10133600FAA3E0FB123ED87B007ACD794C78BF1237
:101346003DE7900232124222E4FFFE7D707C42901D
:10135600025DE0F8A3E0F9A3E0FAA3E0FB12407E09
:10136600600C400A90023212422E437F0000900227
:101376003912422E437F0000900020E0FB700A9055
:10138600054F12422E442F0000EBB4010A90054F80
:1013960012422E447A0000900020E0B4020A900522
:1013A6004F12422E44FA0000900232E0F8A3E0F910
:1013B600A3E0FAA3E0FB900239E0FCA3E0FDA3E082
:1013C600FEA3E0FF123DE390054FE0F8A3E0F9A38A
:1013D600E0FAA3E0FB123FE1900195E0F8A3E0F903
:1013E600A3E0FAA3E0FB123ED8900232E0F8A3E0B5
:1013F600F9A3E0FAA3E0FB123DE79002B412422201
:10140600E4FFFE7DFE7C429002B4E0F8A3E0F9A37F
:10141600E0FAA3E0FB12407E500A9002B412422E7C
:1014260042FE0000E4FFFE7D7F7C439002B4E0F8BC
:10143600A3E0F9A3E0FAA3E0FB12407E600C400AA9
:101446009002B412422E437F00009002B4E0FCA347
:10145600E0FDA3E0FEA3E0FF1241359005A7EFF003
:10146600A3E0FEC39F5007EEF46003E004F090058E
:10147600A7E0FFA3E0FED39F4005EE600214F090C4
:1014860005A8E0900212F09001C47406F0124A77A3
:10149600900215E4F0A37405F00215A3E490024847
:1014A600F0A3F0900268F0A3F0900215F0A3740682
:1014B600F075BB09D2EC900215E4F0A37407F002B4
:1014C60015A330EC030215A3900215E4F0A37408EB
:1014D600F00215A3900249E025BDF0900248E035E0
:1014E600BEF0900269E004F07006900268E004F035
:1014F600900268E07004A3E064109002157008F092
:10150600A37409F00215A3E4F0A37406F00215A370
:10151600900248E0C4F854F0C868FEA3E0C4540F33
:1015260048FF900248EEF0A3EFF0FDAC06E412404F
:10153600FC90020E1242227F337EB37D757C45906D
:10154600020EE0F8A3E0F9A3E0FAA3E0FB123ED80E
:10155600E4FBFA79807845123FE1900023E0F8A396
:10156600E0F9A3E0FAA3E0FB123FE1900275124214
:101576002290024AE0701F900027E0FCE41241012D
:10158600900275E0F8A3E0F9A3E0FAA3E0FB1240AD
:101596007E500343EF10E4900215F0A3F09001C4CF
:1015A6007465F0124AD6900212E07003021A3C905B
:1015B60001C4745AF0124AD6900212E0FFE4FCFD10
:1015C600FE9000491242229001C4745BF0124AD682
:1015D600900049E0FCA3E0FDA3E0FEA3E0FF78084D
:1015E6001241FF900049124222900212E0FF900041
:1015F60049E0F8A3E0F9A3E0FAA3E04FFFEAFEE929
:10160600FDE8FC9000491242229001C4745CF0127D
:101616004AD6900049E0FCA3E0FDA3E0FEA3E0FF6C
:1016260078081241FF900049124222900212E0FF10
:10163600900049E0F8A3E0F9A3E0FAA3E04FFFEA3F
:10164600FEE9FDE8FC900049124222E50D700F7597
:101656000D0190054812422E00000000804B9000BC
:1016660049E0FCA3E0FDA3E0FEA3E0FFEC1240F797
:10167600900548124222900548E0FCA3E0FDA3E055
:10168600FEA3E0FF1247517BCC7A62794A7840127A
:101696003ED8900002E0F8A3E0F9A3E0FAA3E0FB4D
:1016A600123FE1900548124222E4FFFE7D757C431D
:1016B600900548E0F8A3E0F9A3E0FAA3E0FB1240A6
:1016C6007E600250030217549001C47452F0124A0D
:1016D600D6900212E0FFE4FCFDFE90004912422281
:1016E6009001C47453F0124AD6900049E0FCA3E07E
:1016F600FDA3E0FEA3E0FF78081241FF9000491227
:101706004222900212E0FF900049E0F8A3E0F9A31C
:10171600E0FAA3E04FFFEAFEE9FDE8FC900049127B
:101726004222E47F0AFEFDFC900049E0F8A3E0F9BE
:10173600A3E0FAA3E0FBC31241D6501290028074D4
:1017460001F0124A68900050E4F0A3740AF0900287
:1017560088E07045900172E0FCA3E0FDA3E0FEA3E3
:10176600E0FF900548E0F8A3E0F9A3E0FAA3E0FB68
:1017760012407E401CE4FFFE7D7E7C43900548E0DF
:10178600F8A3E0F9A3E0FAA3E0FB12407E604C4028
:101796004A9002887401F0804290017DE0FCA3E04B
:1017A600FDA3E0FEA3E0FF900548E0F8A3E0F9A35F
:1017B600E0FAA3E0FB12407E6021401FE4FFFE7DBD
:1017C600707C43900548E0F8A3E0F9A3E0FAA3E0B3
:1017D600FB12407E5005E4900288F0900288E0609B
:1017E6002AE4900557F090020BF0A3F0D390020A7A
:1017F600E09400900209E0648094804048A3E024CD
:10180600FFF0900209E034FFF0803AC390020CE04A
:1018160094F490020BE064809481500CA3E004F0F1
:10182600700690020BE004F0C390020AE094F49074
:101836000209E064809481500CA3E004F0700690E5
:101846000209E004F090020BE0B4010BA3E0B4F44B
:10185600069005577401F0900209E0FEA3E0FF4EE2
:10186600700490028FF0BE0109BFF40690028F74D7
:1018760001F09001C4745EF0124AD6900212E0FFA5
:10188600E4FCFDFE9000491242229001C4745FF010
:10189600124AD6900049E0FCA3E0FDA3E0FEA3E0D7
:1018A600FF78081241FF900049124222900212E08E
:1018B600FF900049E0F8A3E0F9A3E0FAA3E04FFFA8
:1018C600EAFEE9FDE8FC9000491242229001C47448
:1018D60060F0124AD6900049E0FCA3E0FDA3E0FECA
:1018E600A3E0FF78081241FF9000491242229002BD
:1018F60012E0FF900049E0F8A3E0F9A3E0FAA3E0C4
:101906004FFFEAFEE9FDE8FC9000491242229000F2
:1019160049E0FCA3E0FDA3E0FEA3E0FFEC1240F7E4
:10192600900544124222900544E0FCA3E0FDA3E0AA
:10193600FEA3E0FF1247517BCC7A62794A784012C7
:101946003ED890001AE0F8A3E0F9A3E0FAA3E0FB82
:10195600123FE1900544124222900243E0704C90FF
:101966000172E0FCA3E0FDA3E0FEA3E0FF900544C6
:10197600E0F8A3E0F9A3E0FAA3E0FB12407E4023DF
:10198600900182E0FCA3E0FDA3E0FEA3E0FF90054A
:1019960044E0F8A3E0F9A3E0FAA3E0FB12407E607E
:1019A6005340519002437401F0804990017DE0FC60
:1019B600A3E0FDA3E0FEA3E0FF900544E0F8A3E06A
:1019C600F9A3E0FAA3E0FB12407E602840269001CE
:1019D60089E0FCA3E0FDA3E0FEA3E0FF900544E060
:1019E600F8A3E0F9A3E0FAA3E0FB12407E5005E479
:1019F600900243F0900243E0600DE490024AF090BA
:101A06000207F0A3F0801DC3900208E094F4900250
:101A160007E064809481500CA3E004F07006900205
:101A260007E004F0900207E0B4010BA3E0B4F4066B
:101A360090024A7401F09001C47464F0124AD69080
:101A46000212E06007E49005B5F0A3F09005B5E05A
:101A5600FEA3E0FFEE600302222AEF147003021BCE
:101A6600B1147003021EFB147003022015147003D8
:101A76000221212404600302222A9001C47436F054
:101A8600124AD6900212E0FFE4FCFDFE90004912D5
:101A960042229001C47437F0124AD6900049E0FC05
:101AA600A3E0FDA3E0FEA3E0FF78081241FF90004B
:101AB60049124222900212E0FF900049E0F8A3E0AA
:101AC600F9A3E0FAA3E04FFFEAFEE9FDE8FC900087
:101AD600491242229001C47438F0124AD690004945
:101AE600E0FCA3E0FDA3E0FEA3E0FF78081241FFBF
:101AF600900049124222900212E0FF900049E0F85D
:101B0600A3E0F9A3E0FAA3E04FFFEAFEE9FDE8FC53
:101B1600900049124222900049E0FCA3E0FDA3E0B8
:101B2600FEA3E0FFEC1240F790022312422290023D
:101B360023E0FCA3E0FDA3E0FEA3E0FF12475190E3
:101B460004DF124222900223E0FCA3E0FDA3E0FEA4
:101B5600A3E0FF12475190000AE0F8A3E0F9A3E0E2
:101B6600FAA3E0FB123DE3900006E0F8A3E0F9A338
:101B7600E0FAA3E0FB123FE1900223124222E4FFC7
:101B8600FEFDFC900223E0F8A3E0F9A3E0FAA3E04F
:101B9600FB12407E500A90022312422E00000000E3
:101BA6009005B5E4F0A304F002222A9001C4743A29
:101BB600F0124AD6900212E0FF900536F0900045EA
:101BC600E4F0A3EFF09001C4743BF0124AD6900201
:101BD60012E0FF90053BF0900046E0F8E4F0E89054
:101BE6000045F0E0FEA3E04FFF900045EEF0FEA3B7
:101BF600EFF0FDAC06EC1240FC90023E1242229041
:101C0600000EE0F8A3E0F9A3E0FAA3E0FB90023EA1
:101C1600E0FCA3E0FDA3E0FEA3E0FF123FE190019C
:101C260095124222E49005ADF0900020E07043FF4B
:101C3600FE7D2F7C44900195E0F8A3E0F9A3E0FA3D
:101C4600A3E0FB12407E600840069005AD7401F0EB
:101C5600E4FFFE7D527C44900195E0F8A3E0F9A3F1
:101C6600E0FAA3E0FB12407E600840069005AD74E2
:101C760002F0900020E0B40144E4FFFE7D7A7C444B
:101C8600900195E0F8A3E0F9A3E0FAA3E0FB124087
:101C96007E600840069005AD7401F0E4FFFE7D9677
:101CA6007C44900195E0F8A3E0F9A3E0FAA3E0FBF9
:101CB60012407E600840069005AD7402F090002048
:101CC600E0B40244E4FFFE7DFA7C44900195E0F81E
:101CD600A3E0F9A3E0FAA3E0FB12407E6008400609
:101CE6009005AD7401F0E4FFFE7D167C45900195EC
:101CF600E0F8A3E0F9A3E0FAA3E0FB12407E600857
:101D060040069005AD7402F0900223E0FCA3E0FDCE
:101D1600A3E0FEA3E0FF900257E0F8A3E0F9A3E0FA
:101D2600FAA3E0FB123ED89005A9124222E49005E0
:101D3600AEF0900020E07045FF7EC07D5A7C449056
:101D460005A9E0F8A3E0F9A3E0FAA3E0FB12407EC0
:101D5600600840069005AD7401F07F007E407D83EB
:101D66007C449005A9E0F8A3E0F9A3E0FAA3E0FB20
:101D760012407E600840069005AD7402F090002087
:101D8600E0B401467F007E407D9C7C449005A9E03E
:101D9600F8A3E0F9A3E0FAA3E0FB12407E60084056
:101DA600069005AE7401F07F007E807DBB7C44907A
:101DB60005A9E0F8A3E0F9A3E0FAA3E0FB12407E50
:101DC600600840069005AE7402F0900020E0B40270
:101DD600467F007E407D1C7C459005A9E0F8A3E087
:101DE600F9A3E0FAA3E0FB12407E600840069005E6
:101DF600AE7401F07F007E807D3B7C459005A9E0B6
:101E0600F8A3E0F9A3E0FAA3E0FB12407E600840E5
:101E1600069005AE7402F0E49001C5F09004F7F068
:101E26009001CAF0900206F09005AFF09005ADE083
:101E3600FF64046006A3E0FEB4040E9001C57401BD
:101E4600F09005AF7404F08046EF64036004EEB4CE
:101E5600030E9004F77401F09005AF7403F0802F21
:101E66009005ADE0FF64026006A3E0FEB4020D90AB
:101E760001CA7401F09005AF04F08013EF640160AD
:101E860004EEB4010A9002067401F09005AFF090DA
:101E960005AFE0FF6003B40116900227E07002A3CD
:101EA600E06046900228E024FFF0900227803690FA
:101EB60005AFE0FFB40216900528E07002A3E060CB
:101EC60028900529E024FFF09005288018EFB40338
:101ED6001890021DE07002A3E0600E90021EE0243E
:101EE600FFF090021DE034FFF09005B5E4F0A37416
:101EF60002F002222A9001C47432F0124AD69002ED
:101F060012E0FFE4FCFDFE9000491242229001C45B
:101F16007433F0124AD6900049E0FCA3E0FDA3E03A
:101F2600FEA3E0FF78081241FF900049124222907A
:101F36000212E0FF900049E0F8A3E0F9A3E0FAA35B
:101F4600E04FFFEAFEE9FDE8FC90004912422290CC
:101F560001C47434F0124AD6900049E0FCA3E0FDB7
:101F6600A3E0FEA3E0FF78081241FF900049124269
:101F760022900212E0FF900049E0F8A3E0F9A3E006
:101F8600FAA3E04FFFEAFEE9FDE8FC9000491242A1
:101F960022900049E0FCA3E0FDA3E0FEA3E0FFECF5
:101FA6001240F7900257124222900257E0FCA3E03B
:101FB600FDA3E0FEA3E0FF124751900002E0F8A364
:101FC600E0F9A3E0FAA3E0FB123FE19002571242C8
:101FD60022E4FFFE7D207C41900257E0F8A3E0F961
:101FE600A3E0FAA3E0FB12407E500A900257124289
:101FF6002E000000009005B8E004F070069005B7CA
:10200600E004F09005B5E4F0A37403F002222A90F0
:1020160001C4743EF0124AD6900212E0FFE4FCFDC1
:10202600FE9000491242229001C4743FF0124AD633
:10203600900049E0FCA3E0FDA3E0FEA3E0FF7808E2
:102046001241FF900049124222900212E0FF9000D6
:1020560049E0F8A3E0F9A3E0FAA3E04FFFEAFEE9BE
:10206600FDE8FC9000491242229001C47440F0122F
:102076004AD6900049E0FCA3E0FDA3E0FEA3E0FF02
:1020860078081241FF900049124222900212E0FFA6
:10209600900049E0F8A3E0F9A3E0FAA3E04FFFEAD5
:1020A600FEE9FDE8FC900049124222900049E0FC5E
:1020B600A3E0FDA3E0FEA3E0FFEC1240F790021FB1
:1020C60012422290021FE0FCA3E0FDA3E0FEA3E083
:1020D600FF124751900016E0F8A3E0F9A3E0FAA337
:1020E600E0FB123FE190021F124222E4FFFE7D2038
:1020F6007C4190021FE0F8A3E0F9A3E0FAA3E0FB1D
:1021060012407E500A90021F12422E0000000090DC
:1021160005B5E4F0A37404F002222A9001C47442C7
:10212600F0124AD6900212E0FFE4FCFDFE90004950
:102136001242229001C47443F0124AD6900049E03C
:10214600FCA3E0FDA3E0FEA3E0FF78081241FF90A8
:102156000049124222900212E0FF900049E0F8A3E3
:10216600E0F9A3E0FAA3E04FFFEAFEE9FDE8FC9000
:1021760000491242229001C47444F0124AD69000DB
:1021860049E0FCA3E0FDA3E0FEA3E0FF78081241CE
:10219600FF900049124222900212E0FF900049E0AF
:1021A600F8A3E0F9A3E0FAA3E04FFFEAFEE9FDE8B1
:1021B600FC900049124222900049E0FCA3E0FDA3F6
:1021C600E0FEA3E0FFEC1240F790024E124222908E
:1021D600024EE0FCA3E0FDA3E0FEA3E0FF124751A0
:1021E60090001AE0F8A3E0F9A3E0FAA3E0FB123F9F
:1021F600E190024E124222E4FFFE7D207C419002D5
:102206004EE0F8A3E0F9A3E0FAA3E0FB12407E500B
:102216000A90024E12422E000000009005B5E4F02E
:10222600A37405F0900199E06401600302315BF04C
:10223600900555E07004A3E064DC600302238F90F0
:10224600055DE0C313A3E01390023DF05403FFF0D5
:1022560090019AE06F600302238FFF900554E054CB
:102266003F900587CFF0A3EFF0E024ECF0900587D0
:10227600E034FFF0E4F0A3E0540FF0900561E0FCD9
:10228600A3E0FD900588E025E0FF900587E033FE9A
:1022960074942FF58274023EF583ECF0A3EDF0748E
:1022A600942FF58274023EF583C083C082A3E0D0EA
:1022B60082D083F0A3E4F0900588E025E0FF900546
:1022C60087E033FE74942FF58274023EF583E0FCBA
:1022D600A3E0FD90055FE04CFCA3E04DFD74942F58
:1022E600F58274023EF583ECF0A3EDF0900029E050
:1022F600FCA3E0FD900588E025E0FF900587E0332C
:10230600FE74BD2FF58274023EF583ECF0A3EDF06A
:1023160074BD2FF58274023EF583C083C082A3E0AC
:10232600D082D083F0A3E4F0900588E025E0FF900A
:102336000587E033FE74BD2FF58274023EF583E017
:10234600FCA3E0FD900573E04CFCA3E04DFD74BDDD
:102356002FF58274023EF583ECF0A3EDF090055E56
:10236600E090058730E012E0FEA3E02463F5827476
:10237600053EF5837402F08010E0FEA3E02463F5C9
:102386008274053EF5837401F0900267E0700302E3
:10239600315B9004F6E0FF7E00900553E07003A3E6
:1023A600E06F600302315B900555E06E7003A3E0B9
:1023B6006F600302315B900558E07004A3E064EEA1
:1023C6006003022FB790055FE0FEA3E0FF90055D76
:1023D600E0FCA3E0FD6F7002EC6E6003022FB79085
:1023E600004DF0A37432F0ED64024C703C7F9A7E8F
:1023F600997D097C41900002E0F8A3E0F9A3E0FA98
:10240600A3E0FB12407E6021401F900002E0FCA387
:10241600E0FDA3E0FEA3E0FF7B0A7AD7792378BC30
:10242600123DE790000212422290055DE07004A37F
:10243600E06403703C7F9A7E997D097C419000029E
:10244600E0F8A3E0F9A3E0FAA3E0FB12407E6021E6
:10245600401F900002E0FCA3E0FDA3E0FEA3E0FF26
:102466007BCD7ACC79CC78BD123DE7900002124242
:102476002290055DE07004A3E06404703A7F9A7EC2
:10248600997D397C41900002E0F8A3E0F9A3E0FAD7
:10249600A3E0FB12407E501F900002E0FCA3E0FD8B
:1024A600A3E0FEA3E0FF7B0A7AD77923783C123DAE
:1024B600E790000212422290055DE07004A3E064FA
:1024C60005703A7F9A7E997D397C41900002E0F84A
:1024D600A3E0F9A3E0FAA3E0FB12407E501F9000B0
:1024E60002E0FCA3E0FDA3E0FEA3E0FF7BCD7ACCF7
:1024F60079CC783D123DE790000212422290055DAC
:10250600E07004A3E06442703C7F9A7E997D097C6A
:1025160041900016E0F8A3E0F9A3E0FAA3E0FB126D
:10252600407E6021401F900016E0FCA3E0FDA3E082
:10253600FEA3E0FF7B0A7AD7792378BC123DE790A9
:10254600001612422290055DE07004A3E064437019
:102556003C7F9A7E997D097C41900016E0F8A3E0C5
:10256600F9A3E0FAA3E0FB12407E6021401F900031
:1025760016E0FCA3E0FDA3E0FEA3E0FF7BCD7ACC52
:1025860079CC78BD123DE790001612422290055D87
:10259600E07004A3E06444703A7F9A7E997D397CAA
:1025A60041900016E0F8A3E0F9A3E0FAA3E0FB12DD
:1025B600407E501F900016E0FCA3E0FDA3E0FEA3C2
:1025C600E0FF7B0A7AD77923783C123DE790001624
:1025D60012422290055DE07004A3E06445703A7FE4
:1025E6009A7E997D397C41900016E0F8A3E0F9A324
:1025F600E0FAA3E0FB12407E501F900016E0FCA319
:10260600E0FDA3E0FEA3E0FF7BCD7ACC79CC783D5C
:10261600123DE790001612422290055DE07004A379
:10262600E06452703C7F9A7E997D097C4190001A45
:10263600E0F8A3E0F9A3E0FAA3E0FB12407E6021F4
:10264600401F90001AE0FCA3E0FDA3E0FEA3E0FF1C
:102656007B0A7AD7792378BC123DE790001A12429A
:102666002290055DE07004A3E06453703C7F9A7E7F
:10267600997D097C4190001AE0F8A3E0F9A3E0FAFD
:10268600A3E0FB12407E6021401F90001AE0FCA3ED
:10269600E0FDA3E0FEA3E0FF7BCD7ACC79CC78BD4C
:1026A600123DE790001A12422290055DE07004A3E5
:1026B600E06454703A7F9A7E997D397C4190001A85
:1026C600E0F8A3E0F9A3E0FAA3E0FB12407E501F76
:1026D60090001AE0FCA3E0FDA3E0FEA3E0FF7B0A66
:1026E6007AD77923783C123DE790001A124222905D
:1026F600055DE07004A3E06455703A7F9A7E997D8B
:10270600397C4190001AE0F8A3E0F9A3E0FAA3E0CF
:10271600FB12407E501F90001AE0FCA3E0FDA3E0F0
:10272600FEA3E0FF7BCD7ACC79CC783D123DE790D5
:10273600001A12422290055DE07004A3E064627004
:102746003C7F9A7E997D197C4090000EE0F8A3E0CC
:10275600F9A3E0FAA3E0FB12407E6021401F90003F
:102766000EE0FCA3E0FDA3E0FEA3E0FF7B0A7AD720
:10277600792378BC123DE790000E12422290055D47
:10278600E07004A3E06463703C7F9A7E997D197CB7
:102796004090000EE0F8A3E0F9A3E0FAA3E0FB12F4
:1027A600407E6021401F90000EE0FCA3E0FDA3E008
:1027B600FEA3E0FF7BCD7ACC79CC78BD123DE790C5
:1027C600000E12422290055DE07004A3E06464707E
:1027D6003A7F9A7E997DD97C4090000EE0F8A3E07E
:1027E600F9A3E0FAA3E0FB12407E501F90000EE032
:1027F600FCA3E0FDA3E0FEA3E0FF7B0A7AD77923E2
:10280600783C123DE790000E12422290055DE07082
:1028160004A3E06465703A7F9A7E997DD97C4090E6
:10282600000EE0F8A3E0F9A3E0FAA3E0FB12407E75
:10283600501F90000EE0FCA3E0FDA3E0FEA3E0FF26
:102846007BCD7ACC79CC783D123DE790000E1242D2
:102856002290055DE0FAA3E0FB64214A701490041F
:10286600DFE0FCA3E0FDA3E0FEA3E0FF90000A1278
:102876004222EB64224A703C7F337E337DA97C4240
:10288600900006E0F8A3E0F9A3E0FAA3E0FB12400B
:102896007E6021401F900006E0FCA3E0FDA3E0FE61
:1028A600A3E0FF7BCD7ACC79CC78BD123DE79000D2
:1028B6000612422290055DE07004A3E06423703B9B
:1028C6007F337E337DA97C42900006E0F8A3E0F9D1
:1028D600A3E0FAA3E0FB12407E6020401E900006B3
:1028E600E0FCA3E0FDA3E0FEA3E0FFE4FBFA7980B1
:1028F60078BF123DE790000612422290055DE07017
:1029060004A3E06424703A7F9A7E997D1A7C4390F2
:102916000006E0F8A3E0F9A3E0FAA3E0FB12407E8C
:10292600501F900006E0FCA3E0FDA3E0FEA3E0FF3D
:102936007BCD7ACC79CC783D123DE79000061242E9
:102946002290055DE07004A3E0642570397F9A7ECD
:10295600997D1A7C43900006E0F8A3E0F9A3E0FA1B
:10296600A3E0FB12407E501E900006E0FCA3E0FDB3
:10297600A3E0FEA3E0FFE4FBFA7980783F123DE78F
:1029860090000612422290055DE07004A3E06432D6
:102996007038FFFE7DB47C43900012E0F8A3E0F9A6
:1029A600A3E0FAA3E0FB12407E501F900012E0FC69
:1029B600A3E0FDA3E0FEA3E0FF7BCD7ACC79CC7843
:1029C6003D123DE790001212422290055DE0700430
:1029D600A3E064337037FFFE7DB47C43900012E0C1
:1029E600F8A3E0F9A3E0FAA3E0FB12407E501E90A4
:1029F6000012E0FCA3E0FDA3E0FEA3E0FFE4FBFA87
:102A06007980783F123DE790001212422290055DD0
:102A1600E07004A3E06434703AFFFE7D967C439038
:102A26000012E0F8A3E0F9A3E0FAA3E0FB12407E6F
:102A36006021401F900012E0FCA3E0FDA3E0FEA38E
:102A4600E0FF7BCD7ACC79CC78BD123DE7900012C1
:102A560012422290055DE07004A3E064357039FFF0
:102A6600FE7D967C43900012E0F8A3E0F9A3E0FA1D
:102A7600A3E0FB12407E6020401E900012E0FCA303
:102A8600E0FDA3E0FEA3E0FFE4FBFA798078BF1245
:102A96003DE790001212422290055DE07004A3E02B
:102AA6006472703AFFFE7D207C42900023E0F8A31A
:102AB600E0F9A3E0FAA3E0FB12407E6021401F90FC
:102AC6000023E0FCA3E0FDA3E0FEA3E0FF7B0A7A7F
:102AD600D7792378BC123DE7900023124222900555
:102AE6005DE07004A3E06473703AFFFE7D207C42D3
:102AF600900023E0F8A3E0F9A3E0FAA3E0FB12407C
:102B06007E6021401F900023E0FCA3E0FDA3E0FED1
:102B1600A3E0FF7BCD7ACC79CC78BD123DE790005F
:102B26002312422290055DE07004A3E064747038BD
:102B3600FFFE7DB47C42900023E0F8A3E0F9A3E019
:102B4600FAA3E0FB12407E501F900023E0FCA3E0B6
:102B5600FDA3E0FEA3E0FF7B0A7AD77923783C1237
:102B66003DE790002312422290055DE07004A3E049
:102B760064757038FFFE7DB47C42900023E0F8A3B4
:102B8600E0F9A3E0FAA3E0FB12407E501F90002379
:102B9600E0FCA3E0FDA3E0FEA3E0FF7BCD7ACC79C9
:102BA600CC783D123DE790002312422290055DE06D
:102BB600FEA3E0FF64824E7010900028E0FD9000B6
:102BC60027E0C39D5003E004F0EF64834E7013903A
:102BD6000028E024F7FF900027E0C39F5004E0247C
:102BE6000AF090055DE07004A3E06484700C900028
:102BF60027E0D394284003E014F090055DE0FEA39F
:102C0600E0FF64854E700D900027E0D394314004B8
:102C1600E024F6F0EF64924E700C900028E0C39426
:102C2600485003E004F090055DE07004A3E064936F
:102C3600700D900028E0C3943F5004E0240AF09001
:102C4600055DE0FEA3E0FF64944E700E900027E061
:102C5600FDA3E0D39D4003E014F0EF64954E701B96
:102C6600900027E02409FFE433FEA3E0D39FEE643F
:102C760080F87480984004E024F6F090055DE0FE4C
:102C8600A3E0FF54F064A06003022D8AEF64A24E15
:102C9600701090001FE0FF90001EE0C39F5003E0FD
:102CA60004F090055DE07004A3E064A37013900047
:102CB6001FE024F6FF90001EE0C39F5004E0240AA4
:102CC600F090055DE0FEA3E0FF64A44E700C90005A
:102CD6001EE0D394964003E014F0EF64A54E700D09
:102CE60090001EE0D394A04004E024F6F090001E6D
:102CF600E0FCE412410190017212422290001FE0B2
:102D0600FCE4124101900182124222900172E0F825
:102D1600A3E0F9A3E0FAA3E0FB900182E0FCA3E0C4
:102D2600FDA3E0FEA3E0FF123DE3E4FBFA79207881
:102D360041123FE190050D12422290050DE0F8A3E5
:102D4600E0F9A3E0FAA3E0FB900182E0FCA3E0FD3A
:102D5600A3E0FEA3E0FF123DE39001891242229018
:102D6600050DE0FCA3E0FDA3E0FEA3E0FF900172E9
:102D7600E0F8A3E0F9A3E0FAA3E0FB123DE7900137
:102D86007D12422290055DE0FEA3E0FF54F064B0A0
:102D96006003022E99EF64B24E700C90001FE0C3E0
:102DA60094FF5003E004F090055DE07004A3E06436
:102DB600B3700D90001FE0C394F65004E0240AF0AF
:102DC60090055DE0FEA3E0FF64B44E700E90001E19
:102DD600E0FDA3E0D39D4003E014F0EF64B54E7030
:102DE6001B90001EE0240AFFE433FEA3E0D39FEE0F
:102DF6006480F87480984004E024F6F090001EE0A9
:102E0600FCE412410190017212422290001FE0FC84
:102E1600E4124101900182124222900172E0F8A36D
:102E2600E0F9A3E0FAA3E0FB900182E0FCA3E0FD59
:102E3600A3E0FEA3E0FF123DE3E4FBFA792078412C
:102E4600123FE190050D12422290050DE0F8A3E035
:102E5600F9A3E0FAA3E0FB900182E0FCA3E0FDA366
:102E6600E0FEA3E0FF123DE39001891242229005A5
:102E76000DE0FCA3E0FDA3E0FEA3E0FF900172E0FD
:102E8600F8A3E0F9A3E0FAA3E0FB123DE790017D89
:102E960012422290055EE054F064C0703F9005B087
:102EA600F0900212F09001C4740AF0124A77124AA6
:102EB6006890055DE0FEA3E0FF64C24E700C9000D2
:102EC60020E0C394025003E004F0EF64C44E700C9B
:102ED600900020E0D394004003E014F090055EE0FB
:102EE60054F064D070739005B0F0900212F0900127
:102EF600C4740AF0124A77124A6890055DE07004BD
:102F0600A3E064D27023900021E0B401037403F0BF
:102F1600900021E0700204F0900021E0900212F08F
:102F26009001C47468F0124A7790055DE07004A3BE
:102F3600E064D47024900021E0B40102E4F0900033
:102F460021E0B403037401F0900021E0900212F036
:102F56009001C47468F0124A7790055EE054F064FC
:102F6600E070309005B0F0900212F09001C4740A3F
:102F7600F0124A77124A6890055DE0FEA3E0FF640E
:102F8600E24E700590002204F0EF64E44E70049067
:102F96000022F090055EE054F064F070149005B0E5
:102FA600F0900212F09001C4740AF0124A77124AA5
:102FB60068900558E07004A3E064ED6003023109EF
:102FC600900535E060030230A0900288E0600302BD
:102FD60030A0900256E060030230A0FFFE7D487CE0
:102FE60043A3E0F8A3E0F9A3E0FAA3E0FB12407ED6
:102FF600500D9004F9E06405600DE004F08008903F
:1030060004F9E0600214F0E4FFFE7D707C43900258
:1030160057E0F8A3E0F9A3E0FAA3E0FB12407E60D4
:103026000F400D90003CE06405600DE004F0800860
:1030360090003CE0600214F090003CE0FFB4050212
:10304600D203EF7002C2039004F9E0FFB40502D286
:1030560004EF7002C204E4FFFE7D8C7C4290025DA8
:10306600E0F8A3E0F9A3E0FAA3E0FB12407E6006D5
:103076004004D2028002C202E4FFFE7DA07C4290A0
:10308600025DE0F8A3E0F9A3E0FAA3E0FB12407EBC
:1030960060064004D2018002C201900039E0FF249C
:1030A600CCF582E43401F5837401F0EF64316008F5
:1030B600900039E004F08005E4900039F090003982
:1030C600E0FF24CCF582E43401F5837402F0EF646A
:1030D600316008900039E004F08005E4900039F092
:1030E600900039E0FF24CCF582E43401F5837405C1
:1030F600F0EF64316008900039E004F08005E49058
:103106000039F0900558E07004A3E064FD70469025
:103116000039E0FF24CCF582E43401F5837404F031
:10312600EF64316008900039E004F08005E4900017
:1031360039F0900039E0FF24CCF582E43401F583C0
:103146007406F0EF64316008900039E004F0800501
:10315600E4900039F090004DE07004A3E064017043
:103166000A124986E490004DF0A3F0900236E06022
:1031760028900039E0FF24CCF582E43401F583740D
:1031860003F0EF64316008900039E004F08005E454
:10319600900039F0E4900236F0900524E0606E90DD
:1031A6000039E0FF24CCF582E43401F5837401F0A4
:1031B600EF64316008900039E004F08005E4900087
:1031C60039F0900039E0FF24CCF582E43401F58330
:1031D6007402F0EF64316008900039E004F0800575
:1031E600E4900039F0900039E0FF24CCF582E43415
:1031F60001F5837405F0EF64316008900039E0044E
:10320600F08005E4900039F0E4900524F09002384F
:10321600E070030207739001B5E06005E4F0124721
:10322600F7E4900238F0900039E0FF900033E0FEBA
:103236006F700302077374CC2EF582E43401F583B4
:10324600E024FE700302336D14700302348D147093
:1032560003023C14147003023C5F147003023D8B9E
:1032660024056003023DCA9004F6E0444090019BA9
:10327600F09001A174DDF0E4FFFE7D207C41900218
:1032860023E0F8A3E0F9A3E0FAA3E0FB123ED8128C
:1032960041359004E4EFF09001A2F0E4FFFE7D20BA
:1032A6007C41900223E0F8A3E0F9A3E0FAA3E0FB57
:1032B600123ED8E4FBFA79807843123FE112413599
:1032C6009001CBEFF09001AAF0900195E0FCA3E00D
:1032D600FDA3E0FEA3E0FF124135900045EEF0A30A
:1032E600EFF0900045E0FCA3E0FDECFF3395E090A5
:1032F600020DEFF0AE05900501EEF09001ACF090F6
:1033060001B2EFF0E4FFFE7D207C41900257E0F829
:10331600A3E0F9A3E0FAA3E0FB123ED812413590F0
:1033260002BAEFF09001B4F0E4FFFE7D207C4190FC
:103336000257E0F8A3E0F9A3E0FAA3E0FB123ED8B7
:10334600E4FBFA79807843123FE11241359001B3EC
:10335600EFF09001BCF09001B5E07003023DC7E4C8
:10336600F01247F7023DC79004F6E0444090019BF7
:10337600F09001A174DEF0E4FFFEFDFC90025DE03A
:10338600F8A3E0F9A3E0FAA3E0FB12407E5007E4BD
:1033960090022DF0801690025DE0FCA3E0FDA3E014
:1033A600FEA3E0FF12413590022DEFF090025DE0A2
:1033B600FCA3E0FDA3E0FEA3E0FF1241359001A2CD
:1033C600EFF0900038E0B40104D2058002C2059007
:1033D60001AAE520F0E4FFFE7D207C4190024EE04C
:1033E600F8A3E0F9A3E0FAA3E0FB123ED8124135B8
:1033F6009002BAEFF09001ACF0E4FFFE7D207C4134
:1034060090024EE0F8A3E0F9A3E0FAA3E0FB123E37
:10341600D8E4FBFA79807843123FE11241359001F6
:10342600B3EFF09001B2F0E4FFFE7D207C41900204
:103436001FE0F8A3E0F9A3E0FAA3E0FB123ED812DE
:1034460041359002BAEFF09001B4F0E4FFFE7D2022
:103456007C4190021FE0F8A3E0F9A3E0FAA3E0FBA9
:10346600123ED8E4FBFA79807843123FE1124135E7
:103476009001B3EFF09001BCF09001B5E06005E477
:10348600F01247F7023DC79004F6E0444090019BD6
:10349600F09001A174DCF09001C47466F0124AD673
:1034A600900212E0B401089001A27401F08005E4D4
:1034B6009001A2F090019AE025E09001AAF0900117
:1034C60095E0FCA3E0FDA3E0FEA3E0FF12413590EA
:1034D600058DEEF0A3EFF0900045EEF0A3EFF0902F
:1034E6000045E0FCA3E0FDECFF3395E090020DEF14
:1034F600F0AE05900501EEF09001ACF09001B2EF50
:10350600F09001B5E0640160067401F01247F7908F
:103516000038E064017054FFFE7D207C4190025724
:10352600E0F8A3E0F9A3E0FAA3E0FB123ED81241CB
:10353600359002BAEFF09001B4F0E4FFFE7D207CF6
:1035460041900257E0F8A3E0F9A3E0FAA3E0FB12EA
:103556003ED8E4FBFA79807843123FE11241359078
:1035660001B3EFF09001BCF012491D90058AE0040A
:10357600F07006900589E004F0900589E07004A3D8
:10358600E064026003023DCA900589F0A3F090044E
:10359600F6E0FF244FF582E43405F5837401F090DC
:1035A600058DE0FCA3E0FDEF25E0246CF582E43414
:1035B60002F583ECF0A3EDF0E4FFFE7D207C419064
:1035C6000257E0F8A3E0F9A3E0FAA3E0FB123ED825
:1035D6001241359004F6E025E02495F582E43402A4
:1035E600F583EEF0A3EFF090059312422E00000053
:1035F60000E490058BF0A3F09005A1F0900591F002
:10360600A3F090059712422E0000000090059B1231
:10361600422E00000000E4900587F0A3F090058795
:10362600E0FEA3E0FFC39410EE64809480400302A2
:10363600376174632FF58274053EF583E06401609B
:10364600030236E190058CE004F0700690058BE0ED
:1036560004F0900593E0F8A3E0F9A3E0FAA3E0FBF9
:10366600900588E025E0FF900587E033FE74942FEF
:10367600F58274023EF583E0FEA3E0FFEE3395E0AB
:10368600FDFCEB2FFFEA3EFEE93DFDE83CFC900524
:1036960093124222900597E0F8A3E0F9A3E0FAA37B
:1036A600E0FBC000C001C002C003900588E025E031
:1036B600FF900587E033FE74BD2FF58274023EF558
:1036C60083E0FCA3E0FDEC1240FCD003D002D00165
:1036D600D000123DE7900597124222900587E0FE42
:1036E600A3E02463F58274053EF583E0B4025B90A3
:1036F6000592E004F07006900591E004F09005A1B3
:103706007401F090059BE0F8A3E0F9A3E0FAA3E0CA
:10371600FBC000C001C002C003900588E025E0FFA1
:10372600900587E033FE74BD2FF58274023EF58363
:10373600E0FCA3E0FDEC1240FCD003D002D001D0A7
:1037460000123DE790059B124222900588E004F0A6
:103756007006900587E004F0023623900593E0FC9E
:10376600A3E0FDA3E0FEA3E0FFC006C00790058B23
:10377600E0FEA3E0FBAA06EA3395E0F9F8D007D00D
:10378600061249E590059312422290058BE0FCA3B0
:10379600E0FDEC1240FCA804A905AA06AB079005BB
:1037A60097E0FCA3E0FDA3E0FEA3E0FF123FE1E407
:1037B600FBFA79207841123FE19005971242229058
:1037C60005A1E06045E4FBFA7920784190059BE08D
:1037D600FCA3E0FDA3E0FEA3E0FF123FE1C004C0AE
:1037E60005C006C007900591E0FCA3E0FDEC124081
:1037F600FCA804A905AA06AB07D007D006D005D0B9
:1038060004123FE19005971242229005A1E060095B
:1038160090052EE4F0A3741EF0900593A3A3E0FF99
:10382600A3E090058FCFF0A3EFF0900038E064019D
:103836006003023AAA9005A5E0FEA3E0FFE4FCFDC2
:1038460090057912422290058FE0FEA3E0FF9005D5
:103856008DE0FCA3E0FDC39FEE6480F8EC648098E5
:10386600500990059F7401F0E4A3F0D3ED9FEE6438
:1038760080F8EC6480984008E490059FF0A304F07B
:1038860090059FE0606590057DE4F0A304F0E47F79
:103896006C7EE8FDFC900579E0F8A3E0F9A3E0FA78
:1038A600A3E0FBC31241D65042900579E0F890059B
:1038B6007FE0FEA3E0FFEE3395E0FDFCEB2FFFEA91
:1038C6003EFEE93DFDE83CFC900579124222C3909C
:1038D6000580E0941490057FE064809480500CA3EA
:1038E600E004F0700690057FE004F09005A0E0602B
:1038F6007790057FE4F0A304F0E47FE47ED4FDFC3A
:10390600900579E0F8A3E0F9A3E0FAA3E0FBD3126F
:1039160041D64054900579E0FCA3E0FDA3E0FEA368
:10392600E0FFC006C007A3E0FEA3E0FBAA06EA3359
:1039360095E0F9F8D007D006C3EF9BFFEE9AFEEDAF
:1039460099FDEC98FC900579124222C390057EE021
:10395600941490057DE064809480500CA3E004F0FC
:10396600700690057DE004F0900579A3A3E0FFA31F
:10397600E09005A5CFF0A3EFF090052EE0FEA3E0C2
:10398600FF4E6009EF641E4E6003023BBEE4FFFE7D
:103996007D487C43900597E0F8A3E0F9A3E0FAA3FD
:1039A600E0FB12407E60025003023BBE900597E0AA
:1039B600F8A3E0F9A3E0FAA3E0FBE4FFFE7D5C7C5C
:1039C60043123FE11247519000411242227FEE7EA0
:1039D6007C7D7F7C3F900041E0F8A3E0F9A3E0FA0C
:1039E600A3E0FB12407E500A90004112422E3F7F18
:1039F6007CEE7F897E417D807C3F900041E0F8A38C
:103A0600E0F9A3E0FAA3E0FB12407E600C400A90C6
:103A1600004112422E3F8041899005A5E0FCA3E0BB
:103A2600FDE41240FC900041E0F8A3E0F9A3E0FABF
:103A3600A3E0FB123ED89000411242227F007E6C2A
:103A46007D687C47900041E0F8A3E0F9A3E0FAA383
:103A5600E0FB12407E600C400A90004112422E4765
:103A6600686C007F007EE47D547C47900041E0F85E
:103A7600A3E0F9A3E0FAA3E0FB12407E500A90000F
:103A86004112422E4754E400900041E0FCA3E0FDC1
:103A9600A3E0FEA3E0FF1241359005A5EEF0A3EFEB
:103AA600F0023BBEE4FFFE7D487C43900257E0F8FF
:103AB600A3E0F9A3E0FAA3E0FB12407E6002500304
:103AC600023BBE900257E0F8A3E0F9A3E0FAA3E0B8
:103AD600FBE4FFFE7D5C7C43123FE1124751900000
:103AE600411242227F527EB87D7E7C3F900041E0AB
:103AF600F8A3E0F9A3E0FAA3E0FB12407E500A9097
:103B0600004112422E3F7EB8527FD77EA37D807C35
:103B16003F900041E0F8A3E0F9A3E0FAA3E0FB122E
:103B2600407E600C400A90004112422E3F80A3D78F
:103B36009005A5E0FCA3E0FDE41240FC900041E006
:103B4600F8A3E0F9A3E0FAA3E0FB123ED890004107
:103B56001242227F007E6C7D687C47900041E0F82F
:103B6600A3E0F9A3E0FAA3E0FB12407E600C400A52
:103B760090004112422E47686C007F007EE47D541F
:103B86007C47900041E0F8A3E0F9A3E0FAA3E0FB4C
:103B960012407E500A90004112422E4754E4009093
:103BA6000041E0FCA3E0FDA3E0FEA3E0FF124135E7
:103BB6009005A5EEF0A3EFF09005A5E0900212F0B7
:103BC600E4124A739005A5A3E0900212F09001C496
:103BD6007401F0124A77E4900587F0A3F090058708
:103BE600E0FEA3E0FFC39410EE64809480400302DD
:103BF6003DCA74632FF58274053EF583E4F09005A3
:103C060088E004F070D7900587E004F080CF900438
:103C1600F6E0444090019BF09001A174DFF0900023
:103C26001EE09001A2F090001FE09001AAF0900023
:103C360020E09001ACF0900021E09001B2F09000FD
:103C460022E09001B4F0E49001BCF09001B5E06090
:103C560005E4F01247F7023DC79004F6E0444090B1
:103C6600019BF09001A174DAF0E4FFFE7D207C4117
:103C7600900275E0F8A3E0F9A3E0FAA3E0FB123E98
:103C8600D81241359002BAEFF09001A2F0E4FFFE9F
:103C96007D207C41900275E0F8A3E0F9A3E0FAA349
:103CA600E0FB123ED8E4FBFA79807843123FE1123A
:103CB60041359001B3EFF09001AAF0E49001ACF029
:103CC600900027E0FCE4124101900275E0F8A3E0C1
:103CD600F9A3E0FAA3E0FB12407E50079001ACE0A6
:103CE6004401F07F007E807D3B7C459005A9E0F88D
:103CF600A3E0F9A3E0FAA3E0FB12407E6023402193
:103D0600E4FFFE7D617C459005A9E0F8A3E0F9A3F8
:103D1600E0FAA3E0FB12407E50079001ACE04402BB
:103D2600F0E4FFFE7D617C459005A9E0F8A3E0F98B
:103D3600A3E0FAA3E0FB12407E600940079001ACC5
:103D4600E04404F09001ADE060079001ACE044204F
:103D5600F0900540E060079001ACE04440F090052B
:103D66002DE060079001ACE04480F0E49001B2F0F1
:103D76009001B4F09001BCF09001B5E06005E4F06C
:103D86001247F7803C9004F6E0444090019BF09087
:103D960001A174DBF0900027E09001A2F0900028CA
:103DA600E09001AAF0E49001ACF09001B2F090012D
:103DB600B4F09001BCF09001B5E06005E4F0124764
:103DC600F712491D900033E064316006E004F0020A
:0A3DD6000773E4900033F002077356
:10002E009005BBE5A7F075A70F43A1C775EF04E0D8
:10003E00F5A775A70F43800C759F66E49005B9F080
:10004E00A3F09005BAE004F070069005B9E004F054
:10005E009005B9E0B40BEBA3E0B4B8E6E59F30E74A
:0A006E00FB758F0175A1C6E4F5A72C
:010078002265
:100003009005BCE5A7F075A70F75981075ADFB7546
:10001300AC8043AB0343AB40D299758810E0F5A79E
:0100230022BA
:104B33009005B9E5A7F075A70F75D43F75F1F0752A
:104B4300A4507580FF75D51E75F2E175A5E17590CA
:0D4B53001F75E10275E20275C7C0E0F5A70D
:014B60002232
:1047F7009005BAE5A7F075A70C43C00143C04E75F5
:104807009B44759ADF75C30075C2F0E4F5C5F5C41E
:10481700F5C7F5C6F5CBF5CA9001B5E0FF7006758B
:10482700CDA675CC38EFB4010675CDA275CC7875D9
:10483700D30075D288E4F5BFF5BEE5BF20E7FB7569
:10484700C30075C2F0E4F5C5F5C4F5C7F5C6F5CBE9
:10485700F5CA9001B5E0FF700675CD8275CC78EF8B
:10486700B4010675CD8675CC3875D31475D28875A5
:10487700BF0075BE01E5BF20E7FB53C0BE43E7029B
:0948870075F7029005BAE0F5A7EF
:014890002205
:10491D009005B9E5A7F075A70CE5A345A5FEE5A2A1
:10492D0045A44E60031247F7E5A345A5FEE5A24554
:10493D00A44E70F490019BE0F5D49001A1E0F5D563
:10494D00A3E0F5D69001AAE0F5D79001ACE0F5DA39
:10495D009001B2E0F5DB9001B4E0F5DC9001BCE034
:10496D00F5DD75C30075C287E4F5BFF5BEE5BF2063
:08497D00E7FB9005B9E0F5A786
:01498500220F
:03008300024666CC
:10466600C0E0C083C082C0D075D000C005C006C0FF
:01467600073C
:10467700900575E594F0AF9CA3EFF0E0FFB4010659
:1046870075C30075C27FEF7005F5C375C20875BFA6
:10469700008FBEE5BF20E7FB900575E0FF30E471B2
:1046A700A3E0FE6401706AEEFD900187E4F0A3EDDC
:1046B700F0AED4EEFD900553E4F0A3EDF0AED5EEE9
:1046C700FDA3E4F0A3EDF0AED6EEFD900558E4F0BF
:1046D700A3EDF0AED7EEFD90055DE4F0A3EDF0AEEF
:1046E700DAEEFDA3E4F0A3EDF0AEDBEEFDA3E4F01C
:1046F700A3EDF0AEDCEEFD900573E4F0A3EDF0AEB4
:10470700DDEEFD900029E4F0A3EDF090019974012E
:10471700F0900576E0B42002E4F0EF5407600664F9
:10472700076002D208900575E030E702D2089005CD
:0747370075E030E602D20834
:0F473E00D007D006D005D0D0D082D083D0E032C3
:104B61009005B9E5A7F0E4F5A7F5E875D12B75BC7B
:064B710030D2EFE0F5A7D1
:014B7700221B
:104B03009005B9E5A7F0E4F5A7F5C8438E10900228
:104B130005E024CBFF900204E034D4F5CB8FCA74B4
:0F4B2300FFF5CDF5CCD2ADD2CA9005B9E0F5A71C
:014B32002260
:03002B0002432D60
:10432D00C0E0C083C082C0D075D000C007C2CF909E
:10433D0004F5E004F0E064327028F090023804F0E7
:10434D00900237E004F0E0B40507E4F09002360483
:10435D00F0900525E004F0E0B41407E4F090052496
:10436D0004F0900286E004F07006900285E004F0FF
:10437D00900285E07004A3E064C8600302465B9080
:10438D00052AE07002A3E0600E90052BE024FFF0FB
:10439D0090052AE034FFF090050BE07002A3E06079
:1043AD000E90050CE024FFF090050BE034FFF0D3E8
:1043BD0090004EE0940190004DE064809480400C9C
:1043CD00A3E024FFF090004DE034FFF0900285E46F
:1043DD00F0A3F0900190E004F0E0B43202E4F0902C
:1043ED000206E0FF600B900190E070059001AD04B6
:1043FD00F0EF600C900190E0B402059001ADE4F097
:10440D0090018DE004F0E0B41E02E4F0900534E07C
:10441D0014600F14601414602514603E240470623F
:10442D00805B9005407401F0805890018DE0FF3065
:10443D00E0069005407401F0EF20E046803F9001CA
:10444D008DE0FF6003B404069005407401F0EF6445
:10445D00026005EF6406702A802390018DE0FF60F5
:10446D000864046004EFB408069005407401F0EF91
:10447D0064026009EF64066004EFB40A059005401C
:10448D00E4F0900181E004F0E0640A6003024582EB
:10449D00F09001CAE0600E900228E004F0700690E2
:1044AD000227E004F09004F7E0601C900228E0047D
:1044BD00F07006900227E004F0900529E004F070FA
:1044CD0006900528E004F09001C5E0602A900228CE
:1044DD00E004F07006900227E004F0900529E00456
:1044ED00F07006900528E004F090021EE004F070D4
:1044FD000690021DE004F0C390021EE094049002A9
:10450D001DE06480948040199002567401F0900271
:10451D0027E4F0A3F0900528F0A3F090021DF0A37E
:10452D00F0C3900529E09414900528E064809480F0
:10453D0040199002567401F0900227E4F0A3F09018
:10454D000528F0A3F090021DF0A3F0C3900228E01F
:10455D00943C900227E06480948040199002567438
:10456D0001F0900227E4F0A3F0900528F0A3F0905D
:10457D00021DF0A3F09001CAE0FF6014900181E0EC
:10458D00700E9001AD04F090052DF0900506E4F04D
:10459D00EF600C900181E0B402059001ADE4F09064
:1045AD00027DE004F0E0B40502E4F09004F7E0FFD2
:1045BD00601490027DE0700E9001AD04F090052D19
:1045CD00F0900506E4F0EF600C90027DE0B402057A
:1045DD009001ADE4F09001C5E0FF600F9001AD7466
:1045ED0001F090052DF0900506E4F090052DE0B456
:1045FD00010F900506E004F0E0B4030590052DE4ED
:10460D00F0900206E070479001CAE070419004F707
:10461D00E0703BEF703890052DF0900194E060084C
:10462D009001AD7401F08026900193E0601B900124
:10463D008DE0FF6003B404069001AD7401F0EF64EA
:10464D00026006EFB4060780009001ADE4F0D007DC
:09465D00D0D0D082D083D0E0322D
:1049860090027B7478F0A37400F0124A2990027B9F
:104996007478F0A37400F0E49005B9F0A3F09005E4
:1049A600B9E0FEA3E0FFC3EE648094825030740049
:1049B6002FF58274003EF583E0900273F0124A9E52
:1049C60090027CE004F0700690027BE004F0900513
:0E49D600BAE004F070C89005B9E004F080C0AB
:0149E40022B0
:104A2900A2AF92099005BBE5A7F0E4F5A7C2AF755F
:104A3900FFA075EF0290027BE0FEA3E0F5828E8372
:104A490075B7A575B7F1438F0375FFA075EF02E43C
:0E4A5900F0538FFCA20992AF9005BBE0F5A7C9
:014A6700222C
:104A9E00A2AF9209C2AF75FFA075EF0290027BE044
:104AAE00FEA3E0FF75B7A575B7F1438F0175FFA0A3
:104ABE0075EF02900273E08F828E83F0538FFEA209
:034ACE000992AF9B
:014AD10022C2
:0F4A6800E49005B1F0900212F0740B9001C4F0CD
:104A77009005B9E5A7F075A70F75A6FF9001C4E0EB
:104A8700F5A0C295D295C297900212E0F5A0D297F1
:064A97009005B9E0F5A74F
:014A9D0022F6
:044AD2009001C4F09B
:104AD6009005B9E5A7F075A70F75A6FF9001C4E08C
:104AE600F5A0C295D295E4F5A675A0FFC2969002F0
:0C4AF60012E5A0F0D2969005B9E0F5A7FB
:014B02002290
:103DE0000241A1E86480F8E933E83360110460F02F
:103DF000ED33EC337009E8FCE9FDEAFEEBFF220449
:103E000060DED3EB9FEA9EE99DE8C2E78CF0C2F743
:103E100095F0400CE8CCF8E9CDF9EACEFAEBCFFB0F
:103E200012416C85D0F05804700320D5B3E80470BB
:103E3000075002B2D50241AB92D5EC0460F7E4CC56
:103E4000C0E0C398F8603B94186008400DD0E0FBD8
:103E5000024183E4FBFAC9FC8028E830E406E4C9A7
:103E6000FBE4CAFCE830E305E4C9CACBFCE854072C
:103E70006010F8C3E913F9EA13FAEB13FBEC13FC37
:103E8000D8F130F52FC3E49CFCEF9BFFEE9AFEEDDA
:103E900099FDD0E0FBEF4E4D4C701222DB03024146
:103EA000A8EC2CFCEF33FFEE33FEED33FDED30E7F5
:103EB000EB024183EF2BFFEE3AFEED39FDD0E0FB44
:103EC00050130BBB00030241ABED13FDEE13FEEFED
:083ED00013FFEC13FC02418317
:103ED800EC4D6011E8497017ED33EC3304600DE4E4
:103EE800FCFFFEFD22E933E8330470F80241A11219
:103EF800416C58046009E4CC24815006285009021A
:103F080041AB2840030241A8C0E0EB4A7044B980A5
:103F180006D0E0FB024197EF4E701CBD8008EBFF16
:103F2800EAFEE9FD80EBE98DF0A4FEE5F0023FC171
:103F3800E9CDF9EAFEEBFFEF89F0A4FCE5F0CE89C4
:103F4800F0A42EFFE435F0CD89F0A42DFEE435F081
:103F58008067EF4E7005BD80D780C3EF8BF0A4ACAF
:103F6800F0EE8BF0A42CFCE435F0F8EF8AF0A42CEA
:103F7800E5F038FCE433CB8DF0A42CFCE5F03BF8FD
:103F8800EE8AF0A42CFCE5F038F8E433CF89F0A4ED
:103F98002CFCE5F038CF3400CE89F0A42FFFE5F0F3
:103FA8003EFEE433C98DF0A42EFEE5F039CD8AF04B
:103FB800A42FFFE5F03EFEE43DFD33D0E0FB5007C3
:103FC8000BBB000F0241ABEC2CFCEF33FFEE33FED2
:063FD800ED33FD02418300
:103FDE000241ABEC5D046005E8590470030241A197
:103FEE0012416C580460F6EC4860F2EC7004FDFE71
:103FFE00FF22C860DB2481C85009C39860025006B6
:10400E000241A89850CAF582E9294B4A7005AB8245
:10401E0002419775F0007C1A7880C3EF9BEE9AED03
:10402E0099400DC3EF9BFFEE9AFEED99FDE842F02D
:10403E00DC23ACF0D0E0FFD0E0FED0E0FDAB822080
:10404E00E7101BEB60BAEC2CFCEF33FFEE33FEED0A
:10405E0033FD024183E803F830E705C0F075F00048
:10406E00EF2FFFEE33FEED33FD40B830E7C280AAEE
:10407E0074F8CC6480CCC86480C8F58204604FC3E9
:10408E00EB9FF5F0EA9E42F0E99D42F0E89C45F088
:10409E00603C501DE5825FFFE582D313CB5BCBF412
:1040AE002B5582FB50280ABA002409B9002008803B
:1040BE001DE5825BFBE582D313CF5FCFF4C3132FD5
:1040CE005582FF50090EBE00050DBD00010CC3EB5D
:1040DE009FF5F0EA9E42F0E99D42F0E89C45F060C3
:0940EE0007CC4820E701B3EC22E5
:1040F70075F020800E75F010800575F0087D007E44
:10410700007F003392D530D5031241C8EC334010FD
:10411700EF33FFEE33FEED33FDEC33FCD5F0ED224C
:0E412700E5F0247EA2D513CC92E7CDCEFF2288
:10413500EDD2E7CD33EC3392D524814006E4FFFE82
:10414500FDFC22FCE4CFCECDCC24E0501174FF80E1
:10415500EDC3CC13CCCD13CDCE13CECF13CF04707E
:07416500F030D5DE0241C875
:10474D000241A122EDA2E7D2E7F9EC3340F260F38A
:10475D00B4FF08ED547F70E80241ABF82481C2E04C
:10476D00C0E0F40428FAC313FCED92E7FD8C088D2C
:10477D00098E0A8F0BEEA2E7E9BA7F02C31334004C
:10478D009400FA75F091A4E5F013F494FE8AF0A468
:10479D0033E5F033248CD313FDE492E7FE7F007CE8
:1047AD003F758302ECC0E0F8EDC0E0F9EEC0E0FA31
:1047BD00EFC0E0FBAC08AD09AE0AAF0B123FE1D084
:1047CD00E0FBD0E0FAD0E0F9D0E0F8123DE7ED647F
:1047DD0080FD30E7011CD583CBED33CC33F8D0E031
:0A47ED00A2E71328C313CC13FD222A
:10416C00E9D2E7C933E833F892D5EDD2E7CD33EC99
:07417C0033FC5002B2D52212
:10418300EC30E7100FBF000C0EBE00080DBD00049D
:104193000BEB6014A2D5EB13FCED92E7FD2274FF49
:1041A300FCFDFEFF22E480F8A2D574FF13FC7D80A2
:0341B300E480EFB6
:0300000002489122
:0C489100787FE4F6D8FD7581210248D83C
:1041B600EF8DF0A4A8F0CF8CF0A428CE8DF0A42E1D
:0241C600FE22D7
:1049E500C2D5E830E70FB2D5E4C39BFBE49AFAE4FD
:1049F50099F9E498F8EC30E717B2D5124A1B124240
:104A05009BE4C39BFBE49AFAE499F9E498F88003E4
:104A150012429B30D50DE4C39FFFE49EFEE49DFD4D
:044A2500E49CFC22EF
:0E41C800C3E49FFFE49EFEE49DFDE49CFC2208
:1041D600EB9FF5F0EA9E42F0E99D42F0EC6480C860
:0641E60064809845F02200
:1041EC00E8600FECC313FCED13FDEE13FEEF13FFB1
:0341FC00D8F122D5
:1041FF00E8600FEFC333FFEE33FEED33FDEC33FC1E
:03420F00D8F122C1
:10421200E493FC740193FD740293FE740393FF22F2
:0C422200ECF0A3EDF0A3EEF0A3EFF0220F
:10422E00A8828583F0D083D0821242451242451275
:10423E004245124245E473E493A3C583C5F0C5839A
:10424E00C8C582C8F0A3C583C5F0C583C8C582C8DA
:01425E00223D
:10489D00020086E493A3F8E493A34003F68001F2AB
:1048AD0008DFF48029E493A3F85407240CC8C3331C
:1048BD00C4540F4420C8834004F456800146F6DFEB
:1048CD00E4800B0102040810204080900024E47E57
:1048DD00019360BCA3FF543F30E509541FFEE493E0
:1048ED00A360010ECF54C025E060A840B8E493A3A7
:1048FD00FAE493A3F8E493A3C8C582C8CAC583CAD2
:10490D00F0A3C8C582C8CAC583CADFE9DEE780BE89
:0100260000D9
:10425F0075F008758200EF2FFFEE33FECD33CDCC16
:10426F0033CCC58233C5829BED9AEC99E582984099
:10427F000CF582EE9BFEED9AFDEC99FC0FD5F0D676
:10428F00E4CEFBE4CDFAE4CCF9A88222B800C1B9A0
:10429F000059BA002DEC8BF084CFCECDFCE5F0CBDE
:1042AF00F97818EF2FFFEE33FEED33FDEC33FCEB17
:1042BF0033FB10D703994004EB99FB0FD8E5E4F9D2
:1042CF00FA227818EF2FFFEE33FEED33FDEC33FCBF
:1042DF00C933C910D7059BE99A4007EC9BFCE99AB3
:1042EF00F90FD8E0E4C9FAE4CCFB2275F010EF2FF8
:1042FF00FFEE33FEED33FDCC33CCC833C810D707F8
:10430F009BEC9AE899400AED9BFDEC9AFCE899F832
:0E431F000FD5F0DAE4CDFBE4CCFAE4C8F922C5
:00000001FF
