:020000040000FA
:10000000F0420010E1000000E5000000E700000001
:10001000E9000000EB000000ED000000000000001F
:10002000000000000000000000000000EF000000E1
:10003000F100000000000000F30000002D090000A6
:10004000F7000000F7000000F7000000F7000000D4
:10005000F7000000F7000000F7000000F7000000C4
:10006000F7000000F7000000F7000000F7000000B4
:10007000F7000000F7000000F7000000F7000000A4
:10008000F7000000F7000000F7000000F700000094
:10009000F7000000F7000000ED080000F700000086
:1000A000F7000000ABCD0000F7000000F7000000F3
:1000B0005FDF0000F7000000F7000000F70000001D
:1000C000F7000000F7000000F7000000DFF80CD098
:1000D0000EF0ACF900480047E7840000F042001041
:1000E00005480047FEE7FEE7FEE7FEE7FEE7FEE71E
:1000F000FEE7FEE7FEE7FEE7CD00000006280AD295
:10010000DFE800F003040506070804E003E002E06E
:1001100001E000E000BF00BF00BFFEE710B50FF038
:1001200069FB0FF0C5FB0FF0B7FBAFF30080BDE834
:1001300010400FF083BB10B510F040F910F0F4FC44
:10014000BDE8104010F092B910F0A6B80FF06EBEE6
:1001500009B1002070470FF075BA0020704740EADF
:1001600001039B0703D009E008C9121F08C0042A35
:10017000FAD203E011F8013B00F8013B521EF9D21C
:1001800070470146002000E0401C0A5C002AFBD1B9
:10019000704780EA010202F0004330B430F00042C0
:1001A00021F0004015D0A0B1C0F3C755C2F3C75429
:1001B000C2F31601C0F31600651B41F4000140F4C0
:1001C00000007D35814201D36D1C00E04900002D07
:1001D00002DA30BC002070474FF400020024814254
:1001E00001D3091A144352084FEA4101F7D151B122
:1001F000814202D14FF0004105E002D24FF00101EF
:1002000001E06FF0010104EBC55030BC18440DF063
:1002100021BFC10F80EAE0700844CA07962300217D
:100220000DF021BF00F0004230F000400DD0C10DB4
:1002300001F5607142EA01510022C0F31600520735
:1002400042EAD00240071143704700200146704740
:1002500030B50B46014600202022012409E021FA96
:1002600002F59D4205D303FA02F5491B04FA02F593
:100270002844151EA2F10102F1DC30BD2DE9F05F2A
:100280000546002092469B46884606468146402405
:100290001CE028464146474622460EF0E8F8524602
:1002A0005B46801A994111D31046194622460EF03A
:1002B000CFF82D1A67EB0107B8464F4622460120BA
:1002C00000210EF0C5F838184E418146201EA4F1D9
:1002D0000104DEDC484631462A464346BDE8F09F2D
:1002E00000B500220EF076F9C04380B2010241EA67
:1002F000102080B200BD704770477047FFFFFFFFBE
:100300004FF020008749086000BF8648006810F061
:10031000400FFAD04FF00300834908604FF40030DB
:100320008249C1F8A8014FF00000814908604FF0F0
:100330000100804908608048804908604FF0010052
:10034000A1F1040108604FF0AA007D4908604FF058
:1003500055007649C1F88C0000BF7848001D006840
:1003600010F0806FF9D04FF00300764908604FF02D
:10037000AA006E49C1F88C004FF055007049086022
:100380004FF02300704908604FF00100A1F1040113
:1003900008604FF0AA006D4908604FF055000860F2
:1003A00000BF6948001D006810F4806FF9D04FF05D
:1003B0000300674908604FF0AA005C49C1F8AC002F
:1003C0004FF05500614908606248634908604FF08A
:1003D00000005649C1F8C8010846D0F88800C0F3AB
:1003E0000160032868D15348006810F0030006D06C
:1003F000012823D002283FD003285CD100E000BFB1
:1004000056480068C0F30E0000F101004FEA4001B9
:100410004648D0F88800C0F3074000F10100B1FB66
:10042000F0F04F4900FB01F03F490968C9B201F102
:100430000101B0FBF1F04B4908603CE0474800681F
:10044000C0F30E0000F101004FEA40013748D0F838
:100450008800C0F3074000F10100B1FBF0F0424911
:1004600000FB01F030490968C9B201F10101B0FB9C
:10047000F1F03C4908601EE038480068C0F30E0007
:1004800000F101004FEA40012848D0F88800C0F38D
:10049000074000F10100B1FBF0F04FF4FA4100FB1E
:1004A00001F021490968C9B201F10101B0FBF1F085
:1004B0002C49086000BF2FE01E48006810F00300C0
:1004C00006D0012810D0022819D0032823D100E03B
:1004D00000BF15480068C0B200F101002049B1FB1F
:1004E000F0F02049086016E00F480068C0B200F143
:1004F00001001D49B1FBF0F01A4908600BE00A4801
:100500000068C0B200F101004FF4FA41B1FBF0F015
:100510001449086000BF00BF43F23A000349086075
:1005200070470000A0C10F4004C10F4000C00F4041
:10053000ACC10F400CC10F404F00030084C00F40FE
:100540008CC00F4080C00F40A4C00F40ACC00F4013
:10055000A0C00F4048F10041C4C00F4088C00F4008
:1005600000093D0000C007208096980000EB800243
:10057000114600BFA1F101021100FBD170470146F5
:1005800000BFA1F101021100FBD170474FF0110033
:10059000FF49087270471FB5FE480078401CC0B282
:1005A000FC490870182802DB4FF000000870F94879
:1005B000007807287EDCF7480078C0EBC00000EB2D
:1005C0004000F54901EB800090F83100F1490978CD
:1005D000C1EBC10101EB4101EF4A02EB810191F84E
:1005E0003010EC4A1278C2EBC20202EB4202EA4B34
:1005F00003EB820292F82D20E64B1B78C3EBC3037A
:1006000003EB4303E44C04EB830393F82C30CDE974
:100610000032CDE90210DF480078C0EBC00000EBEB
:100620004000214601EB800090F828000346ED22AF
:10063000D848017800780CF009F8D6480078D749F6
:10064000097888427EDAD3480078C0EBC00000EB1E
:100650004000214601EB8000C0780A2835DACD48F9
:100660000078C0EBC00000EB400001EB8000C078D8
:1006700000F10100C7490978C1EBC10101EB41015B
:10068000224602EB8101C870C2480078C0EBC0006E
:1006900000EB4000114601EB8000C0780A2820DB07
:1006A000BC480078C0EBC00000EB400001EB8000CC
:1006B000407800E058E010F0080F12D10122032129
:1006C000B448007809F09CFC0BE04FF00A00B149F7
:1006D0000978C1EBC10101EB4101AF4A02EB810195
:1006E000C870AC480078C0EBC00000EB4000AA49DD
:1006F00001EB8000C07803281FDBA6480078C0EB20
:10070000C00000EB400001EB80000079032814DA00
:10071000A0480078C0EBC00000EB400001EB800077
:10072000407900F101009B490978C1EBC10101EB5F
:100730004101994A02EB8101487196480078C0EB6B
:10074000C00000E028E000EB4000934901EB80008E
:10075000C07890490978C1EBC10101EB41018E4A93
:1007600002EB8101087167E08A480078082863D0AD
:100770008848007809285FD0864800780A280CD17C
:1007800000200090019002900346024603908148A9
:10079000017800780BF05AFF4EE07E4800780C2874
:1007A0004AD07C4800780D2846D07A4800780E2838
:1007B00042D07848007814280CD100200090019095
:1007C00002900346024603907248017800780BF0CD
:1007D0003DFF31E06F48007815280CD100200090D3
:1007E000019002900346024603906A48017800781F
:1007F0000BF02CFF20E06748007816280CD1002071
:1008000000900190029003460246039061480178EF
:1008100000780BF01BFF0FE05E48007817280BD123
:100820000020009001900290034602460390594830
:10083000017800780BF00AFF1FBD10B568200BF09F
:1008400034FC574908706A200BF02FFC544948705B
:100850006C200BF02AFC524988706E200BF025FCAE
:100860004F49C87070200BF020FC4D49087272206F
:100870000BF01BFCC1B24A4841724FF074000BF000
:1008800014FCC1B2464881724FF076000BF00DFCAB
:10089000C1B24348C1724FF0A4000BF006FC4049BE
:1008A0000871A6200BF001FCC1B23D4841714FF028
:1008B000A8000BF0FAFBC1B2394881714FF0AA00D1
:1008C0000BF0F3FBC1B23648C17110BD10B510F08A
:1008D0006DFB4FF001003349087010BD014600293F
:1008E00002DA484200B270470846FCE72E4800682A
:1008F00020F0E0602C49086008464068C0F30B1007
:100900002A492B4A127821F812002948007800F170
:1009100001002749087008460078032805DA2248B4
:10092000006840F080702049086070474FF0010077
:10093000204908702048008800F1010000B21E49DB
:1009400008800A2807D14FF001001C4908704FF0B9
:100950000000194908801A480088401C00B2184954
:100960000880142807D14FF00100164908704FF095
:1009700000001349088014480088401C00B2124946
:100980000880642831D14FF00100104908701FE041
:100990000040024004010010640A00103100001001
:1009A000B040001081000010004003402E010010F4
:1009B000250100107A000010240000107B000010B8
:1009C000260000107C000010280000107D000010A0
:1009D0004FF00000FC490880FC48007828B1FC4832
:1009E000406B80F48010FA494863FA480088401C44
:1009F00000B2F8490880C82807D14FF00100F64935
:100A000008704FF00000F3490880F4480088401C4B
:100A100000B2F2490880B0F5FA7F07D14FF001002B
:100A2000EF4908704FF00000EC490880ED4800885D
:100A3000401C00B2EB490880B0F57A7F07D14FF037
:100A40000100E94908704FF00000E649088070474E
:100A5000E6480078002871D0E548007800286ED17B
:100A6000E448007800286BD1E348007800287ED164
:100A7000DE48C0782B280CD14FF00100DE49087009
:100A8000DE480078DE4908704FF0F000DB4908705E
:100A900068E0D64800792B280CD14FF00200D649E7
:100AA0000870D6480078D64908704FF0F100D34955
:100AB000087057E0CD4840792B280CD14FF0030047
:100AC000CD490870CD480078CD4908704FF0F2004C
:100AD000CA49087046E0C54880792B280CD14FF0F0
:100AE0000400C5490870C5480078C54908704FF032
:100AF000F300C249087035E0BC48C0792B280CD1FE
:100B00004FF00500BC490870BC480078BC4908702B
:100B10004FF0F400B949087024E0B448007A2B285B
:100B200010D14FF00600B4490870B4480078B449B9
:100B300008704FF0F500B149087013E039E296E211
:100B40008EE214E0A948407A2B280BD14FF0070021
:100B5000A9490870A9480078A94908704FF0F60023
:100B6000A6490870A1488078A249087085E2A24889
:100B70000078012851D19D4800792B2808D14FF0E9
:100B800002009D4908704FF0F1009C4908703FE059
:100B9000964840792B2808D14FF0030096490870F9
:100BA0004FF0F2009549087032E0904880792B2888
:100BB00008D14FF00400904908704FF0F3008F49BE
:100BC000087025E08948C0792B2808D14FF005002E
:100BD000894908704FF0F4008849087018E083488C
:100BE000007A2B2808D14FF00600834908704FF097
:100BF000F500824908700BE07C48407A2B2807D129
:100C00004FF007007C4908704FF0F6007B490870F0
:100C100076488078774908702FE277480078022874
:100C200051D1724840792B2808D14FF00300724906
:100C300008704FF0F200714908703FE06B4880790E
:100C40002B2808D14FF004006B4908704FF0F300D7
:100C50006A49087032E06548C0792B2808D14FF006
:100C60000500654908704FF0F4006449087025E0FC
:100C70005E48007A2B2808D14FF006005E490870C4
:100C80004FF0F5005D49087018E05848407A2B286D
:100C900008D14FF00700584908704FF0F600574947
:100CA00008700BE05148C0782B2807D14FF00100A5
:100CB000514908704FF0F000504908704B48807857
:100CC0004C490870D9E14C480078032851D1474875
:100CD00080792B2808D14FF00400474908704FF065
:100CE000F300464908703FE04048C0792B2808D1FE
:100CF0004FF00500404908704FF0F4003F4908707C
:100D000032E03A48007A2B2808D14FF006003A49E1
:100D100008704FF0F5003949087025E03348407AF3
:100D20002B2808D14FF00700334908704FF0F60028
:100D30003249087018E02D48C0782B2808D14FF0B0
:100D400001002D4908704FF0F0002C4908700BE0AD
:100D5000264800792B2807D14FF002002649087059
:100D60004FF0F1002549087020488078214908702B
:100D700083E121480078042870D11C48C0792B28D1
:100D800008D14FF005001C4908704FF0F4001B49D2
:100D900008705DE01548007A2B2808D14FF0060056
:100DA000154908704FF0F5001449087050E00F48DD
:100DB000407A2B2826D14FF007000F4908704FF0DA
:100DC000F6000E49087043E0280000108200001071
:100DD00000C009202A0000107E0000102C00001026
:100DE0007F0000102E00001080000010CC050010C5
:100DF0005F0000106000001061000010370000105C
:100E00003D000010FF48C0782B2808D14FF00100AA
:100E1000FD4908704FF0F000FC49087018E0F948EF
:100E200000792B2808D14FF00200F74908704FF0E5
:100E3000F100F64908700BE0F24840792B2807D101
:100E40004FF00300F04908704FF0F200EF490870CE
:100E5000EC488078EE4908700FE1FFE7EA48007837
:100E6000052851D1E748007A2B2808D14FF0060019
:100E7000E54908704FF0F500E44908703FE0E148AB
:100E8000407A2B2808D14FF00700DF4908704FF057
:100E9000F600DE49087032E0DA48C0782B2808D125
:100EA0004FF00100D84908704FF0F000D7490870A2
:100EB00025E0D44800792B2808D14FF00200D24910
:100EC00008704FF0F100D149087018E0CD48407922
:100ED0002B2808D14FF00300CB4908704FF0F200E7
:100EE000CA4908700BE0C74880792B2807D14FF01A
:100EF0000400C54908704FF0F300C4490870C148A8
:100F00008078C3490870B8E0BF480078062851D1FE
:100F1000BC48407A2B2808D14FF00700BA49087026
:100F20004FF0F600B94908703FE0B648C0782B286A
:100F300008D14FF00100B44908704FF0F000B349F8
:100F4000087032E0AF4800792B2808D14FF002003A
:100F5000AD4908704FF0F100AC49087025E0A94890
:100F600040792B2808D14FF00300A74908704FF0B3
:100F7000F200A649087018E0A24880792B2808D111
:100F80004FF00400A04908704FF0F3009F4908702B
:100F90000BE09C48C0792B2807D14FF005009A49F7
:100FA00008704FF0F4009949087096488078984985
:100FB000087062E09448007807285ED19148C078B4
:100FC0002B2808D14FF001008F4908704FF0F00036
:100FD0008E4908703FE08B4800792B2808D14FF0EC
:100FE0000200894908704FF0F1008849087032E02A
:100FF000844840792B2808D14FF0030082490870BB
:101000004FF0F2008149087025E07E4880792B2856
:1010100008D14FF004007C4908704FF0F3007B4981
:10102000087018E07748C0792B2808D14FF00500E8
:10103000754908704FF0F400744908700BE071486E
:10104000007A2B2807D14FF006006F4908704FF047
:10105000F5006E4908706B4880786D4908700CE0A7
:101060006B480078A0F101006949087005E0694803
:101070000078A0F1010067490870704710B580B989
:1010800013884FF6FF74A34203DA138803F10103B8
:1010900013800B78FF2B08DA0B7803F101030B7038
:1010A00003E04FF0000313800B7010BD58B90B78AC
:1010B000012B03DB4FF0FF0313700EE00B7803F1FD
:1010C00001030B7009E00B781BB94FF0000313709C
:1010D00003E00B78A3F101030B70704780B913781C
:1010E00073B90B78012B03DB4FF0FF0313700DE096
:1010F0000B78012B0ADA0B7803F101030B7005E082
:101100000B781BB10B78A3F101030B70704710B57E
:1011100018B1414B1B78012B13D113788BB90B7885
:10112000012B09DB4FF00F0313704FF000033A4C13
:1011300023703A4C237032E00B7803F101030B70FB
:101140002DE018B1354B1B78012B14D113781F2BD0
:1011500011D10B78012B09DB4FF02F0313704FF0E7
:1011600000032E4C23702C4C237018E00B7803F1F5
:1011700001030B7013E00B788BB180B10B78A3F1F6
:1011800001030B7013780F2B03D14FF01F03137063
:1011900005E013782F2B02D14FF00003137010BD20
:1011A000F0B591B0034615464FF000063046324682
:1011B0004FF00106344647E001FB04F6A6EB0106BA
:1011C000F6B2304631E09E5C0A2E09D09E5C3EB1FC
:1011D0009E5C0DF8006002F10106F6B2324620E096
:1011E00000BF07E04FF020060DF8006000F1010697
:1011F000F6B2304601FB04F68642F3DC02F101064A
:10120000F6B20DE0CC0500106100001037000010B0
:10121000600000105F000010200100101F0100108E
:10122000324600F10106F6B2304601FB04F6864272
:10123000C9DC9E5C0A2E03D102F10106F6B23246E9
:1012400004F10106F6B23446AC42B5DD4FF00006BB
:10125000304606E01DF800601E5400F10106F6B2AB
:101260003046B0EB810FF5DB11B0F0BDF0B54FF0BB
:101270001505FF4E35704FF00605FE4E35704FF0E8
:101280001505FD4E35704FF000052A4607E04FF07A
:101290000005FA4EB55402F101052DB22A4640F27E
:1012A000FF35AA42F3DB4FF000052A46A5E34FF0D5
:1012B00000052B4698E3EF4D2D7805FB0235F04EE7
:1012C000745DBF2C09DDA4F16105E94E367805FB9C
:1012D00006F54FEA850529460EE01F2C09DDA4F12D
:1012E0002005E34E367805FB06F54FEA85052946CD
:1012F00002E04FF0000529464FEA4225DE4E3678DF
:1013000006FB0350DF4D6F5C054600F101063046D9
:10131000DA4E7755DB4E01F10405775D054600F1A5
:1013200001063046D54E7755D64E01F10805775D5A
:10133000054600F101063046D04E7755D14E01F1F9
:101340000C05775D054600F101063046CB4E77551A
:10135000CC4E01F11005775D054600F101063046DF
:10136000C64E7755C74E01F11405775D054600F16D
:1013700001063046C14E7755C24E01F11805775D22
:10138000054600F101063046BC4E7755BD4E01F1D1
:101390001C05775D054600F101063046B74E7755CE
:1013A000B84E01F12005775D054600F10106304693
:1013B000B24E7755B34E01F12405775D054600F135
:1013C00001063046AD4E7755AE4E01F12805775DEA
:1013D000054600F101063046A84E7755A94E01F1A9
:1013E0002C05775D054600F101063046A34E775582
:1013F000A44E01F13005775D054600F10106304647
:101400009E4E77559F4E01F13405775D054600F1FC
:1014100001063046994E77559A4E01F13805775DB1
:10142000054600F101063046944E7755954E01F180
:101430003C05775D054600F1010630468F4E775535
:10144000904E01F14005775D054600F101063046FA
:101450008A4E77558B4E01F14405775D054600F1C4
:1014600001063046854E7755864E01F14805775D79
:10147000054600F101063046804E7755814E01F158
:101480004C05775D054600F1010630467B4E7755E9
:101490007C4E01F15005775D054600F101063046AE
:1014A000764E77554FEA4225734E367806FB035544
:1014B00005F180052846734E01F10105775D05466B
:1014C00000F1010630466D4E77556E4E01F105056F
:1014D000775D054600F101063046684E7755694E46
:1014E00001F10905775D054600F101063046634EBE
:1014F0007755644E01F10D05775D054600F1010653
:1015000030465E4E77555F4E01F11105775D054619
:1015100000F101063046594E77555A4E01F1150536
:10152000775D054600F101063046544E7755554E1D
:1015300001F11905775D054600F1010630464F4E71
:101540007755504E01F11D05775D054600F1010606
:1015500030464A4E77554B4E01F12105775D0546E1
:1015600000F101063046454E7755464E01F12505FE
:10157000775D054600F101063046404E7755414EF5
:1015800001F12905775D054600F1010630463B4E25
:1015900077553C4E01F12D05775D054600F10106BA
:1015A0003046364E7755374E01F13105775D0546A9
:1015B00000F101063046314E7755324E01F13505C6
:1015C000775D054600F1010630462C4E77552D4ECD
:1015D00001F13905775D054600F101063046274ED9
:1015E0007755284E01F13D05775D054600F101066E
:1015F0003046224E7755234E01F14105775D054671
:1016000000F1010630461D4E77551E4E01F145058D
:10161000775D054600F101063046184E7755194EA4
:1016200001F14905775D054600F101063046134E8C
:101630007755144E01F14D05775D054600F1010621
:1016400030460E4E77550F4E01F15105775D054638
:1016500000F101063046094E77554FEA4225064E05
:10166000367806FB035505F580752846054E0BE0D8
:101670002301001021010010220100101E0600109D
:101680001E0A0010F420010001F10205775D0546F5
:1016900000F101063046FC4E7755FC4E01F106057F
:1016A000775D054600F101063046F74E7755F74E57
:1016B00001F10A05775D054600F101063046F24E5C
:1016C0007755F24E01F10E05775D054600F10106F2
:1016D0003046ED4E7755ED4E01F11205775D05462A
:1016E00000F101063046E84E7755E84E01F1160547
:1016F000775D054600F101063046E34E7755E34E2F
:1017000001F11A05775D054600F101063046DE4E0F
:101710007755DE4E01F11E05775D054600F10106A5
:101720003046D94E7755D94E01F12205775D0546F1
:1017300000F101063046D44E7755D44E01F126050E
:10174000775D054600F101063046CF4E7755CF4E06
:1017500001F12A05775D054600F101063046CA4EC3
:101760007755CA4E01F12E05775D054600F1010659
:101770003046C54E7755C54E01F13205775D0546B9
:1017800000F101063046C04E7755C04E01F13605D6
:10179000775D054600F101063046BB4E7755BB4EDE
:1017A00001F13A05775D054600F101063046B64E77
:1017B0007755B64E01F13E05775D054600F101060D
:1017C0003046B14E7755B14E01F14205775D054681
:1017D00000F101063046AC4E7755AC4E01F146059E
:1017E000775D054600F101063046A74E7755A74EB6
:1017F00001F14A05775D054600F101063046A24E2B
:101800007755A24E01F14E05775D054600F10106C0
:1018100030469D4E77559D4E01F15205775D054648
:1018200000F101063046984E77554FEA4225984E12
:10183000367806FB035505F5C0752846934E01F131
:101840000305775D054600F1010630468E4E77555B
:101850008E4E01F10705775D054600F10106304621
:10186000894E7755894E01F10B05775D054600F1EC
:1018700001063046844E7755844E01F10F05775DA1
:10188000054600F1010630467F4E77557F4E01F147
:101890001305775D054600F1010630467A4E77550F
:1018A0007A4E01F11705775D054600F101063046D5
:1018B000754E7755754E01F11B05775D054600F1B4
:1018C00001063046704E7755704E01F11F05775D69
:1018D000054600F1010630466B4E77556B4E01F11F
:1018E0002305775D054600F101063046664E7755C3
:1018F000664E01F12705775D054600F10106304689
:10190000614E7755614E01F12B05775D054600F17B
:10191000010630465C4E77555C4E01F12F05775D30
:10192000054600F101063046574E7755574E01F1F6
:101930003305775D054600F101063046524E775576
:10194000524E01F13705775D054600F1010630463C
:101950004D4E77554D4E01F13B05775D054600F143
:1019600001063046484E7755484E01F13F05775DF8
:10197000054600F101063046434E7755434E01F1CE
:101980004305775D054600F1010630463E4E77552A
:101990003E4E01F14705775D054600F101063046F0
:1019A000394E7755394E01F14B05775D054600F10B
:1019B00001063046344E7755344E01F14F05775DC0
:1019C000054600F1010630462F4E77552F4E01F1A6
:1019D0005305775D054600F1010630462A4E7755DE
:1019E00003F101052DB22B462A4D2D78AB42FFF6AF
:1019F00062AC02F101052DB22A46022AFFF657AC6D
:101A0000F0BDF0B54FF00905234E35704FF01005CD
:101A1000204E35704FF008051D4E35704FF0000513
:101A20002A4607E04FF00005174EB55402F10105B4
:101A30002DB22A4640F2FF35AA42F3DB4FF00005F3
:101A40002A46ECE04FF000052C46DFE0114D2D78E2
:101A500005FB0245114E735DBF2B09DDA3F1610546
:101A60000D4E367805FB06F54FEA450529461AE086
:101A70001F2B15DDA3F12005074E367805FB06F573
:101A80004FEA450529460EE01E060010F42001002D
:101A90002201001021010010230100101E0A001075
:101AA0004FF0000529464FEA0225E74E367806FB3F
:101AB0000450E64E01F10205775D054600F101068E
:101AC0003046E34E7755E14E01F10405775D05465A
:101AD00000F101063046DE4E7755DC4E01F1060579
:101AE000775D054600F101063046D94E7755D74E51
:101AF00001F10805775D054600F101063046D44E38
:101B00007755D24E01F10A05775D054600F10106D1
:101B10003046CF4E7755CD4E01F10C05775D054629
:101B200000F101063046CA4E7755C84E01F10E0548
:101B3000775D054600F101063046C54E7755C34E28
:101B400001F11005775D054600F101063046C04EF3
:101B500077554FEA0225BC4E367806FB045505F151
:101B600080052846B94E01F10305775D054600F171
:101B700001063046B64E7755B44E01F10505775D46
:101B8000054600F101063046B14E7755AF4E01F1E2
:101B90000705775D054600F101063046AC4E7755E6
:101BA000AA4E01F10905775D054600F101063046B0
:101BB000A74E7755A54E01F10B05775D054600F15F
:101BC00001063046A24E7755A04E01F10D05775D16
:101BD000054600F1010630469D4E77559B4E01F1BA
:101BE0000F05775D054600F101063046984E7755A2
:101BF000964E01F11105775D054600F1010630466C
:101C0000934E775504F101052DB22C46914D2D7858
:101C1000AC42FFF61BAF02F101052DB22A46042AA1
:101C2000FFF610AFF0BDF0B54FF00C058A4E3570E1
:101C30004FF01005874E35704FF00805824E357015
:101C40004FF000052A4607E04FF00005804EB554DE
:101C500002F101052DB22A4640F2FF35AA42F3DB1C
:101C60004FF000052A46E0E04FF000052C46D3E097
:101C7000784D2D7805FB0245784E735DBF2B09DD4D
:101C8000A3F16105744E367805FB06F54FEA45056C
:101C900029460EE01F2B09DDA3F120056E4E367894
:101CA00005FB06F54FEA4505294602E04FF0000521
:101CB00029464FEA0225644E367806FB0450684EEA
:101CC00001F10405775D054600F101063046604EDE
:101CD0007755634E01F10605775D054600F1010673
:101CE00030465B4E77555E4E01F10805775D05463F
:101CF00000F101063046564E7755594E01F10A055E
:101D0000775D054600F101063046514E7755544E39
:101D100001F10C05775D054600F1010630464C4E99
:101D200077554F4E01F10E05775D054600F101062E
:101D30003046474E77554A4E01F11005775D05460E
:101D400000F101063046424E7755454E01F112052D
:101D5000775D054600F1010630463D4E77554FEA66
:101D60000225394E367806FB045505F180052846D4
:101D70003B4E01F10505775D054600F10106304651
:101D8000334E7755364E01F10705775D054600F174
:101D9000010630462E4E7755314E01F10905775D2B
:101DA000054600F101063046294E77552C4E01F1CB
:101DB0000B05775D054600F101063046244E775548
:101DC000274E01F10D05775D054600F1010630460D
:101DD0001F4E7755224E01F10F05775D054600F144
:101DE000010630461A4E77551D4E01F11105775DFB
:101DF000054600F101063046154E7755184E01F1A3
:101E00001305775D054600F101063046104E775503
:101E100004F101052DB22C460E4D2D78AC42FFF693
:101E200027AF02F101052DB22A46042AFFF61CAFA6
:101E3000F0BD00B5ADB00B480078372801F016832F
:101E40004BDC82F0E2830FE02201001020550100FC
:101E50001E06001021010010230100101E0A0010B0
:101E60000C12010037000010DFE810F08E00BB00FC
:101E7000E10005015E01A601DF12DF12DF12DF12B1
:101E8000DF12DF12DF12DF12DF12DF12DF12DF12CA
:101E9000DF12DF12E601ED01F601FF0106020B027F
:101EA000DF12DF12DF12DF1210023C02680264044C
:101EB0008E04B804EF041F05DF12DF1241055C0534
:101EC000A405D8053D06A407090841087D0888082F
:101ED000BF08F3086409690ACE0A532801F0DF87B6
:101EE00020DCA0F138001B28ABD2DFE810F0250B76
:101EF000570BBC0BEE0B8A0C9E129E129E129E126A
:101F00009E12BB0C9E129E129E12C00CDC0CEF0C9B
:101F1000020D150D280D3B0D4E0D9E129E125E0DED
:101F2000800DA30DF22802F0BD821BDC5D2802F0BB
:101F30005B800DDC542801F0D5875A2801F0EC872E
:101F40005B2802F00B805C2842F05F8302F029B826
:101F50005E2802F06B82F02802F08282F128F3D131
:101F600002F08BBAF3380D28BED2DFE810F0A312CE
:101F7000B012C41204135E125E125E120F13161317
:101F80001D135E125E122413FB48B0F900000A21F3
:101F900090FBF1F00990F948B0F90000FEF739F92B
:101FA000F7490390FEF7F5F80490FEF73BF9CDE909
:101FB0000601F448B0F900000A2190FBF1F0059009
:101FC000F149B1F900100998CDE90210DDE90601E7
:101FD000CDE90001EDA1F948059A0CF019FB02F0DA
:101FE00014BBE548B0F900000A2190FBF1F009901C
:101FF000E248B0F90000FEF70CF9E1490490FEF761
:10200000C8F80590FEF70EF9CDE90601EC48B0F9E5
:102010000010DD4AB2F900200998CDE900200291B4
:10202000E8A1E648DDE906230CF0F2FAD7E7F0482C
:1020300000880A2190FBF1F201FB12000990EC48A4
:10204000008890FBF1F00890CB48B0F9000090FBBD
:10205000F1F00790DA4AB2F90020DDE90810CDE985
:1020600000210290C848B0F90020E2A1D348079BA4
:102070000CF0CEFAB3E7EB480088B0F5167F20DB12
:10208000DB4800880A2190FBF1F201FB1200099065
:10209000D748008890FBF1F00890B748B0F90010DD
:1020A0000A2091FBF0F00790DDE90801CDE900017D
:1020B000C348B0F90030DCA1C048079A0CF0A8FA78
:1020C00031E0E648B0F90000FEF7A3F8E4490390D8
:1020D000FEF75FF80490FEF7A5F8CDE90801C448C3
:1020E00000880A2190FBF1F201FB12000790C04822
:1020F000008890FBF1F006909F48B0F900100A208C
:1021000091FBF0F00590DDE90801CDE90201DDE980
:102110000601CDE90001AA48B0F90030D1A1A748D5
:10212000059A0CF075FA5AE7BE480088B0F5167F9C
:1021300018DBAF4800880A2190FBF1F201FB120086
:102140000990AB4801880A2091FBF0F008900998AB
:1021500000909B48B0F90020CEA19848089B0CF055
:1021600057FA28E0BD48B0F90000FEF752F8BC4924
:102170000490FEF70EF80590FEF754F8CDE908013B
:102180009B4800880A2190FBF1F201FB12000790A6
:102190009748008890FBF1F00690DDE90801CDE951
:1021A0000201079800908648B0F90020C6A1834834
:1021B000069B0CF02DFA12E79A480088B0F5167FBE
:1021C00014DB8B4800880A2190FBF1F201FB12001E
:1021D0000990874801880A2091FBF0F00890024698
:1021E000C5A17648099B0CF013FA24E09B48B0F98E
:1021F0000000FEF70EF89A490490FDF7CAFF05901B
:10220000FEF710F8CDE90801794800880A2190FB13
:10221000F1F201FB120007907548008890FBF1F085
:102220000690DDE90801CDE90001BFA16348DDE9C1
:1022300006230CF0EDF9D2E6C7480278C7A15F4843
:102240000CF0E6F9CBE6D3480378C3480278D2A174
:102250005A480CF0DDF9C2E6CE480378BE48027851
:10226000DBA156480CF0D4F9B9E6CA480278E6A1D9
:1022700052480CF0CDF9B2E6EFA150480CF0C8F985
:10228000ADE6F8A14D480CF0C3F9A8E63B48B0F91B
:102290000000FDF7BEFF3A490490FDF77AFF059074
:1022A000FDF7C0FFCDE908013648B0F900000A216A
:1022B00090FBF1F201FB120007903248B0F90000E8
:1022C00090FBF1F006903048B0F900000290DDE993
:1022D0000801CDE90001EEA13848DDE906230CF044
:1022E00097F97CE62448B0F900000A2190FBF1F24E
:1022F00001FB120009902048B0F9000090FBF1F0BA
:1023000008901E48B0F90000FDF783FF1C490490B7
:10231000FDF73FFF0590FDF785FFCDE906011A4A5D
:10232000B2F90020DDE90810CDE900210290E6A114
:102330002248DDE906230CF06BF950E60E48B0F9AF
:1023400000000A2190FBF1F201FB120009900A48FB
:10235000B0F9000090FBF1F008901948B0F90010B6
:102360000998CDE900010848B0F90020E4A113481C
:10237000089B0CF04DF932E616E007203CE0072000
:10238000000020413AE0072040E007202055E2FB12
:10239000F53D252D75C20A2049E2FBF53D252E317C
:1023A00066C00A2050E2FBF53D252D64C2F20A20EA
:1023B00055F1E5F2E83D252D75C200001E0A00101A
:1023C0003EE007202049E2FBF53D252E3166C00A9C
:1023D0002050E2FBF53D252D64C2F20A2055F1E5BF
:1023E000F2E83D252D75C20A20743D25642743007F
:1023F00032E007202050E2FBF53D252D64C2F20AB1
:102400002055F1E5F2E83D252D75C20A20743D25E1
:102410002D6427430A2055E1E0F23D252D752E2538
:102420002D754200540000102055F1E5F2E83D25DD
:102430002D75C20A20743D252D6427430A2055E1DD
:10244000E0F23D252D752E252D75420A2049E1E04B
:10245000F23DCAC0CBC8C1D02E00000034E0072036
:102460000000C8422055F1E5F2E83D252D75C20A6D
:1024700020743D252D6427430A2055E1E0F23D25D7
:102480002D752E252D75420A2049E1E0F23D252EBD
:102490003266410020743D252D6427430A2055E112
:1024A000E0F23D252D752E252D75420A2049E1E0EB
:1024B000F23DCAC0CBC8C1D02E0A20D3D1D2C0CDE4
:1024C000CEC2CAC80000000020743D252D642743F9
:1024D0000A2055E1E0F23D252D752E252D75420A85
:1024E0002049E1E0F23D252E3266410A20D3D1D2C7
:1024F000C0CDCEC2CAC800002055E1E0F23D252D76
:10250000752E252D75420A2049E1E0F23DCAC0CB67
:10251000C8C1D02E0A20D3D1D2C0CDCEC2CAC80ADB
:1025200020CDC0C2C5D0D5002055E1E0F23D252D1B
:10253000752E252D75420A2049E1E0F23D252E3207
:1025400066410A20D3D1D2C0CDCEC2CAC80A20CD9E
:10255000C0C2C5D0D500000062000010202020209D
:10256000D3D1D2C0CDCEC2CAC80A20C2FBE1EEF0A0
:1025700020E3EB2EECE5EDFE0A20C8EDF2E5F0EDF0
:10258000E5F20A2055E1E0F22EE2EAEB3D252D7559
:10259000420000006300001020202020D3D1D2C0D0
:1025A000CDCEC2CAC80A20C8EDF2E5F0EDE5F20AC8
:1025B0002055E1E0F22EE2EAEB3D252D75420A209E
:1025C00055E1E0F22EE2FBEAEB3D252D75420000DD
:1025D00020202020D3D1D2C0CDCEC2CAC80A2055D7
:1025E000E1E0F22EE2EAEB3D252D75420A2055E1AD
:1025F000E0F22EE2FBEAEB3D252D75420A20D0E504
:10260000EBE520310000000020202020D3D1D2C0F3
:10261000CDCEC2CAC80A2055E1E0F22EE2FBEAEBB9
:102620003D252D75420A20D0E5EBE520310A20D06A
:10263000E5EBE5203200000020202020D3D1D2C0DD
:10264000CDCEC2CAC80A20D0E5EBE520310A20D0A1
:10265000E5EBE520320A20CAE0EBE8E1F0EEE2EA41
:10266000E000000020202020D3D1D2C0CDCEC2CAAD
:10267000C80A20D0E5EBE520320A20CAE0EBE8E109
:10268000F0EEE2EAE00A20C2FBF5EEE40000000012
:10269000202020CAC0CBC8C1D0CEC2CAC00A205593
:1026A000E2FBF53D252D752E25303175C20A2049F6
:1026B000E2FBF53D252E3166C00A2050E2FBF53DD8
:1026C000252D64C2F2000000202020CAC0CBC8C162
:1026D000D0CEC2CAC00A2049E2FBF53D252E3166A4
:1026E000C00A2050E2FBF53D252D64C2F20A2055B8
:1026F000F1E5F2E83D252D752E25303175C200003B
:10270000202020CAC0CBC8C1D0CEC2CAC00A205027
:10271000E2FBF53D252D64C2F20A2055F1E5F2E811
:102720003D252D752E25303175C20A20743D256456
:1027300027430000FF4800880A2190FBF1F201FBCB
:1027400012000990FB48008890FBF1F00890FA48CD
:10275000B0F9000090FBF1F201FB12000790F6487F
:10276000B0F9000090FBF1F00690F44AB2F90020B5
:10277000DDE90810CDE900210290F1A1FE48DDE974
:1027800006230BF045FF2AE4FC48B0F90000FDF7F2
:1027900040FDFB490490FDF7FCFC0590FDF742FD70
:1027A000CDE90801E34800880A2190FBF1F201FB22
:1027B00012000790DF48008890FBF1F00690DDE9F9
:1027C0000801CDE9020107980090DC48B0F900202B
:1027D000ECA1E948069B0BF01BFF27E4F6480078C4
:1027E00010B9F6A00E9008E0F3480078012802D155
:1027F000F4A00E9001E0F5A00E90E048B0F90000C2
:10280000FDF707FDDE490490FDF7C3FC0590FDF7D9
:1028100009FDCDE90801C74800880A2190FBF1F2C3
:1028200001FB12000790C348008890FBF1F006906E
:102830000E980290DDE90801CDE90001E4A1CE483F
:10284000DDE906230BF0E4FE14E4DB48007810B960
:10285000DAA00E9008E0D8480078012802D1D9A06B
:102860000E9001E0D9A00E90E748007810B9D3A0EF
:102870000F9001E0D5A00F90C048B0F90000FDF71F
:10288000C8FCBF490690FDF784FC0790FDF7CAFC21
:10289000CDE90801DDE90E01CDE90001DBA1B64873
:1028A000DDE908230BF0B4FE3DE4C348007810B91D
:1028B000C2A00E9008E0C0480078012802D1C1A053
:1028C0000E9001E0C1A00E90CF48007810B9BBA0D7
:1028D0000F9001E0BDA00F900F9809900E980890FE
:1028E0000246D8A1A448099B0BF092FE1BE4E148E4
:1028F000008810B1B5A00E9001E0B0A00E90DE48A7
:10290000008810B1B1A00F9001E0ACA00F900F981B
:1029100009900E9808900246D8A19748099B0BF0A1
:1029200077FE48E4D348008810B1E1A00E9001E0A2
:10293000A2A00E90D048008810B1DDA00F9001E059
:102940009EA00F90DC48B0F90000DC49B1F90010FE
:10295000DB4AB2F90020CDE9002102900F980990DE
:10296000D848B0F90030D8A18348099A0BF050FE3E
:10297000E4480078E8B1E4480078032819D14FF022
:102980002001E24800784FF0290202EB80007A4AE9
:102990001154DE4800784FF02A0202EB8000764A9C
:1029A0001154DA4800784FF02B0202EB8000724A93
:1029B000115440E4C048B0F90000C049B1F900101A
:1029C000CDE90010BE48B0F90030BE48B0F9002093
:1029D000CFA169480BF01CFECA480078E8B1CA488C
:1029E0000078022819D14FF02001C84800784FF034
:1029F000180202EB8000604A1154C44800784FF07E
:102A0000190202EB80005C4A1154C04800784FF074
:102A10001A0202EB8000584A11540CE4CB48B0F97A
:102A20000000CB49B1F90010CA4AB2F90020CA4BE4
:102A3000B3F90030CDE90232CDE904109E48B0F977
:102A400000009E49B1F90010CDE900109C48B0F992
:102A500000309C48B0F90020C04947480BF0D8FD31
:102A6000A8480078E8B1A8480078032819D14FF0A9
:102A70002001A64800784FF02F0202EB80003E4A6A
:102A80001154A24800784FF0300202EB80003A4A1D
:102A900011549E4800784FF0310202EB8000364A14
:102AA000115498480078E8B197480078012819D166
:102AB0004FF02001954800784FF00E0202EB8000A5
:102AC0002D4A1154914800784FF00F0202EB80001C
:102AD000294A11548D4800784FF0100202EB800013
:102AE000254A115429E49948B0F900009849B1F9F0
:102AF0000010CDE900109748B0F900309648B0F9C1
:102B0000002097A11C480BF083FD7E48007880B11F
:102B10007D48007802280CD14FF020017B480078D6
:102B20004FF01E0202EB8000134A115477480078E0
:102B300034E13EE132E0072016E007203EE00720C6
:102B4000202020CAC0CBC8C1D0CEC2CAC00A2055DE
:102B5000F1E5F2E83D252D752E25303175C20A20AC
:102B6000743D256427430A2055E1E0F23D252D758B
:102B70002E252D75420000001E0A001034E00720AB
:102B80000000C842202020CAC0CBC8C1D0CEC2CAD3
:102B9000C00A20743D256427430A2055E1E0F23D38
:102BA000252D752E252D75420A2049E1E0F23D259F
:102BB0002E3266410000000069000010C2DBCACB63
:102BC00000000000C0CCCFCB00000000C2CACB0088
:102BD000202020CAC0CBC8C1D0CEC2CAC00A20554E
:102BE000E1E0F23D252D752E252D75420A2049E1A3
:102BF000E0F23D252E3266410A20CAEEEDF2F02EBB
:102C0000F1E5F2E8202573006A000010202020CAB8
:102C1000C0CBC8C1D0CEC2CAC00A2049E1E0F23D53
:102C2000252E3266410A20CAEEEDF2F02EF1E5F2D1
:102C3000E82025730A20D3EFF02ED8C8CC202573C6
:102C400000000000202020CAC0CBC8C1D0CEC2CA1C
:102C5000C00A20CAEEEDF2F02EF1E5F2E82025736D
:102C60000A20D3EFF02ED8C8CC2025730A20C2DB6F
:102C7000D5CEC400A8000010AA00001020202045D6
:102C8000544845524E45543A0A2045746865726E60
:102C900065742025730A2044484350EAEBE8E5EDCB
:102CA000F22025730A204950E0E4F0E5F13A0000F3
:102CB000C2CACB2000000000B2000010B00000101B
:102CC000AE000010AC0000102020204554484552B2
:102CD0004E45543A0A2044484350EAEBE8E5EDF209
:102CE0002025730A204950E0E4F0E5F13A0A202556
:102CF0003033752E253033752E253033752E253023
:102D000033750000570000103A0000105D000010FD
:102D100020202045544845524E45543A0A204950F7
:102D2000E0E4F0E5F13A0A20253033752E25303302
:102D3000752E253033752E253033750A20CCE0F101
:102D4000EAE020EFEEE4F1E5F2E83A00BA00001024
:102D5000B8000010B6000010B4000010846001003C
:102D600020202045544845524E45543A0A20CCE094
:102D7000F1EAE020EFEEE4F1E5F2E83A0A2025304E
:102D800033752E253033752E253033752E2530338F
:102D9000750A20D8EBFEE73A000000004FF01F0252
:102DA00002EB8000FA4A1154FA48007801EB8000E7
:102DB0001154E8E4F848B0F90000F849B1F90010FE
:102DC000F74AB2F90020F74BB3F90030CDE90232EF
:102DD000CDE90410F448B0F90000F449B1F900104D
:102DE000CDE90010F248B0F90030F248B0F9002007
:102DF000F1A1E7480BF00CFCFF480078E8B1FF4870
:102E00000078012819D14FF02001E24800784FF0F6
:102E10000E0202EB8000DE4A1154DE4800784FF0CB
:102E20000F0202EB8000DA4A1154DA4800784FF0C2
:102E3000100202EB8000D64A1154EF480078E8B146
:102E4000EE480078032819D14FF02001D1480078CE
:102E50004FF0260202EB8000CD4A1154CD48007895
:102E60004FF0270202EB8000C94A1154C94800788C
:102E70004FF0280202EB8000C54A115483E4E04879
:102E8000B0F90010C448B0F90000C44AB2F90020FB
:102E9000CDE900200291C248B0F90030C148B0F934
:102EA0000020D8A1BA480BF0B3FBD3480078E8B1B2
:102EB000D2480078022819D14FF02001B548007897
:102EC0004FF0150202EB8000B14A1154B14800786E
:102ED0004FF0160202EB8000AD4A1154AD48007865
:102EE0004FF0170202EB8000A94A11544BE4D4487A
:102EF000B0F90000C249B1F90010A74AB2F90020A8
:102F0000A64BB3F90030CDE90032CDE90210A44858
:102F1000B0F90030A348B0F90020CA499C480BF032
:102F200077FBB5480078E8B1B4480078012819D19A
:102F30004FF02001974800784FF00E0202EB80001E
:102F4000934A1154934800784FF00F0202EB80002F
:102F50008F4A11548F4800784FF0100202EB800026
:102F60008B4A11540FE4B648B0F90030A448B0F9C8
:102F70000020B5A186480BF04BFB04E44FF00000A5
:102F80000A9009E0BF490A98095C0BAA11540A98F3
:102F900000F10100C0B20A900A980A28F2DB9648B4
:102FA0000078C8B195480078032815D14FF05F002C
:102FB0000BA9784A12788854B248FDF7E2F87549AF
:102FC0000978884208D10BA8FDF7DBF800F1010071
:102FD0000BA94FF00A020A540BAB9948B0F9002034
:102FE000A9A16B480BF014FB2EE44FF000000A90EF
:102FF00009E0A4490A98095C0BAA11540A9800F147
:103000000100C0B20A900A980A28F2DB7A480078D8
:10301000C8B17A480078022815D14FF05F010BA89B
:103020005C4A127881549748FDF7ABF85949097802
:10303000884208D10BA8FDF7A4F800F101000BA904
:103040004FF00A020A540BAA9BA151480BF0E0FA78
:103050002AE44FF000000A9009E08A490A98095CC6
:103060000BAA11540A9800F10100C0B20A900A9804
:103070000A28F2DB60480078C8B16048007801286F
:1030800015D14FF05F000BA9424A127888547D4851
:10309000FDF777F83F490978884208D10BA8FDF77A
:1030A00070F800F101000BA94FF00A020A548E4893
:1030B000B0F900008D49B1F900108D4AB2F9002035
:1030C000CDE9002102908B48B0F900300BAA8AA10B
:1030D0002F480BF09DFA4848007850B347480078D5
:1030E000032826D10BA8FDF74CF800F1210029494F
:1030F000097800EB810026494FF020020A540BA802
:10310000FDF73FF800F122002249097800EB810029
:103110001F494FF020020A540BA8FDF732F800F1C6
:1031200023001C49097800EB810019494FF0200267
:103130000A543EE46C48B0F900006C49B1F9001043
:10314000CDE900106A48B0F900306A48B0F90020B3
:103150003C4944310E480BF05BFA27480078A8B18F
:1031600026480078022811D14FF020010948007844
:103170004FF01F0202EB8000054A11540548007809
:1031800001EB8000115403480078D1E0D6E0000044
:103190001E0A00105D000010C2000010C0000010E8
:1031A000BE000010BC000010BA000010B8000010F3
:1031B000B6000010B40000102020204554484552AD
:1031C0004E45543A0A20253033752E253033752E5E
:1031D000253033752E253033750A20D8EBFEE73ABB
:1031E0000A20253033752E253033752E2530337562
:1031F0002E25303375000000570000103A000010F3
:10320000C400001020202045544845524E45543AF1
:103210000A20D8EBFEE73A0A20253033752E2530F8
:1032200033752E253033752E253033750A20CFEEB9
:10323000F0F22EF7F2E5EDE8FF20252D75000000F5
:10324000C6000010CC6001002020204554484552A3
:103250004E45543A0A20CFEEF0F220F7F2E5EDE8C1
:10326000FF20252D750A20CFEEF0F220E7E0EFE8F1
:10327000F1E820252D750A20436F6D6D756E697418
:10328000793A00001A000010202020455448455289
:103290004E45543A0A20CFEEF0F220E7E0EFE8F195
:1032A000E820252D750A20436F6D6D756E69747960
:1032B0003A0A20257300000020202045544845523A
:1032C0004E45543A0A20436F6D6D756E6974793AB4
:1032D0000A2025730A20C0E4F0E5F1E0F220545200
:1032E0004150204E31000000CE000010CC000010F4
:1032F000CA000010C8000010202020455448455244
:103300004E45543A0A2025730A20C0E4F0E5F1E066
:10331000F22054524150204E310A20253033752E70
:10332000253033752E253033752E2530337500004A
:103330004FF0210202EB8000FF4A115439E5FF48AB
:10334000B0F90000FE49B1F90010FE4AB2F90020C0
:10335000FD4BB3F90030CDE90232CDE90410FB4852
:10336000B0F90000FA49B1F90010CDE90010F948B0
:10337000B0F90030F848B0F90020F849EE480BF0F9
:1033800047F9F7480078E8B1F6480078012819D1E4
:103390004FF02001F44800784FF00E0202EB80005D
:1033A000E54A1154F04800784FF00F0202EB80001C
:1033B000E14A1154EC4800784FF0100202EB800013
:1033C000DD4A1154E6480078E8B1E6480078032861
:1033D00019D14FF02001E44800784FF0300202EBA1
:1033E0008000D54A1154E04800784FF0310202EBDA
:1033F0008000D14A1154DC4800784FF0320202EBD1
:103400008000CD4A1154D4E4CC48B0F90000CC4936
:10341000B1F90010CDE90010CA48B0F90030CA482F
:10342000B0F90020CD494831C3480BF0F1F8CC4841
:103430000078D0B1CB480078022816D14FF0200197
:10344000C94800784FF01F0202EB8000BA4A1154BD
:10345000C548007801EB80001154C34800784FF054
:10346000210202EB8000B44A1154A2E4BF48B0F933
:103470000000BF49B1F90010BE4AB2F90020BE4BAE
:10348000B3F90030CDE90232CDE90410AB48B0F910
:103490000000AB49B1F90010CDE90010A948B0F91E
:1034A0000030A948B0F90020AC498C31A2480BF09B
:1034B000AFF8AB480078E8B1AA480078012819D1E4
:1034C0004FF02001A84800784FF00E0202EB800078
:1034D000994A1154A44800784FF00F0202EB800083
:1034E000954A1154A04800784FF0100202EB80007A
:1034F000914A11549A480078E8B19A480078032814
:1035000019D14FF02001984800784FF0300202EBBB
:103510008000894A1154944800784FF0310202EB40
:103520008000854A1154904800784FF0320202EB37
:103530008000814A11543CE48C48B0F900008C4969
:10354000B1F90010CDE900108A48B0F900308A487E
:10355000B0F900208149D43177480BF059F8804800
:103560000078D0B17F480078022816D14FF02001B2
:103570007D4800784FF01F0202EB80006E4A115424
:103580007948007801EB80001154774800784FF0BB
:10359000210202EB8000684A11540AE47748B0F92E
:1035A00000007749B1F90010764AB2F90020764B55
:1035B000B3F90030CDE90232CDE904106B48B0F91F
:1035C00000006B49B1F90010CDE900106948B0F96D
:1035D00000306948B0F900206C4957480BF018F8E2
:1035E0005F480078E8B15F480078012819D14FF0B2
:1035F00020015D4800784FF00E0202EB80004E4A39
:103600001154594800784FF00F0202EB80004A4AEB
:103610001154554800784FF0100202EB8000464AE2
:1036200011544F480078E8B14E480078032819D16A
:103630004FF020014C4800784FF0300202EB800040
:103640003D4A1154484800784FF0310202EB8000A7
:10365000394A1154444800784FF0320202EB80009E
:10366000354A11540AE44548B0F900004449B1F91B
:103670000010CDE900104348B0F900304248B0F9DD
:103680000020424948312C480AF0C2FF34480078F3
:10369000D0B134480078022816D14FF020013248CA
:1036A00000784FF01F0202EB8000234A11542E488D
:1036B000007801EB800011542B4800784FF0210274
:1036C00002EB80001C4A115410E43148B0F900208C
:1036D0003048B0F900103048B0F900002F4BB3F972
:1036E0000030CDE90230CDE904122448B0F90000E1
:1036F0002349B1F90010CDE900102248B0F900309B
:103700002148B0F9002021498C310B480AF080FF94
:103710001348007878B11348007801284FD14FF052
:103720002001114800784FF00E0202EB8000024A9F
:1037300011540D4834E042E01E0A0010D60000107B
:10374000D4000010D2000010D0000010CE000010F5
:10375000CC000010CA000010C80000105461010025
:10376000570000103A0000105D000010DE0000104D
:10377000DC000010DA000010D8000010E600001095
:10378000E4000010E2000010E00000106C62010094
:10379000EE000010EC000010EA000010E80000103D
:1037A00000784FF00F0202EB8000B14A1154B1488B
:1037B00000784FF0100202EB8000AD4A1154AE4881
:1037C0000078E8B1AD480078032819D14FF0200106
:1037D000A84800784FF0300202EB8000A44A115450
:1037E000A44800784FF0310202EB8000A04A115447
:1037F000A04800784FF0320202EB80009C4A11543E
:1038000026E49F48B0F900009E49B1F90010CDE9C7
:1038100000109D48B0F900309C48B0F900209CA1F0
:1038200093480AF0F5FE94480078D0B193480078A8
:10383000022816D14FF020018E4800784FF01F0269
:1038400002EB80008A4A11548A48007801EB80001C
:103850001154884800784FF0210202EB8000844A1E
:10386000115466E499A182480AF0D2FE61E4A048AE
:10387000007818B1AFF6AC400E9002E0AFF6C4404D
:103880000E909B48C0789A498978CDE900109848F5
:10389000407809900E980890024696A17448099BBA
:1038A0000AF0B6FE45E4924800799149C978CDE91D
:1038B00000108F48807809908D4840780890024623
:1038C0009AA16B48099B0AF0A3FE32E4884840792C
:1038D00087490979CDE900108548C0780990844866
:1038E0008078089002469EA16148099B0AF090FEEC
:1038F0001FE47F4880797E494979CDE900107C48F2
:10390000007909907A48C07808900246A0A15848EA
:10391000099B0AF07DFE0CE47548C07974498979E9
:10392000CDE90010724840790990714800790890FB
:103930000246A2A14E48099B0AF06AFEFEE46C48CA
:10394000007A6B49C979CDE90010694880790990FE
:103950006748407908900246A3A14548099B0AF0B0
:1039600057FEEBE46248407A6149097ACDE90010DC
:103970005F48C07909905E48807908900246A5A109
:103980003B48099B0AF044FED8E45948407A00902D
:103990005748007A09905648C07908900246A7A176
:1039A0003348099B0AF034FEC8E433480078C8B1B4
:1039B000AB48007820B9ABA12D480AF029FE15E0EC
:1039C000A7480078012804D1B2A129480AF020FEB6
:1039D0000CE0A3480078022808D1BAA124480AF0D4
:1039E00017FE03E0C3A122480AF012FEA6E4224813
:1039F0000078D0B19A480078012804D1CCA11C48A5
:103A00000AF006FE15E096480078022804D1D4A1F9
:103A100017480AF0FDFD0CE091480078032808D112
:103A2000DBA113480AF0F4FD03E0E5A110480AF019
:103A3000EFFD83E410480078B8B189480078022887
:103A400004D1EEA10A480AF0E3FD27E28448007899
:103A5000032804D1F5A106480AF0DAFD1EE28048E9
:103A60000078042802D1FDA110E213E211E2000067
:103A70001E0A00105D000010570000103A000010F0
:103A8000EE000010EC000010EA000010E80000104A
:103A900020202045544845524E45543A0A20C0E45F
:103AA000F0E5F1E0F22054524150204E350A202535
:103AB0003033752E253033752E253033752E253055
:103AC00033750A20C2DBD5CEC4000000202020457B
:103AD000544845524E45543A0A2045746865726E02
:103AE000657420C2DBCACB0A20C2DBD5CEC40A0073
:103AF000CC05001020C3EB2EECE5EDFE2025730A6B
:103B000020F7E5F0E5E720252D75F1E5EA0A20E844
:103B1000EDF2E5F0E2E0EB20252D75F1E5EA0A2073
:103B20002025632055E2FBF50000000020F7E5F0BA
:103B3000E5E720252D75F1E5EA0A20E8EDF2E5F04C
:103B4000E2E0EB20252D75F1E5EA0A20202563202F
:103B500055E2FBF50A202025632049E2FBF5000031
:103B600020E8EDF2E5F0E2E0EB20252D75F1E5EA45
:103B70000A202025632055E2FBF50A20202563203A
:103B800049E2FBF50A2020256320D0E2FBF5000086
:103B9000202025632055E2FBF50A202025632049DB
:103BA000E2FBF50A2020256320D0E2FBF50A202065
:103BB00025632055F1E5F2E8000000002020256390
:103BC0002049E2FBF50A2020256320D0E2FBF50A1C
:103BD000202025632055F1E5F2E80A202025632006
:103BE00055E1E0F2000000002020256320D0E2FB38
:103BF000F50A202025632055F1E5F2E80A2020256A
:103C0000632055E1E0F20A202025632049E1E0F23B
:103C100000000000202025632055F1E5F2E80A208D
:103C20002025632055E1E0F20A202025632049E1A8
:103C3000E0F20A2020256320746000002020256324
:103C40002055E1E0F20A202025632049E1E0F20A54
:103C5000202025632074600A20C2DBD5CEC400007A
:103C600078000010202020D0E5EBE520313A0A2032
:103C7000200A20E0E2E0F0E8FF20F1E5F2E820CDC4
:103C8000D00A20E0E2E0F0E8FF2055E2FBF520CD8D
:103C9000C7000000202020D0E5EBE520313A0A20C3
:103CA000E0E2E0F0E8FF20F1E5F2E820CDC70A20ED
:103CB0000A20E0E2E0F0E8FF2055E2FBF520CDC766
:103CC00000000000202020D0E5EBE520313A0A205A
:103CD000E0E2E0F0E8FF20F1E5F2E820CDC70A20BD
:103CE000E0E2E0F0E8FF20F1E5F2E820CDD00A20A4
:103CF00000000000202020D0E5EBE520313A0A202A
:103D0000E0E2E0F0E8FF20F1E5F2E820CDC70A208C
:103D1000E0E2E0F0E8FF20F1E5F2E820CDD00A2073
:103D2000E0E2E0F0E8FF2055E2FBF520CDC700001F
:103D3000202020D0E5EBE520313A0A200A20E0E2FD
:103D4000E0F0E8FF2055E2FBF520CDC70A20E0E2D5
:103D5000E0F0E8FF2055E2FBF520485000000000AD
:103D6000202020D0E5EBE520313A0A20E0E2E0F027
:103D7000E8FF20F1E5F2E820CDD00A200A20E0E2B9
:103D8000E0F0E8FF2055E2FBF5204850000000007D
:103D9000202020D0E5EBE520313A0A20E0E2E0F0F7
:103DA000E8FF20F1E5F2E820CDD00A20E0E2E0F0E3
:103DB000E8FF2055E2FBF520CDC70A2000000000F7
:103DC000202020D0E5EBE520313A0A20E0E2E0F0C7
:103DD000E8FF20F1E5F2E820CDD00A20E0E2E0F0B3
:103DE000E8FF2055E2FBF520CDC70A20E0E2E0F035
:103DF000E8FF2055E2FBF52048500000202020D0AD
:103E0000E5EBE520313A0A200A20E0E2E0F0E8FFA5
:103E10002055E2FBF52048500A20C0CAC120F0E03E
:103E2000E7F0FFE62E20CDC700000000202020D0C4
:103E3000E5EBE520313A0A20E0E2E0F0E8FF20552A
:103E4000E2FBF520CDC70A200A20C0CAC120F0E05D
:103E5000E7F0FFE62E20CDC700000000202020D094
:103E6000E5EBE520313A0A20E0E2E0F0E8FF2055FA
:103E7000E2FBF520CDC70A20E0E2E0F0E8FF2055A4
:103E8000E2FBF52048500A20000000005B480AF0E1
:103E9000BFFB03E05AA159480AF0BAFBB5E36748F3
:103EA0000078D0B166480078032804D165A1534852
:103EB0000AF0AEFB15E062480078042804D16DA139
:103EC0004E480AF0A5FB0CE05D480078052808D1B3
:103ED00074A14A480AF09CFB03E07EA147480AF01F
:103EE00097FB92E35548007888B15548007804283C
:103EF00004D187A141480AF08BFB0CE050480078C0
:103F0000052808D18BA13D480AF082FB03E092A16D
:103F10003A480AF07DFB78E348480078C8B19B48EE
:103F2000007820B99AA135480AF072FB15E097484D
:103F30000078012804D1A2A130480AF069FB0CE006
:103F400092480078022808D1A9A12C480AF060FB09
:103F500003E0B3A129480AF05BFB56E33748007839
:103F6000D0B18A480078012804D1BCA123480AF0C6
:103F70004FFB15E085480078022804D1C3A11F48F3
:103F80000AF046FB0CE081480078032808D1CBA159
:103F90001A480AF03DFB03E0D4A118480AF038FBA8
:103FA00033E326480078D0B178480078022804D15D
:103FB000DDA112480AF02CFB15E0744800780328B4
:103FC00004D1E5A10D480AF023FB0CE06F4800780E
:103FD000042808D1ECA109480AF01AFB03E0F6A175
:103FE00006480AF015FB10E31448007820B1674832
:103FF0000078032801D1FDE113E200E21E0A00105F
:10400000202020D0E5EBE520313A0A20E0E2E0F084
:10401000E8FF2055E2FBF520CDC70A20E0E2E0F002
:10402000E8FF2055E2FBF52048500A20C0CAC12015
:10403000F0E0E7F0FFE62E20CDC7000057000010AB
:1040400078000010202020D0E5EBE520313A0A204E
:104050000A20C0CAC120F0E0E7F0FFE62E20CDC75D
:104060000A20C0CAC120F0E0E7F0FFE62E20CDD044
:1040700000000000202020D0E5EBE520313A0A20A6
:10408000E0E2E0F0E8FF2055E2FBF52048500A208E
:104090000A20C0CAC120F0E0E7F0FFE62E20CDD014
:1040A00000000000202020D0E5EBE520313A0A2076
:1040B000E0E2E0F0E8FF2055E2FBF52048500A205E
:1040C000C0CAC120F0E0E7F0FFE62E20CDC70A20ED
:1040D00000000000202020D0E5EBE520313A0A2046
:1040E000E0E2E0F0E8FF2055E2FBF52048500A202E
:1040F000C0CAC120F0E0E7F0FFE62E20CDC70A20BD
:10410000C0CAC120F0E0E7F0FFE62E20CDD00000CD
:10411000202020D0E5EBE520313A0A200A20C0CA51
:10412000C120F0E0E7F0FFE62E20CDD00A20C2DB70
:10413000D5CEC400202020D0E5EBE520313A0A207E
:10414000C0CAC120F0E0E7F0FFE62E20CDC70A206C
:104150000A20C2DBD5CEC400202020D0E5EBE5202C
:10416000313A0A20C0CAC120F0E0E7F0FFE62E2075
:10417000CDC70A20C0CAC120F0E0E7F0FFE62E203C
:10418000CDD00A20C2DBD5CEC400000079000010DB
:10419000202020D0E5EBE520323A0A20200A20E05A
:1041A000E2E0F0E8FF20F1E5F2E820CDD00A20E0DF
:1041B000E2E0F0E8FF2055E2FBF520CDC70000006B
:1041C000202020D0E5EBE520323A0A20E0E2E0F0C2
:1041D000E8FF20F1E5F2E820CDC70A200A20E0E25E
:1041E000E0F0E8FF2055E2FBF520CDC7000000001D
:1041F000202020D0E5EBE520323A0A20E0E2E0F092
:10420000E8FF20F1E5F2E820CDC70A20E0E2E0F087
:10421000E8FF20F1E5F2E820CDD00A200000000000
:10422000202020D0E5EBE520323A0A20E0E2E0F061
:10423000E8FF20F1E5F2E820CDC70A20E0E2E0F057
:10424000E8FF20F1E5F2E820CDD00A20E0E2E0F03E
:10425000E8FF2055E2FBF520CDC70000202020D04C
:10426000E5EBE520323A0A200A20E0E2E0F0E8FF40
:104270002055E2FBF520CDC70A20E0E2E0F0E8FFA0
:104280002055E2FBF520485000000000202020D0FF
:10429000E5EBE520323A0A20E0E2E0F0E8FF20F129
:1042A000E5F2E820CDD00A200A20E0E2E0F0E8FFC5
:1042B0002055E2FBF520485000000000202020D0CF
:1042C000E5EBE520323A0A20E0E2E0F0E8FF20F1F9
:1042D000E5F2E820CDD00A20E0E2E0F0E8FF20554A
:1042E000E2FBF520CDC70A2000000000202020D0EE
:1042F000E5EBE520323A0A20E0E2E0F0E8FF20F1C9
:10430000E5F2E820CDD00A20E0E2E0F0E8FF205519
:10431000E2FBF520CDC70A20E0E2E0F0E8FF2055FF
:10432000E2FBF52048500000202020D0E5EBE520FE
:10433000323A0A200A20E0E2E0F0E8FF2055E2FBF2
:10434000F52048500A20C0CAC120F0E0E7F0FFE69F
:104350002E20CDC700000000202020D0E5EBE52076
:10436000323A0A20E0E2E0F0E8FF2055E2FBF520D7
:10437000CDC70A200A20C0CAC120F0E0E7F0FFE65E
:104380002E20CDC700000000202020D0E5EBE52046
:10439000323A0A20E0E2E0F0E8FF2055E2FBF520A7
:1043A000CDC70A20E0E2E0F0E8FF2055E2FBF5206F
:1043B00048500A2000000000202020D0E5EBE52036
:1043C000323A0A20E0E2E0F0E8FF2055E2FBF52077
:1043D000CDC70A20E0E2E0F0E8FF2055E2FBF5203F
:1043E00048500A20C0CAC120F0E0E7F0FFE62E20C6
:1043F000CDC70000BFA1CB480AF00AF915E0CA48B2
:104400000078042804D1C9A1C6480AF001F90CE0DB
:10441000C5480078052808D1D0A1C2480AF0F8F8AC
:1044200003E0DAA1BF480AF0F3F8EEE0E6480078CE
:1044300088B1BD480078042804D1E4A1B9480AF045
:10444000E7F80CE0B8480078052808D1E8A1B5489D
:104450000AF0DEF803E0EFA1B2480AF0D9F8D4E0A0
:10446000F948B0F900000A2190FBF1F00246F7A1EB
:104470000990AC480AF0CCF8C7E0F748B0F9000062
:10448000FBF7C7FEF5490690FBF783FE0790FBF7A5
:10449000C9FE02460B46CDE90801F1A1A1480AF088
:1044A000B7F8B2E0F148B0F90020F1A19D480AF058
:1044B000AFF8AAE0F148B0F900000A2190FBF1F052
:1044C0000246EFA1099097480AF0A2F89DE0EF4854
:1044D00000880A2190FBF1F201FB12000990EB48E1
:1044E000008890FBF1F008900246E9A18D48099BF5
:1044F0000AF08EF889E0EA48B0F90000B0F5FA7FDA
:1045000005DCE748B0F9000010F5FA7F1EDAE44850
:10451000B0F900004FF00A0190FBF1F000B2E04961
:1045200008800846B0F90000FBF773FECB490690FF
:10453000FBF72FFE0790FBF775FE02460B46CDE911
:104540000801D8A177480AF063F813E0D448B0F91D
:104550000000FBF75EFED6490690FBF71AFE0790B7
:10456000FBF760FE02460B46CDE90801D1A16D487C
:104570000AF04EF849E022200090D148B0F900300E
:104580002222D0A167480AF043F83EE0D1480288D1
:10459000D1A164480AF03CF837E0CE480288D8A19F
:1045A00060480AF035F830E0CA480288DEA15D486C
:1045B0000AF02EF829E0E6A15A480AF029F8EB485B
:1045C00001780078401EE94A1070E9B9E84800888F
:1045D000B82807D1E7480078E7490870E74800782D
:1045E000E7490870E2480088A0F54071693907D1B1
:1045F000E4480078E0490870E3480078E049087032
:104600004FF00000DA49088000BF00BF2DB000BDA8
:1046100010B5FDF70EFCD8480078EF2811DDD6481C
:104620000078F7280DDA4FF00600D84908704FF0EF
:104630000202084601783B48FCF7B2FDFCF716FE83
:1046400018E04FF01000D14908704FF004020846FE
:1046500001783448FCF7A4FDC7480078FA2807DA47
:104660004FF03E01C64800782E4A02EB0010017060
:10467000FDF7C7F94FF0000408E0C549095D084699
:1046800008F09EFE04F1010000B20446B4F5806F0C
:10469000F3DB10BDBA48007830B1B9480078A0F11A
:1046A0000100B749087005E0B3480078A0F10100A7
:1046B000B14908707047B2480078032806D1AE4867
:1046C000007800F10100AC49087005E0AC480078C2
:1046D00000F10100AA4908707047A9480078012834
:1046E00006DDA7480078A0F10100A549087057E150
:1046F00050E10000202020D0E5EBE520323A0A20EE
:104700000A20C0CAC120F0E0E7F0FFE62E20CDC7A6
:104710000A20C0CAC120F0E0E7F0FFE62E20CDD08D
:10472000000000001E0A001079000010202020D098
:10473000E5EBE520323A0A20E0E2E0F0E8FF205520
:10474000E2FBF52048500A200A20C0CAC120F0E050
:10475000E7F0FFE62E20CDD000000000202020D082
:10476000E5EBE520323A0A20E0E2E0F0E8FF2055F0
:10477000E2FBF52048500A20C0CAC120F0E0E7F073
:10478000FFE62E20CDC70A2000000000202020D008
:10479000E5EBE520323A0A20E0E2E0F0E8FF2055C0
:1047A000E2FBF52048500A20C0CAC120F0E0E7F043
:1047B000FFE62E20CDC70A20C0CAC120F0E0E7F0F6
:1047C000FFE62E20CDD0000057000010202020D082
:1047D000E5EBE520323A0A200A20C0CAC120F0E009
:1047E000E7F0FFE62E20CDD00A20C2DBD5CEC400F4
:1047F000202020D0E5EBE520323A0A20C0CAC120B3
:10480000F0E0E7F0FFE62E20CDC70A200A20C2DB49
:10481000D5CEC400202020D0E5EBE520323A0A2096
:10482000C0CAC120F0E0E7F0FFE62E20CDC70A2085
:10483000C0CAC120F0E0E7F0FFE62E20CDD00A206C
:10484000C2DBD5CEC40000003AE007202055E2FBD1
:10485000F50A20252D7542003CE00720000020418C
:104860002049E2FBF50A252E3166C00040E0072012
:104870002050E2FBF50A252D6442F20016E00720E5
:1048800055F1E5F2E80A252D7542000032E00720D7
:104890002055E1E0F20A252D752E252D75420000E8
:1048A00034E007202049E1E0F20A252E316641007C
:1048B0000000C8422049E1E0F20A252E326641009C
:1048C0003EE0072020207425630A20252D642563FF
:1048D0004300000058000010C2E2E5E4E8F2E520E1
:1048E000EFE0F0EEEBFC3A0A2020202020202530DB
:1048F0003375200A20202020202020202A0A0000B2
:10490000C2E2E5E4E8F2E520EFE0F0EEEBFC3A0A83
:1049100020202020202025303375200A2020202030
:104920002020202A0A000000C2E2E5E4E8F2E520A7
:10493000EFE0F0EEEBFC3A0A20202020202025308A
:104940003375200A2020202020202A0A00000000A1
:104950000A2020202020CFE0F0EEEBFC0A202020CF
:1049600020EDE520E2E5F0E5ED210A005C00001015
:104970005A00001038000010370000103B000010F3
:104980003A000010390000103C0000102101001016
:104990001E060010FF480078A0F10100FD490870D4
:1049A000704710B50021642007F013FD0021662038
:1049B00007F00FFDC021682007F00BFDA8216A2039
:1049C00007F007FD01216C2007F003FDF9216E209F
:1049D00007F0FFFCFF21702007F0FBFCFF21722095
:1049E00007F0F7FCFF21742007F0F3FC002176208C
:1049F00007F0EFFCC021A42007F0EBFCA821A620C3
:104A000007F0E7FC0121A82007F0E3FCFE21AA2023
:104A100007F0DFFCA121C82007F0DBFCA221CA209F
:104A200007F0D7FC7021CC2007F08FFC7521CD203A
:104A300007F08BFC6221CE2007F087FC6C21CF2091
:104A400007F083FC6921D02007F07FFC6321D1208F
:104A500007F07BFC0021D22007F077FCC021EC207E
:104A600007F0B7FCA821EE2007F0B3FC0121F020ED
:104A700007F0AFFC0221F22007F0ABFCC021F420CC
:104A800007F0A7FCA821F62007F0A3FC0121F820DD
:104A900007F09FFC0421FA2007F09BFCC021FC20BA
:104AA00007F097FCA821FE2007F093FC01210802E3
:104AB00007F08FFC06214FF4817007F08AFCC021BB
:104AC0004FF4827007F085FCA8214FF4837007F043
:104AD00080FC01214FF4847007F07BFC08214FF427
:104AE000857007F076FCC0214FF4867007F071FCEA
:104AF000A8214FF4877007F06CFC01214FF48870F7
:104B000007F067FC09214FF4897007F062FC00216F
:104B10004FF4E17007F05DFC1E214FF4E27007F0E6
:104B200058FC03214FF4E37007F053FC4FF00300EF
:104B300004460BE04FF4E17101EB440108462D21DE
:104B400007F047FC04F10100C0B204460B2CF1DB76
:104B500010BD1FB58F4800788F4909780844372861
:104B600001F032873ADC83F0AF84DFE810F08D008B
:104B70009B00B400CD00E600FF0022013B01720162
:104B8000E218E218E218E218E218E218E218E21855
:104B9000E218E218E218E2188F01B601FA014902A0
:104BA0009802C902FA024C03E218E2186B03C6032A
:104BB0004604AD0414059805FF058806CF062C07AA
:104BC0006B07A507E807140832094C09860AA00AF2
:104BD000DB0B3A0C990CB30CF50D0F0E502802F0BC
:104BE00098871DDCA0F138001828BCD2DFE810F04F
:104BF000060F3E1058109611B011D612F012341450
:104C0000A118A118A11858148214A118A814E1140D
:104C10003615AE15F31538167D16C21607174C1744
:104C20005C2803F0278110DCA0F151000B289AD2F8
:104C3000DFE810F0A217C417F317221851188018D4
:104C4000AF18DE187F187F18FE18612803F00F8256
:104C50000DDC5D2803F03D815E2803F069815F284B
:104C600003F0A781602843F02F8403F0D1B96228B4
:104C700003F02C82FA2803F04982FB2803F0D68245
:104C8000FC28F0D103F08EBB44480088022807D1ED
:104C90004248008800F1010040490880FFF70BFD01
:104CA00003F012BC3E480088022807D13C48008827
:104CB00000F101003A490880FFF7ECFC3748008812
:104CC000022807D13548008800F1010033490880E7
:104CD000FFF7F1FCE4E732480088022807D13048AA
:104CE000008800F101002E490880FFF7D3FC2B4813
:104CF0000088022807D12948008800F101002749CF
:104D00000880FFF7D8FCCBE725480088022807D1A8
:104D10002348008800F1010021490880FFF7BAFC10
:104D20001E480088022807D11C48008800F10100B5
:104D30001A490880FFF7BFFCB2E71948008802282B
:104D400007D11748008800F1010015490880FFF7D6
:104D5000A1FC12480088022807D11048008800F101
:104D600001000E490880FFF7A6FC99E70C4800886F
:104D7000022807D10A48008800F10100084908808C
:104D8000FFF788FC05480088022811D103480088F5
:104D900008E00000370000103A0000104E0000103C
:104DA0005000001000F10100FF490880FFF783FC6C
:104DB00076E7FE480088022807D1FC48008800F109
:104DC0000100FA490880FFF765FCF74800880228CF
:104DD00007D1F548008800F10100F3490880FFF78A
:104DE0006AFC5DE7F1480088022807D1EF48008897
:104DF00000F10100ED490880FFF74CFCEA4800880B
:104E0000022807D1E848008800F10100E64908803F
:104E1000FFF751FCE6480088022819D1E4480088D1
:104E200000F10100E2490880E2480078E249087098
:104E3000E2480078E24908704FF0FC00DD49087054
:104E40004FF00000DD4908704FF0B800DD490880E0
:104E500026E7D6480088022807D1D448008800F108
:104E60000100D2490880FFF715FCD14800880228CC
:104E70000BD1CF48008800F10100CD4908804FF0E8
:104E80000000CC490870CD49087009E7C648008881
:104E9000022807D1C448008800F10100C2490880F7
:104EA000FFF709FCC2480088022815D1C0480088D5
:104EB00000F10100BE490880BE480078C249087070
:104EC000BE480078C14908704FF00000BB49087027
:104ED0004FF04600B7490870E2E6B448008802285F
:104EE00010D1B248008800F10100B0490880B148F3
:104EF0000078152804D14FF01400AE49087001E085
:104F0000FFF7EBFBA8480088022807D1A6480088D5
:104F100000F10100A4490880FFF7CDFBA4480088F8
:104F200002281DD1A248008800F10100A049088094
:104F3000A0480078A4490870A0480078A3490870E8
:104F40004FF001009D490870A148008820B14FF042
:104F500028009849087003E04FF042009549087016
:104F60009EE692480088022807D19048008800F108
:104F700001008E490880FFF7B0FB8B4800880228AB
:104F800007D18948008800F1010087490880FFF7B0
:104F900092FB90480088022803D08E4800881E2883
:104FA00012D14FF003008B4908804FF000004FF002
:104FB0009403CDE9003002904FF0EE024FF01B0158
:104FC0000390084607F042FB83480088022803D07C
:104FD000814800881E2812D14FF003007E490880C6
:104FE0004FF000004FF09203CDE9003002904FF0F7
:104FF000EE024FF01B010390084607F027FB4FE637
:105000006A480088022807D16848008800F101003A
:1050100066490880FFF761FB63480088022807D1D2
:105020006148008800F101005F490880FFF743FBF9
:1050300068480088022803D0664800881E2812D1DC
:105040004FF00300634908804FF000004FF08403E5
:10505000CDE9003002904FF0EE024FF01B010390BB
:10506000084607F0F3FA5C480088022803D05A4843
:1050700000881E2812D14FF00300574908804FF0D6
:1050800000004FF08203CDE9003002904FF0EE02B5
:105090004FF01B010390084607F0D8FA00E643489A
:1050A0000088022807D14148008800F101003F49EB
:1050B0000880FFF712FB3C480088022807D13A48D5
:1050C000008800F1010038490880FFF7F4FA3848F9
:1050D0000088022813D14FF003003E49088035486C
:1050E00000783949087035480078384908704FF021
:1050F0005000304908704FF0010030490870CFE58A
:105100002A480088022807D12848008800F10100B9
:1051100026490880FFF7E1FA23480088022807D1D2
:105120002148008800F101001F490880FFF7C3FAF9
:105130001F480088022813D14FF00300254908803A
:105140001C480078204908701C4800781F490870E6
:105150004FF05A00174908704FF0010017490870C6
:105160009EE512480088022807D11048008800F107
:1051700001000E490880FFF7B0FA0B4800880228AA
:1051800007D10948008800F1010007490880FFF7AE
:1051900092FA07480088022834D10548008800F1B7
:1051A00001000349088019E04E0000105000001073
:1051B0005200001037000010380000103A000010B4
:1051C0003B0000105A000010390000103C00001095
:1051D000A80000104C0000104A000010FF480078A2
:1051E000FF490870FF480078FF4908704FF0FC0045
:1051F000FA4908704FF00000FA49087040F269302F
:10520000FA4908804CE5FA480088022807D1F84896
:10521000008800F10100F6490880FFF75EFAF548C2
:10522000008802280DD1F348008800F10100F149FF
:105230000880F1480078E9490870F0480078E949A9
:1052400008702DE5EE480088022807D1EC48008858
:1052500000F10100EA490880FFF72DFAE9480088CB
:10526000022803D0E748008805281ED14FF003002C
:10527000E4490880E4480078FF280BD1002005238A
:10528000CDE900300290EE221B210390084607F082
:10529000DDF90AE000210423CDE900310291EE227C
:1052A00003911B21084607F0D1F9D848008802284D
:1052B00003D0D648008805281ED14FF00300D349FB
:1052C0000880D3480078FF280BD100200323CDE9C4
:1052D00000300290EE221B210390084607F0B6F939
:1052E0000AE000200223CDE900300290EE221B21CB
:1052F0000390084607F0AAF9D2E4BD4800880228C6
:1053000007D1BB48008800F10100B9490880FFF7C8
:10531000E4F9BB480088022807D1B948008800F1A9
:105320000100B7490880FFF7C6F9B648008802288F
:1053300003D0B448008805281ED14FF00300B149BE
:105340000880B1480078FF280BD100202523CDE943
:1053500000300290EE221B210390084607F076F9F8
:105360000AE000202423CDE900300290EE221B2128
:105370000390084607F06AF9A4480088022803D081
:10538000A248008805281ED14FF003009F490880DD
:105390009F480078FF280BD100202323CDE900305F
:1053A0000290EE221B210390084607F04FF90AE015
:1053B00000202223CDE900300290EE221B21039031
:1053C000084607F043F98B480088022814D1894821
:1053D000008800F10100874908804FF000004FF07D
:1053E0002103CDE9003002904FF0EE024FF01B0197
:1053F0000390084607F02AF952E47D480088022805
:1054000007D17B48008800F1010079490880FFF747
:1054100064F97B480088022807D17948008800F1A8
:10542000010077490880FFF746F97648008802288E
:1054300003D07448008805281ED14FF0030071493D
:10544000088071480078FF280BD100206523CDE942
:1054500000300290EE221B210390084607F0F6F878
:105460000AE000206423CDE900300290EE221B21E7
:105470000390084607F0EAF864480088022803D041
:105480006248008805281ED14FF003005F4908805C
:105490005F480078FF280BD100206323CDE900305E
:1054A0000290EE221B210390084607F0CFF80AE095
:1054B00000206223CDE900300290EE221B210390F0
:1054C000084607F0C3F805E449480088022807D1D8
:1054D0004748008800F1010045490880FFF7FDF8C2
:1054E00047480088022807D14548008800F101009C
:1054F00043490880FFF7DFF842480088022803D0BC
:105500004048008805281ED14FF003003D4908801F
:105510003D480078FF280BD100205523CDE900300D
:105520000290EE221B210390084607F08FF80AE054
:1055300000205423CDE900300290EE221B2103907D
:10554000084607F083F831480088022803D02F4826
:10555000008805281ED14FF003002C4908802C48F4
:105560000078FF280BD100205323CDE900300290B2
:10557000EE221B210390084607F068F80AE000209D
:105580005223CDE900300290EE221B210390084601
:1055900007F05CF80CE416480088022807D114488C
:1055A000008800F1010012490880FFF796F81448BE
:1055B0000088022807D11248008800F10100104934
:1055C0000880FFF778F80F480088022803D00D48BC
:1055D000008805283BD14FF003001BE03700001086
:1055E000390000103A0000103C0000105A00001072
:1055F0005000001052000010380000103B00001056
:105600004E0000104C000010450000104A00001031
:1056100044000010FB490880FB480078FF280BD1AC
:1056200000203523CDE900300290EE221B210390AB
:10563000084607F00BF80AE000203423CDE90030DB
:105640000290EE221B210390084606F0FFFFEF4870
:105650000088022803D0ED48008805281ED14FF0AD
:105660000300EA490880EA480078FF280BD10020AF
:105670003323CDE900300290EE221B21039008462F
:1056800006F0E4FF0AE000203223CDE9003002906A
:10569000EE221B210390084606F0D8FF1CE4DD48EB
:1056A0000088022807D1DB48008800F10100D949B1
:1056B0000880FFF712F8D8480088022807D1D6489A
:1056C000008800F10100D4490880FEF7F4FFCD48BE
:1056D0000088022803D0CB48008805281ED14FF04F
:1056E0000300C8490880C8480078FF280BD1002073
:1056F0007523CDE900300290EE221B21039008466D
:1057000006F0A4FF0AE000207423CDE900300290E7
:10571000EE221B210390084606F098FFBB48008844
:10572000022803D0B948008805281ED14FF0030095
:10573000B6490880B6480078FF280BD100207323B3
:10574000CDE900300290EE221B210390084606F0BE
:105750007DFF0AE000207223CDE900300290EE22A6
:105760001B210390084606F071FF48E4A948008811
:10577000022807D1A748008800F10100A549088048
:10578000FEF7ABFFA4480088022807D1A248008892
:1057900000F10100A0490880FEF78DFF99480088BC
:1057A000022803D0974800880F2827D14FF0050022
:1057B00094490880944800784FF00A0190FBF1F07A
:1057C00000F101009549B1F9001088420EDA8E48C7
:1057D00000784FF00A0190FBF1F000F101008F49D1
:1057E0000988A1EB000000B28C4908808B48B0F911
:1057F000000001460390162006F0EBFD8348008868
:10580000022803D0814800880F2820D14FF00500DE
:105810007E4908808148B0F9000044F62061884242
:105820000DDA7B4800784FF00A0190FBF1F000F1AF
:1058300001007A490988084400B27849088077480D
:10584000B0F9000001460390162006F0C2FD74482E
:105850000088022812D17248008800F101007049C6
:10586000088070484088704908800846B0F90000F8
:10587000014603904FF0140006F0ABFD0EE46548BE
:105880000088022807D16348008800F101006149BF
:105890000880FEF722FF60480088022807D15E4892
:1058A000008800F101005C490880FEF704FF5548BC
:1058B0000088022812D14FF00500524908805B4849
:1058C000007800280ADD0020D423CDE900300290C2
:1058D000EE221B210390084606F0B8FE4B480088D4
:1058E000022812D14FF00500484908804F4800783F
:1058F00003280ADA0020D223CDE900300290EE22FC
:105900001B210390084606F0A1FE29E441480088C7
:10591000022807D13F48008800F101003D49088076
:10592000FEF7DBFE3C480088022807D13A48008891
:1059300000F1010038490880FEF7BDFE31480088BB
:1059400002281DD14FF005002E4908803848007804
:1059500058B90020E223CDE900300290EE221B214D
:105960000390084606F072FE0AE00020E423CDE929
:1059700000300290EE221B210390084606F066FEDE
:105980002248008802281DD14FF005001F490880D9
:105990002748007858B90020E223CDE90030029072
:1059A000EE221B210390084606F050FE0AE000207C
:1059B000E423CDE900300290EE221B21039008463B
:1059C00006F044FE1EE413480088022807D111485F
:1059D000008800F101000F490880FEF77EFE1048A4
:1059E000008802280DD10E48008800F101000C4902
:1059F0000880104800781049087010480078104955
:105A000008701EE44C000010450000104A00001011
:105A100044000010500000104E0000109C000010C8
:105A2000520000105412001098000010690000107D
:105A30006A00001039000010370000103C00001010
:105A40003A000010F84800881E280DDDF74800884D
:105A50001E2809DDF648007830B9FEF7A2FF4FF0A6
:105A60000100F349087026E0F2480088022816D1A8
:105A7000F048008800F10100EE490880EE480088F7
:105A8000C8B14FF00000EC49088001464FF06400B7
:105A900006F09FFC4FF04200E84908700BE0E84830
:105AA0000088022807D1E648008800F10100E44997
:105AB0000880FEF700FE1FE4DB4800881E280DDD8D
:105AC000DA4800881E2809DDD948007830B9FEF789
:105AD00068FF4FF00100D64908702FE0D5480088D4
