:020000040000FA
:10000000C0420010E1000000E5000000E700000031
:10001000E9000000EB000000ED000000000000001F
:10002000000000000000000000000000EF000000E1
:10003000F100000000000000F30000002D090000A6
:10004000F7000000F7000000F7000000F7000000D4
:10005000F7000000F7000000F7000000F7000000C4
:10006000F7000000F7000000F7000000F7000000B4
:10007000F7000000F7000000F7000000F7000000A4
:10008000F7000000F7000000F7000000F700000094
:10009000F7000000F7000000ED080000F700000086
:1000A000F700000031990000F7000000F7000000A1
:1000B0006BA50000F7000000F7000000F70000004B
:1000C000F7000000F7000000F7000000DFF80CD098
:1000D0000AF0DCFA0048004737510000C042001027
:1000E00005480047FEE7FEE7FEE7FEE7FEE7FEE71E
:1000F000FEE7FEE7FEE7FEE7CD00000006280AD295
:10010000DFE800F003040506070804E003E002E06E
:1001100001E000E000BF00BF00BFFEE710B50BF03C
:100120006FF90BF0CBF90BF0BDF9AFF30080BDE830
:1001300010400BF089B910B50BF048FF0CF0FCFA39
:10014000BDE810400BF09ABF0BF0AEBE0BF076BCD2
:1001500009B1002070470BF07BB800207047000009
:1001600030B5504C2478A0420ED14F4CB4F9004029
:10017000A14209D14D4CB4F90040A24204D14C4CEB
:10018000B4F90040A3420BD0464C2070464C21806D
:10019000464C2280464C23804FF00104454D2C7084
:1001A00030BD4548006840F08060434908604148E0
:1001B000007878B10846C06940F08060C8614FF0AF
:1001C00001003E4908704FF000003D490880394960
:1001D000087066E033480078002862D03848B0F9EB
:1001E00000003149B1F9001088420DDA32488069C7
:1001F00040F08060304988613148008800F101009A
:1002000000B22F4908804CE02C4800782549097835
:10021000884224DA2448B0F900002449B1F90010DA
:1002200008442749B1F9001088420DDD2248C06911
:1002300040F080602049C8612148008800F1010039
:1002400000B21F4908802CE04FF000001C490880D4
:100250001A48007800F101001849087021E012489E
:10026000B0F900001249B1F9001008441449B1F97D
:10027000001088420DDD1048C06940F080600E49D2
:10028000C8610F48008800F1010000B20C490880E5
:1002900007E04FF000000A4908804FF001000749CD
:1002A0000870704765010010680100106A010010B5
:1002B0006C0100106401001000C0092066010010EC
:1002C0006E01001040EA01039B0703D009E008C952
:1002D000121F08C0042AFAD203E011F8013B00F80B
:1002E000013B521EF9D270470146002000E0401C3D
:1002F0000A5C002AFBD1704770477047FFFFFFFF81
:100300004FF020008749086000BF8648006810F061
:10031000400FFAD04FF00300834908604FF40030DB
:100320008249C1F8A8014FF00000814908604FF0F0
:100330000100804908608048804908604FF0010052
:10034000A1F1040108604FF0AA007D4908604FF058
:1003500055007649C1F88C0000BF7848001D006840
:1003600010F0806FF9D04FF00300764908604FF02D
:10037000AA006E49C1F88C004FF055007049086022
:100380004FF02300704908604FF00100A1F1040113
:1003900008604FF0AA006D4908604FF055000860F2
:1003A00000BF6948001D006810F4806FF9D04FF05D
:1003B0000300674908604FF0AA005C49C1F8AC002F
:1003C0004FF05500614908606248634908604FF08A
:1003D00000005649C1F8C8010846D0F88800C0F3AB
:1003E0000160032868D15348006810F0030006D06C
:1003F000012823D002283FD003285CD100E000BFB1
:1004000056480068C0F30E0000F101004FEA4001B9
:100410004648D0F88800C0F3074000F10100B1FB66
:10042000F0F04F4900FB01F03F490968C9B201F102
:100430000101B0FBF1F04B4908603CE0474800681F
:10044000C0F30E0000F101004FEA40013748D0F838
:100450008800C0F3074000F10100B1FBF0F0424911
:1004600000FB01F030490968C9B201F10101B0FB9C
:10047000F1F03C4908601EE038480068C0F30E0007
:1004800000F101004FEA40012848D0F88800C0F38D
:10049000074000F10100B1FBF0F04FF4FA4100FB1E
:1004A00001F021490968C9B201F10101B0FBF1F085
:1004B0002C49086000BF2FE01E48006810F00300C0
:1004C00006D0012810D0022819D0032823D100E03B
:1004D00000BF15480068C0B200F101002049B1FB1F
:1004E000F0F02049086016E00F480068C0B200F143
:1004F00001001D49B1FBF0F01A4908600BE00A4801
:100500000068C0B200F101004FF4FA41B1FBF0F015
:100510001449086000BF00BF43F23A000349086075
:1005200070470000A0C10F4004C10F4000C00F4041
:10053000ACC10F400CC10F404F00030084C00F40FE
:100540008CC00F4080C00F40A4C00F40ACC00F4013
:10055000A0C00F4048F10041C4C00F4088C00F4008
:1005600000093D00200000108096980000EB8002FA
:10057000114600BFA1F101021100FBD170470146F5
:1005800000BFA1F101021100FBD170474FF0110033
:10059000FF49087270471FB5FE480078401CC0B282
:1005A000FC490870182802DB4FF000000870F94879
:1005B000007807287EDCF7480078C0EBC00000EB2D
:1005C0004000F54901EB800090F83100F1490978CD
:1005D000C1EBC10101EB4101EF4A02EB810191F84E
:1005E0003010EC4A1278C2EBC20202EB4202EA4B34
:1005F00003EB820292F82D20E64B1B78C3EBC3037A
:1006000003EB4303E44C04EB830393F82C30CDE974
:100610000032CDE90210DF480078C0EBC00000EBEB
:100620004000214601EB800090F828000346ED22AF
:10063000D8480178007808F07DFDD6480078D74981
:10064000097888427EDAD3480078C0EBC00000EB1E
:100650004000214601EB8000C0780A2835DACD48F9
:100660000078C0EBC00000EB400001EB8000C078D8
:1006700000F10100C7490978C1EBC10101EB41015B
:10068000224602EB8101C870C2480078C0EBC0006E
:1006900000EB4000114601EB8000C0780A2820DB07
:1006A000BC480078C0EBC00000EB400001EB8000CC
:1006B000407800E058E010F0080F12D10122032129
:1006C000B448007806F041FA0BE04FF00A00B14957
:1006D0000978C1EBC10101EB4101AF4A02EB810195
:1006E000C870AC480078C0EBC00000EB4000AA49DD
:1006F00001EB8000C07803281FDBA6480078C0EB20
:10070000C00000EB400001EB80000079032814DA00
:10071000A0480078C0EBC00000EB400001EB800077
:10072000407900F101009B490978C1EBC10101EB5F
:100730004101994A02EB8101487196480078C0EB6B
:10074000C00000E028E000EB4000934901EB80008E
:10075000C07890490978C1EBC10101EB41018E4A93
:1007600002EB8101087167E08A480078082863D0AD
:100770008848007809285FD0864800780A280CD17C
:1007800000200090019002900346024603908148A9
:100790000178007808F0CEFC4EE07E4800780C2806
:1007A0004AD07C4800780D2846D07A4800780E2838
:1007B00042D07848007814280CD100200090019095
:1007C000029003460246039072480178007808F0D0
:1007D000B1FC31E06F48007815280CD10020009062
:1007E000019002900346024603906A48017800781F
:1007F00008F0A0FC20E06748007816280CD1002003
:1008000000900190029003460246039061480178EF
:10081000007808F08FFC0FE05E48007817280BD1B5
:100820000020009001900290034602460390594830
:100830000178007808F07EFC1FBD10B5682008F034
:10084000A8F9574908706A2008F0A3F9544948707C
:100850006C2008F09EF9524988706E2008F099F9D2
:100860004F49C870702008F094F94D490872722001
:1008700008F08FF9C1B24A4841724FF0740008F095
:1008800088F9C1B2464881724FF0760008F081F9CC
:10089000C1B24348C1724FF0A40008F07AF9404950
:1008A0000871A62008F075F9C1B23D4841714FF0BA
:1008B000A80008F06EF9C1B2394881714FF0AA0062
:1008C00008F067F9C1B23648C17110BD10B50CF01F
:1008D00075F94FF001003349087010BD0146002939
:1008E00002DA484200B270470846FCE72E4800682A
:1008F00020F0E0602C49086008464068C0F30B1007
:100900002A492B4A127821F812002948007800F170
:1009100001002749087008460078032805DA2248B4
:10092000006840F080702049086070474FF0010077
:10093000204908702048008800F1010000B21E49DB
:1009400008800A2807D14FF001001C4908704FF0B9
:100950000000194908801A480088401C00B2184954
:100960000880142807D14FF00100164908704FF095
:1009700000001349088014480088401C00B2124946
:100980000880642828D14FF00100104908701FE04A
:1009900000400240EC000010340A0010310000104A
:1009A000804000106100001000400340140100105E
:1009B0000B0100105A000010240000105B00001012
:1009C000260000105C000010280000105D000010E0
:1009D0004FF00000FF490880FF480088401C00B22B
:1009E000FD490880C82807D14FF00100FB49087075
:1009F0004FF00000F8490880F9480088401C00B218
:100A0000F7490880B0F5FA7F07D14FF00100F549AA
:100A100008704FF00000F2490880F3480088401C3D
:100A200000B2F1490880B0F57A7F07D14FF001009C
:100A3000EE4908704FF00000EB490880704710B590
:100A400080B913884FF6FF74A34203DA138803F1C9
:100A5000010313800B78FF2B08DA0B7803F10103F5
:100A60000B7003E04FF0000313800B7010BD58B9FA
:100A70000B78012B03DB4FF0FF0313700EE00B78B4
:100A800003F101030B7009E00B781BB94FF0000371
:100A9000137003E00B78A3F101030B70704780B96A
:100AA000137873B90B78012B03DB4FF0FF0313703E
:100AB0000DE00B78012B0ADA0B7803F101030B70C0
:100AC00005E00B781BB10B78A3F101030B707047A5
:100AD00010B518B1C64B1B78012B13D113788BB905
:100AE0000B78012B09DB4FF00F0313704FF000035D
:100AF000BF4C2370BF4C237032E00B7803F101032D
:100B00000B702DE018B1BB4B1B78012B14D113785F
:100B10001F2B11D10B78012B09DB4FF02F03137022
:100B20004FF00003B34C2370B14C237018E00B78E6
:100B300003F101030B7013E00B788BB180B10B78DC
:100B4000A3F101030B7013780F2B03D14FF01F0398
:100B5000137005E013782F2B02D14FF000031370B0
:100B600010BD30B591B002464FF00004204621463A
:100B70004FF00104234636E04FEA0314A4F11004B9
:100B8000E4B2204621E0545C0A2C09D0545C3CB10C
:100B9000545C0DF8004001F10104E4B2214610E07C
:100BA00000BF07E04FF020040DF8004000F1010401
:100BB000E4B220461C018442F4DC01F10104E4B2F9
:100BC000214600F10104E4B220461C018442DADC33
:100BD000545C0A2C03D101F10104E4B2214603F173
:100BE0000104E4B22346052BC6DB4FF00004204687
:100BF00006E01DF80040145400F10104E4B2204660
:100C00004028F6DB11B030BDF0B54FF000052A46A4
:100C100007E04FF00005784EB55402F101052DB202
:100C20002A4640F2FF35AA42F3DB4FF000052A4680
:100C3000F1E04FF000052C46E6E04FF0100505FB13
:100C400002456E4E735DBF2B06DDA3F1610505EB1A
:100C500045054FEAC5000BE01F2B06DDA3F120057B
:100C600005EB45054FEAC50002E04FF000052846B8
:100C70004FEA02254FF0080606FB0451604E00F1D2
:100C80000405775D0D4601F1010631465A4E775550
:100C90005B4E00F10605775D0D4601F10106314618
:100CA000554E7755564E00F10805775D0D4601F11A
:100CB00001063146504E7755514E00F10A05775DD9
:100CC0000D4601F1010631464B4E77554C4E00F171
:100CD0000C05775D0D4601F101063146464E77550C
:100CE000474E00F10E05775D0D4601F101063146D4
:100CF000414E7755424E00F11005775D0D4601F1EA
:100D0000010631463C4E77553D4E00F11205775DA8
:100D10000D4601F101063146374E77554FEA02255F
:100D20004FF0080606FB045505F180052946344EB0
:100D300000F10505775D0D4601F1010631462E4EA5
:100D400077552F4E00F10705775D0D4601F101063D
:100D50003146294E77552A4E00F10905775D0D463B
:100D600001F101063146244E7755254E00F10B0561
:100D7000775D0D4601F1010631461F4E7755204E35
:100D800000F10D05775D0D4601F1010631461A4E61
:100D900077551B4E00F10F05775D0D4601F10106F9
:100DA0003146154E7755164E00F11105775D0D460B
:100DB00001F101063146104E7755114E00F1130531
:100DC000775D0D4601F1010631460B4E775504F172
:100DD000010517E0280000102A0000105E00001036
:100DE0002C0000105F0000102E00001060000010AA
:100DF0000801001007010010EC050010EC090010BC
:100E000024CE00002DB22C46102CFFF616AF02F1B6
:100E100001052DB22A46042AFFF60BAFF0BD00B53E
:100E2000ADB04FF001000E90FD48007831287ED023
:100E30002EDC21287CD017DC05287AD006DC81F056
:100E4000D683DFE800F05B90B7DDFD001E2871D08F
:100E500005DC14286FD0152841F0C98380E11F28D4
:100E60006AD02028F8D1F1E222380F28E7D2DFE853
:100E700010F039037103DF09DF09DF09DF09A5037A
:100E8000C00308043C04A304D40454068C06C8061A
:100E9000422801F0328310DCA0F132000B28CED2C0
:100EA000DFE810F0F106250796079808FD082F09DE
:100EB0009509C7092C0A5E0AFA0A4B2801F06483D7
:100EC0000ADCA0F146000528B9D2DFE810F01B0BC0
:100ED000370B4A0B530B580BFB2801F0668306DCDB
:100EE0004C2801F05683FA28B6D101F057BBFC28F4
:100EF00001F06283FF28AFD101F065BBC948B0F9AA
:100F000000000A2190FBF1F00990C748B0F90000F9
:100F1000642190FBF1F201FB12000890C248B0F985
:100F20000010642091FBF0F00790C04805E0FDE35D
:100F3000AAE2DDE019E10EE144E1B0F900000A2186
:100F400090FBF1F00690BA49B1F90020DDE90810F4
:100F5000CDE900120290B7A1C348DDE9062309F0EC
:100F6000FFFB01F044BBAF48B0F900000A2190FB41
:100F7000F1F00990AC48B0F90000642190FBF1F267
:100F800001FB12000890A848B0F9000090FBF1F0B6
:100F90000790B648B0F90010A54AB2F900200998A8
:100FA000CDE900200291B2A1AF48DDE9072309F0A5
:100FB000D7FBD6E7BA48B0F900000A2190FBF1F25E
:100FC00001FB12000990B648B0F9000090FBF1F067
:100FD00008909448B0F9000090FBF1F00790A34A04
:100FE000B2F90020DDE90810CDE900210290904817
:100FF000B0F90020ABA19C48079B09F0B1FBB0E71A
:10100000B448B0F90000002802DA4FF0FF300E902B
:10101000B049B1F900100E984843642190FBF1F2F9
:1010200001FB12000990AB48B0F9000090FBF1F011
:1010300008909B48B0F900000A2190FBF1F200E013
:101040001FE001FB120007909548B0F9000090FBEB
:10105000F1F006907348B0F9000090FBF1F00590B4
:10106000DDE90623DDE90810CDE90023CDE9021012
:101070007E48B0F9003098A17B48059A09F070FBD2
:101080006FE79448B0F90000002802DA4FF0FF3013
:101090000E909049B1F900100E984843642190FBDE
:1010A000F1F201FB120009908A48B0F9000090FBB0
:1010B000F1F008907A48B0F900000A2190FBF1F2B3
:1010C00001FB120007907648B0F9000090FBF1F0A8
:1010D0000690DDE907120998CDE9001202906348F5
:1010E000B0F9002089A16048069B09F039FB38E778
:1010F0007848B0F90000002802DA4FF0FF300E9077
:101100007449B1F900100E984843642190FBF1F244
:1011100001FB120009906F48B0F9000090FBF1F05C
:1011200008905F48B0F900000A2190FBF1F201FB42
:10113000120007905A48B0F9000090FBF1F00690B9
:10114000DDE90801CDE900017DA14748DDE906237D
:1011500009F006FB05E787A1434809F001FB00E71A
:1011600091A1414809F0FCFAFBE62F48B0F90000D4
:10117000642190FBF1F201FB120009902A48B0F9BA
:10118000000090FBF1F008902848B0F900000A2117
:1011900090FBF1F201FB120007902448B0F9001017
:1011A0000A2091FBF0F006902148B0F90020DDE91B
:1011B00008018DE8070087A12B48DDE9062309F027
:1011C000CFFACEE61748B0F900000A2190FBF1F201
:1011D00001FB120009901348B0F9000090FBF1F0F8
:1011E00008901148B0F90000642190FBF1F201FB76
:1011F000120007900C48B0F9000090FBF1F0069047
:101200000B4AB2F90020DDE90810CDE90021029077
:101210007FA11548DDE9062309F0A2FAA1E6000046
:101220003400001012E0072038E0072036E00720E5
:101230003CE007202055E2FBF53D252D75C20A2034
:1012400049E2FBF53D252D752E25303275C00A206B
:1012500050E2FBF53D252D75C2F20A2055F1E5F26D
:10126000E83D252D75C20000EC0900103AE007208A
:101270002049E2FBF53D252D752E25303275C00A3B
:101280002050E2FBF53D252D75C2F20A2055F1E50F
:10129000F2E83D252D75C20A20743D2564274300E0
:1012A0002EE007202050E2FBF53D252D75C2F20A05
:1012B0002055F1E5F2E83D252D75C20A20743D2543
:1012C0002D6427430A2055E1E0F23D252D752E259A
:1012D0002D75420030E007202055F1E5F2E83D256C
:1012E0002D75C20A20743D252D6427430A2055E13F
:1012F000E0F23D252D752E252D75420A2049E1E0AD
:10130000F23D252D642E25303275410020743D2597
:101310002D6427430A2055E1E0F23D252D752E2549
:101320002D75420A2049E1E0F23D252D642E25303D
:101330003275410A20D3D1D2C0CDCEC2CAC8000076
:101340002055E1E0F23D252D752E252D75420A2010
:1013500049E1E0F23D252D642E25303275410A2009
:10136000D3D1D2C0CDCEC2CAC80A20C2DBD5CEC42A
:101370000000000020202020D3D1D2C0CDCEC2CA90
:10138000C80A20C2FBE1EEF020E3EB2EECE5EDFE17
:101390000A20C8EDF2E5F0EDE5F20A20CAE0EBE83C
:1013A000E1F0EEE2EAE0000020202020D3D1D2C01C
:1013B000CDCEC2CAC80A20C8EDF2E5F0EDE5F20ACA
:1013C00020CAE0EBE8E1F0EEE2EAE00A20C2DBD579
:1013D000CEC40000202020CAC0CBC8C1D0CEC2CA13
:1013E000C00A2055E2FBF53D252D752E25303175BF
:1013F000C20A2049E2FBF53D252D752E25303275B8
:10140000C00A2050E2FBF53D252D75C2F200000018
:10141000202020CAC0CBC8C1D0CEC2CAC00A204931
:10142000E2FBF53D252D752E25303275C00A205082
:10143000E2FBF53D252D75C2F20A2055F1E5F2E8F3
:101440003D252D752E25303175C20000FB48B0F9C1
:1014500000000A2190FBF1F201FB12000990F7480D
:10146000B0F9000090FBF1F00890F548B0F90010D9
:101470000998CDE90001F348B0F90020F2A1FF4836
:10148000089B09F06DF96CE5FD48B0F900000A21F0
:1014900090FBF1F201FB12000990F948B0F900004D
:1014A00090FBF1F00890E548B0F900100A2091FB9C
:1014B000F0F200FB12100790E048B0F900000A219A
:1014C00090FBF1F00690DE4AB2F90020DDE9081049
:1014D000CDE900210290EBA1E848DDE9062309F0FF
:1014E0003FF93EE5F548B0F90000002802DA4FF078
:1014F000FF300E90F149B1F900100E984843642175
:1015000090FBF1F201FB12000990EC48B0F90000E9
:1015100090FBF1F00890DA48B0F900000A2190FB46
:10152000F1F201FB12000790D548B0F900100A2033
:1015300091FBF0F00690DDE907120998CDE9001261
:101540000290BF48B0F90020DDA1CC48069B09F00D
:1015500007F906E5D948B0F90000002802DA4FF093
:10156000FF300E90D549B1F900100E984843642120
:1015700090FBF1F201FB12000990D048B0F9001085
:10158000642091FBF0F00890BD48B0F900000A21FA
:1015900090FBF1F201FB12000790B948B0F900008E
:1015A00090FBF1F00690DDE90801CDE90001D2A140
:1015B000B248DDE9062309F0D3F8D2E4DB4800881D
:1015C00010B1DBA00F9001E0DAA00F90DB4800889B
:1015D00010B1D7A0109001E0D6A0109010980990FB
:1015E0000F9808900246D6A1A448099B09F0B8F8C4
:1015F000B7E4CE48008810B1DEA00F9001E0CDA086
:101600000F90CE48008810B1DAA0109001E0C9A078
:101610001090DA48B0F90000D949B1F90010D94A60
:10162000B2F90020CDE90021029010980990D64827
:10163000B0F90030D5A19148099A09F091F8E24833
:101640000078E8B1E1480078032819D14FF0200173
:10165000DF4800784FF0290202EB8000874A1154DE
:10166000DB4800784FF02A0202EB8000834A1154D5
:10167000D74800784FF02B0202EB80007F4A1154CC
:101680006FE4BE48B0F90000BD49B1F90010CDE9E2
:101690000010BC48B0F90030BB48B0F90020CDA123
:1016A000764809F05DF8C8480078E8B1C748007886
:1016B000022819D14FF02001C54800784FF01802D8
:1016C00002EB80006D4A1154C14800784FF01902B6
:1016D00002EB8000694A1154BD4800784FF01A02AD
:1016E00002EB8000654A11543BE4C948B0F90000A0
:1016F000C849B1F90010C84AB2F90020C74BB3F984
:101700000030CDE90232CDE904109C48B0F9000068
:101710009B49B1F90010CDE900109A48B0F90030AA
:101720009948B0F90020BE49544800E074E209F03D
:1017300017F8A5480078E8B1A4480078032819D123
:101740004FF02001A24800784FF02F0202EB8000FA
:101750004A4A11549E4800784FF0300202EB800054
:10176000464A11549A4800784FF0310202EB80004B
:10177000424A115494480078E8B19448007801280E
:1017800019D14FF02001924800784FF00E0202EB81
:1017900080003A4A11548E4800784FF00F0202EB55
:1017A0008000364A11548A4800784FF0100202EB4C
:1017B0008000324A115422E49548B0F9000095495E
:1017C000B1F90010CDE900109348B0F9003093480A
:1017D000B0F9002093A1294808F0C2FF7A480078A8
:1017E000D0B17A480078022816D14FF0200178480D
:1017F00000784FF01E0202EB8000204A115474481A
:1018000000784FF01F0202EB80001C4A1154704810
:10181000007801EB8000115432E49148B0F90000E7
:101820009049B1F90010904AB2F900208F4BB3F9FA
:101830000030CDE90232CDE9041019E112E00720B1
:101840003AE007203CE00720202020CAC0CBC8C1D6
:10185000D0CEC2CAC00A2050E2FBF53D252D75C28C
:10186000F20A2055F1E5F2E83D252D752E2530319F
:1018700075C20A20743D256427430000EC0900105E
:101880002EE00720202020CAC0CBC8C1D0CEC2CABB
:10189000C00A2055F1E5F2E83D252D752E253031A1
:1018A00075C20A20743D256427430A2055E1E0F201
:1018B0003D252D752E252D754200000030E00720B6
:1018C000202020CAC0CBC8C1D0CEC2CAC00A207452
:1018D0003D256427430A2055E1E0F23D252D752E74
:1018E000252D75420A2049E1E0F23D252D642E2583
:1018F0003032754100000000202020CAC0CBC8C192
:10190000D0CEC2CAC00A2055E1E0F23D252D752E89
:10191000252D75420A2049E1E0F23D252D642E2552
:10192000303275410A20C2DBD5CEC40090000010D1
:10193000C2CACB00C2DBCACB00000000920000107C
:1019400020202045544845524E45543A0A204574BB
:101950006865726E65742025730A2044484350EA16
:10196000EBE8E5EDF22025730A204950E0E4F0E5CC
:10197000F13A0000C2CACB20000000009A0000101B
:1019800098000010960000109400001020202045C0
:10199000544845524E45543A0A2044484350EAEBD5
:1019A000E8E5EDF22025730A204950E0E4F0E5F186
:1019B0003A0A20253033752E253033752E253033E5
:1019C000752E2530337500005100001037000010CF
:1019D0005700001020202045544845524E45543AA7
:1019E0000A204950E0E4F0E5F13A0A202530337549
:1019F0002E253033752E253033752E253033750A5C
:101A000020CCE0F1EAE020EFEEE4F1E5F2E83A0084
:101A1000A2000010A00000109E0000109C0000100A
:101A200040DD000020202045544845524E45543AA0
:101A30000A20CCE0F1EAE020EFEEE4F1E5F2E83A4A
:101A40000A20253033752E253033752E2530337519
:101A50002E253033750A20D8EBFEE73A000000004F
:101A6000AA000010A8000010A6000010A40000109A
:101A7000F048B0F90000F049B1F90010CDE90010CC
:101A8000EE48B0F90030EE48B0F90020EDA1FD4875
:101A900008F066FEFC480078E8B1FC4800780128B0
:101AA00019D14FF02001FA4800784FF00E0202EBF6
:101AB0008000F44A1154F64800784FF00F0202EB10
:101AC0008000F04A1154F24800784FF0100202EB07
:101AD0008000EC4A1154EC480078E8B1EB480078FB
:101AE000032819D14FF02001E94800784FF0260271
:101AF00002EB8000E34A1154E54800784FF02702DA
:101B000002EB8000DF4A1154E14800784FF02802D0
:101B100002EB8000DB4A1154B5E4DE48B0F9000066
:101B2000DD49B1F90010DD4AB2F90020CDE900210C
:101B30000290DB48B0F90030DA48B0F90020DAA1B1
:101B4000D04808F00DFED0480078E8B1CF480078C2
:101B5000022819D14FF02001CD4800784FF015022E
:101B600002EB8000C74A1154C94800784FF01602B2
:101B700002EB8000C34A1154C54800784FF01702A9
:101B800002EB8000BF4A11547DE4D648B0F9001042
:101B9000C048B0F90020C048B0F90000BF4BB3F90D
:101BA0000030CDE90030CDE90221BD48B0F9003068
:101BB000BC48B0F90020CC49B24808F0D1FDB24889
:101BC0000078E8B1B1480078012819D14FF0200120
:101BD000AF4800784FF00E0202EB8000A94A115482
:101BE000AB4800784FF00F0202EB8000A54A115479
:101BF000A74800784FF0100202EB8000A14A115470
:101C000041E4B848B0F90030A248B0F90020B7A1CB
:101C10009C4808F0A5FD36E44FF000000A9009E06A
:101C2000C1490A98095C0BAA11540A9800F10100F5
:101C3000C0B20A900A980A28F2DB93480078C8B12B
:101C400092480078032815D14FF05F000BA9904A05
:101C500012788854B448FEF747FB8D4909788842CA
:101C600008D10BA8FEF740FB00F101000BA94FF0D3
:101C70000A020A540BAB9B48B0F90020ABA1814883
:101C800008F06EFD2DE44FF000000A9009E0A6492F
:101C90000A98095C0BAA11540A9800F10100C0B21D
:101CA0000A900A980A28F2DB77480078C8B177488A
:101CB0000078022815D14FF05F010BA8744A127802
:101CC00081549948FEF710FB71490978884208D180
:101CD0000BA8FEF709FB00F101000BA94FF00A0267
:101CE0000A540BAA9DA1674808F03AFD31E44FF071
:101CF00000000A9009E08C490A98095C0BAA11546B
:101D00000A9800F10100C0B20A900A980A28F2DB92
:101D10005D480078C8B15D480078012815D14FF0C2
:101D20005F000BA95A4A127888547F48FEF7DCFA04
:101D300057490978884208D10BA8FEF7D5FA00F177
:101D400001000BA94FF00A020A549048B0F90010A4
:101D50008F48B0F900008F4AB2F90020CDE9002089
:101D600002918D48B0F900300BAA8CA1454808F0CB
:101D7000F7FC4548007850B344480078032826D142
:101D80000BA8FEF7B1FA00F121004149097800EBF8
:101D900081003C494FF020020A540BA8FEF7A4FA38
:101DA00000F122003A49097800EB810035494FF0F3
:101DB00020020A540BA8FEF797FA00F123003449D9
:101DC000097800EB81002F494FF020020A542FE2DE
:101DD0006E48B0F900006E49B1F90010CDE900106D
:101DE0006C48B0F900306C48B0F900203E494431ED
:101DF000244808F0B5FC24480078D0B12348007886
:101E0000022816D14FF02001214800784FF01F0220
:101E100002EB80001B4A11541D48007801EB800042
:101E200011541B4800784FF0210202EB8000154A44
:101E30001154DCE3A2000010A00000109E0000106E
:101E40009C00001020202045544845524E45543AED
:101E50000A20253033752E253033752E2530337505
:101E60002E253033750A20D8EBFEE73A0A202530BC
:101E700033752E253033752E253033752E253033AE
:101E800075000000EC090010510000103700001030
:101E900057000010AC000010AA000010A8000010AD
:101EA000A6000010A40000102020204554484552F0
:101EB0004E45543A0A20D8EBFEE73A0A2025303343
:101EC000752E253033752E253033752E253033751C
:101ED0000A20CFEEF0F22EF7F2E5EDE8FF20252DF7
:101EE00075000000AE00001088DD000020202045B5
:101EF000544845524E45543A0A20CFEEF0F220F7AE
:101F0000F2E5EDE8FF20252D750A20CFEEF0F22056
:101F1000E7E0EFE8F1E820252D750A20436F6D6DAD
:101F2000756E6974793A0000160000102020204573
:101F3000544845524E45543A0A20CFEEF0F220E77D
:101F4000E0EFE8F1E820252D750A20436F6D6D75EF
:101F50006E6974793A0A202573000000202020451C
:101F6000544845524E45543A0A20436F6D6D756E84
:101F70006974793A0A2025730A20C0E4F0E5F1E09B
:101F8000F22054524150204E31000000B6000010A3
:101F9000B4000010B2000010B00000102020204556
:101FA000544845524E45543A0A2025730A20C0E44D
:101FB000F0E5F1E0F22054524150204E310A202544
:101FC0003033752E253033752E253033752E253060
:101FD00033750000FF48B0F90000FF49B1F9002057
:101FE000FE49B1F90010FE4BB3F90030CDE90231E2
:101FF000CDE90420FB48B0F90000FB49B1F900101D
:10200000CDE90010F948B0F90030F948B0F90020E6
:10201000F849F94808F0A4FBF8480078E8B1F84816
:102020000078012819D14FF02001F64800784FF0D0
:102030000E0202EB8000F04A1154F24800784FF093
:102040000F0202EB8000EC4A1154EE4800784FF08A
:10205000100202EB8000E84A1154E8480078E8B129
:10206000E7480078032819D14FF02001E5480078AF
:102070004FF0300202EB8000DF4A1154E148007853
:102080004FF0310202EB8000DB4A1154DD4800784A
:102090004FF0320202EB8000D74A1154A7E2CD483C
:1020A000B0F90000CC49B1F90010CDE90010CB48DF
:1020B000B0F90030CA48B0F90020CE494831CE48C6
:1020C00008F04EFBCD480078D0B1CD48007802280A
:1020D00016D14FF02001CB4800784FF01F0202EBE1
:1020E0008000C54A1154C748007801EB80001154A4
:1020F000C44800784FF0210202EB8000BE4A115420
:1021000075E2C148B0F90010C048B0F90020C048DD
:10211000B0F90000BF4BB3F90030CDE90230CDE992
:102120000421AC48B0F90000AB49B1F90010CDE989
:102130000010AA48B0F90030A948B0F90020AD4914
:102140008C31AD4808F00CFBAC480078E8B1AC48E5
:102150000078012819D14FF02001AA4800784FF0EB
:102160000E0202EB8000A44A1154A64800784FF0FA
:102170000F0202EB8000A04A1154A24800784FF0F1
:10218000100202EB80009C4A11549C480078E8B190
:102190009B480078032819D14FF020019948007816
:1021A0004FF0300202EB8000934A115495480078BA
:1021B0004FF0310202EB80008F4A115491480078B1
:1021C0004FF0320202EB80008B4A11540FE28E482E
:1021D000B0F900008D49B1F90010CDE900108C482C
:1021E000B0F900308B48B0F900208249D4318248E0
:1021F00008F0B6FA81480078D0B18148007802280A
:1022000016D14FF020017F4800784FF01F0202EBFB
:102210008000794A11547B48007801EB800011540A
:10222000784800784FF0210202EB8000724A115486
:10223000DDE17948B0F900207848B0F9000078492C
:10224000B1F90010774BB3F90030CDE90231CDE997
:1022500004026D48B0F900006C49B1F90010CDE9F5
:1022600000106B48B0F900306A48B0F900206E49A0
:10227000614808F075FA61480078E8B16048007874
:10228000012819D14FF020015E4800784FF00E026E
:1022900002EB8000584A11545A4800784FF00F0260
:1022A00002EB8000544A1154564800784FF0100257
:1022B00002EB8000504A115450480078E8B1504871
:1022C0000078032819D14FF020014E4800784FF0D4
:1022D000300202EB8000484A11544A4800784FF01F
:1022E000310202EB8000444A1154464800784FF016
:1022F000320202EB8000404A115478E14648B0F9BE
:1023000000004649B1F90010CDE900104448B0F989
:1023100000304448B0F9002043494831364808F0BD
:102320001FFA36480078D0B135480078022816D117
:102330004FF02001334800784FF01F0202EB80007D
:102340002D4A11542F48007801EB800011542D487C
:1023500000784FF0210202EB8000274A115446E139
:102360003248B0F900003249B1F90010314AB2F9EF
:102370000020314BB3F90030CDE90232CDE9041031
:102380002548B0F900002549B1F90010CDE9001049
:102390002348B0F900302348B0F9002022498C319D
:1023A000154808F0DDF91548007890B11448007818
:1023B00001284FD14FF02001124800784FF00E0253
:1023C00002EB80000C4A11540E4800784FF00F02C7
:1023D00034E03FE0BE000010BC000010BA00001066
:1023E000B8000010B6000010B4000010B2000010D9
:1023F000B000001010DE0000EC09001051000010C9
:102400003700001057000010C6000010C400001074
:10241000C2000010C0000010CE000010CC00001060
:10242000CA000010C800001028DF0000D60000100D
:10243000D4000010D2000010D000001002EB800089
:10244000D94A1154D94800784FF0100202EB8000AD
:10245000D54A1154D6480078E8B1D6480078032808
:1024600019D14FF02001D14800784FF0300202EB33
:102470008000CD4A1154CD4800784FF0310202EB74
:102480008000C94A1154C94800784FF0320202EB6B
:102490008000C54A1154AAE0C748B0F90000C749F6
:1024A000B1F90010CDE90010C548B0F90030C548B9
:1024B000B0F90020C4A1BC4808F052F9BC4800782B
:1024C000D0B1BC480078022816D14FF02001B7489F
:1024D00000784FF01F0202EB8000B34A1154B3485A
:1024E000007801EB80001154B04800784FF02102D1
:1024F00002EB8000AC4A115479E0C2A1AA4808F06E
:102500002FF974E0C848007818B1AFF6DC300F90AE
:1025100002E0AFF6E0300F90C348C078C249897836
:10252000CDE90010C048407809900F980890024605
:10253000BEA19D48099B08F013F958E0BA480079FC
:10254000B949C978CDE90010B74880780990B648F4
:10255000407808900246C2A19348099B08F000F910
:1025600045E0B14880780246C9A109908E4808F03C
:10257000F7F83CE0CFA18C4808F0F2F837E0D5A19D
:10258000894808F0EDF832E0DAA1874808F0E8F869
:102590002DE0E0A1844808F0E3F828E0E54802884F
:1025A000E5A1814808F0DCF821E0E2480288ECA1CE
:1025B0007D4808F0D5F81AE0DE480288F2A17A4892
:1025C00008F0CEF813E0FAA1774808F0C9F8FF4800
:1025D00001780078401EFD4A107039B9FC48007837
:1025E000FC490870FC4800787249087000BF00BFC1
:1025F0002DB000BD10B5FEF712FC6B48FEF7B1FA26
:10260000F4480078FA2807DA4FF03E01694800786C
:10261000654A02EB00100170FEF7F6FA4FF0000475
:1026200008E0EE49095D084607F0D0F904F1010021
:1026300000B20446B4F5806FF3DB10BD5D4800784E
:1026400030B15C480078A0F101005A49087005E0FB
:10265000E0480078A0F10100DE4908707047554855
:102660000078032806D1DB48007800F10100D94941
:10267000087005E04F48007800F101004D490870EE
:1026800070474C480078012806DD4A480078A0F1E0
:1026900001004849087005E0CE480078A0F101002B
:1026A000CC490870704710B50121642006F005FC84
:1026B0000021662006F001FCC021682006F0FDFB29
:1026C000A8216A2006F0F9FB01216C2006F0F5FB39
:1026D000F9216E2006F0F1FBFF21702006F0EDFBE2
:1026E000FF21722006F0E9FBFF21742006F0E5FBD4
:1026F0000021762006F0E1FBC021A42006F0DDFBDE
:10270000A821A62006F0D9FB0121A82006F0D5FBC0
:10271000FE21AA2006F0D1FBA121A02006F0CDFBCE
:10272000A221084606F0C9FBA121C82006F0C5FB7E
:10273000A221CA2006F0C1FB7021CC2006F0BDFB0F
:102740007521CE2006F0B9FB6221D02006F0B5FB42
:102750006C21D22006F0B1FB6921D42006F0ADFB3C
:102760006321D62006F0A9FB2021D82006F0A5FB86
:102770000021DA2006F0A1FBC021EC2006F09DFB31
:10278000A821EE2006F099FB0121F02006F095FB30
:102790000221F22006F091FBC021F42006F08DFB0F
:1027A000A821F6201CE10000EC09001057000010E1
:1027B0005100001037000010D6000010D4000010A7
:1027C000D2000010D000001020202045544845526F
:1027D0004E45543A0A20C0E4F0E5F1E0F2205452AC
:1027E0004150204E350A20253033752E2530337563
:1027F0002E253033752E253033750A20C2DBD5CE19
:10280000C400000020202045544845524E45543A0B
:102810000A2045746865726E657420C2DBCACB0AF3
:1028200020C2DBD5CEC40A00B005001020C3EB2EB9
:10283000ECE5EDFE2025730A20F7E5F0E5E720251D
:102840002D75F1E5EA0A20E8EDF2E5F0E2E0EB2093
:10285000252D75F1E5EA0A20256355E2FBF5000018
:1028600020F7E5F0E5E720252D75F1E5EA0A20E8F7
:10287000EDF2E5F0E2E0EB20252D75F1E5EA0A2026
:10288000256355E2FBF50A20256349E2FBF50000CC
:1028900020E8EDF2E5F0E2E0EB252D750A20205569
:1028A000E2FBF50A202049E2FBF50A2020D0E2FBFA
:1028B000F5000000202055E2FBF50A202049E2FB4C
:1028C000F50A2020D0E2FBF50A202055F1E5F2E8D8
:1028D00000000000202049E2FBF50A2020D0E2FBA6
:1028E000F50A202055F1E5F2E80A202055E1E0F252
:1028F000000000002020D0E2FBF50A202055F1E581
:10290000F2E80A202055E1E0F20A202049E1E0F255
:1029100000000000202055F1E5F2E80A202055E1F2
:10292000E0F20A202049E1E0F20A20C2DBD5CEC461
:102930000000000052000010C2E2E5E4E8F2E520E9
:10294000EFE0F0EEEBFC3A0A20202020202025309A
:102950003375200A20202020202020202A0A000071
:10296000C2E2E5E4E8F2E520EFE0F0EEEBFC3A0A43
:1029700020202020202025303375200A20202020F0
:102980002020202A0A000000C2E2E5E4E8F2E52067
:10299000EFE0F0EEEBFC3A0A20202020202025304A
:1029A0003375200A2020202020202A0A0000000061
:1029B0000A2020202020CFE0F0EEEBFC0A2020208F
:1029C00020EDE520E2E5F0E5ED210A0056000010DB
:1029D000350000103400001038000010EC05001025
:1029E00006F06BFA0121F82006F067FA0421FA20BC
:1029F00006F063FAC021FC2006F05FFAA821FE2051
:102A000006F05BFA0121080206F057FA06214FF49E
:102A1000817006F052FAC0214FF4827006F04DFA30
:102A2000A8214FF4837006F048FA01214FF4847016
:102A300006F043FA08214FF4857006F03EFAC021F3
:102A40004FF4867006F039FAA8214FF4877006F02B
:102A500034FA01214FF4887006F02FFA09214FF45F
:102A6000897006F02AFA00214FF4E17006F025FA89
:102A70001E214FF4E27006F020FA03214FF4E370B8
:102A800006F01BFA4FF0030004460BE04FF4E1712F
:102A900001EB440108462D2106F00FFA04F1010074
:102AA000C0B204460A2CF1DB10BD10B5F84800781E
:102AB000F849097808442C2876D02FDC82F02C8342
:102AC000DFE810F0640073008C00A500BE00D700A2
:102AD000F00009014001D210D210D210D210D21051
:102AE000D210D210D210D210D210D210D2105D015A
:102AF0006A01AE01FC01D210D210D210D210D21055
:102B0000D2101B02280241025A0273028C02EA020E
:102B10006F03D210D2108E03C8033404392801F099
:102B2000AE8411DCA0F12D000C28C7D2DFE810F034
:102B3000480562059C06B606D4075008AF08C908C8
:102B40001A0A340A520B6C0B3F2802F08E800ADC02
:102B5000A0F13A000528B1D2DFE810F0AB0CCD0DA2
:102B6000E70D2A0F440FFA2802F0EB8007DC432818
:102B700002F09B80442842F0CF8202F0C0B8FB28CC
:102B800002F07181FC28F6D102F032BAC248008806
:102B9000022807D1C048008800F10100BE49088022
:102BA000FFF75DFD02F0B8BAECE3BC4800880228EC
:102BB00007D1BA48008800F10100B8490880FFF742
:102BC0003DFDB5480088022807D1B348008800F1D0
:102BD0000100B1490880FFF742FDE3E7AF480088F4
:102BE000022807D1AD48008800F10100AB490880F8
:102BF000FFF724FDA8480088022807D1A6480088CE
:102C000000F10100A4490880FFF729FDCAE7A348A5
:102C10000088022807D1A148008800F101009F49DF
:102C20000880FFF70BFD9C480088022807D19A48CE
:102C3000008800F1010098490880FFF710FDB1E716
:102C400096480088022807D19448008800F10100C6
:102C500092490880FFF7F2FC8F480088022807D1CC
:102C60008D48008800F101008B490880FFF7F7FCD0
:102C700098E78A480088022807D18848008800F130
:102C8000010086490880FFF7D9FC834800880228A4
:102C900007D18148008800F101007F490880FFF7D3
:102CA000DEFC7FE77D480088022807D17B4800884A
:102CB00000F1010079490880FFF7C0FC76480088E0
:102CC000022807D17448008800F101007249088089
:102CD000FFF7C5FC66E771480088022807D16F48F6
:102CE000008800F101006D490880FFF7A7FC6A48E1
:102CF0000088022807D16848008800F10100664971
:102D00000880FFF7ACFC66480088022819D16448A7
:102D1000008800F10100624908805D48007861493F
:102D200008705C480078604908704FF0FC00584912
:102D300008704FF00000574908704FF0B8005B4929
:102D400008802FE755480088022807D1534800889B
:102D500000F1010051490880FFF770FC50480088DD
:102D600002280BD14E48008800F101004C49088030
:102D70004FF00000464908704649087012E746487F
:102D80000088022807D14448008800F10100424928
:102D90000880FFF764FC05E740480088022810D14E
:102DA0003E48008800F101003C490880384800781E
:102DB000152804D14FF014003549087001E0FFF7E1
:102DC0003DFC35480088022807D13348008800F1CF
:102DD000010031490880FFF742FC31480088022891
:102DE0001DD12F48008800F101002D490880284896
:102DF00000782F490870274800782E4908704FF056
:102E00000100244908702C48008820B14FF02800A8
:102E10001F49087003E04FF042001D490870C1E6E9
:102E20001E480088022807D11C48008800F10100D4
:102E30001A490880FFF702FC17480088022807D1CA
:102E40001548008800F1010013490880FFF707FCCE
:102E500013480088022819D11148008800F10100A8
:102E60000F4908800A48007811490870094800781D
:102E7000104908704FF0FC00054908704FF0000041
:102E80000449087040F26930084908808AE6000069
:102E900034000010370000104A0000104C000010F1
:102EA0004E000010350000103800001054000010D3
:102EB000360000103900001090000010FA48008819
:102EC000022807D1F848008800F10100F64908807F
:102ED000FFF7B4FBF548008802280DD1F3480088BD
:102EE00000F10100F1490880F1480078F1490870CB
:102EF000F1480078F149087054E6F148008802284A
:102F000007D1EF48008800F10100ED490880FFF784
:102F1000A6FB47E6E4480088022807D1E24800887B
:102F200000F10100E0490880FFF7ABFBE4480088AE
:102F3000022807D1E248008800F10100E04908803A
:102F4000FFF78DFB2EE6D8480088022807D1D64827
:102F5000008800F10100D4490880FFF792FBD848AF
:102F60000088022807D1D648008800F10100D44922
:102F70000880FFF774FB15E6CB480088022807D1CC
:102F8000C948008800F10100C7490880FFF779FBB4
:102F9000CB480088022807D1C948008800F1010009
:102FA000C7490880FFF75BFBFCE5BF4800880228A3
:102FB00007D1BD48008800F10100BB490880FFF738
:102FC00060FBBF480088022807D1BD48008800F197
:102FD0000100BB490880FFF742FBE3E5B2480088E7
:102FE000022807D1B048008800F10100AE490880EE
:102FF000FFF747FBB2480088022807D1B048008895
:1030000000F10100AE490880FFF729FBAD480088B8
:10301000022803D0AB48008805281AD14FF00300DE
:10302000A8490880A848B0F90000A8490978884252
:1030300008DDA5480088A5490978A0EB010000B289
:10304000A1490880A048B0F900000146102005F011
:1030500034FF9F480088022803D09D480088052837
:1030600019D14FF003009A4908809748B0F9000041
:1030700042F21071884207DA93480088954909782E
:10308000084400B2904908808F48B0F9000001461A
:10309000102005F012FF85E583480088022807D13B
:1030A0008148008800F101007F490880FFF7E9FAB4
:1030B00083480088022807D18148008800F1010078
:1030C0007F490880FFF7CBFA7E480088022803D0AA
:1030D0007C4800880F2826D14FF0050079490880E8
:1030E0007A4800784FF00A0190FBF1F000F10100FE
:1030F0007949B1F9001088420EDA744800784FF02F
:103100000A0190FBF1F000F1010073490988A1EB7D
:10311000000000B2704908806F48B0F90000014615
:10312000162005F0CAFE6A480088022803D06848C5
:1031300000880F281ED14FF00500654908806648B9
:10314000B0F90000B0F5FA5F0DDA624800784FF090
:103150000A0190FBF1F000F101005F490988084481
:1031600000B25D4908805C48B0F9000001461620B5
:1031700005F0A3FE4D480088022811D14B48008875
:1031800000F10100494908805448408854490880AA
:103190000846B0F9000001464FF0140005F08DFE1E
:1031A00000E541480088022807D13F48008800F127
:1031B00001003D490880FFF764FA3C480088022876
:1031C0000DD13A48008800F101003849088045488F
:1031D0000078384908704448007838490870E1E4BC
:1031E000384800881E280DDD394800881E2809DD72
:1031F0003E48007830B9FFF756FA4FF001003B49DE
:10320000087026E029480088022816D1274800883F
:1032100000F101002549088035480088C8B14FF009
:1032200000003349088001464FF0640005F045FE78
:103230004FF042001F4908700BE021480088022827
:1032400007D11F48008800F101001D490880FFF7E1
:1032500006FAA7E41B4800881E280DDD1C480088DC
:103260001E2809DD2148007830B9FFF71CFA4FF01D
:1032700001001E49087058E00C48008802283BD124
:103280001C48008820B14FF000001A49088003E074
:103290004FF00100174908801648B0F90010662069
:1032A00005F00BFE41E000004C0000104E00001045
:1032B00035000010340000103800001037000010F6
:1032C0004A000010480000107C000010410000106F
:1032D000460000104000001084000010241200106E
:1032E000800000103600001039000010500000105F
:1032F0009000001092000010F8480088022808D1C1
:10330000F648008800F10100F4490880FFF7B9F998
:103310000BE0F3480088022807D1F148008800F14B
:103320000100EF490880FFF79AF93BE4ED48008877
:103330001E280DDDEC4800881E2809DDEB480078CA
:1033400030B9FFF7B0F94FF00100E849087018E014
:10335000E2480088022808D1E048008800F1010016
:10336000DE490880FFF78DF90BE0DD480088022870
:1033700007D1DB48008800F10100D9490880FFF738
:103380006EF90FE4D548008802280CD1D348008894
:1033900000F10100D1490880FFF773F94FF00000F8
:1033A000D34908700BE1CE48008802280CD1CC48E4
:1033B000008800F10100CA490880FFF750F94FF07A
:1033C0000000CB490870FAE0CA4800880A280DD1ED
:1033D000C748007800F10100C54908700846007828
:1033E000032802DD4FF000000870E8E0BD480088C7
:1033F000022803D0BB48008832286AD14FF01E0053
:10340000B8490880BA480078A8B9BB48008820B9F4
:103410004FF0FF00B849088006E0B7480088A0F1E7
:10342000010000B2B4490880B348B0F90010682028
:1034300005F043FDC3E0AE480078012815D1AF4840
:10344000008820B94FF0FF00AC49088006E0AB4887
:103450000088A0F1010000B2A8490880A748B0F98F
:1034600000106A2005F029FDA9E0A1480078022893
:1034700015D1A348008820B94FF0FF00A04908806B
:1034800006E09F480088A0F1010000B29C49088036
:103490009B48B0F900106C2005F00FFD8FE09448B8
:1034A0000078032814D19748008820B94FF0FF0016
:1034B0009449088006E093480088A0F1010000B21A
:1034C000904908808F48B0F900106E2005F0F5FC97
:1034D00075E085480088022803D083480088322898
:1034E0006DD14FF01E008049088081480078B0B946
:1034F00081480088FF2804D14FF000007E490880F1
:1035000006E07D48008800F1010000B27A49088099
:103510007948B0F90010682005F0CFFC4FE07448FE
:103520000078012816D175480088FF2804D14FF093
:1035300000007249088006E07048008800F1010030
:1035400000B26E4908806D48B0F900106A2005F09D
:10355000B4FC34E066480078022816D16848008838
:10356000FF2804D14FF000006549088006E0644858
:10357000008800F1010000B2614908806048B0F99C
:1035800000106C2005F099FC19E0594800780328D8
:1035900015D15C480088FF2804D14FF0000059493C
:1035A000088006E05748008800F1010000B2554944
:1035B00008805448B0F900106E2005F07EFC2EE41F
:1035C00046480088022808D14448008800F10100DC
:1035D00042490880FFF755F80BE04148008802286F
:1035E00007D13F48008800F101003D490880FFF7FE
:1035F00036F814E43948008802280CD1374800888E
:1036000000F1010035490880FFF73BF84FF000005A
:103610003749087027E13248008802280CD1304829
:10362000008800F101002E490880FFF718F84FF0DC
:1036300000002F49087016E12E4800880A280DD195
:103640002B48007800F101002949087008460078ED
:10365000032802DD4FF00000087004E121480088D3
:10366000022803D01F480088322877D14FF01E006F
:103670001C4908801E480078A8B92348008820B952
:103680004FF0FF002049088006E01F480088A0F1A5
:10369000010000B21C4908801B48B0F900107020DE
:1036A00005F00BFCDFE012480078012830D1174804
:1036B000008820B94FF0FF001449088006E0134845
:1036C0000088A0F1010000B2104908800F48B0F94D
:1036D0000010722005F0F1FBC5E000004C00001066
:1036E0004A00001048000010460000105000001072
:1036F000570000104E0000109400001096000010BB
:10370000980000109A0000109C0000109E0000100D
:10371000F8480078022815D1F748008820B94FF002
:10372000FF00F549088006E0F3480088A0F1010099
:1037300000B2F1490880F048B0F90010742005F09B
:10374000BCFB90E0EB480078032815D1EB480088DB
:1037500028B94FF0FF00E949088007E00DE0E7488D
:103760000088A0F1010000B2E4490880E348B0F904
:103770000010762005F0A1FB75E0E14800880228E2
:1037800003D0DF48008832286DD14FF01E00DC499D
:103790000880D8480078B0B9DA480088FF2804D1FA
:1037A0004FF00000D749088006E0D648008800F1B5
:1037B000010000B2D3490880D248B0F9001070204F
:1037C00005F07BFB4FE0CB480078012816D1CE48AE
:1037D0000088FF2804D14FF00000CB49088006E0A4
:1037E000C948008800F1010000B2C7490880C648F6
:1037F000B0F90010722005F060FB34E0BD4800789D
:10380000022816D1BC480088FF2804D14FF00000E0
:10381000B949088006E0B848008800F1010000B20C
:10382000B5490880B448B0F90010742005F045FB94
:1038300019E0B0480078032815D1B0480088FF2867
:1038400004D14FF00000AD49088006E0AB48008885
:1038500000F1010000B2A9490880A848B0F90010A1
:10386000762005F02AFB16E4A8480088022808D133
:10387000A648008800F10100A4490880FEF701FF76
:103880000BE0A3480088022807D1A148008800F176
:1038900001009F490880FEF7E2FE81E49B48008812
:1038A00002280CD19948008800F10100974908804E
:1038B000FEF7E7FE4FF000008E4908700BE19448D8
:1038C000008802280CD19248008800F1010090493C
:1038D0000880FEF7C4FE4FF0000086490870FAE049
:1038E0008C4800880A280DD18248007800F1010038
:1038F0008049087008460078032802DD4FF0000078
:103900000870E8E084480088022803D082480088D4
:1039100032286AD14FF01E007F4908807548007830
:10392000A8B97E48008820B94FF0FF007B49088085
:1039300006E07A480088A0F1010000B277490880CB
:103940007648B0F90010A42005F0B7FAC3E0694842
:103950000078012815D17248008820B94FF0FF0087
:103960006F49088006E06E480088A0F1010000B2AF
:103970006B4908806A48B0F90010A62005F09DFA4E
:10398000A9E05C480078022815D16648008820B973
:103990004FF0FF006349088006E062480088A0F10C
:1039A000010000B25F4908805E48B0F90010A8200D
:1039B00005F083FA8FE04F480078032814D15A4865
:1039C000008820B94FF0FF005749088006E05648AC
:1039D0000088A0F1010000B2534908805248B0F9B4
:1039E0000010AA2005F069FA75E045480088022811
:1039F00003D04348008832286DD14FF01E00404963
:103A000008803C480078B0B944480088FF2804D1B9
:103A10004FF000004149088006E04048008800F16E
:103A2000010000B23D4908803C48B0F90010A420D4
:103A300005F043FA4FE02F480078012816D13848A6
:103A40000088FF2804D14FF000003549088006E0C7
:103A50003348008800F1010000B231490880304845
:103A6000B0F90010A62005F028FA34E021480078CB
:103A7000022816D12B480088FF2804D14FF00000FF
:103A80002849088006E02748008800F1010000B2BC
:103A9000244908802348B0F90010A82005F00DFA49
:103AA00019E014480078032815D11F480088FF2822
:103AB00004D14FF000001C49088006E01A48008835
:103AC00000F1010000B2184908801748B0F9001051
:103AD000AA2005F0F2F928E40C480088022825D134
:103AE0000A48008800F1010008490880FEF7C9FD76
:103AF0006DE0000057000010A0000010A2000010B0
:103B0000460000109C0000109E0000104C000010A9
:103B10004A0000104E00001048000010A4000010E1
:103B2000A6000010A8000010AA000010FF4800889E
:103B3000022808D1FD48008800F10100FB490880F7
:103B4000FEF78DFD43E0FA480088022803D0F848CC
:103B50000088322819D14FF01E00F5490880F54839
:103B6000008820B94FF0FF00F249088006E0F148D4
:103B70000088A0F1010000B2EE490880ED48B0F9DC
:103B80000010C82005F099F921E0EB4800880228D0
:103B900003D0E9480088322819D14FF01E00E649C9
:103BA0000880E4480088FF2804D14FF00000E14974
:103BB000088006E0DF48008800F1010000B2DD491E
:103BC0000880DC48B0F90010C82005F076F9F6E46A
:103BD000DA480088022808D1D848008800F101009E
:103BE000D6490880FEF74DFD50E0D04800880228F5
:103BF00008D1CE48008800F10100CC490880FEF7CA
:103C00002EFD43E0CA480088022803D0C848008837
:103C1000322819D14FF01E00C5490880C8480088D5
:103C200020B94FF0FF00C649088006E0C44800886C
:103C3000A0F1010000B2C2490880C148B0F90010EB
:103C4000CA2005F03AF921E0BB480088022803D0D9
:103C5000B9480088322819D14FF01E00B6490880B3
:103C6000B7480088FF2804D14FF00000B44908800D
:103C700006E0B348008800F1010000B2B0490880B6
:103C8000AF48B0F90010CA2005F017F997E4AB4827
:103C90000088022808D1A948008800F10100A7493E
:103CA0000880FEF7EEFC0BE0A0480088022807D150
:103CB0009E48008800F101009C490880FEF7CFFC77
:103CC0007DE49E48008802280CD19C48008800F1C1
:103CD00001009A490880FEF7D4FC4FF00000994992
:103CE00008703EE19148008802280CD18F48008876
:103CF00000F101008D490880FEF7B1FC4FF0000093
:103D0000904908702DE1904800880A282DD18D48EF
:103D1000007800F101008B4908708C480978405CFC
:103D2000A0B94FF00001894A8648007800F10100EF
:103D300011548449097801F101014FF0CC0202EBE2
:103D4000410108464FF0000105F0B7F87D480078C2
:103D5000401E7E49085C18B17A480078072803DDC8
:103D60004FF0000077490870FBE071480088022896
:103D700003D06F48008832286BD14FF01E006C4989
:103D8000088072486F490978405C30B94FF07A0179
:103D90006E486C4A127881544DE06C486949097844
:103DA000405C302823D167480078C8B14FF000014B
:103DB0006648644A1278815402466248007800F1ED
:103DC000010011545F49097801F101014FF0CC0263
:103DD00002EB410108464FF0000105F06EF82AE0C1
:103DE0004FF07A005949574A1278885423E05748CF
:103DF00054490978405C412806D14FF039015348B5
:103E0000504A1278815416E050484E490978405C77
:103E1000612806D14FF05A004C494A4A127888541A
:103E200009E04A4847490978405CA0F10100474948
:103E3000444A12788854454A424B1B78D25C11465A
:103E4000404A1278CC2303EB4202104605F035F8C5
:103E500087E039480088022803D037480088322894
:103E60007FD14FF01E003449088038483549097821
:103E7000405C30B94FF030013448324A12788154F6
:103E80004EE032482F490978405C392806D14FF07E
:103E900041012E482B4A1278815441E02B48294990
:103EA0000978405C5A2806D14FF061012748254A1D
:103EB0001278815434E0254822490978405C7A28F8
:103EC00023D120480078C8B14FF000011F481D4A97
:103ED0001278815402461B48007800F10100115409
:103EE0001849097801F101014FF0CC0202EB4101C0
:103EF00008464FF0000104F0E0FF11E04FF0300001
:103F00001249104A127888540AE010480D4909787D
:103F1000405C00F10100C1B20C480A4A1278815499
:103F20000A4A084B1B78D25C114612E04A00001086
:103F300048000010AC000010460000104C000010BB
:103F4000AE000010570000104E00001016000010C8
:103F500007E0FA4A1278CC2303EB4202104604F041
:103F6000ACFF80E4F6480088022808D1F4480088B5
:103F700000F10100F2490880FEF783FB0BE0F148F5
:103F80000088022807D1EF48008800F10100ED49C0
:103F90000880FEF764FB66E4E948008802280CD13B
:103FA000E748008800F10100E5490880FEF769FB59
:103FB0004FF00000E14908700BE1E2480088022858
:103FC0000CD1E048008800F10100DE490880FEF7CE
:103FD00046FB4FF00000D9490870FAE0DA48008843
:103FE0000A280DD1D548007800F10100D3490870A6
:103FF00008460078032802DD4FF000000870E8E072
:10400000D2480088022803D0D048008832286AD1DC
:104010004FF01E00CD490880C8480078A8B9CC48A8
:10402000008820B94FF0FF00C949088006E0C84861
:104030000088A0F1010000B2C5490880C448B0F969
:104040000010EC2004F039FFC3E0BC4800780128E0
:1040500015D1C048008820B94FF0FF00BD49088045
:1040600006E0BC480088A0F1010000B2B949088010
:10407000B848B0F90010EE2004F01FFFA9E0AF48E7
:104080000078022815D1B448008820B94FF0FF000D
:10409000B149088006E0B0480088A0F1010000B2F4
:1040A000AD490880AC48B0F90010F02004F005FFDD
:1040B0008FE0A2480078032814D1A848008820B9CE
:1040C0004FF0FF00A549088006E0A4480088A0F151
:1040D000010000B2A1490880A048B0F90010F22008
:1040E00004F0EBFE75E09E480088022803D09C484F
:1040F000008832286DD14FF01E00994908808F4802
:104100000078B0B992480088FF2804D14FF0000031
:104110008F49088006E08E48008800F1010000B257
:104120008B4908808A48B0F90010EC2004F0C5FEE5
:104130004FE082480078012816D186480088FF2881
:1041400004D14FF000008349088006E081480088D0
:1041500000F1010000B27F4908807E48B0F90010EC
:10416000EE2004F0AAFE34E074480078022816D14C
:1041700079480088FF2804D14FF000007649088074
:1041800006E07548008800F1010000B2724908801D
:104190007148B0F90010F02004F08FFE19E0674874
:1041A0000078032815D16D480088FF2804D14FF00E
:1041B00000006A49088006E06848008800F10100B4
:1041C00000B2664908806548B0F90010F22004F09A
:1041D00074FE80E45A480088022808D158480088B4
:1041E00000F1010056490880FEF74BFA0BE05548F4
:1041F0000088022807D15348008800F10100514986
:104200000880FEF72CFA66E44D48008802280CD19D
:104210004B48008800F1010049490880FEF731FA57
:104220004FF000004549087028E146480088022800
:104230000CD14448008800F1010042490880FEF793
:104240000EFA4FF000003D49087017E13E48008823
:104250000A280DD13948007800F10100374908706B
:1042600008460078032802DD4FF00000087005E1E1
:1042700036480088022803D03448008832285CD1B0
:104280004FF01E00314908802C480078A8B9354805
:10429000008820B94FF0FF003249088006E031481D
:1042A0000088A0F1010000B22E4908802D48B0F925
:1042B0000010F42004F001FEE0E02048007801281E
:1042C00015D12948008820B94FF0FF002649088001
:1042D00006E025480088A0F1010000B222490880CC
:1042E0002148B0F90010F62004F0E7FDC6E01348BD
:1042F0000078022815D11D48008820B94FF0FF0032
:104300001A49088006E019480088A0F1010000B2AF
:10431000164908801548B0F90010F82004F0CDFDCA
:10432000ACE006480078032831D11148008808BB6A
:104330004FF0FF000E49088023E029E057000010ED
:104340004C0000104A0000104E0000104800001001
:10435000B0000010B2000010B4000010B600001051
:1043600046000010B8000010BA000010BC00001099
:10437000BE000010FE480088A0F1010000B2FC4918
:104380000880FB48B0F90010FA2004F096FD75E0B3
:10439000F8480088022803D0F648008832286DD1FA
:1043A0004FF01E00F3490880F3480078B0B9F34895
:1043B0000088FF2804D14FF00000F049088006E093
:1043C000EE48008800F1010000B2EC490880EB489B
:1043D000B0F90010F42004F070FD4FE0E6480078DA
:1043E000012816D1E6480088FF2804D14FF00000CC
:1043F000E349088006E0E248008800F1010000B2CD
:10440000DF490880DE48B0F90010F62004F055FDC1
:1044100034E0D9480078022816D1DA480088FF280D
:1044200004D14FF00000D749088006E0D548008845
:1044300000F1010000B2D3490880D248B0F9001061
:10444000F82004F03AFD19E0CB480078032815D194
:10445000C7480088FF2804D14FF00000C4490880F5
:1044600006E0C348008800F1010000B2C04908809E
:10447000BF48B0F90010FA2004F01FFD06E4C2485E
:104480000088022808D1C048008800F10100BE4918
:104490000880FEF7F6F80BE0BC480088022807D138
:1044A000BA48008800F10100B8490880FEF7D7F843
:1044B00006E4B548008802280CD1B348008800F112
:1044C0000100B1490880FEF7DCF84FF00000AA496E
:1044D00008700FE1AD48008802280CD1AB48008875
:1044E00000F10100A9490880FEF7B9F84FF000007B
:1044F000A1490870FEE0A64800880A280DD19E4810
:10450000007800F101009C490870084600780328F3
:1045100002DD4FF000000870ECE09E4800880228A1
:1045200003D09C48008832286CD14FF01E00994976
:10453000088091480078A8B99748008820B94FF0C2
:10454000FF009549088006E093480088A0F101002B
:1045500000B2914908809048B0F90010FC2004F0A6
:10456000ACFCC7E084480078012815D18B4800884E
:1045700020B94FF0FF008949088006E0874800888D
:10458000A0F1010000B2854908808448B0F900100C
:10459000FE2004F092FCADE077480078022816D1A6
:1045A0007F48008820B94FF0FF007D49088006E071
:1045B0007B480088A0F1010000B279490880784862
:1045C000B0F900104FF4807004F077FC92E06A4874
:1045D0000078032815D17348008820B94FF0FF00F8
:1045E0007049088006E06F480088A0F1010000B221
:1045F0006C4908806B48B0F900104FF4817004F0EA
:104600005CFC77E05B480088022803D059480088AA
:1046100032286FD14FF01E00564908805648007866
:10462000B0B95D480088FF2804D14FF000005A4916
:10463000088006E05848008800F1010000B25649A1
:1046400008805548B0F90010FC2004F036FC51E019
:1046500049480078012816D150480088FF2804D125
:104660004FF000004D49088006E04C48008800F1FA
:10467000010000B2494908804848B0F90010FE2006
:1046800004F01BFC36E03C480078022817D144486F
:104690000088FF2804D14FF000004149088006E05F
:1046A0003F48008800F1010000B23D4908803C48C5
:1046B000B0F900104FF4807004F0FFFB1AE02E48B0
:1046C0000078032816D137480088FF2804D14FF01E
:1046D00000003449088006E03248008800F10100FB
:1046E00000B2304908802F48B0F900104FF48170B3
:1046F00004F0E3FBB8E224480088022808D12248ED
:10470000008800F1010020490880FDF7BAFF0BE0A6
:104710001E480088022807D11C48008800F10100CB
:104720001A490880FDF79BFF9EE21748008802287F
:104730000CD11548008800F1010013490880FDF7ED
:10474000A0FF4FF000000C49087030E10F480088CE
:10475000022829D10D48008800F101000B4908808A
:10476000FDF77DFF4FF00000034908701FE10000D6
:10477000BE0000104600001057000010B8000010E6
:10478000BA000010BC0000104C0000104A000010DD
:104790004E00001048000010C0000010C2000010C1
:1047A000C4000010C6000010F74800880A280DD188
:1047B000F648007800F10100F449087008460078D6
:1047C000032802DD4FF000000870F0E0F048008898
:1047D000022803D0EE48008832286ED14FF01E0028
:1047E000EB490880E9480078B0B9EA48008820B968
:1047F0004FF0FF00E749088006E0E6480088A0F196
:10480000010000B2E3490880E248B0F900104FF41B
:10481000827004F052FBCAE0DC480078012816D10F
:10482000DD48008820B94FF0FF00DB49088006E032
:10483000D9480088A0F1010000B2D7490880D648C5
:10484000B0F900104FF4837004F037FBAFE0CF48AD
:104850000078022816D1D148008820B94FF0FF0017
:10486000CE49088006E0CD480088A0F1010000B2E2
:10487000CA490880C948B0F900104FF4847004F0A8
:104880001CFB94E0C1480078032815D1C448008877
:1048900020B94FF0FF00C249088006E0C0480088F8
:1048A000A0F1010000B2BE490880BD48B0F9001077
:1048B0004FF4857004F001FB79E0BA4800880228C3
:1048C00003D0B8480088322871D14FF01E00B54996
:1048D0000880AE480078B8B9AE480088FF2804D1F7
:1048E0004FF00000AB49088006E0AA48008800F1BC
:1048F000010000B2A7490880A648B0F900104FF4A3
:10490000827004F0DAFA52E0A0480078012817D14A
:10491000A1480088FF2804D14FF000009E4908807C
:1049200006E09D48008800F1010000B29A49088025
:104930009948B0F900104FF4837004F0BEFA36E0E5
:1049400092480078022817D194480088FF2804D1A3
:104950004FF000009149088006E09048008800F17F
:10496000010000B28D4908808C48B0F900104FF466
:10497000847004F0A2FA1AE084480078032816D163
:1049800087480088FF2804D14FF000008449088040
:1049900006E08348008800F1010000B280490880E9
:1049A0007F48B0F900104FF4857004F086FAB3E345
:1049B0007D480088022808D17B48008800F101006A
:1049C00079490880FDF75DFE0BE0784800880228F1
:1049D00007D17648008800F1010074490880FDF78E
:1049E0003EFE99E37048008802280CD16E4800888A
:1049F00000F101006C490880FDF743FE4FF0000014
:104A00006249087030E16948008802280CD1674883
:104A1000008800F1010065490880FDF720FE4FF095
:104A200000005A4908701FE1574800880A280DD134
:104A30005648007800F10100544908700846007893
:104A4000032802DD4FF0000008700DE15048008897
:104A5000022803D04E48008832286ED14FF01E0045
:104A60004B49088049480078B0B95148008820B9BE
:104A70004FF0FF004E49088006E04D480088A0F145
:104A8000010000B24A4908804948B0F900104FF4CB
:104A9000867004F012FAE7E03C480078012816D14D
:104AA0004448008820B94FF0FF004249088006E0E2
:104AB00040480088A0F1010000B23E4908803D480E
:104AC000B0F900104FF4877004F0F7F9CCE02F48EC
:104AD0000078022816D13848008820B94FF0FF002E
:104AE0003549088006E034480088A0F1010000B292
:104AF000314908803048B0F900104FF4887004F054
:104B0000DCF9B1E021480078032815D12B48008852
:104B100020B94FF0FF002949088006E027480088A7
:104B2000A0F1010000B2254908802448B0F9001026
:104B30004FF4897004F0C1F996E01A480088022801
:104B400003D01848008832281DD14FF01E001549A7
:104B500008800E48007898BB15480088FF2804D1CB
:104B60004FF000001249088006E01148008800F16B
:104B7000010000B20E4908800D48B0F900104FF452
:104B8000867004F09AF96FE04E0000105700001094
:104B900048000010C8000010CA000010CC0000102F
:104BA000CE000010460000104C0000104A0000101B
:104BB000D0000010D2000010D4000010D600001069
:104BC000FFE7FA480078012817D1F9480088FF2844
:104BD00004D14FF00000F649088006E0F448008850
:104BE00000F1010000B2F2490880F148B0F900106C
:104BF0004FF4877004F061F936E0EC480078022841
:104C000017D1EC480088FF2804D14FF00000E94993
:104C1000088006E0E748008800F1010000B2E5499D
:104C20000880E448B0F900104FF4887004F045F9AA
:104C30001AE0DE480078032816D1DF480088FF28F4
:104C400004D14FF00000DC49088006E0DA48008813
:104C500000F1010000B2D8490880D748B0F900102F
:104C60004FF4897004F029F956E2D44800880228EC
:104C700008D1D248008800F10100D0490880FDF732
:104C800000FD11E0CE48008802280DD1CC480088F4
:104C900000F10100CA490880CA480078CA49087072
:104CA000CA480078CA49087036E2CA480088022813
:104CB0000AD1C848008800F10100C64908804FF0B9
:104CC0000200C349087019E0BD480088022815D1C8
:104CD000BB48008800F10100B9490880BE4800883F
:104CE00060B94FF00100BC49088001464FF06400F4
:104CF00004F0E3F84FF02800B34908700CE2AF4825
:104D0000008802280AD1AD48008800F10100AB49B3
:104D100008804FF00100AE49087011E0A8480088F3
:104D200002280DD1A648008800F10100A44908809E
:104D3000A4480078A4490870A4480078A4490870E1
:104D4000EAE1A648008802280BD1A448008800F1B7
:104D50000100A24908809C48007800F101009A49AE
:104D600008709648008802281CD19448008800F1F9
:104D70000100924908809A4800884FF00A0190FB90
:104D8000F1F201FB1200092806D195480088A0F134
:104D900009009349088005E09148008800F101006E
:104DA0008F4908808B48008802281BD189480088D9
:104DB00000F1010087490880894800884FF00A0106
:104DC00090FBF1F201FB120030B98548008800F138
:104DD00009008349088005E081480088A0F10100AE
:104DE0007F4908807648008802283BD174480088B3
:104DF00000F10100724908807A48008878490988E2
:104E000088420CD176480088B82808D14FF01400A9
:104E10006D4908704FF001006D4908701CE0714841
:104E200000886F49098888420ED16D480088A0F536
:104E30004071693908D14FF01E00634908704FF086
:104E400001006349087007E04FF0FF005E490870F9
:104E50004FF00400644908704FF000006149088079
:104E60005F49088058E15D48008802280BD15B4803
:104E7000008800F10100594908805348007800F18A
:104E80000100514908705948008802280BD1574841
:104E9000008800F10100554908804B480078A0F1D6
:104EA0000100494908704548008802281CD1434840
:104EB000008800F1010041490880494800884FF00E
:104EC000640190FBF1F201FB12005A2806DB444812
:104ED0000088A0F15A004249088005E04048008857
:104EE00000F10A003E4908803A48008802281CD197
:104EF0003848008800F101003649088038480088A9
:104F00004FF0640190FBF1F201FB12000A2806DA6F
:104F10003348008800F15A003149088005E03048E4
:104F20000088A0F10A002E49088025480088022840
:104F30003BD12348008800F101002149088029481D
:104F400000882749098888420CD125480088B8285C
:104F500008D14FF014001C4908704FF001001C49A3
:104F600008701CE01F4800881D49098888420ED13E
:104F70001B480088A0F54071693908D14FF01E0028
:104F8000114908704FF001001149087007E04FF017
:104F9000FF000D4908704FF00400134908704FF0EE
:104FA0000000104908800E490880B5E05700001045
:104FB000D2000010D4000010D60000104C000010E9
:104FC0004E000010360000103400001039000010B0
:104FD000370000104A000010900000104800001038
:104FE000520000105400001056000010460000103F
:104FF000FF48008802280BD1FD48008800F101001D
:10500000FB490880FB480078A0F10100F9490870CD
:10501000F948008802281DD1F748008800F10100F6
:10502000F5490880F54800884FF47A7190FBF1F259
:1050300001FB1200B0F5617F06DBF0480088A0F5A7
:105040006170EE49088005E0EC48008800F16400DA
:10505000EA490880EA48008802281CD1E84800880C
:1050600000F10100E6490880E44800884FF47A71B5
:1050700090FBF1F201FB1200642806DADF48008899
:1050800000F56170DD49088005E0DC480088A0F18A
:105090006400DA490880DB48008802283BD1D948FF
:1050A000008800F10100D7490880D7480088D3491B
:1050B000098888420CD1D1480088B82808D14FF01F
:1050C0001400CC4908704FF00100D04908701CE072
:1050D000CD480088C949098888420ED1C748008850
:1050E000A0F54071693908D14FF01E00C149087020
:1050F0004FF00100C549087007E04FF0FF00BD49BF
:1051000008704FF00400C24908704FF00000BE491B
:105110000880BA49088000BF00BFBE48007848B187
:10512000BD48008830B9B248008818B94FF0000077
:10513000B849087010BD1CB5B8A103C9CDE900017C
:10514000FBF7DEF8B74800684FF47A72B0FBF2F074
:10515000A0F10101B1F1807F00D327E021F07F4071
:10516000A0F101004FF0E02250614FF0FF304FF00E
:105170001F0200280ADA4FEAC2634FEA1363AA4CFF
:1051800000F00F05A5F10405635505E04FEAC26381
:105190004FEA1363A54C235400BF4FF000004FF0BB
:1051A000E02290614FF00700106100BFA048006A44
:1051B00040F480109E4908620846006A20F0805042
:1051C00008620846006C20F0010008649948006DF0
:1051D0006FF30900974908650846006D20F0030049
:1051E00008650846006D20F00C0008650846006D53
:1051F00020F0300008650846006D20F0C00008650A
:105200000846006D20F4407008658B48FBF7B7F93D
:1052100000F0BBFC4FF0FF310E2003F04EFE0E20DD
:1052200003F0B7FCA0F57F41FF3913D14FF4E161E2
:10523000102003F042FE0021142003F03EFE4FF444
:105240007A71162003F039FEFDF72DFA00210E20A9
:1052500003F033FE01F072F94FF4AF7003F0E5FC98
:1052600076490860084600788DF8050008464078C1
:105270008DF80400084680788DF803000622694600
:105280006F4806F07BFA6A48406B80F480106849EA
:1052900048634FF0CC0003F02EFC6A4908700846C2
:1052A000007818B108460078202803D14FF000009C
:1052B00064490870CD2003F01EFC6249487008461E
:1052C000407818B108464078202803D14FF00000FC
:1052D0005C494870CE2003F00EFC5A49887008469D
:1052E000807818B108468078202803D14FF000005C
:1052F00054498870CF2003F0FEFB5249C87008461D
:10530000C07818B10846C078202803D14FF00000BB
:105310004C49C870D02003F0EEFB4A49087108469A
:10532000007918B108460079202803D14FF0000019
:1053300044490871D12003F0DEFB42494871084618
:10534000407918B108464079202803D14FF0000079
:105350003C494871D22003F0CEFB3A498871084697
:10536000807918B108468079202803D14FF00000D9
:1053700034498871D32003F0BEFB3249C871084616
:10538000C07918B10846C079202803D14FF0000039
:105390002C49C871D42003F0AEFB2A490872084694
:1053A000007A18B10846007A202803D14FF0000097
:1053B00024490872D52003F09EFB22494872084612
:1053C000407A18B10846407A202803D14FF00000F7
:1053D0001C4948724FF000001A49487204F0C0FBA3
:1053E000022004F00EFB4FF0460002490870A8E1CD
:1053F00046000010340000104C0000105200001055
:105400004A0000104E000010540000103700001039
:1054100056000010500000104800001000730532C4
:105420003C4600002000001018ED00E000E400E021
:1054300000C0092000C00240809698008C00001037
:105440001000001016000010BE48007828B14FF080
:105450000000BC49087000F010FCBB480078F0B3B5
:105460004FF00000B8490870B848006A80F4801016
:10547000B649086203F006FAB449496DC1F3400128
:105480000846B34AB349FBF7DAFAB049496D01F06F
:1054900001010846B04AB149FBF7D1FAAB49496D61
:1054A000C1F3C0010846AE4AAE49FBF7C8FAA749A6
:1054B000496DC1F380010846AB4AAC49FBF7BFFA1E
:1054C000A249496DC1F300110846A94AA949FBF751
:1054D000B6FA9F48008868B99F48008800E00BE052
:1054E00040B9A148008828B99D48008810B9A04853
:1054F000008808B1FDF7D9FA9F48007840B14FF015
:1055000000009D4908709D48007808B1FBF743F8FA
:105510009B48007800287ED04FF000009849087022
:105520008A48406B80F480108849486300F03EF957
:105530009448B0F90000022802DD072000F0A4FC26
:10554000FBF7C4F906F0ECF88F4800780028E2D0A9
:105550008D480078A0F101008B490870084600785A
:10556000002858D1CC2003F0C6FA884908700846B4
:10557000007818B108460078202803D14FF00000C9
:1055800082490870CD2003F0B6FA80494870084679
:10559000407818B108464078202803D14FF0000029
:1055A0007A494870CE2003F0A6FA784988700846F8
:1055B000807818B108468078202803D14FF0000089
:1055C00072498870CF2003F096FA7049C870084677
:1055D000C07818B10846C078202803D14FF00000E9
:1055E0006A49C870D02003F086FA684908710846F5
:1055F000007918B108460079202803D14FF0000047
:1056000062490871D12003F076FA60494871084672
:10561000407928B100E05AE008464079202803D1BB
:105620004FF0000059494871D22003F064FA5749FD
:1056300088710846807918B108468079202803D1FE
:105640004FF0000051498871D32003F054FA4F49BC
:10565000C8710846C07918B10846C079202803D11E
:105660004FF000004949C871D42003F044FA47497B
:1056700008720846007A18B10846007A202803D13B
:105680004FF0000041490872D52003F034FA3F4939
:1056900048720846407A18B10846407A202803D15B
:1056A0004FF00000394948724FF000003749487206
:1056B0004FF0C80003F06DFA35490880CA2003F0A6
:1056C00068FA3449088005F06BFEFBF7B6F83248FB
:1056D000007868B14FF000002F49087001F018F908
:1056E00000F02CFF00F0B0F800F07FFB01F076FC3A
:1056F0002A48007888B14FF0000028490870FCF76C
:1057000079FF2748007820B14FF000002449087045
:1057100003E04FF00100224908702248007880B170
:105720004FF000001F4908701648B0F90000B0F5AE
:105730007A7F06DA1348008800F1010000B21149AF
:10574000088081E65A0000105B00001000C00920AC
:1057500046000010400000104800001041000010FA
:105760004C000010430000104A00001042000010DE
:105770004E000010440000105C0000106500001096
:105780005D0000100001001059000010160000100C
:1057900018CE00001ACE00005E0000105F0000105E
:1057A00051000010600000107047704710B5FF48AE
:1057B000B0F90000B4280CDAFD48B0F90000032865
:1057C00007DDFC480088A0F1010000B2F94908801B
:1057D00006E0F848008800F1010000B2F5490880B1
:1057E000F448B0F9000010F10A0F03DA6FF0090075
:1057F000F0490880EF48B0F900000A2803DD4FF0B7
:105800000A00EC490880EB48B0F9000010F1050FE0
:105810000ADAE948007838B9012001F035F94FF08B
:105820000000E64908800EE0E248B0F900000528D3
:1058300009DDE148007830B1002001F025F94FF092
:105840000100DE49088010BD10B54FF00702104678
:10585000C0EBC00202EB4202D94B03EB8202D278CA
:10586000052A7EDAC0EBC00202EB420203EB8202A1
:105870009379C0EBC00202EB4202D14C04EB8202EE
:10588000D27903EB0222C0EBC00303EB430304EB2A
:1058900083031A62C0EBC00202EB4202234603EB11
:1058A0008202137AC0EBC00202EB420204EB8202D6
:1058B000527A03EB0222C0EBC00303EB430304EB79
:1058C0008303DA61C0EBC00202EB4202234603EB22
:1058D0008202937AC0EBC00202EB420204EB820226
:1058E000D27A03EB0222C0EBC00303EB430304EBC9
:1058F00083039A61C0EBC00202EB4202234603EB32
:105900008202127BC0EBC00303EB430304EB83036F
:105910005A62C0EBC00202EB4202234603EB820252
:10592000527BC0EBC00303EB430304EB830383F818
:105930005220C0EBC00202EB4202234603EB82027C
:10594000927BC0EBC00303EB430304EB830383F8B8
:105950003E20C0EBC00202EB4202234603EB820270
:1059600000E011E0137CC0EBC00202EB420204EB4A
:105970008202527C03EB0222C0EBC00303EB430321
:1059800004EB8303DA642DE04FF00002C0EBC003A8
:1059900003EB43038A4C04EB83039A61C0EBC0031F
:1059A00003EB430304EB83031A62C0EBC00303EB76
:1059B000430304EB8303DA61C0EBC00303EB43034F
:1059C00004EB83035A62C0EBC00303EB430304EB15
:1059D000830383F83E20C0EBC00303EB430304EBD7
:1059E0008303DA64C0EBC00202EB4202744B03EBA8
:1059F0008202926940F26C739A421ADDC0EBC002D7
:105A000002EB42026E4B03EB82029269B2F5166F13
:105A10000FDCC0EBC00202EB420203EB8202926990
:105A2000A2F26C724FF0320392FBF3F2654B1A70E4
:105A300013E0C0EBC00202EB4202614B03EB8202B7
:105A40009269B2F5166F04DD4FF00A025D4B1A70D1
:105A500003E04FF000025B4B1A705A4A12780A2A90
:105A600003DD4FF00A02574B1A70C0EBC00202EB85
:105A70004202534B03EB820292694FF00A0392FBFE
:105A8000F3F212B2504B1A80C0EBC00202EB42029A
:105A90004B4B03EB8202126A002A1ADDC0EBC002F4
:105AA00002EB420203EB8202126A9B2A11DCC0EB7A
:105AB000C00202EB420203EB8202126A02EB820294
:105AC0004FEA42024FF0960392FBF3F23F4B1A70FB
:105AD00012E0C0EBC00202EB4202394B03EB820240
