:020000040000FA
:10000000D0420010E1000000E5000000E700000021
:10001000E9000000EB000000ED000000000000001F
:10002000000000000000000000000000EF000000E1
:10003000F100000000000000F30000002D090000A6
:10004000F7000000F7000000F7000000F7000000D4
:10005000F7000000F7000000F7000000F7000000C4
:10006000F7000000F7000000F7000000F7000000B4
:10007000F7000000F7000000F7000000F7000000A4
:10008000F7000000F7000000F7000000F700000094
:10009000F7000000F7000000ED080000F700000086
:1000A000F700000091A40000F7000000F700000036
:1000B0003BB60000F7000000F7000000F70000006A
:1000C000F7000000F7000000F7000000DFF80CD098
:1000D0000BF01AFD00480047E35E0000D04200101C
:1000E00005480047FEE7FEE7FEE7FEE7FEE7FEE71E
:1000F000FEE7FEE7FEE7FEE7CD00000006280AD295
:10010000DFE800F003040506070804E003E002E06E
:1001100001E000E000BF00BF00BFFEE710B50CF03B
:10012000D7FE0CF033FF0CF025FFAFF30080BDE8E5
:1001300010400CF0F1BE10B50DF0AEFC0EF062F800
:10014000BDE810400DF000BD0DF014BC0DF0DCB9A1
:1001500009B1002070470CF0E3BD0020704740EA71
:1001600001039B0703D009E008C9121F08C0042A35
:10017000FAD203E011F8013B00F8013B521EF9D21C
:1001800070470146002000E0401C0A5C002AFBD1B9
:10019000704780EA010202F0004330B430F00042C0
:1001A00021F0004015D0A0B1C0F3C755C2F3C75429
:1001B000C2F31601C0F31600651B41F4000140F4C0
:1001C00000007D35814201D36D1C00E04900002D07
:1001D00002DA30BC002070474FF400020024814254
:1001E00001D3091A144352084FEA4101F7D151B122
:1001F000814202D14FF0004105E002D24FF00101EF
:1002000001E06FF0010104EBC55030BC18440BF065
:100210008FBAC10F80EAE0700844CA079623002114
:100220000BF08FBA00F0004230F000400DD0C10D4D
:1002300001F5607142EA01510022C0F31600520735
:1002400042EAD00240071143704700200146704740
:1002500030B50B46014600202022012409E021FA96
:1002600002F59D4205D303FA02F5491B04FA02F593
:100270002844151EA2F10102F1DC30BD2DE9F05F2A
:100280000546002092469B46884606468146402405
:100290001CE028464146474622460BF056FC524693
:1002A0005B46801A994111D31046194622460BF03D
:1002B0003DFC2D1A67EB0107B8464F462246012048
:1002C00000210BF033FC38184E418146201EA4F16A
:1002D0000104DEDC484631462A464346BDE8F09F2D
:1002E00000B500220BF0E4FCC04380B2010241EAF9
:1002F000102080B200BD704770477047FFFFFFFFBE
:100300004FF020008749086000BF8648006810F061
:10031000400FFAD04FF00300834908604FF40030DB
:100320008249C1F8A8014FF00000814908604FF0F0
:100330000100804908608048804908604FF0010052
:10034000A1F1040108604FF0AA007D4908604FF058
:1003500055007649C1F88C0000BF7848001D006840
:1003600010F0806FF9D04FF00300764908604FF02D
:10037000AA006E49C1F88C004FF055007049086022
:100380004FF02300704908604FF00100A1F1040113
:1003900008604FF0AA006D4908604FF055000860F2
:1003A00000BF6948001D006810F4806FF9D04FF05D
:1003B0000300674908604FF0AA005C49C1F8AC002F
:1003C0004FF05500614908606248634908604FF08A
:1003D00000005649C1F8C8010846D0F88800C0F3AB
:1003E0000160032868D15348006810F0030006D06C
:1003F000012823D002283FD003285CD100E000BFB1
:1004000056480068C0F30E0000F101004FEA4001B9
:100410004648D0F88800C0F3074000F10100B1FB66
:10042000F0F04F4900FB01F03F490968C9B201F102
:100430000101B0FBF1F04B4908603CE0474800681F
:10044000C0F30E0000F101004FEA40013748D0F838
:100450008800C0F3074000F10100B1FBF0F0424911
:1004600000FB01F030490968C9B201F10101B0FB9C
:10047000F1F03C4908601EE038480068C0F30E0007
:1004800000F101004FEA40012848D0F88800C0F38D
:10049000074000F10100B1FBF0F04FF4FA4100FB1E
:1004A00001F021490968C9B201F10101B0FBF1F085
:1004B0002C49086000BF2FE01E48006810F00300C0
:1004C00006D0012810D0022819D0032823D100E03B
:1004D00000BF15480068C0B200F101002049B1FB1F
:1004E000F0F02049086016E00F480068C0B200F143
:1004F00001001D49B1FBF0F01A4908600BE00A4801
:100500000068C0B200F101004FF4FA41B1FBF0F015
:100510001449086000BF00BF43F23A000349086075
:1005200070470000A0C10F4004C10F4000C00F4041
:10053000ACC10F400CC10F404F00030084C00F40FE
:100540008CC00F4080C00F40A4C00F40ACC00F4013
:10055000A0C00F4048F10041C4C00F4088C00F4008
:1005600000093D00240000108096980000EB8002F6
:10057000114600BFA1F101021100FBD170470146F5
:1005800000BFA1F101021100FBD170474FF0110033
:10059000FF49087270471FB5FE480078401CC0B282
:1005A000FC490870182802DB4FF000000870F94879
:1005B000007807287EDCF7480078C0EBC00000EB2D
:1005C0004000F54901EB800090F83100F1490978CD
:1005D000C1EBC10101EB4101EF4A02EB810191F84E
:1005E0003010EC4A1278C2EBC20202EB4202EA4B34
:1005F00003EB820292F82D20E64B1B78C3EBC3037A
:1006000003EB4303E44C04EB830393F82C30CDE974
:100610000032CDE90210DF480078C0EBC00000EBEB
:100620004000214601EB800090F828000346ED22AF
:10063000D8480178007809F00DFCD6480078D749F1
:10064000097888427EDAD3480078C0EBC00000EB1E
:100650004000214601EB8000C0780A2835DACD48F9
:100660000078C0EBC00000EB400001EB8000C078D8
:1006700000F10100C7490978C1EBC10101EB41015B
:10068000224602EB8101C870C2480078C0EBC0006E
:1006900000EB4000114601EB8000C0780A2820DB07
:1006A000BC480078C0EBC00000EB400001EB8000CC
:1006B000407800E058E010F0080F12D10122032129
:1006C000B448007807F0D1F80BE04FF00A00B149C8
:1006D0000978C1EBC10101EB4101AF4A02EB810195
:1006E000C870AC480078C0EBC00000EB4000AA49DD
:1006F00001EB8000C07803281FDBA6480078C0EB20
:10070000C00000EB400001EB80000079032814DA00
:10071000A0480078C0EBC00000EB400001EB800077
:10072000407900F101009B490978C1EBC10101EB5F
:100730004101994A02EB8101487196480078C0EB6B
:10074000C00000E028E000EB4000934901EB80008E
:10075000C07890490978C1EBC10101EB41018E4A93
:1007600002EB8101087167E08A480078082863D0AD
:100770008848007809285FD0864800780A280CD17C
:1007800000200090019002900346024603908148A9
:100790000178007809F05EFB4EE07E4800780C2876
:1007A0004AD07C4800780D2846D07A4800780E2838
:1007B00042D07848007814280CD100200090019095
:1007C000029003460246039072480178007809F0CF
:1007D00041FB31E06F48007815280CD100200090D3
:1007E000019002900346024603906A48017800781F
:1007F00009F030FB20E06748007816280CD1002073
:1008000000900190029003460246039061480178EF
:10081000007809F01FFB0FE05E48007817280BD125
:100820000020009001900290034602460390594830
:100830000178007809F00EFB1FBD10B5682009F0A3
:1008400038F8574908706A2009F033F8544948705D
:100850006C2009F02EF8524988706E2009F029F8B2
:100860004F49C870702009F024F84D490872722071
:1008700009F01FF8C1B24A4841724FF0740009F004
:1008800018F8C1B2464881724FF0760009F011F8AD
:10089000C1B24348C1724FF0A40009F00AF84049C0
:1008A0000871A62009F005F8C1B23D4841714FF02A
:1008B000A80008F0FEFFC1B2394881714FF0AA00CC
:1008C00008F0F7FFC1B23648C17110BD10B50DF088
:1008D000DBFE4FF001003349087010BD01460029CE
:1008E00002DA484200B270470846FCE72E4800682A
:1008F00020F0E0602C49086008464068C0F30B1007
:100900002A492B4A127821F812002948007800F170
:1009100001002749087008460078032805DA2248B4
:10092000006840F080702049086070474FF0010077
:10093000204908702048008800F1010000B21E49DB
:1009400008800A2807D14FF001001C4908704FF0B9
:100950000000194908801A480088401C00B2184954
:100960000880142807D14FF00100164908704FF095
:1009700000001349088014480088401C00B2124946
:100980000880642831D14FF00100104908701FE041
:1009900000400240F8000010400A0010350000102E
:1009A0009040001071000010004003402001001032
:1009B000170100106A000010280000106B000010E2
:1009C0002A0000106C0000102C0000106D000010B8
:1009D0004FF00000FF490880FF48007828B1FF4829
:1009E000406B80F48010FD494863FD480088401C3E
:1009F00000B2FB490880C82807D14FF00100F9492F
:100A000008704FF00000F6490880F7480088401C45
:100A100000B2F5490880B0F5FA7F07D14FF0010028
:100A2000F24908704FF00000EF490880F048008854
:100A3000401C00B2EE490880B0F57A7F07D14FF034
:100A40000100EC4908704FF00000E9490880704748
:100A500010B580B913884FF6FF74A34203DA1388E8
:100A600003F1010313800B78FF2B08DA0B7803F1F5
:100A700001030B7003E04FF0000313800B7010BDF7
:100A800058B90B78012B03DB4FF0FF0313700EE016
:100A90000B7803F101030B7009E00B781BB94FF0E1
:100AA0000003137003E00B78A3F101030B70704790
:100AB00080B9137873B90B78012B03DB4FF0FF0378
:100AC00013700DE00B78012B0ADA0B7803F10103A8
:100AD0000B7005E00B781BB10B78A3F101030B70D1
:100AE000704710B518B1C44B1B78012B13D1137884
:100AF0008BB90B78012B09DB4FF00F0313704FF00C
:100B00000003BD4C2370BD4C237032E00B7803F121
:100B100001030B702DE018B1B84B1B78012B14D1D9
:100B200013781F2B11D10B78012B09DB4FF02F030A
:100B300013704FF00003B14C2370AF4C237018E0DA
:100B40000B7803F101030B7013E00B788BB180B1CC
:100B50000B78A3F101030B7013780F2B03D14FF027
:100B60001F03137005E013782F2B02D14FF0000301
:100B7000137010BD30B591B002464FF0000420460E
:100B800021464FF00104234636E04FEA0314A4F156
:100B90001004E4B2204621E0545C0A2C09D0545CD5
:100BA0003CB1545C0DF8004001F10104E4B221466F
:100BB00010E000BF07E04FF020040DF8004000F106
:100BC0000104E4B220461C018442F4DC01F101047A
:100BD000E4B2214600F10104E4B220461C01844243
:100BE000DADC545C0A2C03D101F10104E4B22146A1
:100BF00003F10104E4B22346052BC6DB4FF00004E9
:100C0000204606E01DF80040145400F10104E4B24F
:100C100020464028F6DB11B030BDF0B54FF000059E
:100C20002A4607E04FF00005754EB55402F1010564
:100C30002DB22A4640F2FF35AA42F3DB4FF0000501
:100C40002A46F5E04FF000052C46EAE04FF010058B
:100C500005FB02456B4E735DBF2B06DDA3F16105FD
:100C600005EB45054FEAC5000BE01F2B06DDA3F1A0
:100C7000200505EB45054FEAC50002E04FF00005F1
:100C800028464FEA02254FF0080606FB04515E4E47
:100C900000F10405775D0D4601F101063146584E1D
:100CA0007755594E00F10605775D0D4601F10106B5
:100CB0003146534E7755544E00F10805775D0D4689
:100CC00001F1010631464E4E77554F4E00F10A05AF
:100CD000775D0D4601F101063146494E77554A4E82
:100CE00000F10C05775D0D4601F101063146444ED9
:100CF0007755454E00F10E05775D0D4601F1010671
:100D000031463F4E7755404E00F11005775D0D4658
:100D100001F1010631463A4E77553B4E00F112057E
:100D2000775D0D4601F101063146354E77554FEAA4
:100D300002254FF0080606FB045505F180052946FB
:100D4000314E00F10505775D0D4601F10106314692
:100D50002B4E77552C4E00F10705775D0D4601F1BE
:100D600001063146264E7755274E00F10905775D7D
:100D70000D4601F101063146214E7755224E00F114
:100D80000B05775D0D4601F1010631461C4E775586
:100D90001D4E00F10D05775D0D4601F1010631464E
:100DA000174E7755184E00F10F05775D0D4601F18E
:100DB00001063146124E7755134E00F11105775D4D
:100DC0000D4601F1010631460D4E77550E4E00F1EC
:100DD00013051BE02C0000107200001000C0092059
:100DE0002E0000106E000010300000106F00001088
:100DF00032000010700000101401001013010010E8
:100E0000F8050010F8090010E8E80000775D0D46CD
:100E100001F101063146F84E775504F101052DB276
:100E20002C46102CFFF612AF02F101052DB22A4616
:100E3000042AFFF607AFF0BD00B5ADB0EF4800786B
:100E400030287DD033DC81F01E85DFE810F06800AB
:100E50009700BE00E40041018C01CB0BCB0BCB0B08
:100E6000CB0BCB0BCB0BCB0BCB0BCB0BCB0BCB0BD2
:100E7000CB0BCB0BCB0BD001E502CB0BCB0BCB0BB6
:100E8000CB0BCB0BCB0BCB0BCB0BEA0217034503E6
:100E900063038F03BC03F5032504CB0BCB0B470483
:100EA0006204AB045F06C406F5065A07920742289F
:100EB00001F0308411DCA0F131000C28C3D2DFE84E
:100EC00010F0A007D707DD084E097F09E509170ACA
:100ED0007D0AAE0A610B920BF80B4B2801F0878458
:100EE0000ADCA0F146000528ADD2DFE810F0180CAE
:100EF000340C470C5A0C6D0CFB2801F0A28407DC63
:100F00004C2801F08784FA2841F0BD8401F092BC9E
:100F1000FC2801F09D84FF28F6D101F0A0BCB84860
:100F2000B0F900000A2190FBF1F00990B548B0F942
:100F3000000090FBF1F201FB12000890B14800E0C4
:100F4000F5E3B0F900100A2091FBF0F00790AE48ED
:100F5000B0F900100A2091FBF0F00690AB49B1F90E
:100F60000020DDE90810CDE900120290A8A1B548E3
:100F7000DDE906230AF0BAFE01F085BCA048B0F90D
:100F800000000A2190FBF1F009909E48B0F90000A2
:100F9000642190FBF1F201FB120008909948B0F92E
:100FA000000090FBF1F00790A748B0F90010974AB5
:100FB000B2F900200998CDE900200291A3A1A1482F
:100FC000DDE907230AF092FED6E7AC48B0F900004D
:100FD0000A2190FBF1F201FB12000990A748B0F939
:100FE000000090FBF1F008908548B0F9000090FBFC
:100FF000F1F00790944AB2F90020DDE90810CDE93C
:10100000002102908148B0F900209DA18D48079BE6
:101010000AF06CFEB0E7A6480088B0F5167F21DB29
:101020009648B0F900000A2190FBF1F201FB120092
:1010300009909248B0F9000090FBF1F008907048D8
:10104000B0F9000090FBF1F00790DDE90801CDE96F
:1010500000017D48B0F9003096A17A48079A0AF05D
:1010600045FE34E0A048B0F90000FFF7D2F89F49F0
:101070000390FFF78EF80490FFF7D4F8CDE908014C
:101080007E48B0F900000A2190FBF1F201FB12004A
:1010900007907A48B0F900100A2091FBF0F0069012
:1010A0005748B0F900000A2190FBF1F00590DDE906
:1010B0000801CDE90201DDE90601CDE90001624840
:1010C000B0F900308AA15F48059A0AF00FFE53E795
:1010D00077480088B0F5167F19DB6848B0F9000042
:1010E0000A2190FBF1F201FB120009906348B0F96C
:1010F000000090FBF1F00890099800905248B0F978
:10110000002087A14F48089B0AF0F0FD2AE07648AE
:10111000B0F90000FFF77DF874490490FFF739F843
:101120000590FFF77FF8CDE908015448B0F90000B9
:101130000A2190FBF1F201FB120007904F48B0F931
:10114000000090FBF1F00690DDE90801CDE9020115
:10115000079800903C48B0F900207EA13948069BD2
:101160000AF0C4FD08E752480088B0F5167F16DB88
:101170004248B0F900000A2190FBF1F201FB120095
:1011800009903E48B0F900100A2091FBF0F0089059
:1011900002467CA12B48099B0AF0A8FD26E0524894
:1011A000B0F90000FFF735F850490490FEF7F1FF61
:1011B0000590FFF737F8CDE908013048B0F9000095
:1011C0000A2190FBF1F201FB120007902B48B0F9C5
:1011D000000090FBF1F00690DDE90801CDE9000187
:1011E00074A11848DDE906230AF080FDC4E67DA15C
:1011F00014480AF07BFDBFE6F80500103800001027
:1012000012E0072038E0072036E007203CE0072006
:101210002055E2FBF53D252D75C20A2049E2FBF57C
:101220003D252D752E25303175C00A2050E2FBF585
:101230003D252D64C2F20A2055F1E5F2E83D252D49
:1012400075C20000F80900103AE007202049E2FBCF
:10125000F53D252D752E25303275C00A2050E2FB54
:10126000F53D252D64C2F20A2055F1E5F2E83D2551
:101270002D75C20A20743D25642743002EE0072007
:101280002050E2FBF53D252D64C2F20A2055F1E520
:10129000F2E83D252D75C20A20743D252D642743B3
:1012A0000A2055E1E0F23D252D752E252D754200D1
:1012B000540000102055F1E5F2E83D252D75C20AD5
:1012C00020743D252D6427430A2055E1E0F23D2599
:1012D0002D752E252D75420A2049E1E0F23DCAC048
:1012E000CBC8C1D02E00000030E007200000C8426B
:1012F0002055F1E5F2E83D252D75C20A20743D2503
:101300002D6427430A2055E1E0F23D252D752E2559
:101310002D75420A2049E1E0F23D252E326641005A
:1013200020743D252D6427430A2055E1E0F23D2538
:101330002D752E252D75420A2049E1E0F23DCAC0E7
:10134000CBC8C1D02E0A20D3D1D2C0CDCEC2CAC8FC
:101350000000000020743D252D6427430A2055E13C
:10136000E0F23D252D752E252D75420A2049E1E03C
:10137000F23D252E3266410A20D3D1D2C0CDCEC255
:10138000CAC800002055E1E0F23D252D752E252D1F
:1013900075420A2049E1E0F23DCAC0CBC8C1D02E57
:1013A0000A20D3D1D2C0CDCEC2CAC80A20C2DBD552
:1013B000CEC400002055E1E0F23D252D752E252DEF
:1013C00075420A2049E1E0F23D252E3266410A20AD
:1013D000D3D1D2C0CDCEC2CAC80A20C2DBD5CEC4BA
:1013E0000000000020202020D3D1D2C0CDCEC2CA20
:1013F000C80A20C2FBE1EEF020E3EB2EECE5EDFEA7
:101400000A20C8EDF2E5F0EDE5F20A20CAE0EBE8CB
:10141000E1F0EEE2EAE00000F4A1FF480AF066FC29
:10142000AAE5FE48B0F90000642190FBF1F201FB4F
:1014300012000990F948B0F9000090FBF1F0089013
:10144000F748B0F900000A2190FBF1F201FB12000D
:101450000790F348B0F900100A2091FBF0F00690D5
:10146000F048B0F90020DDE908018DE80700EEA1A1
:10147000E948DDE906230AF039FC7DE5F948B0F9D1
:1014800000000A2190FBF1F201FB12000990F548DF
:10149000B0F900100A2091FBF0F00890DF48B0F995
:1014A0000000642190FBF1F201FB12000790DB4881
:1014B000B0F9000090FBF1F00690DA4AB2F9002092
:1014C000DDE90810CDE900210290E7A1D248DDE96D
:1014D00006230AF00BFC4FE5E248B0F900000A21B0
:1014E00090FBF1F201FB12000990DE48B0F9000018
:1014F00090FBF1F00890EB48B0F900100998CDE9A5
:101500000001C848B0F90020E7A1C348089B0AF0D1
:10151000EDFB31E5F148B0F900000A2190FBF1F252
:1015200001FB12000990ED48B0F9000090FBF1F0CA
:101530000890CC48B0F9000090FBF1F201FB1200DA
:101540000790C848B0F9000090FBF1F00690D54A2A
:10155000B2F90020DDE90810CDE900210290E0A1F8
:10156000AD48DDE906230AF0C1FB05E5EA48B0F91C
:101570000000FEF74EFEE9490490FEF70AFE0590D2
:10158000FEF750FECDE90801D448B0F900000A2169
:1015900090FBF1F201FB12000790D048B0F9001067
:1015A0000A2091FBF0F00690DDE90801CDE9020187
:1015B00007980090BB48B0F90020D9A19648069B37
:1015C0000AF094FBD8E4E348007810B9E2A00E904A
:1015D00008E0E0480078012802D1E1A00E9001E087
:1015E000E1A00E90CC48B0F90000FEF712FECB4906
:1015F0000490FEF7CEFD0590FEF714FECDE908013C
:10160000B648B0F900000A2190FBF1F201FB12008C
:101610000790B248B0F9000090FBF1F006900E98E8
:101620000290DDE90801CDE90001D0A17A48DDE9A9
:1016300006230AF05BFB9FE4C648007810B9C6A0F9
:101640000E9008E0C3480078012802D1C4A00E9093
:1016500001E0C5A00E90D348007810B9BEA00F904D
:1016600001E0C1A00F90AC48B0F90000FEF7D1FD39
:10167000AA490690FEF78DFD0790FEF7D3FDCDE950
:101680000801DDE90E01CDE90001C7A16248DDE9ED
:1016900008230AF02BFB6FE4AE48007810B9AEA027
:1016A0000E9008E0AB480078012802D1ACA00E9063
:1016B00001E0ADA00E90BB48007810B9A6A00F9035
:1016C00001E0A9A00F900F9809900E98089002468B
:1016D000C3A15148099B0AF009FB4DE4CC4800889E
:1016E00010B1A1A00E9001E09BA00E90C948008807
:1016F00010B19DA00F9001E097A00F900F98099056
:101700000E9808900246C4A14348099B0AF0EEFADD
:1017100032E4BF48008810B1CCA00E9001E08EA04A
:101720000E90BC48008818B1C8A00F9002E05DE39D
:1017300089A00F90C748B0F90010C748B0F9000061
:10174000C64AB2F90020CDE9002002910F98099015
:10175000C348B0F90030C3A12F48099A0AF0C6FA6D
:10176000CF480078E8B1CF480078032819D14FF06E
:101770002001CD4800784FF0290202EB8000264A74
:101780001154C94800784FF02A0202EB8000224A27
:101790001154C54800784FF02B0202EB80001E4A1E
:1017A000115411E4AB48B0F90000AB49B1F9001095
:1017B000CDE90010A948B0F90030A948B0F90020DF
:1017C000BAA115480AF092FAB548007868B1B54850
:1017D0000078022809D14FF02001B34800784FF07B
:1017E000180202EB80000C4A7EE18EE120202020CE
:1017F000D3D1D2C0CDCEC2CAC80A20C8EDF2E5F01E
:10180000EDE5F20A20CAE0EBE8E1F0EEE2EAE00AF8
:1018100020C2DBD5CEC40000F809001038E0072054
:1018200036E007203CE00720202020CAC0CBC8C1FA
:10183000D0CEC2CAC00A2055E2FBF53D252D752E3B
:1018400025303175C20A2049E2FBF53D252D752E64
:1018500025303275C00A2050E2FBF53D252D64C2CB
:10186000F200000012E00720202020CAC0CBC8C12F
:10187000D0CEC2CAC00A2049E2FBF53D252D752E07
:1018800025303275C00A2050E2FBF53D252D64C29B
:10189000F20A2055F1E5F2E83D252D752E2530316F
:1018A00075C200003AE00720202020CAC0CBC8C182
:1018B000D0CEC2CAC00A2050E2FBF53D252D64C23D
:1018C000F20A2055F1E5F2E83D252D752E2530313F
:1018D00075C20A20743D2564274300002EE00720CE
:1018E000202020CAC0CBC8C1D0CEC2CAC00A205551
:1018F000F1E5F2E83D252D752E25303175C20A201F
:10190000743D256427430A2055E1E0F23D252D75FD
:101910002E252D754200000030E007200000C8424F
:10192000202020CAC0CBC8C1D0CEC2CAC00A2074F1
:101930003D256427430A2055E1E0F23D252D752E13
:10194000252D75420A2049E1E0F23D252E326641FF
:101950000000000063000010C2DBCACB00000000E2
:10196000C0CCCFCB00000000C2CACB00202020CAD0
:10197000C0CBC8C1D0CEC2CAC00A2055E1E0F23DFA
:10198000252D752E252D75420A2049E1E0F23D25D1
:101990002E3266410A20CAEEEDF2F02EF1E5F2E8B1
:1019A0002025730064000010202020CAC0CBC8C1CD
:1019B000D0CEC2CAC00A2049E1E0F23D252E3266EF
:1019C000410A20CAEEEDF2F02EF1E5F2E82025738F
:1019D0000A20D3EFF02ED8C8CC20257300000000D9
:1019E000202020CAC0CBC8C1D0CEC2CAC00A20CADB
:1019F000EEEDF2F02EF1E5F2E82025730A20D3EFA8
:101A0000F02ED8C8CC2025730A20C2DBD5CEC40066
:101A1000980000109A00001020202045544845529C
:101A20004E45543A0A2045746865726E65742025E7
:101A3000730A2044484350EAEBE8E5EDF2202573B1
:101A40000A204950E0E4F0E5F13A0000C2CACB2098
:101A500000000000A2000010A00000109E00001076
:101A60009C00001020202045544845524E45543AD1
:101A70000A2044484350EAEBE8E5EDF22025730ADA
:101A8000204950E0E4F0E5F13A0A20253033752E84
:101A9000253033752E253033752E253033750000F3
:101AA000570000103B0000105D0000102020204572
:101AB000544845524E45543A0A204950E0E4F0E576
:101AC000F13A0A20253033752E253033752E253016
:101AD00033752E253033750A20CCE0F1EAE020EF93
:101AE000EEE4F1E5F2E83A001154FB4800784FF0DB
:101AF000190202EB8000F94A1154F74800784FF0C0
:101B00001A0202EB8000F54A115489E4F448B0F956
:101B10000000F449B1F90010F34AB2F90020F34B88
:101B2000B3F90030CDE90232CDE90410F048B0F944
:101B30000000F049B1F90010CDE90010EE48B0F90D
:101B40000030EE48B0F90020ED49E4480AF0CEF844
:101B5000EC480078E8B1EC480078032819D14FF040
:101B60002001DD4800784FF02F0202EB8000DB4AB5
:101B70001154D94800784FF0300202EB8000D74A68
:101B80001154D54800784FF0310202EB8000D34A5F
:101B90001154DC480078E8B1DB480078012819D1FD
:101BA0004FF02001CC4800784FF00E0202EB80008D
:101BB000CA4A1154C84800784FF00F0202EB800067
:101BC000C64A1154C44800784FF0100202EB80005E
:101BD000C24A115424E4C248B0F90000C149B1F925
:101BE0000010CDE90010C048B0F90030BF48B0F98E
:101BF0000020C6A1B9480AF079F8C2480078D0B1EF
:101C0000C1480078022816D14FF02001B248007870
:101C10004FF01E0202EB8000B04A1154AE4800782B
:101C20004FF01F0202EB8000AC4A1154AA48007822
:101C300001EB8000115420E4C348B0F90010C34800
:101C4000B0F90000C24AB2F90020C24BB3F900302B
:101C5000CDE90232CDE90401A148B0F90000A14963
:101C6000B1F90010CDE900109F48B0F900309F484D
:101C7000B0F90020B8A199480AF038F8A1480078D6
:101C8000E8B1A1480078012819D14FF0200192480D
:101C900000784FF00E0202EB8000904A11548E48FB
:101CA00000784FF00F0202EB80008C4A11548A48F2
:101CB00000784FF0100202EB8000884A11549148DE
:101CC0000078E8B190480078032819D14FF020013E
:101CD000814800784FF0260202EB80007F4A1154C1
:101CE0007D4800784FF0270202EB80007B4A1154B8
:101CF000794800784FF0280202EB8000774A1154AF
:101D000007E4A548B0F900108F48B0F900008F4AE9
:101D1000B2F90020CDE9002002918D48B0F90030E1
:101D20008C48B0F900209DA16C4809F0DFFF754890
:101D30000078E8B174480078022819D14FF02001EA
:101D4000654800784FF0150202EB8000634A115499
:101D5000614800784FF0160202EB80005F4A115490
:101D60005D4800784FF0170202EB80005B4A115487
:101D700028E49948B0F900008749B1F90010724A87
:101D8000B2F90020714BB3F90030CDE90032CDE952
:101D900002106F48B0F900306E48B0F90020584981
:101DA00048314E4809F0A2FF56480078E8B156483D
:101DB0000078012819D14FF02001474800784FF0F2
:101DC0000E0202EB8000454A1154434800784FF060
:101DD0000F0202EB8000414A11543F4800784FF057
:101DE000100202EB80003D4A115424E47A48B0F915
:101DF00000306948B0F9002078A1384809F076FF32
:101E000019E44FF000000A9009E083490A98095C40
:101E10000BAA11540A9800F10100C0B20A900A9866
:101E20000A28F2DB37480078C8B137480078032821
:101E300015D14FF05F000BA9274A127888547648D5
:101E4000FEF79FF924490978884208D10BA8FEF7CC
:101E500098F900F101000BA94FF00A020A540BABEC
:101E60005D48B0F900206DA11C4809F03FFF12E465
:101E70004FF000000A9009E067490A98095C0BAA34
:101E800011540A9800F10100C0B20A900A980A2879
:101E9000F2DB1C480078C8B11B480078022815D135
:101EA0004FF05F000BA90C4A127888545A48FEF78D
:101EB00068F909490978884208D10BA8FEF761F949
:101EC00000F101000BA94FF00A020A540BAA5FA10E
:101ED000024809F00BFF1BE45D000010F809001038
:101EE000AA000010A8000010A6000010A400001016
:101EF000A2000010A00000109E0000109C00001026
:101F000004F80000570000103B000010202020457E
:101F1000544845524E45543A0A20CCE0F1EAE020BC
:101F2000EFEEE4F1E5F2E83A0A20253033752E258C
:101F30003033752E253033752E253033750A20D871
:101F4000EBFEE73A00000000B2000010B000001005
:101F5000AE000010AC00001020202045544845522F
:101F60004E45543A0A20253033752E253033752ED0
:101F7000253033752E253033750A20D8EBFEE73A2D
:101F80000A20253033752E253033752E25303375D4
:101F90002E25303375000000B800001020202045A9
:101FA000544845524E45543A0A20D8EBFEE73A0AC7
:101FB00020253033752E253033752E253033752E80
:101FC000253033750A20CFEEF0F22EF7F2E5EDE87A
:101FD000FF20252D75000000BA00001020202045AC
:101FE000544845524E45543A0A20CFEEF0F220F7BD
:101FF000F2E5EDE8FF20252D750A20CFEEF0F22066
:10200000E7E0EFE8F1E820252D750A20436F6D6DBC
:10201000756E6974793A00001A000010202020457E
:10202000544845524E45543A0A20CFEEF0F220E78C
:10203000E0EFE8F1E820252D750A20436F6D6D75FE
:102040006E6974793A0A202573000000202020452B
:10205000544845524E45543A0A20436F6D6D756E93
:102060006974793A0A2025730A20C0E4F0E5F1E0AA
:10207000F22054524150204E310000004FF0000039
:102080000A9009E0FF490A98095C0BAA11540A98C2
:1020900000F10100C0B20A900A980A28F2DBFA485F
:1020A0000078C8B1F9480078012815D14FF05F00D9
:1020B0000BA9F74A12788854F248FEF762F8F449FF
:1020C0000978884208D10BA8FEF75BF800F10100FF
:1020D0000BA94FF00A020A54EE48B0F90010EE487E
:1020E000B0F90000ED4AB2F90020CDE900200291DC
:1020F000EB48B0F900300BAAEAA1F84809F0F6FD68
:10210000E148007850B3E1480078032826D10BA8B5
:10211000FEF737F800F12100DD49097800EB810076
:10212000EE494FF020020A540BA8FEF72AF800F1FE
:102130002200D749097800EB8100E8494FF02002DE
:102140000A540BA8FEF71DF800F12300D0490978C6
:1021500000EB8100E1494FF020020A5493E3CD489F
:10216000B0F90000CC49B1F90010CDE90010CB481E
:10217000B0F90030CA48B0F90020D949D74809F071
:10218000B5FDC1480078D0B1C0480078022816D10A
:102190004FF02001BE4800784FF01F0202EB800094
:1021A000CE4A1154BA48007801EB80001154B84867
:1021B00000784FF0210202EB8000C84A115462E31C
:1021C000C848B0F90010C848B0F90020C748B0F9B5
:1021D0000000C74BB3F90030CDE90230CDE904214E
:1021E000AC48B0F90000AC49B1F90010CDE90010DD
:1021F000AA48B0F90030AA48B0F90020B8494431E3
:10220000B64809F073FDA0480078E8B19F4800780F
:10221000012819D14FF020019D4800784FF00E029F
:1022200002EB8000AD4A1154994800784FF00F023C
:1022300002EB8000A94A1154954800784FF0100233
:1022400002EB8000A54A11548F480078E8B18F480E
:102250000078032819D14FF020018D4800784FF005
:10226000300202EB80009D4A1154894800784FF0FB
:10227000310202EB8000994A1154854800784FF0F2
:10228000320202EB8000954A1154FCE29548B0F905
:1022900000009549B1F90010CDE900109348B0F95C
:1022A00000309348B0F900208D498C318B4809F0FB
:1022B0001DFD75480078D0B174480078022816D109
:1022C0004FF02001724800784FF01F0202EB8000AF
:1022D000824A11546E48007801EB800011546C481A
:1022E00000784FF0210202EB80007C4A1154CAE2D0
:1022F0008048B0F900008049B1F900107F4AB2F976
:1023000000207F4BB3F90030CDE90232CDE9041053
:102310007448B0F900007449B1F90010CDE900101B
:102320007248B0F900307248B0F900206C49D031E1
:102330006A4809F0DBFC54480078E8B1534800785B
:10234000012819D14FF02001514800784FF00E02BA
:1023500002EB8000614A11544D4800784FF00F02A3
:1023600002EB80005D4A1154494800784FF010029A
:1023700002EB8000594A115443480078E8B14348C1
:102380000078032819D14FF02001414800784FF020
:10239000300202EB8000514A11543D4800784FF062
:1023A000310202EB80004D4A1154394800784FF059
:1023B000320202EB8000494A115464E24D48B0F900
:1023C00000004D49B1F90010CDE900104B48B0F9BB
:1023D00000304B48B0F900204A49404809F086FCDB
:1023E00029480078D0B129480078022816D14FF04A
:1023F0002001274800784FF01F0202EB8000374A87
:1024000011542348007801EB8000115420480078D3
:102410004FF0210202EB8000304A115433E23A4877
:10242000B0F900003949B1F90010394AB2F9002079
:10243000384BB3F90030CDE90232CDE904102D4814
:10244000B0F900002C49B1F90010CDE900102B487B
:10245000B0F900302A48B0F900202A4944311F4819
:1024600009F044FC0848007850B108480078012879
:1024700066D14FF02001064800784FF00E024BE085
:102480005EE000001A000010570000103B00001032
:102490005D000010C2000010C0000010BE0000105F
:1024A000BC00001020202045544845524E45543A67
:1024B0000A2025730A20C0E4F0E5F1E0F22054522E
:1024C0004150204E310A20253033752E253033758A
:1024D0002E253033752E253033750000F809001095
:1024E00090F80000CA000010C8000010C6000010DC
:1024F000C4000010D2000010D0000010CE00001068
:10250000CC000010A8F90000DA000010D80000107C
:10251000D6000010D400001002EB8000FC4A1154D9
:10252000FC4800784FF00F0202EB8000F84A11548B
:10253000F84800784FF0100202EB8000F44A115482
:10254000F5480078E8B1F5480078032819D14FF034
:102550002001F04800784FF0300202EB8000EC4A96
:102560001154EC4800784FF0310202EB8000E84A49
:102570001154E84800784FF0320202EB8000E44A40
:10258000115480E1E648B0F90000E649B1F90010C5
:10259000CDE90010E448B0F90030E448B0F900207B
:1025A000E349DB4809F0A2FBDB480078D0B1DB4807
:1025B0000078022816D14FF02001D64800784FF05D
:1025C0001F0202EB8000D24A1154D248007801EB7E
:1025D00080001154CF4800784FF0210202EB8000B8
:1025E000CB4A11544FE1D348B0F90000D249B1F9B8
:1025F0000010D24AB2F90020D14BB3F90030CDE936
:102600000232CDE90410C648B0F90000C549B1F95D
:102610000010CDE90010C448B0F90030C348B0F94B
:102620000020C3494431BA4809F060FBBA48007839
:10263000E8B1BA480078012819D14FF02001B54817
:1026400000784FF00E0202EB8000B14A1154B148FD
:1026500000784FF00F0202EB8000AD4A1154AD48F4
:1026600000784FF0100202EB8000A94A1154AA48EA
:102670000078E8B1A9480078032819D14FF020016B
:10268000A44800784FF0300202EB8000A04A1154B9
:10269000A04800784FF0310202EB80009C4A1154B0
:1026A0009C4800784FF0320202EB8000984A1154A7
:1026B000E9E0A048B0F900009F49B1F90010CDE968
:1026C00000109E48B0F900309D48B0F900209DA14F
:1026D0008F4809F00BFB90480078D0B18F48007804
:1026E000022816D14FF020018A4800784FF01F02CF
:1026F00002EB8000864A11548648007801EB800086
:102700001154844800784FF0210202EB8000804A87
:102710001154B8E09AA17E4809F0E8FAB3E0A14864
:10272000007818B1AFF6C0500E9002E0AFF6D85066
:102730000E909C48C0789B498978CDE90010994853
:10274000407809900E980890024697A17048099B1E
:1027500009F0CCFA97E0934800799249C978CDE91D
:1027600000109048807809908E4840780890024682
:102770009BA16748099B09F0B9FA84E08948407930
:1027800088490979CDE900108648C07809908548C4
:102790008078089002469FA15D48099B09F0A6FA3F
:1027A00071E0804880797F494979CDE900107D4802
:1027B000007909907B48C07808900246A1A154484E
:1027C000099B09F093FA5EE07648C07975498979EA
:1027D000CDE900107348407909907248007908905B
:1027E0000246A3A14A48099B09F080FA4BE06D48D4
:1027F000007A6C49C979CDE900106A48807909905E
:102800006848407908900246A4A14148099B09F014
:102810006DFA38E06348007A00906248C079099008
:102820006048807908900246A7A13948099B09F0C1
:102830005DFA28E0AE480288AEA1354809F056FAA4
:1028400021E0AB480288B5A1314809F04FFA1AE0FF
:10285000A7480288BBA12E4809F048FA13E0C3A19B
:102860002B4809F043FAC84801780078401EC64A50
:10287000107039B9C5480078C5490870C548007856
:102880002649087000BF00BF2DB000BD10B5FEF78F
:10289000D3FA1F48FEF76EF9BD480078FA2807DA28
:1028A0004FF03E011D480078194A02EB00100170FC
:1028B000FEF7B3F94FF0000408E0B749095D084698
:1028C00008F0ECF804F1010000B20446B4F5806FA2
:1028D000F3DB10BD1148007830B110480078A0F14A
:1028E00001000E49087005E0A9480078A0F1010038
:1028F000A7490870704709480078032806D1A44802
:10290000007800F10100A24908704DE146E10000A5
:10291000F80900105D000010570000103B00001087
:10292000DA000010D8000010D6000010D40000100B
:1029300034FA0000E2000010E0000010DE00001099
:10294000DC00001020202045544845524E45543AA2
:102950000A20C0E4F0E5F1E0F22054524150204E4C
:10296000350A20253033752E253033752E2530332A
:10297000752E253033750A20C2DBD5CEC400000089
:1029800020202045544845524E45543A0A2045746B
:102990006865726E657420C2DBCACB0A20C2DBD5C3
:1029A000CEC40A00BC05001020C3EB2EECE5EDFE02
:1029B0002025730A20F7E5F0E5E720252D75F1E5E0
:1029C000EA0A20E8EDF2E5F0E2E0EB20252D75F1D2
:1029D000E5EA0A202025632055E2FBF5000000000F
:1029E00020F7E5F0E5E720252D75F1E5EA0A20E876
:1029F000EDF2E5F0E2E0EB20252D75F1E5EA0A20A5
:102A00002025632055E2FBF50A202025632049E2BA
:102A1000FBF5000020E8EDF2E5F0E2E0EB20252DEB
:102A200075F1E5EA0A202025632055E2FBF50A202E
:102A30002025632049E2FBF50A2020256320D0E20F
:102A4000FBF50000202025632055E2FBF50A20203D
:102A500025632049E2FBF50A2020256320D0E2FB14
:102A6000F50A202025632055F1E5F2E8000000007A
:102A7000202025632049E2FBF50A2020256320D091
:102A8000E2FBF50A202025632055F1E5F2E80A2053
:102A90002025632055E1E0F200000000202025639E
:102AA00020D0E2FBF50A202025632055F1E5F2E86D
:102AB0000A202025632055E1E0F20A20202563202A
:102AC00049E1E0F200000000202025632055F1E5F7
:102AD000F2E80A202025632055E1E0F20A202025B3
:102AE000632049E1E0F20A20C2DBD5CEC400000039
:102AF00058000010C2E2E5E4E8F2E520EFE0F0EE75
:102B0000EBFC3A0A20202020202025303375200AB3
:102B100020202020202020202A0A0000C2E2E5E414
:102B2000E8F2E520EFE0F0EEEBFC3A0A202020206E
:102B3000202025303375200A202020202020202A24
:102B40000A000000C2E2E5E4E8F2E520EFE0F0EE82
:102B5000EBFC3A0A20202020202025303375200A63
:102B60002020202020202A0A000000000A20202007
:102B70002020CFE0F0EEEBFC0A20202020EDE52025
:102B8000E2E5F0E5ED210A005C00001039000010DC
:102B9000380000103C000010F8050010FF480078D5
:102BA00000F10100FD4908707047FC4800780128D9
:102BB00006DDFA480078A0F10100F849087005E048
:102BC000F7480078A0F10100F5490870704710B58A
:102BD0000121642007F001F80021662006F0FDFFC6
:102BE000C021682006F0F9FFA8216A2006F0F5FF51
:102BF00001216C2006F0F1FFF9216E2006F0EDFFB7
:102C0000FF21702006F0E9FFFF21722006F0E5FFAA
:102C1000FF21742006F0E1FF0021762006F0DDFFA1
:102C2000C021A42006F0D9FFA821A62006F0D5FFD8
:102C30000121A82006F0D1FFFE21AA2006F0CDFF39
:102C4000A121A02006F0C9FFA221084606F0C5FF79
:102C5000A121C82006F0C1FFA221CA2006F0BDFFB5
:102C60007021CC2006F075FF7521CD2006F071FF94
:102C70006221CE2006F06DFF6C21CF2006F069FFA7
:102C80006921D02006F065FF6321D12006F061FFA5
:102C90000021D22006F05DFFC021EC2006F09DFF50
:102CA000A821EE2006F099FF0121F02006F095FF03
:102CB0000221F22006F091FFC021F42006F08DFFE2
:102CC000A821F62006F089FF0121F82006F085FFF3
:102CD0000421FA2006F081FFC021FC2006F07DFFD0
:102CE000A821FE2006F079FF0121080206F075FFF9
:102CF00006214FF4817006F070FFC0214FF48270FE
:102D000006F06BFFA8214FF4837006F066FF0121E7
:102D10004FF4847006F061FF08214FF4857006F0CF
:102D20005CFFC0214FF4867006F057FFA8214FF4D6
:102D3000877006F052FF01214FF4887006F04DFFB6
:102D400009214FF4897006F048FF00214FF4E1702B
:102D500006F043FF1E214FF4E27006F03EFF032110
:102D60004FF4E37006F039FF4FF0030004460BE028
:102D70004FF4E17101EB440108462D2106F02DFFCF
:102D800004F10100C0B204460A2CF1DB10BD1FB5EE
:102D900083480078814909780844302801F09D81F2
:102DA00033DC83F08F80DFE810F071007F00980043
:102DB000B100CA00E30005011E0155015D155D1556
:102DC0005D155D155D155D155D155D155D155D1573
:102DD0005D155D1572017F01C301FA015D155D1579
:102DE0005D155D155D155D1519027402F4027A0317
:102DF000E1034804DC047505BC05190638067206B3
:102E0000B506E1062A0844087E09432802F04583F6
:102E100014DCA0F131000F28C3D2DFE810F07C0AE7
:102E2000DB0A560B700B9D0CB70CED0D070E250F32
:102E30005B0F7D109710DA11F4111A134C2802F071
:102E400057850DDCA0F144000828AAD2DFE810F075
:102E500078130A159E13D7132C148114C6140B155E
:102E6000FA2802F04B860ADC4D2802F09D854E2898
:102E700002F0DF854F2843F0258002F01FBEFB28BB
:102E800002F0CE86FC28F6D102F088BF45480088C3
:102E9000022807D14348008800F101004149088019
:102EA000FFF729FD03F00EB83F480088022807D13C
:102EB0003D48008800F101003B490880FFF70AFD0A
:102EC00038480088022807D13648008800F1010000
:102ED00034490880FFF70FFDE4E7334800880228F3
:102EE00007D13148008800F101002F490880FFF721
:102EF000F1FC2C480088022807D12A48008800F1FC
:102F0000010028490880FFF7F6FCCBE72648008837
:102F1000022807D12448008800F1010022490880D6
:102F2000FFF7D8FC1F480088022807D11D480088F9
:102F300000F101001B490880FFF7DDFCB2E71A48E9
:102F40000088022807D11848008800F101001649BE
:102F50000880FFF7BFFC13480088022807D11148FA
:102F6000008800F101000F490880FFF7C4FC99E7D1
:102F70000D480088022807D10B48008800F10100A5
:102F800009490880FFF7A6FC06480088022810D1EE
:102F90000448008800F10100024907E03B000010EE
:102FA000380000104E000010500000100880FFF79D
:102FB000A2FC77E7FF480088022807D1FD48008877
:102FC00000F10100FB490880FFF784FCFA48008803
:102FD000022807D1F848008800F10100F64908806E
:102FE000FFF789FC5EE7F3480088022807D1F14823
:102FF000008800F10100EF490880FFF76BFCEE4804
:103000000088022807D1EC48008800F10100EA4955
:103010000880FFF770FCE9480088022819D1E748CA
:10302000008800F10100E5490880E5480078E5499D
:103030000870E5480078E54908704FF0FC00E04969
:1030400008704FF00000E04908704FF0B800E04908
:10305000088027E7D7480088022807D1D54800888C
:1030600000F10100D3490880FFF734FCD348008801
:1030700002280BD1D148008800F10100CF49088017
:103080004FF00000CE490870CF4908700AE7CA48DF
:103090000088022807D1C848008800F10100C6490D
:1030A0000880FFF728FCFDE6C2480088022810D1FE
:1030B000C048008800F10100BE490880C04800787F
:1030C000152804D14FF01400BD49087001E0FFF746
:1030D00001FCB9480088022807D1B748008800F1F0
:1030E0000100B5490880FFF706FCB44800880228B3
:1030F0001DD1B248008800F10100B0490880B048F5
:103100000078B4490870B0480078B34908704FF0AF
:103110000100AD490870B148008820B14FF0280087
:10312000A749087003E04FF04200A5490870B9E6CE
:10313000A0480088022807D19E48008800F10100BD
:103140009C490880FFF7C6FB9B480088022807D1EE
:103150009948008800F1010097490880FFF7CBFBF0
:1031600096480088022819D19448008800F101008F
:1031700092490880924800789649087092480078F1
:10318000954908704FF0FC008D4908704FF0000021
:103190008D49087040F269308D49088082E6854883
:1031A0000088022807D18348008800F10100814986
:1031B0000880FFF78FFB8148008802280DD17F48E7
:1031C000008800F101007D4908807E4800787C4934
:1031D00008707E4800787C49087063E6764800886D
:1031E000022807D17448008800F101007249088064
:1031F000FFF781FB7A480088022803D078480088CE
:1032000005281ED14FF003007549088075480078E5
:10321000FF280BD100200523CDE900300290EE22DB
:103220001B210390084606F015FE0AE00020042347
:10323000CDE900300290EE221B210390084606F0F3
:1032400009FE69480088022803D0674800880528DD
:103250001ED14FF003006449088064480078FF28BD
:103260000BD100200323CDE900300290EE221B2178
:103270000390084606F0EEFD0AE000200223CDE9A7
:1032800000300290EE221B210390084606F0E2FD7A
:1032900008E648480088022807D14648008800F11F
:1032A000010044490880FFF780FC43480088022859
:1032B00007D14148008800F101003F490880FFF72D
:1032C0001AFB47480088022803D045480088052893
:1032D0001ED14FF003004249088042480078FF2881
:1032E0000BD100202523CDE900300290EE221B21D6
:1032F0000390084606F0AEFD0AE000202423CDE945
:1033000000300290EE221B210390084606F0A2FD39
:1033100035480088022803D03348008805281ED18C
:103320004FF003003049088030480078FF280BD167
:1033300000202323CDE900300290EE221B210390D0
:10334000084606F087FD0AE000202223CDE9003080
:103350000290EE221B210390084606F07BFD1748E1
:103360000088022814D11548008800F10100134993
:1033700008804FF000004FF02103CDE900300290AB
:103380004FF0EE024FF01B010390084606F062FD7D
:1033900088E508480088022807D10648008800F11F
:1033A000010004490880FFF700FC03480088022858
:1033B00026D11DE0500000104E00001052000010F9
:1033C00038000010390000103B0000103C000010D5
:1033D0005A0000103A0000103D0000109800001044
:1033E0004C000010450000104A000010440000107E
:1033F000FF48008800F10100FD490880FFF77BFAD3
:10340000FC480088022803D0FA48008805281ED10D
:103410004FF00300F7490880F7480078FF280BD1E8
:1034200000206523CDE900300290EE221B2103909D
:10343000084606F00FFD0AE000206423CDE90030C5
:103440000290EE221B210390084606F003FDEB4894
:103450000088022803D0E948008805281ED14FF0D3
:103460000300E6490880E6480078FF280BD10020D9
:103470006323CDE900300290EE221B210390084621
:1034800006F0E8FC0AE000206223CDE9003002905B
:10349000EE221B210390084606F0DCFC02E5D94829
:1034A0000088022807D1D748008800F10100D549DB
:1034B0000880FFF77AFBCE480088022807D1CC4865
:1034C000008800F10100CA490880FFF714FAC948D2
:1034D0000088022803D0C748008805281ED14FF075
:1034E0000300C4490880C4480078FF280BD100209D
:1034F0005523CDE900300290EE221B2103900846AF
:1035000006F0A8FC0AE000205423CDE90030029028
:10351000EE221B210390084606F09CFCB748008869
:10352000022803D0B548008805281ED14FF00300BB
:10353000B2490880B2480078FF280BD100205323FD
:10354000CDE900300290EE221B210390084606F0E0
:1035500081FC0AE000205223CDE900300290EE22E7
:103560001B210390084606F075FC9BE4A5480088E3
:10357000022807D1A348008800F10100A149088072
:10358000FFF713FB9A480088022807D19848008863
:1035900000F1010096490880FFF7ADF995480088D1
:1035A000022803D09348008805281ED14FF003005D
:1035B0009049088090480078FF280BD100203523DF
:1035C000CDE900300290EE221B210390084606F060
:1035D00041FC0AE000203423CDE900300290EE22C5
:1035E0001B210390084606F035FC84480088022819
:1035F00003D08248008805281ED14FF003007F4980
:1036000008807F480078FF280BD100203323CDE9C4
:1036100000300290EE221B210390084606F01AFCAF
:103620000AE000203223CDE900300290EE221B2177
:103630000390084606F00EFC34E472480088022825
:1036400007D17048008800F101006E490880FFF73B
:10365000ACFA67480088022807D16548008800F165
:10366000010063490880FFF746F962480088022894
:1036700003D060480088052836D14FF003005D492B
:1036800008806148B0F9000001280BDD5A48007835
:10369000322807DA5C480088A0F1010000B25A49DC
:1036A000088019E0544800780A2190FBF1F0401C92
:1036B0005549B1F9001088420EDA4F4800784FF0B2
:1036C0000A0190FBF1F000F101004F490988A1EBDC
:1036D000000000B24C4908804B48B0F90000014698
:1036E0000390102006F079FA44480088022803D09D
:1036F00042480088052833D14FF003003F49088035
:103700003F48007832280EDA3F48B0F9000042F214
:103710001071884207DA3C48008800F1010000B2CD
:103720003949088014E03848B0F9000042F21071BD
:1037300088420DDA324800784FF00A0190FBF1F030
:1037400000F1010030490988084400B22E49088080
:103750002D48B0F9000001460390102006F03DFA14
:1037600005E428480088022807D12648008800F18F
:10377000010024490880FFF718FA1D480088022834
:1037800007D11B48008800F1010019490880FFF7A4
:10379000B2F818480088022803D0164800880F287D
:1037A00038D14FF0050013490880134800784FF0D6
:1037B0000A0190FBF1F000F101001449B1F9001089
:1037C00088420EDA0C4800784FF00A0190FBF1F0C5
:1037D00000F101000D490988A1EB000000B20B497E
:1037E00008800A48B0F900000146039016200FE057
:1037F0004E0000104C000010450000104A00001060
:103800004400001050000010840000108C000010D4
:1038100006F0E3F9FB480088022803D0F948008845
:103820000F281FD14FF00500F6490880F648B0F97F
:103830000000B0F5FA5F0DDAF44800784FF00A01A5
:1038400090FBF1F000F10100EF490988084400B253
:10385000ED490880EC48B0F90000014603901620BD
:1038600006F0BBF9EA480088022812D1E84800882F
:1038700000F10100E6490880E6484088E6490880F2
:103880000846B0F90000014603904FF0140006F01E
:10389000A4F908E4E1480088022807D1DF4800883D
:1038A00000F10100DD490880FFF77FF9DC4800885E
:1038B000022807D1DA48008800F10100D8490880C1
:1038C000FFF719F8D7480088022812D14FF00500F9
:1038D000D4490880D448007800280ADD0020D42389
:1038E000CDE900300290EE221B210390084606F03D
:1038F000B1FAC4480088022812D14FF00500C1492E
:103900000880C948007803280ADA0020D223CDE9CC
:1039100000300290EE221B210390084606F09AFA2E
:1039200005E4BE480088022807D1BC48008800F1A1
:103930000100BA490880FFF738F9B9480088022821
:1039400007D1B748008800F10100B5490880FEF7AB
:10395000D2FFB448008802281DD14FF00500B149BC
:103960000880B248007858B90020E223CDE9003041
:103970000290EE221B210390084606F06BFA0AE043
:103980000020E423CDE900300290EE221B210390B9
:10399000084606F05FFA9B48008802281DD14FF0C8
:1039A000050098490880A148007858B90020E22312
:1039B000CDE900300290EE221B210390084606F06C
:1039C00049FA0AE00020E423CDE900300290EE221B
:1039D0001B210390084606F03DFA59E48F48008801
:1039E000022807D18D48008800F101008B4908802A
:1039F000FFF7DBF88648008802280DD1844800884C
:103A000000F10100824908808948007889490870DE
:103A100089480078894908703AE4824800881E285D
:103A20000DDD784800881E2809DD8548007830B90A
:103A3000FFF7CDF84FF001008149087026E0744887
:103A40000088022816D17248008800F101007049F0
:103A500008807C480088C8B14FF000007949088090
:103A600001464FF0640006F0B8F84FF0420071498B
:103A700008700BE06A480088022807D1684800886F
:103A800000F1010066490880FEF735FF80E46548D3
:103A900000881E280DDD5B4800881E2809DD684867
:103AA000007830B9FFF793F84FF0010064490870CF
:103AB0002FE057480088022812D16348008820B1BF
:103AC0004FF000006049088003E04FF001005E49BC
:103AD00008805D48B0F90010662006F07EF818E016
:103AE0004E480088022808D14C48008800F10100A7
:103AF0004A490880FFF759F80BE049480088022836
:103B000007D14748008800F1010045490880FEF7C9
:103B1000F2FE3DE4434800881E280DDD3948008848
:103B20001E2809DD4648007830B9FFF750F84FF0FD
:103B300001004349087018E038480088022808D17D
:103B40003648008800F1010034490880FFF72DF85D
:103B50000BE033480088022807D13148008800F183
:103B600001002F490880FEF7C6FE11E42B480088AB
:103B700002280CD12948008800F10100274908805B
:103B8000FFF713F84FF000003049087036E1244881
:103B9000008802280CD12248008800F10100204949
:103BA0000880FEF7A8FE4FF000002849087025E1C4
:103BB000174800880A280DD12448007800F1010038
:103BC0002249087008460078032802DD4FF0000003
:103BD000087013E113480088022803D011480088B8
:103BE00032287AD14FF01E000E490880174800781D
:103BF00038B91748008868BB4FF0FF0014490880A7
:103C000030E036E04A0000108C0000104400001044
:103C100052000010301200108800001050000010F8
:103C20004E0000104C0000106300001064000010F3
:103C30003A000010380000103D0000103B0000105A
:103C400056000010980000109A0000105D0000104F
:103C50009C000010FFE7F8480088A0F1010000B2C6
:103C6000F5490880F448B0F90010682005F0B5FF68
:103C7000C4E0F2480078012815D1F148008820B945
:103C80004FF0FF00EE49088006E0ED480088A0F103
:103C9000010000B2EA490880E948B0F900106A2042
:103CA00005F09BFFAAE0E5480078022816D1E54818
:103CB000008820B94FF0FF00E249088006E0E148A3
:103CC0000088A0F1010000B2DE490880DD48B0F9AB
:103CD00000106C2005F081FF90E019E0D7480078D3
:103CE000032814D1D848008820B94FF0FF00D649E6
:103CF000088006E0D4480088A0F1010000B2D24953
:103D00000880D148B0F900106E2005F066FF75E01C
:103D1000CE480088022803D0CC48008832286DD1D4
:103D20004FF01E00C9490880C4480078B0B9C248A5
:103D30000088FF2804D14FF00000BF49088006E04A
:103D4000BD48008800F1010000B2BB490880BA48B4
:103D5000B0F90010682005F040FF4FE0B748007848
:103D6000012816D1B6480088FF2804D14FF0000082
:103D7000B349088006E0B248008800F1010000B2B3
:103D8000AF490880AE48B0F900106A2005F025FF61
:103D900034E0AA480078022816D1AA480088FF28F3
:103DA00004D14FF00000A749088006E0A54800882C
:103DB00000F1010000B2A3490880A248B0F9001048
:103DC0006C2005F00AFF19E09C480078032815D103
:103DD0009D480088FF2804D14FF000009A490880D0
:103DE00006E09948008800F1010000B29649088079
:103DF0009548B0F900106E2005F0EFFE1CE49448E1
:103E00000088022808D19248008800F101009049FA
:103E10000880FEF7CAFE0BE08E480088022807D112
:103E20008C48008800F101008A490880FEF763FD94
:103E300096E48748008802280CD18548008800F164
:103E4000010083490880FEF7B0FE4FF000007B4977
:103E5000087027E17F48008802280CD17D4800883F
:103E600000F101007B490880FEF745FD4FF000009E
:103E70007249087016E1784800880A280DD16F4809
:103E8000007800F101006D490870084600780328A9
:103E900002DD4FF00000087004E17048008802283D
:103EA00003D06E48008832286AD14FF01E006B495B
:103EB000088062480078A8B96948008820B94FF0A6
:103EC000FF006749088006E065480088A0F101000E
:103ED00000B2634908806248B0F90010702005F014
:103EE0007CFEDFE055480078012815D15D48008848
:103EF00020B94FF0FF005B49088006E05948008870
:103F0000A0F1010000B2574908805648B0F90010EE
:103F1000722005F062FEC5E048480078022815D1FD
:103F20005148008820B94FF0FF004F49088006E053
:103F30004D480088A0F1010000B24B4908804A4872
:103F4000B0F90010742005F048FEABE03B48007863
:103F5000032814D14548008820B94FF0FF00434999
:103F6000088006E041480088A0F1010000B23F4906
:103F700008803E48B0F90010762005F02EFE91E052
:103F800032480088022803D03048008832281CD1EB
:103F90004FF01E002D49088028480078B0B93048FD
:103FA0000088FF2804D14FF000002D49088006E06A
:103FB0002B48008800F1010000B2294908802848F8
:103FC000B0F90010702005F008FE6BE01B48007887
:103FD000012816D123480088FF2804D14FF00000A3
:103FE0002049088006E01F48008800F1010000B267
:103FF0001C4908801B48B0F90010722005F0EDFD47
:1040000050E00E480078022832D117480088FF2877
:1040100004D14FF000001449088006E012480088DF
:1040200000F1010000B2104908800F48B0F90010FB
:10403000742005F0D2FD35E09C0000105D000010FA
:104040009E000010A0000010A20000104A00001006
:10405000500000104E000010520000104C000010E4
:10406000A4000010A6000010A8000010AA00001074
:10407000FF480078032815D1FE480088FF2804D1A6
:104080004FF00000FB49088006E0FA48008800F184
:10409000010000B2F7490880F648B0F90010762018
:1040A00005F09BFD3CE4F4480088022808D1F24862
:1040B000008800F10100F0490880FEF776FD0BE072
:1040C000EE480088022807D1EC48008800F1010082
:1040D000EA490880FEF70FFC22E4E748008802283E
:1040E0000CD1E548008800F10100E3490880FEF7A3
:1040F0005CFD4FF00000DE4908700BE1DF480088EE
:1041000002280CD1DD48008800F10100DB4908805D
:10411000FEF7F1FB4FF00000D5490870FAE0D848EF
:1041200000880A280DD1D248007800F10100D0495A
:10413000087008460078032802DD4FF00000087080
:10414000E8E0D0480088022803D0CE480088322812
:104150006AD14FF01E00CB490880C5480078A8B945
:10416000C948008820B94FF0FF00C749088006E021
:10417000C5480088A0F1010000B2C3490880C248C8
:10418000B0F90010A42005F028FDC3E0B84800787D
:10419000012815D1BD48008820B94FF0FF00BB4968
:1041A000088006E0B9480088A0F1010000B2B749D4
:1041B0000880B648B0F90010A62005F00EFDA9E071
:1041C000AB480078022815D1B148008820B94FF0DB
:1041D000FF00AF49088006E0AD480088A0F101006B
:1041E00000B2AB490880AA48B0F90010A82005F039
:1041F000F4FC8FE09E480078032814D1A54800887D
:1042000020B94FF0FF00A349088006E0A1480088CC
:10421000A0F1010000B29F4908809E48B0F900104B
:10422000AA2005F0DAFC75E09B480088022803D03C
:104230009948008832286DD14FF01E0096490880B9
:104240008B480078B0B990480088FF2804D14FF01F
:1042500000008D49088006E08B48008800F10100CD
:1042600000B2894908808848B0F90010A42005F000
:10427000B4FC4FE07E480078012816D183480088BE
:10428000FF2804D14FF000008049088006E07F48F5
:10429000008800F1010000B27C4908807B48B0F939
:1042A0000010A62005F099FC34E07148007802283F
:1042B00016D177480088FF2804D14FF000007449D8
:1042C000088006E07248008800F1010000B27049E1
:1042D00008806F48B0F90010A82005F07EFC19E0B6
:1042E00063480078032815D16A480088FF2804D164
:1042F0004FF000006749088006E06648008800F13A
:10430000010000B2634908806248B0F90010AA2099
:1043100005F063FC29E458480088022808D1564873
:10432000008800F1010054490880FEF73EFC50E08F
:1043300052480088022808D15048008800F1010046
:104340004E490880FEF7D7FA43E04E48008802281D
:1043500003D04C480088322819D14FF01E0049493B
:1043600008804E48008820B94FF0FF004B49088074
:1043700006E04A480088A0F1010000B247490880E1
:104380004648B0F90010C82005F027FC21E042485B
:104390000088022803D040480088322819D14FF005
:1043A0001E003D4908803D480088FF2804D14FF099
:1043B00000003A49088006E03848008800F1010012
:1043C00000B2364908803548B0F90010C82005F021
:1043D00004FC13E528480088022808D126480088F4
:1043E00000F1010024490880FEF7DFFB6CE0234860
:1043F0000088022808D12148008800F101001F49E7
:104400000880FEF778FA5FE01E480088022803D093
:104410001C480088322819D14FF01E001949088025
:104420001F48008820B94FF0FF001D49088006E0B2
:104430001B480088A0F1010000B219490880184803
:10444000B0F90010CA2005F0C8FB3DE01248008812
:10445000022803D010480088322835D14FF01E00C2
:104460000D4908800E480088FF2820D11AE000007E
:104470005D000010AA000010500000104E00001057
:10448000520000104C000010AC000010AE000010F4
:10449000B0000010B20000104A000010B800001078
:1044A000BA0000104FF00000F849088006E0F74815
:1044B000008800F1010000B2F4490880F348B0F927
:1044C0000010CA2005F089FB98E4F1480088022812
:1044D00008D1EF48008800F10100ED490880FEF79F
:1044E00064FB0BE0EB480088022807D1E94800880C
:1044F00000F10100E7490880FEF7FDF97EE4E44899
:10450000008802280CD1E248008800F10100E0494F
:104510000880FEF74AFB4FF00000DF4908701AE1FF
:10452000DC48008802280CD1DA48008800F101003C
:10453000D8490880FEF7DFF94FF00000D64908702F
:1045400009E1D64800880A2828D1D348007800F12C
:104550000100D1490870D2480978405C78B94FF021
:104560000002CF49CC48007800F101000A54CA4843
:10457000007800F1CD001146039005F0EAFAC64834
:104580000078401EC649085C18B1C3480078072867
:1045900003DD4FF00000C0490870DCE0C14800882E
:1045A000022803D0BF480088322866D14FF01E0091
:1045B000BC490880BA48B8490978405C30B94FF026
:1045C0007A00B749B44A1278885449E0B448B249ED
:1045D0000978405C30281ED1AF480078A0B14FF078
:1045E0000000AF49AC4A127888540246AA480078C5
:1045F00000F101000A54A848007800F1CD001146EE
:10460000039005F0A6FA2BE04FF07A00A449A24AE5
:104610001278885424E0A2489F490978405C4128D8
:1046200006D14FF039019E489B4A1278815417E019
:104630009B4899490978405C612806D14FF05A009F
:104640009749954A127888540AE095489249097822
:10465000405CA0F10100C1B291488F4A12788154A8
:104660008F488D490978405C03908B480078CC30A6
:104670000290039905F06DFA6DE08B4800880228DE
:1046800003D089480088322865D14FF01E00864942
:104690000880834880490978405C30B94FF0300089
:1046A0007F497D4A1278885449E07D487A490978E3
:1046B000405C392806D14FF041007949764A12789A
:1046C00088543CE0764874490978405C5A2806D101
:1046D0004FF061007249704A127888542FE0704898
:1046E0006D490978405C7A281FD16B480078A8B1E1
:1046F0004FF000016A48684A127881540A46014620
:104700006548007800F101000A546348007800F120
:10471000CD001146039005F01CFA10E04FF0300078
:104720005F495D4A1278885409E05D485A49097822
:10473000405C00F101005A49574A127888545848A1
:1047400055490978405C039053480078CC3002907A
:10475000039905F0FEF9A5E44D480088022808D128
:104760004B48008800F1010049490880FEF71DFA16
:104770000BE048480088022807D14648008800F12D
:10478000010044490880FEF7B6F88BE440480088F1
:1047900002280CD13E48008800F101003C49088005
:1047A000FEF703FA4FF000003B49087023E1394857
:1047B000008802280CD13748008800F101003549F3
:1047C0000880FEF798F84FF000003349087012E1B6
:1047D000324800880A280DD12F48007800F10100E6
:1047E0002D49087008460078032802DD4FF00000CC
:1047F000087000E12B480088022803D0294800886F
:10480000322873D14FF01E002649088022480078D4
:10481000A8B92648008820B94FF0FF002349088036
:1048200006E022480088A0F1010000B21F4908807C
:104830001E48B0F90010EC2005F0CFF9DBE0164877
:104840000078012815D11A48008820B94FF0FF00E0
:104850001749088006E016480088A0F1010000B260
:10486000134908801248B0F90010EE2005F0B5F9A0
:10487000C1E00948007802282CD10E480088D8B938
:104880004FF0FF000B4908801DE00000BA00001047
:10489000500000104E0000105D000010520000108B
:1048A0001A0000104C0000104A000010BC0000105C
:1048B000BE000010C0000010F8480088A0F1010000
:1048C00000B2F6490880F548B0F90010F02005F074
:1048D00084F990E0F2480078032815D1F148008867
:1048E00028B94FF0FF00EF49088007E00DE0ED48E0
:1048F0000088A0F1010000B2EA490880E948B0F957
:104900000010F22005F069F975E0E74800880228F8
:1049100003D0E548008832286DD14FF01E00E249EF
:104920000880DF480078B0B9E0480088FF2804D14B
:104930004FF00000DD49088006E0DC48008800F107
:10494000010000B2D9490880D848B0F90010EC2025
:1049500005F043F94FE0D2480078012816D1D44839
:104960000088FF2804D14FF00000D149088006E0FC
:10497000CF48008800F1010000B2CD490880CC4842
:10498000B0F90010EE2005F028F934E0C4480078B2
:10499000022816D1C1480088FF2804D14FF000003A
:1049A000BE49088006E0BD48008800F1010000B261
:1049B000BA490880B948B0F90010F02005F00DF9A7
:1049C00019E0B7480078032815D1B6480088FF28B9
:1049D00004D14FF00000B349088006E0B1480088D8
:1049E00000F1010000B2AF490880AE48B0F90010F4
:1049F000F22005F0F2F88DE4AE480088022808D1D4
:104A0000AC48008800F10100AA490880FEF7CDF803
:104A10000BE0A9480088022807D1A748008800F1C8
:104A20000100A5490880FDF766FF73E4A1480088EE
:104A300002280CD19F48008800F101009D490880A0
:104A4000FEF7B3F84FF00000954908700BE19A4863
:104A5000008802280CD19848008800F1010096498E
:104A60000880FDF748FF4FF000008D490870FAE01C
:104A7000924800880A280DD18948007800F1010089
:104A80008749087008460078032802DD4FF00000CF
:104A90000870E8E08A480088022803D08848008827
:104AA00032286AD14FF01E00854908807C48007882
:104AB000A8B98448008820B94FF0FF0081490880D8
:104AC00006E080480088A0F1010000B27D4908801E
:104AD0007C48B0F90010F42005F07FF8C3E070487E
:104AE0000078012815D17848008820B94FF0FF00E0
:104AF0007549088006E074480088A0F1010000B202
:104B0000714908807048B0F90010F62005F065F88A
:104B1000A9E063480078022815D16C48008820B9C4
:104B20004FF0FF006949088006E068480088A0F15E
:104B3000010000B2654908806448B0F90010F8200F
:104B400005F04BF88FE056480078032814D16048F0
:104B5000008820B94FF0FF005D49088006E05C48FE
:104B60000088A0F1010000B2594908805848B0F906
:104B70000010FA2005F031F875E04B480088022853
:104B800003D04948008832286DD14FF01E004649B5
:104B9000088043480078B0B94A480088FF2804D10B
:104BA0004FF000004749088006E04648008800F1C1
:104BB000010000B2434908804248B0F90010F420D7
:104BC00005F00BF84FE036480078012816D13E4832
:104BD0000088FF2804D14FF000003B49088006E020
:104BE0003948008800F1010000B237490880364892
:104BF000B0F90010F62004F0F0FF34E02848007807
:104C0000022816D131480088FF2804D14FF0000057
:104C10002E49088006E02D48008800F1010000B20E
:104C20002A4908802948B0F90010F82004F0D5FF7F
:104C300019E01B480078032815D125480088FF2873
:104C400004D14FF000002249088006E02048008887
:104C500000F1010000B21E4908801D48B0F90010A3
:104C6000FA2004F0BAFF2FE412480088022808D185
:104C70001048008800F101000E490880FDF795FFFB
:104C80000BE00D480088022807D10B48008800F18E
:104C9000010009490880FDF72EFE15E4C000001050
:104CA0005D000010C20000104A000010BC0000109F
:104CB000BE000010500000104E0000105200001006
:104CC0004C000010C4000010C6000010C800001006
:104CD000CA000010FF48008802280CD1FD48008857
:104CE00000F10100FB490880FDF75FFF4FF0000075
:104CF000F94908700FE1F948008802280CD1F748FB
:104D0000008800F10100F5490880FDF7F4FD4FF03F
:104D10000000F1490870FEE0F14800880A280DD132
:104D2000ED48007800F10100EB4908700846007872
:104D3000032802DD4FF000000870ECE0E94800882D
:104D4000022803D0E748008832286CD14FF01E00BB
:104D5000E4490880E0480078A8B9E348008820B911
:104D60004FF0FF00E049088006E0DF480088A0F12E
:104D7000010000B2DC490880DB48B0F90010FC20DB
:104D800004F02BFFC7E0D4480078012815D1D7489C
:104D9000008820B94FF0FF00D449088006E0D348CE
:104DA0000088A0F1010000B2D0490880CF48B0F9D6
:104DB0000010FE2004F011FFADE0C7480078022883
:104DC00016D1CB48008820B94FF0FF00C8490880B1
:104DD00006E0C7480088A0F1010000B2C44908807D
:104DE000C348B0F900104FF4807004F0F6FE92E072
:104DF000B9480078032815D1BE48008820B94FF083
:104E0000FF00BC49088006E0BA480088A0F1010014
:104E100000B2B8490880B748B0F900104FF481706B
:104E200004F0DBFE77E0B4480088022803D0B248E3
:104E3000008832286FD14FF01E00AF490880A64885
:104E40000078B0B9A8480088FF2804D14FF00000CE
:104E5000A549088006E0A448008800F1010000B2DE
:104E6000A1490880A048B0F90010FC2004F0B5FE6C
:104E700051E099480078012816D19C480088FF2805
:104E800004D14FF000009949088006E09748008857
:104E900000F1010000B2954908809448B0F9001073
:104EA000FE2004F09AFE36E08B480078022817D1E5
:104EB0008F480088FF2804D14FF000008C490880FB
:104EC00006E08B48008800F1010000B288490880A4
:104ED0008748B0F900104FF4807004F07EFE1AE0AD
:104EE0007D480078032816D182480088FF2804D125
:104EF0004FF000007F49088006E07E48008800F1FE
:104F0000010000B27B4908807A48B0F900104FF4E4
:104F1000817004F062FE1EE46E480088022808D109
:104F20006C48008800F101006A490880FDF73DFEE9
:104F30000BE06A480088022807D16848008800F121
:104F4000010066490880FDF7D6FC04E4614800884A
:104F500002280CD15F48008800F101005D490880FB
:104F6000FDF723FE4FF000005B49087030E15B481D
:104F7000008802280CD15948008800F101005749E7
:104F80000880FDF7B8FC4FF00000534908701FE19E
:104F9000534800880A280DD14F48007800F10100DD
:104FA0004D49087008460078032802DD4FF00000E4
:104FB00008700DE14B480088022803D0494800885A
:104FC00032286ED14FF01E004649088042480078D2
:104FD000B0B94A48008820B94FF0FF00474908801F
:104FE00006E046480088A0F1010000B2434908806D
:104FF0004248B0F900104FF4827004F0EEFDE7E093
:1050000035480078012816D13D48008820B94FF076
:10501000FF003B49088006E039480088A0F1010004
:1050200000B2374908803648B0F900104FF4837059
:1050300004F0D3FDCCE028480078022816D131488E
:10504000008820B94FF0FF002E49088006E02D4867
:105050000088A0F1010000B22A4908802948B0F96F
:1050600000104FF4847004F0B8FDB1E01A480078E5
:10507000032815D12448008820B94FF0FF002249A9
:10508000088006E020480088A0F1010000B21E4917
:1050900008801D48B0F900104FF4857004F09DFDA4
:1050A00096E015480088022803D01348008832286B
:1050B0003AD14FF01E00104908800748007840B9E7
:1050C0000E480088FF2821D14FF000000B490880CE
:1050D00023E02AE0500000105D0000104E00001098
:1050E000520000104C000010CC000010CE00001048
:1050F000D0000010D20000104A000010D4000010B0
:10510000D6000010D8000010DA000010F84800881F
:1051100000F1010000B2F6490880F548B0F900102E
:105120004FF4827004F059FD52E0F24800780128F3
:1051300017D1F1480088FF2804D14FF00000EE4954
:10514000088006E0EC48008800F1010000B2EA495E
:105150000880E948B0F900104FF4837004F03DFD79
:1051600036E0E4480078022817D1E4480088FF2898
:1051700004D14FF00000E149088006E0DF480088D4
:1051800000F1010000B2DD490880DC48B0F90010F0
:105190004FF4847004F021FD1AE0D648007803280B
:1051A00016D1D7480088FF2804D14FF00000D44919
:1051B000088006E0D248008800F1010000B2D04922
:1051C0000880CF48B0F900104FF4857004F005FD59
:1051D00011E4CC480088022808D1CA48008800F1B0
:1051E0000100C8490880FDF7E0FC0BE0C6480088D4
:1051F000022807D1C448008800F10100C249088094
:10520000FDF779FB11E4BF48008802280CD1BD48A6
:10521000008800F10100BB490880FDF7C6FC4FF093
:105220000000B449087013E1B748008802280CD187
:10523000B548008800F10100B3490880FDF75BFB29
:105240004FF00000AB49087002E1B04800880A281E
:105250000DD1A848007800F10100A6490870084661
:105260000078032802DD4FF000000870F0E0A84845
:105270000088022803D0A648008832286ED14FF05B
:105280001E00A34908809B480078B0B9A148008857
:1052900020B94FF0FF009F49088006E09D48008834
:1052A000A0F1010000B29B4908809A48B0F90010B3
:1052B0004FF4867004F091FCCAE08E480078012813
:1052C00016D19548008820B94FF0FF009249088018
:1052D00006E091480088A0F1010000B28E490880E4
:1052E0008D48B0F900104FF4877004F076FCAFE001
:1052F00080480078022816D18848008820B94FF0ED
:10530000FF008649088006E084480088A0F101007B
:1053100000B2824908808148B0F900104FF48870CB
:1053200004F05BFC94E073480078032815D17C48B6
:10533000008820B94FF0FF007949088006E07848DE
:105340000088A0F1010000B2754908807448B0F9E6
:1053500000104FF4897004F040FC79E07148008837
:10536000022803D06F480088322871D14FF01E0008
:105370006C4908805F480078B8B966480088FF2803
:1053800004D14FF000006349088006E061480088BE
:1053900000F1010000B25F4908805E48B0F90010DA
:1053A0004FF4867004F019FC52E05248007801284E
:1053B00017D159480088FF2804D14FF00000564902
:1053C000088006E05448008800F1010000B252490C
:1053D00008805148B0F900104FF4877004F0FDFBCD
:1053E00036E044480078022817D14C480088FF284E
:1053F00004D14FF000004949088006E04748008882
:1054000000F1010000B2454908804448B0F900109D
:105410004FF4887004F0E1FB1AE036480078032866
:1054200016D13F480088FF2804D14FF000003C49C6
:10543000088006E03A48008800F1010000B23849CF
:1054400008803748B0F900104FF4897004F0C5FBAC
:1054500008E22C480088022808D12A48008800F178
:10546000010028490880FDF7A0FB15E027480088C7
:10547000022811D12548008800F101002349088045
:105480002948007829490870294800782949087076
:105490004FF0020028490870E4E11B480088022808
:1054A0000AD11948008800F10100174908804FF01F
:1054B00002002049087019E014480088022815D11C
:1054C0001248008800F10100104908801B4800883C
:1054D00060B94FF001001949088001464FF064009F
:1054E00004F07BFB4FF0280010490870BAE100007F
:1054F000D40000105D000010D6000010D80000108D
:10550000DA000010500000104E0000105200001091
:105510004C000010DC000010DE000010E000001065
:10552000E20000104A0000103A000010380000109D
:105530003D0000103B0000106000001098000010BB
:10554000FF48008802280AD1FD48008800F10100C8
:10555000FB4908804FF00100FA49087015E0FA484D
:105560000088022811D1F848008800F10100F649AE
:105570000880F6480078F6490870F6480078F14946
:1055800008704FF00200F44908706BE1F34800889E
:10559000022807D1F148008800F10100EF49088096
:1055A000FDF7A9F9EE480088022811D1EC480088DF
:1055B00000F10100EA4908804FF00000E949087055
:1055C00008460078014603904FF4E17004F005FBB3
:1055D000E5480088022811D1E348008800F1010065
:1055E000E14908804FF00100DE4908700846007864
:1055F000014603904FF4E17004F0EFFA32E1D04835
:105600000088022807D1CE48008800F10100CC496B
:105610000880FDF75FF9D1480088022807D1CF48FC
:10562000008800F10100CD490880FDF764F9CC48FD
:105630000088022803D0CA480088322815D14FF0CC
:105640001E00C7490880C748407828280DDBC54898
:105650004078A0F10A00C3494870084640780146E6
:1056600003904FF4E27004F0B8FABF4800880228B3
:1056700003D0BD480088322815D14FF01E00BA492A
:105680000880B8484078FA280DDAB648407800F12A
:105690000A00B449487008464078014603904FF428
:1056A000E27004F09AFADDE0A5480088022807D1EC
:1056B000A348008800F10100A1490880FDF70AF91C
:1056C000A6480088022807D1A448008800F10100FC
:1056D000A2490880FDF70FF9A1480088022803D0ED
:1056E0009F480088322815D14FF01E009C49088041
:1056F0009C48807803280DDD9A488078A0F101004D
:105700009849887008468078014603904FF4E3700A
:1057100004F063FA94480088022803D09248008875
:10572000322815D14FF01E008F4908808D488078AF
:105730003C280DDA8B48807800F101008949887097
:1057400008468078014603904FF4E37004F045FA70
:10575000B8E37B480088022807D17948008800F127
:10576000010077490880FDF7B5F87C4800880228D9
:1057700007D17A48008800F1010078490880FDF7D8
:10578000BAF877480088022811D17548008800F1DE
:105790000100734908804FF02D007249C870084617
:1057A000C078014603904FF4E47004F016FA6E4896
:1057B0000088022811D16C48008800F101006A4974
:1057C00008804FF02B006749C8700846C078014632
:1057D00003904FF4E47004F000FA73E35848008833
:1057E000022807D15648008800F10100544908807A
:1057F000FDF770F859480088022807D157480088FB
:1058000000F1010055490880FDF775F854480088FB
:10581000022811D15248008800F101005049088047
:105820004FF02D004F49087108460079014603905A
:105830004FF4E57004F0D1F94B480088022811D1EB
:105840004948008800F10100474908804FF02B00CB
:105850004449087108460079014603904FF4E57009
:1058600004F0BBF92EE336480088022807D13448FB
:10587000008800F1010032490880FDF72BF8374815
:105880000088022807D13548008800F1010033491B
:105890000880FDF730F832480088022811D13048DE
:1058A000008800F101002E4908804FF02D002D499D
:1058B000487108464079014603904FF4E67004F0C1
:1058C0008CF929480088022811D12748008800F166
:1058D0000100254908804FF02B00224948710846F5
:1058E0004079014603904FF4E67004F076F9E9E25E
:1058F00013480088022807D11148008800F10100F0
:105900000F490880FCF7E6FF14480088022807D1F9
:105910001248008800F1010010490880FCF7EBFFF5
:105920000F480088022828D10D48008800F10100A6
:105930000B4908804FF02D000A498871084615E090
:10594000500000103B000010520000103A00001000
:10595000380000103D000010600000104E000010E4
:105960004C000010BC0500104A0000108079014670
:1059700003904FF4E77004F030F9FB4800880228E8
:1059800011D1F948008800F10100F74908804FF073
:105990002B00F649887108468079014603904FF440
:1059A000E77004F01AF98DE2F1480088022807D167
:1059B000EF48008800F10100ED490880FCF78AFFFC
:1059C000EC480088022807D1EA48008800F101006D
:1059D000E8490880FCF78FFFE7480088022811D1CA
:1059E000E548008800F10100E34908804FF02D00F0
:1059F000DE49C8710846C079014603904FF4E8704B
:105A000004F0EBF8D8480088022811D1D648008865
:105A100000F10100D44908804FF02B00D349C87130
:105A20000846C079014603904FF4E87004F0D5F8B9
:105A300048E2CF480088022807D1CD48008800F10D
:105A40000100CB490880FCF745FFCA4800880228BE
:105A500007D1C848008800F10100C6490880FCF75A
:105A60004AFFC5480088022811D1C348008800F1C8
:105A70000100C14908804FF02D00BC49087208465A
:105A8000007A014603904FF4E97004F0A6F8B64896
:105A90000088022811D1B448008800F10100B24901
:105AA00008804FF02B00B14908720846007A014681
:105AB00003904FF4E97004F090F803E2AC480088DA
:105AC000022808D1AA48008800F10100A8490880EE
:105AD000FCF700FF11E0A948008802280DD1A74873
