:020000040000FA
:10000000B8420010E1000000E5000000E700000039
:10001000E9000000EB000000ED000000000000001F
:10002000000000000000000000000000EF000000E1
:10003000F100000000000000F30000002D090000A6
:10004000F7000000F7000000F7000000F7000000D4
:10005000F7000000F7000000F7000000F7000000C4
:10006000F7000000F7000000F7000000F7000000B4
:10007000F7000000F7000000F7000000F7000000A4
:10008000F7000000F7000000F7000000F700000094
:10009000F7000000F7000000ED080000F700000086
:1000A000F700000091B10000F7000000F700000029
:1000B00043C30000F7000000F7000000F700000055
:1000C000F7000000F7000000F7000000DFF80CD098
:1000D0000CF09EFB00480047596C0000B84200102D
:1000E00005480047FEE7FEE7FEE7FEE7FEE7FEE71E
:1000F000FEE7FEE7FEE7FEE7CD00000006280AD295
:10010000DFE800F003040506070804E003E002E06E
:1001100001E000E000BF00BF00BFFEE710B50DF03A
:100120005BFD0DF0B7FD0DF0A9FDAFF30080BDE85C
:1001300010400DF075BD10B50EF032FB0EF0E6FE6E
:10014000BDE810400EF084BB0EF098BA0EF060B817
:1001500009B1002070470DF067BC0020704740EAED
:1001600001039B0703D009E008C9121F08C0042A35
:10017000FAD203E011F8013B00F8013B521EF9D21C
:1001800070470146002000E0401C0A5C002AFBD1B9
:10019000704780EA010202F0004330B430F00042C0
:1001A00021F0004015D0A0B1C0F3C755C2F3C75429
:1001B000C2F31601C0F31600651B41F4000140F4C0
:1001C00000007D35814201D36D1C00E04900002D07
:1001D00002DA30BC002070474FF400020024814254
:1001E00001D3091A144352084FEA4101F7D151B122
:1001F000814202D14FF0004105E002D24FF00101EF
:1002000001E06FF0010104EBC55030BC18440CF064
:1002100013B9C10F80EAE0700844CA079623002191
:100220000CF013B900F0004230F000400DD0C10DC9
:1002300001F5607142EA01510022C0F31600520735
:1002400042EAD00240071143704700200146704740
:1002500030B50B46014600202022012409E021FA96
:1002600002F59D4205D303FA02F5491B04FA02F593
:100270002844151EA2F10102F1DC30BD2DE9F05F2A
:100280000546002092469B46884606468146402405
:100290001CE028464146474622460CF0DAFA524610
:1002A0005B46801A994111D31046194622460CF03C
:1002B000C1FA2D1A67EB0107B8464F4622460120C6
:1002C00000210CF0B7FA38184E418146201EA4F1E7
:1002D0000104DEDC484631462A464346BDE8F09F2D
:1002E00000B500220CF068FBC04380B2010241EA75
:1002F000102080B200BD704770477047FFFFFFFFBE
:100300004FF020008749086000BF8648006810F061
:10031000400FFAD04FF00300834908604FF40030DB
:100320008249C1F8A8014FF00000814908604FF0F0
:100330000100804908608048804908604FF0010052
:10034000A1F1040108604FF0AA007D4908604FF058
:1003500055007649C1F88C0000BF7848001D006840
:1003600010F0806FF9D04FF00300764908604FF02D
:10037000AA006E49C1F88C004FF055007049086022
:100380004FF02300704908604FF00100A1F1040113
:1003900008604FF0AA006D4908604FF055000860F2
:1003A00000BF6948001D006810F4806FF9D04FF05D
:1003B0000300674908604FF0AA005C49C1F8AC002F
:1003C0004FF05500614908606248634908604FF08A
:1003D00000005649C1F8C8010846D0F88800C0F3AB
:1003E0000160032868D15348006810F0030006D06C
:1003F000012823D002283FD003285CD100E000BFB1
:1004000056480068C0F30E0000F101004FEA4001B9
:100410004648D0F88800C0F3074000F10100B1FB66
:10042000F0F04F4900FB01F03F490968C9B201F102
:100430000101B0FBF1F04B4908603CE0474800681F
:10044000C0F30E0000F101004FEA40013748D0F838
:100450008800C0F3074000F10100B1FBF0F0424911
:1004600000FB01F030490968C9B201F10101B0FB9C
:10047000F1F03C4908601EE038480068C0F30E0007
:1004800000F101004FEA40012848D0F88800C0F38D
:10049000074000F10100B1FBF0F04FF4FA4100FB1E
:1004A00001F021490968C9B201F10101B0FBF1F085
:1004B0002C49086000BF2FE01E48006810F00300C0
:1004C00006D0012810D0022819D0032823D100E03B
:1004D00000BF15480068C0B200F101002049B1FB1F
:1004E000F0F02049086016E00F480068C0B200F143
:1004F00001001D49B1FBF0F01A4908600BE00A4801
:100500000068C0B200F101004FF4FA41B1FBF0F015
:100510001449086000BF00BF43F23A000349086075
:1005200070470000A0C10F4004C10F4000C00F4041
:10053000ACC10F400CC10F404F00030084C00F40FE
:100540008CC00F4080C00F40A4C00F40ACC00F4013
:10055000A0C00F4048F10041C4C00F4088C00F4008
:1005600000093D00240000108096980000EB8002F6
:10057000114600BFA1F101021100FBD170470146F5
:1005800000BFA1F101021100FBD170474FF0110033
:10059000FF49087270471FB5FE480078401CC0B282
:1005A000FC490870182802DB4FF000000870F94879
:1005B000007807287EDCF7480078C0EBC00000EB2D
:1005C0004000F54901EB800090F83100F1490978CD
:1005D000C1EBC10101EB4101EF4A02EB810191F84E
:1005E0003010EC4A1278C2EBC20202EB4202EA4B34
:1005F00003EB820292F82D20E64B1B78C3EBC3037A
:1006000003EB4303E44C04EB830393F82C30CDE974
:100610000032CDE90210DF480078C0EBC00000EBEB
:100620004000214601EB800090F828000346ED22AF
:10063000D848017800780AF003FAD6480078D749FC
:10064000097888427EDAD3480078C0EBC00000EB1E
:100650004000214601EB8000C0780A2835DACD48F9
:100660000078C0EBC00000EB400001EB8000C078D8
:1006700000F10100C7490978C1EBC10101EB41015B
:10068000224602EB8101C870C2480078C0EBC0006E
:1006900000EB4000114601EB8000C0780A2820DB07
:1006A000BC480078C0EBC00000EB400001EB8000CC
:1006B000407800E058E010F0080F12D10122032129
:1006C000B448007807F0CAFE0BE04FF00A00B149C9
:1006D0000978C1EBC10101EB4101AF4A02EB810195
:1006E000C870AC480078C0EBC00000EB4000AA49DD
:1006F00001EB8000C07803281FDBA6480078C0EB20
:10070000C00000EB400001EB80000079032814DA00
:10071000A0480078C0EBC00000EB400001EB800077
:10072000407900F101009B490978C1EBC10101EB5F
:100730004101994A02EB8101487196480078C0EB6B
:10074000C00000E028E000EB4000934901EB80008E
:10075000C07890490978C1EBC10101EB41018E4A93
:1007600002EB8101087167E08A480078082863D0AD
:100770008848007809285FD0864800780A280CD17C
:1007800000200090019002900346024603908148A9
:10079000017800780AF054F94EE07E4800780C2881
:1007A0004AD07C4800780D2846D07A4800780E2838
:1007B00042D07848007814280CD100200090019095
:1007C00002900346024603907248017800780AF0CE
:1007D00037F931E06F48007815280CD100200090DF
:1007E000019002900346024603906A48017800781F
:1007F0000AF026F920E06748007816280CD100207E
:1008000000900190029003460246039061480178EF
:1008100000780AF015F90FE05E48007817280BD130
:100820000020009001900290034602460390594830
:10083000017800780AF004F91FBD10B5682009F0AE
:100840002EFE574908706A2009F029FE5449487065
:100850006C2009F024FE524988706E2009F01FFEBA
:100860004F49C870702009F01AFE4D490872722075
:1008700009F015FEC1B24A4841724FF0740009F008
:100880000EFEC1B2464881724FF0760009F007FEB5
:10089000C1B24348C1724FF0A40009F000FE4049C4
:1008A0000871A62009F0FBFDC1B23D4841714FF02F
:1008B000A80009F0F4FDC1B2394881714FF0AA00D7
:1008C00009F0EDFDC1B23648C17110BD10B50EF092
:1008D0005FFD4FF001003349087010BD014600294B
:1008E00002DA484200B270470846FCE72E4800682A
:1008F00020F0E0602C49086008464068C0F30B1007
:100900002A492B4A127821F812002948007800F170
:1009100001002749087008460078032805DA2248B4
:10092000006840F080702049086070474FF0010077
:10093000204908702048008800F1010000B21E49DB
:1009400008800A2807D14FF001001C4908704FF0B9
:100950000000194908801A480088401C00B2184954
:100960000880142807D14FF00100164908704FF095
:1009700000001349088014480088401C00B2124946
:100980000880642831D14FF00100104908701FE041
:1009900000400240FC0000102C0A0010350000103E
:1009A0007840001075000010004003402601001040
:1009B0001D0100106E000010280000106F000010D4
:1009C0002A000010700000102C00001071000010B0
:1009D0004FF00000FF490880FF48007828B1FF4829
:1009E000406B80F48010FD494863FD480088401C3E
:1009F00000B2FB490880C82807D14FF00100F9492F
:100A000008704FF00000F6490880F7480088401C45
:100A100000B2F5490880B0F5FA7F07D14FF0010028
:100A2000F24908704FF00000EF490880F048008854
:100A3000401C00B2EE490880B0F57A7F07D14FF034
:100A40000100EC4908704FF00000E9490880704748
:100A5000E948007840B1E948007828B1E7480078D3
:100A6000A0F10100E5490870704710B580B91388FE
:100A70004FF6FF74A34203DA138803F101031380D6
:100A80000B78FF2B08DA0B7803F101030B7003E0FE
:100A90004FF0000313800B7010BD58B90B78012B79
:100AA00003DB4FF0FF0313700EE00B7803F101033B
:100AB0000B7009E00B781BB94FF00003137003E0D3
:100AC0000B78A3F101030B70704780B9137873B9E9
:100AD0000B78012B03DB4FF0FF0313700DE00B7855
:100AE000012B0ADA0B7803F101030B7005E00B7898
:100AF0001BB10B78A3F101030B70704710B518B14F
:100B0000BF4B1B78012B13D113788BB90B78012BBA
:100B100009DB4FF00F0313704FF00003B84C237044
:100B2000B84C237032E00B7803F101030B702DE019
:100B300018B1B44B1B78012B14D113781F2B11D192
:100B40000B78012B09DB4FF02F0313704FF00003DC
:100B5000AC4C2370AA4C237018E00B7803F101030E
:100B60000B7013E00B788BB180B10B78A3F101030C
:100B70000B7013780F2B03D14FF01F03137005E098
:100B800013782F2B02D14FF00003137010BDF0B576
:100B900091B0034615464FF00006304632464FF0FE
:100BA0000106344638E001FB04F6A6EB0106F6B276
:100BB000304622E09E5C0A2E09D09E5C3EB19E5CCF
:100BC0000DF8006002F10106F6B2324611E000BFF6
:100BD00007E04FF020060DF8006000F10106F6B2C4
:100BE000304601FB04F68642F3DC02F10106F6B260
:100BF000324600F10106F6B2304601FB04F68642A9
:100C0000D8DC9E5C0A2E03D102F10106F6B2324610
:100C100004F10106F6B23446AC42C4DD4FF00006E2
:100C2000304606E01DF800601E5400F10106F6B2E1
:100C30003046B0EB810FF5DB11B0F0BDF0B54FF0F1
:100C40001505714E35704FF00605704E35704FF03A
:100C500015056F4E35704FF000052A4607E04FF03E
:100C600000056C4EB55402F101052DB22A4640F242
:100C7000FF35AA42F3DB4FF000052A46C7E34FF0E9
:100C800000052B46BAE3614D2D7805FB0235624E17
:100C9000745DBF2C09DDA4F161055B4E367805FB60
:100CA00006F54FEA850529460EE01F2C09DDA4F163
:100CB0002005554E367805FB06F54FEA8505294691
:100CC00002E04FF0000529464FEA4225504E3678A3
:100CD00006FB0350514D6F5C054600F1010630469E
:100CE0004C4E77554D4E01F10405775D054600F1F8
:100CF00001063046474E7755484E01F10805775DAD
:100D0000054600F101063046424E7755434E01F14B
:100D10000C05775D054600F1010630463D4E7755DE
:100D20003E4E01F11005775D054600F101063046A3
:100D3000384E7755394E01F11405775D054600F1BF
:100D400001063046334E7755344E01F11805775D74
:100D5000054600F1010630462E4E77552F4E01F123
:100D60001C05775D054600F101063046294E775592
:100D70002A4E01F12005775D054600F10106304657
:100D8000244E7755254E01F12405775D054600F187
:100D9000010630461F4E7755204E01F12805775D3C
:100DA000054600F1010630461A4E77551B4E01F1FB
:100DB0002C05775D054600F101063046154E775546
:100DC000164E01F13005775D054600F1010630460B
:100DD000104E25E02C0000107600001000C0092005
:100DE0002E00001072000010300000107300001080
:100DF0003200001074000010A80500105F00001001
:100E000018010010170100101B010010190100103B
:100E10001A010010E4050010E4090010D8040100D4
:100E20007755FF4E01F13405775D054600F1010667
:100E30003046FC4E7755FA4E01F13805775D054690
:100E400000F101063046F74E7755F54E01F13C05AD
:100E5000775D054600F101063046F24E7755F04EBB
:100E600001F14005775D054600F101063046ED4E83
:100E70007755EB4E01F14405775D054600F101061B
:100E80003046E84E7755E64E01F14805775D054658
:100E900000F101063046E34E7755E14E01F14C0575
:100EA000775D054600F101063046DE4E7755DC4E93
:100EB00001F15005775D054600F101063046D94E37
:100EC00077554FEA4225D84E367806FB035505F193
:100ED00080052846D24E01F10105775D054600F1F7
:100EE00001063046CF4E7755CD4E01F10505775DB1
:100EF000054600F101063046CA4E7755C84E01F14D
:100F00000905775D054600F101063046C54E775567
:100F1000C34E01F10D05775D054600F1010630462F
:100F2000C04E7755BE4E01F11105775D054600F1C3
:100F300001063046BB4E7755B94E01F11505775D78
:100F4000054600F101063046B64E7755B44E01F124
:100F50001905775D054600F101063046B14E77551B
:100F6000AF4E01F11D05775D054600F101063046E3
:100F7000AC4E7755AA4E01F12105775D054600F18B
:100F800001063046A74E7755A54E01F12505775D40
:100F9000054600F101063046A24E7755A04E01F1FC
:100FA0002905775D054600F1010630469D4E7755CF
:100FB0009B4E01F12D05775D054600F10106304697
:100FC000984E7755964E01F13105775D054600F153
:100FD00001063046934E7755914E01F13505775D08
:100FE000054600F1010630468E4E77558C4E01F1D4
:100FF0003905775D054600F101063046894E775583
:10100000874E01F13D05775D054600F1010630464A
:10101000844E7755824E01F14105775D054600F11A
:10102000010630467F4E77557D4E01F14505775DCF
:10103000054600F1010630467A4E7755784E01F1AB
:101040004905775D054600F101063046754E775536
:10105000734E01F14D05775D054600F101063046FE
:10106000704E77556E4E01F15105775D054600F1E2
:10107000010630466B4E77554FEA42256A4E367868
:1010800006FB035505F580752846654E01F10205FE
:10109000775D054600F101063046624E7755604E99
:1010A00001F10605775D054600F1010630465D4E0B
:1010B00077555B4E01F10A05775D054600F10106A3
:1010C0003046584E7755564E01F10E05775D054670
:1010D00000F101063046534E7755514E01F112058D
:1010E000775D054600F1010630464E4E77554C4E71
:1010F00001F11605775D054600F101063046494EBF
:101100007755474E01F11A05775D054600F1010656
:101110003046444E7755424E01F11E05775D054637
:1011200000F1010630463F4E77553D4E01F1220554
:10113000775D054600F1010630463A4E7755384E48
:1011400001F12605775D054600F101063046354E72
:101150007755334E01F12A05775D054600F101060A
:101160003046304E77552E4E01F12E05775D0546FF
:1011700000F1010630462B4E7755294E01F132051C
:10118000775D054600F101063046264E7755244E20
:1011900001F13605775D054600F101063046214E26
:1011A00077551F4E01F13A05775D054600F10106BE
:1011B00030461C4E77551A4E01F13E05775D0546C7
:1011C00000F101063046174E7755154E01F14205E4
:1011D000775D054600F101063046124E7755104EF8
:1011E00001F14605775D054600F1010630460D4EDA
:1011F00077550B4E01F14A05775D054600F1010672
:101200003046084E7755064E01F14E05775D05468E
:1012100000F101063046034E7755014E06E000000E
:10122000D8040100E40500101A01001001F1520574
:10123000775D054600F101063046FA4E77554FEAD4
:101240004225F94E367806FB035505F5C07528464C
:10125000F64E01F10305775D054600F101063046C3
:10126000F04E7755F14E01F10705775D054600F127
:1012700001063046EB4E7755EC4E01F10B05775DDC
:10128000054600F101063046E64E7755E74E01F17E
:101290000F05775D054600F101063046E14E7755B2
:1012A000E24E01F11305775D054600F10106304677
:1012B000DC4E7755DD4E01F11705775D054600F1EF
:1012C00001063046D74E7755D84E01F11B05775DA4
:1012D000054600F101063046D24E7755D34E01F156
:1012E0001F05775D054600F101063046CD4E775566
:1012F000CE4E01F12305775D054600F1010630462B
:10130000C84E7755C94E01F12705775D054600F1B6
:1013100001063046C34E7755C44E01F12B05775D6B
:10132000054600F101063046BE4E7755BF4E01F12D
:101330002F05775D054600F101063046B94E775519
:10134000BA4E01F13305775D054600F101063046DE
:10135000B44E7755B54E01F13705775D054600F17E
:1013600001063046AF4E7755B04E01F13B05775D33
:10137000054600F101063046AA4E7755AB4E01F105
:101380003F05775D054600F101063046A54E7755CD
:10139000A64E01F14305775D054600F10106304692
:1013A000A04E7755A14E01F14705775D054600F146
:1013B000010630469B4E77559C4E01F14B05775DFB
:1013C000054600F101063046964E7755974E01F1DD
:1013D0004F05775D054600F101063046914E775581
:1013E000924E01F15305775D054600F10106304646
:1013F0008C4E775503F101052DB22B468C4D2D787F
:10140000AB42FFF640AC02F101052DB22A46022A9A
:10141000FFF635ACF0BDF0B54FF00905854E3570DF
:101420004FF01005824E35704FF008057E4E357036
:101430004FF000052A4607E04FF00005794EB554FD
:1014400002F101052DB22A4640F2FF35AA42F3DB34
:101450004FF000052A46E0E04FF000052C46D3E0AF
:10146000734D2D7805FB0245734E735DBF2B09DD6F
:10147000A3F161056F4E367805FB06F54FEA450589
:1014800029460EE01F2B09DDA3F12005694E3678B1
:1014900005FB06F54FEA4505294602E04FF0000539
:1014A00029464FEA0225604E367806FB0450634E0B
:1014B00001F10205775D054600F101063046594EFF
:1014C00077555E4E01F10405775D054600F1010692
:1014D0003046544E7755594E01F10605775D054665
:1014E00000F1010630464F4E7755544E01F1080584
:1014F000775D054600F1010630464A4E77554F4E5E
:1015000001F10A05775D054600F101063046454EBA
:1015100077554A4E01F10C05775D054600F101064D
:101520003046404E7755454E01F10E05775D054634
:1015300000F1010630463B4E7755404E01F1100553
:10154000775D054600F101063046364E77554FEA85
:101550000225354E367806FB045505F180052846F0
:10156000364E01F10305775D054600F10106304670
:101570002C4E7755314E01F10505775D054600F19A
:1015800001063046274E77552C4E01F10705775D51
:10159000054600F101063046224E7755274E01F1EF
:1015A0000905775D054600F1010630461D4E775569
:1015B000224E01F10B05775D054600F1010630462C
:1015C000184E77551D4E01F10D05775D054600F16A
:1015D00001063046134E7755184E01F10F05775D21
:1015E000054600F1010630460E4E7755134E01F1C7
:1015F0001105775D054600F101063046094E775525
:1016000004F101052DB22C46094D2D78AC42FFF6B0
:1016100027AF02F101052DB22A46042AFFF61CAFBE
:10162000F0BD0000E40500101A010010D80401000C
:10163000190100101B010010E40900100439010019
:10164000F0B54FF00C05FF4E35704FF01005FE4E13
:1016500035704FF00805FD4E35704FF000052A46F5
:1016600007E04FF00005FA4EB55402F101052DB226
:101670002A4640F2FF35AA42F3DB4FF000052A4626
:10168000E0E04FF000052C46D3E0EF4D2D7805FB50
:101690000245F04E735DBF2B09DDA3F16105E94EF4
:1016A000367805FB06F54FEA450529460EE01F2B67
:1016B00009DDA3F12005E34E367805FB06F54FEA78
:1016C0004505294602E04FF0000529464FEA02256C
:1016D000DE4E367806FB0450DF4E01F10405775DDF
:1016E000054600F101063046D94E7755DA4E01F134
:1016F0000605775D054600F101063046D44E775564
:10170000D54E01F10805775D054600F1010630462A
:10171000CF4E7755D04E01F10A05775D054600F1B1
:1017200001063046CA4E7755CB4E01F10C05775D68
:10173000054600F101063046C54E7755C64E01F10B
:101740000E05775D054600F101063046C04E77551F
:10175000C14E01F11005775D054600F101063046E6
:10176000BB4E7755BC4E01F11205775D054600F181
:1017700001063046B64E77554FEA0225B34E36780D
:1017800006FB045505F180052846B34E01F1050519
:10179000775D054600F101063046AD4E7755AE4EF9
:1017A00001F10705775D054600F101063046A84EB8
:1017B0007755A94E01F10905775D054600F101064F
:1017C0003046A34E7755A44E01F10B05775D0546D3
:1017D00000F1010630469E4E77559F4E01F10D05F2
:1017E000775D054600F101063046994E77559A4ED1
:1017F00001F10F05775D054600F101063046944E74
:101800007755954E01F11105775D054600F101060A
:1018100030468F4E7755904E01F11305775D0546A2
:1018200000F1010630468A4E775504F101052DB2CC
:101830002C46854D2D78AC42FFF627AF02F101050D
:101840002DB22A46042AFFF61CAFF0BD00B5ADB09C
:1018500082480078322801F0D68035DC81F020867D
:10186000DFE810F07D00A400CB005901B101F801C0
:10187000040D040D040D040D040D040D040D040DE0
:10188000040D040D040D040D040D040D37023E0279
:1018900047025002040D040D040D040D040D040D47
:1018A00057028402B102D002FC0226031005430550
:1018B000040D040D68058505CF0503066806990625
:1018C0001B0853088F089A08492801F016851BDC6D
:1018D000A0F133001628C1D2DFE810F0C9083A0998
:1018E0006C09850AB60A1C0B4E0BB40BE50B4B0CAE
:1018F000C80CC80CC80CC80CC80CC90CC80CC80C47
:10190000C80CCE0CE90CFC0CF32801F06A8515DC40
:10191000F02801F03B850ADC4A2801F001854B28BC
:1019200001F011854C2841F0BB8501F01FBDF12865
:1019300001F03985F228F6D101F04BBDF4380C28BE
:101940008CD2DFE810F05B0D6F0D930C930C930CB1
:10195000930C840D8B0D920D930C930C990D4048B4
:10196000B0F900100A2091FBF0F200FB1210099070
:101970003B48B0F900000A2190FBF1F0089039488B
:10198000B0F9000090FBF1F0079037480079374933
:10199000B1F900200999CDE90012029034A12D4837
:1019A000DDE907230BF026F801F07ABD3D48B0F9D8
:1019B00000000A2190FBF1F009902948B0F90000DD
:1019C00090FBF1F201FB120008902548B0F90010DD
:1019D0000A2091FBF0F007903348B0F90010234A39
:1019E000B2F900200998CDE9002002912FA11948F1
:1019F000DDE907230AF0FEFFD6E7384800880A2110
:101A000090FBF1F201FB12000990344801880A2092
:101A100091FBF0F008902348B0F900100A2091FBE8
:101A2000F0F00790204AB2F90020DDE90810CDE976
:101A3000002102900D48B0F9002029A10548079B1C
:101A400066E000001B010010190100101A010010CF
:101A5000E4050010E4090010F0F500003900001062
:101A600038E0072036E00720881400103CE007200B
:101A70002055E2FBF53D252D75C20A2049E2FBF514
:101A80003D252D752E25303175C00A2050E2FBF51D
:101A90003D252D64C2F20A2055F1E5F2E83D2558B6
:101AA0000000000012E007203AE007202049E2FB96
:101AB000F53D252D752E25303175C00A2050E2FBED
:101AC000F53D252D64C2F20A2055F1E5F2E83D25E9
:101AD0002D75C20A20743D25642743002EE007209F
:101AE0002050E2FBF53D252D64C2F20A2055F1E5B8
:101AF000F2E83D252D75C20A20743D252D6427434B
:101B00000A2055E1E0F23D252D752E252D75420068
:101B10000AF070FF48E7ED480088B0F5167F1FDB3C
:101B2000EB4800880A2190FBF1F201FB12000990BA
:101B3000E748008890FBF1F00890E648B0F9000013
:101B400090FBF1F00790DDE90801CDE90001E248E2
:101B5000B0F90030E1A1EE48079A0AF04BFF31E0FE
:101B6000EC48B0F90000FEF754FBEB490390FEF798
:101B700010FB0490FEF756FBCDE90801D44800881D
:101B80000A2190FBF1F201FB12000790D048008877
:101B900090FBF1F00690CF48B0F900100A2091FBBD
:101BA000F0F00590DDE90801CDE90201DDE906016B
:101BB000CDE90001C848B0F90030D8A1D448059A51
:101BC0000AF018FFF0E6C1480088B0F5167F17DB71
:101BD000BF4800880A2190FBF1F201FB1200099036
:101BE000BB48008890FBF1F0089009980090BA4833
:101BF000B0F90020D5A1C648089B0AF0FBFE28E0FA
:101C0000C448B0F90000FEF704FBC3490490FEF796
:101C1000C0FA0590FEF706FBCDE90801AC48008844
:101C20000A2190FBF1F201FB12000790A8480088FE
:101C300090FBF1F00690DDE90801CDE9020107987B
:101C40000090A548B0F90020CDA1B148069B0AF04C
:101C5000D1FEA9E69D480088B0F5167F13DB9C48AD
:101C600000880A2190FBF1F201FB120009909848CC
:101C7000008890FBF1F008900246CDA1A448099B92
:101C80000AF0B8FE24E0A348B0F90000FEF7C1FA5C
:101C9000A1490490FEF77DFA0590FEF7C3FACDE95D
:101CA00008018B4800880A2190FBF1F201FB120029
:101CB00007908748008890FBF1F00690DDE9080165
:101CC000CDE90001C6A19248DDE906230AF092FEA3
:101CD0006AE6CF480278CFA18D480AF08BFE63E612
:101CE000DA480378CA480278D9A189480AF082FE06
:101CF0005AE6D6480378C6480278E3A184480AF039
:101D000079FE51E6D1480278EEA181480AF072FED0
:101D10004AE6F948B0F900000A2190FBF1F201FB14
:101D200012000990F448B0F900100A2091FBF0F07D
:101D30000890F248B0F900000A2190FBF1F201FB93
:101D400012000790ED48B0F9000090FBF1F006900A
:101D5000EB48B0F90020DDE908018DE80700E9A1B2
:101D60006B48DDE906230AF045FE1DE65948B0F947
:101D700000000A2190FBF1F201FB12000990554886
:101D8000B0F9000090FBF1F00890DB48B0F90000DA
:101D900090FBF1F201FB12000790D748B0F9001058
:101DA0000A2091FBF0F00690D54AB2F90020DDE957
:101DB0000810CDE900210290E1A15548DDE9062394
:101DC0000AF018FEF0E54348B0F900000A2190FB44
:101DD000F1F201FB120009903E48B0F900100A2010
:101DE00091FBF0F008903C48B0F900100998CDE95B
:101DF0000001C348B0F90020E0A14548089B0AF063
:101E0000F9FDD1E5324800880A2190FBF1F201FB8F
:101E1000120009902E4801880A2091FBF0F00890EA
:101E20002C48B0F900000A2190FBF1F201FB1200EE
:101E300007902848B0F9000090FBF1F00690264A80
:101E4000B2F90020DDE90810CDE900210290D8A107
:101E50002F48DDE906230AF0CDFDA5E52D48B0F9B0
:101E60000000FEF7D6F92C490490FEF792F9059090
:101E7000FEF7D8F9CDE90801154800880A2190FB42
:101E8000F1F201FB120007901148008890FBF1F07D
:101E90000690DDE90801CDE90201079800900E489F
:101EA000B0F90020D0A11A48069B0AF0A3FD7BE5FB
:101EB000DA48007810B9DAA00E90BBE1D748007874
:101EC000012802D1D8A00E90B4E1B1E15400001075
:101ED0002EE0072012E007203AE007202055F1E528
:101EE000F2E83D252D75C20A20743D252D64274357
:101EF0000A2055E1E0F23D252D752E252D75420A6B
:101F00002049E1E0F23DCAC0CBC8C1D02E0000009C
:101F1000E409001030E007200000C8422055F1E538
:101F2000F2E83D252D75C20A20743D252D64274316
:101F30000A2055E1E0F23D252D752E252D75420A2A
:101F40002049E1E0F23D252E3266410020743D2516
:101F50002D6427430A2055E1E0F23D252D752E25FD
:101F60002D75420A2049E1E0F23DCAC0CBC8C1D07C
:101F70002E0A20D3D1D2C0CDCEC2CAC800000000E4
:101F800020743D252D6427430A2055E1E0F23D25CC
:101F90002D752E252D75420A2049E1E0F23D252EB2
:101FA0003266410A20D3D1D2C0CDCEC2CAC8000009
:101FB0002055E1E0F23D252D752E252D75420A2094
:101FC00049E1E0F23DCAC0CBC8C1D02E0A20D3D12E
:101FD000D2C0CDCEC2CAC80A20C2DBD5CEC4000052
:101FE0002055E1E0F23D252D752E252D75420A2064
:101FF00049E1E0F23D252E3266410A20D3D1D2C01C
:10200000CDCEC2CAC80A20C2DBD5CEC400000000B3
:102010006100001020202020D3D1D2C0CDCEC2CA72
:10202000C80A20C2FBE1EEF020E3EB2EECE5EDFE6A
:102030000A20C8EDF2E5F0EDE5F20A2055E1E0F204
:102040002EE2EAEB3D252D754200000062000010F3
:1020500020202020D3D1D2C0CDCEC2CAC80A20C8E9
:10206000EDF2E5F0EDE5F20A2055E1E0F22EE2EACC
:10207000EB3D252D75420A2055E1E0F22EE2FBEA08
:10208000EB3D252D7542000020202020D3D1D2C069
:10209000CDCEC2CAC80A2055E1E0F22EE2EAEB3DFD
:1020A000252D75420A2055E1E0F22EE2FBEAEB3DD8
:1020B000252D75420A20CAE0EBE8E1F0EEE2EAE005
:1020C0000000000020202020D3D1D2C0CDCEC2CA33
:1020D000C80A2055E1E0F22EE2FBEAEB3D252D7522
:1020E000420A20CAE0EBE8E1F0EEE2EAE00A20C2B0
:1020F000FBF5EEE40000000038E0072036E00720A2
:102100003CE00720202020CAC0CBC8C1D0CEC2CA24
:10211000C00A2055E2FBF53D252D752E2530317581
:10212000C20A2049E2FBF53D252D752E253031757B
:10213000C00A2050E2FBF53D252D64C2F2000000EC
:10214000202020CAC0CBC8C1D0CEC2CAC00A2049F4
:10215000E2FBF53D252D752E25303175C00A205046
:10216000E2FBF53D252D64C2F20A2055F1E5F2E8C7
:102170003D252D752E25303175C20000202020CA46
:10218000C0CBC8C1D0CEC2CAC00A2050E2FBF53DC8
:10219000252D64C2F20A2055F1E5F2E83D252D75A2
:1021A0002E25303175C20A20743D25642743000076
:1021B000202020CAC0CBC8C1D0CEC2CAC00A205578
:1021C000F1E5F2E83D252D752E25303175C20A2046
:1021D000743D256427430A2055E1E0F23D252D7525
:1021E0002E252D7542000000202020CAC0CBC8C17A
:1021F000D0CEC2CAC00A20743D256427430A2055A8
:10220000E1E0F23D252D752E252D75420A2049E18C
:10221000E0F23D252E32664100000000670000100C
:10222000C2DBCACB00000000C0CCCFCB0000000056
:10223000FFA00E90FF48B0F90000FDF7EAFFFE494D
:102240000490FDF7A6FF0590FDF7ECFFCDE908012E
:10225000FA4800880A2190FBF1F201FB1200079076
:10226000F648008890FBF1F006900E980290DDE9A8
:102270000801CDE90001F2A1FF48DDE906230AF0DB
:10228000B9FB47E4FD48007818B9AFF26C000E9036
:1022900009E0FA480078012803D1AFF274000E90EB
:1022A00001E0E3A00E90F648007818B9AFF2900074
:1022B0000F9001E0DEA00F90DE48B0F90000FDF7BE
:1022C000A8FFDD490690FDF764FF0790FDF7AAFF20
:1022D000CDE90801DDE90E01CDE90001E9A1E648FB
:1022E000DDE908230AF086FB14E4E448007818B915
:1022F000AFF2D4000E9009E0E0480078012803D145
:10230000AFF2DC000E9001E0C9A00E90DC4800782E
:1023100018B9AFF2F4000F9001E0C5A00F900F982C
:1023200009900E9808900246E4A1D348099B0AF050
:1023300061FB47E4ED48008810B1BDA00E9002E0BB
:10234000AFF224100E90EA48008810B1B8A00F90A8
:1023500002E0AFF234100F900F9809900E98089099
:102360000246E4A1C448099B0AF044FB2AE4DF4882
:10237000008810B1ECA00E9002E0AFF25C100E905D
:10238000DB48008810B1E8A00F9002E0AFF27010B7
:102390000F90E748B0F90000E649B1F90010E64AAD
:1023A000B2F90020CDE9002102900F980990E3488E
:1023B000B0F90030E2A1B048099A0AF01BFBEF48DF
:1023C0000078E8B1EE480078032819D14FF02001D9
:1023D000EC4800784FF0290202EB8000A64A115425
:1023E000E84800784FF02A0202EB8000A24A11541C
:1023F000E44800784FF02B0202EB80009E4A115413
:1024000027E4CB48B0F90000CA49B1F90010CDE982
:102410000010C948B0F90030C848B0F90020DAA16E
:1024200095480AF0E7FAD5480078E8B1D448007832
:10243000022819D14FF02001D24800784FF018023D
:1024400002EB80008C4A1154CE4800784FF01902FC
:1024500002EB8000884A1154CA4800784FF01A02F3
:1024600002EB8000844A115432E4D648B0F90000EF
:10247000D549B1F90010D54AB2F90020D44BB3F9CF
:102480000030CDE90232CDE90410A948B0F90000CE
:10249000A849B1F90010CDE90010A748B0F9003003
:1024A000A648B0F90020CB4973480AF0A3FAB34814
:1024B0000078E8B1B2480078032819D14FF0200124
:1024C000B04800784FF02F0202EB80006A4A1154A6
:1024D000AC4800784FF0300202EB8000664A11549D
:1024E000A84800784FF0310202EB8000624A115494
:1024F000A2480078E8B1A2480078012819D14FF02D
:102500002001A04800784FF00E0202EB80005A4AEA
:1025100011549C4800784FF00F0202EB8000564A9D
:102520001154984800784FF0100202EB8000524A94
:1025300011541AE4A348B0F90000A349B1F90010FE
:10254000CDE90010A148B0F90030A148B0F9002051
:10255000A1A149480AF04EFA88480078D0B18848CD
:102560000078022816D14FF02001864800784FF0FD
:102570001E0202EB8000404A1154824800784FF05E
:102580001F0202EB80003C4A11547E48007801EBA8
:102590008000115416E49F48B0F900009E49B1F93B
:1025A00000109E4AB2F900209D4BB3F90030CDE9EE
:1025B0000232CDE904108348B0F900008249B1F934
:1025C0000010CDE900108148B0F900308048B0F922
:1025D000002094A128480AF00DFA68480078E8B174
:1025E00067480078012819D14FF02001654800782C
:1025F0004FF00E0202EB80001F4A11546148007830
:102600004FF00F0202EB80001B4A11545D48007826
:102610004FF0100202EB8000174A1154574800781F
:1026200020B157480078032800D11BE134E10000B5
:10263000C2CACB0030E007200000C8422EE00720CD
:10264000202020CAC0CBC8C1D0CEC2CAC00A2055E3
:10265000E1E0F23D252D752E252D75420A2049E138
:10266000E0F23D252E3266410A20CAEEEDF2F02E50
:10267000F1E5F2E820257300E4090010670000107E
:1026800068000010202020CAC0CBC8C1D0CEC2CA6A
:10269000C00A2049E1E0F23D252E3266410A20CAF7
:1026A000EEEDF2F02EF1E5F2E82025730A20D3EFEB
:1026B000F02ED8C8CC20257300000000202020CAAE
:1026C000C0CBC8C1D0CEC2CAC00A20CAEEEDF2F05B
:1026D0002EF1E5F2E82025730A20D3EFF02ED8C8BA
:1026E000CC2025730A20C2DBD5CEC4009C0000108C
:1026F0009E00001020202045544845524E45543A33
:102700000A2045746865726E65742025730A20443A
:10271000484350EAEBE8E5EDF22025730A204950E2
:10272000E0E4F0E5F13A0000C2CACB20000000006E
:10273000A6000010A4000010A2000010A0000010CD
:1027400020202045544845524E45543A0A204448DA
:102750004350EAEBE8E5EDF22025730A204950E00A
:10276000E4F0E5F13A0A20253033752E2530337533
:102770002E253033752E253033750000570000109C
:102780003C0000105D0000102020204554484552B8
:102790004E45543A0A204950E0E4F0E5F13A0A2067
:1027A000253033752E253033752E253033752E2583
:1027B0003033750A20CCE0F1EAE020EFEEE4F1E5F9
:1027C000F2E83A00AE000010AC000010AA000010C1
:1027D000A8000010684401002020204554484552BC
:1027E0004E45543A0A20CCE0F1EAE020EFEEE4F165
:1027F000E5F2E83A0A20253033752E253033752E60
:10280000253033752E253033750A20D8EBFEE73A94
:1028100000000000B6000010B4000010B20000106C
:10282000B000001020202045544845524E45543AEF
:102830000A20253033752E253033752E253033751B
:102840002E253033750A20D8EBFEE73A0A202530D2
:1028500033752E253033752E253033752E253033C4
:10286000750000004FF02001FF4800784FF026026D
:1028700002EB8000FD4A1154FB4800784FF027021C
:1028800002EB8000F94A1154F74800784FF0280213
:1028900002EB8000F54A1154F3E4F548B0F900105A
:1028A000F448B0F90000F44AB2F90020CDE9002064
:1028B0000291F248B0F90030F148B0F90020F1A1DE
:1028C000EA480AF097F8FE480078E8B1FD48007839
:1028D000022819D14FF02001E34800784FF015028B
:1028E00002EB8000E14A1154DF4800784FF01602F5
:1028F00002EB8000DD4A1154DB4800784FF01702EC
:1029000002EB8000D94A1154BBE4EF48B0F9000053
:10291000D749B1F90010D74AB2F90020D64BB3F924
:102920000030CDE90032CDE90210D448B0F90030D2
:10293000D348B0F90020E549CC480AF05BF8E048FC
:102940000078E8B1DF480078012819D14FF0200164
:10295000C54800784FF00E0202EB8000C34A1154C4
:10296000C14800784FF00F0202EB8000BF4A1154BB
:10297000BD4800784FF0100202EB8000BB4A1154B2
:102980007FE4D148B0F90030B948B0F90020D0A1B7
:10299000B6480AF02FF874E44FF000000A9009E0FE
:1029A000DA490A98095C0BAA11540A9800F101004F
:1029B000C0B20A900A980A28F2DBC1480078C8B170
:1029C000C0480078032815D14FF05F000BA9A64A34
:1029D00012788854CD48FDF7D4FBA3490978884282
:1029E00008D10BA8FDF7CDFB00F101000BA94FF0BA
:1029F0000A020A540BABB448B0F90020C4A19B48AA
:102A000009F0F8FF3DE44FF000000A9009E0BF49EB
:102A10000A98095C0BAA11540A9800F10100C0B28F
:102A20000A900A980A28F2DBA5480078C8B1A548A0
:102A30000078022815D14FF05F000BA98A4A12785E
:102A40008854B248FDF79DFB87490978884208D130
:102A50000BA8FDF796FB00F101000BA94FF00A024D
:102A60000A540BAAB6A1814809F0C4FF09E44FF04B
:102A700000000A9009E0A5490A98095C0BAA1154C4
:102A80000A9800F10100C0B20A900A980A28F2DB05
:102A90008B480078C8B18B480078012815D14FF0D9
:102AA0005F000BA9704A127888549848FDF769FBBB
:102AB0006D490978884208D10BA8FDF762FB00F147
:102AC00001000BA94FF00A020A54A948B0F90010FE
:102AD000A848B0F90000A84AB2F90020CDE90020CA
:102AE0000291A648B0F900300BAAA5A15F4809F0F1
:102AF00081FF7348007850B372480078032826D1CC
:102B00000BA8FDF73EFB00F121005749097800EBC7
:102B1000810056494FF020020A540BA8FDF731FB03
:102B200000F122005049097800EB81004F494FF035
:102B300020020A540BA8FDF724FB00F123004A49A8
:102B4000097800EB810049494FF020020A540DE456
:102B50008748B0F900008749B1F90010CDE90010AD
:102B60008548B0F900308548B0F900205749443114
:102B70003E4809F03FFF52480078D0B151480078F4
:102B8000022816D14FF02001374800784FF01F027D
:102B900002EB8000354A11543348007801EB800085
:102BA0001154314800784FF0210202EB80002F4A87
:102BB000115425E48048B0F900008049B1F90010B3
:102BC0007F4AB2F900207F4BB3F90030CDE90232E1
:102BD000CDE904106648B0F900006649B1F900106B
:102BE000CDE900106448B0F900306448B0F9002025
:102BF000364988311D4809F0FDFE31480078E8B1BA
:102C000030480078012819D14FF02001164800788B
:102C10004FF00E0202EB8000144A11541248007863
:102C20004FF00F0202EB8000104A11540E4800785A
:102C30004FF0100202EB80000C4A1154204800783B
:102C400080B12048007803280CD14FF020010648BD
:102C500000784FF0300202EB8000044A1154024821
:102C60000078B1E0BEE000005D000010E409001053
:102C7000BC000010B6000010B4000010B20000103C
:102C8000B000001020202045544845524E45543A8B
:102C90000A20D8EBFEE73A0A20253033752E25307E
:102CA00033752E253033752E253033750A20CFEE3F
:102CB000F0F22EF7F2E5EDE8FF20252D750000007B
:102CC000570000103C000010BE000010B04401008E
:102CD00020202045544845524E45543A0A20CFEE14
:102CE000F0F220F7F2E5EDE8FF20252D750A20CF60
:102CF000EEF0F220E7E0EFE8F1E820252D750A205C
:102D0000436F6D6D756E6974793A00001A0000109A
:102D100020202045544845524E45543A0A20CFEED3
:102D2000F0F220E7E0EFE8F1E820252D750A2043D6
:102D30006F6D6D756E6974793A0A20257300000015
:102D400020202045544845524E45543A0A20436FAE
:102D50006D6D756E6974793A0A2025730A20C0E496
:102D6000F0E5F1E0F22054524150204E31000000D5
:102D7000C6000010C4000010C2000010C000001007
:102D800020202045544845524E45543A0A20257388
:102D90000A20C0E4F0E5F1E0F22054524150204E08
:102DA000310A20253033752E253033752E253033EA
:102DB000752E253033750000CE000010CC000010B9
:102DC000CA000010C80000104FF0310202EB800072
:102DD000FF4A1154FF4800784FF0320202EB8000A6
:102DE000FB4A11545CE3FC48B0F90000FB49B1F91F
:102DF0000010CDE90010FA48B0F90030F948B0F9F8
:102E00000020F949F24809F0F5FDF8480078D0B102
:102E1000F7480078022816D14FF02001ED480078DD
:102E20004FF01F0202EB8000E94A1154E948007894
:102E300001EB80001154E74800784FF0210202EBCB
:102E40008000E34A11542BE3EA48B0F90000EA4954
:102E5000B1F90010E94AB2F90020E94BB3F90030AA
:102E6000CDE90232CDE90410DB48B0F90000DB49BE
:102E7000B1F90010CDE90010D948B0F90030D948B7
:102E8000B0F90020D8494431D14809F0B3FDD74802
:102E90000078E8B1D6480078012819D14FF0200118
:102EA000CC4800784FF00E0202EB8000C84A115463
:102EB000C84800784FF00F0202EB8000C44A11545A
:102EC000C44800784FF0100202EB8000C04A115451
:102ED000C6480078E8B1C6480078032819D14FF0F9
:102EE0002001BC4800784FF0300202EB8000B84A65
:102EF0001154B84800784FF0310202EB8000B44A18
:102F00001154B44800784FF0320202EB8000B04A0E
:102F10001154C5E2B748B0F90000B749B1F9001043
:102F2000CDE90010B548B0F90030B548B0F900203F
:102F3000AD498C31A64809F05DFDAC480078D0B1B0
:102F4000AB480078022816D14FF02001A148007844
:102F50004FF01F0202EB80009D4A11549D480078FB
:102F600001EB800011549B4800784FF0210202EBE6
:102F70008000974A115493E2A248B0F90000A24998
:102F8000B1F90010A14AB2F90020A14BB3F9003009
:102F9000CDE90232CDE904109648B0F90000964917
:102FA000B1F90010CDE900109448B0F90030944810
:102FB000B0F900208C49D031854809F01BFD8B48C1
:102FC0000078E8B18A480078012819D14FF0200133
:102FD000804800784FF00E0202EB80007C4A1154CA
:102FE0007C4800784FF00F0202EB8000784A1154C1
:102FF000784800784FF0100202EB8000744A1154B8
:103000007A480078E8B17A480078032819D14FF05F
:103010002001704800784FF0300202EB80006C4ACB
:1030200011546C4800784FF0310202EB8000684A7E
:103030001154684800784FF0320202EB8000644A75
:1030400011542DE26F48B0F900006F49B1F900103A
:10305000CDE900106D48B0F900306D48B0F900209E
:103060006C495B4809F0C6FC60480078D0B1604804
:103070000078022816D14FF02001564800784FF012
:103080001F0202EB8000524A11545248007801EBB3
:10309000800011544F4800784FF0210202EB80006D
:1030A0004B4A1154FCE15C48B0F900105B48B0F9A0
:1030B00000205B48B0F900005A4BB3F90030CDE96D
:1030C0000230CDE904214F48B0F900004E49B1F972
:1030D0000010CDE900104D48B0F900304C48B0F96F
:1030E00000204C4944313A4809F084FC3F480078BC
:1030F000E8B13F480078012819D14FF02001354848
:1031000000784FF00E0202EB8000314A1154314832
:1031100000784FF00F0202EB80002D4A11542D4829
:1031200000784FF0100202EB8000294A11542F481A
:103130000078E8B12E480078032819D14FF020011B
:10314000244800784FF0300202EB8000204A1154EE
:10315000204800784FF0310202EB80001C4A1154E5
:103160001C4800784FF0320202EB8000184A1154DC
:1031700096E12948B0F900002849B1F90010CDE9DD
:1031800000102748B0F900302648B0F9002026A1E9
:103190000F4809F02FFC15480078B8B114480078A2
:1031A000022863D14FF020010A4800784FF01F0237
:1031B00002EB8000064A11540648007801EB8000BB
:1031C0001154044800784FF021024BE04EE000001B
:1031D000E40900105D000010CE000010CC000010CB
:1031E000CA000010C8000010804501005700001000
:1031F0003C000010D6000010D4000010D2000010D7
:10320000D0000010DE000010DC000010DA0000101A
:10321000D800001098460100E6000010E4000010FD
:10322000E2000010E00000102020204554484552E4
:103230004E45543A0A20C0E4F0E5F1E0F220545241
:103240004150204E350A20253033752E25303375F8
:103250002E253033752E253033750A20C2DBD5CEAE
:10326000C400000002EB8000E64A115418E1E6A118
:10327000E44809F0BFFB13E1EC48007818B1AFF661
:1032800050400E9001E0EA480E90E848C078E749C7
:103290008978CDE90010E548407809900E980890AB
:1032A0000246E4A1D748099B09F0A4FBF8E0DF48F7
:1032B0000079DE49C978CDE90010DC4880780990B2
:1032C000DA48407808900246E8A1CE48099B09F008
:1032D00091FBE5E0D5484079D4490979CDE9001062
:1032E000D248C0780990D148807808900246ECA175
:1032F000C448099B09F07EFBD2E0CC488079CB49D9
:103300004979CDE90010C94800790990C748C078CB
:1033100008900246EEA1BB48099B09F06BFBBFE099
:10332000C248C079C1498979CDE90010BF484079C8
:103330000990BE48007908900246F0A1B148099B67
:1033400009F058FBACE0B948007AB849C979CDE931
:103350000010B64880790990B44840790890024638
:10336000F1A1A848099B09F045FB99E0AF48007A14
:103370000090AE48C0790990AC4880790890024628
:10338000F4A1A048099B09F035FB89E0FB48B0F99E
:1033900000000A2190FBF1F00246F9A1099099483A
:1033A00009F028FB7CE0F948B0F90000642190FBAB
:1033B000F1F201FB12000990F448B0F9000090FB13
:1033C000F1F008900246F2A18E48099B09F012FB29
:1033D00066E0F348B0F90020F2A18A4809F00AFB40
:1033E0005EE0F348B0F900000A2190FBF1F00246DC
:1033F000F0A10990834809F0FDFA51E0F0480088F7
:103400000A2190FBF1F201FB12000990EC480088C0
:1034100090FBF1F008900246EAA17A48099B09F076
:10342000E9FA3DE0EB48B0F90000FCF7F2FEEA49AA
:103430000690FCF7AEFE0790FCF7F4FE02460B4642
:10344000CDE90801E5A16F4809F0D4FA28E0E64883
:103450000288E6A16B4809F0CDFA21E0E248028833
:10346000ECA1684809F0C6FA1AE0DF480288F3A127
:10347000644809F0BFFA13E0FAA1624809F0BAFA09
:10348000FF4801780078401EFD4A107039B9FD48A8
:103490000078FD490870FD480078FD49087000BFBC
:1034A00000BF2DB000BD10B5FEF7D0F9F64800788A
:1034B000EF2811DDF4480078F6280DDA4FF0060009
:1034C000F44908704FF00202084601784D48FDF7B4
:1034D0005EFBFDF7B3FB18E04FF01000ED490870FC
:1034E0004FF00402084601784648FDF750FBE648D5
:1034F0000078FA2807DA4FF03E01E5480078414AA3
:1035000002EB00100170FDF786FF4FF0000408E0A9
:10351000E149095D084608F045F904F1010000B2EF
:103520000446B4F5806FF3DB10BDD948007830B1A4
:10353000D7480078A0F10100D549087005E0D248CD
:103540000078A0F10100D04908707047D048007899
:10355000032806D1CC48007800F10100CA49087060
:1035600005E0CB48007800F10100C94908707047B8
:10357000C7480078012806DDC5480078A0F10100A1
:10358000C349087005E0C0480078A0F10100BE49B9
:103590000870704710B50121642007F014F900216C
:1035A000662007F010F9C021682007F00CF9A82167
:1035B0006A2007F008F901216C2007F004F9F921CD
:1035C0006E2007F000F9FF21702007F0FCF8FF21C2
:1035D000722007F0F8F8FF21742007F0F4F80021BA
:1035E000762007F0F0F8C021A42007F0ECF8A8211D
:1035F000A62007F0E8F80121A82007F0E4F8FE2152
:10360000AA204BE1E40900102020204554484552EF
:103610004E45543A0A2045746865726E657420C23E
:10362000DBCACB0A20C2DBD5CEC40A00A805001035
:103630002022000020C3EB2EECE5EDFE2025730ACE
:1036400020F7E5F0E5E720252D75F1E5EA0A20E809
:10365000EDF2E5F0E2E0EB20252D75F1E5EA0A2038
:103660002025632055E2FBF50000000020F7E5F07F
:10367000E5E720252D75F1E5EA0A20E8EDF2E5F011
:10368000E2E0EB20252D75F1E5EA0A2020256320F4
:1036900055E2FBF50A202025632049E2FBF50000F6
:1036A00020E8EDF2E5F0E2E0EB20252D75F1E5EA0A
:1036B0000A202025632055E2FBF50A2020256320FF
:1036C00049E2FBF50A2020256320D0E2FBF500004B
:1036D000202025632055E2FBF50A202025632049A0
:1036E000E2FBF50A2020256320D0E2FBF50A20202A
:1036F00025632055F1E5F2E8000000002020256355
:103700002049E2FBF50A2020256320D0E2FBF50AE0
:10371000202025632055F1E5F2E80A2020256320CA
:1037200055E1E0F2000000002020256320D0E2FBFC
:10373000F50A202025632055F1E5F2E80A2020252E
:10374000632055E1E0F20A202025632049E1E0F200
:1037500000000000202025632055F1E5F2E80A2052
:103760002025632055E1E0F20A202025632049E16D
:10377000E0F20A20C2DBD5CEC400000036E007200C
:103780002055E2FBF50A20252D75420038E0072080
:103790002049E2FBF50A252D752E25303275C00033
:1037A0003CE007202050E2FBF50A252D6442F200A0
:1037B00012E0072055F1E5F2E80A252D75420000D8
:1037C0002EE007202055E1E0F20A252D752E252D4B
:1037D0007542000030E007200000C8422049E1E0C7
:1037E000F20A252E3266410058000010C2E2E5E4DC
:1037F000E8F2E520EFE0F0EEEBFC3A0A2020202092
:10380000202025303375200A202020202020202051
:103810002A0A0000C2E2E5E4E8F2E520EFE0F0EE7B
:10382000EBFC3A0A20202020202025303375200A86
:10383000202020202020202A0A000000C2E2E5E407
:10384000E8F2E520EFE0F0EEEBFC3A0A2020202041
:10385000202025303375200A2020202020202A0A0D
:10386000000000000A2020202020CFE0F0EEEBFC3A
:103870000A20202020EDE520E2E5F0E5ED210A0018
:103880005C0000103A000010390000103D000010EC
:103890003C00001019010010E405001006F093FF31
:1038A000A121A02006F08FFFA221084606F08BFF81
:1038B000A121C82006F087FFA221CA2006F083FFBD
:1038C0007021CC2006F03BFF7521CD2006F037FF9C
:1038D0006221CE2006F033FF6C21CF2006F02FFFAF
:1038E0006921D02006F02BFF6321D12006F027FFAD
:1038F0000021D22006F023FFC021EC2006F063FF58
:10390000A821EE2006F05FFF0121F02006F05BFF0A
:103910000221F22006F057FFC021F42006F053FFE9
:10392000A821F62006F04FFF0121F82006F04BFFFA
:103930000421FA2006F047FFC021FC2006F043FFD7
:10394000A821FE2006F03FFF0121080206F03BFF00
:1039500006214FF4817006F036FFC0214FF48270CB
:1039600006F031FFA8214FF4837006F02CFF0121EF
:103970004FF4847006F027FF08214FF4857006F09D
:1039800022FFC0214FF4867006F01DFFA8214FF4DE
:10399000877006F018FF01214FF4887006F013FFBE
:1039A00009214FF4897006F00EFF00214FF4E170F9
:1039B00006F009FF1E214FF4E27006F004FF032118
:1039C0004FF4E37006F0FFFE4FF0030004460BE0F7
:1039D0004FF4E17101EB440108462D2106F0F3FE9E
:1039E00004F10100C0B204460A2CF1DB10BD1FB582
:1039F000FF480078FF49097808442F2801F0038226
:103A000032DC83F00081DFE810F0730081009A005F
:103A1000B300CC00E500FE0017014E01F515F515C9
:103A2000F515F515F515F515F515F515F515F51546
:103A3000F515F5156B019201D6013E028D02C40207
:103A4000F515F515F515F515E3023E03BE03420421
:103A5000A9041005770500065E06BB06DA06140702
:103A600057078307C608E0083F2802F0C08314DC2C
:103A7000A0F130000F28C4D2DFE810F0DF091B0BE3
:103A80007A0BD90BF30B3C0D560D8A0EA40EC20F08
:103A9000DC0F1D1137115D1277124B2802F0AB8538
:103AA0000DDCA0F143000828ABD2DFE810F0C4130E
:103AB000EE13A31514144D14C5141A155F154F28D1
:103AC00002F0B8860ADC4C2802F0DA854D2802F0B4
:103AD0001C864E2843F0978002F05CBEFA2802F064
:103AE000C986FB2802F05887FC28F3D102F0F7BF03
:103AF000C1480088022807D1BF48008800F10100B2
:103B0000BD490880FFF722FD03F07DB8BB4800885F
:103B1000022807D1B948008800F10100B7490880A0
:103B2000FFF703FDB4480088022807D1B248008897
:103B300000F10100B0490880FFF708FDE4E7AF4855
:103B40000088022807D1AD48008800F10100AB4988
:103B50000880FFF7EAFCA8480088022807D1A64899
:103B6000008800F10100A4490880FFF7EFFCCBE7D3
:103B7000A2480088022807D1A048008800F101006F
:103B80009E490880FFF7D1FC9B480088022807D196
:103B90009948008800F1010097490880FFF7D6FC9A
:103BA000B2E796480088022807D19448008800F1BF
:103BB000010092490880FFF7B8FC8F48008802286E
:103BC00007D18D48008800F101008B490880FFF77C
:103BD000BDFC99E789480088022807D187480088FA
:103BE00000F1010085490880FFF79FFC82480088AA
:103BF000022807D18048008800F101007E49088032
:103C0000FFF7A4FC80E77D480088022807D17B48A5
:103C1000008800F1010079490880FFF786FC7648AA
:103C20000088022807D17448008800F10100724919
:103C30000880FFF78BFC67E770480088022807D1EF
:103C40006E48008800F101006C490880FFF76DFCA8
:103C500069480088022807D16748008800F1010000
:103C600065490880FFF772FC65480088022819D171
:103C70006348008800F10100614908805C480078D1
:103C8000604908705B4800785F4908704FF0FC009D
:103C9000574908704FF00000564908704FF0B800BF
:103CA0005A49088030E755480088022807D1534810
:103CB000008800F1010051490880FFF736FC5048A8
:103CC000008802280BD14E48008800F101004C49C1
:103CD00008804FF00000464908704649087013E715
:103CE00045480088022807D14348008800F10100B8
:103CF00041490880FFF72AFC41480088022815D175
:103D00003F48008800F101003D49088038480078AC
:103D10003F490870374800783E4908704FF001006D
:103D2000344908704FF0460031490870ECE63348DA
:103D30000088022810D13148008800F101002F4985
:103D400008802B480078152804D14FF0140028492A
:103D5000087001E0FFF70CFC27480088022807D113
:103D60002548008800F1010023490880FFF7EEFB99
:103D70002348008802281DD12148008800F1010055
:103D80001F4908801A4800782149087019480078AE
:103D9000204908704FF00100164908701E4800883D
:103DA00020B14FF028001249087003E04FF04200A4
:103DB0000F490870A8E611480088022807D10F486B
:103DC000008800F101000D490880FFF7D1FB0A4887
:103DD0000088022807D10848008800F10100064940
:103DE0000880FFF7B3FB0D48008802281CD017E0BD
:103DF000390000103C0000104E0000105000001070
:103E0000520000103A0000103D0000105A0000104F
:103E10003B0000103E0000109C0000104C00001001
:103E2000FF4800881E2812D14FF00300FC4908808B
:103E30004FF000004FF09403CDE9003002904FF0B6
:103E4000EE024FF01B010390084606F0F9FDF5481D
:103E50000088022803D0F34800881E2812D14FF0B2
:103E60000300F04908804FF000004FF09203CDE9C5
:103E7000003002904FF0EE024FF01B010390084615
:103E800006F0DEFD40E6E8480088022807D1E64853
:103E9000008800F10100E4490880FFF769FBE3486E
:103EA0000088022807D1E148008800F10100DF49BD
:103EB0000880FFF74BFBDA480088022803D0D84877
:103EC00000881E2812D14FF00300D54908804FF01A
:103ED00000004FF08403CDE9003002904FF0EE0275
:103EE0004FF01B010390084606F0AAFDCD4800885C
:103EF000022803D0CB4800881E2812D14FF00300BF
:103F0000C84908804FF000004FF08203CDE900302F
:103F100002904FF0EE024FF01B010390084606F0AE
:103F20008FFDF1E5C0480088022807D1BE4800880F
:103F300000F10100BC490880FFF71AFBBB4800886C
:103F4000022807D1B948008800F10100B74908806C
:103F5000FFF7FCFAB6480088022819D1B448008857
:103F600000F10100B2490880B2480078B2490870F7
:103F7000B2480078B24908704FF0FC00AD490870B3
:103F80004FF00000AD49087040F26930AD4908803B
:103F9000BAE5A5480088022807D1A348008800F1A7
:103FA0000100A1490880FFF7E3FAA1480088022830
:103FB0000DD19F48008800F101009D490880A2486A
:103FC00000789C490870A14800789C4908709BE5DE
:103FD00096480088022807D19448008800F1010023
:103FE00092490880FFF7B2FA8D480088022803D072
:103FF0008B48008805281ED14FF0030088490880AF
:1040000093480078FF280BD100200523CDE900302C
:104010000290EE221B210390084606F011FD0AE0F3
:1040200000200423CDE900300290EE221B210390F2
:10403000084606F005FD7B480088022803D0794831
:10404000008805281ED14FF003007649088081487A
:104050000078FF280BD100200323CDE90030029027
:10406000EE221B210390084606F0EAFC0AE000203D
:104070000223CDE900300290EE221B210390084676
:1040800006F0DEFC40E568480088022807D1664853
:10409000008800F1010064490880FFF769FA63486D
:1040A0000088022807D16148008800F101005F49BB
:1040B0000880FFF74BFA5A480088022803D0584876
:1040C000008805281ED14FF003005549088060483C
:1040D0000078FF280BD100202523CDE90030029085
:1040E000EE221B210390084606F0AAFC0AE00020FD
:1040F0002423CDE900300290EE221B2103900846D4
:1041000006F09EFC47480088022803D045480088F6
:1041100005281ED14FF00300424908804D48007821
:10412000FF280BD100202323CDE900300290EE229E
:104130001B210390084606F083FC0AE0002022239E
:10414000CDE900300290EE221B210390084606F0D4
:1041500077FC37480088022814D13548008800F1E0
:104160000100334908804FF000004FF02103CDE9F2
:10417000003002904FF0EE024FF01B010390084612
:1041800006F05EFCC0E428480088022807D12648D3
:10419000008800F1010024490880FFF7E9F923486D
:1041A0000088022807D12148008800F101001F493A
:1041B0000880FFF7CBF91A480088022803D0184876
:1041C000008805281ED14FF00300154908802048BB
:1041D0000078FF280BD100206523CDE90030029044
:1041E000EE221B210390084606F02AFC0AE000207C
:1041F0006423CDE900300290EE221B210390084693
:1042000006F01EFC07480088022803D005480088F5
:1042100005283BD14FF00300024908800D481BE000
:104220004C0000104A000010500000104E0000101A
:1042300052000010390000103B0000103C0000103C
:104240003E0000105A0000103A0000103D0000101F
:1042500045000010440000100078FF280BD100201A
:104260006323CDE900300290EE221B210390084623
:1042700006F0E6FB0AE000206223CDE90030029060
:10428000EE221B210390084606F0DAFB3CE4FF48CF
:104290000088022807D1FD48008800F10100FB4991
:1042A0000880FFF765F9FA480088022807D1F84826
:1042B000008800F10100F6490880FFF747F9F5484A
:1042C0000088022803D0F348008805281ED14FF04B
:1042D0000300F0490880F0480078FF280BD1002047
:1042E0005523CDE900300290EE221B2103900846B1
:1042F00006F0A6FB0AE000205423CDE9003002902E
:10430000EE221B210390084606F09AFBE348008842
:10431000022803D0E148008805281ED14FF0030091
:10432000DE490880DE480078FF280BD100205323A7
:10433000CDE900300290EE221B210390084606F0E2
:104340007FFB0AE000205223CDE900300290EE22EC
:104350001B210390084606F073FB08E4CB48008855
:10436000022807D1C948008800F10100C749088028
:10437000FFF7FEF8C6480088022807D1C448008825
:1043800000F10100C2490880FFF7E0F8C148008849
:10439000022803D0BF48008805281ED14FF0030033
:1043A000BC490880BC480078FF280BD10020352389
:1043B000CDE900300290EE221B210390084606F062
:1043C0003FFB0AE000203423CDE900300290EE22CA
:1043D0001B210390084606F033FBB04800880228F2
:1043E00003D0AE48008805281ED14FF00300AB492A
:1043F0000880AB480078FF280BD100203323CDE99B
:1044000000300290EE221B210390084606F018FBB4
:104410000AE000203223CDE900300290EE221B2179
:104420000390084606F00CFB05E498480088022833
:1044300007D19648008800F1010094490880FFF7F1
:1044400097F893480088022807D19148008800F126
:1044500001008F490880FFF779F88E48008802280C
:1044600003D08C48008805281ED14FF003008949ED
:10447000088089480078FF280BD100207523CDE9FA
:1044800000300290EE221B210390084606F0D8FA75
:104490000AE000207423CDE900300290EE221B21B7
:1044A0000390084606F0CCFA7C480088022803D026
:1044B0007A48008805281ED14FF00300774908800C
:1044C00077480078FF280BD100207323CDE9003016
:1044D0000290EE221B210390084606F0B1FA0AE092
:1044E00000207223CDE900300290EE221B210390C0
:1044F000084606F0A5FA19E464480088022807D1A6
:104500006248008800F1010060490880FFF730F838
:104510005F480088022807D15D48008800F101004B
:104520005B490880FFF712F85A480088022803D038
:10453000584800880F2827D14FF0050055490880BA
:10454000554800784FF00A0190FBF1F000F10100AE
:104550005449B1F9001088420EDA4F4800784FF004
:104560000A0190FBF1F000F101004E490988A1EB2E
:10457000000000B24B4908804A48B0F900000146EB
:104580000390162006F01FF944480088022803D043
:10459000424800880F2820D14FF005003F4908808D
:1045A0004048B0F9000044F6206188420DDA3C48EA
:1045B00000784FF00A0190FBF1F000F10100394959
:1045C0000988084400B2374908803648B0F900002D
:1045D00001460390162006F0F6F8334800880228BA
:1045E00012D13148008800F101002F4908802F487E
:1045F00040882F4908800846B0F900000146039022
:104600004FF0140006F0DFF83CE420480088022850
:1046100007D11E48008800F101001C490880FEF700
:10462000A7FF1B480088022807D11948008800F11D
:10463000010017490880FEF789FF16480088022804
:1046400012D14FF00500134908801A48007800285D
:104650000ADD0020D423CDE900300290EE221B2198
:104660000390084606F0ECF90C480088022829D18E
:104670004FF00500094908800E480078032821DA28
:104680000020D223CDE90030029015E05000001048
:104690004E0000104C000010450000104A000010B1
:1046A0004400001090000010520000101C12001076
:1046B0008C00001067000010EE221B2103900846BA
:1046C00006F0BEF92DE4F9480088022807D1F74822
:1046D000008800F10100F5490880FEF749FFF44821
:1046E0000088022807D1F248008800F10100F04953
:1046F0000880FEF72BFFEF48008802281DD14FF0FD
:104700000500EC490880EC48007858B90020E22305
:10471000CDE900300290EE221B210390084606F0FE
:104720008FF90AE00020E423CDE900300290EE2268
:104730001B210390084606F083F9E0480088022810
:104740001DD14FF00500DD490880DB48007858B9DD
:104750000020E223CDE900300290EE221B210390DD
:10476000084606F06DF90AE00020E423CDE90030A8
:104770000290EE221B210390084606F061F907E43F
:10478000CA480088022807D1C848008800F1010003
:10479000C6490880FEF7ECFEC948008802280DD102
:1047A000C748008800F10100C5490880C548007865
:1047B000C5490870C5480078C549087007E4BD4878
:1047C00000881E280DDDBD4800881E2809DDC1486F
:1047D000007830B9FEF7DEFE4FF00100BD490870E9
:1047E00026E0B7480088022816D1B548008800F1B5
:1047F0000100B3490880B8480088C8B14FF00000F4
:10480000B549088001464FF0640005F0DCFF4FF029
:104810004200AD4908700BE0A5480088022807D186
:10482000A348008800F10100A1490880FEF78EFE30
:1048300028E4A04800881E280DDDA04800881E2816
:1048400009DDA448007830B9FEF7A4FE4FF001005E
:10485000A04908702FE09A480088022812D19F488A
:10486000008820B14FF000009C49088003E04FF021
:1048700001009A4908809948B0F90010662005F0B7
:10488000A2FF18E089480088022808D187480088DC
:1048900000F1010085490880FEF76AFE0BE08448BC
:1048A0000088022807D18248008800F10100804971
:1048B0000880FEF74BFE65E47E4800881E280DDD6B
:1048C0007E4800881E2809DD8248007830B9FEF74E
:1048D00061FE4FF001007F49087018E073480088BE
:1048E000022808D17148008800F101006F49088052
:1048F000FEF73EFE0BE06E480088022807D16C48A8
:10490000008800F101006A490880FEF71FFE39E4C3
:104910006648008802280CD16448008800F1010034
:1049200062490880FEF724FE4FF000006C490870D1
:1049300030E15F48008802280CD15D48008800F112
:1049400001005B490880FEF701FE4FF0000064495A
:1049500008701FE15A4800880A280DD16048007885
:1049600000F101005E49087008460078032802DD66
:104970004FF0000008700DE14E480088022803D077
:104980004C48008832286AD14FF01E0049490880FF
:1049900053480078A8B95348008820B94FF0FF0069
:1049A0005049088006E04F480088A0F1010000B29D
:1049B0004C4908804B48B0F90010682005F003FF0F
:1049C000E8E047480078012815D14748008820B919
:1049D0004FF0FF004449088006E043480088A0F1FA
:1049E000010000B2404908803F48B0F900106A2039
:1049F00005F0E9FECEE03A480078022815D13B48A0
:104A0000008820B94FF0FF003849088006E0374899
:104A10000088A0F1010000B2344908803348B0F9A1
:104A200000106C2005F0CFFEB4E02D48007803287C
:104A300014D12F48008820B94FF0FF002C4908807E
:104A400006E02B480088A0F1010000B22849088048
:104A50002748B0F900106E2005F0B5FE9AE017481F
:104A60000088022803D01548008832281CD14FF056
:104A70001E00124908801A480078B0B91948008809
:104A8000FF2804D14FF000001649088006E01548C1
:104A9000008800F1010000B2124908801148B0F905
:104AA0000010682005F08FFE74E023E05000001035
:104AB0004E0000104C000010680000104A0000106A
:104AC000520000103B000010390000103E000010A2
:104AD0003C000010560000109C0000109E000010CA
:104AE0005D000010A0000010A2000010A400001043
:104AF000A6000010FD480078012816D1FC48008867
:104B0000FF2804D14FF00000F949088006E0F8487A
:104B1000008800F1010000B2F5490880F448B0F9BE
:104B200000106A2005F04FFE34E0F04800780228BB
:104B300016D1F0480088FF2804D14FF00000ED495D
:104B4000088006E0EB48008800F1010000B2E94966
:104B50000880E848B0F900106C2005F034FE19E038
:104B6000E2480078032815D1E3480088FF2804D1E3
:104B70004FF00000E049088006E0DF48008800F1BF
:104B8000010000B2DC490880DB48B0F900106E205B
:104B900005F019FE48E4D9480088022808D1D74812
:104BA000008800F10100D5490880FEF7E1FC0BE028
:104BB000D3480088022807D1D148008800F10100BD
:104BC000CF490880FEF7C2FC2EE4CC4800880228BA
:104BD0000CD1CA48008800F10100C8490880FEF7DE
:104BE000C7FC4FF00000C14908700BE1C4480088C1
:104BF00002280CD1C248008800F10100C049088099
:104C0000FEF7A4FC4FF00000B8490870FAE0BD4878
:104C100000880A280DD1B548007800F10100B34999
:104C2000087008460078032802DD4FF00000087085
:104C3000E8E0B5480088022803D0B348008832284D
:104C40006AD14FF01E00B0490880A8480078A8B982
:104C5000AE48008820B94FF0FF00AC49088006E05C
:104C6000AA480088A0F1010000B2A8490880A7481E
:104C7000B0F90010702005F0A6FDC3E09B48007855
:104C8000012815D1A248008820B94FF0FF00A049A3
:104C9000088006E09E480088A0F1010000B29C490F
:104CA00008809B48B0F90010722005F08CFDA9E047
:104CB0008E480078022815D19648008820B94FF018
:104CC000FF009449088006E092480088A0F10100A6
:104CD00000B2904908808F48B0F90010742005F0A8
:104CE00072FD8FE081480078032814D18A4800883B
:104CF00020B94FF0FF008849088006E08648008808
:104D0000A0F1010000B2844908808348B0F9001086
:104D1000762005F058FD75E080480088022803D011
:104D20007E48008832286DD14FF01E007B490880F4
:104D30006E480078B0B975480088FF2804D14FF05C
:104D400000007249088006E07048008800F1010008
:104D500000B26E4908806D48B0F90010702005F06F
:104D600032FD4FE061480078012816D1684800887C
:104D7000FF2804D14FF000006549088006E0644830
:104D8000008800F1010000B2614908806048B0F974
:104D90000010722005F017FD34E054480078022816
:104DA00016D15C480088FF2804D14FF00000594913
:104DB000088006E05748008800F1010000B255491C
:104DC00008805448B0F90010742005F0FCFC19E08C
:104DD00046480078032815D14F480088FF2804D1A1
:104DE0004FF000004C49088006E04B48008800F175
:104DF000010000B2484908804748B0F90010762009
:104E000005F0E1FC5EE43D480088022808D13B48FB
:104E1000008800F1010039490880FEF7A9FB0BE08A
:104E200037480088022807D13548008800F1010082
:104E300033490880FEF78AFB44E4304800880228A2
:104E40000CD12E48008800F101002C490880FEF7A3
:104E50008FFB4FF000002549087029E128480088A1
:104E600002280CD12648008800F10100244908805E
:104E7000FEF76CFB4FF000001C49087018E1214858
:104E800000880A280DD11948007800F1010017495F
:104E9000087008460078032802DD4FF00000087013
:104EA00006E119480088022803D0174800883228F4
:104EB00079D14FF01E00144908800C48007888BB57
:104EC0001748008820B94FF0FF001549088006E018
:104ED00013480088A0F1010000B211490880104871
:104EE000B0F90010A42005F06EFCE1E05D000010B8
:104EF000A2000010A4000010A60000105000001036
:104F00004E000010520000104C000010A8000010CD
:104F1000AA000010AC000010AE0000104A00001003
:104F2000B0000010FFE7FF480078012815D1FE48C7
:104F3000008820B94FF0FF00FB49088006E0FA48DE
:104F40000088A0F1010000B2F7490880F648B0F9E6
:104F50000010A62005F037FCAAE0F24800780228ED
:104F600015D1F248008820B94FF0FF00EF490880C2
:104F700006E0EE480088A0F1010000B2EB4908808D
:104F8000EA48B0F90010A82005F01DFC90E0E548C3
:104F90000078032815D1E648008828B94FF0FF00B3
:104FA000E349088007E00DE0E1480088A0F1010036
:104FB00000B2DF490880DE48B0F90010AA2005F0F1
:104FC00002FC75E0DB480088022803D0D94800883D
:104FD00032286DD14FF01E00D6490880D1480078A4
:104FE000B0B9D5480088FF2804D14FF00000D2495D
:104FF000088006E0D048008800F1010000B2CE49E8
:105000000880CD48B0F90010A42005F0DCFB4FE08B
:10501000C4480078012816D1C3480088FF2804D16D
:105020004FF00000C049088006E0BF48008800F14A
:10503000010000B2BC490880BB48B0F90010A620AE
:1050400005F0C1FB34E0B7480078022816D1B74814
:105050000088FF2804D14FF00000B449088006E022
:10506000B248008800F1010000B2B0490880AF48A2
:10507000B0F90010A82005F0A6FB19E0A9480078B7
:10508000032815D1AA480088FF2804D14FF000005A
:10509000A749088006E0A648008800F1010000B298
:1050A000A3490880A248B0F90010AA2005F08BFBA4
:1050B0002DE4A2480088022808D1A048008800F109
:1050C00001009E490880FEF753FA50E09C48008892
:1050D000022808D19A48008800F101009849088008
:1050E000FEF734FA43E097480088022803D0954839
:1050F0000088322819D14FF01E009249088092484A
:10510000008820B94FF0FF008F49088006E08E48E4
:105110000088A0F1010000B28B4908808A48B0F9EC
:105120000010C82005F04FFB21E0824800880228CB
:1051300003D080480088322819D14FF01E007D49E5
:10514000088081480088FF2804D14FF000007E4984
:10515000088006E07C48008800F1010000B27A492E
:1051600008807948B0F90010C82005F02CFB11E543
:1051700072480088022808D17048008800F10100B8
:105180006E490880FEF7F4F950E06D480088022867
:1051900008D16B48008800F1010069490880FEF7DA
:1051A000D5F943E067480088022803D065480088A5
:1051B000322819D14FF01E006249088063480088E8
:1051C00020B94FF0FF006149088006E05F48008881
:1051D000A0F1010000B25D4908805C48B0F9001000
:1051E000CA2005F0F0FA21E052480088022803D0D6
:1051F00050480088322819D14FF01E004D490880D0
:1052000052480088FF2804D14FF000004F49088021
:1052100006E04E48008800F1010000B24B490880CA
:105220004A48B0F90010CA2005F0CDFAB2E443486C
:105230000088022808D14148008800F101003F4958
:105240000880FEF795F90BE03D480088022807D159
:105250003B48008800F1010039490880FEF776F9E3
:1052600098E43648008802280CD13448008800F1C0
:10527000010032490880FEF77BF94FF00000294910
:10528000087036E12E48008802280CD12C4800888E
:1052900000F101002A490880FEF758F94FF000009C
:1052A0002049087025E12A4800880A2827D11D488E
:1052B000007800F101001B49087026480978405C1D
:1052C00070B94FF00001234A1648007800F1010040
:1052D00011541448007800F1CD00039005F02FFA26
:1052E00010480078401E1B49085C18B10D48007832
:1052F000072803DD4FF000000A490870F9E0114863
:105300000088022803D00F48008832287ED14FF051
:105310001E000C4908800F4802490978405C10BB08
:105320001AE000005D000010B2000010B400001090
:10533000B60000104A000010B0000010500000102D
:105340004E0000104C000010BC000010BE00001009
:10535000520000101A0000104FF07A00FA49FB4A80
:105360001278885449E0F848F8490978405C3028B8
:105370001ED1F6480078A0B14FF00000F249F34A80
:10538000127888540146F04AF048007800F1010094
:105390001154EE48007800F1CD00039005F0CFF9EC
:1053A0002BE04FF07A00E849E84A1278885424E06C
:1053B000E548E6490978405C412806D14FF03901BB
:1053C000E148E24A1278815417E0DF48DF49097862
:1053D000405C612806D14FF05A00DB49DB4A127865
:1053E00088540AE0D848D9490978405CA0F1010006
:1053F000C1B2D548D54A12788154D348D3490978E7
:10540000405C0390D1480078CC3000E004E002908A
:10541000039905F094F96CE0CD480088022803D088
:10542000CB480088322864D14FF01E00C84908805C
:10543000C548C6490978405C30B94FF03000C249D0
:10544000C24A1278885448E0BF48C0490978405C95
:10545000392806D14FF04100BB49BC4A1278885424
:105460003BE0B948B9490978405C5A2806D14FF069
:105470006100B549B54A127888542EE0B248B34964
:105480000978405C7A281ED1B0480078A0B14FF06E
:105490000000AD49AD4A127888540246AB48007806
:1054A00000F101000A54A948007800F1CD0011462E
:1054B000039005F044F910E04FF03000A249A34AF0
:1054C0001278885409E0A048A0490978405C00F1AE
:1054D00001009D499D4A127888549B489B49097850
:1054E000405C039099480078CC300290039905F015
:1054F00026F987E497480088022808D19548008853
:1055000000F1010093490880FEF732F80BE0924861
:105510000088022807D19048008800F101008E49D8
:105520000880FEF713F86DE48A48008802280CD141
:105530008848008800F1010086490880FEF718F8C5
:105540004FF000008149087021E18348008802285B
:105550000CD18148008800F101007F490880FDF7E7
:10556000F5FF4FF000007949087010E17B48008892
:105570000A280DD17548007800F1010073490870C0
:1055800008460078032802DD4FF000000870FEE0B6
:1055900073480088022803D07148008832286AD1F5
:1055A0004FF01E006E49088068480078A8B96D4821
:1055B000008820B94FF0FF006A49088006E069487A
:1055C0000088A0F1010000B2664908806548B0F982
:1055D0000010EC2005F0F7F8D9E05C4800780128CD
:1055E00015D16148008820B94FF0FF005E4908805E
:1055F00006E05D480088A0F1010000B25A49088029
:105600005948B0F90010EE2005F0DDF8BFE04F4832
:105610000078022815D15548008820B94FF0FF00C6
:105620005249088006E051480088A0F1010000B20C
:105630004E4908804D48B0F90010F02005F0C3F83D
:10564000A5E042480078032814D14948008820B9D1
:105650004FF0FF004649088006E045480088A0F169
:10566000010000B2424908804148B0F90010F22020
:1056700005F0A9F88BE036480088022803D03448AA
:10568000008832281CD14FF01E00314908802F4875
:105690000078B0B933480088FF2804D14FF00000EB
:1056A0003049088006E02F48008800F1010000B270
:1056B0002C4908802B48B0F90010EC2005F083F845
:1056C00065E022480078012816D127480088FF2885
:1056D00004D14FF000002449088006E022480088E9
:1056E00000F1010000B2204908801F48B0F9001005
:1056F000EE2005F068F84AE014480078022816D138
:105700001A480088FF2804D14FF00000174908808C
:1057100006E01648008800F1010000B21349088035
:105720001248B0F90010F02005F04DF82FE00748BE
:10573000007803282BD10E480088FF281AD14FF09B
:1057400000000B4908801CE01A0000105D000010EA
:105750004A000010500000104E00001052000010CF
:105760004C000010C0000010C2000010C400001067
:10577000C6000010FC48008800F1010000B2FA49A0
:105780000880F948B0F90010F22005F01CF88FE409
:10579000F6480088022808D1F448008800F101008A
:1057A000F2490880FDF7E4FE0BE0F148008802288A
:1057B00007D1EF48008800F10100ED490880FDF7AE
:1057C000C5FE75E4E948008802280CD1E748008846
:1057D00000F10100E5490880FDF7CAFE4FF0000026
:1057E000E44908700BE1E248008802280CD1E04847
:1057F000008800F10100DE490880FDF7A7FE4FF0A8
:105800000000DC490870FAE0DB4800880A280DD166
:10581000D848007800F10100D649087008460078A1
:10582000032802DD4FF000000870E8E0D34800884C
:10583000022803D0D148008832286AD14FF01E00D8
:10584000CE490880CB480078A8B9CD48008820B957
:105850004FF0FF00CA49088006E0C9480088A0F15F
:10586000010000B2C6490880C548B0F90010F42014
:1058700004F0A9FFC3E0BF480078012815D1C14852
:10588000008820B94FF0FF00BE49088006E0BD48FF
:105890000088A0F1010000B2BA490880B948B0F907
:1058A0000010F62004F08FFFA9E0B248007802282B
:1058B00015D1B548008820B94FF0FF00B2490880E3
:1058C00006E0B1480088A0F1010000B2AE490880AE
:1058D000AD48B0F90010F82004F075FF8FE0A5483E
:1058E0000078032814D1A948008820B94FF0FF00A0
:1058F000A649088006E0A5480088A0F1010000B292
:10590000A2490880A148B0F90010FA2004F05BFF1A
:1059100075E09F480088022803D09D4800883228FF
:105920006DD14FF01E009A49088092480078B0B9B6
:1059300093480088FF2804D14FF000009049088068
:1059400006E08F48008800F1010000B28C49088011
:105950008B48B0F90010F42004F035FF4FE0854883
:105960000078012816D187480088FF2804D14FF01D
:1059700000008449088006E08248008800F10100A8
:1059800000B2804908807F48B0F90010F62004F08A
:105990001AFF34E077480078022816D17A48008848
:1059A000FF2804D14FF000007749088006E07648D0
:1059B000008800F1010000B2734908807248B0F914
:1059C0000010F82004F0FFFE19E06A480078032870
:1059D00015D16E480088FF2804D14FF000006B49B4
:1059E000088006E06948008800F1010000B26749BC
:1059F00008806648B0F90010FA2004F0E4FE15E4CF
:105A00005A480088022808D15848008800F101004F
:105A100056490880FDF7ACFD0BE055480088022888
:105A200007D15348008800F1010051490880FDF773
:105A30008DFD15E44D48008802280CD14B480088A4
:105A400000F1010049490880FDF792FD4FF0000088
:105A5000484908702EE14648008802280CD1444885
:105A6000008800F1010042490880FDF76FFD4FF00A
:105A70000000404908701DE13F4800880A280DD108
:105A80003C48007800F101003A4908700846007867
:105A9000032802DD4FF0000008700BE13748008852
:105AA000022803D03548008832287BD14FF01E00F1
:105AB000324908802F480078A8B93648008820B9B4
:105AC0004FF0FF003349088006E032480088A0F11B
:105AD000010000B22F4908802E48B0F90010FC20C8
