:020000040000FA
:1000000038430010E1000000E5000000E7000000B8
:10001000E9000000EB000000ED000000000000001F
:10002000000000000000000000000000EF000000E1
:10003000F100000000000000F30000002D090000A6
:10004000F7000000F7000000F7000000F7000000D4
:10005000F7000000F7000000F7000000F7000000C4
:10006000F7000000F7000000F7000000F7000000B4
:10007000F7000000F7000000F7000000F7000000A4
:10008000F7000000F7000000F7000000F700000094
:10009000F7000000F7000000ED080000F700000086
:1000A000F7000000F1720000F7000000F700000008
:1000B0002B7F0000F7000000F7000000F7000000B1
:1000C000F7000000F7000000F7000000DFF80CD098
:1000D00007F0BCFF004800472B2A000038430010FF
:1000E00005480047FEE7FEE7FEE7FEE7FEE7FEE71E
:1000F000FEE7FEE7FEE7FEE7CD00000006280AD295
:10010000DFE800F003040506070804E003E002E06E
:1001100001E000E000BF00BF00BFFEE710B508F03F
:100120004FFE08F0ABFE08F09DFEAFF30080BDE887
:10013000104008F069BE10B509F028FC09F0DCFF9A
:10014000BDE8104009F07ABC09F08EBB09F056B941
:1001500009B10020704708F05BBD00207047000027
:1001600030B5504C2478A0420ED14F4CB4F9004029
:10017000A14209D14D4CB4F90040A24204D14C4CEB
:10018000B4F90040A3420BD0464C2070464C21806D
:10019000464C2280464C23804FF00104454D2C7084
:1001A00030BD4548006840F08060434908604148E0
:1001B000007878B10846C06940F08060C8614FF0AF
:1001C00001003E4908704FF000003D490880394960
:1001D000087066E033480078002862D03848B0F9EB
:1001E00000003149B1F9001088420DDA32488069C7
:1001F00040F08060304988613148008800F101009A
:1002000000B22F4908804CE02C4800782549097835
:10021000884224DA2448B0F900002449B1F90010DA
:1002200008442749B1F9001088420DDD2248C06911
:1002300040F080602049C8612148008800F1010039
:1002400000B21F4908802CE04FF000001C490880D4
:100250001A48007800F101001849087021E012489E
:10026000B0F900001249B1F9001008441449B1F97D
:10027000001088420DDD1048C06940F080600E49D2
:10028000C8610F48008800F1010000B20C490880E5
:1002900007E04FF000000A4908804FF001000749CD
:1002A00008707047390100103C0100103E01001039
:1002B000400100103801001000C009203A01001070
:1002C0004201001040EA01039B0703D009E008C97E
:1002D000121F08C0042AFAD203E011F8013B00F80B
:1002E000013B521EF9D270470146002000E0401C3D
:1002F0000A5C002AFBD1704770477047FFFFFFFF81
:100300004FF020008749086000BF8648006810F061
:10031000400FFAD04FF00300834908604FF40030DB
:100320008249C1F8A8014FF00000814908604FF0F0
:100330000100804908608048804908604FF0010052
:10034000A1F1040108604FF0AA007D4908604FF058
:1003500055007649C1F88C0000BF7848001D006840
:1003600010F0806FF9D04FF00300764908604FF02D
:10037000AA006E49C1F88C004FF055007049086022
:100380004FF02300704908604FF00100A1F1040113
:1003900008604FF0AA006D4908604FF055000860F2
:1003A00000BF6948001D006810F4806FF9D04FF05D
:1003B0000300674908604FF0AA005C49C1F8AC002F
:1003C0004FF05500614908606248634908604FF08A
:1003D00000005649C1F8C8010846D0F88800C0F3AB
:1003E0000160032868D15348006810F0030006D06C
:1003F000012823D002283FD003285CD100E000BFB1
:1004000056480068C0F30E0000F101004FEA4001B9
:100410004648D0F88800C0F3074000F10100B1FB66
:10042000F0F04F4900FB01F03F490968C9B201F102
:100430000101B0FBF1F04B4908603CE0474800681F
:10044000C0F30E0000F101004FEA40013748D0F838
:100450008800C0F3074000F10100B1FBF0F0424911
:1004600000FB01F030490968C9B201F10101B0FB9C
:10047000F1F03C4908601EE038480068C0F30E0007
:1004800000F101004FEA40012848D0F88800C0F38D
:10049000074000F10100B1FBF0F04FF4FA4100FB1E
:1004A00001F021490968C9B201F10101B0FBF1F085
:1004B0002C49086000BF2FE01E48006810F00300C0
:1004C00006D0012810D0022819D0032823D100E03B
:1004D00000BF15480068C0B200F101002049B1FB1F
:1004E000F0F02049086016E00F480068C0B200F143
:1004F00001001D49B1FBF0F01A4908600BE00A4801
:100500000068C0B200F101004FF4FA41B1FBF0F015
:100510001449086000BF00BF43F23A000349086075
:1005200070470000A0C10F4004C10F4000C00F4041
:10053000ACC10F400CC10F404F00030084C00F40FE
:100540008CC00F4080C00F40A4C00F40ACC00F4013
:10055000A0C00F4048F10041C4C00F4088C00F4008
:1005600000093D00200000108096980000EB8002FA
:10057000114600BFA1F101021100FBD170470146F5
:1005800000BFA1F101021100FBD170474FF0110033
:10059000FF49087270471FB5FE480078401CC0B282
:1005A000FC490870182802DB4FF000000870F94879
:1005B000007807287EDCF7480078C0EBC00000EB2D
:1005C0004000F54901EB800090F83100F1490978CD
:1005D000C1EBC10101EB4101EF4A02EB810191F84E
:1005E0003010EC4A1278C2EBC20202EB4202EA4B34
:1005F00003EB820292F82D20E64B1B78C3EBC3037A
:1006000003EB4303E44C04EB830393F82C30CDE974
:100610000032CDE90210DF480078C0EBC00000EBEB
:100620004000214601EB800090F828000346ED22AF
:10063000D8480178007806F05DFAD6480078D749A6
:10064000097888427EDAD3480078C0EBC00000EB1E
:100650004000214601EB8000C0780A2835DACD48F9
:100660000078C0EBC00000EB400001EB8000C078D8
:1006700000F10100C7490978C1EBC10101EB41015B
:10068000224602EB8101C870C2480078C0EBC0006E
:1006900000EB4000114601EB8000C0780A2820DB07
:1006A000BC480078C0EBC00000EB400001EB8000CC
:1006B000407800E058E010F0080F12D10122032129
:1006C000B448007803F021FF0BE04FF00A00B14975
:1006D0000978C1EBC10101EB4101AF4A02EB810195
:1006E000C870AC480078C0EBC00000EB4000AA49DD
:1006F00001EB8000C07803281FDBA6480078C0EB20
:10070000C00000EB400001EB80000079032814DA00
:10071000A0480078C0EBC00000EB400001EB800077
:10072000407900F101009B490978C1EBC10101EB5F
:100730004101994A02EB8101487196480078C0EB6B
:10074000C00000E028E000EB4000934901EB80008E
:10075000C07890490978C1EBC10101EB41018E4A93
:1007600002EB8101087167E08A480078082863D0AD
:100770008848007809285FD0864800780A280CD17C
:1007800000200090019002900346024603908148A9
:100790000178007806F0AEF94EE07E4800780C282B
:1007A0004AD07C4800780D2846D07A4800780E2838
:1007B00042D07848007814280CD100200090019095
:1007C000029003460246039072480178007806F0D2
:1007D00091F931E06F48007815280CD10020009085
:1007E000019002900346024603906A48017800781F
:1007F00006F080F920E06748007816280CD1002028
:1008000000900190029003460246039061480178EF
:10081000007806F06FF90FE05E48007817280BD1DA
:100820000020009001900290034602460390594830
:100830000178007806F05EF91FBD10B5682005F05C
:1008400088FE574908706A2005F083FE54494870B5
:100850006C2005F07EFE524988706E2005F079FE0E
:100860004F49C870702005F074FE4D49087272201F
:1008700005F06FFEC1B24A4841724FF0740005F0B6
:1008800068FEC1B2464881724FF0760005F061FE05
:10089000C1B24348C1724FF0A40005F05AFE40496E
:1008A0000871A62005F055FEC1B23D4841714FF0D8
:1008B000A80005F04EFEC1B2394881714FF0AA0080
:1008C00005F047FEC1B23648C17110BD10B509F040
:1008D00055FE4FF001003349087010BD0146002954
:1008E00002DA484200B270470846FCE72E4800682A
:1008F00020F0E0602C49086008464068C0F30B1007
:100900002A492B4A127821F812002948007800F170
:1009100001002749087008460078032805DA2248B4
:10092000006840F080702049086070474FF0010077
:10093000204908702048008800F1010000B21E49DB
:1009400008800A2807D14FF001001C4908704FF0B9
:100950000000194908801A480088401C00B2184954
:100960000880142807D14FF00100164908704FF095
:1009700000001349088014480088401C00B2124946
:100980000880642828D14FF00100104908701FE04A
:1009900000400240EC000010C80A001031000010B6
:1009A000FC400010600000100040034014010010E3
:1009B0000B01001059000010240000105A00001014
:1009C000260000105B000010280000105C000010E2
:1009D0004FF00000FF490880FF480088401C00B22B
:1009E000FD490880C82807D14FF00100FB49087075
:1009F0004FF00000F8490880F9480088401C00B218
:100A0000F7490880B0F5FA7F07D14FF00100F549AA
:100A100008704FF00000F2490880F3480088401C3D
:100A200000B2F1490880B0F57A7F07D14FF001009C
:100A3000EE4908704FF00000EB490880704710B590
:100A400080B913884FF6FF74A34203DA138803F1C9
:100A5000010313800B78FF2B08DA0B7803F10103F5
:100A60000B7003E04FF0000313800B7010BD58B9FA
:100A70000B78012B03DB4FF0FF0313700EE00B78B4
:100A800003F101030B7009E00B781BB94FF0000371
:100A9000137003E00B78A3F101030B70704780B96A
:100AA000137873B90B78012B03DB4FF0FF0313703E
:100AB0000DE00B78012B0ADA0B7803F101030B70C0
:100AC00005E00B781BB10B78A3F101030B707047A5
:100AD00010B518B1C64B1B78012B13D113788BB905
:100AE0000B78012B09DB4FF00F0313704FF000035D
:100AF000BF4C2370BF4C237032E00B7803F101032D
:100B00000B702DE018B1BB4B1B78012B14D113785F
:100B10001F2B11D10B78012B09DB4FF02F03137022
:100B20004FF00003B34C2370B14C237018E00B78E6
:100B300003F101030B7013E00B788BB180B10B78DC
:100B4000A3F101030B7013780F2B03D14FF01F0398
:100B5000137005E013782F2B02D14FF000031370B0
:100B600010BD30B590B001464FF00004204623463A
:100B70004FF0010422462FE04FEA0214A4F11004C2
:100B8000E4B2204621E0CC5C0A2C09D0CC5C3CB11C
:100B9000CC5C0DF8004003F10104E4B2234610E000
:100BA00000BF07E04FF020040DF8004000F1010401
:100BB000E4B2204614018442F4DC03F10104E4B2FF
:100BC000234600F10104E4B2204614018442DADC39
:100BD00002F10104E4B22246052ACDDB4FF0000405
:100BE000204606E01DF800400C5400F10104E4B278
:100BF00020464028F6DB10B030BDF0B54FF00005C0
:100C00002A4607E04FF000057B4EB55402F101057E
:100C10002DB22A4640F2FF35AA42F3DB4FF0000521
:100C20002A46F1E04FF000052C46CDE04FF01005CC
:100C300005FB0245714E735DBF2B06DDA3F1610517
:100C400005EB45054FEAC5000BE01F2B06DDA3F1C0
:100C5000200505EB45054FEAC50002E04FF0000511
:100C600028464FEA02254FF0080606FB0451644E61
:100C700000F10405775D0D4601F1010631465E4E37
:100C800077555F4E00F10605775D0D4601F10106CF
:100C90003146594E77555A4E00F10805775D0D469D
:100CA00001F101063146544E7755554E00F10A05C3
:100CB000775D0D4601F1010631464F4E7755504E96
:100CC00000F10C05775D0D4601F1010631464A4EF3
:100CD00077554B4E00F10E05775D0D4601F101068B
:100CE0003146454E7755464E00F11005775D0D466D
:100CF00001F101063146404E7755414E00F1120593
:100D0000775D0D4601F1010631463B4E77554FEABE
:100D100002254FF0080606FB045505F1800529461B
:100D2000374E00F10505775D0D4601F101063146AC
:100D3000314E7755324E00F10705775D0D4601F1D2
:100D4000010631462C4E77552D4E00F10905775D91
:100D50000D4601F101063146274E7755284E00F128
:100D60000B05775D0D4601F101063146224E7755A0
:100D7000234E00F10D05775D0D4601F10106314668
:100D80001D4E77551E4E00F10F05775D0D4601F1A2
:100D900001063146184E7755194E00F11105775D61
:100DA0000D4601F101063146134E7755144E00F100
:100DB0001305775D0D4601F1010631460E4E77555C
:100DC00004F101052DB22C46102CFFF62FAF02F1D5
:100DD000010517E0280000102A0000105D00001037
:100DE0002C0000105E0000102E0000105F000010AC
:100DF00008010010070100109A0500109A09001060
:100E0000E4A700002DB22A46042AFFF60BAFF0BD7E
:100E100000B5A9B04FF001000A90FF4800782228E1
:100E20007ED016DC14287CD006DC06285CD2DFE8F5
:100E300000F0305C8AB4F5F31F2873D004DC152869
:100E400071D01E2850D15EE120286DD02128F9D123
:100E5000D2E12D2869D00FDCA0F123000A28E5D2C9
:100E6000DFE810F05E0342004200420042009203BD
:100E7000AD03D403E703FA03FB287DD004DC2E285E
:100E80007BD0FA28DED1FEE3FC2877D0FF28D9D129
:100E9000FAE3E248B0F900000A2190FBF1F0099072
:100EA000DF48B0F90000642190FBF1F201FB120071
:100EB0000890DB48B0F9000090FBF1F00790D948AA
:100EC000B0F900000A2190FBF1F00690D649B1F983
:100ED0000020DDE90810CDE900120290D3A1E0481E
:100EE000DDE9062307F01CF9E2E2CC48B0F9000086
:100EF0000A2190FBF1F00990C948B0F90000642183
:100F000090FBF1F201FB12000890C548B0F9000017
:100F100090FBF1F00790D348B0F90010C24A05E009
:100F2000C7E2E6E01CE1E9E048E1BBE3B2F90020FA
:100F30000998CDE900200291CBA1C948DDE907233A
:100F400007F0EEF8D0E7D448B0F900000A2190FB92
:100F5000F1F201FB12000990CF48B0F9000090FBBC
:100F6000F1F00890AD48B0F9000090FBF1F0079067
:100F7000BC4AB2F9002002E0CDE3AAE3D2E3DDE906
:100F80000810CDE900210290A748B0F90020C3A1C4
:100F9000B348079B07F0C4F8E1E3CC48B0F9000080
:100FA000002802DA4FF0FF300A90C849B1F900106A
:100FB0000A984843642190FBF1F201FB120009906A
:100FC000C248B0F9000090FBF1F00890B248B0F9C7
:100FD00000000A2190FBF1F201FB12000790AE48DD
:100FE000B0F9000090FBF1F006908C48B0F90000D9
:100FF00090FBF1F00590DDE90623DDE90810CDE96D
:101000000023CDE902109748B0F90030B0A1944810
:10101000059A07F085F8A2E337E0FFE7AB48B0F99F
:101020000000002802DA4FF0FF300A90A749B1F91A
:1010300000100A984843642190FBF1F201FB120072
:101040000990A248B0F9000090FBF1F00890924896
:10105000B0F900000A2190FBF1F201FB12000790A9
:101060008D48B0F9000090FBF1F00690DDE9071221
:101070000998CDE9001202907A48B0F90020A1A1A8
:101080007748069B07F04CF869E39048B0F90000F8
:10109000002802DA4FF0FF300A908C49B1F90010B5
:1010A0000A984843642190FBF1F201FB1200099079
:1010B0008648B0F90010642091FBF0F00890764863
:1010C000B0F900100A2291FBF2F002FB1010079019
:1010D0007148B0F9000090FBF2F00690DDE90801DC
:1010E000CDE9000194A15E48DDE9062307F018F878
:1010F00035E39EA15A4807F013F830E3A8A15848F9
:1011000007F00EF82BE34648B0F90000642190FB8D
:10111000F1F201FB120009904148B0F9000090FB88
:10112000F1F008903F48B0F900000A2190FBF1F27D
:1011300001FB120007903B48B0F900100A2091FB18
:10114000F0F006903848B0F90020DDE908018DE89C
:1011500007009EA14248DDE9062306F0E1FFFEE21A
:101160002E48B0F900000A2190FBF1F201FB1200B9
:1011700009902A48B0F900100A2091FBF0F008907D
:101180002748B0F90000642190FBF1F201FB120046
:1011900007902348B0F9000090FBF1F00690224A36
:1011A000B2F90020DDE90810CDE90021029096A1F6
:1011B0002B48DDE9062306F0B3FFD0E21748B0F96B
:1011C00000000A2190FBF1F201FB12000990134884
:1011D000B0F9000090FBF1F008902248B0F900103F
:1011E0000998CDE900011048B0F9002095A11C48EC
:1011F000089B06F095FFB2E22748B0F900000A21EB
:1012000090FBF1F201FB120009902348B0F90000B5
:1012100090FBF1F008902FE1340000102EE0072041
:1012200054E0072052E0072058E007202055E2FB59
:10123000F53D252D75C20A2049E2FBF53D252D75AA
:101240002E25303275C00A2050E2FBF53D252D7564
:10125000C2F20A2055F1E5F2E83D252D75C20000E5
:101260009A09001056E007202049E2FBF53D252DA4
:10127000752E25303275C00A2050E2FBF53D252D34
:1012800075C2F20A2055F1E5F2E83D252D75C20A36
:1012900020743D25642743004AE007202050E2FBEC
:1012A000F53D252D75C2F20A2055F1E5F2E83D2500
:1012B0002D75C20A20743D252D6427430A2055E16F
:1012C000E0F23D252D752E252D7542004CE00720BE
:1012D0002055F1E5F2E83D252D75C20A20743D2523
:1012E0002D6427430A2055E1E0F23D252D752E257A
:1012F0002D75420A2049E1E0F23D252D642E25306E
:101300003275410020743D252D6427430A2055E1A4
:10131000E0F23D252D752E252D75420A2049E1E08C
:10132000F23D252D642E25303275410A20D3D1D2CD
:10133000C0CDCEC2CAC800002055E1E0F23D252D47
:10134000752E252D75420A2049E1E0F23D252D64D8
:101350002E25303275410A20D3D1D2C0CDCEC2CA9B
:10136000C80A20C2DBD5CEC4000000002020202007
:10137000D3D1D2C0CDCEC2CAC80A20C2FBE1EEF0A2
:1013800020E3EB2EECE5EDFE0A20C8EDF2E5F0EDF2
:10139000E5F20A20CAE0EBE8E1F0EEE2EAE0000064
:1013A00020202020D3D1D2C0CDCEC2CAC80A20C8A6
:1013B000EDF2E5F0EDE5F20A20CAE0EBE8E1F0EE4F
:1013C000E2EAE00A20C2DBD5CEC40000202020CA19
:1013D000C0CBC8C1D0CEC2CAC00A2055E2FBF53D81
:1013E000252D752E25303175C20A2049E2FBF53DC9
:1013F000252D752E25303275C00A2050E2FBF53DB3
:10140000252D75C2F2000000202020CAC0CBC8C123
:10141000D0CEC2CAC00A2049E2FBF53D252D752E6B
:1014200025303275C00A2050E2FBF53D252D75C2EE
:10143000F20A2055F1E5F2E83D252D752E253031D3
:1014400075C20000202020CAC0CBC8C1D0CEC2CAFD
:10145000C00A2050E2FBF53D252D75C2F20A205549
:10146000F1E5F2E83D252D752E25303175C20A20B3
:10147000743D256427430000F048B0F9000090FB5C
:10148000F1F201FB12000790EC48B0F9000090FB6C
:10149000F1F00690EA4AB2F90020DDE90810CDE942
:1014A00000210290E7A1F548DDE9062306F038FEA9
:1014B00055E1F348B0F90000002802DA4FF0FF30A0
:1014C0000A90EF49B1F900100A984843642190FB53
:1014D000F1F201FB12000990E948B0F9000090FB1D
:1014E000F1F00890E748B0F900000A2190FBF1F212
:1014F00001FB12000790E348B0F9000090FBF1F007
:101500000690DDE907120998CDE900120290CC4857
:10151000B0F90020DCA1D948069B06F001FE1EE1CF
:10152000D748B0F90000002802DA4FF0FF300A90E7
:10153000D349B1F900100A984843642190FBF1F2B5
:1015400001FB12000990CE48B0F9000090FBF1F0C9
:101550000890CC48B0F900000A2190FBF1F201FBA1
:1015600012000790C748B0F900100A2091FBF0F074
:101570000690DDE90801CDE90001D1A1BF48DDE910
:10158000062306F0CDFDEAE0DA48008810B1DAA0C3
:101590000B9001E0D9A00B90DA48008810B1D6A0DA
:1015A0000C9001E0D5A00C900C9809900B98089035
:1015B0000246D5A1B148099B06F0B2FDCFE0CD4867
:1015C000008810B1CCA00B9001E0CCA00B90CD48CE
:1015D000008810B1C8A00C9001E0C8A00C90D748BA
:1015E000B0F90000D649B1F90010D64AB2F900208E
:1015F000CDE9002102900C980990D348B0F9003051
:10160000D2A19E48099A06F08BFDA8E0CB48B0F91C
:101610000000CB49B1F90010CDE90010C948B0F97C
:101620000030C948B0F90020D7A1944806F078FDF1
:1016300095E0E448B0F90000E349B1F90010CDE9C4
:101640000010E248B0F90030E148B0F90020E1A113
:101650008A4806F065FD82E0EC48B0F90000EC49EC
:10166000B1F90010EB4AB2F90020EB4BB3F90030AE
:10167000CDE90232CDE90410D248B0F90000D249D8
:10168000B1F9001001E03FE053E0CDE90010CF4890
:10169000B0F90030CE48B0F90020E0A1774806F05C
:1016A0003FFD5CE0ED48B0F90010D848B0F900000B
:1016B000D74AB2F90020CDE900200291D548B0F90F
:1016C0000030D548B0F90020E5A16C4806F028FDAF
:1016D00045E0F248B0F90000E049B1F90010CB4A0A
:1016E000B2F90020CA4BB3F90030CDE90032CDE9A0
:1016F0000210C848B0F90030C748B0F90020E849E6
:101700005E4806F00DFD2AE0E6480288E6A15B4847
:1017100006F006FD23E0E3480288EDA1574806F0F5
:10172000FFFC1CE0DF480288F3A1544806F0F8FCF7
:1017300015E0DC480288FAA1504806F0F1FCFF48A9
:1017400001780078401EFD4A107039B9FC480078D5
:10175000FC490870FC480078FC49087000BF00BFD5
:1017600029B000BD10B5FFF753FB4448FFF7F9F966
:10177000F4480078FA2807DA4FF03E01F348007881
:101780003E4A02EB00100170FFF737FA4FF00004F9
:1017900008E0EF49095D084605F0F8FD04F1010095
:1017A00000B20446B4F5806FF3DB10BDE748007863
:1017B00030B1E6480078A0F10100E449087005E086
:1017C000E0480078A0F10100DE4908707047DF486A
:1017D0000078032806D1DB48007800F10100D949E0
:1017E000087005E0D948007800F10100D749087079
:1017F0007047D6480078012806DDD4480078A0F16B
:101800000100D249087005E0CE480078A0F101003F
:10181000CC490870704710B50121642005F02DF8FF
:101820000021662005F029F8C021682005F025F880
:10183000A8216A2005F021F801218BE12EE0072084
:1018400056E00720202020CAC0CBC8C1D0CEC2CAD3
:10185000C00A2055F1E5F2E83D252D752E253031E1
:1018600075C20A20743D256427430A2055E1E0F241
:101870003D252D752E252D75420000009A0900107A
:101880004CE007204AE00720202020CAC0CBC8C176
:10189000D0CEC2CAC00A20743D256427430A205511
:1018A000E1E0F23D252D752E252D75420A2049E1F6
:1018B000E0F23D252D642E253032754100000000F8
:1018C000202020CAC0CBC8C1D0CEC2CAC00A205571
:1018D000E1E0F23D252D752E252D75420A2049E1C6
:1018E000E0F23D252D642E25303275410A20C2DB01
:1018F000D5CEC40090000010C2CACB00C2DBCACB58
:1019000000000000920000102020204574686572DD
:101910006E65743A0A20C8EDF2E5F0EDE5F2202597
:10192000730A2044484350EAEBE8E5EDF2202573C2
:10193000204950E0E4F0E5F13A0000009A00001080
:101940009800001096000010940000102020204500
:10195000746865726E65743A0A2044484350EAEB35
:10196000E8E5EDF2202573204950E0E4F0E5F13A96
:101970000A20253033752E253033752E25303375EA
:101980002E253033750000002020204574686572D4
:101990006E65743A0A204950E0E4F0E5F13A0A2015
:1019A000253033752E253033752E253033752E2591
:1019B00030337520CCE0F1EAE020EFEEE4F1E5F21F
:1019C000E83A0000A2000010A00000109E000010E5
:1019D0009C00001020202045746865726E65743A82
:1019E0000A20CCE0F1EAE020EFEEE4F1E5F2E83A9B
:1019F0000A20253033752E253033752E253033756A
:101A00002E2530337520D8EBFEE73A00AA000010EF
:101A1000A8000010A6000010A400001020202045FF
:101A2000746865726E65743A0A20253033752E2508
:101A30003033752E253033752E2530337520D8EB95
:101A4000FEE73A0A20253033752E253033752E25D2
:101A50003033752E2530337500000000AC000010C7
:101A600020202045746865726E65743A0A20D8EBB0
:101A7000FEE73A0A20253033752E253033752E25A2
:101A80003033752E2530337520CFEEF0F22EF7F27D
:101A9000E5EDE8FF20252D7500000000AE000010E8
:101AA00000B7000052000010C2E2E5E4E8F2E520D1
:101AB000EFE0F0EEEBFC3A0A202020202020253039
:101AC0003375200A20202020202020202A0A000010
:101AD000C2E2E5E4E8F2E520EFE0F0EEEBFC3A0AE2
:101AE00020202020202025303375200A202020208F
:101AF0002020202A0A000000C2E2E5E4E8F2E52006
:101B0000EFE0F0EEEBFC3A0A2020202020202530E8
:101B10003375200A2020202020202A0A00000000FF
:101B20000A2020202020CFE0F0EEEBFC0A2020202D
:101B300020EDE520E2E5F0E5ED210A005600001079
:101B4000350000103400001038000010370000107D
:101B50009A0500106C2004F090FEF9216E2004F02C
:101B60008CFEFF21702004F088FEFF21722004F01B
:101B700084FEFF21742004F080FE0021762004F012
:101B80007CFEC021A42004F078FEA821A62004F049
:101B900074FE0121A82004F070FEFE21AA2004F0AA
:101BA0006CFEA121A02004F068FEA221084604F0EA
:101BB00064FE70214FF4B97004F05FFE75214FF49C
:101BC000BA7004F05AFE62214FF4BB7004F055FE67
:101BD0006C214FF4BC7004F050FE69214FF4BD70CD
:101BE00004F04BFE63214FF4BE7004F046FE20214A
:101BF0004FF4BF7004F041FE00214FF4C07004F0B8
:101C00003CFEFF21EC2004F038FEFF21EE2004F022
:101C100034FEFF21F02004F030FEFF21F22004F01A
:101C20002CFEFF21F42004F028FEFF21F62004F012
:101C300024FEFF21F82004F020FEFF21FA2004F00A
:101C40001CFEFF21FC2004F018FEFF21FE2004F002
:101C500014FEFF21481C04F010FEFF21C81C04F0F4
:101C60000CFEFF21481D04F008FEFF21C81D04F0F2
:101C700004FEFF214FF4847004F0FFFDFF214FF4B8
:101C8000857004F0FAFDFF214FF4867004F0F5FD35
:101C9000FF214FF4877004F0F0FDFF214FF48870AE
:101CA00004F0EBFDFF214FF4897004F0E6FD10BD58
:101CB00010B5F9480078F9490978084422287ED0FF
:101CC0001BDC08287CD006DC46D2DFE800F0394671
:101CD0005F7A96B3CCE515380D28F5D2DFE810F021
:101CE00030013D015F0196013C003C003C003C009E
:101CF0003C003C00B501C201F0012C287AD00EDC7A
:101D0000A0F123000928DFD2DFE810F00C02250241
:101D100083020803260026002703460372033028A7
:101D200069D006DC2D2867D02E287DD02F2813D12E
:101D3000E6E3FA2879D0FB2878D0FC28F7D1F0E345
:101D4000D7480088022807D1D548008800F1010053
:101D5000D3490880FFF73BFD5AE2D24800880228A9
:101D600007D1D048008800F10100CE490880FFF774
:101D70001DFDCB480088022807D1C948008800F122
:101D80000100C7490880FFF722FDE5E7C548008844
:101D9000022807D1C348008800F10100C14908802A
:101DA000FFF704FDBE480088022807D1BC48008820
:101DB00000F10100BA490880FFF709FDCCE798E17E
:101DC000A1E0B8480088022807D1B648008800F191
:101DD0000100B4490880FFF7E9FCB14800880228F7
:101DE00007D1AF48008800F10100AD490880FFF736
:101DF000EEFCB1E728E3FAE352E3AA4800880228A0
:101E000007D1A848008800F10100A6490880FFF723
:101E1000CDFCA348008802280BD1A148008800F11E
:101E200001009F49088002E089E3F3E3F3E3FFF751
:101E3000CEFC91E79B480088022807D1994800888A
:101E400000F1010097490880FFF7B0FC9448008832
:101E5000022807D19248008800F1010090490880CB
:101E6000FFF7B5FC78E78F480088022807D18D4836
:101E7000008800F101008B490880FFF797FC884833
:101E80000088022807D18648008800F101008449B3
:101E90000880FFF79CFC5FE782480088022807D192
:101EA0008048008800F101007E490880FFF77EFC31
:101EB0007B480088022807D17948008800F101009A
:101EC00077490880FFF783FC77480088022819D1FA
:101ED0007548008800F10100734908806E48007859
:101EE000724908706D480078714908704FF0FC0025
:101EF000694908704FF00000684908704FF0B80059
:101F00006C49088028E767480088022807D165489F
:101F1000008800F1010063490880FFF747FC624830
:101F2000008802280BD16048008800F101005E495A
:101F300008804FF0000058490870584908700BE7B6
:101F400057480088022807D15548008800F1010051
:101F500053490880FFF73BFCFEE652480088022800
:101F600010D15048008800F101004E4908804A48CD
:101F70000078152804D14FF014004749087001E09B
:101F8000FFF714FC46480088022807D1444800881F
:101F900000F1010042490880FFF719FCDCE64148E6
:101FA0000088022807D13F48008800F101003D4920
:101FB0000880FFF7FBFB3A480088022807D1384821
:101FC000008800F1010036490880FFF700FC364820
:101FD0000088022819D13448008800F101003249F4
:101FE00008802D480078344908702C48007833491F
:101FF00008704FF0FC00284908704FF00000274996
:10200000087040F269302B490880A5E62548008811
:10201000022807D12348008800F1010021490880E7
:10202000FFF7C4FB2048008802280DD11E48008815
:1020300000F101001C4908801C480078164908700E
:102040001B4800781549087086E615480088022864
:1020500007D11348008800F1010011490880FFF7FB
:10206000B6FB79E60F480088022807D10D480088A2
:1020700000F101000B490880FFF7BBFB084800880E
:10208000022807D10648008800F1010004490880B1
:10209000FFF79DFB60E600003400001037000010E1
:1020A0004A0000104C0000104E00001035000010D7
:1020B00038000010540000103600001039000010E5
:1020C000FF480088022807D1FD48008800F1010080
:1020D000FB490880FFF78DFBFA480088022807D1EA
:1020E000F848008800F10100F6490880FFF76FFB0F
:1020F00032E6F3480088022807D1F148008800F151
:102100000100EF490880FFF774FBEE4800880228C1
:1021100007D1EC48008800F10100EA490880FFF788
:1021200056FB19E6E6480088022807D1E4480088F3
:1021300000F10100E2490880FFF75BFBE1480088FD
:10214000022807D1DF48008800F10100DD4908803E
:10215000FFF73DFB00E6DA480088022807D1D8489F
:10216000008800F10100D6490880FFF742FBD548FE
:102170000088022807D1D348008800F10100D14926
:102180000880FFF724FBD0480088022803D0CE48FF
:10219000008805281AD14FF00300CB490880CB48AE
:1021A000B0F90000CA490978884208DDC7480088AC
:1021B000C7490978A0EB010000B2C4490880C348B0
:1021C000B0F900000146102004F057FBC148008818
:1021D000022803D0BF480088052819D14FF003001A
:1021E000BC490880B948B0F9000042F21071884239
:1021F00007DAB6480088B8490978084400B2B349FC
:102200000880B248B0F900000146102004F035FB08
:10221000FCE3AB480088022807D1A948008800F1F8
:102220000100A7490880FFF7E4FAA64800880228C1
:1022300007D1A448008800F10100A2490880FFF7F7
:10224000C6FAA1480088022803D09F4800880F28BA
:1022500026D14FF005009C4908809D4800784FF03A
:102260000A0190FBF1F000F101009C49B1F9001066
:1022700088420EDA964800784FF00A0190FBF1F0A0
:1022800000F1010095490988A1EB000000B29349D3
:1022900008809248B0F900000146162004F0EDFADB
:1022A0008C480088022803D08A4800880F281ED155
:1022B0004FF00500874908808848B0F90000B0F564
:1022C000FA5F0DDA844800784FF00A0190FBF1F0D4
:1022D00000F1010081490988084400B27F49088063
:1022E0007E48B0F900000146162004F0C6FA7C488A
:1022F0000088022811D17A48008800F1010078494D
:10230000088078484088784908800846B0F900007D
:1023100001464FF0140004F0B0FA77E368480088F3
:10232000022807D16648008800F10100644908804E
:10233000FFF75FFA6A48008802280DD168480088D4
:1023400000F1010066490880684800786849087013
:10235000684800786849087058E35B4800881E2880
:102360000DDD5C4800881E2809DD6448007830B91E
:10237000FFF751FA4FF00100604908700BE0514837
:102380000088022807D14F48008800F101004D491C
:102390000880FFF71CFA39E34B4800881E280DDD42
:1023A0004C4800881E2809DD5448007830B9FFF7F2
:1023B00032FA4FF001005149087018E04048008897
:1023C000022808D13E48008800F101003C490880FD
:1023D000FFF70FFA0BE03B480088022807D1394885
:1023E000008800F1010037490880FFF7F0F90DE39C
:1023F000354800881E280DDD364800881E2809DD76
:102400003E48007830B9FFF706FA4FF001003B492B
:10241000087018E02A480088022808D12848008857
:1024200000F1010026490880FFF7E3F90BE0254899
:102430000088022807D12348008800F101002149C3
:102440000880FFF7C4F9E1E21F4800881E280DDD6F
:10245000204800881E2809DD2848007830B9FFF799
:10246000DAF94FF001002549087018E01448008897
:10247000022808D11248008800F1010010490880A4
:10248000FFF7B7F90BE00F480088022807D10D4885
:10249000008800F101000B490880FFF798F9B5E2C8
:1024A000094800881E282FDD0A4800881E282BDDD9
:1024B0001248007840BBFFF7AEF94FF0010020E072
:1024C0004C0000104A000010480000107C00001072
:1024D0004100001046000010400000108400001071
:1024E0004E000010B81200108000001036000010DE
:1024F00034000010390000103700001050000010A8
:1025000049E0FF49087019E0FE480088022809D117
:10251000FC48008800F10100FA490880FFF769F9DA
:102520000CE0C8E1F8480088022807D1F648008886
:1025300000F10100F4490880FFF749F966E2F34829
:1025400000881E280DDDF24800881E2809DDEC48B1
:10255000007830B9FFF75FF94FF00100E8490870E3
:1025600018E0E8480088022808D1E648008800F111
:102570000100E4490880FFF73CF90BE0E2480088DD
:10258000022807D1E048008800F10100DE490880F8
:10259000FFF71DF93AE2DD4800881E280DDDDC4812
:1025A00000881E2809DDD648007830B9FFF733F9D6
:1025B0004FF00100D249087018E0D2480088022884
:1025C00008D1D048008800F10100CE490880FFF70B
:1025D00010F90BE0CC480088022807D1CA480088CF
:1025E00000F10100C8490880FFF7F1F80EE2FFE7AB
:1025F000C64800881E280FDDC54800881E280BDD50
:10260000BF48007840B9FFF706F94FF00100BC4918
:1026100008701AE01AE0ABE0BA480088022808D136
:10262000B848008800F10100B6490880FFF7E1F8DA
:102630000BE0B5480088022807D1B348008800F1B4
:102640000100B1490880FFF7C2F8DFE1AF48008818
:1026500002280BD1AD48008800F10100AB49088089
:10266000AC48007800F10100AA490870A54800882C
:1026700002281CD1A348008800F10100A14908806C
:10268000A54800884FF00A0190FBF1F201FB12000F
:10269000092806D1A0480088A0F109009E490880B9
:1026A00005E09D48008800F101009B49088096489C
:1026B000008802281BD19448008800F1010092494B
:1026C0000880954800884FF00A0190FBF1F201FB69
:1026D000120030B99048008800F109008E49088046
:1026E00005E08D480088A0F101008B4908808B48E7
:1026F000008802283BD18948008800F10100874901
:102700000880874800888449098888420CD182481B
:102710000088B82808D14FF014007E4908704FF0A7
:102720000100804908701CE07D4800887A490988CA
:1027300088420ED178480088A0F54071693908D1E7
:102740004FF01E00734908704FF001007549087082
:1027500007E04FF0FF006F4908704FF00400724926
:1027600008704FF000006E4908806B4908804DE109
:102770006648008802280BD16448008800F10100F7
:10278000624908806348007800F1010061490870DF
:102790005F48008802280BD15D48008800F10100E5
:1027A0005B4908805B480078A0F101005949087036
:1027B0005448008802281CD15248008800F10100CA
:1027C00050490880544800884FF0640190FBF1F2B2
:1027D00001FB12005A2806DB4F480088A0F15A007E
:1027E0004D49088005E04C48008800F10A004A493C
:1027F00008804548008802281CD14348008800F121
:10280000010041490880444800884FF0640190FB72
:10281000F1F201FB12000A2806DA3F48008800F1B5
:102820005A003D49088005E03B480088A0F10A00B5
:10283000394908803948008802283BD13748008848
:1028400000F101003549088035480088324909887F
:1028500088420CD130480088B82808D14FF01400C5
:102860002C4908704FF001002E4908701CE02C48DC
:1028700000882949098888420ED127480088A0F598
:102880004071693908D14FF01E00224908704FF09D
:1028900001002449087007E04FF0FF001D4908704F
:1028A0004FF00400204908704FF000001C490880D8
:1028B00019490880AAE01648008802280BD114485C
:1028C000008800F101001249088012480078A0F148
:1028D0000100104908700B480088022834D10948CB
:1028E000008800F10100074908800B4800884FF478
:1028F0007A7190FBF1F201FB1200B0F5617F15E0F7
:10290000500000104C0000104A0000104800001059
:102910004600001034000010520000104E0000105D
:1029200054000010370000105600001006DBFF486E
:102930000088A0F56170FD49088005E0FB4800882B
:1029400000F16400F9490880F948008802281CD188
:10295000F748008800F10100F5490880F348008835
:102960004FF47A7190FBF1F201FB1200642806DA51
:10297000EE48008800F56170EC49088005E0EB48FE
:102980000088A0F16400E9490880EA48008802282C
:102990003BD1E848008800F10100E6490880E6489C
:1029A0000088E249098888420CD1E0480088B828AC
:1029B00008D14FF01400E14908704FF00100E049E0
:1029C00008701CE0DC480088D849098888420ED18C
:1029D000D6480088A0F54071693908D14FF01E0033
:1029E000D64908704FF00100D549087007E04FF054
:1029F000FF00D24908704FF00400D24908704FF030
:102A00000000CD490880C949088000BF00BFCE48FA
:102A1000007848B1CD48008830B9CD48008818B951
:102A20004FF00000C849087010BD1CB5C9A103C90A
:102A3000CDE90001FDF764FCC84800684FF47A72E4
:102A4000B0FBF2F0A0F10101B1F1807F00D327E0EB
:102A500021F07F40A0F101004FF0E02250614FF0E3
:102A6000FF304FF01F0200280ADA4FEAC2634FEA34
:102A70001363BB4C00F00F05A5F10405635505E099
:102A80004FEAC2634FEA1363B64C235400BF4FF0C2
:102A900000004FF0E02290614FF00700106100BF8E
:102AA000B148006A40F48010AF4908620846006AE5
:102AB00020F0805008620846006C20F00100086495
:102AC000AA48006D6FF30900A84908650846006D23
:102AD00020F0030008650846006D20F00C00086532
:102AE0000846006D20F0300008650846006D20F0B3
:102AF000C00008650846006D20F4407008659C48D9
:102B0000FDF73DFD00F04FFD4FF4AF7003F06DFD9C
:102B100098490860084600788DF805000846407816
:102B20008DF80400084680788DF803000622694677
:102B3000914806F003FB8C48406B80F480108A4972
:102B400048634FF0CC0003F0B6FC8C49087008468F
:102B5000007818B108460078202803D14FF0000013
:102B600086490870CD2003F0A6FC844948700846C9
:102B7000407818B108464078202803D14FF0000073
:102B80007E494870CE2003F096FC7C498870084648
:102B9000807818B108468078202803D14FF00000D3
:102BA00076498870CF2003F086FC7449C8700846C7
:102BB000C07818B10846C078202803D14FF0000033
:102BC0006E49C870D02003F076FC6C490871084645
:102BD000007918B108460079202803D14FF0000091
:102BE00066490871D12003F066FC644948710846C3
:102BF000407918B108464079202803D14FF00000F1
:102C00005E494871D22003F056FC5C498871084641
:102C1000807918B108468079202803D14FF0000050
:102C200056498871D32003F046FC5449C8710846C0
:102C3000C07918B10846C079202803D14FF00000B0
:102C40004E49C871D42003F036FC4C49087208463E
:102C5000007A18B10846007A202803D14FF000000E
:102C600046490872D52003F026FC444948720846BC
:102C7000407A18B10846407A202803D14FF000006E
:102C80003E494872D62003F016FC3C49887208463B
:102C9000807A18B10846807A202803D14FF00000CE
:102CA00036498872D72003F006FC3449C8720846BA
:102CB000C07A18B10846C07A202803D14FF000002E
:102CC0002E49C872D82003F0F6FB2C490873084639
:102CD000007B18B10846007B202803D14FF000008C
:102CE00026490873D92003F0E6FB244948730846B7
:102CF000407B18B10846407B202803D14FF00000EC
:102D00001E494873DA2003F0D6FB1C498873084635
:102D1000807B18B10846807B202803D14FF000004B
:102D200016498873DB2003F0C6FB29E0520000102F
:102D30004A0000104E000010540000103400001033
:102D4000370000105600001050000010480000101E
:102D500046000010007305323C46000020000010C1
:102D600018ED00E000E400E000C0092000C00240CF
:102D7000809698008C0000101000001016000010C3
:102D8000F549C8730846C07B18B10846C07B2028A7
:102D900003D14FF00000F049C87304F0C1FB0220DA
:102DA00004F00FFB4FF02800EC4908704FF00100D1
:102DB000EB490870CFE1EB48007828B14FF00000F4
:102DC000E849087000F067FCE7480078F0B34FF07E
:102DD0000000E5490870E548006A80F48010E34986
:102DE0000862FDF7DEF903F02DFAE049496DC1F301
:102DF00040010846DE4ADF49FDF721FEDB49496D07
:102E000001F001010846DC4ADC49FDF718FED7490C
:102E1000496DC1F3C0010846D94ADA49FDF70FFEF2
:102E2000D249496DC1F380010846D74AD749FDF719
:102E300006FECE49496DC1F300110846D44AD54972
:102E4000FDF7FDFDCA48008868B900E015E0CA48F2
:102E5000008840B9CC48008828B9C948008810B912
:102E6000CB48008848B1FEF723FF4FF00100CA4964
:102E700008704FF00000C9490880C948007840B187
:102E80004FF00000C6490870C648007808B1FDF749
:102E900082FBC548007800287ED04FF00000C24970
:102EA0000870B248406B80F48010B049486300F06D
:102EB0008BF9BE48B0F90000022802DD072000F0BF
:102EC000F1FCFDF703FD06F00BF9B9480078002886
:102ED000E2D0B7480078A0F10100B5490870084673
:102EE0000078002858D1CC2003F0E5FA9A49087000
:102EF000CD2003F0E0FA984948700846407818B1B0
:102F000008464078202803D14FF0000092494870CD
:102F1000CE2003F0D0FA904988700846807818B126
:102F200008468078202803D14FF000008A49887035
:102F3000CF2003F0C0FA8849C8700846C07818B19D
:102F40000846C078202803D14FF000008249C8709D
:102F5000D02003F0B0FA804908710846007918B112
:102F600008460079202803D14FF000007A49087103
:102F7000D12003F0A0FA784948710846407918B189
:102F800008464079202803D14FF00000724948716B
:102F9000D22003F090FA00E0AFE06F498871084654
:102FA000807918B108468079202803D14FF00000BD
:102FB00069498871D32003F07EFA6749C8710846D1
:102FC000C07918B10846C079202803D14FF000001D
:102FD0006149C871D42003F06EFA5F49087208464F
:102FE000007A18B10846007A202803D14FF000007B
:102FF00059490872D52003F05EFA574948720846CD
:10300000407A18B10846407A202803D14FF00000DA
:1030100051494872D62003F04EFA4F49887208464B
:10302000807A18B10846807A202803D14FF000003A
:1030300049498872D72003F03EFA4749C8720846CA
:10304000C07A18B10846C07A202803D14FF000009A
:103050004149C872D82003F02EFA3F490873084648
:10306000007B18B10846007B202803D14FF00000F8
:1030700039490873D92003F01EFA374948730846C6
:10308000407B18B10846407B202803D14FF0000058
:1030900031494873DA2003F00EFA2F498873084645
:1030A000807B18B10846807B202803D14FF00000B8
:1030B00029498873DB2003F0FEF92749C8730846C5
:1030C000C07B18B10846C07B202803D14FF0000018
:1030D0002149C8734FF000001F4908744FF0C80021
:1030E00003F037FA33490880CA2003F032FA324934
:1030F000088005F035FEFDF7A0FB3048007868B188
:103100004FF000002D49087001F0E2F800F024FFB4
:1031100000F0A8F800F077FB01F040FC1E480078B2
:1031200028B14FF000001C490870FEF71BFB244833
:10313000007880B14FF00000214908701B48B0F9B9
:103140000000B0F57A7F06DA1848008800F1010027
:1031500000B2164908802EE6160000103400001058
:1031600037000010590000105A00001000C009205C
:103170004600001040000010480000104100001000
:103180004C000010430000104A00001042000010E4
:103190004E000010440000105E0000102C000010D3
:1031A0005B000010640000105C00001000010010C3
:1031B00058000010D8A70000DAA700005D0000103A
:1031C0005F0000107047704710B5FF48B0F900006D
:1031D000B4280CDAFD48B0F90000032807DDFC48EC
:1031E0000088A0F1010000B2F949088006E0F84823
:1031F000008800F1010000B2F5490880F448B0F9F8
:10320000000010F10A0F03DA6FF00900F04908809E
:10321000EF48B0F900000A2803DD4FF00A00EC493E
:103220000880EB48B0F9000010F1050F0ADAE94810
:10323000007838B9012001F007F94FF00000E649A5
:1032400008800EE0E248B0F90000052809DDE148F9
:10325000007830B1002001F0F7F84FF00100DE49AE
:10326000088010BD10B54FF007021046C0EBC00239
:1032700002EB4202D94B03EB8202D278052A7EDAB6
:10328000C0EBC00202EB420203EB82029379C0EB77
:10329000C00202EB4202D14C04EB8202D27903EB72
:1032A0000222C0EBC00303EB430304EB83031A6267
:1032B000C0EBC00202EB4202234603EB8202137A08
:1032C000C0EBC00202EB420204EB8202527A03EB33
:1032D0000222C0EBC00303EB430304EB8303DA6178
:1032E000C0EBC00202EB4202234603EB8202937A58
:1032F000C0EBC00202EB420204EB8202D27A03EB83
:103300000222C0EBC00303EB430304EB83039A6187
:10331000C0EBC00202EB4202234603EB8202127BA7
:10332000C0EBC00303EB430304EB83035A62C0EB1F
:10333000C00202EB4202234603EB8202527BC0EB47
:10334000C00303EB430304EB830383F85220C0EB79
:10335000C00202EB4202234603EB8202927BC0EBE7
:10336000C00303EB430304EB830383F83E20C0EB6D
:10337000C00202EB4202234603EB820200E011E0AE
:10338000137CC0EBC00202EB420204EB8202527CCF
:1033900003EB0222C0EBC00303EB430304EB830304
:1033A000DA642DE04FF00002C0EBC00303EB4303EF
:1033B0008A4C04EB83039A61C0EBC00303EB430325
:1033C00004EB83031A62C0EBC00303EB430304EB7B
:1033D0008303DA61C0EBC00303EB430304EB830315
:1033E0005A62C0EBC00303EB430304EB830383F88F
:1033F0003E20C0EBC00303EB430304EB8303DA641A
:10340000C0EBC00202EB4202744B03EB82029269F2
:1034100040F26C739A421ADDC0EBC00202EB42022A
:103420006E4B03EB82029269B2F5166F0FDCC0EBB4
:10343000C00202EB420203EB82029269A2F26C72BA
:103440004FF0320392FBF3F2654B1A7013E0C0EBBE
:10345000C00202EB4202614B03EB82029269B2F5B9
:10346000166F04DD4FF00A025D4B1A7003E04FF057
:1034700000025B4B1A705A4A12780A2A03DD4FF099
:103480000A02574B1A70C0EBC00202EB4202534BC8
:1034900003EB820292694FF00A0392FBF3F212B23D
:1034A000504B1A80C0EBC00202EB42024B4B03EBC5
:1034B0008202126A002A1ADDC0EBC00202EB42024D
:1034C00003EB8202126A9B2A11DCC0EBC00202EB02
:1034D000420203EB8202126A02EB82024FEA4202CC
:1034E0004FF0960392FBF3F23F4B1A7012E0C0EBE1
:1034F000C00202EB4202394B03EB8202126A9B2AA2
:1035000004DD4FF00002384B1A7003E04FF0000268
:10351000354B1A70344A12780A2A03DD4FF00A023A
:10352000314B1A70C0EBC00202EB42022B4B03EB93
:103530008202126A12B22D4B1A80C0EBC00202EB5B
:103540004202264B03EB8202526A12B2284B1A80C7
:10355000284AB2F900201146274AB2F9002001FB9F
:1035600002F14FF4C85291FBF2F211460AB2234B1A
:103570001A80204AB2F902201146214AB2F90020ED
:10358000A1EB020211461F4AB2F9002001FB02F131
:103590004FF47A7291FBF2F21146C1F1000212B2BD
:1035A000194B1A8010BD1948406820F4403040F48F
:1035B0008030164948600846406820F4404040F496
:1035C00080404860084623E02EE0072000010010FC
:1035D00032000010ED00001030E00720C80A001093
:1035E0006100001052E007206200001054E0072044
:1035F00056E00720B81200107C0000104AE00720B7
:1036000080000010840000104CE0072000C0024041
:10361000C06840F04040C8600846406C20F440302C
:1036200040F4003048640846406C20F4404040F4C8
:10363000004048640846C06C20F0404040F0004024
:10364000C864FF48006820F0E060FD490860084653
:10365000006840F4001008600846006820F48030DC
:1036600008600846006820F47F4040F480700860DD
:103670004FF48070C8604FF016004FF0010101FA5E
:1036800000F14FEA50124FF0E02303EB8202C2F840
:10369000001100BF704710B5EA494988E94A12880D
:1036A000891A09B20846FDF719F9E7490880E54982
:1036B0008988E44A5288891A09B20846FDF70EF94A
:1036C000E1494880DF498988DE4A1288891A09B2AF
:1036D0000846FDF703F9DC4988800846B0F9040084
:1036E000B0F5967F04DAD7488088D849088014E07E
:1036F000D548B0F90200B0F5967F04DAD148408889
:10370000D249088009E0D048B0F90000B0F5967FB2
:1037100003DACC480088CD490880CC48B0F90000D5
:10372000CB49CC4A127801EB8211CB4A127841F88E
:103730002200C948007810F0030F1CD14FF000029E
:10374000114610460CE0C24AC24B1B7802EB8312B2
:1037500052F820200A44114600F10102D2B210466C
:103760001028F0DB4FEA211212B2BC4BB94C24787E
:1037700023F8142000BFB7480078401CC0B2B549F8
:10378000087003280FDB4FF000000870B248007883
:1037900000F10100B049087008460078102802DBEB
:1037A0004FF0000008704FF00000AD490870A948C4
:1037B000007840B9A248006820F0FF0000F1010045
:1037C0009F49086018E0A3480078012808D19C4868
:1037D000006820F0FF0000F10200994908600BE04A
:1037E0009C480078022807D19548006820F0FF0027
:1037F00040F02000924908609148006840F08070D5
:103800008F49086010BD9748006A40F40000954950
:103810000862954890F84D0210F01F0F0FD09348A2
:10382000008800F1010000B2904908800846B0F914
:103830000000322812DD4FF0320008800EE08B4885
:103840000088A0F1010000B2884908800846B0F95C
:103850000000002802DA4FF0000008808348B0F929
:103860000000302804DD4FF001008149087008E0B5
:103870007E48B0F90000022803DA4FF000007C49CE
:1038800008707B48007830B17648C06B40F4000087
:103890007449C86305E07348806B40F400007149C7
:1038A0008863704770B50446C4EBC40000EB400069
:1038B0006D4901EB800090F83E000546C4EBC40062
:1038C00000EB400001EB8000006A6E284CDBC4EB8B
:1038D000C40000EB400001EB8000006AC82843DC14
:1038E000C4EBC40000EB400001EB8000B0F94000E5
:1038F0000A2838DAC4EBC40000EB400001EB80007A
:10390000B0F8400000F1010000B2C4EBC40101EBCB
:103910004101554A02EB8101A1F84000C4EBC4000B
:1039200000EB4000114601EB8000B0F940000A288E
:1039300019DB4FF00A00C4EBC40101EB410102EBBB
:103940008101A1F84000C4EBC40000EB4000114627
:1039500001EB8000407810F0200F04D101220521F6
:10396000204600F0D2FD87E0C4EBC40000EB40002D
:103970003D4901EB8000006A6E287DDAC4EBC4008B
:1039800000EB400001EB8000006A002874DBC4EB10
:10399000C40000EB400001EB8000B0F940000028BB
:1039A00039DDC4EBC40000EB400001EB8000B0F84F
:1039B0004000A0F1010000B2C4EBC40101EB4101E1
:1039C000294A02EB8101A1F84000C4EBC40000EBDE
:1039D0004000114601EB8000B0F9400000284BDCAC
:1039E0004FF00000C4EBC40101EB410102EB810187
:1039F000A1F84000C4EBC40000EB4000114601EB0D
:103A00008000407810F0200F36D00022052120469B
:103A100000F07BFD30E0C4EBC40000EB4000124935
:103A200001EB8000B0F94000002825DA4FF00000DB
:103A3000C4EBC40101EB41010B4A02EB810119E027
:103A400000400340140100101A0100102001001072
:103A5000B80E00100E0100100F010010B812001077
:103A60000B01001000C00920C80A0010040100105A
:103A700006010010A1F8400015F0010F44D0C4EB7E
:103A8000C40000EB4000FF4901EB8000B0F94200A8
:103A90000A2838DAC4EBC40000EB400001EB8000D8
:103AA000B0F8420000F1010000B2C4EBC40101EB28
:103AB0004101F44A02EB8101A1F84200C4EBC400C9
:103AC00000EB4000114601EB8000B0F942000A28EB
:103AD00078DB4FF00A00C4EBC40101EB410102EBBB
:103AE0008101A1F84200C4EBC40000EB4000114684
:103AF00001EB8000407810F0100F63D10122042107
:103B0000204600F002FD5DE015F0010F5AD1C4EB34
:103B1000C40000EB4000DB4901EB8000B0F942003B
:103B2000002839DDC4EBC40000EB400001EB80004D
:103B3000B0F84200A0F1010000B2C4EBC40101EBF7
:103B40004101D04A02EB8101A1F84200C4EBC4005C
:103B500000EB4000114601EB8000B0F94200002864
:103B600030DC4FF00000C4EBC40101EB410102EB7B
:103B70008101A1F84200C4EBC40000EB40001146F3
:103B800001EB8000407810F0100F1BD000220421C0
:103B9000204600F0BAFC15E0C4EBC40000EB400086
:103BA000B84901EB8000B0F9420000280ADA4FF072
:103BB0000000C4EBC40101EB4101B24A02EB8101F8
:103BC000A1F8420015F0020F46D0C4EBC40000EB90
:103BD0004000AC4901EB8000B0F94400B0F5966FAD
:103BE00074DAC4EBC40000EB400001EB8000B0F8D5
:103BF000440000F1010000B2C4EBC40101EB41013B
:103C0000A04A02EB8101A1F84400C4EBC40000EB20
:103C10004000114601EB8000B0F94400B0F5966F0A
:103C200054DB4FF49660C4EBC40101EB410102EB9D
:103C30008101A1F84400C4EBC40000EB4000114630
:103C400001EB8000407810F0010F3FD101220021EC
:103C5000204600F05AFC39E015F0020F36D1C4EBD3
:103C6000C40000EB4000874901EB8000B0F844003D
:103C700060B3C4EBC40000EB400001EB8000B0F87F
:103C80004400A0F1010000B2C4EBC40101EB41010A
:103C90007C4A02EB8101A1F84400C4EBC40000EBB4
:103CA0004000114601EB8000B0F8440070B9C4EB4D
:103CB000C40000EB400001EB8000407810F0010FE1
:103CC00004D000221146204600F01FFC15F0080F1A
:103CD00044D0C4EBC40000EB40006A4901EB800013
:103CE000B0F94600282838DAC4EBC40000EB4000E5
:103CF00001EB8000B0F8460000F1010000B2C4EB17
:103D0000C40101EB41015F4A02EB8101A1F84600C9
:103D1000C4EBC40000EB4000114601EB8000B0F999
:103D2000460028286DDB4FF02800C4EBC40101EBEE
:103D3000410102EB8101A1F84600C4EBC40000EB95
:103D40004000114601EB8000407810F0020F58D17E
:103D500001221146204600F0D8FB52E015F0080F72
:103D60004FD1C4EBC40000EB4000464901EB80009A
:103D7000B0F9460000282EDDC4EBC40000EB400083
:103D800001EB8000B0F84600A0F1010000B2C4EBE6
:103D9000C40101EB41013B4A02EB8101A1F846005D
:103DA000C4EBC40000EB4000114601EB8000B0F80A
:103DB000460030BB4FF00000C4EBC40101EB4101F1
:103DC00002EB8101A1F8460002464FF001012046B6
:103DD00000F09BFB15E0C4EBC40000EB4000294958
:103DE00001EB8000B0F9460000280ADA4FF000002D
:103DF000C4EBC40101EB4101224A02EB8101A1F8AD
:103E0000460015F0100F48D0C4EBC40000EB400092
:103E10001C4901EB8000B0F9480028283CDAC4EBCB
:103E2000C40000EB400001EB8000B0F8480000F156
:103E3000010000B2C4EBC40101EB4101114A02EBE5
:103E40008101A1F84800C4EBC40000EB400011461A
:103E500001EB8000B0F94800282879DB4FF02800FA
:103E6000C4EBC40101EB410102EB8101A1F8480060
:103E7000C4EBC40000EB4000114601EB8000407829
:103E800002E00000C80A001010F0040F60D1012207
:103E90000221204600F039FB5AE015F0100F57D1EF
:103EA000C4EBC40000EB40002A4901EB8000B0F8ED
:103EB000480070B3C4EBC40000EB400001EB80008D
:103EC000B0F84800A0F1010000B2C4EBC40101EB5E
:103ED0004101204A02EB8101A1F84800C4EBC40073
:103EE00000EB4000114601EB8000B0F8480078BBC1
:103EF0004FF00000C4EBC40101EB410102EB810172
:103F0000A1F8480002464FF00201204600F0FDFAF9
:103F10001EE0C4EBC40000EB40000E4901EB800042
:103F2000B0F948000A2813DDC4EBC40000EB4000E0
:103F300001EB8000B0F84800A0F1010000B2C4EB32
:103F4000C40101EB4101034A02EB8101A1F84800E1
:103F500070BD0000C80A001010B5102002F0F9FA78
:103F600000B2A9490880142002F0F3FA00B2A74970
:103F70000880162002F0EDFA00B2A5490880202042
:103F800002F0E7FA00B2A3490880C82002F0E1FA83
:103F900000B2A1490880CA2002F0DBFA00B29F49B2
:103FA00008804FF0000004460AE004F1CC01084606
:103FB00002F081FA9A49085504F10100C0B20446A2
:103FC000102CF2DB4FF0000004460AE004F1DC01A3
:103FD000084602F070FA9349085504F10100C0B296
:103FE0000446102CF2DBEC2002F0B3FA00B28E494A
:103FF0000880EE2002F0ADFA00B28C490880F02073
:1040000002F0A7FA00B28A490880F22002F0A1FA71
:1040100000B288490880F42002F09BFA00B2864979
:104020000880F62002F095FA00B284490880F82052
:1040300002F08FFA00B282490880FA2002F089FA71
:1040400000B280490880FC2002F083FA00B27E4969
:104050000880FE2002F07DFA00B27C4908804FF40F
:10406000807002F076FA00B2794908804FF48170CE
:1040700002F06FFA00B2774908804FF4827002F0C4
:1040800068FA00B2744908804FF4837002F061FA54
:1040900000B2724908804FF4847002F05AFA00B2FC
:1040A0006F4908804FF4857002F053FA00B26D49F1
:1040B00008804FF4867002F04CFA00B26A4908801A
:1040C0004FF4877002F045FA00B2684908804FF457
:1040D000887002F03EFA00B2654908804FF489709A
:1040E00002F037FA00B263490880682002F031FA22
:1040F00000B2614908806A2002F02BFA00B25F49E1
:1041000008806C2002F025FA00B25D4908806E201C
:1041100002F01FFA00B25B490880702002F019FA21
:1041200000B259490880722002F013FA00B25749D0
:104130000880742002F00DFA00B2554908807620FC
:1041400002F007FA00B253490880A42002F001FAF5
:1041500000B251490880A62002F0FBF900B24F4995
:104160000880A82002F0F5F900B24D490880AA2085
:1041700002F0EFF900B24B4908804FF4C87002F02A
:10418000E8F900B2484908804FF4C97002F0E1F93B
:1041900000B2464908804FF4CA7002F0DAF900B262
:1041A000434908804FF4CB7002F0D3F900B2414983
:1041B00008804FF4CC7002F0CCF900B23E49088080
:1041C0004FF4CD7002F0C5F900B23C4908804FF4BD
:1041D000CE7002F0BEF900B2394908804FF4CF70BA
:1041E00002F0B7F900B2374908804FF4D07002F0FE
:1041F000B0F900B2344908804FF4D17002F0A9F947
:1042000000B23249088010BD7C0000108000001010
:104210008400001088000010AC000010AE000010F8
:10422000E0130010F0130010B0000010B2000010F6
:10423000B4000010B6000010B8000010BA00001062
:10424000BC000010BE000010C0000010C200001032
:10425000C4000010C6000010C8000010CA00001002
:10426000CC000010CE000010D0000010D2000010D2
:10427000D4000010D600001094000010960000102A
:10428000980000109A0000109C0000109E00001082
:10429000A0000010A2000010A4000010A600001052
:1042A000A8000010AA000010D8000010DA000010CA
:1042B000DC000010DE000010E0000010E200001042
:1042C000E4000010E6000010E8000010EA00001012
:1042D000FF49097841B1FF49096821F0010101F165
:1042E0000101FC4A116005E0FA49096821F0010169
:1042F000F84A11604FF0000077E0C0EBC00101EB1D
:104300004101F54A02EB81014978E1B1C0EBC001FE
:1043100001EB410112F82110032914D100F103012E
:104320004FF0010202FA01F2EA49096821EA0201AA
:1043300000F103024FF0010303FA02F341EA030123
:10434000E44A11604DE0C0EBC00101EB4101E24ADB
:1043500002EB81014978E1B1C0EBC00101EB410101
:1043600012F82110052914D100F10F014FF00102BC
:1043700002FA01F2D749096821EA020100F10F02AD
:104380004FF0010303FA02F341EA0301D14A11603D
:1043900027E000F103014FF0010202FA01F2CD49DA
:1043A000096821EA020100F103024FF0000303FA59
:1043B00002F341EA0301C74A116000F10F014FF017
:1043C000010202FA01F2C349096821EA020100F17F
:1043D0000F024FF0000303FA02F341EA0301BD4A62
:1043E000116000F10101C9B208460C2885DBB9490A
:1043F0000968BA4A126881EA0201B64A126801EAFB
:104400000201B74A1160B7490968126841EA02011E
:10441000B44A1160AF490968B04A126881EA0201E2
:10442000AE4A126801EA02016FEA0101AE4A116068
:10443000AC490968126801EA0201AA4A1160A5495B
:104440000968A64A1160704738B50446012C30D17E
:10445000A64908704FF01E004FF4FA734FF00002A7
:104460004FF0320100904FF0010001F0C3FE2046F2
:1044700097490870984890F84D0220F01700964927
:1044800081F84D024FF000019348A0F89012A0F877
:104490008E12A0F88C12A0F89212A0F894129448F0
:1044A0000088002830D00122114692A001F0ECFCD7
:1044B0002AE04FF000008D4908700346024601468D
:1044C000009001F097FE4FF000008149087082488B
:1044D00090F84D0220F017007F4981F84D024FF00F
:1044E00000017D48A0F89012A0F88E12A0F88C125E
:1044F000A0F89212A0F894128848008820B10022F7
:10450000012187A001F0C0FC38BDF8B504460D4676
:104510001646012E7DD1072CFCD1E5B9C4EBC400B1
:1045200000EB40006C4901EB8000407840F0010056
:10453000C4EBC40101EB4101674A02EB8101487001
:1045400040F213134FF000024FF019014FF0010039
:10455000FBF706FEBBE0012D23D1C4EBC40000EB4A
:1045600040005D4901EB8000407840F00200C4EB60
:10457000C40101EB4101584A02EB810148704FF040
:10458000E1034FF0190211464FF00300FBF7E8FD7D
:104590000020E123192211460090032001F02AFE99
:1045A00095E0022D23D1C4EBC40000EB40004A4942
:1045B00001EB8000407840F00400C4EBC40101EB43
:1045C0004101454A02EB810148704FF0C8034FF0AA
:1045D000190211464FF00400FBF7C2FD0020C8236A
:1045E000192211460090042001F004FE6FE0032D13
:1045F00021D1C4EBC40000EB4000374901EB80003F
:10460000407840F00800C4EBC40101EB4101324A9C
:1046100000E0ABE002EB810148704FF000031A4666
:104620004FF064014FF00100FBF79AFD4FF00000DE
:10463000484908704BE0042D23D1C4EBC40000EBC3
:104640004000254901EB8000407840F01000C4EBA9
:10465000C40101EB4101204A02EB810148704FF097
:1046600096034FF0190211464FF00200FBF778FD58
:1046700000209623192211460090022001F0BAFD75
:1046800025E0052D23D1C4EBC40000EB4000124906
:1046900001EB8000407840F02000C4EBC40101EB46
:1046A00041010D4A02EB810148704FF0FA034FF0CF
:1046B00000024FF019014FF00100FBF751FD1E20E1
:1046C000FA23002219210090012001F093FD43E01C
:1046D000ED00001000C00720C80A001008C0072025
:1046E0000CC0072004C0072010C0072030000010B5
:1046F000D80000104D61696E20706F77657220617F
:104700006C61726D2E20506F77657220736F7572B9
:10471000636520697320414342000000DA00001005
:104720004D61696E20706F77657220616C61726D8A
:1047300020636C6561722E20506F77657220736FF5
:1047400075726365206973206D61696E20706F7783
:104750006572000078000010C4EBC40000EB40005C
:104760008B4901EB800080F853500FE1002EFCD103
:10477000072CFAD1FDB94FF0000086490870844833
:1047800090F84D0220F03F00814981F84D024FF032
:1047900000017F48A0F88E12A0F88C12A0F89012A9
:1047A000A0F89212A0F894120B461A461946184621
:1047B000FBF7D6FCEAE0012D38D1C4EBC40000EBD6
:1047C0004000734901EB8000407820F00200C4EB08
:1047D000C40101EB41016E4A02EB810148704FF0C8
:1047E00000006C490870104690F84D0220F03F0020
:1047F000114681F84D024FF000011046A0F88E12CC
:10480000A0F88C12A0F89012A0F89212A0F89412BE
:104810000B461A4619461846FBF7A2FC0020034631
:1048200002460146009001F0E5FCAFE0022D38D1D0
:10483000C4EBC40000EB4000554901EB8000407818
:1048400020F00400C4EBC40101EB4101504A02EB2B
:10485000810148704FF000004E490870104690F8F2
:104860004D0220F03F00114681F84D024FF000014B
:104870001046A0F88E12A0F88C12A0F89012A0F8A2
:104880009212A0F894120B461A4619461846FBF7E6
:1048900067FC0020034602460146009001F0AAFC96
:1048A00074E0032D21D14FF000003A490870C4EBA9
:1048B000C40000EB4000364901EB8000407820F056
:1048C0003F00C4EBC40101EB4101314A02EB81011D
:1048D00048704FF000031A4619461846FBF740FC93
:1048E0004FF001002C49087050E0042D26D14FF004
:1048F000000028490870264890F84D0220F03F003B
:10490000234981F84D024FF000012148A0F88E1292
:10491000A0F88C12A0F89012A0F89212A0F89412AD
:104920000B461A4619461846FBF71AFC00200346A8
:1049300002460146009001F05DFC27E0052D25D1DF
:104940004FF0000013490870114890F84D0220F014
:104950003F000F4981F84D024FF000010C48A0F8CC
:104960008E12A0F88C12A0F89012A0F89212A0F863
:1049700094120B461A4619461846FBF7F1FB002025
:10498000034602460146009001F034FC00BFF8BD2A
:10499000C80A0010ED00001078000010FF48B0F9C0
:1049A0000000FF490880FF48B0F90000FE49088078
:1049B000FE4800884FEA0060FD49098800EB01408D
:1049C000FC49B1F9001000EB0120FB49B1F90010DE
:1049D0000844FA490860FA4800884FEA0060F9493B
:1049E000098800EB0140F849B1F9001000EB012003
:1049F000F649B1F900100844F5490860F548008807
:104A00004FEA0060F449098800EB0140F349B1F92D
:104A1000001000EB0120F249B1F900100844F149FF
:104A20000860F14800884FEA0060F049098800EB0F
:104A30000140EF49B1F9001000EB0120ED49B1F957
:104A400000100844EC490860EC4800884FEA006018
:104A5000EB49098800EB0140EA49B1F9001000EB8D
:104A60000120E949B1F900100844E8490860E84824
:104A700000884FEA0060E749098800EB0140E649F9
:104A8000B1F9001000EB0120E449B1F9001008442D
:104A9000E3490860E34800884FEA0060E24909887A
:104AA00000EB0140E149B1F9001000EB0120E049C1
:104AB000B1F900100844DF490860DF4800884FEA78
:104AC0000060DE49098800EB0140DD49B1F90010C2
:104AD00000EB0120DB49B1F900100844DA49086015
:104AE000DA48B0F90000DA490880DA48B0F9000085
:104AF0000880D948B0F90000D8490880D848B0F9F2
:104B00000000D8490880D848B0F90000D74908808B
:104B1000D748B0F90000D7490880D748B0F900005D
:104B2000D6490880D648B0F90000D6490880D64852
:104B3000B0F90000D5490880D548B0F90000D54942
:104B40000880D54890F88A02D4490880704770B52B
:104B50000546012D10D14FF000040BE0D04A125D44
:104B6000114604F59672104601F043FE04F101006F
:104B7000C0B20446402CF1DB70BD70B50546012D76
:104B800010D14FF000040BE0C64A125D114604F14B
:104B9000CC02104601F02DFE04F10100C0B2044623
:104BA000102CF1DB70BD70B50546012D10D14FF012
:104BB00000040BE0BC4A125D114604F1DC02104611
:104BC00001F017FE04F10100C0B20446102CF1DB25
:104BD00070BD704710B50446012C05D17048B0F97E
:104BE0000010C82001F049FE10BD10B50446012C8C
:104BF00005D16D48B0F90010CA2001F03EFE10BD8D
:104C000010B50446012C2FD16C480068C0B26A4927
:104C100008806A480068C0F3072066490880674832
:104C20000068C0F3074062490880644800684FEAA2
:104C300010605E4908806048B0F900104FF0EC0049
:104C400001F01BFE5B48B0F90010EE2001F015FEEC
:104C50005748B0F90010F02001F00FFE5348B0F9AA
:104C60000010F22001F009FE10BD10B50446012C21
:104C70002FD157480068C0B2544908805448006892
:104C8000C0F307205049088051480068C0F307402E
:104C90004C4908804E4800684FEA10604849088037
:104CA0004A48B0F900104FF0F40001F0E6FD464824
:104CB000B0F90010F62001F0E0FD4248B0F9001014
:104CC000F82001F0DAFD3E48B0F90010FA2001F0BA
:104CD000D4FD10BD10B50446012C30D14148006808
:104CE000C0B23F4908803F480068C0F307203B49F5
:104CF00008803C480068C0F30740374908803948BD
:104D000000684FEA1060334908803548B0F9001058
:104D10004FF0FC0001F0B1FD3048B0F90010FE206A
:104D200001F0ABFD2C48B0F90010200201F0A5FD08
:104D30002848B0F900104FF4817001F09EFD10BDBD
:104D400010B50446012C28D12B480068C0B229496F
:104D5000088029480068C0F30720254908802648B4
:104D60000068C0F3074021490880234800684FEAE3
:104D700010601D4908801F48B0F900104FF4827080
:104D800001F07BFD1A48B0F900104FF4837001F078
:104D900074FD1648B0F9001088E092E0AC000010F5
:104DA0005EE00720AE00001060E00720B6000010B3
:104DB000B4000010B2000010B000001064E0072042
:104DC000BE000010BC000010BA000010B8000010B7
:104DD00068E00720C6000010C4000010C2000010E8
:104DE000C00000106CE00720CE000010CC000010C6
:104DF000CA000010C800001070E00720D6000010A4
:104E0000D4000010D2000010D000001074E0072081
:104E10009A000010980000109600001094000010F6
:104E200078E00720A2000010A00000109E000010F3
:104E30009C0000107CE00720AA000010A8000010D1
:104E4000A6000010A400001080E00720D800001089
:104E500086E00720DA000010DC00001088E0072060
:104E6000DE0000108AE00720E00000108CE0072040
:104E7000E20000108EE00720E400001090E0072020
:104E8000E600001092E00720E800001094E0072000
:104E9000EA00001096E00720C80A0010BAE00720D8
:104EA00018130010E0130010F01300104FF484707A
:104EB00001F0E3FCFF48B0F900104FF4857001F0F9
:104EC000DCFC10BD10B50446012C32D1FA48006854
:104ED000C0B2FA490880F8480068C0F30720F849D2
:104EE0000880F5480068C0F30740F6490880F2489A
:104EF00000684FEA1060F4490880F048B0F90010EB
:104F00004FF4867001F0B9FCED48B0F900104FF491
:104F1000877001F0B2FCEB48B0F900104FF48870D4
:104F200001F0ABFCE848B0F900104FF4897001F0D3
:104F3000A4FC10BD10B50446012C2FD1E348006835
:104F4000C0B2E3490880E1480068C0F30720E149A6
:104F50000880DE480068C0F30740DF490880DB486E
:104F600000684FEA1060DD490880D948B0F90010A8
:104F70004FF0680001F081FCD648B0F900106A20BB
:104F800001F07BFCD448B0F900106C2001F075FCF6
:104F9000D248B0F900106E2001F06FFC10BD10B5C2
:104FA0000446012C2FD1CE480068C0B2CD490880FC
:104FB000CB480068C0F30720CB490880C848006888
:104FC000C0F30740C9490880C54800684FEA10602F
:104FD000C7490880C348B0F900104FF0700001F0D5
:104FE0004CFCC148B0F90010722001F046FCBF48EB
:104FF000B0F90010742001F040FCBD48B0F9001079
:10500000762001F03AFC10BD10B50446012C2FD1DA
:10501000B8480068C0B2B8490880B6480068C0F314
:105020000720B6490880B3480068C0F30740B44978
:105030000880B04800684FEA1060B2490880AE4866
:10504000B0F900104FF0A40001F017FCAB48B0F924
:105050000010A62001F011FCA948B0F90010A8200A
:1050600001F00BFCA748B0F90010AA2001F005FCE4
:1050700010BD10B50446012C06D1A348B0F90010AC
:105080004FF4C87001F0F9FB10BD10B50446012CB7
:1050900006D19E48B0F900104FF4C97001F0EDFB45
:1050A00010BD10B50446012C06D19948B0F9001086
:1050B0004FF4CA7001F0E1FB10BD10B50446012C9D
:1050C00006D19448B0F900104FF4CB7001F0D5FB35
:1050D00010BD10B50446012C06D18F48B0F9001060
:1050E0004FF4CC7001F0C9FB10BD10B50446012C83
:1050F00006D18A48B0F900104FF4CD7001F0BDFB25
:1051000010BD10B50446012C06D18548B0F9001039
:105110004FF4CE7001F0B1FB10BD10B50446012C68
:1051200006D18048B0F900104FF4CF7001F0A5FB14
:1051300010BD10B50446012C06D17B48B0F9001013
:105140004FF4D07001F099FB10BD10B50446012C4E
:1051500006D17648B0F900104FF4D17001F08DFB04
:1051600010BD704770477047012806D100BF4EF64A
:10517000EE616F4A118000BF00BF70472DE9F04318
:1051800085B004460F4615461E46DDE90C894FF0F2
:10519000140268A16846FBF795F84FF00A0094FBEB
:1051A000F0F100FB114000F13000C0B28DF80100B9
:1051B0004FF00A0094FBF0F000F13000C0B28DF81F
:1051C0000000634800EB87000188ADF80310807889
:1051D0008DF805004FF00A0095FBF0F100FB11502F
:1051E00000F13000C0B28DF808004FF00A0095FBC6
:1051F000F0F000F13000C0B28DF807004FF00A0067
:1052000096FBF0F100FB116000F13000C0B28DF8A8
:105210000C004FF00A0096FBF0F000F13000C0B235
:105220008DF80B004FF00A0098FBF0F100FB1180A5
:1052300000F13000C0B28DF80F004FF00A0098FB6B
:10524000F0F000F13000C0B28DF80E004FF00A000F
:1052500099FBF0F100FB119000F13000C0B28DF825
:1052600012004FF00A0099FBF0F000F13000C0B2DC
:105270008DF81100684605B0BDE8F08301B590B027
:105280003449109801EBC0104E2233490790FBF7C8
:1052900019F808984FEA401008900EA9089801F0F4
:1052A00006FA09A90898001D01F001FA0DA908984D
:1052B000083053E0CE00001074E00720D00000104A
:1052C000D2000010D4000010D600001078E00720B3
:1052D0009400001096000010980000109A00001032
:1052E0007CE007209C0000109E000010A000001031
:1052F000A200001080E00720A4000010A60000100B
:10530000A8000010AA00001084E0072086E0072013
:1053100088E007208AE007208CE007208EE0072045
:1053200090E0072092E0072094E0072096E0072015
:105330005AE0072030302FFFEDE22F3030202030B0
:10534000303A30303A303020202020202020000019
:10535000CCB600001CC0072044B7000001F0A7F93C
:105360000CA908980C3001F0A2F90BA9089810308C
:1053700001F09DF90AA90898143001F098F99DF8F8
:105380003800552838D19DF83A00522833D1FF49CA
:10539000109801EBC0103222FDA10790FAF792FF9E
:1053A0009DF832009DF83110CDE900109DF83000D5
:1053B00006909DF8340005909DF8350004909DF806
:1053C0003600039004A90EC9FFF7D8FEEF490790F5
:1053D000109801EBC0101130142206900799FAF7CB
:1053E00071FFEA49109801EBC01028301422F6A191
:1053F0000790FAF767FFC5E29DF8380050287ED184
:105400004FF000000F90E149109801EBC0110F9888
:1054100008444FF01702F2A10790FAF753FF0F98D4
:1054200000F117000F909DF832009DF83110CDE982
:1054300000109DF8300006909DF8340005909DF80E
:10544000350004909DF83600039004A90EC9FFF7BB
:1054500095FECE490790109801EBC0110F980844B3
:10546000132206900799FAF72DFF0F9800F1130009
:105470000F904FF04001C54A109802EBC0120F98F0
:1054800011540F9800F101000F909DF82C00412855
:1054900014D19DF82D00412810D1BC49109801EB82
:1054A000C0110F9808440D22D4A10790FAF70AFF03
:1054B0000F9800F10D00C0B20F909CE7B34910980F
:1054C00001EBC0110F980844D0A10A6802604A6835
:1054D00042600A890281897A81720F9800F10B007B
:1054E000C0B20F909DF82A009DF82910CDE9001058
:1054F0009DF8280006909DF82C00059000E016E02D
:105500009DF82D0004909DF82E00039004A90EC96B
:10551000FFF734FE9D490790109801EBC0110F98DA
:105520000844132206900799FAF7CCFE63E79DF82A
:105530003800422874D14FF000000F909DF83A00D7
:1055400043286CD19149109801EBC0110F98084481
:105550001522B2A10790FAF7B5FE0F9800F11500D9
:10556000C0B20F909DF832009DF83110CDE90010C7
:105570009DF8300006909DF8340005909DF83500A8
:1055800004909DF83600039004A90EC9FFF7F6FDBC
:105590007E490790109801EBC0110F980844132220
:1055A00006900799FAF78EFE0F9800F11300C0B22B
:1055B0000F904FF04001754A109802EBC0120F98FF
:1055C00011540F9800F10100C0B20F906F4910986C
:1055D00001EBC0110F9808444FF0160295A10790F7
:1055E000FAF770FE0F9800F11600C0B20F909DF808
:1055F0002C00412815D19DF82D00412811D1634977
:10560000109801EBC0110F9808440D227BA1079060
:10561000FAF758FE0F9800F10D00C0B20F9036E077
:10562000F3E25A49109801EBC0110F98014477A09A
:1056300002680A6042684A6002890A81807A887238
:105640000F9800F10B00C0B20F909DF82A009DF852
:105650002910CDE900109DF8280006909DF82C0037
:1056600005909DF82D0004909DF82E00039004A94C
:105670000EC9FFF783FD45490790109801EBC01153
:105680000F980844132206900799FAF71BFE9DF81D
:105690003A005A285BD13D49109801EBC0110F9890
:1056A0000844202269A10790FAF70CFE0F9800F138
:1056B0002000C0B20F909DF832009DF83110CDE966
:1056C00000109DF8300006909DF8340005909DF87C
:1056D000350004909DF83600039004A90EC9FFF729
:1056E0004DFD2A490790109801EBC0110F9808440E
:1056F000132206900799FAF7E5FD0F9800F11300C1
:10570000C0B20F904FF04001204A109802EBC01237
:105710000F9811540F9800F10100C0B20F909DF83E
:105720002C00412814D19DF82D00412810D1174993
:10573000109801EBC0110F9808440D224CA107905E
:10574000FAF7C0FD0F9800F10D00C0B20F90B8E05D
:105750000E49109801EBC0110F98014448A002684F
:105760000A6042684A6002890A81807A88720F98CA
:1057700000F10B00C0B20F909DF82A009DF829108F
:10578000CDE900109DF82800069081E01CC007209C
:10579000C2EAEBFEF7E5EDE8E520C8C1DDCFE04069
:1057A00020202020202020202020202020202020F9
:1057B00020202020202020202020202020202020E9
:1057C00020202020202000004020202020202020F9
:1057D0002020202020202020202020200000000049
:1057E000C0E2E0F0E8FF20EFE8F2E0FEF9E5E920B2
:1057F000F1E5F2E8204020200000000020EDE52047
:10580000F3F1F2F0E0EDE5EDE020200020F3F1F21D
:10581000F0E0EDE5EDE0202020000000C1E0F2E046
:10582000F0E5FF2E2020C0E2E0F0E8FF212121205A
:1058300040202000C1E0F2E0F0E5FF20EDE520EEA1
:10584000E1EDE0F0F3E6E5EDE02C2000C1E0F2E070
:10585000F0E5FF2E2020C2FBF0E0E2EDE8E2E0FE02
:10586000F9E8E920E7E0F0FFE42040202000000014
:1058700020EDE520E7E0E2E5F0F8E5ED202000008E
:1058800020E7E0E2E5F0F8E5ED2020200000000050
:105890009DF82C0005909DF82D0004909DF82E0099
:1058A000039004A90EC9FFF769FCFF4907901098FF
:1058B00001EBC0110F980844132206900799FAF7DC
:1058C00001FD9DF83A004B285CD1F749109801EB97
:1058D000C0110F9808441D22F4A10790FAF7F2FCBA
:1058E0000F9800F11D00C0B20F909DF832009DF896
:1058F0003110CDE900109DF8300006909DF834007D
:1059000005909DF8350004909DF83600039004A999
:105910000EC9FFF733FCE4490790109801EBC01162
:105920000F980844132206900799FAF7CBFC0F98BA
:1059300000F11300C0B20F904FF04001DA4A109806
:1059400002EBC0120F9811540F9800F10100C0B281
:105950000F909DF82C00412815D19DF82D0041286D
:1059600011D1D149109801EBC0110F9808440D22B4
:10597000AFF204110790FAF7A5FC0F9800F10D00A3
:10598000C0B20F907EE2C849109801EBC0110F9889
:105990000844AFF214110A6802604A6842600A893A
:1059A0000281897A81720F9800F10B00C0B20F90CA
:1059B0009DF82A009DF82910CDE900109DF82800D7
:1059C00005909DF82C0004909DF82D0003909DF803
:1059D0002E00029003A90EC9FFF7D0FBB249069032
:1059E000109801EBC0110F980844132205900699F6
:1059F000FAF768FCAC49109801EBC0110F98084405
:105A00002722B2A10690FAF75DFC9DF837109DF8A9
:105A1000330001EB002000B207904FF00A01079815
:105A200090FBF1F201FB120000F13000C1B29E4A7E
:105A3000109802EBC0120F9800F10A0011544FF0B9
:105A40000A01079890FBF1F000B20790079890FBCD
:105A5000F1F201FB120000F13000C1B2924A10983D
:105A600002EBC0120F9800F1080011544FF00A0128
:105A7000079890FBF1F000B20790079880B1079863
:105A800090FBF1F201FB120000F13000C1B2864A36
:105A9000109802EBC0120F9800F10700115409E0B2
:105AA0004FF02001804A109802EBC0120F9800F1CD
:105AB000070011549DF826109DF8270001EB0020E7
:105AC00000B207904FF00A01079890FBF1F201FB3A
:105AD000120000F13000C1B2734A109802EBC012FC
