:020000040000FA
:10000000E8420010E1000000E5000000E700000009
:10001000E9000000EB000000ED000000000000001F
:10002000000000000000000000000000EF000000E1
:10003000F100000000000000F30000002D090000A6
:10004000F7000000F7000000F7000000F7000000D4
:10005000F7000000F7000000F7000000F7000000C4
:10006000F7000000F7000000F7000000F7000000B4
:10007000F7000000F7000000F7000000F7000000A4
:10008000F7000000F7000000F7000000F700000094
:10009000F7000000F7000000ED080000F700000086
:1000A000F700000041B80000F7000000F700000072
:1000B000EFC90000F7000000F7000000F7000000A3
:1000C000F7000000F7000000F7000000DFF80CD098
:1000D0000CF0F4FE0048004755710000E8420010A3
:1000E00005480047FEE7FEE7FEE7FEE7FEE7FEE71E
:1000F000FEE7FEE7FEE7FEE7CD00000006280AD295
:10010000DFE800F003040506070804E003E002E06E
:1001100001E000E000BF00BF00BFFEE710B50EF039
:10012000B1F80EF00DF90EF0FFF8AFF30080BDE866
:1001300010400EF0CBB810B50EF088FE0FF03CFA70
:10014000BDE810400EF0DABE0EF0EEBD0EF0B6BB0C
:1001500009B1002070470DF0BDBF0020704740EA94
:1001600001039B0703D009E008C9121F08C0042A35
:10017000FAD203E011F8013B00F8013B521EF9D21C
:1001800070470146002000E0401C0A5C002AFBD1B9
:10019000704780EA010202F0004330B430F00042C0
:1001A00021F0004015D0A0B1C0F3C755C2F3C75429
:1001B000C2F31601C0F31600651B41F4000140F4C0
:1001C00000007D35814201D36D1C00E04900002D07
:1001D00002DA30BC002070474FF400020024814254
:1001E00001D3091A144352084FEA4101F7D151B122
:1001F000814202D14FF0004105E002D24FF00101EF
:1002000001E06FF0010104EBC55030BC18440CF064
:1002100069BCC10F80EAE0700844CA079623002138
:100220000CF069BC00F0004230F000400DD0C10D70
:1002300001F5607142EA01510022C0F31600520735
:1002400042EAD00240071143704700200146704740
:1002500030B50B46014600202022012409E021FA96
:1002600002F59D4205D303FA02F5491B04FA02F593
:100270002844151EA2F10102F1DC30BD2DE9F05F2A
:100280000546002092469B46884606468146402405
:100290001CE028464146474622460CF030FE5246B6
:1002A0005B46801A994111D31046194622460CF03C
:1002B00017FE2D1A67EB0107B8464F46224601206C
:1002C00000210CF00DFE38184E418146201EA4F18D
:1002D0000104DEDC484631462A464346BDE8F09F2D
:1002E00000B500220CF0BEFEC04380B2010241EA1C
:1002F000102080B200BD704770477047FFFFFFFFBE
:100300004FF020008749086000BF8648006810F061
:10031000400FFAD04FF00300834908604FF40030DB
:100320008249C1F8A8014FF00000814908604FF0F0
:100330000100804908608048804908604FF0010052
:10034000A1F1040108604FF0AA007D4908604FF058
:1003500055007649C1F88C0000BF7848001D006840
:1003600010F0806FF9D04FF00300764908604FF02D
:10037000AA006E49C1F88C004FF055007049086022
:100380004FF02300704908604FF00100A1F1040113
:1003900008604FF0AA006D4908604FF055000860F2
:1003A00000BF6948001D006810F4806FF9D04FF05D
:1003B0000300674908604FF0AA005C49C1F8AC002F
:1003C0004FF05500614908606248634908604FF08A
:1003D00000005649C1F8C8010846D0F88800C0F3AB
:1003E0000160032868D15348006810F0030006D06C
:1003F000012823D002283FD003285CD100E000BFB1
:1004000056480068C0F30E0000F101004FEA4001B9
:100410004648D0F88800C0F3074000F10100B1FB66
:10042000F0F04F4900FB01F03F490968C9B201F102
:100430000101B0FBF1F04B4908603CE0474800681F
:10044000C0F30E0000F101004FEA40013748D0F838
:100450008800C0F3074000F10100B1FBF0F0424911
:1004600000FB01F030490968C9B201F10101B0FB9C
:10047000F1F03C4908601EE038480068C0F30E0007
:1004800000F101004FEA40012848D0F88800C0F38D
:10049000074000F10100B1FBF0F04FF4FA4100FB1E
:1004A00001F021490968C9B201F10101B0FBF1F085
:1004B0002C49086000BF2FE01E48006810F00300C0
:1004C00006D0012810D0022819D0032823D100E03B
:1004D00000BF15480068C0B200F101002049B1FB1F
:1004E000F0F02049086016E00F480068C0B200F143
:1004F00001001D49B1FBF0F01A4908600BE00A4801
:100500000068C0B200F101004FF4FA41B1FBF0F015
:100510001449086000BF00BF43F23A000349086075
:1005200070470000A0C10F4004C10F4000C00F4041
:10053000ACC10F400CC10F404F00030084C00F40FE
:100540008CC00F4080C00F40A4C00F40ACC00F4013
:10055000A0C00F4048F10041C4C00F4088C00F4008
:1005600000093D00240000108096980000EB8002F6
:10057000114600BFA1F101021100FBD170470146F5
:1005800000BFA1F101021100FBD170474FF0110033
:10059000FF49087270471FB5FE480078401CC0B282
:1005A000FC490870182802DB4FF000000870F94879
:1005B000007807287EDCF7480078C0EBC00000EB2D
:1005C0004000F54901EB800090F83100F1490978CD
:1005D000C1EBC10101EB4101EF4A02EB810191F84E
:1005E0003010EC4A1278C2EBC20202EB4202EA4B34
:1005F00003EB820292F82D20E64B1B78C3EBC3037A
:1006000003EB4303E44C04EB830393F82C30CDE974
:100610000032CDE90210DF480078C0EBC00000EBEB
:100620004000214601EB800090F828000346ED22AF
:10063000D848017800780AF063FDD6480078D74999
:10064000097888427EDAD3480078C0EBC00000EB1E
:100650004000214601EB8000C0780A2835DACD48F9
:100660000078C0EBC00000EB400001EB8000C078D8
:1006700000F10100C7490978C1EBC10101EB41015B
:10068000224602EB8101C870C2480078C0EBC0006E
:1006900000EB4000114601EB8000C0780A2820DB07
:1006A000BC480078C0EBC00000EB400001EB8000CC
:1006B000407800E058E010F0080F12D10122032129
:1006C000B448007808F0F5F90BE04FF00A00B149A2
:1006D0000978C1EBC10101EB4101AF4A02EB810195
:1006E000C870AC480078C0EBC00000EB4000AA49DD
:1006F00001EB8000C07803281FDBA6480078C0EB20
:10070000C00000EB400001EB80000079032814DA00
:10071000A0480078C0EBC00000EB400001EB800077
:10072000407900F101009B490978C1EBC10101EB5F
:100730004101994A02EB8101487196480078C0EB6B
:10074000C00000E028E000EB4000934901EB80008E
:10075000C07890490978C1EBC10101EB41018E4A93
:1007600002EB8101087167E08A480078082863D0AD
:100770008848007809285FD0864800780A280CD17C
:1007800000200090019002900346024603908148A9
:10079000017800780AF0B4FC4EE07E4800780C281E
:1007A0004AD07C4800780D2846D07A4800780E2838
:1007B00042D07848007814280CD100200090019095
:1007C00002900346024603907248017800780AF0CE
:1007D00097FC31E06F48007815280CD1002000907C
:1007E000019002900346024603906A48017800781F
:1007F0000AF086FC20E06748007816280CD100201B
:1008000000900190029003460246039061480178EF
:1008100000780AF075FC0FE05E48007817280BD1CD
:100820000020009001900290034602460390594830
:10083000017800780AF064FC1FBD10B568200AF04A
:100840008EF9574908706A200AF089F954494870AE
:100850006C200AF084F9524988706E200AF07FF902
:100860004F49C87070200AF07AF94D490872722019
:100870000AF075F9C1B24A4841724FF074000AF0AB
:100880006EF9C1B2464881724FF076000AF067F9FE
:10089000C1B24348C1724FF0A4000AF060F9404968
:1008A0000871A6200AF05BF9C1B23D4841714FF0D2
:1008B000A8000AF054F9C1B2394881714FF0AA007A
:1008C0000AF04DF9C1B23648C17110BD10B50FF034
:1008D000B5F84FF001003349087010BD01460029FA
:1008E00002DA484200B270470846FCE72E4800682A
:1008F00020F0E0602C49086008464068C0F30B1007
:100900002A492B4A127821F812002948007800F170
:1009100001002749087008460078032805DA2248B4
:10092000006840F080702049086070474FF0010077
:10093000204908702048008800F1010000B21E49DB
:1009400008800A2807D14FF001001C4908704FF0B9
:100950000000194908801A480088401C00B2184954
:100960000880142807D14FF00100164908704FF095
:1009700000001349088014480088401C00B2124946
:100980000880642831D14FF00100104908701FE041
:100990000040024004010010580A00103500001009
:1009A000A840001081000010004003402E010010FC
:1009B000250100107A000010280000107B000010B4
:1009C0002A0000107C0000102C0000107D00001098
:1009D0004FF00000FE490880FE48007828B1FE482C
:1009E000406B80F48010FC494863FC480088401C40
:1009F00000B2FA490880C82807D14FF00100F84931
:100A000008704FF00000F5490880F6480088401C47
:100A100000B2F4490880B0F5FA7F07D14FF0010029
:100A2000F14908704FF00000EE490880EF48008857
:100A3000401C00B2ED490880B0F57A7F07D14FF035
:100A40000100EB4908704FF00000E849088070474A
:100A5000E8480078002874D0E7480078002871D171
:100A6000E648007800286ED1E548007800286CD16F
:100A7000E048C0782B280CD14FF00100E049087005
:100A8000E0480078E04908704FF0F000DD49087058
:100A900053E0D84800792B280CD14FF00200D849F8
:100AA0000870D8480078D84908704FF0F100D5494F
:100AB000087042E0CF4840792B280CD14FF003005A
:100AC000CF490870CF480078CF4908704FF0F20046
:100AD000CC49087031E0C74880792B280CD14FF001
:100AE0000400C7490870C7480078C74908704FF02C
:100AF000F300C449087020E0BE48C0792B280CD10F
:100B00004FF00500BE490870BE480078BE49087025
:100B10004FF0F400BB4908700FE0B648007A2B286C
:100B20000BD14FF00600B6490870B6480078B649B8
:100B300008704FF0F500B3490870AE488078AF49AF
:100B40000870E4E1DDE1D5E1FFE7AD480078012878
:100B500044D1A84800792B2808D14FF00200A849B9
:100B600008704FF0F100A749087032E0A1484079C1
:100B70002B2808D14FF00300A14908704FF0F20074
:100B8000A049087025E09B4880792B2808D14FF0B8
:100B900004009B4908704FF0F3009A49087018E070
:100BA0009448C0792B2808D14FF00500944908706B
:100BB0004FF0F400934908700BE08E48007A2B2820
:100BC00007D14FF006008E4908704FF0F5008D49AF
:100BD0000870884880788949087098E188480078CA
:100BE000022844D1834840792B2808D14FF00300D4
:100BF000834908704FF0F2008249087032E07D4866
:100C000080792B2808D14FF004007D4908704FF0FF
:100C1000F3007C49087025E07648C0792B2808D17C
:100C20004FF00500764908704FF0F40075490870E0
:100C300018E07048007A2B2808D14FF00600704960
:100C400008704FF0F5006F4908700BE06948C078F4
:100C50002B2807D14FF00100694908704FF0F000D0
:100C60006849087063488078644908704FE16448B7
:100C70000078032844D15F4880792B2808D14FF0B1
:100C800004005F4908704FF0F3005E49087032E0DD
:100C90005848C0792B2808D14FF0050058490870F2
:100CA0004FF0F4005749087025E05248007A2B288D
:100CB00008D14FF00600524908704FF0F500514935
:100CC000087018E04B48C0782B2808D14FF001007D
:100CD0004B4908704FF0F0004A4908700BE0454856
:100CE00000792B2807D14FF00200454908704FF0DA
:100CF000F100444908703F4880784049087006E197
:100D00003F480078042844D13A48C0792B2808D1BC
:100D10004FF005003A4908704FF0F4003949087067
:100D200032E03448007A2B2808D14FF006003449CD
:100D300008704FF0F5003349087025E02D48C07861
:100D40002B2808D14FF001002D4908704FF0F0001A
:100D50002C49087018E0274800792B2808D14FF05B
:100D60000200274908704FF0F100264908700BE097
:100D7000204840792B2807D14FF003002049087004
:100D80004FF0F2001F4908701A4880781B4908701C
:100D9000BDE01B480078052863D11648007A2B284F
:100DA00008D14FF00600164908704FF0F5001549BC
:100DB000087051E00F48C0782B2827D14FF0010070
:100DC0000F4908704FF0F0000E49087044E0000031
:100DD0002C0000108200001000C009202E0000101E
:100DE0007E000010300000107F0000103200001064
:100DF00080000010D4050010630000106400001093
:100E0000650000103B00001041000010FF48007911
:100E10002B2808D14FF00200FD4908704FF0F10077
:100E2000FC49087018E0F94840792B2808D14FF0A8
:100E30000300F74908704FF0F200F64908700BE024
:100E4000F24880792B2807D14FF00400F049087050
:100E50004FF0F300EF490870EC488078EE490870D5
:100E600055E0EB480078062851D1E848C0782B2897
:100E700008D14FF00100E64908704FF0F000E54955
:100E8000087032E0E14800792B2808D14FF00200C9
:100E9000DF4908704FF0F100DE49087025E0DB48BB
:100EA00040792B2808D14FF00300D94908704FF042
:100EB000F200D849087018E0D44880792B2808D16E
:100EC0004FF00400D24908704FF0F300D149087088
:100ED0000BE0CE48C0792B2807D14FF00500CC4954
:100EE00008704FF0F400CB490870C8488078CA49B0
:100EF00008700CE0C8480078A0F10100C6490870ED
:100F000005E0C6480078A0F10100C44908707047A8
:100F100010B580B913884FF6FF74A34203DA138823
:100F200003F1010313800B78FF2B08DA0B7803F130
:100F300001030B7003E04FF0000313800B7010BD32
:100F400058B90B78012B03DB4FF0FF0313700EE051
:100F50000B7803F101030B7009E00B781BB94FF01C
:100F60000003137003E00B78A3F101030B707047CB
:100F700080B9137873B90B78012B03DB4FF0FF03B3
:100F800013700DE00B78012B0ADA0B7803F10103E3
:100F90000B7005E00B781BB10B78A3F101030B700C
:100FA000704710B518B19E4B1B78012B13D11378E5
:100FB0008BB90B78012B09DB4FF00F0313704FF047
:100FC0000003974C2370974C237032E00B7803F1A9
:100FD00001030B702DE018B1924B1B78012B14D13B
:100FE00013781F2B11D10B78012B09DB4FF02F0346
:100FF00013704FF000038B4C2370894C237018E062
:101000000B7803F101030B7013E00B788BB180B107
:101010000B78A3F101030B7013780F2B03D14FF062
:101020001F03137005E013782F2B02D14FF000033C
:10103000137010BDF0B591B0034615464FF0000691
:10104000304632464FF00106344638E001FB04F6E4
:10105000A6EB0106F6B2304622E09E5C0A2E09D0CD
:101060009E5C3EB19E5C0DF8006002F10106F6B296
:10107000324611E000BF07E04FF020060DF8006097
:1010800000F10106F6B2304601FB04F68642F3DCBD
:1010900002F10106F6B2324600F10106F6B2304620
:1010A00001FB04F68642D8DC9E5C0A2E03D102F1D5
:1010B0000106F6B2324604F10106F6B23446AC42FD
:1010C000C4DD4FF00006304606E01DF800601E54F7
:1010D00000F10106F6B23046B0EB810FF5DB11B03E
:1010E000F0BDF0B54FF015054F4E35704FF00605C9
:1010F0004E4E35704FF015054D4E35704FF00005D2
:101100002A4607E04FF000054A4EB55402F10105AA
:101110002DB22A4640F2FF35AA42F3DB4FF000051C
:101120002A46BAE34FF000052B46ADE33F4D2D783C
:1011300005FB0235404E745DBF2C09DDA4F161054D
:10114000394E367805FB06F54FEA850529460EE04F
:101150001F2C09DDA4F12005334E367805FB06F57A
:101160004FEA8505294602E04FF0000529464FEA7F
:1011700042252F4E367806FB0350304D6F5C0546F6
:1011800000F1010630462B4E77552C4E01F1040537
:10119000775D054600F101063046264E7755274E0D
:1011A00001F10805775D054600F101063046214E44
:1011B0007755224E01F10C05775D054600F10106D9
:1011C00030461C4E77551D4E01F11005775D0546E2
:1011D00000F101063046174E7755184E01F11405FF
:1011E000775D054600F101063046124E7755134EE5
:1011F00001F11805775D054600F1010630460D4EF8
:1012000077550E4E01F11C05775D19E0D4050010ED
:10121000650000103B000010640000106300001027
:10122000200100101F0100102301001021010010F7
:101230002201001011060010110A0010840B010099
:10124000054600F101063046FF4E7755FF4E01F18D
:101250002005775D054600F101063046FA4E7755C8
:10126000FA4E01F12405775D054600F1010630468E
:10127000F54E7755F54E01F12805775D054600F1ED
:1012800001063046F04E7755F04E01F12C05775DA2
:10129000054600F101063046EB4E7755EB4E01F165
:1012A0003005775D054600F101063046E64E77557C
:1012B000E64E01F13405775D054600F10106304642
:1012C000E14E7755E14E01F13805775D054600F1B5
:1012D00001063046DC4E7755DC4E01F13C05775D6A
:1012E000054600F101063046D74E7755D74E01F13D
:1012F0004005775D054600F101063046D24E775530
:10130000D24E01F14405775D054600F101063046F5
:10131000CD4E7755CD4E01F14805775D054600F17C
:1013200001063046C84E7755C84E01F14C05775D31
:10133000054600F101063046C34E7755C34E01F114
:101340005005775D054600F101063046BE4E7755E3
:101350004FEA4225BE4E367806FB035505F180055F
:101360002846BA4E01F10105775D054600F10106F8
:101370003046B54E7755B54E01F10505775D05460A
:1013800000F101063046B04E7755B04E01F1090527
:10139000775D054600F101063046AB4E7755AB4E02
:1013A00001F10D05775D054600F101063046A64EB8
:1013B0007755A64E01F11105775D054600F101064E
:1013C0003046A14E7755A14E01F11505775D0546D2
:1013D00000F1010630469C4E77559C4E01F11905EF
:1013E000775D054600F101063046974E7755974EDA
:1013F00001F11D05775D054600F101063046924E6C
:101400007755924E01F12105775D054600F1010601
:1014100030468D4E77558D4E01F12505775D054699
:1014200000F101063046884E7755884E01F12905B6
:10143000775D054600F101063046834E7755834EB1
:1014400001F12D05775D054600F1010630467E4E1F
:1014500077557E4E01F13105775D054600F10106B5
:101460003046794E7755794E01F13505775D054661
:1014700000F101063046744E7755744E01F139057E
:10148000775D054600F1010630466F4E77556F4E89
:1014900001F13D05775D054600F1010630466A4ED3
:1014A00077556A4E01F14105775D054600F1010669
:1014B0003046654E7755654E01F14505775D054629
:1014C00000F101063046604E7755604E01F1490546
:1014D000775D054600F1010630465B4E77555B4E61
:1014E00001F14D05775D054600F101063046564E87
:1014F0007755564E01F15105775D054600F101061D
:101500003046514E77554FEA4225514E367806FB0C
:10151000035505F5807528464C4E01F10205775DAF
:10152000054600F101063046474E7755474E01F11A
:101530000605775D054600F101063046424E7755B7
:10154000424E01F10A05775D054600F1010630467D
:101550003D4E77553D4E01F10E05775D054600F194
:1015600001063046384E7755384E01F11205775D49
:10157000054600F101063046334E7755334E01F1F2
:101580001605775D054600F1010630462E4E77556B
:101590002E4E01F11A05775D054600F10106304631
:1015A000294E7755294E01F11E05775D054600F15C
:1015B00001063046244E7755244E01F12205775D11
:1015C000054600F1010630461F4E77551F4E01F1CA
:1015D0002605775D054600F1010630461A4E77551F
:1015E0001A4E01F12A05775D054600F101063046E5
:1015F000154E7755154E01F12E05775D054600F124
:1016000001063046104E7755104E01F13205775DD8
:10161000054600F1010630460B4E77550B4E01F1A1
:101620003605775D054600F101063046064E7755D2
:10163000064E01F13A05775D054600F10106304698
:10164000014E7755014E05E011060010840B010094
:101650002201001001F13E05775D054600F101060B
:101660003046FF4E7755FF4E01F14205775D054646
:1016700000F101063046FA4E7755FA4E01F1460563
:10168000775D054600F101063046F54E7755F54E7B
:1016900001F14A05775D054600F101063046F04E3E
:1016A0007755F04E01F14E05775D054600F10106D4
:1016B0003046EB4E7755EB4E01F15205775D05460E
:1016C00000F101063046E64E77554FEA4225E64ED8
:1016D000367806FB035505F5C0752846E14E01F145
:1016E0000305775D054600F101063046DC4E77556F
:1016F000DC4E01F10705775D054600F10106304635
:10170000D74E7755D74E01F10B05775D054600F1B1
:1017100001063046D24E7755D24E01F10F05775D66
:10172000054600F101063046CD4E7755CD4E01F10C
:101730001305775D054600F101063046C84E775522
:10174000C84E01F11705775D054600F101063046E8
:10175000C34E7755C34E01F11B05775D054600F179
:1017600001063046BE4E7755BE4E01F11F05775D2E
:10177000054600F101063046B94E7755B94E01F1E4
:101780002305775D054600F101063046B44E7755D6
:10179000B44E01F12705775D054600F1010630469C
:1017A000AF4E7755AF4E01F12B05775D054600F141
:1017B00001063046AA4E7755AA4E01F12F05775DF6
:1017C000054600F101063046A54E7755A54E01F1BC
:1017D0003305775D054600F101063046A04E77558A
:1017E000A04E01F13705775D054600F10106304650
:1017F0009B4E77559B4E01F13B05775D054600F109
:1018000001063046964E7755964E01F13F05775DBD
:10181000054600F101063046914E7755914E01F193
:101820004305775D054600F1010630468C4E77553D
:101830008C4E01F14705775D054600F10106304603
:10184000874E7755874E01F14B05775D054600F1D0
:1018500001063046824E7755824E01F14F05775D85
:10186000054600F1010630467D4E77557D4E01F16B
:101870005305775D054600F101063046784E7755F1
:1018800003F101052DB22B46784D2D78AB42FFF6C2
:101890004DAC02F101052DB22A46022AFFF642ACF8
:1018A000F0BDF0B54FF00905714E35704FF01005E1
:1018B0006E4E35704FF008056B4E35704FF00005D9
:1018C0002A4607E04FF00005654EB55402F10105C8
:1018D0002DB22A4640F2FF35AA42F3DB4FF0000555
:1018E0002A46EFE04FF000052C46E2E05F4D2D78F0
:1018F00005FB02455F4E735DBF2B09DDA3F161055A
:101900005B4E367805FB06F54FEA450529460EE0A5
:101910001F2B09DDA3F12005554E367805FB06F592
:101920004FEA4505294602E04FF0000529464FEAF7
:1019300002254D4E367806FB04504F4E01F102054C
:10194000775D054600F101063046454E77554A4E13
:1019500001F10405775D054600F101063046404E71
:101960007755454E01F10605775D054600F1010604
:1019700030463B4E7755404E01F10805775D0546F0
:1019800000F101063046364E77553B4E01F10A050F
:10199000775D054600F101063046314E7755364EEB
:1019A00001F10C05775D054600F1010630462C4E2D
:1019B0007755314E01F10E05775D054600F10106C0
:1019C0003046274E77552C4E01F11005775D0546C0
:1019D00000F101063046224E77554FEA0225224E8D
:1019E000367806FB045505F180052846224E01F1A4
:1019F0000305775D054600F101063046184E775520
:101A00001D4E01F10505775D054600F101063046E2
:101A1000134E7755184E01F10705775D054600F125
:101A2000010630460E4E7755134E01F10905775DDC
:101A3000054600F101063046094E77550E4E01F17C
:101A40000B05775D054600F101063046044E7755DB
:101A5000094E01F10D05775D054600F101060DE027
:101A600011060010840B010022010010210100105A
:101A700023010010110A0010B03F01003046FF4E54
:101A80007755FF4E01F10F05775D054600F1010620
:101A90003046FA4E7755FA4E01F11105775D05464D
:101AA00000F101063046F54E775504F101052DB2DF
:101AB0002C46F44D2D78AC42FFF618AF02F101052B
:101AC0002DB22A46042AFFF60DAFF0BDF0B54FF057
:101AD0000C05ED4E35704FF01005EA4E35704FF0A5
:101AE0000805EA4E35704FF000052A4607E04FF032
:101AF0000005E24EB55402F101052DB22A4640F22E
:101B0000FF35AA42F3DB4FF000052A46E0E04FF034
:101B100000052C46D3E0DB4D2D7805FB0245DC4E5D
:101B2000735DBF2B09DDA3F16105D74E367805FB48
:101B300006F54FEA450529460EE01F2B09DDA3F106
:101B40002005D14E367805FB06F54FEA45052946B6
:101B500002E04FF0000529464FEA0225CB4E3678C9
:101B600006FB0450CB4E01F10405775D054600F1FC
:101B700001063046C14E7755C64E01F10605775D28
:101B8000054600F101063046BC4E7755C14E01F1C5
:101B90000805775D054600F101063046B74E7755DA
:101BA000BC4E01F10A05775D054600F1010630469D
:101BB000B24E7755B74E01F10C05775D054600F141
:101BC00001063046AD4E7755B24E01F10E05775DF8
:101BD000054600F101063046A84E7755AD4E01F19D
:101BE0001005775D054600F101063046A34E775596
:101BF000A84E01F11205775D054600F10106304659
:101C00009E4E77554FEA0225A04E367806FB0455C6
:101C100005F1800528469F4E01F10505775D0546D3
:101C200000F101063046954E77559A4E01F10705B1
:101C3000775D054600F101063046904E7755954E8A
:101C400001F10905775D054600F1010630468B4E2E
:101C50007755904E01F10B05775D054600F10106C1
:101C60003046864E77558B4E01F10D05775D054662
:101C700000F101063046814E7755864E01F10F0581
:101C8000775D054600F1010630467C4E7755814E62
:101C900001F11105775D054600F101063046774EEA
:101CA00077557C4E01F11305775D054600F101067D
:101CB0003046724E775504F101052DB22C46714D18
:101CC0002D78AC42FFF627AF02F101052DB22A466E
:101CD000042AFFF61CAFF0BD00B5ADB06E48007829
:101CE000332801F0FA8036DC81F03B86DFE810F023
:101CF0007D00AA00050129018201CA01520D520D81
:101D0000520D520D520D520D520D520D520D520DDB
:101D1000520D520D520D520D0A0211021A022302E7
:101D2000520D520D520D520D520D520D2A025602F5
:101D30008202A002CA02B004E7041705520D520D38
:101D4000390554059C05D005350666060B08430881
:101D50007F088A08C1084A2801F0F7841BDCA0F13B
:101D600034001628C0D2DFE810F029095B09730A95
:101D7000A40A0A0B3C0BA20BD30B650C150D150D19
:101D8000150D150D150D960C150D150D150D9B0C3E
:101D9000B70CCA0CDD0CF42801F0448515DCF128E1
:101DA00001F016850ADC4B2801F0E2844C2801F092
:101DB000F284F02841F0D58501F0FDBCF22801F055
:101DC0001C85F328F6D101F020BDF5380B288BD205
:101DD000DFE810F03C0D7C0DE00CE00CE00C880D11
:101DE0008F0D960DE00CE00C9D0D2C48B0F9000015
:101DF0000A2190FBF1F009902948B0F90000FEF7A4
:101E000008FA28490390FEF7C4F90490FEF70AFA8D
:101E1000CDE906012448B0F900000A2190FBF1F059
:101E200005902249B1F900100998CDE90210DDE9C9
:101E30000601CDE900011EA11548059A0BF030F905
:101E400001F08FBD1548B0F900000A2190FBF1F0B8
:101E500009901348B0F90000FEF7DBF9114904902E
:101E6000FEF797F90590FEF7DDF9CDE906011C486C
:101E7000B0F900100D4AB2F9002033E0110600104D
:101E8000B03F0100210100102301001022010010C9
:101E9000110A00109CFC00003B00001012E007201B
:101EA00038E007200000204136E007203CE0072012
:101EB0002055E2FBF53D252D75C20A2049E2FBF5D0
:101EC0003D252E3166C00A2050E2FBF53D252D64EC
:101ED000C2F20A2055F1E5F2E83D252D75C2000059
:101EE0003AE007200998CDE900200291F2A1FD48CF
:101EF000DDE906230BF0D4F8A2E7FB4800880A21AD
:101F000090FBF1F201FB12000990F748008890FB6A
:101F1000F1F00890F548B0F9000090FBF1F007905F
:101F2000F34AB2F90020DDE90810CDE90021029062
:101F3000F048B0F90020F0A1EA48079B0BF0B0F898
:101F40007EE7F9480088B0F5167F20DBE648008878
:101F50000A2190FBF1F201FB12000990E24800888F
:101F600090FBF1F00890E148B0F900100A2091FBD5
:101F7000F0F00790DDE90801CDE90001DC48B0F997
:101F80000030EAA1D748079A0BF08AF831E0F4480C
:101F9000B0F90000FEF73DF9F2490390FEF7F9F8B9
:101FA0000490FEF73FF9CDE90801CF4800880A21E7
:101FB00090FBF1F201FB12000790CB48008890FBE8
:101FC000F1F00690C948B0F900100A2091FBF0F03A
:101FD0000590DDE90801CDE90201DDE90601CDE961
:101FE0000001C348B0F90030DFA1BE48059A0BF0EC
:101FF00057F825E7CC480088B0F5167F18DBBA48BB
:1020000000880A2190FBF1F201FB12000990B6480A
:1020100001880A2091FBF0F0089009980090B448DC
:10202000B0F90020DCA1AF48089B0BF039F828E09C
:10203000CB48B0F90000FEF7ECF8CA490490FEF76F
:10204000A8F80590FEF7EEF8CDE90801A64800884B
:102050000A2190FBF1F201FB12000790A2480088D0
:1020600090FBF1F00690DDE90801CDE90201079847
:1020700000909F48B0F90020D4A19A48069B0BF02D
:102080000FF8DDE6A8480088B0F5167F14DB964807
:1020900000880A2190FBF1F201FB1200099092489E
:1020A00001880A2091FBF0F008900246D3A18D48E8
:1020B000099B0AF0F5FF24E0A948B0F90000FEF7FB
:1020C000A8F8A8490490FEF764F80590FEF7AAF86E
:1020D000CDE90801844800880A2190FBF1F201FB58
:1020E000120007908048008890FBF1F00690DDE92F
:1020F0000801CDE90001CDA17A48DDE906230AF007
:10210000CFFF9DE6D5480278D5A176480AF0C8FFF2
:1021100096E6E1480378D1480278E0A171480AF0D8
:10212000BFFF8DE6DC480378CC480278E9A16D4812
:102130000AF0B6FF84E6D8480278F5A169480AF0AB
:10214000AFFF7DE6FF48B0F90000FEF762F8FE49F8
:102150000490FEF71EF80590FEF764F8CDE908013B
:10216000FA48B0F900000A2190FBF1F201FB1200DD
:102170000790F648B0F9000090FBF1F006905D483A
:10218000B0F900000290DDE90801CDE90001F0A1FD
:102190005448DDE906230AF083FF51E65348B0F9BD
:1021A00000000A2190FBF1F201FB120009904F4858
:1021B000B0F9000090FBF1F00890E248B0F900009F
:1021C000FEF727F8E0490490FDF7E3FF0590FEF7DE
:1021D00029F8CDE90601474AB2F90020DDE90810E7
:1021E000CDE900210290E8A13E48DDE906230AF08E
:1021F00057FF25E63D48B0F900000A2190FBF1F2B7
:1022000001FB120009903948B0F9000090FBF1F091
:1022100008903748B0F900100998CDE90001354819
:10222000B0F90020E6A12F48089B0AF039FF07E625
:102230002D4800880A2190FBF1F201FB1200099061
:102240002948008890FBF1F008902848B0F9000078
:1022500090FBF1F201FB120007902448B0F9000056
:1022600090FBF1F00690224AB2F90020DDE9081057
:10227000CDE900210290DFA11A48DDE906230AF02A
:102280000FFFDDE53648B0F90000FDF7C2FF354924
:102290000490FDF77EFF0590FDF7C4FFCDE908012E
:1022A000114800880A2190FBF1F201FB120007900F
:1022B0000D480088BAE100002049E2FBF53D252EDB
:1022C0003166C00A2050E2FBF53D252D64C2F20ABA
:1022D0002055F1E5F2E83D252D75C20A20743D2513
:1022E00064274300110A00102EE0072012E00720A7
:1022F0003AE007203CE007202050E2FBF53D252D89
:1023000064C2F20A2055F1E5F2E83D252D75C20AB6
:1023100020743D252D6427430A2055E1E0F23D2538
:102320002D752E252D754200580000102055F1E521
:10233000F2E83D252D75C20A20743D252D64274302
:102340000A2055E1E0F23D252D752E252D75420A16
:102350002049E1E0F23DCAC0CBC8C1D02E00000048
:1023600030E007200000C8422055F1E5F2E83D25A5
:102370002D75C20A20743D252D6427430A2055E19E
:10238000E0F23D252D752E252D75420A2049E1E00C
:10239000F23D252E3266410020743D252D642743F1
:1023A0000A2055E1E0F23D252D752E252D75420AB6
:1023B0002049E1E0F23DCAC0CBC8C1D02E0A20D3EB
:1023C000D1D2C0CDCEC2CAC80000000020743D25C5
:1023D0002D6427430A2055E1E0F23D252D752E2579
:1023E0002D75420A2049E1E0F23D252E3266410A70
:1023F00020D3D1D2C0CDCEC2CAC800002055E1E062
:10240000F23D252D752E252D75420A2049E1E0F279
:102410003DCAC0CBC8C1D02E0A20D3D1D2C0CDCEA8
:10242000C2CAC80A20C2DBD5CEC400002055E1E0F4
:10243000F23D252D752E252D75420A2049E1E0F249
:102440003D252E3266410A20D3D1D2C0CDCEC2CA9C
:10245000C80A20C2DBD5CEC4000000006600001010
:1024600020202020D3D1D2C0CDCEC2CAC80A20C2DB
:10247000FBE1EEF020E3EB2EECE5EDFE0A20C8EDEB
:10248000F2E5F0EDE5F20A2055E1E0F22EE2EAEBAA
:102490003D252D75420000006700001020202020FF
:1024A000D3D1D2C0CDCEC2CAC80A20C8EDF2E5F061
:1024B000EDE5F20A2055E1E0F22EE2EAEB3D252DB2
:1024C00075420A2055E1E0F22EE2FBEAEB3D252DB4
:1024D0007542000020202020D3D1D2C0CDCEC2CA68
:1024E000C80A2055E1E0F22EE2EAEB3D252D7542C7
:1024F0000A2055E1E0F22EE2FBEAEB3D252D754284
:102500000A20CAE0EBE8E1F0EEE2EAE000000000B9
:1025100020202020D3D1D2C0CDCEC2CAC80A205597
:10252000E1E0F22EE2FBEAEB3D252D75420A20CADE
:10253000E0EBE8E1F0EEE2EAE00A20C2FBF5EEE4CF
:102540000000000038E007200000204136E00720AE
:10255000202020CAC0CBC8C1D0CEC2CAC00A2055D4
:10256000E2FBF53D252D752E25303175C20A204937
:10257000E2FBF53D252E3166C00A2050E2FBF53D19
:10258000252D64C2F2000000202020CAC0CBC8C1A3
:10259000D0CEC2CAC00A2049E2FBF53D252E3166E5
:1025A000C00A2050E2FBF53D252D64C2F20A2055F9
:1025B000F1E5F2E83D252D752E25303175C200007C
:1025C000202020CAC0CBC8C1D0CEC2CAC00A205069
:1025D000E2FBF53D252D64C2F20A2055F1E5F2E853
:1025E0003D252D752E25303175C20A20743D256498
:1025F00027430000202020CAC0CBC8C1D0CEC2CA09
:10260000C00A2055F1E5F2E83D252D752E25303123
:1026100075C20A20743D256427430A2055E1E0F283
:102620003D252D752E252D754200000090FBF1F003
:102630000690DDE90801CDE9020107980090F34812
:10264000B0F90020F2A1FF48069B0AF029FD53E4EF
:10265000FD48007810B9FDA00E9008E0FA48007817
:10266000012802D1FBA00E9001E0FCA00E90FC48D6
:10267000B0F90000FDF7CDFDFA490490FDF789FDA2
:102680000590FDF7CFFDCDE90801F74800880A2144
:1026900090FBF1F201FB12000790F348008890FBD9
:1026A000F1F006900E980290DDE90801CDE90001F5
:1026B000EEA1E448DDE906230AF0F2FC1CE4E2485E
:1026C000007810B9E1A00E9008E0DF4800780128FA
:1026D00002D1E0A00E9001E0E0A00E90F148007859
:1026E00010B9DAA00F9001E0DCA00F90DC48B0F93F
:1026F0000000FDF78EFDDB490690FDF74AFD0790CF
:10270000FDF790FDCDE90801DDE90E01CDE90001FD
:10271000E5A1CC48DDE908230AF0C2FC10E4CA4870
:10272000007810B9C9A00E9008E0C74800780128C9
:1027300002D1C8A00E9001E0C8A00E90D948007840
:1027400010B9C2A00F9001E0C4A00F900F9809909B
:102750000E9808900246E2A1BA48099B0AF0A0FC34
:1027600047E4EB48008810B1BCA00E9001E0B7A090
:102770000E90E848008810B1B8A00F9001E0B3A017
:102780000F900F9809900E9808900246E2A1AD486C
:10279000099B0AF085FC2CE4DD48008810B1EBA011
:1027A0000E9001E0A9A00E90DA48008810B1E7A0D1
:1027B0000F9001E0A5A00F90E648B0F90000E649AF
:1027C000B1F90010E54AB2F90020CDE900210290EC
:1027D0000F980990E248B0F90030E2A19948099AAF
:1027E0000AF05EFCEE480078E8B1EE480078032875
:1027F00019D14FF02001EC4800784FF0290202EB8C
:102800008000904A1154E84800784FF02A0202EB09
:1028100080008C4A1154E44800784FF02B0202EB00
:102820008000884A11542CE4CA48B0F90000CA4913
:10283000B1F90010CDE90010C848B0F90030C8481F
:10284000B0F90020D9A17F480AF02AFCD4480078CA
:10285000E8B1D4480078022819D14FF02001D248BD
:1028600000784FF0180202EB8000764A1154CE48EF
:1028700000784FF0190202EB8000724A1154CA48E6
:1028800000784FF01A0202EB80006E4A115438E4CF
:10289000D548B0F90000D549B1F90010D44AB2F9D1
:1028A0000020D44BB3F90030CDE90232CDE9041059
:1028B000A848B0F90000A849B1F90010CDE900100E
:1028C000A648B0F90030A648B0F90020CA495D48D2
:1028D0000AF0E6FBB2480078E8B1B2480078032875
:1028E00019D14FF02001B04800784FF02F0202EBD1
:1028F0008000544A1154AC4800784FF0300202EB8B
:102900008000504A1154A84800784FF0310202EB81
:1029100080004C4A1154A2480078E8B1A1480078E0
:10292000012819D14FF020019F4800784FF00E0286
:1029300002EB8000434A11549B4800784FF00F028D
:1029400002EB80003F4A1154974800784FF0100284
:1029500002EB80003B4A11541FE4A348B0F9000089
:10296000A249B1F90010CDE90010A148B0F900303A
:10297000A048B0F90020A1A132480AF091FB884894
:102980000078D0B187480078022816D14FF0200196
:10299000854800784FF01E0202EB8000294A11544E
:1029A000814800784FF01F0202EB8000254A115445
:1029B0007D48007801EB800011541AE49E48B0F97C
:1029C00000109E48B0F900009D4AB2F900209D4BCE
:1029D000B3F90030CDE90232CDE904018248B0F903
:1029E00000008249B1F90010CDE900108048B0F92B
:1029F00000308048B0F9002093A112480AF050FB43
:102A00006748007808B167483EE15AE13AE007209C
:102A1000202020CAC0CBC8C1D0CEC2CAC00A2074F0
:102A20003D256427430A2055E1E0F23D252D752E12
:102A3000252D75420A2049E1E0F23D252E326641FE
:102A400000000000110A00106C000010C2DBCACBAD
:102A500000000000C0CCCFCB00000000C2CACB00F9
:102A600030E007200000C8422EE00720202020CAC6
:102A7000C0CBC8C1D0CEC2CAC00A2055E1E0F23DE9
:102A8000252D752E252D75420A2049E1E0F23D25C0
:102A90002E3266410A20CAEEEDF2F02EF1E5F2E8A0
:102AA000202573006D000010202020CAC0CBC8C1B3
:102AB000D0CEC2CAC00A2049E1E0F23D252E3266DE
:102AC000410A20CAEEEDF2F02EF1E5F2E82025737E
:102AD0000A20D3EFF02ED8C8CC20257300000000C8
:102AE000202020CAC0CBC8C1D0CEC2CAC00A20CACA
:102AF000EEEDF2F02EF1E5F2E82025730A20D3EF97
:102B0000F02ED8C8CC2025730A20C2DBD5CEC40055
:102B1000A8000010AA00001020202045544845526B
:102B20004E45543A0A2045746865726E65742025D6
:102B3000730A2044484350EAEBE8E5EDF2202573A0
:102B40000A204950E0E4F0E5F13A0000C2CACB2087
:102B500000000000B2000010B0000010AE00001035
:102B6000AC00001020202045544845524E45543AB0
:102B70000A2044484350EAEBE8E5EDF22025730AC9
:102B8000204950E0E4F0E5F13A0A20253033752E73
:102B9000253033752E253033752E253033750000E2
:102BA0005B0000103E000010610000102020204556
:102BB000544845524E45543A0A204950E0E4F0E565
:102BC000F13A0A20253033752E253033752E253005
:102BD00033752E253033750A20CCE0F1EAE020EF82
:102BE000EEE4F1E5F2E83A00BA000010B800001097
:102BF000B6000010B4000010144B01002020204546
:102C0000544845524E45543A0A20CCE0F1EAE020BF
:102C1000EFEEE4F1E5F2E83A0A20253033752E258F
:102C20003033752E253033752E253033750A20D874
:102C3000EBFEE73A00000000C2000010C0000010E8
:102C4000BE000010BC000010202020455448455212
:102C50004E45543A0A20253033752E253033752ED3
:102C6000253033752E253033750A20D8EBFEE73A30
:102C70000A20253033752E253033752E25303375D7
:102C80002E253033750000000078012819D14FF04F
:102C90002001FF4800784FF00E0202EB8000FD4A51
:102CA0001154FB4800784FF00F0202EB8000F94A04
:102CB0001154F74800784FF0100202EB8000F54AFB
:102CC0001154F5480078E8B1F4480078032819D188
:102CD0004FF02001EE4800784FF0260202EB800012
:102CE000EC4A1154EA4800784FF0270202EB8000CA
:102CF000E84A1154E64800784FF0280202EB8000C1
:102D0000E44A1154A3E4E648B0F90010E548B0F9EC
:102D10000000E54AB2F90020CDE900200291E34825
:102D2000B0F90030E248B0F90020E2A1D9480AF039
:102D3000B7F9D9480078E8B1D8480078022819D105
:102D40004FF02001D24800784FF0150202EB8000CE
:102D5000D04A1154CE4800784FF0160202EB8000A2
:102D6000CC4A1154CA4800784FF0170202EB800099
:102D7000C84A11546BE4DE48B0F90000C849B1F903
:102D80000010C84AB2F90020C74BB3F90030CDE9B2
:102D90000032CDE90210C548B0F90030C448B0F99E
:102DA0000020D449BB480AF07BF9BB480078E8B161
:102DB000BA480078012819D14FF02001B4480078B2
:102DC0004FF00E0202EB8000B24A1154B048007876
:102DD0004FF00F0202EB8000AE4A1154AC4800786D
:102DE0004FF0100202EB8000AA4A11542FE4C048B1
:102DF000B0F90030AA48B0F90020BFA1A5480AF0F8
:102E00004FF924E44FF000000A9009E0C9490A98FC
:102E1000095C0BAA11540A9800F10100C0B20A9093
:102E20000A980A28F2DB9C480078C8B19B480078D1
:102E3000032815D14FF05F000BA9954A12788854EA
:102E4000BC48FDF79EF992490978884208D10BA841
:102E5000FDF797F900F101000BA94FF00A020A549F
:102E60000BABA348B0F90020B3A18A480AF018F9C7
:102E700024E44FF000000A9009E0AE490A98095C8A
:102E80000BAA11540A9800F10100C0B20A900A98E6
:102E90000A28F2DB80480078C8B180480078022810
:102EA00015D14FF05F010BA8794A12788154A148DF
:102EB000FDF767F976490978884208D10BA8FDF734
:102EC00060F900F101000BA94FF00A020A540BAAA5
:102ED000A5A170480AF0E4F820E44FF000000A9041
:102EE00009E094490A98095C0BAA11540A9800F168
:102EF0000100C0B20A900A980A28F2DB66480078FE
:102F0000C8B166480078012815D14FF05F000BA9C1
:102F10005F4A127888548748FDF733F95C4909788D
:102F2000884208D10BA8FDF72CF900F101000BA98C
:102F30004FF00A020A549848B0F900109748B0F9C7
:102F40000000974AB2F90020CDE90020029195488F
:102F5000B0F900300BAA94A14E480AF0A1F84E48EF
:102F6000007850B34D480078032826D10BA8FDF710
:102F700008F900F121004649097800EB8100454934
:102F80004FF020020A540BA8FDF7FBF800F12200D5
:102F90003F49097800EB81003E494FF020020A5476
:102FA0000BA8FDF7EEF800F123003949097800EB92
:102FB000810038494FF020020A5434E47648B0F9D1
:102FC00000007649B1F90010CDE900107448B0F95D
:102FD00000307448B0F90020464944312D480AF0C9
:102FE0005FF82D480078D0B12C480078022816D11F
:102FF0004FF02001264800784FF01F0202EB8000BE
:10300000244A11542248007801EB800011542048D2
:1030100000784FF0210202EB80001E4A115436E482
:103020006F48B0F900006F49B1F900106E4AB2F96B
:1030300000206E4BB3F90030CDE90232CDE9041027
:103040005548B0F900005549B1F90010CDE900101C
:103050005348B0F900305348B0F900202549883171
:103060000C480AF01DF80C48007880B10B48007835
:1030700001280CD14FF02001054800784FF00E02D6
:1030800002EB8000034A115401480078B0E0BDE033
:1030900061000010110A00105B0000103E000010DB
:1030A000C4000010C2000010C0000010BE000010DC
:1030B000BC00001020202045544845524E45543A4B
:1030C0000A20D8EBFEE73A0A20253033752E25304A
:1030D00033752E253033752E253033750A20CFEE0B
:1030E000F0F22EF7F2E5EDE8FF20252D7500000047
:1030F000C60000105C4B010020202045544845527A
:103100004E45543A0A20CFEEF0F220F7F2E5EDE812
:10311000FF20252D750A20CFEEF0F220E7E0EFE842
:10312000F1E820252D750A20436F6D6D756E697469
:10313000793A00001A0000102020204554484552DA
:103140004E45543A0A20CFEEF0F220E7E0EFE8F1E6
:10315000E820252D750A20436F6D6D756E697479B1
:103160003A0A20257300000020202045544845528B
:103170004E45543A0A20436F6D6D756E6974793A05
:103180000A2025730A20C0E4F0E5F1E0F220545251
:103190004150204E31000000CE000010CC00001045
:1031A000CA000010C8000010202020455448455295
:1031B0004E45543A0A2025730A20C0E4F0E5F1E0B8
:1031C000F22054524150204E310A20253033752EC2
:1031D000253033752E253033752E2530337500009C
:1031E000D6000010D4000010D2000010D000001053
:1031F0004FF00F0202EB8000F84A1154F8480078B3
:103200004FF0100202EB8000F44A1154F5480078A8
:10321000E8B1F5480078032819D14FF02001F048B3
:1032200000784FF0300202EB8000EC4A1154EC4879
:1032300000784FF0310202EB8000E84A1154E84870
:1032400000784FF0320202EB8000E44A115488E328
:10325000E648B0F90000E649B1F90010CDE90010E8
:10326000E448B0F90030E448B0F90020E349DB4815
:1032700009F016FFDB480078D0B1DB48007802285F
:1032800016D14FF02001D64800784FF01F0202EB14
:103290008000D24A1154D248007801EB80001154CA
:1032A000CF4800784FF0210202EB8000CB4A115446
:1032B00057E3D348B0F90020D248B0F90000D24912
:1032C000B1F90010D14BB3F90030CDE90231CDE9AD
:1032D0000402C648B0F90000C549B1F90010CDE9B3
:1032E0000010C448B0F90030C348B0F90020C34909
:1032F0004431BA4809F0D4FEBA480078E8B1BA4877
:103300000078012819D14FF02001B54800784FF01E
:103310000E0202EB8000B14A1154B14800784FF020
:103320000F0202EB8000AD4A1154AD4800784FF017
:10333000100202EB8000A94A1154AA480078E8B1B3
:10334000A9480078032819D14FF02001A44800783B
:103350004FF0300202EB8000A04A1154A0480078E0
:103360004FF0310202EB80009C4A11549C480078D7
:103370004FF0320202EB8000984A1154F1E2A0486B
:10338000B0F900009F49B1F90010CDE900109E4846
:10339000B0F900309D48B0F9002098498C318F4831
:1033A00009F07EFE8F480078D0B18F48007802285F
:1033B00016D14FF020018A4800784FF01F0202EB2F
:1033C0008000864A11548648007801EB8000115431
:1033D000834800784FF0210202EB80007F4A1154AD
:1033E000BFE28B48B0F900008A49B1F900108A4A5F
:1033F000B2F90020894BB3F90030CDE90232CDE9B2
:1034000004107F48B0F900007E49B1F90010CDE901
:1034100000107D48B0F900307C48B0F900207749B1
:10342000D0316E4809F03CFE6E480078E8B16E4835
:103430000078012819D14FF02001694800784FF039
:103440000E0202EB8000654A1154654800784FF087
:103450000F0202EB8000614A1154614800784FF07E
:10346000100202EB80005D4A11545E480078E8B11A
:103470005D480078032819D14FF0200158480078A2
:103480004FF0300202EB8000544A11545448007847
:103490004FF0310202EB8000504A1154504800783E
:1034A0004FF0320202EB80004C4A115459E2584866
:1034B000B0F900005749B1F90010CDE900105648A5
:1034C000B0F900305548B0F900205549434809F09B
:1034D000E7FD44480078D0B143480078022816D16F
:1034E0004FF020013E4800784FF01F0202EB8000B1
:1034F0003A4A11543A48007801EB80001154384898
:1035000000784FF0210202EB8000344A115428E287
:103510004448B0F900204448B0F900004349B1F9EB
:103520000010434BB3F90030CDE90231CDE904027C
:103530003748B0F900003749B1F90010CDE9001063
:103540003548B0F900303548B0F9002034494431ED
:10355000224809F0A5FD23480078E8B12248007808
:10356000012819D14FF020011D4800784FF00E02BC
:1035700002EB8000194A1154194800784FF00F02ED
:1035800002EB8000154A1154154800784FF01002E4
:1035900002EB8000114A115412480078E8B1124839
:1035A0000078032819D14FF020010D4800784FF022
:1035B000300202EB8000094A1154094800784FF0AC
:1035C000310202EB8000054A1154054800784FF0A3
:1035D000320202EB8000014A1154C2E1110A0010CC
:1035E000610000105B0000103E000010D6000010CB
:1035F000D4000010D2000010D00000102C4C0100AC
:10360000DE000010DC000010DA000010D80000100E
:10361000E6000010E4000010E2000010E0000010DE
:10362000444D0100EE000010EC000010EA00001014
:10363000E8000010E748B0F90000E749B1F90010D0
:10364000CDE90010E548B0F90030E548B0F90020B8
:10365000E4A1F34809F024FDF2480078D0B1F24823
:103660000078022816D14FF02001F04800784FF082
:103670001F0202EB8000EA4A1154EC48007801EB8B
:1036800080001154E94800784FF0210202EB8000DD
:10369000E34A115465E1E6A1E14809F001FD60E16A
:1036A000EC48007818B1AFF64C400E9002E0AFF64F
:1036B00064400E90E748C078E6498978CDE900106B
:1036C000E448407809900E9808900246E2A1D44858
:1036D000099B09F0E5FC44E1DE480079DD49C97841
:1036E000CDE90010DB4880780990DA4840780890EE
:1036F0000246E7A1CA48099B09F0D2FC31E1D5484E
:103700004079D4490979CDE90010D248C0780990B0
:10371000D048807808900246EAA1C148099B09F088
:10372000BFFC1EE1CB488079CA494979CDE9001038
:10373000C84800790990C748C07808900246EDA1B2
:10374000B748099B09F0ACFC0BE1C248C079C149FC
:103750008979CDE90010BF4840790990BD480079CA
:1037600008900246EEA1AE48099B09F099FCF8E0EA
:10377000B848007AB749C979CDE90010B5488079D1
:103780000990B448407908900246F0A1A448099BEA
:1037900009F086FCE5E0AF48007A0090AD48C079BA
:1037A0000990AC48807908900246F3A19C48099B97
:1037B00009F076FCD5E0FA48B0F900000A2190FB48
:1037C000F1F00246F7A10990954809F069FCC8E0BC
:1037D000F748B0F90000FCF71CFDF6490690FCF72D
:1037E000D8FC0790FCF71EFD02460B46CDE9080108
:1037F000F1A18B4809F054FCB3E0F248B0F9002085
:10380000F1A1874809F04CFCABE0F248B0F90000A8
:103810000A2190FBF1F00246EFA10990804809F0DF
:103820003FFC9EE0EF4800880A2190FBF1F201FB8B
:1038300012000990EB48008890FBF1F008900246D6
:10384000E9A17748099B09F02BFC8AE0EA48B0F926
:103850000000B0F5FA7F05DCE748B0F9000010F58C
:10386000FA7F1EDAE448B0F900004FF00A0190FB3D
:10387000F1F000B2E04908800846B0F90000FCF71A
:10388000C8FCCC490690FCF784FC0790FCF7CAFC06
:1038900002460B46CDE90801D8A1614809F000FCB9
:1038A00013E0D548B0F90000FCF7B3FCD649069008
:1038B000FCF76FFC0790FCF7B5FC02460B46CDE920
:1038C0000801D2A1564809F0EBFB4AE04FF0200076
:1038D0000A90D148B0F90030D0A151480A9A09F0B5
:1038E000DFFB3EE0D0480288D0A14D4809F0D8FB6C
:1038F00037E0CD480288D7A1494809F0D1FB30E034
:10390000C9480288DDA1464809F0CAFB29E0E5A1C3
:10391000434809F0C5FBEA4801780078401EE84AB0
:103920001070E9B9E7480088B82807D1E648007860
:10393000E6490870E64800783B490870E14800888D
:10394000A0F54071693907D1E2480078DF49087075
:10395000E1480078344908704FF00000D9490880E8
:1039600000BF00BF2DB000BD10B5FEF7B5F9D748B8
:103970000078EF2811DDD5480078F7280DDA4FF0F0
:103980000600D64908704FF0020208460178244824
:10399000FDF750FBFDF7A5FB18E04FF01000CF49F5
:1039A00008704FF00402084601781D48FDF742FBFD
:1039B000C6480078FA2807DA4FF03E011A48007826
:1039C000174A02EB00100170FDF76BFF4FF0000487
:1039D0008FE10000EE000010EC000010EA00001083
:1039E000E800001020202045544845524E45543AE6
:1039F0000A20C0E4F0E5F1E0F22054524150204E9C
:103A0000350A20253033752E253033752E25303379
:103A1000752E253033750A20C2DBD5CEC4000000D8
:103A2000110A00105B0000103E0000106100001041
:103A300020202045544845524E45543A0A204574AA
:103A40006865726E657420C2DBCACB0A20C2DBD502
:103A5000CEC40A00D405001020C3EB2EECE5EDFE29
:103A60002025730A20F7E5F0E5E720252D75F1E51F
:103A7000EA0A20E8EDF2E5F0E2E0EB20252D75F111
:103A8000E5EA0A202025632055E2FBF5000000004E
:103A900020F7E5F0E5E720252D75F1E5EA0A20E8B5
:103AA000EDF2E5F0E2E0EB20252D75F1E5EA0A20E4
:103AB0002025632055E2FBF50A202025632049E2FA
:103AC000FBF5000020E8EDF2E5F0E2E0EB20252D2B
:103AD00075F1E5EA0A202025632055E2FBF50A206E
:103AE0002025632049E2FBF50A2020256320D0E24F
:103AF000FBF50000202025632055E2FBF50A20207D
:103B000025632049E2FBF50A2020256320D0E2FB53
:103B1000F50A202025632055F1E5F2E800000000B9
:103B2000202025632049E2FBF50A2020256320D0D0
:103B3000E2FBF50A202025632055F1E5F2E80A2092
:103B40002025632055E1E0F20000000020202563DD
:103B500020D0E2FBF50A202025632055F1E5F2E8AC
:103B60000A202025632055E1E0F20A202025632069
:103B700049E1E0F200000000202025632055F1E536
:103B8000F2E80A202025632055E1E0F20A202025F2
:103B9000632049E1E0F20A20C2DBD5CEC400000078
:103BA00036E007202055E2FBF50A20252D7542005E
:103BB00038E00720000020412049E2FBF50A252ECD
:103BC0003166C0003CE007202050E2FBF50A252DBD
:103BD0006442F20012E0072055F1E5F2E80A252DD3
:103BE000754200002EE007202055E1E0F20A252D65
:103BF000752E252D7542000030E007202049E1E0B8
:103C0000F20A252E316641000000C8422049E1E059
:103C1000F20A252E326641003AE00720207425631F
:103C2000430A252D642743005C000010C2E2E5E44E
:103C3000E8F2E520EFE0F0EEEBFC3A0A202020204D
:103C4000202025303375200A20202020202020200D
:103C50002A0A0000C2E2E5E4E8F2E520EFE0F0EE37
:103C6000EBFC3A0A20202020202025303375200A42
:103C7000202020202020202A0A000000C2E2E5E4C3
:103C8000E8F2E520EFE0F0EEEBFC3A0A20202020FD
:103C9000202025303375200A2020202020202A0AC9
:103CA000000000000A2020202020CFE0F0EEEBFCF6
:103CB0000A20202020EDE520E2E5F0E5ED210A00D4
:103CC000600000105E0000103C0000103B0000107F
:103CD0003F0000103D0000104000001021010010C6
:103CE000F949095D084608F0B3F804F1010000B293
:103CF0000446B4F5806FF3DB10BDF448007830B1B2
:103D0000F2480078A0F10100F049087005E0F048A1
:103D10000078A0F10100EE4908707047EB48007888
:103D2000032806D1EA48007800F10100E84908704C
:103D300005E0E648007800F10100E44908707047AA
:103D4000E2480078012806DDE0480078A0F1010093
:103D5000DE49087005E0DE480078A0F10100DC498A
:103D60000870704710B50021642007F08CF800211E
:103D7000662007F088F8C021682007F084F8A821A1
:103D80006A2007F080F801216C2007F07CF8F92107
:103D90006E2007F078F8FF21702007F074F8FF21FB
:103DA000722007F070F8FF21742007F06CF80021F2
:103DB000762007F068F8C021A42007F064F8A82155
:103DC000A62007F060F80121A82007F05CF8FE218A
:103DD000AA2007F058F8A121C82007F054F8A22122
:103DE000CA2007F050F87021CC2007F008F87521A0
:103DF000CD2007F004F86221CE2007F000F86C21F6
:103E0000CF2006F0FCFF6921D02006F0F8FF6321E7
:103E1000D12006F0F4FF0021D22006F0F0FFC021EF
:103E2000EC2007F030F8A821EE2007F02CF8012153
:103E3000F02007F028F80221F22007F024F8C02132
:103E4000F42007F020F8A821F62007F01CF8012143
:103E5000F82007F018F80421FA2007F014F8C02120
:103E6000FC2007F010F8A821FE2007F00CF8012133
:103E7000080207F008F806214FF4817007F003F8F4
:103E8000C0214FF4827006F0FEFFA8214FF483702A
:103E900006F0F9FF01214FF4847006F0F4FF0821C9
:103EA0004FF4857006F0EFFFC0214FF4867006F0E6
:103EB000EAFFA8214FF4877006F0E5FF01214FF4D7
:103EC000887006F0E0FF09214FF4897006F0DBFFEF
:103ED00000214FF4E17006F0D6FF1E214FF4E2708E
:103EE00006F0D1FF03214FF4E37006F0CCFF4FF052
:103EF000030004460BE04FF4E17101EB4401084676
:103F00002D2106F0C0FF04F10100C0B204460B2CC5
:103F1000F1DB10BD1FB56E4800786C490978084484
:103F20002F2801F0078232DC83F00581DFE810F0F2
:103F3000730081009A00B300D600EF000801210150
:103F40005801F015F015F015F015F015F015F015F5
:103F5000F015F015F015F015F01575019C01E00154
:103F60002F027E02B502F015F015F015F015EE02E5
:103F70004903C903300497040D057405FD05440683
:103F8000A106C006FA0662078E07AC08C6083F28DD
:103F900002F0BE8314DCA0F130000F28C4D2DFE8A9
:103FA00010F0E3091D0B7C0BDB0BF50B340D4E0DF4
:103FB0006C0E860EC20FDC0FFE1018115B1275120C
:103FC0004B2802F0A6850DDCA0F143000828ABD2F7
:103FD000DFE810F0C213EC139E1512144B14A0145A
:103FE000F5143A154F2802F0A8860ADC4C2802F096
:103FF000D5854D2802F017864E2843F09C8002F0AC
:1040000057BEFA2802F0B986FB2802F04687FC2842
:10401000F3D102F0FEBF2F480088022807D12D48B7
:10402000008800F101002B490880FFF777FE03F0BC
:1040300082B829480088022807D12748008800F163
:10404000010025490880FFF758FE22480088022811
:1040500007D12048008800F101001E490880FFF7C1
:104060005DFEE4E71C480088022807D11A48008852
:1040700000F1010018490880FFF73FFE154800884D
:10408000022807D11348008800F101001149088077
:10409000FFF744FECBE710480088022807D10E48FE
:1040A000008800F101000C490880FFF726FE09484E
:1040B0000088022807D10748008800F1010005495F
:1040C0000880FFF72BFEB2E7110600103E0000103B
:1040D0003B0000105200001054000010FE48008801
:1040E000022807D1FC48008800F10100FA49088045
:1040F000FFF703FEF9480088022807D1F748008837
:1041000000F10100F5490880FFF708FE8FE7F2484B
:104110000088022807D1F048008800F10100EE492C
:104120000880FFF7EAFDED480088022807D1EB4838
:10413000008800F10100E9490880FFF7EFFD76E70C
:10414000E5480088022807D1E348008800F1010013
:10415000E1490880FFF7D1FDE0480088022807D137
:10416000DE48008800F10100DC490880FFF7D6FD39
:104170005DE7D9480088022807D1D748008800F1B8
:104180000100D5490880FFF7B8FDD448008802280F
:1041900007D1D248008800F10100D0490880FFF71C
:1041A000BDFDCF480088022819D1CD48008800F114
:1041B0000100CB490880CB480078CB490870CB4838
:1041C0000078CB4908704FF0FC00C64908704FF0EA
:1041D0000000C64908704FF0B800C649088026E7BD
:1041E000BD480088022807D1BB48008800F10100C3
:1041F000B9490880FFF781FDB948008802280BD132
:10420000B748008800F10100B54908804FF0000070
:10421000B4490870B549087009E7B0480088022819
:1042200007D1AE48008800F10100AC490880FFF7D3
:1042300075FDAB480088022815D1A948008800F117
:104240000100A7490880A7480078AB490870A74833
:104250000078AA4908704FF00000A44908704FF098
:104260004600A0490870E2E69B480088022810D169
:104270009948008800F10100974908809948007822
:10428000152804D14FF014009649087001E0FFF79B
:1042900057FD92480088022807D19048008800F115
:1042A00001008E490880FFF739FD8D4800880228FB
:1042B0001DD18B48008800F1010089490880894898
:1042C00000788D490870894800788C4908704FF053
:1042D0000100864908708A48008820B14FF0280004
:1042E0008049087003E04FF042007E4908709EE666
:1042F00079480088022807D17748008800F101003A
:1043000075490880FFF71CFD74480088022807D112
:104310007248008800F1010070490880FFF7FEFC38
:1043200078480088022803D0764800881E2812D1D9
:104330004FF00300734908804FF000004FF09403E2
:10434000CDE9003002904FF0EE024FF01B010390D8
:10435000084606F0D5FE6C480088022803D06A485B
:1043600000881E2812D14FF00300674908804FF0E3
:1043700000004FF09203CDE9003002904FF0EE02C2
:104380004FF01B010390084606F0BAFE4FE6524874
:104390000088022807D15048008800F101004E49EA
:1043A0000880FFF7CDFC4D480088022807D14B4814
:1043B000008800F1010049490880FFF7AFFC51482F
:1043C0000088022803D04F4800881E2812D14FF0E1
:1043D00003004C4908804FF000004FF08403CDE902
:1043E000003002904FF0EE024FF01B0103900846A0
:1043F00006F086FE44480088022803D04248008820
:104400001E2812D14FF003003F4908804FF00000F2
:104410004FF08203CDE9003002904FF0EE024FF0F2
:104420001B010390084606F06BFE00E62A48008850
:10443000022807D12848008800F101002649088099
:10444000FFF77EFC25480088022807D12348008812
:1044500000F1010021490880FFF760FC2048008836
:10446000022819D11E48008800F101001C4908806B
:104470001C480078204908701C4800781F490870C3
:104480004FF0FC00174908704FF000001749087002
:1044900040F2693017490880C9E50F4800880228B2
:1044A00007D10D48008800F101000B490880FFF793
:1044B00047FC0B48008802280DD10948008800F10C
:1044C0000100074908800848007806490870084834
:1044D000007806490870AAE5540000105200001048
:1044E000560000103B0000103C0000103E00001081
:1044F0003F0000105E0000103D0000104000001062
:10450000A8000010500000104E000010FF48008866
:10451000022807D1FD48008800F10100FB4908800E
:10452000FFF7FCFBFA480088022803D0F84800880F
:1045300005281ED14FF00300F5490880F5480078A2
:10454000FF280BD100200523CDE900300290EE2298
:104550001B210390084606F0D3FD0AE00020042347
:10456000CDE900300290EE221B210390084606F0B0
:10457000C7FDE9480088022803D0E74800880528DD
:104580001ED14FF00300E4490880E4480078FF287A
:104590000BD100200323CDE900300290EE221B2135
:1045A0000390084606F0ACFD0AE000200223CDE9A6
:1045B00000300290EE221B210390084606F0A0FD79
:1045C00035E5D7480088022807D1D548008800F192
:1045D0000100D3490880FFF7B3FBCC4800880228CC
:1045E00007D1CA48008800F10100C8490880FFF7D8
:1045F00095FBC7480088022803D0C54800880528D5
:104600001ED14FF00300C2490880C2480078FF283D
:104610000BD100202523CDE900300290EE221B2192
:104620000390084606F06CFD0AE000202423CDE943
:1046300000300290EE221B210390084606F060FD38
:10464000B5480088022803D0B348008805281ED149
:104650004FF00300B0490880B0480078FF280BD124
:1046600000202323CDE900300290EE221B2103908D
:10467000084606F045FD0AE000202223CDE900307F
:104680000290EE221B210390084606F039FDA54852
:104690000088022814D1A348008800F10100A14934
:1046A00008804FF000004FF02103CDE90030029068
:1046B0004FF0EE024FF01B010390084606F020FD7C
:1046C000B5E497480088022807D19548008800F192
:1046D000010093490880FFF733FB8C4800880228CB
:1046E00007D18A48008800F1010088490880FFF757
:1046F00015FB87480088022803D0854800880528D4
:104700001ED14FF003008249088082480078FF28BC
:104710000BD100206523CDE900300290EE221B2151
:104720000390084606F0ECFC0AE000206423CDE983
:1047300000300290EE221B210390084606F0E0FCB8
:1047400075480088022803D07348008805281ED1C8
:104750004FF003007049088070480078FF280BD1A3
:1047600000206323CDE900300290EE221B2103904C
:10477000084606F0C5FC0AE000206223CDE90030BF
:104780000290EE221B210390084606F0B9FC4EE48D
:1047900063480088022807D16148008800F10100C1
:1047A0005F490880FFF7CCFA58480088022807D1F3
:1047B0005648008800F1010054490880FFF7AEFA1E
:1047C00053480088022803D05148008805281ED18C
:1047D0004FF003004E4908804E480078FF280BD167
:1047E00000205523CDE900300290EE221B210390DA
:1047F000084606F085FC0AE000205423CDE900308D
:104800000290EE221B210390084606F079FC4248F4
:104810000088022803D04048008805281ED14FF0A8
:1048200003003D4908803D480078FF280BD1002057
:104830005323CDE900300290EE221B21039008465D
:1048400006F05EFC0AE000205223CDE90030029021
:10485000EE221B210390084606F052FC1AE4304871
:104860000088022807D12E48008800F101002C4959
:104870000880FFF765FA25480088022807D12348F9
:10488000008800F1010021490880FFF747FA20481D
:104890000088022803D01E48008805281ED14FF04A
:1048A00003001B4908801B480078FF280BD100201B
:1048B0003523CDE900300290EE221B2103900846FB
:1048C00006F01EFC0AE000203423CDE900300290FF
:1048D000EE221B210390084606F012FC0E480088C9
:1048E000022803D00C48008805282DD14FF0030082
:1048F0000949088009480078FF281AD1002033238D
:10490000CDE900300290EE221B210DE05200001094
:1049100050000010490000104E0000104800001028
:1049200054000010560000100390084606F0E8FB03
:104930000AE000203223CDE900300290EE221B2154
:104940000390084606F0DCFB12E4FF4800880228CA
:1049500007D1FD48008800F10100FB490880FFF7FE
:10496000EFF9FA480088022807D1F848008800F1DA
:104970000100F6490880FFF7D1F9F54800880228C0
:1049800003D0F348008805281ED14FF00300F049FA
:104990000880F0480078FF280BD100207523CDE96E
:1049A00000300290EE221B210390084606F0A8FB7F
:1049B0000AE000207423CDE900300290EE221B2192
:1049C0000390084606F09CFBE3480088022803D0C9
:1049D000E148008805281ED14FF00300DE49088019
:1049E000DE480078FF280BD100207323CDE900308A
:1049F0000290EE221B210390084606F081FB0AE09C
:104A000000207223CDE900300290EE221B2103909A
:104A1000084606F075FB26E4CB480088022807D13B
:104A2000C948008800F10100C7490880FFF788F9EC
:104A3000C6480088022807D1C448008800F1010058
:104A4000C2490880FFF76AF9C1480088022803D0EC
:104A5000BF4800880F2827D14FF00500BC490880C7
:104A6000BC4800784FF00A0190FBF1F000F1010022
:104A7000BB49B1F9001088420EDAB64800784FF011
:104A80000A0190FBF1F000F10100B5490988A1EBA2
:104A9000000000B2B2490880B148B0F900000146F8
:104AA0000390162006F0EFF9AB480088022803D0E7
:104AB000A94800880F2820D14FF00500A64908809A
:104AC000A748B0F9000044F6206188420DDAA348F7
:104AD00000784FF00A0190FBF1F000F10100A049CD
:104AE0000988084400B29E4908809D48B0F900003A
:104AF00001460390162006F0C6F99A48008802285D
:104B000012D19848008800F1010096490880964823
:104B10004088964908800846B0F900000146039095
:104B20004FF0140006F0AFF930E4874800880228FF
:104B300007D18548008800F1010083490880FFF70C
:104B4000FFF882480088022807D18048008800F1D9
:104B500001007E490880FFF7E1F87D4800880228BF
:104B600012D14FF005007A4908808148007800286A
:104B70000ADD0020D423CDE900300290EE221B2173
:104B80000390084606F0BCFA73480088022812D148
:104B90004FF00500704908807548007803280ADA4C
:104BA0000020D223CDE900300290EE221B21039099
:104BB000084606F0A5FA38E463480088022807D1C1
:104BC0006148008800F101005F490880FFF7B8F8EC
:104BD0005E480088022807D15C48008800F1010087
:104BE0005A490880FFF79AF85948008802281DD1D1
:104BF0004FF00500564908805E48007858B90020FB
:104C0000E223CDE900300290EE221B2103900846FA
:104C100006F076FA0AE00020E423CDE900300290A5
:104C2000EE221B210390084606F06AFA4A480088E3
:104C300002281DD14FF00500474908804D480078F3
:104C400058B90020E223CDE900300290EE221B216A
:104C50000390084606F054FA0AE00020E423CDE968
:104C600000300290EE221B210390084606F048FA1D
:104C700012E435480088022807D13348008800F143
:104C8000010031490880FFF75BF8364800880228A8
:104C90000DD13448008800F10100324908803648BF
:104CA000007836490870364800783649087012E4B2
:104CB000274800881E280DDD274800881E2809DDAA
:104CC0003148007830B9FFF74DF84FF001002E4918
:104CD000087026E023480088022816D12148008861
:104CE00000F101001F49088028480088C8B14FF032
:104CF00000002649088001464FF0640006F0C3F822
:104D00004FF042001D4908700BE01048008802284F
:104D100007D10E48008800F101000C490880FEF719
:104D2000FDFF4DE40A4800881E2832DD0A4800884D
:104D30001E282EDD1448007850BBFFF713F84FF003
:104D400001001149087054E0540000105200001096
:104D500050000010490000104E00001048000010E4
:104D60009C0000105600001048120010980000101F
:104D70006C0000106D0000103D0000103B000010A2
:104D8000400000103E0000105A000010A800001063
:104D9000FFE7FD480088022812D1FC48008820B1B6
:104DA0004FF00000F949088003E04FF00100F74997
:104DB0000880F648B0F90010662006F064F818E0A4
:104DC000F3480088022808D1F148008800F101006A
:104DD000EF490880FEF7B4FF0BE0EE480088022898
:104DE00007D1EC48008800F10100EA490880FEF78D
:104DF00095FF65E4E84800881E280DDDE748008837
:104E00001E2809DDE648007830B9FEF7ABFF4FF009
:104E10000100E349087018E0DD480088022808D145
:104E2000DB48008800F10100D9490880FEF788FFBF
:104E30000BE0D8480088022807D1D648008800F146
:104E40000100D4490880FEF769FF39E4D0480088A2
:104E500002280CD1CE48008800F10100CC4908801E
:104E6000FEF76EFF4FF00000CE4908700BE1C94815
:104E7000008802280CD1C748008800F10100C5490C
:104E80000880FEF74BFF4FF00000C6490870FAE0BB
:104E9000BD4800880A280DD1C248007800F1010001
:104EA000C049087008460078032802DD4FF0000072
:104EB0000870E8E0B8480088022803D0B6480088A7
:104EC00032286AD14FF01E00B3490880B5480078F7
:104ED000A8B9B548008820B94FF0FF00B249088052
:104EE00006E0B1480088A0F1010000B2AE49088098
:104EF000AD48B0F90010682005F0C5FFC3E0A9482F
:104F00000078012815D1A948008820B94FF0FF008A
:104F1000A649088006E0A5480088A0F1010000B27B
:104F2000A2490880A148B0F900106A2005F0ABFF43
:104F3000A9E09C480078022815D19D48008820B936
:104F40004FF0FF009A49088006E099480088A0F1D8
:104F5000010000B2964908809548B0F900106C2015
:104F600005F091FF8FE08F480078032814D1914815
:104F7000008820B94FF0FF008E49088006E08D4878
:104F80000088A0F1010000B28A4908808948B0F980
:104F900000106E2005F077FF75E080480088022839
:104FA00003D07E48008832286DD14FF01E007B4927
:104FB00008807C480078B0B97B480088FF2804D17D
:104FC0004FF000007849088006E07748008800F13B
:104FD000010000B2744908807348B0F900106820DD
:104FE00005F051FF4FE06F480078012816D16F4857
:104FF0000088FF2804D14FF000006C49088006E0CB
:105000006A48008800F1010000B2684908806748DA
:10501000B0F900106A2005F036FF34E061480078EE
:10502000022816D162480088FF2804D14FF0000002
:105030005F49088006E05E48008800F1010000B288
:105040005B4908805A48B0F900106C2005F01BFF3E
:1050500019E054480078032815D156480088FF28E5
:1050600004D14FF000005349088006E05148008801
:1050700000F1010000B24F4908804E48B0F900101D
:105080006E2005F000FF5FE441480088022808D147
:105090003F48008800F101003D490880FEF750FEBE
:1050A0000BE03C480088022807D13A48008800F10C
:1050B000010038490880FEF731FE45E43448008895
:1050C00002280CD13248008800F1010030490880E4
:1050D000FEF736FE4FF000003249087029E12D48F6
:1050E000008802280CD12B48008800F101002949D2
:1050F0000880FEF713FE4FF000002A49087018E1FF
:10510000214800880A280DD12648007800F10100C6
:105110002449087008460078032802DD4FF000009B
:10512000087006E11C480088022803D01A4800884D
:10513000322879D14FF01E001749088019480078AD
:10514000A8B91D48008820B94FF0FF001A4908800F
:1051500006E019480088A0F1010000B21649088055
:105160001548B0F90010702005F08DFEE1E00D4803
:105170000078012832D11148008820B94FF0FF0093
:105180000E49088023E01BE056000010AA00001022
:105190005400001052000010500000104E0000108B
:1051A0005A00001061000010AC000010AE000010AA
:1051B000B0000010B2000010B4000010B6000010E3
:1051C000F8480088A0F1010000B2F6490880F548CF
:1051D000B0F90010722005F056FEAAE0F2480078FF
:1051E000022815D1F148008820B94FF0FF00EF499F
:1051F000088006E0ED480088A0F1010000B2EB490C
:105200000880EA48B0F90010742005F03CFE90E0F8
:10521000E5480078032815D1E548008828B94FF003
:10522000FF00E349088007E00DE0E1480088A0F1B5
:10523000010000B2DE490880DD48B0F90010762098
:1052400005F021FE75E0DB480088022803D0D9482C
:10525000008832286DD14FF01E00D6490880D24810
:105260000078B0B9D4480088FF2804D14FF000007E
:10527000D149088006E0D048008800F1010000B262
:10528000CD490880CC48B0F90010702005F0FBFD36
:105290004FE0C5480078012816D1C2480088FF2891
:1052A00004D14FF00000BF49088006E0BD480088E7
:1052B00000F1010000B2BB490880BA48B0F9001003
:1052C000722005F0E0FD34E0B7480078022816D1DE
:1052D000B6480088FF2804D14FF00000B349088089
:1052E00006E0B248008800F1010000B2AF49088032
:1052F000AE48B0F90010742005F0C5FD19E0AA48C9
:105300000078032815D1AA480088FF2804D14FF05F
:105310000000A749088006E0A548008800F10100C8
:1053200000B2A3490880A248B0F90010762005F029
:10533000AAFD40E4A1480088022808D19F480088BF
:1053400000F101009D490880FEF7FAFC0BE09C4843
:105350000088022807D19A48008800F10100984986
:105360000880FEF7DBFC26E49448008802280CD174
:105370009248008800F1010090490880FEF7E0FCA7
:105380004FF00000884908700BE18D480088022822
:105390000CD18B48008800F1010089490880FEF794
:1053A000BDFC4FF0000080490870FAE08548008895
:1053B0000A280DD17C48007800F101007A49087074
:1053C00008460078032802DD4FF000000870E8E08E
:1053D0007D480088022803D07B48008832286AD1A3
:1053E0004FF01E00784908806F480078A8B97748C8
:1053F000008820B94FF0FF007449088006E0734828
:105400000088A0F1010000B2704908806F48B0F92F
:105410000010A42005F037FDC3E0634800780128A0
:1054200015D16B48008820B94FF0FF00684908800B
:1054300006E067480088A0F1010000B264490880D6
:105440006348B0F90010A62005F01DFDA9E05648FC
:105450000078022815D15F48008820B94FF0FF007E
:105460005C49088006E05B480088A0F1010000B2BA
:10547000584908805748B0F90010A82005F003FDEE
:105480008FE049480078032814D15348008820B998
:105490004FF0FF005049088006E04F480088A0F117
:1054A000010000B24C4908804B48B0F90010AA2016
:1054B00005F0E9FC75E03F480088022803D03D482C
:1054C000008832286DD14FF01E003A4908803648D6
:1054D0000078B0B93D480088FF2804D14FF00000A3
:1054E0003A49088006E03948008800F1010000B21E
:1054F000364908803548B0F90010A42005F0C3FCF7
:105500004FE029480078012816D131480088FF284B
:1055100004D14FF000002E49088006E02C48008896
:1055200000F1010000B22A4908802948B0F90010B2
:10553000A62005F0A8FC34E01B480078022816D10C
:1055400024480088FF2804D14FF00000214908803A
:1055500006E02048008800F1010000B21D490880E3
:105560001C48B0F90010A82005F08DFC19E00E4889
:105570000078032815D118480088FF2804D14FF07F
:1055800000001549088006E01348008800F101007A
:1055900000B2114908801048B0F90010AA2005F0A7
:1055A00072FC26E4B600001061000010B800001084
:1055B000BA0000104E000010B4000010540000109B
:1055C000520000105600001050000010BC000010E7
:1055D000BE000010C0000010C2000010FF4800888C
:1055E000022808D1FD48008800F10100FB4908802D
:1055F000FEF7A6FB50E0FA480088022808D1F848D8
:10560000008800F10100F6490880FEF787FB43E0BF
:10561000F4480088022803D0F2480088322819D1C3
:105620004FF01E00EF490880EF48008820B94FF086
:10563000FF00ED49088006E0EB480088A0F101007A
:1056400000B2E9490880E848B0F90010C82005F028
:105650001AFC21E0E5480088022803D0E3480088CE
:10566000322819D14FF01E00E0490880DE4800883A
:10567000FF2804D14FF00000DB49088006E0DA483B
:10568000008800F1010000B2D7490880D648B0F97F
:105690000010C82005F0F7FBF5E4D0480088022888
:1056A00008D1CE48008800F10100CC490880FEF7FF
:1056B00047FB50E0CA480088022808D1C848008843
:1056C00000F10100C6490880FEF728FB43E0C54809
:1056D0000088022803D0C3480088322819D14FF02F
:1056E0001E00C0490880C248008820B94FF0FF0062
:1056F000BF49088006E0BE480088A0F1010000B262
:10570000BB490880BA48B0F90010CA2005F0BBFBBD
:1057100021E0B6480088022803D0B4480088322827
:1057200019D14FF01E00B1490880B1480088FF2808
:1057300004D14FF00000AE49088006E0AC48008874
:1057400000F1010000B2AA490880A948B0F9001090
:10575000CA2005F098FB96E4A0480088022808D1EA
:105760009E48008800F101009C490880FEF7E8FA95
:105770000BE09B480088022807D19948008800F177
:10578000010097490880FEF7C9FA7CE49348008835
:1057900002280CD19148008800F101008F4908804F
:1057A000FEF7CEFA4FF00000924908702CE18C48C9
:1057B000008802280CD18A48008800F1010088493D
:1057C0000880FEF7ABFA4FF000008A4908701BE131
:1057D000894800880A2827D18648007800F101000E
:1057E0008449087085480978405C70B94FF0000121
:1057F000824A8048007800F1010011547D48007809
:1058000000F1CD00039005F0FAFA7A480078401EC6
:105810007A49085C18B177480078072803DD4FF013
:10582000000074490870EFE06E480088022803D039
:105830006C480088322866D14FF01E006949088004
:105840006E486C490978405C30B94FF07A016B487A
:10585000684A1278815449E0684866490978405C92
:1058600030281ED163480078A0B14FF00000634992
:10587000604A127888540146604A5E48007800F118
:10588000010011545B48007800F1CD00039005F051
:10589000B6FA2BE04FF07A015848564A12788154F4
:1058A00024E0564853490978405C412806D14FF01E
:1058B000390052494F4A1278885417E04F484D49F1
:1058C0000978405C612806D14FF05A004B49494A9B
:1058D000127888540AE0494846490978405CA0F1AA
:1058E0000100C1B24548434A1278815443484149B6
:1058F0000978405C03903F480078CC3002900399CF
:1059000005F07DFA80E039480088022803D0374846
:105910000088322878D14FF01E003449088037487B
:1059200034490978405C30B94FF030013348314A8E
:105930001278815448E031482E490978405C392872
:1059400006D14FF041002D492A4A127888543BE095
:105950002A4828490978405C5A2806D14FF061004E
:105960002649244A127888542EE02448214909788F
:10597000405C7A281ED11F480078A0B14FF000008B
:105980001E491C4A1278885402461A48007800F1D1
:1059900001000A541748007800F1CD001146039029
:1059A00005F02DFA10E04FF030001449114A12783A
:1059B000885409E011480F490978405C00F1010062
:1059C0000E490C4A127888540C480A490978405C00
:1059D000039008480078CC30029012E05400001088
:1059E0005200001050000010C40000104E000010C3
:1059F000C600001061000010560000101A000010D0
:105A000002E0039905F0FBF993E4FD4800880228C1
:105A100008D1FB48008800F10100F9490880FEF731
:105A20008FF90BE0F7480088022807D1F548008875
:105A300000F10100F3490880FEF770F979E4F048BD
:105A4000008802280CD1EE48008800F10100EC49E2
:105A50000880FEF775F94FF00000EB4908700BE184
:105A6000E848008802280CD1E648008800F10100CF
:105A7000E4490880FEF752F94FF00000E24908704F
:105A8000FAE0E24800880A280DD1DF48007800F1EA
:105A90000100DD49087008460078032802DD4FF058
:105AA00000000870E8E0DA480088022803D0D848EF
:105AB000008832286AD14FF01E00D5490880D248AC
:105AC0000078A8B9D348008820B94FF0FF00D14929
:105AD000088006E0CF480088A0F1010000B2CD495F
