:020000040000FA
:10000000B8420010E1000000E5000000E700000039
:10001000E9000000EB000000ED000000000000001F
:10002000000000000000000000000000EF000000E1
:10003000F100000000000000F30000002D090000A6
:10004000F7000000F7000000F7000000F7000000D4
:10005000F7000000F7000000F7000000F7000000C4
:10006000F7000000F7000000F7000000F7000000B4
:10007000F7000000F7000000F7000000F7000000A4
:10008000F7000000F7000000F7000000F700000094
:10009000F7000000F7000000ED080000F700000086
:1000A000F700000055780000F7000000F70000009E
:1000B0008F840000F7000000F7000000F700000048
:1000C000F7000000F7000000F7000000DFF80CD098
:1000D00008F06EFA00480047B5300000B842001042
:1000E00005480047FEE7FEE7FEE7FEE7FEE7FEE71E
:1000F000FEE7FEE7FEE7FEE7CD00000006280AD295
:10010000DFE800F003040506070804E003E002E06E
:1001100001E000E000BF00BF00BFFEE710B509F03E
:1001200001F909F05DF909F04FF9AFF30080BDE87E
:10013000104009F01BB910B509F0DAFE0AF08EFA8A
:10014000BDE8104009F02CBF09F040BE09F008BC22
:1001500009B10020704709F00DB800207047000079
:1001600030B5504C2478A0420ED14F4CB4F9004029
:10017000A14209D14D4CB4F90040A24204D14C4CEB
:10018000B4F90040A3420BD0464C2070464C21806D
:10019000464C2280464C23804FF00104454D2C7084
:1001A00030BD4548006840F08060434908604148E0
:1001B000007878B10846C06940F08060C8614FF0AF
:1001C00001003E4908704FF000003D490880394960
:1001D000087066E033480078002862D03848B0F9EB
:1001E00000003149B1F9001088420DDA32488069C7
:1001F00040F08060304988613148008800F101009A
:1002000000B22F4908804CE02C4800782549097835
:10021000884224DA2448B0F900002449B1F90010DA
:1002200008442749B1F9001088420DDD2248C06911
:1002300040F080602049C8612148008800F1010039
:1002400000B21F4908802CE04FF000001C490880D4
:100250001A48007800F101001849087021E012489E
:10026000B0F900001249B1F9001008441449B1F97D
:10027000001088420DDD1048C06940F080600E49D2
:10028000C8610F48008800F1010000B20C490880E5
:1002900007E04FF000000A4908804FF001000749CD
:1002A0000870704765010010680100106A010010B5
:1002B0006C0100106401001000C0092066010010EC
:1002C0006E01001040EA01039B0703D009E008C952
:1002D000121F08C0042AFAD203E011F8013B00F80B
:1002E000013B521EF9D270470146002000E0401C3D
:1002F0000A5C002AFBD1704770477047FFFFFFFF81
:100300004FF020008749086000BF8648006810F061
:10031000400FFAD04FF00300834908604FF40030DB
:100320008249C1F8A8014FF00000814908604FF0F0
:100330000100804908608048804908604FF0010052
:10034000A1F1040108604FF0AA007D4908604FF058
:1003500055007649C1F88C0000BF7848001D006840
:1003600010F0806FF9D04FF00300764908604FF02D
:10037000AA006E49C1F88C004FF055007049086022
:100380004FF02300704908604FF00100A1F1040113
:1003900008604FF0AA006D4908604FF055000860F2
:1003A00000BF6948001D006810F4806FF9D04FF05D
:1003B0000300674908604FF0AA005C49C1F8AC002F
:1003C0004FF05500614908606248634908604FF08A
:1003D00000005649C1F8C8010846D0F88800C0F3AB
:1003E0000160032868D15348006810F0030006D06C
:1003F000012823D002283FD003285CD100E000BFB1
:1004000056480068C0F30E0000F101004FEA4001B9
:100410004648D0F88800C0F3074000F10100B1FB66
:10042000F0F04F4900FB01F03F490968C9B201F102
:100430000101B0FBF1F04B4908603CE0474800681F
:10044000C0F30E0000F101004FEA40013748D0F838
:100450008800C0F3074000F10100B1FBF0F0424911
:1004600000FB01F030490968C9B201F10101B0FB9C
:10047000F1F03C4908601EE038480068C0F30E0007
:1004800000F101004FEA40012848D0F88800C0F38D
:10049000074000F10100B1FBF0F04FF4FA4100FB1E
:1004A00001F021490968C9B201F10101B0FBF1F085
:1004B0002C49086000BF2FE01E48006810F00300C0
:1004C00006D0012810D0022819D0032823D100E03B
:1004D00000BF15480068C0B200F101002049B1FB1F
:1004E000F0F02049086016E00F480068C0B200F143
:1004F00001001D49B1FBF0F01A4908600BE00A4801
:100500000068C0B200F101004FF4FA41B1FBF0F015
:100510001449086000BF00BF43F23A000349086075
:1005200070470000A0C10F4004C10F4000C00F4041
:10053000ACC10F400CC10F404F00030084C00F40FE
:100540008CC00F4080C00F40A4C00F40ACC00F4013
:10055000A0C00F4048F10041C4C00F4088C00F4008
:1005600000093D00200000108096980000EB8002FA
:10057000114600BFA1F101021100FBD170470146F5
:1005800000BFA1F101021100FBD170474FF0110033
:10059000FF49087270471FB5FE480078401CC0B282
:1005A000FC490870182802DB4FF000000870F94879
:1005B000007807287EDCF7480078C0EBC00000EB2D
:1005C0004000F54901EB800090F83100F1490978CD
:1005D000C1EBC10101EB4101EF4A02EB810191F84E
:1005E0003010EC4A1278C2EBC20202EB4202EA4B34
:1005F00003EB820292F82D20E64B1B78C3EBC3037A
:1006000003EB4303E44C04EB830393F82C30CDE974
:100610000032CDE90210DF480078C0EBC00000EBEB
:100620004000214601EB800090F828000346ED22AF
:10063000D8480178007806F00FFDD6480078D749F1
:10064000097888427EDAD3480078C0EBC00000EB1E
:100650004000214601EB8000C0780A2835DACD48F9
:100660000078C0EBC00000EB400001EB8000C078D8
:1006700000F10100C7490978C1EBC10101EB41015B
:10068000224602EB8101C870C2480078C0EBC0006E
:1006900000EB4000114601EB8000C0780A2820DB07
:1006A000BC480078C0EBC00000EB400001EB8000CC
:1006B000407800E058E010F0080F12D10122032129
:1006C000B448007804F0D3F90BE04FF00A00B149C8
:1006D0000978C1EBC10101EB4101AF4A02EB810195
:1006E000C870AC480078C0EBC00000EB4000AA49DD
:1006F00001EB8000C07803281FDBA6480078C0EB20
:10070000C00000EB400001EB80000079032814DA00
:10071000A0480078C0EBC00000EB400001EB800077
:10072000407900F101009B490978C1EBC10101EB5F
:100730004101994A02EB8101487196480078C0EB6B
:10074000C00000E028E000EB4000934901EB80008E
:10075000C07890490978C1EBC10101EB41018E4A93
:1007600002EB8101087167E08A480078082863D0AD
:100770008848007809285FD0864800780A280CD17C
:1007800000200090019002900346024603908148A9
:100790000178007806F060FC4EE07E4800780C2876
:1007A0004AD07C4800780D2846D07A4800780E2838
:1007B00042D07848007814280CD100200090019095
:1007C000029003460246039072480178007806F0D2
:1007D00043FC31E06F48007815280CD100200090D0
:1007E000019002900346024603906A48017800781F
:1007F00006F032FC20E06748007816280CD1002073
:1008000000900190029003460246039061480178EF
:10081000007806F021FC0FE05E48007817280BD125
:100820000020009001900290034602460390594830
:100830000178007806F010FC1FBD10B5682006F0A6
:100840003AF9574908706A2006F035F9544948705A
:100850006C2006F030F9524988706E2006F02BF9B2
:100860004F49C870702006F026F94D490872722071
:1008700006F021F9C1B24A4841724FF0740006F007
:100880001AF9C1B2464881724FF0760006F013F9AA
:10089000C1B24348C1724FF0A40006F00CF94049C0
:1008A0000871A62006F007F9C1B23D4841714FF02A
:1008B000A80006F000F9C1B2394881714FF0AA00D2
:1008C00006F0F9F8C1B23648C17110BD10B50AF092
:1008D00007F94FF001003349087010BD01460029A7
:1008E00002DA484200B270470846FCE72E4800682A
:1008F00020F0E0602C49086008464068C0F30B1007
:100900002A492B4A127821F812002948007800F170
:1009100001002749087008460078032805DA2248B4
:10092000006840F080702049086070474FF0010077
:10093000204908702048008800F1010000B21E49DB
:1009400008800A2807D14FF001001C4908704FF0B9
:100950000000194908801A480088401C00B2184954
:100960000880142807D14FF00100164908704FF095
:1009700000001349088014480088401C00B2124946
:100980000880642828D14FF00100104908701FE04A
:1009900000400240EC000010280A00103100001056
:1009A0007840001060000010004003401401001067
:1009B0000B01001059000010240000105A00001014
:1009C000260000105B000010280000105C000010E2
:1009D0004FF00000FF490880FF480088401C00B22B
:1009E000FD490880C82807D14FF00100FB49087075
:1009F0004FF00000F8490880F9480088401C00B218
:100A0000F7490880B0F5FA7F07D14FF00100F549AA
:100A100008704FF00000F2490880F3480088401C3D
:100A200000B2F1490880B0F57A7F07D14FF001009C
:100A3000EE4908704FF00000EB490880704710B590
:100A400080B913884FF6FF74A34203DA138803F1C9
:100A5000010313800B78FF2B08DA0B7803F10103F5
:100A60000B7003E04FF0000313800B7010BD58B9FA
:100A70000B78012B03DB4FF0FF0313700EE00B78B4
:100A800003F101030B7009E00B781BB94FF0000371
:100A9000137003E00B78A3F101030B70704780B96A
:100AA000137873B90B78012B03DB4FF0FF0313703E
:100AB0000DE00B78012B0ADA0B7803F101030B70C0
:100AC00005E00B781BB10B78A3F101030B707047A5
:100AD00010B518B1C64B1B78012B13D113788BB905
:100AE0000B78012B09DB4FF00F0313704FF000035D
:100AF000BF4C2370BF4C237032E00B7803F101032D
:100B00000B702DE018B1BB4B1B78012B14D113785F
:100B10001F2B11D10B78012B09DB4FF02F03137022
:100B20004FF00003B34C2370B14C237018E00B78E6
:100B300003F101030B7013E00B788BB180B10B78DC
:100B4000A3F101030B7013780F2B03D14FF01F0398
:100B5000137005E013782F2B02D14FF000031370B0
:100B600010BD30B591B002464FF00004204621463A
:100B70004FF00104234636E04FEA0314A4F11004B9
:100B8000E4B2204621E0545C0A2C09D0545C3CB10C
:100B9000545C0DF8004001F10104E4B2214610E07C
:100BA00000BF07E04FF020040DF8004000F1010401
:100BB000E4B220461C018442F4DC01F10104E4B2F9
:100BC000214600F10104E4B220461C018442DADC33
:100BD000545C0A2C03D101F10104E4B2214603F173
:100BE0000104E4B22346052BC6DB4FF00004204687
:100BF00006E01DF80040145400F10104E4B2204660
:100C00004028F6DB11B030BDF0B54FF000052A46A4
:100C100007E04FF00005784EB55402F101052DB202
:100C20002A4640F2FF35AA42F3DB4FF000052A4680
:100C3000F1E04FF000052C46E6E04FF0100505FB13
:100C400002456E4E735DBF2B06DDA3F1610505EB1A
:100C500045054FEAC5000BE01F2B06DDA3F120057B
:100C600005EB45054FEAC50002E04FF000052846B8
:100C70004FEA02254FF0080606FB0451604E00F1D2
:100C80000405775D0D4601F1010631465A4E775550
:100C90005B4E00F10605775D0D4601F10106314618
:100CA000554E7755564E00F10805775D0D4601F11A
:100CB00001063146504E7755514E00F10A05775DD9
:100CC0000D4601F1010631464B4E77554C4E00F171
:100CD0000C05775D0D4601F101063146464E77550C
:100CE000474E00F10E05775D0D4601F101063146D4
:100CF000414E7755424E00F11005775D0D4601F1EA
:100D0000010631463C4E77553D4E00F11205775DA8
:100D10000D4601F101063146374E77554FEA02255F
:100D20004FF0080606FB045505F180052946344EB0
:100D300000F10505775D0D4601F1010631462E4EA5
:100D400077552F4E00F10705775D0D4601F101063D
:100D50003146294E77552A4E00F10905775D0D463B
:100D600001F101063146244E7755254E00F10B0561
:100D7000775D0D4601F1010631461F4E7755204E35
:100D800000F10D05775D0D4601F1010631461A4E61
:100D900077551B4E00F10F05775D0D4601F10106F9
:100DA0003146154E7755164E00F11105775D0D460B
:100DB00001F101063146104E7755114E00F1130531
:100DC000775D0D4601F1010631460B4E775504F172
:100DD000010517E0280000102A0000105D00001037
:100DE0002C0000105E0000102E0000105F000010AC
:100DF0000801001007010010E2050010E2090010D0
:100E000048AD00002DB22C46102CFFF616AF02F1B3
:100E100001052DB22A46042AFFF60BAFF0BD00B53E
:100E2000A9B04FF001000A90FF4800782D287CD02F
:100E300028DC1F287AD013DC042878D007DCF0B334
:100E400001287AD0022874D003286DD1CDE005287E
:100E500070D014286FD015286ED01E28F5D177E1F8
:100E600020380D2860D2DFE810F0CE0103032F03F5
:100E700066035F005F005F005F009A03B503DC0359
:100E8000EF03020437287DD00EDCA0F12E000928E4
:100E9000E8D2DFE810F0280443044E0457045D0450
:100EA00077048D047F069206FA286CD00ADC382875
:100EB0006AD0392869D03A2868D03B2800E008E099
:100EC000C3D1F7E3FB287ED0FC287DD0FF28BCD11E
:100ED000F1E3D648B0F900000A2190FBF1F0099047
:100EE000D348B0F90000642190FBF1F201FB12003D
:100EF0000890CF48B0F9000090FBF1F00790CD4882
:100F0000B0F900000A2190FBF1F00690CA49B1F94E
:100F10000020DDE90810CDE900120290C7A1D448F5
:100F2000DDE9062307F0AEFB04E3C5E33CE19BE00B
:100F300003E02FE0CFE001E105E1BC48B0F900009B
:100F40000A2190FBF1F00990B948B0F90000642142
:100F500090FBF1F201FB12000890B548B0F90000D7
:100F600090FBF1F00790C348B0F90010B24AB2F913
:100F700000200998CDE900200291BFA1BC48DDE91D
:100F8000072304E0F9E3F9E3F9E3F9E3F9E307F010
:100F900079FBC9E7C448B0F900000A2190FBF1F2DF
:100FA00001FB12000990C048B0F900100A2091FB23
:100FB000F0F008909D48B0F900000A2190FBF1F094
:100FC0000790AC4A01E0F1E3F1E3B2F90020DDE97A
:100FD0000810CDE9002102909748B0F90020B3A194
:100FE000A348079B07F04EFB9EE7BC48B0F9000002
:100FF000002802DA4FF0FF300A90B849B1F900102A
:101000000A984843642190FBF1F201FB1200099019
:10101000B248B0F9000090FBF1F00890A248B0F996
:1010200000000A2190FBF1F201FB120007909E489C
:10103000B0F9000090FBF1F006907C48B0F9000098
:1010400090FBF1F00590DDE90623DDE90810CDE91C
:101050000023CDE902108748B0F90030A0A18448F0
:10106000059A07F00FFB5FE79C48B0F900000028E5
:1010700002DA4FF0FF300A909849B1F900100A984F
:101080004843642190FBF1F201FB12000990934860
:10109000B0F9000090FBF1F008908348B0F900002F
:1010A0000A2190FBF1F201FB120007907E48B0F993
:1010B000000090FBF1F00690DDE907120998CDE9F8
:1010C000001202906B48B0F9002092A16848069B7C
:1010D00007F0D8FA28E78148B0F90000002802DAC2
:1010E0004FF0FF300A907D49B1F900100A9848434B
:1010F000642190FBF1F201FB120009907748B0F9EE
:10110000000090FBF1F008906748B0F900000A2158
:1011100090FBF1F201FB120007906348B0F9000068
:1011200090FBF1F00690DDE90801CDE9000186A110
:101130004F48DDE9062307F0A5FAF5E68FA14C48F4
:1011400007F0A0FAF0E69AA1494807F09BFAEBE60F
:101150003748B0F90000642190FBF1F201FB120066
:1011600009903348B0F9000090FBF1F00890314845
:10117000B0F900000A2190FBF1F201FB1200079088
:101180002C48B0F9000090FBF1F006902A48B0F925
:101190000020DDE908018DE8070090A13448DDE971
:1011A000062307F06FFABFE62048B0F900000A21D5
:1011B00090FBF1F201FB120009901C48B0F90010FD
:1011C0000A2091FBF0F008901948B0F90000642162
:1011D00090FBF1F201FB120007901548B0F90010E6
:1011E000642091FBF0F00690134AB2F90020DDE98B
:1011F0000810CDE90021029087A11D48DDE90623F2
:1012000007F040FA90E60948B0F900000A2190FB87
:10121000F1F201FB120009900448B0F9000090FBC4
:10122000F1F00890134815E13400001012E0072097
:1012300038E0072036E007203CE007202055E2FB9D
:10124000F53D252D75C20A2049E2FBF53D252D759A
:101250002E25303275C00A2050E2FBF53D252D7554
:10126000C2F20A2055F1E5F2E83D252D75C20000D5
:10127000E20900103AE007202049E2FBF53D252D68
:10128000752E25303275C00A2050E2FBF53D252D24
:1012900075C2F20A2055F1E5F2E83D252D75C20A26
:1012A00020743D25642743002EE007202050E2FBF8
:1012B000F53D252D75C2F20A2055F1E5F2E83D25F0
:1012C0002D75C20A20743D252D6427430A2055E15F
:1012D000E0F23D252D752E252D75420030E00720CA
:1012E0002055F1E5F2E83D252D75C20A20743D2513
:1012F0002D6427430A2055E1E0F23D252D752E256A
:101300002D75420A2049E1E0F23D252D642E25305D
:101310003275410020743D252D6427430A2055E194
:10132000E0F23D252D752E252D75420A2049E1E07C
:10133000F23D252D642E25303275410A20D3D1D2BD
:10134000C0CDCEC2CAC800002055E1E0F23D252D37
:10135000752E252D75420A2049E1E0F23D252D64C8
:101360002E25303275410A20D3D1D2C0CDCEC2CA8B
:10137000C80A20C2DBD5CEC40000000020202020F7
:10138000D3D1D2C0CDCEC2CAC80A20C2FBE1EEF092
:1013900020E3EB2EECE5EDFE0A20C8EDF2E5F0EDE2
:1013A000E5F20A20CAE0EBE8E1F0EEE2EAE0000054
:1013B00020202020D3D1D2C0CDCEC2CAC80A20C896
:1013C000EDF2E5F0EDE5F20A20CAE0EBE8E1F0EE3F
:1013D000E2EAE00A20C2DBD5CEC40000202020CA09
:1013E000C0CBC8C1D0CEC2CAC00A2055E2FBF53D71
:1013F000252D752E25303175C20A2049E2FBF53DB9
:10140000252D752E25303275C00A2050E2FBF53DA2
:10141000252D75C2F2000000202020CAC0CBC8C113
:10142000D0CEC2CAC00A2049E2FBF53D252D752E5B
:1014300025303275C00A2050E2FBF53D252D75C2DE
:10144000F20A2055F1E5F2E83D252D752E253031C3
:1014500075C20000B0F900100998CDE90001E64816
:10146000B0F90020E5A1F248089B07F00BF95BE515
:10147000F048B0F900000A2190FBF1F201FB1200E4
:101480000990EC48B0F9000090FBF1F00890EA48B0
:10149000B0F9000090FBF1F201FB12000790E64862
:1014A000B0F9000090FBF1F00690E44AB2F9002098
:1014B000DDE90810CDE900210290E1A1DC48DDE979
:1014C000062307F0DFF82FE5EB48B0F9000000280D
:1014D00002DA4FF0FF300A90E749B1F900100A989C
:1014E0004843642190FBF1F201FB12000990E248AD
:1014F000B0F9000090FBF1F00890CE48B0F9000080
:101500000A2190FBF1F201FB12000790C948B0F9E3
:10151000000090FBF1F00690DDE907120998CDE993
:1015200000120290C548B0F90020D4A1C048069B23
:1015300007F0A8F840E3D048B0F90000002802DA2C
:101540004FF0FF300A90CC49B1F900100A98484397
:10155000642190FBF1F201FB12000990C648B0F93A
:101560000010642091FBF0F00890B248B0F9000040
:101570000A2190FBF1F201FB12000790AD48B0F98F
:10158000000090FBF1F00690DDE90801CDE90001D3
:10159000C8A1A748DDE9062307F074F8EEE3D248B6
:1015A000008810B1D1A00B9001E0D1A00B90D248DF
:1015B000008810B1CDA00C9001E0CDA00C900C984B
:1015C00009900B9808900246CCA19948099B07F016
:1015D00059F8D3E3C448008810B1C4A00B9001E0CF
:1015E000C3A00B90C448008810B1C0A00C9001E0CB
:1015F000BFA00C90CE48B0F90010CE48B0F9000062
:10160000CD4AB2F90020CDE9002002910C98099052
:10161000CA48B0F90030CAA18548099A07F032F8E3
:10162000ACE3C348B0F90000C249B1F90010CDE9FC
:101630000010C148B0F90030C048B0F90020CFA177
:101640007B4807F01FF899E3DB48B0F90000DB495D
:10165000B1F90010CDE90010D948B0F90030D948EF
:10166000B0F90020D8A1724807F00CF886E3E548ED
:10167000B0F90000E449B1F90010E44AB2F90020E1
:10168000E34BB3F90030CDE90232CDE90410CA488A
:10169000B0F90000C949B1F90010CDE90010C848FF
:1016A000B0F90030C748B0F90020DAA1604806F070
:1016B000E9FF63E314E34BE3E648B0F90000D149E6
:1016C000B1F90010D04AB2F90020CDE90021029012
:1016D000CE48B0F90030CE48B0F90020DEA1544821
:1016E00006F0D0FF4AE3EB48B0F90010D948B0F952
:1016F0000000C44AB2F90020C34BB3F90030CDE971
:101700000032CDE90201C148B0F90030C048B0F95B
:101710000020E149464806F0B5FF2FE3DD48B0F967
:101720000030CC48B0F90020DCA1414806F0AAFF07
:1017300024E3E94BD748B0F90020E8A13C4806F083
:10174000A1FF1BE3E44AF1A1394806F09BFF15E332
:10175000FA48B0F90000FA49B1F90010F94AB2F9B3
:101760000020CDE900210290F748B0F90030DA4AB4
:10177000F6A12F4806F086FF00E342E2D3E254E2EE
:1017800077E289E2ED48B0F90000ED49B1F90010C7
:10179000CDE90010EB48B0F90030EB48B0F900207B
:1017A000BD494431224806F06DFFE7E2C2E2C8E2DB
:1017B000F448B0F90010F448B0F90000F34AB2F967
:1017C0000020F34BB3F90030CDE90232CDE904013A
:1017D000DA48B0F90000DA49B1F90010CDE900109B
:1017E000D848B0F90030D848B0F90020AA4988316B
:1017F0000F4806F047FFC1E23CE00720202020CA46
:10180000C0CBC8C1D0CEC2CAC00A2050E2FBF53D51
:10181000252D75C2F20A2055F1E5F2E83D252D751A
:101820002E25303175C20A20743D256427430000FF
:10183000E20900102EE0072012E007203AE007201E
:10184000202020CAC0CBC8C1D0CEC2CAC00A2055F1
:10185000F1E5F2E83D252D752E25303175C20A20BF
:10186000743D256427430A2055E1E0F23D252D759E
:101870002E252D754200000030E00720202020CAD0
:10188000C0CBC8C1D0CEC2CAC00A20743D256427CF
:10189000430A2055E1E0F23D252D752E252D754298
:1018A0000A2049E1E0F23D252D642E2530327541B4
:1018B00000000000202020CAC0CBC8C1D0CEC2CAC0
:1018C000C00A2055E1E0F23D252D752E252D7542EB
:1018D0000A2049E1E0F23D252D642E253032754184
:1018E0000A20C2DBD5CEC40090000010C2CACB00D3
:1018F000C2DBCACB0000000092000010202020456F
:10190000746865726E65743A0A20C8EDF2E5F0ED10
:10191000E5F22025730A2044484350EAEBE8E5ED60
:10192000F22025730A204950E0E4F0E5F13A000086
:101930009A0000109800001096000010940000100B
:1019400020202045746865726E65743A0A20444808
:101950004350EAEBE8E5EDF22025730A204950E018
:10196000E4F0E5F13A0A20253033752E2530337541
:101970002E253033752E253033750000202020456C
:10198000746865726E65743A0A204950E0E4F0E5C7
:10199000F13A0A20253033752E253033752E253047
:1019A00033752E253033750A20CCE0F1EAE020EFC4
:1019B000EEE4F1E5F2E83A00A2000010A000001009
:1019C0009E0000109C000010202020457468657265
:1019D0006E65743A0A20CCE0F1EAE020EFEEE4F123
:1019E000E5F2E83A0A20253033752E253033752E7E
:1019F000253033752E253033750A20D8EBFEE73AB3
:101A000000000000AA000010A8000010A6000010AE
:101A1000A400001020202045746865726E65743A39
:101A20000A20253033752E253033752E2530337539
:101A30002E253033750A20D8EBFEE73A0A202530F0
:101A400033752E253033752E253033752E253033E2
:101A500075000000AC0000102020204574686572FD
:101A60006E65743A0A20D8EBFEE73A0A2025303337
:101A7000752E253033752E253033752E2530337570
:101A80000A20CFEEF0F22EF7F2E5EDE8FF20252D4B
:101A900075000000AE00001064BC0000202020454E
:101AA000746865726E65743A0A20CFEEF0F220F722
:101AB000F2E5EDE8FF20252D750A20CFEEF0F220AB
:101AC000E7E0EFE8F1E820252D750A20436F6D6D02
:101AD000756E6974793A00001600001020202045C8
:101AE000746865726E65743A0A20CFEEF0F220E7F2
:101AF000E0EFE8F1E820252D750A20436F6D6D7544
:101B00006E6974793A0A2025730000002020204570
:101B1000746865726E65743A0A20436F6D6D756EF8
:101B20006974793A0A2025730A20C0E4F0E5F1E0EF
:101B3000F22054524150204E31000000B6000010F7
:101B4000B4000010B2000010B000001020202045AA
:101B5000746865726E65743A0A2025730A20C0E4C1
:101B6000F0E5F1E0F22054524150204E310A202598
:101B70003033752E253033752E253033752E2530B4
:101B800033750000BE000010BC000010BA00001049
:101B9000B8000010FF48B0F90000FF49B1F900108B
:101BA000CDE90010FD48B0F90030FD48B0F9002043
:101BB000FC49FD4806F066FDE0E0FC48B0F9001085
:101BC000FB48B0F90000FB4AB2F90020FA4BB3F928
:101BD0000030CDE90232CDE90401EE48B0F9000051
:101BE000ED49B1F90010CDE90010EC48B0F9003032
:101BF000EB48B0F90020EB494431EB4806F042FDD8
:101C0000BCE0EA48B0F90000E949B1F90010CDE9BB
:101C10000010E848B0F90030E748B0F90020E14989
:101C20008C31E14806F02EFDA8E0E448B0F9000050
:101C3000E349B1F90010E34AB2F90020E24BB3F9ED
:101C40000030CDE90232CDE90410D848B0F90000E7
:101C5000D749B1F90010CDE90010D648B0F90030ED
:101C6000D548B0F90020CF49D031CF4806F00AFD61
:101C700084E0D248B0F90000D149B1F90010CDE9B3
:101C80000010D048B0F90030CF48B0F90020CF495B
:101C9000C54806F0F7FC71E0CD48B0F90010CD481A
:101CA000B0F90000CC4AB2F90020CC4BB3F90030B7
:101CB000CDE90232CDE90401C048B0F90000C049C5
:101CC000B1F90010CDE90010BE48B0F90030BE48AF
:101CD000B0F90020BD494431B34806F0D3FC4DE0D3
:101CE000BB48B0F90020BB48B0F90010BA48B0F9C1
:101CF0000000BA4BB3F90030CDE90230CDE904124F
:101D0000AE48B0F90000AE49B1F90010CDE90010BD
:101D1000AC48B0F90030AC48B0F90020B0A1A248FE
:101D200006F0B0FC2AE0BD480288BDA19E4806F03E
:101D3000A9FC23E0B9480288C3A19B4806F0A2FC95
:101D40001CE0B6480288CAA1974806F09BFC15E043
:101D5000B2480288D0A1944806F094FCD548017896
:101D60000078401ED34A107039B9D3480078D3495F
:101D70000870D3480078D349087000BF00BF29B06D
:101D800000BD10B5FFF74BF88748FEF7EAFECB48D9
:101D90000078FA2807DA4FF03E01CA480078824AF4
:101DA00002EB00100170FEF72FFF4FF0000408E077
:101DB000C549095D084605F09BFD04F1010000B22C
:101DC0000446B4F5806FF3DB10BDBE48007830B137
:101DD000BC480078A0F10100BA49087005E0B74896
:101DE0000078A0F10100B54908707047B548007847
:101DF000032806D1B148007800F10100AF4908700E
:101E000005E0B048007800F10100AE490870704765
:101E1000AC480078012806DDAA480078A0F101004E
:101E2000A849087005E0A5480078A0F10100A34981
:101E30000870704710B50121642004F0D0FF002124
:101E4000662004F0CCFFC021682004F0C8FFA82160
:101E50006A2004F0C4FF01216C2004F0C0FFF921C6
:101E60006E2004F0BCFFFF21702004F0B8FFFF21BA
:101E7000722004F0B4FFFF21742004F0B0FF0021B1
:101E8000762004F0ACFFC021A42004F0A8FFA82114
:101E9000A62004F0A4FF0121A82004F0A0FFFE2149
:101EA000AA2004F09CFFA121A02004F098FFA22109
:101EB000084604F094FFA121C82004F090FFA2215D
:101EC000CA2004F08CFF7021CC2004F088FF75211B
:101ED000CE2004F084FF6221D02004F080FF6C212A
:101EE000D22004F07CFF6921D42004F078FF632124
:101EF000D62004F074FF2021D82004F070FF0021C8
:101F0000DA2004F06CFFC021EC2004F068FFA82167
:101F1000EE2004F064FF0121F02004F060FF0221B4
:101F2000F22004F05CFFC021F42004F058FFA82147
:101F3000F62004F054FF0121F82004F050FF0421A2
:101F4000FA2004F04CFFC021FC2004F048FFA82137
:101F5000FE2004F044FF0121080204F040FF0621A6
:101F60004FF4817004F03BFFC0214FF4827004F005
:101F700036FFA8214FF4837004F031FF01214FF4A4
:101F8000847004F02CFF08214FF4857004F027FFC3
:101F9000C0219BE0BE000010BC000010BA00001081
:101FA000B800001034BD0000E2090010C6000010A7
:101FB000C4000010C2000010C0000010CE000010CD
:101FC000CC000010CA000010C80000104CBE000079
:101FD000D6000010D4000010D2000010D000001075
:101FE00020202045746865726E65743A0A20C0E44A
:101FF000F0E5F1E0F22054524150204E350A202500
:102000003033752E253033752E253033752E25301F
:1020100033750A20C2DBD5CEC40000005200001088
:10202000C2E2E5E4E8F2E520EFE0F0EEEBFC3A0A8C
:1020300020202020202025303375200A2020202039
:10204000202020202A0A0000C2E2E5E4E8F2E52090
:10205000EFE0F0EEEBFC3A0A202020202020253093
:102060003375200A202020202020202A0A0000008A
:10207000C2E2E5E4E8F2E520EFE0F0EEEBFC3A0A3C
:1020800020202020202025303375200A20202020E9
:1020900020202A0A000000000A2020202020CFE073
:1020A000F0EEEBFC0A20202020EDE520E2E5F0E553
:1020B000ED210A0056000010350000103400001019
:1020C0003800001037000010E20500104FF4867051
:1020D00004F085FEA8214FF4877004F080FE0121F2
:1020E0004FF4887004F07BFE09214FF4897004F0EE
:1020F00076FE10BD10B5FA480078FA490978084410
:102100002B287ED02EDC80F0C687DFE810F0570049
:10211000650080009900B500D100EA0003013A0192
:10212000EC05EC05EC05EC05EC05EC05EC05EC0527
:10213000EC05EC05EC05EC05570164018601BD01D9
:10214000EC05EC05EC05EC05EC05EC05DC01FD010E
:1021500016022F0248026102BF024403EC05EC059F
:102160006303820337287ED010DCA0F12C000B28FB
:10217000C9D2DFE810F0A603E103FB031604300424
:102180004A04640480049D04B704D1043D286BD044
:102190000ADCA0F138000528B5D2DFE810F0F10420
:1021A0000B0525053F0559053E287ED0FA287DD030
:1021B000FB287CD0FC2840F06E87F1E3CA480088F9
:1021C000022807D1C848008800F10100C6490880EC
:1021D000FFF70CFE00F05FBFC4480088022807D15B
:1021E000C248008800F10100C0490880FFF7EDFDFA
:1021F000BD480088022809D1BB48008800F10100D1
:1022000000E032E3B8490880FFF7F0FDE2E7B748A5
:102210000088022807D1B548008800F10100B349C1
:102220000880FFF7D2FDB0480088022807D1AE48E9
:10223000008800F10100AC490880FFF7D7FDC9E72D
:10224000AA480088022807D1A848008800F10100A8
:10225000A6490880FFF7B9FDA348008802280AD1E3
:10226000A148008801E0F7E3F7E300F101009E498F
:102270000880FFF7BBFDADE79C480088022807D126
:102280009A48008800F1010098490880FFF79DFDF9
:1022900095480088022807D19348008800F1010082
:1022A00091490880FFF7A2FD94E7F1E3F1E3F1E340
:1022B0008E480088022807D18C48008800F1010070
:1022C0008A490880FFF781FD87480088022807D1E6
:1022D0008548008800F1010083490880FFF786FDEA
:1022E00078E782480088022807D18048008800F1FA
:1022F00001007E490880FFF768FD7B4800880228BE
:1023000007D17948008800F1010077490880FFF77C
:102310006DFD5FE775480088022807D17348008883
:1023200000F1010071490880FFF74FFD6E480088F9
:10233000022807D16C48008800F101006A49088032
:10234000FFF754FD6A480088022819D168480088C0
:1023500000F101006649088061480078654908700D
:1023600060480078644908704FF0FC005C490870D0
:102370004FF000005B4908704FF0B8005F490880DB
:1023800028E75A480088022807D15848008800F1F9
:10239000010056490880FFF718FD554800880228BB
:1023A0000BD15348008800F10100514908804FF0DB
:1023B00000004B4908704B4908700BE74A480088F9
:1023C000022807D14848008800F1010046490880EA
:1023D000FFF70CFDFEE645480088022810D143486F
:1023E000008800F10100414908803D480078152827
:1023F00004D14FF014003A49087001E0FFF7E5FC02
:1024000039480088022807D13748008800F10100C8
:1024100035490880FFF7EAFCDCE6344800880228EA
:1024200007D13248008800F1010030490880FFF7E9
:10243000CCFC2D480088022807D12B48008800F1E9
:10244000010029490880FFF7D1FC294800880228AB
:1024500019D12748008800F101002549088020484B
:102460000078274908701F480078264908704FF007
:10247000FC001B4908704FF000001A49087040F238
:1024800069301E490880A5E618480088022807D14F
:102490001648008800F1010014490880FFF795FCF8
:1024A0001348008802280DD11148008800F101006E
:1024B0000F4908800F480078094908700E480078D5
:1024C0000849087086E608480088022807D10648AF
:1024D000008800F1010004490880FFF787FC79E6D5
:1024E00034000010370000104A0000104C000010AB
:1024F0004E0000103500001038000010540000108D
:102500003600001039000010FB480088022807D16F
:10251000F948008800F10100F7490880FFF778FCCE
:10252000F6480088022807D1F448008800F101002D
:10253000F2490880FFF75AFC4CE6EF480088022871
:1025400007D1ED48008800F10100EB490880FFF752
:102550005FFCEA480088022807D1E848008800F1BB
:102560000100E6490880FFF741FC33E6E2480088B5
:10257000022807D1E048008800F10100DE49088008
:10258000FFF746FCDD480088022807D1DB480088B9
:1025900000F10100D9490880FFF728FC1AE6D64867
:1025A0000088022807D1D448008800F10100D249F0
:1025B0000880FFF72DFCD1480088022807D1CF48BA
:1025C000008800F10100CD490880FFF70FFC01E60B
:1025D000C9480088022807D1C748008800F10100D7
:1025E000C5490880FFF714FCC4480088022807D1B9
:1025F000C248008800F10100C0490880FFF7F6FBDF
:10260000BF480088022803D0BD48008805281AD199
:102610004FF00300BA490880BA48B0F90000BA493F
:102620000978884208DDB7480088B7490978A0EBE7
:10263000010000B2B3490880B248B0F90000014679
:10264000102004F0CCFBB1480088022803D0AF482A
:102650000088052819D14FF00300AC490880A9482B
:10266000B0F9000042F21071884207DAA5480088EC
:10267000A7490978084400B2A2490880A148B0F9E6
:1026800000000146102004F0AAFBA3E59A48008848
:10269000022807D19848008800F101009649088077
:1026A000FFF7B6FB95480088022807D193480088B9
:1026B00000F1010091490880FFF798FB90480088DD
:1026C000022803D08E4800880F2826D14FF005003D
:1026D0008B4908808C4800784FF00A0190FBF1F09C
:1026E00000F101008B49B1F9001088420EDA8648EA
:1026F00000784FF00A0190FBF1F000F101008549EC
:102700000988A1EB000000B2824908808148B0F935
:1027100000000146162004F062FB7C480088022875
:1027200003D07A4800880F281ED14FF00500774962
:1027300008807848B0F90000B0F5FA5F0DDA744807
:1027400000784FF00A0190FBF1F000F101007149AF
:102750000988084400B26F4908806E48B0F900004B
:102760000146162004F03BFB6B480088022811D17B
:102770006948008800F1010067490880674840887F
:10278000674908800846B0F9000001464FF0140080
:1027900004F025FB1EE558480088022807D156485A
:1027A000008800F1010054490880FFF731FB5A48C6
:1027B000008802280DD15848008800F101005649D0
:1027C0000880584800785849087058480078584997
:1027D0000870FFE44A4800881E280DDD4B48008839
:1027E0001E2809DD5348007830B9FFF723FB4FF06E
:1027F0000100504908700BE040480088022807D1CA
:102800003E48008800F101003C490880FFF7EEFADD
:10281000E0E43B4800881E280DDD3C4800881E2867
:1028200009DD4448007830B9FFF704FB4FF00100A0
:102830004049087018E030480088022808D12E4826
:10284000008800F101002C490880FFF7E1FA0BE055
:102850002A480088022807D12848008800F1010092
:1028600026490880FFF7C2FAB4E4254800881E28EC
:102870000DDD264800881E2809DD2E48007830B975
:10288000FFF7D8FA4FF001002A49087018E01A48FB
:102890000088022808D11848008800F10100164974
:1028A0000880FFF7B5FA0BE014480088022807D12A
:1028B0001248008800F1010010490880FFF796FADD
:1028C000E9E30D480088022808D10B48008800F190
:1028D000010009490880FFF79BFA0BE007480088D0
:1028E000022807D10548008800F10100034908804B
:1028F000FFF77CFACFE300004C0000104A00001004
:10290000480000107C00001041000010460000103C
:1029100040000010840000104E000010181200103B
:102920008000001036000010340000103900001044
:102930003700001050000010FF480088022808D11E
:10294000FD48008800F10100FB490880FFF760FAAC
:102950000BE0FA480088022807D1F848008800F107
:102960000100F6490880FFF741FA94E3F248008835
:10297000022808D1F048008800F10100EE490880E3
:10298000FFF746FA0BE0ED480088022807D1EB4834
:10299000008800F10100E9490880FFF727FA7AE38F
:1029A000E5E2E5480088022808D1E348008800F104
:1029B0000100E1490880FFF72BFA0BE0DF480088AF
:1029C000022807D1DD48008800F10100DB490880BA
:1029D000FFF70CFA5FE3D8480088022808D1D648F0
:1029E000008800F10100D4490880FFF711FA0BE0DC
:1029F000D2480088022807D1D048008800F10100A1
:102A0000CE490880FFF7F2F945E3CB480088022859
:102A100008D1C948008800F10100C7490880FFF7C4
:102A2000F7F90BE0C5480088022807D1C3480088A1
:102A300000F10100C1490880FFF7D8F92BE3BE4837
:102A4000008802280AD1BC48008800F10100BA4978
:102A50000880FFF7DDF90DE078E013E1B748008862
:102A6000022807D1B548008800F10100B349088069
:102A7000FFF7BCF90FE3B048008802280BD1AE483D
:102A8000008800F10100AC490880FFF7C1F90EE0B1
:102A900012E129E1C8E1A9480088022807D1A74826
:102AA000008800F10100A5490880FFF79FF9F2E2D4
:102AB000A1480088022808D19F48008800F1010041
:102AC0009D490880FFF7A4F90BE09C480088022884
:102AD00007D19A48008800F1010098490880FFF763
:102AE00085F9D8E294480088022808D192480088E5
:102AF00000F1010090490880FFF78AF90BE08F4848
:102B00000088022807D18D48008800F101008B4918
:102B10000880FFF76BF9BEE287480088022808D1D9
:102B20008548008800F1010083490880FFF770F9AB
:102B30000BE082480088022807D18048008800F115
:102B400001007E490880FFF751F9A4E27A48008825
:102B5000022808D17848008800F1010076490880F1
:102B6000FFF756F90BE075480088022807D1734833
:102B7000008800F1010071490880FFF737F98AE207
:102B80006D480088022808D16B48008800F10100D8
:102B900069490880FFF73CF90BE068480088022883
:102BA00007D16648008800F1010064490880FFF7FA
:102BB0001DF970E260480088022808D15E4800884C
:102BC00000F101005C490880FFF722F90BE05B4847
:102BD0000088022807D15948008800F101005749B0
:102BE0000880FFF703F956E253480088022808D10D
:102BF0005148008800F101004F490880FFF708F9AB
:102C00000BE04E480088022807D14C48008800F1AC
:102C100001004A490880FFF7E9F83CE2464800888D
:102C2000022808D14448008800F101004249088088
:102C3000FFF7EEF80BE041480088022807D13F4833
:102C4000008800F101003D490880FFF7CFF822E23B
:102C500039480088022808D13748008800F101006F
:102C600035490880FFF7D4F80BE034480088022883
:102C700007D13248008800F1010030490880FFF791
:102C8000B5F808E22C480088022808D12A480088B4
:102C900000F1010028490880FFF7BAF80BE0274847
:102CA0000088022807D12548008800F10100234947
:102CB0000880FFF79BF8EEE11F480088022808D142
:102CC0001D48008800F101001B490880FFF7A0F8AB
:102CD00009E01B480088022805D11948008800F146
:102CE000010017490880D6E11648008802280BD158
:102CF0001448008800F10100124908801248007849
:102D000000F10100104908700B48008802282AD100
:102D10000948008800F10100074908800B48008835
:102D20004FF00A0190FBF1F201FB1200092814D1C7
:102D3000064800880CE000004C0000104A0000101B
:102D40004E00001048000010340000105200001027
:102D5000A0F10900FF49088005E0FE48008800F165
:102D60000100FC490880FC48008802281BD1FA4871
:102D7000008800F10100F8490880F64800884FF00B
:102D80000A0190FBF1F201FB120030B9F148008812
:102D900000F10900EF49088005E0EE480088A0F145
:102DA0000100EC490880ED48008802283BD1EB483F
:102DB000008800F10100E9490880E9480088E549F8
:102DC000098888420CD1E3480088B82808D14FF020
:102DD0001400E44908704FF00100E34908701CE05A
:102DE000DF480088DB49098888420ED1D94800882D
:102DF000A0F54071693908D14FF01E00D94908701B
:102E00004FF00100D849087007E04FF0FF00D549A6
:102E100008704FF00400D54908704FF00000D04909
:102E20000880CC49088036E1D148008802280BD1BF
:102E3000CF48008800F10100CD490880C9480078DA
:102E400000F10100C7490870CA48008802280BD168
:102E5000C848008800F10100C6490880C1480078D0
:102E6000A0F10100BF490870C348008802281CD1A6
:102E7000C148008800F10100BF490880B5480088BA
:102E80004FF0640190FBF1F201FB12005A2806DBBF
:102E9000B0480088A0F15A00AE49088005E0AD486E
:102EA000008800F10A00AB490880AB48008802287E
:102EB0001CD1A948008800F10100A7490880A54855
:102EC00000884FF0640190FBF1F201FB12000A2828
:102ED00006DAA048008800F15A009E49088005E003
:102EE0009C480088A0F10A009A4908809B48008805
:102EF00002283BD19948008800F1010097490880D9
:102F0000974800889349098888420CD191480088E5
:102F1000B82808D14FF01400924908704FF0010012
:102F2000914908701CE08E4800888A4909888842C7
:102F30000ED188480088A0F54071693908D14FF05A
:102F40001E00884908704FF001008749087007E0AB
:102F50004FF0FF00834908704FF004008349087068
:102F60004FF000007E4908807A49088093E081484C
:102F7000008802280BD17F48008800F101007D49BC
:102F8000088078480078A0F10100764908707A48F6
:102F9000008802281DD17848008800F10100764998
:102FA00008806C4800884FF47A7190FBF1F201FBC5
:102FB0001200B0F5617F06DB66480088A0F56170FD
:102FC0006449088005E06348008800F164006149B5
:102FD00008806148008802281CD15F48008800F101
:102FE00001005D4908805B4800884FF47A7190FBCE
:102FF000F1F201FB1200642806DA5648008800F559
:1030000061705449088005E052480088A0F16400CE
:10301000504908805148008802283BD14F48008819
:1030200000F101004D4908804D4800884949098850
:1030300088420CD147480088B82808D14FF01400C6
:10304000484908704FF00100474908701CE04448A7
:1030500000884049098888420ED13E480088A0F582
:103060004071693908D14FF01E003E4908704FF099
:1030700001003D49087007E04FF0FF003949087032
:103080004FF00400394908704FF0000034490880BF
:103090003049088000BF00BF3848007848B1344844
:1030A000008830B93348008818B94FF00000334920
:1030B000087010BD1CB532A103C9CDE90001FDF7B0
:1030C0001FF9314800684FF47A72B0FBF2F0A0F1BA
:1030D0000101B1F1807F00D327E021F07F40A0F112
:1030E00001004FF0E02250614FF0FF304FF01F021F
:1030F00000280ADA4FEAC2634FEA1363234C00F058
:103100000F05A5F10405635505E04FEAC2634FEAD8
:1031100013631F4C235400BF4FF000004FF0E02218
:1031200090614FF00700106100BF1A48006A40F438
:103130008010184908620846006A20F08050086232
:103140000846006C20F0010008641348006D6FF31E
:10315000090023E0520000104A0000104E00001049
:10316000540000103400001037000010560000100A
:1031700048000010460000104C00001050000010E5
:10318000007305323C4600002000001018ED00E0FE
:1031900000E400E000C0092000C00240FF490865CB
:1031A0000846006D20F0030008650846006D20F019
:1031B0000C0008650846006D20F0300008650846E0
:1031C000006D20F0C00008650846006D20F44070D6
:1031D0000865F348FDF7D3F900F08FFC0E2003F0EB
:1031E0006AFCA0F57F41FF3910D14FF4E161102056
:1031F00003F0F5FD0021142003F0F1FD4FF47A7186
:10320000162003F0ECFDFEF715FE01E001F04EF98B
:103210004FF4AF7003F09BFCE24908600846007869
:103220008DF80500084640788DF80400084680783F
:103230008DF8030006226946DB4806F031FADB48C8
:10324000406B80F48010D94948634FF0CC0003F004
:10325000E4FBD74908700846007818B108460078A2
:10326000202803D14FF00000D1490870CD2003F091
:10327000D4FBCF4948700846407818B108464078DA
:10328000202803D14FF00000C9494870CE2003F038
:10329000C4FBC74988700846807818B10846807812
:1032A000202803D14FF00000C1498870CF2003F0DF
:1032B000B4FBBF49C8700846C07818B10846C0784A
:1032C000202803D14FF00000B949C870D02003F086
:1032D000A4FBB74908710846007918B1084600797F
:1032E000202803D14FF00000B1490871D12003F02C
:1032F00094FBAF4948710846407918B108464079B7
:10330000202803D14FF00000A9494871D22003F0D2
:1033100084FBA74988710846807918B108468079EE
:10332000202803D14FF00000A1498871D32003F079
:1033300074FB9F49C8710846C07918B10846C07926
:10334000202803D14FF000009949C871D42003F020
:1033500064FB974908720846007A18B10846007A5B
:10336000202803D14FF0000091490872D52003F0C6
:1033700054FB8F4948720846407A18B10846407A93
:10338000202803D14FF00000894948724FF0000017
:103390008749487204F076FB022004F0C4FAACE1DD
:1033A0008448007828B14FF000008249087000F08E
:1033B0001CFC81480078002853D04FF000007E4963
:1033C00008707A48006A80F4801078490862FCF737
:1033D000E8FE03F0E9F97549496DC1F3400108467B
:1033E000764A7749FDF72BFB7049496D01F00101E1
:1033F0000846744A7449FDF722FB6C49496DC1F3D4
:10340000C0010846714A7249FDF719FB6749496DC9
:10341000C1F3800108466F4A6F49FDF710FB63490D
:10342000496DC1F3001108466C4A6D49FDF707FB71
:103430006248008858B96348008840B965480088E8
:1034400028B96248008810B96448008848B1FEF77E
:1034500051FE4FF00100634908704FF000006249CF
:1034600008806248007840B14FF000005F49087062
:103470005F48007808B1FDF78EF85E4800780028B4
:103480007ED04FF000005B4908704848406B80F4E4
:1034900080104649486300F041F95748B0F90000F0
:1034A000022802DD072000F0A7FCFDF70FFA06F066
:1034B000C9F8524800780028E2D050480078A0F1BE
:1034C00001004E49087008460078002858D1CC20E9
:1034D00003F0A3FA364908700846007818B1084688
:1034E0000078202803D14FF0000031490870CD202A
:1034F00003F093FA2E4948700846407818B1084600
:103500004078202803D14FF0000029494870CE2090
:1035100003F083FA264988700846807818B1084677
:103520008078202803D14FF0000021498870CF20F7
:1035300003F073FA1E49C8700846C07818B10846EF
:10354000C078202803D14FF000001949C870D0205E
:1035500003F063FA164908710846007918B1084665
:103560000079202803D14FF0000011490871D120C3
:1035700003F053FA0E4948710846407928B100E03B
:103580008DE008464079202803D14FF0000008491B
:103590004871D22003F041FA054931E000C00240F1
:1035A000809698008C0000101000001000C00920C8
:1035B00016000010590000105A00001046000010BC
:1035C0004000001048000010410000104C000010A6
:1035D000430000104A000010420000104E0000108E
:1035E000440000105E0000102C0000105B00001072
:1035F000640000105C000010000100105800001072
:1036000088710846807918B108468079202803D14E
:103610004FF0000039498871D32003F0FEF9374993
:10362000C8710846C07918B10846C079202803D16E
:103630004FF000003149C871D42003F0EEF92F4952
:1036400008720846007A18B10846007A202803D18B
:103650004FF0000029490872D52003F0DEF9274910
:1036600048720846407A18B10846407A202803D1AB
:103670004FF00000214948724FF000001F49487286
:103680004FF0C80003F017FA1D490880CA2003F064
:1036900012FA1C49088005F015FEFDF7CEF81A480D
:1036A000007868B14FF000001749087001F0C2F8C7
:1036B00000F0FCFE00F080F800F04FFB01F020FC71
:1036C0001248007828B14FF0000010490870FEF74A
:1036D00058FB0F48007880B14FF000000C4908708B
:1036E0000C48B0F90000B0F57A7F06DA0948008886
:1036F00000F1010000B20749088051E616000010F1
:103700003CAD00003EAD00005D0000105E0000100A
:103710005F000010000100107047704710B5FF48AF
:10372000B0F90000B4280CDAFD48B0F90000032815
:1037300007DDFC480088A0F1010000B2F9490880CB
:1037400006E0F848008800F1010000B2F549088061
:10375000F448B0F9000010F10A0F03DA6FF0090025
:10376000F0490880EF48B0F900000A2803DD4FF067
:103770000A00EC490880EB48B0F9000010F1050F91
:103780000ADAE948007838B9012001F00FF94FF062
:103790000000E64908800EE0E248B0F90000052884
:1037A00009DDE148007830B1002001F0FFF84FF06A
:1037B0000100DE49088010BD10B54FF00702104629
:1037C000C0EBC00202EB4202D94B03EB8202D2787B
:1037D000052A7EDAC0EBC00202EB420203EB820252
:1037E0009379C0EBC00202EB4202D14C04EB82029F
:1037F000D27903EB0222C0EBC00303EB430304EBDB
:1038000083031A62C0EBC00202EB4202234603EBC1
:103810008202137AC0EBC00202EB420204EB820286
:10382000527A03EB0222C0EBC00303EB430304EB29
:103830008303DA61C0EBC00202EB4202234603EBD2
:103840008202937AC0EBC00202EB420204EB8202D6
:10385000D27A03EB0222C0EBC00303EB430304EB79
:1038600083039A61C0EBC00202EB4202234603EBE2
:103870008202127BC0EBC00303EB430304EB830320
:103880005A62C0EBC00202EB4202234603EB820203
:10389000527BC0EBC00303EB430304EB830383F8C9
:1038A0005220C0EBC00202EB4202234603EB82022D
:1038B000927BC0EBC00303EB430304EB830383F869
:1038C0003E20C0EBC00202EB4202234603EB820221
:1038D00000E011E0137CC0EBC00202EB420204EBFB
:1038E0008202527C03EB0222C0EBC00303EB4303D2
:1038F00004EB8303DA642DE04FF00002C0EBC00359
:1039000003EB43038A4C04EB83039A61C0EBC003CF
:1039100003EB430304EB83031A62C0EBC00303EB26
:10392000430304EB8303DA61C0EBC00303EB4303FF
:1039300004EB83035A62C0EBC00303EB430304EBC5
:10394000830383F83E20C0EBC00303EB430304EB87
:103950008303DA64C0EBC00202EB4202744B03EB58
:103960008202926940F26C739A421ADDC0EBC00287
:1039700002EB42026E4B03EB82029269B2F5166FC4
:103980000FDCC0EBC00202EB420203EB8202926941
:10399000A2F26C724FF0320392FBF3F2654B1A7095
:1039A00013E0C0EBC00202EB4202614B03EB820268
:1039B0009269B2F5166F04DD4FF00A025D4B1A7082
:1039C00003E04FF000025B4B1A705A4A12780A2A41
:1039D00003DD4FF00A02574B1A70C0EBC00202EB36
:1039E0004202534B03EB820292694FF00A0392FBAF
:1039F000F3F212B2504B1A80C0EBC00202EB42024B
:103A00004B4B03EB8202126A002A1ADDC0EBC002A4
:103A100002EB420203EB8202126A9B2A11DCC0EB2A
:103A2000C00202EB420203EB8202126A02EB820244
:103A30004FEA42024FF0960392FBF3F23F4B1A70AB
:103A400012E0C0EBC00202EB4202394B03EB8202F0
:103A5000126A9B2A04DD4FF00002384B1A7003E013
:103A60004FF00002354B1A70344A12780A2A03DDEF
:103A70004FF00A02314B1A70C0EBC00202EB420257
:103A80002B4B03EB8202126A12B22D4B1A80C0EB51
:103A9000C00202EB4202264B03EB8202526A12B2D0
:103AA000284B1A80284AB2F900201146274AB2F959
:103AB000002001FB02F14FF4C85291FBF2F21146D3
:103AC0000AB2234B1A80204AB2F902201146214A39
:103AD000B2F90020A1EB020211461F4AB2F9002000
:103AE00001FB02F14FF47A7291FBF2F21146C1F13F
:103AF000000212B2194B1A8010BD1948406820F418
:103B0000403040F48030164948600846406820F450
:103B1000404040F480404860084623E012E007201F
:103B20000001001032000010ED00001014E007202A
:103B3000280A00106100001036E007206200001023
:103B400038E007203AE00720181200107C0000102F
:103B50002EE00720800000108400001030E00720D5
:103B600000C00240C06840F04040C8600846406C59
:103B700020F4403040F4003048640846406C20F4A3
:103B8000404040F4004048640846C06C20F040408B
:103B900040F00040C864FF48006820F0E060FD4944
:103BA00008600846006840F4001008600846006895
:103BB00020F4803008600846006820F47F4040F41C
:103BC000807008604FF48070C8604FF016004FF0AE
:103BD000010101FA00F14FEA50124FF0E02303EB2C
:103BE0008202C2F8001100BF704710B5EA49498847
:103BF000E94A1288891A09B20846FCF76FFEE749BC
:103C00000880E5498988E44A5288891A09B2084639
:103C1000FCF764FEE1494880DF498988DE4A128862
:103C2000891A09B20846FCF759FEDC498880084623
:103C3000B0F90400B0F5967F04DAD7488088D849F7
:103C4000088014E0D548B0F90200B0F5967F04DA98
:103C5000D1484088D249088009E0D048B0F9000036
:103C6000B0F5967F03DACC480088CD490880CC486F
:103C7000B0F90000CB49CC4A127801EB8211CB4A53
:103C8000127841F82200C948007810F0030F1CD1C7
:103C90004FF00002114610460CE0C24AC24B1B789E
:103CA00002EB831252F820200A44114600F101026F
:103CB000D2B210461028F0DB4FEA211212B2BC4BF0
:103CC000B94C247823F8142000BFB7480078401C72
:103CD000C0B2B549087003280FDB4FF00000087030
:103CE000B248007800F10100B04908700846007839
:103CF000102802DB4FF0000008704FF00000AD49C3
:103D00000870A948007840B9A248006820F0FF0078
:103D100000F101009F49086018E0A34800780128DD
:103D200008D19C48006820F0FF0000F1020099498A
:103D300008600BE09C480078022807D1954800688D
:103D400020F0FF0040F02000924908609148006890
:103D500040F080708F49086010BD9748006A40F4B9
:103D6000000095490862954890F84D0210F01F0F29
:103D70000FD09348008800F1010000B290490880FC
:103D80000846B0F90000322812DD4FF032000880FA
:103D90000EE08B480088A0F1010000B2884908803D
:103DA0000846B0F90000002802DA4FF00000088051
:103DB0008348B0F90000302804DD4FF0010081494C
:103DC000087008E07E48B0F90000022803DA4FF0DE
:103DD00000007C4908707B48007830B17648C06BA1
:103DE00040F400007449C86305E07348806B40F4F8
:103DF000000071498863704770B50446C4EBC40085
:103E000000EB40006D4901EB800090F83E00054654
:103E1000C4EBC40000EB400001EB8000006A6E2898
:103E20004CDBC4EBC40000EB400001EB8000006AF7
:103E3000C82843DCC4EBC40000EB400001EB800069
:103E4000B0F940000A2838DAC4EBC40000EB4000A7
:103E500001EB8000B0F8400000F1010000B2C4EBBB
:103E6000C40101EB4101554A02EB8101A1F8400078
:103E7000C4EBC40000EB4000114601EB8000B0F938
:103E800040000A2819DB4FF00A00C4EBC40101EB23
:103E9000410102EB8101A1F84000C4EBC40000EB3A
:103EA0004000114601EB8000407810F0200F04D153
:103EB00001220521204600F0DAFD87E0C4EBC400B2
:103EC00000EB40003D4901EB8000006A6E287DDA7E
:103ED000C4EBC40000EB400001EB8000006A002846
:103EE00074DBC4EBC40000EB400001EB8000B0F9D0
:103EF0004000002839DDC4EBC40000EB400001EBBA
:103F00008000B0F84000A0F1010000B2C4EBC40191
:103F100001EB4101294A02EB8101A1F84000C4EB09
:103F2000C40000EB4000114601EB8000B0F94000F6
:103F300000284BDC4FF00000C4EBC40101EB410151
:103F400002EB8101A1F84000C4EBC40000EB40008B
:103F5000114601EB8000407810F0200F36D000228F
:103F60000521204600F083FD30E0C4EBC40000EBE7
:103F70004000124901EB8000B0F94000002825DA2A
:103F80004FF00000C4EBC40101EB41010B4A02EB0E
:103F9000810119E000400340140100101A010010D3
:103FA00020010010180E00100E0100100F0100106B
:103FB000181200100B01001000C00920280A001080
:103FC0000401001006010010A1F8400015F0010FD7
:103FD00044D0C4EBC40000EB4000FF4901EB80007B
:103FE000B0F942000A2838DAC4EBC40000EB400004
:103FF00001EB8000B0F8420000F1010000B2C4EB18
:10400000C40101EB4101F44A02EB8101A1F8420035
:10401000C4EBC40000EB4000114601EB8000B0F996
:1040200042000A2878DB4FF00A00C4EBC40101EB20
:10403000410102EB8101A1F84200C4EBC40000EB96
:104040004000114601EB8000407810F0100F63D162
:1040500001220421204600F00AFD5DE015F0010F69
:104060005AD1C4EBC40000EB4000DB4901EB8000F7
:10407000B0F94200002839DDC4EBC40000EB400079
:1040800001EB8000B0F84200A0F1010000B2C4EBE7
:10409000C40101EB4101D04A02EB8101A1F84200C9
:1040A000C4EBC40000EB4000114601EB8000B0F906
:1040B0004200002830DC4FF00000C4EBC40101EBEB
:1040C000410102EB8101A1F84200C4EBC40000EB06
:1040D0004000114601EB8000407810F0100F1BD01B
:1040E00000220421204600F0C2FC15E0C4EBC4000D
:1040F00000EB4000B84901EB8000B0F94200002815
:104100000ADA4FF00000C4EBC40101EB4101B24AEE
:1041100002EB8101A1F8420015F0020F46D0C4EB7A
:10412000C40000EB4000AC4901EB8000B0F9440052
:10413000B0F5966F74DAC4EBC40000EB400001EBFD
:104140008000B0F8440000F1010000B2C4EBC401EB
:1041500001EB4101A04A02EB8101A1F84400C4EB4C
:10416000C40000EB4000114601EB8000B0F94400B0
:10417000B0F5966F54DB4FF49660C4EBC40101EBCD
:10418000410102EB8101A1F84400C4EBC40000EB43
:104190004000114601EB8000407810F0010F3FD144
:1041A00001220021204600F062FC39E015F0020FE8
:1041B00036D1C4EBC40000EB4000874901EB80001E
:1041C000B0F8440060B3C4EBC40000EB400001EB66
:1041D0008000B0F84400A0F1010000B2C4EBC401BB
:1041E00001EB41017C4A02EB8101A1F84400C4EBE0
:1041F000C40000EB4000114601EB8000B0F8440021
:1042000070B9C4EBC40000EB400001EB80004078C3
:1042100010F0010F04D000221146204600F027FCC8
:1042200015F0080F44D0C4EBC40000EB40006A490D
:1042300001EB8000B0F94600282838DAC4EBC4004E
:1042400000EB400001EB8000B0F8460000F10100F7
:1042500000B2C4EBC40101EB41015F4A02EB8101F2
:10426000A1F84600C4EBC40000EB4000114601EB8E
:104270008000B0F9460028286DDB4FF02800C4EB21
:10428000C40101EB410102EB8101A1F84600C4EB3E
:10429000C40000EB4000114601EB8000407810F0B4
:1042A000020F58D101221146204600F0E0FB52E0F7
:1042B00015F0080F4FD1C4EBC40000EB4000464995
:1042C00001EB8000B0F9460000282EDDC4EBC400ED
:1042D00000EB400001EB8000B0F84600A0F10100C7
:1042E00000B2C4EBC40101EB41013B4A02EB810186
:1042F000A1F84600C4EBC40000EB4000114601EBFE
:104300008000B0F8460030BB4FF00000C4EBC401A1
:1043100001EB410102EB8101A1F8460002464FF09A
:104320000101204600F0A3FB15E0C4EBC40000EB44
:104330004000294901EB8000B0F9460000280ADA64
:104340004FF00000C4EBC40101EB4101224A02EB33
:104350008101A1F8460015F0100F48D0C4EBC4004D
:1043600000EB40001C4901EB8000B0F94800282810
:104370003CDAC4EBC40000EB400001EB8000B0F875
:10438000480000F1010000B2C4EBC40101EB41019F
:10439000114A02EB8101A1F84800C4EBC40000EB14
:1043A0004000114601EB8000B0F94800282879DB75
:1043B0004FF02800C4EBC40101EB410102EB810185
:1043C000A1F84800C4EBC40000EB4000114601EB2B
:1043D0008000407802E00000280A001010F0040F6E
:1043E00060D101220221204600F041FB5AE015F085
:1043F000100F57D1C4EBC40000EB40002A4901EB79
:104400008000B0F8480070B3C4EBC40000EB40007B
:1044100001EB8000B0F84800A0F1010000B2C4EB4D
:10442000C40101EB4101204A02EB8101A1F84800DF
:10443000C4EBC40000EB4000114601EB8000B0F873
:10444000480078BB4FF00000C4EBC40101EB410110
:1044500002EB8101A1F8480002464FF0020120461C
:1044600000F005FB1EE0C4EBC40000EB40000E4969
:1044700001EB8000B0F948000A2813DDC4EBC4004A
:1044800000EB400001EB8000B0F84800A0F1010013
:1044900000B2C4EBC40101EB4101034A02EB81010C
:1044A000A1F8480070BD0000280A001010B51020C7
:1044B00002F001FB00B2AD490880142002F0FBFAC3
:1044C00000B2AB490880162002F0F5FA00B2A94903
:1044D0000880202002F0EFFA00B2A7490880C82027
:1044E00002F0E9FA00B2A5490880CA2002F0E3FA16
:1044F00000B2A34908804FF0000004460AE004F12E
:10450000CC01084602F089FA9E49085504F10100E1
:10451000C0B20446092CF2DB4FF000009949487202
:1045200004460BE0CC2101EB4401084602F075FA89
:104530009549085504F10100C0B20446092CF1DB8D
:104540004FF00000904948724FF0EC0002F0B3FACF
:1045500000B28E490880EE2002F0ADFA00B28C491C
:104560000880F02002F0A7FA00B28A490880F22001
:1045700002F0A1FA00B288490880F42002F09BFA08
:1045800000B286490880F62002F095FA00B284490C
:104590000880F82002F08FFA00B282490880FA20E1
:1045A00002F089FA00B280490880FC2002F083FA08
:1045B00000B27E490880FE2002F07DFA00B27C49FC
:1045C00008804FF4807002F076FA00B279490880D2
:1045D0004FF4817002F06FFA00B2774908804FF40F
:1045E000827002F068FA00B2744908804FF4837058
:1045F00002F061FA00B2724908804FF4847002F050
:104600005AFA00B26F4908804FF4857002F053FAED
:1046100000B26D4908804FF4867002F04CFA00B287
:104620006A4908804FF4877002F045FA00B2684981
:1046300008804FF4887002F03EFA00B265490880A5
:104640004FF4897002F037FA00B26349088068209D
:1046500002F031FA00B2614908806A2002F02BFAB8
:1046600000B25F4908806C2002F025FA00B25D4973
:1046700008806E2002F01FFA00B25B4908807020AB
:1046800002F019FA00B259490880722002F013FAB8
:1046900000B257490880742002F00DFA00B2554963
:1046A0000880762002F007FA00B253490880A4205F
:1046B00002F001FA00B251490880A62002F0FBF98D
:1046C00000B24F490880A82002F0F5F900B24D4928
:1046D0000880AA2002F0EFF900B24B4908804FF49D
:1046E000C87002F0E8F900B2484908804FF4C97078
:1046F00002F0E1F900B2464908804FF4CA7002F0B6
:10470000DAF900B2434908804FF4CB7002F0D3F9D4
:1047100000B2414908804FF4CC7002F0CCF900B2ED
:104720003E4908804FF4CD7002F0C5F900B23C4913
:1047300008804FF4CE7002F0BEF900B2394908800B
:104740004FF4CF7002F0B7F900B2374908804FF448
:10475000D07002F0B0F900B2344908804FF4D17043
:1047600002F0A9F900B23249088010BD7C000010A7
:10477000800000108400001088000010AC000010C1
:10478000AE0000104013001016000010B000001022
:10479000B2000010B4000010B6000010B800001005
:1047A000BA000010BC000010BE000010C0000010D5
:1047B000C2000010C4000010C6000010C8000010A5
:1047C000CA000010CC000010CE000010D000001075
:1047D000D2000010D4000010D60000109400001089
:1047E00096000010980000109A0000109C00001025
:1047F0009E000010A0000010A2000010A4000010F5
:10480000A6000010A8000010AA000010D800001098
:10481000DA000010DC000010DE000010E0000010E4
:10482000E2000010E4000010E6000010E8000010B4
:10483000EA000010FF49097841B1FF49096821F0F9
:10484000010101F10101FC4A116005E0FA49096822
:1048500021F00101F84A11604FF0000077E0C0EB51
:10486000C00101EB4101F54A02EB81014978E1B158
:10487000C0EBC00101EB410112F82110032914D152
:1048800000F103014FF0010202FA01F2EA4909685E
:1048900021EA020100F103024FF0010303FA02F3DF
:1048A00041EA0301E44A11604DE0C0EBC00101EBB5
:1048B0004101E24A02EB81014978E1B1C0EBC0015C
:1048C00001EB410112F82110052914D100F10F016B
:1048D0004FF0010202FA01F2D749096821EA020108
:1048E00000F10F024FF0010303FA02F341EA030162
:1048F000D14A116027E000F103014FF0010202FAF2
:1049000001F2CD49096821EA020100F103024FF0EA
:10491000000303FA02F341EA0301C74A116000F100
:104920000F014FF0010202FA01F2C349096821EABE
:10493000020100F10F024FF0000303FA02F341EA13
:104940000301BD4A116000F10101C9B208460C28FB
:1049500085DBB9490968BA4A126881EA0201B64A98
:10496000126801EA0201B74A1160B7490968126882
:1049700041EA0201B44A1160AF490968B04A1268BD
:1049800081EA0201AE4A126801EA02016FEA0101FE
:10499000AE4A1160AC490968126801EA0201AA4AEC
:1049A0001160A5490968A64A1160704738B50446E8
:1049B000012C30D1A64908704FF01E004FF4FA7355
:1049C0004FF000024FF0320100904FF0010001F073
:1049D000C3FE204697490870984890F84D0220F091
:1049E0001700964981F84D024FF000019348A0F856
:1049F0009012A0F88E12A0F88C12A0F89212A0F8D3
:104A0000941294480088002830D00122114692A0C8
:104A100001F0ECFC2AE04FF000008D4908700346DD
:104A200002460146009001F097FE4FF000008149D8
:104A30000870824890F84D0220F017007F4981F8F5
:104A40004D024FF000017D48A0F89012A0F88E12A0
:104A5000A0F88C12A0F89212A0F89412884800884E
:104A600020B10022012187A001F0C0FC38BDF8B5BB
:104A700004460D461646012E7DD1072CFCD1E5B922
:104A8000C4EBC40000EB40006C4901EB80004078AF
:104A900040F00100C4EBC40101EB4101674A02EBA5
:104AA0008101487040F213134FF000024FF01901DA
:104AB0004FF00100FBF754FBBBE0012D23D1C4EB09
:104AC000C40000EB40005D4901EB8000407840F0FD
:104AD0000200C4EBC40101EB4101584A02EB810121
:104AE00048704FF0E1034FF0190211464FF00300F8
:104AF000FBF736FB0020E12319221146009003202A
:104B000001F02AFE95E0022D23D1C4EBC40000EB96
:104B100040004A4901EB8000407840F00400C4EBBB
:104B2000C40101EB4101454A02EB810148704FF09D
:104B3000C8034FF0190211464FF00400FBF710FBB9
:104B40000020C823192211460090042001F004FE21
:104B50006FE0032D21D1C4EBC40000EB40003749C6
:104B600001EB8000407840F00800C4EBC40101EB89
:104B70004101324A00E0ABE002EB810148704FF0A6
:104B800000031A464FF064014FF00100FBF7E8FA0A
:104B90004FF00000484908704BE0042D23D1C4EBCE
:104BA000C40000EB4000254901EB8000407840F054
:104BB0001000C4EBC40101EB4101204A02EB81016A
:104BC00048704FF096034FF0190211464FF0020063
:104BD000FBF7C6FA00209623192211460090022006
:104BE00001F0BAFD25E0052D23D1C4EBC40000EB94
:104BF0004000124901EB8000407840F02000C4EBF7
:104C0000C40101EB41010D4A02EB810148704FF0F4
:104C1000FA034FF000024FF019014FF00100FBF7CB
:104C20009FFA1E20FA23002219210090012001F092
:104C300093FD43E0ED00001024010010280A00104D
:104C40002C01001030010010280100103401001068
:104C500030000010D80000104D61696E20706F7731
:104C6000657220616C61726D2E20506F77657220C5
:104C7000736F7572636520697320414342000000C1
:104C8000DA0000104D61696E20706F7765722061E7
:104C90006C61726D20636C6561722E20506F776558
:104CA0007220736F75726365206973206D61696E20
:104CB00020706F776572000078000010C4EBC400AC
:104CC00000EB40008B4901EB800080F853500FE16E
:104CD000002EFCD1072CFAD1FDB94FF00000864917
:104CE0000870844890F84D0220F03F00814981F817
:104CF0004D024FF000017F48A0F88E12A0F88C12F0
:104D0000A0F89012A0F89212A0F894120B461A463E
:104D100019461846FBF724FAEAE0012D38D1C4EB16
:104D2000C40000EB4000734901EB8000407820F0A4
:104D30000200C4EBC40101EB41016E4A02EB8101A8
:104D400048704FF000006C490870104690F84D0212
:104D500020F03F00114681F84D024FF0000110464F
:104D6000A0F88E12A0F88C12A0F89012A0F892125F
:104D7000A0F894120B461A4619461846FBF7F0F9AC
:104D80000020034602460146009001F0E5FCAFE03A
:104D9000022D38D1C4EBC40000EB4000554901EBB3
:104DA0008000407820F00400C4EBC40101EB410115
:104DB000504A02EB810148704FF000004E490870E4
:104DC000104690F84D0220F03F00114681F84D0248
:104DD0004FF000011046A0F88E12A0F88C12A0F837
:104DE0009012A0F89212A0F894120B461A46194697
:104DF0001846FBF7B5F9002003460246014600902D
:104E000001F0AAFC74E0032D21D14FF000003A49D3
:104E10000870C4EBC40000EB4000364901EB800091
:104E2000407820F03F00C4EBC40101EB4101314A5E
:104E300002EB810148704FF000031A4619461846EC
:104E4000FBF78EF94FF001002C49087050E0042D5B
:104E500026D14FF0000028490870264890F84D02EE
:104E600020F03F00234981F84D024FF00001214816
:104E7000A0F88E12A0F88C12A0F89012A0F892124E
:104E8000A0F894120B461A4619461846FBF768F923
:104E90000020034602460146009001F05DFC27E039
:104EA000052D25D14FF0000013490870114890F8E6
:104EB0004D0220F03F000F4981F84D024FF00001F4
:104EC0000C48A0F88E12A0F88C12A0F89012A0F84E
:104ED0009212A0F894120B461A4619461846FBF790
:104EE0003FF90020034602460146009001F034FCE1
:104EF00000BFF8BD280A0010ED0000107800001077
:104F0000FF48B0F90000FF490880FF48B0F90000F1
:104F1000FE490880FE4800884FEA0060FD49098884
:104F200000EB0140FC49B1F9001000EB0120FB4906
:104F3000B1F900100844FA490860FA4800884FEABD
:104F40000060F949098800EB0140F849B1F9001007
:104F500000EB0120F649B1F900100844F54908605A
:104F6000F54800884FEA0060F449098800EB0140E9
:104F7000F349B1F9001000EB0120F249B1F900103A
:104F80000844F1490860F14800884FEA0060F049A0
:104F9000098800EB0140EF49B1F9001000EB012056
:104FA000ED49B1F900100844EC490860EC4800886C
:104FB0004FEA0060EB49098800EB0140EA49B1F98A
:104FC000001000EB0120E949B1F900100844E8495C
:104FD0000860E84800884FEA0060E749098800EB6C
:104FE0000140E649B1F9001000EB0120E449B1F9B4
:104FF00000100844E3490860E34800884FEA006075
:10500000E249098800EB0140E149B1F9001000EBE9
:105010000120E049B1F900100844DF490860DF4889
:1050200000884FEA0060DE49098800EB0140DD4955
:10503000B1F9001000EB0120DB49B1F90010084480
:10504000DA490860DA48B0F90000DA490880DA483D
:10505000B0F900000880D948B0F90000D8490880AC
:10506000D848B0F90000D8490880D848B0F9000005
:10507000D7490880D748B0F90000D7490880D748F9
:10508000B0F90000D6490880D648B0F90000D649EA
:105090000880D648B0F90000D5490880D548B0F955
:1050A0000000D5490880D54890F88A02D449088084
:1050B000704770B50546012D10D14FF000040BE08C
:1050C000D04A125D114604F59672104601F043FE77
:1050D00004F10100C0B20446402CF1DB70BD70B594
:1050E0000546012D10D14FF000040BE0C64A125DB9
:1050F000114604F1CC02104601F02DFE04F101002E
:10510000C0B20446102CF1DB70BD70B50546012D10
:1051100010D14FF000040BE0BC4A125D114604F1BF
:10512000DC02104601F017FE04F10100C0B2044693
:10513000102CF1DB70BD704710B50446012C05D171
:105140007048B0F90010C82001F049FE10BD10B53C
:105150000446012C05D16D48B0F90010CA2001F0B9
:105160003EFE10BD10B50446012C2FD16C480068DE
:10517000C0B26A4908806A480068C0F307206649DF
:10518000088067480068C0F30740624908806448A7
:1051900000684FEA10605E4908806048B0F900106E
:1051A0004FF0EC0001F01BFE5B48B0F90010EE2060
:1051B00001F015FE5748B0F90010F02001F00FFE85
:1051C0005348B0F90010F22001F009FE10BD10B5EF
:1051D0000446012C2FD157480068C0B254490880BA
:1051E00054480068C0F307205049088051480068BF
:1051F000C0F307404C4908804E4800684FEA1060F1
:10520000484908804A48B0F900104FF0F40001F016
:10521000E6FD4648B0F90010F62001F0E0FD4248F6
:10522000B0F90010F82001F0DAFD3E48B0F90010A6
:10523000FA2001F0D4FD10BD10B50446012C30D188
:1052400041480068C0B23F4908803F480068C0F349
:1052500007203B4908803C480068C0F307403749B5
:105260000880394800684FEA1060334908803548A3
:10527000B0F900104FF0FC0001F0B1FD3048B0F97A
:105280000010FE2001F0ABFD2C48B0F90010200208
:1052900001F0A5FD2848B0F900104FF4817001F02D
:1052A0009EFD10BD10B50446012C28D12B48006886
:1052B000C0B22949088029480068C0F30720254961
:1052C000088026480068C0F3074021490880234829
:1052D00000684FEA10601D4908801F48B0F90010AF
:1052E0004FF4827001F07BFD1A48B0F900104FF4C2
:1052F000837001F074FD1648B0F9001088E092E068
:10530000AC00001042E00720AE00001044E007208F
:10531000B6000010B4000010B2000010B000001081
:1053200048E00720BE000010BC000010BA000010CA
:10533000B80000104CE00720C6000010C4000010A8
:10534000C2000010C000001050E00720CE00001086
:10535000CC000010CA000010C800001054E0072064
:10536000D6000010D4000010D2000010D0000010B1
:1053700058E007209A0000109800001096000010D6
:10538000940000105CE00720A2000010A0000010B4
:105390009E0000109C00001060E00720AA00001092
:1053A000A8000010A6000010A400001064E0072070
:1053B000D80000106AE00720DA000010DC000010BE
:1053C0006CE00720DE0000106EE00720E000001017
:1053D00070E00720E200001072E00720E4000010F7
:1053E00074E00720E600001076E00720E8000010D7
:1053F00078E00720EA0000107AE00720280A001071
:105400009EE0072078120010401300105013001087
:105410004FF4847001F0E3FCFF48B0F900104FF442
:10542000857001F0DCFC10BD10B50446012C32D1B2
:10543000FA480068C0B2FA490880F8480068C0F32A
:105440000720F8490880F5480068C0F30740F6498E
:105450000880F24800684FEA1060F4490880F0487C
:10546000B0F900104FF4867001F0B9FCED48B0F9C6
:1054700000104FF4877001F0B2FCEB48B0F9001057
:105480004FF4887001F0ABFCE848B0F900104FF41D
:10549000897001F0A4FC10BD10B50446012C2FD179
:1054A000E3480068C0B2E3490880E1480068C0F3FF
:1054B0000720E1490880DE480068C0F30740DF4963
:1054C0000880DB4800684FEA1060DD490880D94851
:1054D000B0F900104FF0680001F081FCD648B0F937
:1054E00000106A2001F07BFCD448B0F900106C2059
:1054F00001F075FCD248B0F900106E2001F06FFC8D
:1055000010BD10B50446012C2FD1CE480068C0B2A2
:10551000CD490880CB480068C0F30720CB490880FC
:10552000C8480068C0F30740C9490880C5480068FA
:105530004FEA1060C7490880C348B0F900104FF027
:10554000700001F04CFCC148B0F90010722001F06D
:1055500046FCBF48B0F90010742001F040FCBD4883
:10556000B0F90010762001F03AFC10BD10B50446E9
:10557000012C2FD1B8480068C0B2B8490880B6489D
:105580000068C0F30720B6490880B3480068C0F33C
:105590000740B4490880B04800684FEA1060B2493B
:1055A0000880AE48B0F900104FF0A40001F017FCDD
:1055B000AB48B0F90010A62001F011FCA948B0F9E1
:1055C0000010A82001F00BFCA748B0F90010AA2099
:1055D00001F005FC10BD10B50446012C06D1A3480E
:1055E000B0F900104FF4C87001F0F9FB10BD10B510
:1055F0000446012C06D19E48B0F900104FF4C97042
:1056000001F0EDFB10BD10B50446012C06D1994800
:10561000B0F900104FF4CA7001F0E1FB10BD10B5F5
:105620000446012C06D19448B0F900104FF4CB7019
:1056300001F0D5FB10BD10B50446012C06D18F48F2
:10564000B0F900104FF4CC7001F0C9FB10BD10B5DB
:105650000446012C06D18A48B0F900104FF4CD70F1
:1056600001F0BDFB10BD10B50446012C06D18548E4
:10567000B0F900104FF4CE7001F0B1FB10BD10B5C1
:105680000446012C06D18048B0F900104FF4CF70C9
:1056900001F0A5FB10BD10B50446012C06D17B48D6
:1056A000B0F900104FF4D07001F099FB10BD10B5A7
:1056B0000446012C06D17648B0F900104FF4D170A1
:1056C00001F08DFB10BD704770477047012806D16F
:1056D00000BF4EF6EE616F4A118000BF00BF7047F9
:1056E0002DE9F04385B004460F4615461E46DDE918
:1056F0000C894FF0140268A16846FAF7E3FD4FF0F9
:105700000A0094FBF0F100FB114000F13000C0B240
:105710008DF801004FF00A0094FBF0F000F130002A
:10572000C0B28DF80000634800EB87000188ADF837
:10573000031080788DF805004FF00A0095FBF0F11A
:1057400000FB115000F13000C0B28DF808004FF09E
:105750000A0095FBF0F000F13000C0B28DF80700B0
:105760004FF00A0096FBF0F100FB116000F13000F1
:10577000C0B28DF80C004FF00A0096FBF0F000F17B
:105780003000C0B28DF80B004FF00A0098FBF0F12A
:1057900000FB118000F13000C0B28DF80F004FF017
:1057A0000A0098FBF0F000F13000C0B28DF80E0056
:1057B0004FF00A0099FBF0F100FB119000F130006E
:1057C000C0B28DF812004FF00A0099FBF0F000F122
:1057D0003000C0B28DF81100684605B0BDE8F08316
:1057E00001B590B03449109801EBC0104E223349F6
:1057F0000790FAF767FD08984FEA401008900EA945
:10580000089801F006FA09A90898001D01F001FAAC
:105810000DA90898083053E0CE00001058E007208A
:10582000D0000010D2000010D4000010D6000010EC
:105830005CE0072094000010960000109800001013
:105840009A00001060E007209C0000109E000010ED
:10585000A0000010A200001064E00720A4000010C7
:10586000A6000010A8000010AA00001068E00720A1
:105870006AE007206CE007206EE0072070E0072058
:1058800072E0072074E0072076E0072078E0072028
:105890007AE007203EE0072030302FFFEDE22F3086
:1058A00030202030303A30303A3030202020202054
:1058B0002020000030BC000000C00720D8BE00003F
:1058C00001F0A7F90CA908980C3001F0A2F90BA976
:1058D0000898103001F09DF90AA90898143001F0D9
:1058E00098F99DF83800552838D19DF83A0052288B
:1058F00033D1FF49109801EBC0103222FDA107906F
:10590000FAF7E0FC9DF832009DF83110CDE9001067
:105910009DF8300006909DF8340005909DF8350004
:1059200004909DF83600039004A90EC9FFF7D8FE35
:10593000EF490790109801EBC01011301422069027
:105940000799FAF7BFFCEA49109801EBC01028301C
:105950001422F6A10790FAF7B5FCC5E29DF83800CD
:1059600050287ED14FF000000F90E149109801EBD4
:10597000C0110F9808444FF01702F2A10790FAF7F0
:10598000A1FC0F9800F117000F909DF832009DF8D0
:105990003110CDE900109DF8300006909DF83400DC
:1059A00005909DF8350004909DF83600039004A9F9
:1059B0000EC9FFF795FECE490790109801EBC01174
:1059C0000F980844132206900799FAF77BFC0F986A
:1059D00000F113000F904FF04001C54A109802EB00
:1059E000C0120F9811540F9800F101000F909DF80C
:1059F0002C00412814D19DF82D00412810D1BC491C
:105A0000109801EBC0110F9808440D22D4A1079003
:105A1000FAF758FC0F9800F10D00C0B20F909CE708
:105A2000B349109801EBC0110F980844D0A10A683F
:105A300002604A6842600A890281897A81720F98FD
:105A400000F10B00C0B20F909DF82A009DF82910BC
:105A5000CDE900109DF8280006909DF82C000590D7
:105A600000E016E09DF82D0004909DF82E000390B4
:105A700004A90EC9FFF734FE9D490790109801EB69
:105A8000C0110F980844132206900799FAF71AFCE0
:105A900063E79DF83800422874D14FF000000F9062
:105AA0009DF83A0043286CD19149109801EBC01140
:105AB0000F9808441522B2A10790FAF703FC0F983B
:105AC00000F11500C0B20F909DF832009DF8311022
:105AD000CDE900109DF8300006909DF83400059047
