:020000040000FA
:10000000B8420010E1000000E5000000E700000039
:10001000E9000000EB000000ED000000000000001F
:10002000000000000000000000000000EF000000E1
:10003000F100000000000000F30000002D090000A6
:10004000F7000000F7000000F7000000F7000000D4
:10005000F7000000F7000000F7000000F7000000C4
:10006000F7000000F7000000F7000000F7000000B4
:10007000F7000000F7000000F7000000F7000000A4
:10008000F7000000F7000000F7000000F700000094
:10009000F7000000F7000000ED080000F700000086
:1000A000F700000035B70000F7000000F70000007F
:1000B000C3C80000F7000000F7000000F7000000D0
:1000C000F7000000F7000000F7000000DFF80CD098
:1000D0000CF05EFE0048004755710000B842001069
:1000E00005480047FEE7FEE7FEE7FEE7FEE7FEE71E
:1000F000FEE7FEE7FEE7FEE7CD00000006280AD295
:10010000DFE800F003040506070804E003E002E06E
:1001100001E000E000BF00BF00BFFEE710B50EF039
:100120001BF80EF077F80EF069F8AFF30080BDE829
:1001300010400EF035B810B50EF0F2FD0FF0A6F934
:10014000BDE810400EF044BE0EF058BD0EF020BBCE
:1001500009B1002070470DF027BF0020704740EA2A
:1001600001039B0703D009E008C9121F08C0042A35
:10017000FAD203E011F8013B00F8013B521EF9D21C
:1001800070470146002000E0401C0A5C002AFBD1B9
:10019000704780EA010202F0004330B430F00042C0
:1001A00021F0004015D0A0B1C0F3C755C2F3C75429
:1001B000C2F31601C0F31600651B41F4000140F4C0
:1001C00000007D35814201D36D1C00E04900002D07
:1001D00002DA30BC002070474FF400020024814254
:1001E00001D3091A144352084FEA4101F7D151B122
:1001F000814202D14FF0004105E002D24FF00101EF
:1002000001E06FF0010104EBC55030BC18440CF064
:10021000D3BBC10F80EAE0700844CA0796230021CF
:100220000CF0D3BB00F0004230F000400DD0C10D07
:1002300001F5607142EA01510022C0F31600520735
:1002400042EAD00240071143704700200146704740
:1002500030B50B46014600202022012409E021FA96
:1002600002F59D4205D303FA02F5491B04FA02F593
:100270002844151EA2F10102F1DC30BD2DE9F05F2A
:100280000546002092469B46884606468146402405
:100290001CE028464146474622460CF09AFD52464D
:1002A0005B46801A994111D31046194622460CF03C
:1002B00081FD2D1A67EB0107B8464F462246012003
:1002C00000210CF077FD38184E418146201EA4F124
:1002D0000104DEDC484631462A464346BDE8F09F2D
:1002E00000B500220CF028FEC04380B2010241EAB2
:1002F000102080B200BD704770477047FFFFFFFFBE
:100300004FF020008749086000BF8648006810F061
:10031000400FFAD04FF00300834908604FF40030DB
:100320008249C1F8A8014FF00000814908604FF0F0
:100330000100804908608048804908604FF0010052
:10034000A1F1040108604FF0AA007D4908604FF058
:1003500055007649C1F88C0000BF7848001D006840
:1003600010F0806FF9D04FF00300764908604FF02D
:10037000AA006E49C1F88C004FF055007049086022
:100380004FF02300704908604FF00100A1F1040113
:1003900008604FF0AA006D4908604FF055000860F2
:1003A00000BF6948001D006810F4806FF9D04FF05D
:1003B0000300674908604FF0AA005C49C1F8AC002F
:1003C0004FF05500614908606248634908604FF08A
:1003D00000005649C1F8C8010846D0F88800C0F3AB
:1003E0000160032868D15348006810F0030006D06C
:1003F000012823D002283FD003285CD100E000BFB1
:1004000056480068C0F30E0000F101004FEA4001B9
:100410004648D0F88800C0F3074000F10100B1FB66
:10042000F0F04F4900FB01F03F490968C9B201F102
:100430000101B0FBF1F04B4908603CE0474800681F
:10044000C0F30E0000F101004FEA40013748D0F838
:100450008800C0F3074000F10100B1FBF0F0424911
:1004600000FB01F030490968C9B201F10101B0FB9C
:10047000F1F03C4908601EE038480068C0F30E0007
:1004800000F101004FEA40012848D0F88800C0F38D
:10049000074000F10100B1FBF0F04FF4FA4100FB1E
:1004A00001F021490968C9B201F10101B0FBF1F085
:1004B0002C49086000BF2FE01E48006810F00300C0
:1004C00006D0012810D0022819D0032823D100E03B
:1004D00000BF15480068C0B200F101002049B1FB1F
:1004E000F0F02049086016E00F480068C0B200F143
:1004F00001001D49B1FBF0F01A4908600BE00A4801
:100500000068C0B200F101004FF4FA41B1FBF0F015
:100510001449086000BF00BF43F23A000349086075
:1005200070470000A0C10F4004C10F4000C00F4041
:10053000ACC10F400CC10F404F00030084C00F40FE
:100540008CC00F4080C00F40A4C00F40ACC00F4013
:10055000A0C00F4048F10041C4C00F4088C00F4008
:1005600000093D00240000108096980000EB8002F6
:10057000114600BFA1F101021100FBD170470146F5
:1005800000BFA1F101021100FBD170474FF0110033
:10059000FF49087270471FB5FE480078401CC0B282
:1005A000FC490870182802DB4FF000000870F94879
:1005B000007807287EDCF7480078C0EBC00000EB2D
:1005C0004000F54901EB800090F83100F1490978CD
:1005D000C1EBC10101EB4101EF4A02EB810191F84E
:1005E0003010EC4A1278C2EBC20202EB4202EA4B34
:1005F00003EB820292F82D20E64B1B78C3EBC3037A
:1006000003EB4303E44C04EB830393F82C30CDE974
:100610000032CDE90210DF480078C0EBC00000EBEB
:100620004000214601EB800090F828000346ED22AF
:10063000D848017800780AF011FDD6480078D749EB
:10064000097888427EDAD3480078C0EBC00000EB1E
:100650004000214601EB8000C0780A2835DACD48F9
:100660000078C0EBC00000EB400001EB8000C078D8
:1006700000F10100C7490978C1EBC10101EB41015B
:10068000224602EB8101C870C2480078C0EBC0006E
:1006900000EB4000114601EB8000C0780A2820DB07
:1006A000BC480078C0EBC00000EB400001EB8000CC
:1006B000407800E058E010F0080F12D10122032129
:1006C000B448007808F0D1F90BE04FF00A00B149C6
:1006D0000978C1EBC10101EB4101AF4A02EB810195
:1006E000C870AC480078C0EBC00000EB4000AA49DD
:1006F00001EB8000C07803281FDBA6480078C0EB20
:10070000C00000EB400001EB80000079032814DA00
:10071000A0480078C0EBC00000EB400001EB800077
:10072000407900F101009B490978C1EBC10101EB5F
:100730004101994A02EB8101487196480078C0EB6B
:10074000C00000E028E000EB4000934901EB80008E
:10075000C07890490978C1EBC10101EB41018E4A93
:1007600002EB8101087167E08A480078082863D0AD
:100770008848007809285FD0864800780A280CD17C
:1007800000200090019002900346024603908148A9
:10079000017800780AF062FC4EE07E4800780C2870
:1007A0004AD07C4800780D2846D07A4800780E2838
:1007B00042D07848007814280CD100200090019095
:1007C00002900346024603907248017800780AF0CE
:1007D00045FC31E06F48007815280CD100200090CE
:1007E000019002900346024603906A48017800781F
:1007F0000AF034FC20E06748007816280CD100206D
:1008000000900190029003460246039061480178EF
:1008100000780AF023FC0FE05E48007817280BD11F
:100820000020009001900290034602460390594830
:10083000017800780AF012FC1FBD10B568200AF09C
:100840003CF9574908706A200AF037F95449487052
:100850006C200AF032F9524988706E200AF02DF9A6
:100860004F49C87070200AF028F94D49087272206B
:100870000AF023F9C1B24A4841724FF074000AF0FD
:100880001CF9C1B2464881724FF076000AF015F9A2
:10089000C1B24348C1724FF0A4000AF00EF94049BA
:1008A0000871A6200AF009F9C1B23D4841714FF024
:1008B000A8000AF002F9C1B2394881714FF0AA00CC
:1008C0000AF0FBF8C1B23648C17110BD10B50FF087
:1008D0001FF84FF001003349087010BD0146002990
:1008E00002DA484200B270470846FCE72E4800682A
:1008F00020F0E0602C49086008464068C0F30B1007
:100900002A492B4A127821F812002948007800F170
:1009100001002749087008460078032805DA2248B4
:10092000006840F080702049086070474FF0010077
:10093000204908702048008800F1010000B21E49DB
:1009400008800A2807D14FF001001C4908704FF0B9
:100950000000194908801A480088401C00B2184954
:100960000880142807D14FF00100164908704FF095
:1009700000001349088014480088401C00B2124946
:100980000880642831D14FF00100104908701FE041
:1009900000400240FC0000102C0A0010350000103E
:1009A000784000107700001000400340260100103E
:1009B0001D010010700000102800001071000010D0
:1009C0002A000010720000102C00001073000010AC
:1009D0004FF00000FE490880FE48007828B1FE482C
:1009E000406B80F48010FC494863FC480088401C40
:1009F00000B2FA490880C82807D14FF00100F84931
:100A000008704FF00000F5490880F6480088401C47
:100A100000B2F4490880B0F5FA7F07D14FF0010029
:100A2000F14908704FF00000EE490880EF48008857
:100A3000401C00B2ED490880B0F57A7F07D14FF035
:100A40000100EB4908704FF00000E849088070474A
:100A5000E8480078002874D0E7480078002871D171
:100A6000E648007800286ED1E548007800286CD16F
:100A7000E048C0782B280CD14FF00100E049087005
:100A8000E0480078E04908704FF0F000DD49087058
:100A900053E0D84800792B280CD14FF00200D849F8
:100AA0000870D8480078D84908704FF0F100D5494F
:100AB000087042E0CF4840792B280CD14FF003005A
:100AC000CF490870CF480078CF4908704FF0F20046
:100AD000CC49087031E0C74880792B280CD14FF001
:100AE0000400C7490870C7480078C74908704FF02C
:100AF000F300C449087020E0BE48C0792B280CD10F
:100B00004FF00500BE490870BE480078BE49087025
:100B10004FF0F400BB4908700FE0B648007A2B286C
:100B20000BD14FF00600B6490870B6480078B649B8
:100B300008704FF0F500B3490870AE488078AF49AF
:100B40000870E4E1DDE1D5E1FFE7AD480078012878
:100B500044D1A84800792B2808D14FF00200A849B9
:100B600008704FF0F100A749087032E0A1484079C1
:100B70002B2808D14FF00300A14908704FF0F20074
:100B8000A049087025E09B4880792B2808D14FF0B8
:100B900004009B4908704FF0F3009A49087018E070
:100BA0009448C0792B2808D14FF00500944908706B
:100BB0004FF0F400934908700BE08E48007A2B2820
:100BC00007D14FF006008E4908704FF0F5008D49AF
:100BD0000870884880788949087098E188480078CA
:100BE000022844D1834840792B2808D14FF00300D4
:100BF000834908704FF0F2008249087032E07D4866
:100C000080792B2808D14FF004007D4908704FF0FF
:100C1000F3007C49087025E07648C0792B2808D17C
:100C20004FF00500764908704FF0F40075490870E0
:100C300018E07048007A2B2808D14FF00600704960
:100C400008704FF0F5006F4908700BE06948C078F4
:100C50002B2807D14FF00100694908704FF0F000D0
:100C60006849087063488078644908704FE16448B7
:100C70000078032844D15F4880792B2808D14FF0B1
:100C800004005F4908704FF0F3005E49087032E0DD
:100C90005848C0792B2808D14FF0050058490870F2
:100CA0004FF0F4005749087025E05248007A2B288D
:100CB00008D14FF00600524908704FF0F500514935
:100CC000087018E04B48C0782B2808D14FF001007D
:100CD0004B4908704FF0F0004A4908700BE0454856
:100CE00000792B2807D14FF00200454908704FF0DA
:100CF000F100444908703F4880784049087006E197
:100D00003F480078042844D13A48C0792B2808D1BC
:100D10004FF005003A4908704FF0F4003949087067
:100D200032E03448007A2B2808D14FF006003449CD
:100D300008704FF0F5003349087025E02D48C07861
:100D40002B2808D14FF001002D4908704FF0F0001A
:100D50002C49087018E0274800792B2808D14FF05B
:100D60000200274908704FF0F100264908700BE097
:100D7000204840792B2807D14FF003002049087004
:100D80004FF0F2001F4908701A4880781B4908701C
:100D9000BDE01B480078052863D11648007A2B284F
:100DA00008D14FF00600164908704FF0F5001549BC
:100DB000087051E00F48C0782B2827D14FF0010070
:100DC0000F4908704FF0F0000E49087044E0000031
:100DD0002C0000107800001000C009202E00001028
:100DE0007400001030000010750000103200001078
:100DF00076000010A80500105F00001060000010D1
:100E000061000010390000103F000010FF48007919
:100E10002B2808D14FF00200FD4908704FF0F10077
:100E2000FC49087018E0F94840792B2808D14FF0A8
:100E30000300F74908704FF0F200F64908700BE024
:100E4000F24880792B2807D14FF00400F049087050
:100E50004FF0F300EF490870EC488078EE490870D5
:100E600055E0EB480078062851D1E848C0782B2897
:100E700008D14FF00100E64908704FF0F000E54955
:100E8000087032E0E14800792B2808D14FF00200C9
:100E9000DF4908704FF0F100DE49087025E0DB48BB
:100EA00040792B2808D14FF00300D94908704FF042
:100EB000F200D849087018E0D44880792B2808D16E
:100EC0004FF00400D24908704FF0F300D149087088
:100ED0000BE0CE48C0792B2807D14FF00500CC4954
:100EE00008704FF0F400CB490870C8488078CA49B0
:100EF00008700CE0C8480078A0F10100C6490870ED
:100F000005E0C6480078A0F10100C44908707047A8
:100F100010B580B913884FF6FF74A34203DA138823
:100F200003F1010313800B78FF2B08DA0B7803F130
:100F300001030B7003E04FF0000313800B7010BD32
:100F400058B90B78012B03DB4FF0FF0313700EE051
:100F50000B7803F101030B7009E00B781BB94FF01C
:100F60000003137003E00B78A3F101030B707047CB
:100F700080B9137873B90B78012B03DB4FF0FF03B3
:100F800013700DE00B78012B0ADA0B7803F10103E3
:100F90000B7005E00B781BB10B78A3F101030B700C
:100FA000704710B518B19E4B1B78012B13D11378E5
:100FB0008BB90B78012B09DB4FF00F0313704FF047
:100FC0000003974C2370974C237032E00B7803F1A9
:100FD00001030B702DE018B1924B1B78012B14D13B
:100FE00013781F2B11D10B78012B09DB4FF02F0346
:100FF00013704FF000038B4C2370894C237018E062
:101000000B7803F101030B7013E00B788BB180B107
:101010000B78A3F101030B7013780F2B03D14FF062
:101020001F03137005E013782F2B02D14FF000033C
:10103000137010BDF0B591B0034615464FF0000691
:10104000304632464FF00106344638E001FB04F6E4
:10105000A6EB0106F6B2304622E09E5C0A2E09D0CD
:101060009E5C3EB19E5C0DF8006002F10106F6B296
:10107000324611E000BF07E04FF020060DF8006097
:1010800000F10106F6B2304601FB04F68642F3DCBD
:1010900002F10106F6B2324600F10106F6B2304620
:1010A00001FB04F68642D8DC9E5C0A2E03D102F1D5
:1010B0000106F6B2324604F10106F6B23446AC42FD
:1010C000C4DD4FF00006304606E01DF800601E54F7
:1010D00000F10106F6B23046B0EB810FF5DB11B03E
:1010E000F0BDF0B54FF015054F4E35704FF00605C9
:1010F0004E4E35704FF015054D4E35704FF00005D2
:101100002A4607E04FF000054A4EB55402F10105AA
:101110002DB22A4640F2FF35AA42F3DB4FF000051C
:101120002A46BAE34FF000052B46ADE33F4D2D783C
:1011300005FB0235404E745DBF2C09DDA4F161054D
:10114000394E367805FB06F54FEA850529460EE04F
:101150001F2C09DDA4F12005334E367805FB06F57A
:101160004FEA8505294602E04FF0000529464FEA7F
:1011700042252F4E367806FB0350304D6F5C0546F6
:1011800000F1010630462B4E77552C4E01F1040537
:10119000775D054600F101063046264E7755274E0D
:1011A00001F10805775D054600F101063046214E44
:1011B0007755224E01F10C05775D054600F10106D9
:1011C00030461C4E77551D4E01F11005775D0546E2
:1011D00000F101063046174E7755184E01F11405FF
:1011E000775D054600F101063046124E7755134EE5
:1011F00001F11805775D054600F1010630460D4EF8
:1012000077550E4E01F11C05775D19E0A805001019
:101210006100001039000010600000105F00001035
:1012200018010010170100101B0100101901001017
:101230001A010010E4050010E4090010580A01002A
:10124000054600F101063046FF4E7755FF4E01F18D
:101250002005775D054600F101063046FA4E7755C8
:10126000FA4E01F12405775D054600F1010630468E
:10127000F54E7755F54E01F12805775D054600F1ED
:1012800001063046F04E7755F04E01F12C05775DA2
:10129000054600F101063046EB4E7755EB4E01F165
:1012A0003005775D054600F101063046E64E77557C
:1012B000E64E01F13405775D054600F10106304642
:1012C000E14E7755E14E01F13805775D054600F1B5
:1012D00001063046DC4E7755DC4E01F13C05775D6A
:1012E000054600F101063046D74E7755D74E01F13D
:1012F0004005775D054600F101063046D24E775530
:10130000D24E01F14405775D054600F101063046F5
:10131000CD4E7755CD4E01F14805775D054600F17C
:1013200001063046C84E7755C84E01F14C05775D31
:10133000054600F101063046C34E7755C34E01F114
:101340005005775D054600F101063046BE4E7755E3
:101350004FEA4225BE4E367806FB035505F180055F
:101360002846BA4E01F10105775D054600F10106F8
:101370003046B54E7755B54E01F10505775D05460A
:1013800000F101063046B04E7755B04E01F1090527
:10139000775D054600F101063046AB4E7755AB4E02
:1013A00001F10D05775D054600F101063046A64EB8
:1013B0007755A64E01F11105775D054600F101064E
:1013C0003046A14E7755A14E01F11505775D0546D2
:1013D00000F1010630469C4E77559C4E01F11905EF
:1013E000775D054600F101063046974E7755974EDA
:1013F00001F11D05775D054600F101063046924E6C
:101400007755924E01F12105775D054600F1010601
:1014100030468D4E77558D4E01F12505775D054699
:1014200000F101063046884E7755884E01F12905B6
:10143000775D054600F101063046834E7755834EB1
:1014400001F12D05775D054600F1010630467E4E1F
:1014500077557E4E01F13105775D054600F10106B5
:101460003046794E7755794E01F13505775D054661
:1014700000F101063046744E7755744E01F139057E
:10148000775D054600F1010630466F4E77556F4E89
:1014900001F13D05775D054600F1010630466A4ED3
:1014A00077556A4E01F14105775D054600F1010669
:1014B0003046654E7755654E01F14505775D054629
:1014C00000F101063046604E7755604E01F1490546
:1014D000775D054600F1010630465B4E77555B4E61
:1014E00001F14D05775D054600F101063046564E87
:1014F0007755564E01F15105775D054600F101061D
:101500003046514E77554FEA4225514E367806FB0C
:10151000035505F5807528464C4E01F10205775DAF
:10152000054600F101063046474E7755474E01F11A
:101530000605775D054600F101063046424E7755B7
:10154000424E01F10A05775D054600F1010630467D
:101550003D4E77553D4E01F10E05775D054600F194
:1015600001063046384E7755384E01F11205775D49
:10157000054600F101063046334E7755334E01F1F2
:101580001605775D054600F1010630462E4E77556B
:101590002E4E01F11A05775D054600F10106304631
:1015A000294E7755294E01F11E05775D054600F15C
:1015B00001063046244E7755244E01F12205775D11
:1015C000054600F1010630461F4E77551F4E01F1CA
:1015D0002605775D054600F1010630461A4E77551F
:1015E0001A4E01F12A05775D054600F101063046E5
:1015F000154E7755154E01F12E05775D054600F124
:1016000001063046104E7755104E01F13205775DD8
:10161000054600F1010630460B4E77550B4E01F1A1
:101620003605775D054600F101063046064E7755D2
:10163000064E01F13A05775D054600F10106304698
:10164000014E7755014E05E0E4050010580A0100EF
:101650001A01001001F13E05775D054600F1010613
:101660003046FF4E7755FF4E01F14205775D054646
:1016700000F101063046FA4E7755FA4E01F1460563
:10168000775D054600F101063046F54E7755F54E7B
:1016900001F14A05775D054600F101063046F04E3E
:1016A0007755F04E01F14E05775D054600F10106D4
:1016B0003046EB4E7755EB4E01F15205775D05460E
:1016C00000F101063046E64E77554FEA4225E64ED8
:1016D000367806FB035505F5C0752846E14E01F145
:1016E0000305775D054600F101063046DC4E77556F
:1016F000DC4E01F10705775D054600F10106304635
:10170000D74E7755D74E01F10B05775D054600F1B1
:1017100001063046D24E7755D24E01F10F05775D66
:10172000054600F101063046CD4E7755CD4E01F10C
:101730001305775D054600F101063046C84E775522
:10174000C84E01F11705775D054600F101063046E8
:10175000C34E7755C34E01F11B05775D054600F179
:1017600001063046BE4E7755BE4E01F11F05775D2E
:10177000054600F101063046B94E7755B94E01F1E4
:101780002305775D054600F101063046B44E7755D6
:10179000B44E01F12705775D054600F1010630469C
:1017A000AF4E7755AF4E01F12B05775D054600F141
:1017B00001063046AA4E7755AA4E01F12F05775DF6
:1017C000054600F101063046A54E7755A54E01F1BC
:1017D0003305775D054600F101063046A04E77558A
:1017E000A04E01F13705775D054600F10106304650
:1017F0009B4E77559B4E01F13B05775D054600F109
:1018000001063046964E7755964E01F13F05775DBD
:10181000054600F101063046914E7755914E01F193
:101820004305775D054600F1010630468C4E77553D
:101830008C4E01F14705775D054600F10106304603
:10184000874E7755874E01F14B05775D054600F1D0
:1018500001063046824E7755824E01F14F05775D85
:10186000054600F1010630467D4E77557D4E01F16B
:101870005305775D054600F101063046784E7755F1
:1018800003F101052DB22B46784D2D78AB42FFF6C2
:101890004DAC02F101052DB22A46022AFFF642ACF8
:1018A000F0BDF0B54FF00905714E35704FF01005E1
:1018B0006E4E35704FF008056B4E35704FF00005D9
:1018C0002A4607E04FF00005654EB55402F10105C8
:1018D0002DB22A4640F2FF35AA42F3DB4FF0000555
:1018E0002A46EFE04FF000052C46E2E05F4D2D78F0
:1018F00005FB02455F4E735DBF2B09DDA3F161055A
:101900005B4E367805FB06F54FEA450529460EE0A5
:101910001F2B09DDA3F12005554E367805FB06F592
:101920004FEA4505294602E04FF0000529464FEAF7
:1019300002254D4E367806FB04504F4E01F102054C
:10194000775D054600F101063046454E77554A4E13
:1019500001F10405775D054600F101063046404E71
:101960007755454E01F10605775D054600F1010604
:1019700030463B4E7755404E01F10805775D0546F0
:1019800000F101063046364E77553B4E01F10A050F
:10199000775D054600F101063046314E7755364EEB
:1019A00001F10C05775D054600F1010630462C4E2D
:1019B0007755314E01F10E05775D054600F10106C0
:1019C0003046274E77552C4E01F11005775D0546C0
:1019D00000F101063046224E77554FEA0225224E8D
:1019E000367806FB045505F180052846224E01F1A4
:1019F0000305775D054600F101063046184E775520
:101A00001D4E01F10505775D054600F101063046E2
:101A1000134E7755184E01F10705775D054600F125
:101A2000010630460E4E7755134E01F10905775DDC
:101A3000054600F101063046094E77550E4E01F17C
:101A40000B05775D054600F101063046044E7755DB
:101A5000094E01F10D05775D054600F101060DE027
:101A6000E4050010580A01001A01001019010010C5
:101A70001B010010E4090010843E01003046FF4EB7
:101A80007755FF4E01F10F05775D054600F1010620
:101A90003046FA4E7755FA4E01F11105775D05464D
:101AA00000F101063046F54E775504F101052DB2DF
:101AB0002C46F44D2D78AC42FFF618AF02F101052B
:101AC0002DB22A46042AFFF60DAFF0BDF0B54FF057
:101AD0000C05ED4E35704FF01005EA4E35704FF0A5
:101AE0000805EA4E35704FF000052A4607E04FF032
:101AF0000005E24EB55402F101052DB22A4640F22E
:101B0000FF35AA42F3DB4FF000052A46E0E04FF034
:101B100000052C46D3E0DB4D2D7805FB0245DC4E5D
:101B2000735DBF2B09DDA3F16105D74E367805FB48
:101B300006F54FEA450529460EE01F2B09DDA3F106
:101B40002005D14E367805FB06F54FEA45052946B6
:101B500002E04FF0000529464FEA0225CB4E3678C9
:101B600006FB0450CB4E01F10405775D054600F1FC
:101B700001063046C14E7755C64E01F10605775D28
:101B8000054600F101063046BC4E7755C14E01F1C5
:101B90000805775D054600F101063046B74E7755DA
:101BA000BC4E01F10A05775D054600F1010630469D
:101BB000B24E7755B74E01F10C05775D054600F141
:101BC00001063046AD4E7755B24E01F10E05775DF8
:101BD000054600F101063046A84E7755AD4E01F19D
:101BE0001005775D054600F101063046A34E775596
:101BF000A84E01F11205775D054600F10106304659
:101C00009E4E77554FEA0225A04E367806FB0455C6
:101C100005F1800528469F4E01F10505775D0546D3
:101C200000F101063046954E77559A4E01F10705B1
:101C3000775D054600F101063046904E7755954E8A
:101C400001F10905775D054600F1010630468B4E2E
:101C50007755904E01F10B05775D054600F10106C1
:101C60003046864E77558B4E01F10D05775D054662
:101C700000F101063046814E7755864E01F10F0581
:101C8000775D054600F1010630467C4E7755814E62
:101C900001F11105775D054600F101063046774EEA
:101CA00077557C4E01F11305775D054600F101067D
:101CB0003046724E775504F101052DB22C46714D18
:101CC0002D78AC42FFF627AF02F101052DB22A466E
:101CD000042AFFF61CAFF0BD00B5ADB06E48007829
:101CE000322801F0CE8035DC81F03886DFE810F054
:101CF0007D00A90005012B018201CA015A0D5A0D70
:101D00005A0D5A0D5A0D5A0D5A0D5A0D5A0D5A0D9B
:101D10005A0D5A0D5A0D5A0D0902100219022202CB
:101D20005A0D5A0D5A0D5A0D5A0D5A0D29025702C5
:101D30008302A102CE02B704EF041F055A0D5A0D0B
:101D400041055C05A405D8053D066E0613084B0841
:101D500087089208492801F0ED841BDCA0F13300CC
:101D60001628C1D2DFE810F0C108320964097C0AE4
:101D7000AD0A130B450BAB0BDC0B6E0C1E0D1E0DD1
:101D80001E0D1E0D1E0D9F0C1E0D1E0D1E0DA40CF6
:101D9000C00CD30CF32801F0418515DCF02801F0CC
:101DA00012850ADC4A2801F0D8844B2801F0E88427
:101DB0004C2841F0D38501F0F6BCF12801F01085E4
:101DC000F228F6D101F022BDF4380C288CD2DFE8DD
:101DD00010F0320D460DE90CE90CE90CE90C860D0A
:101DE0008D0D940DE90CE90C9B0D2C48B0F9000009
:101DF0000A2190FBF1F009902948B0F9000090FB0E
:101E0000F1F201FB120008902548B0F9000090FBA8
:101E1000F1F007902348B0F900100A2091FBF0F090
:101E200006902149B1F90020DDE90810CDE9001242
:101E300002901EA11648DDE906230BF09BF801F085
:101E40008DBD1648B0F900000A2190FBF1F0099011
:101E50001348B0F9000090FBF1F201FB120008906A
:101E60000F48B0F900100A2091FBF0F007901C48D1
:101E7000B0F900100C4AB2F9002033E0E40500107C
:101E8000843E0100190100101B0100101A0100100E
:101E9000E409001070FB00003900001012E0072078
:101EA00038E0072036E007203CE007202055E2FB21
:101EB000F53D252D75C20A2049E2FBF53D252D751E
:101EC0002E25303175C00A2050E2FBF53D252D64EA
:101ED000C2F20A2055F1E5F2E83D252D75C2000059
:101EE0003AE007200998CDE900200291F0A1FC48D2
:101EF000DDE907230BF03EF8A1E7FA4800880A2144
:101F000090FBF1F201FB12000990F64801880A20CB
:101F100091FBF0F00890F448B0F900100A2091FB12
:101F2000F0F00790F14AB2F90020DDE90810CDE9A0
:101F300000210290EE48B0F90020EEA1E848079B8E
:101F40000BF018F87BE7F7480088B0F5167F1FDB29
:101F5000E44800880A2190FBF1F201FB120009908D
:101F6000E048008890FBF1F00890DF48B0F90000ED
:101F700090FBF1F00790DDE90801CDE90001DB48B5
:101F8000B0F90030E8A1D648079A0AF0F3FF30E034
:101F9000F248B0F90000FEF73CF9F1490390FEF772
:101FA000F8F80490FEF73EF9CDE90801CD48008825
:101FB0000A2190FBF1F201FB12000790C94800884A
:101FC00090FBF1F00690C848B0F9000090FBF1F0EA
:101FD0000590DDE90801CDE90201DDE90601CDE961
:101FE0000001C248B0F90030DEA1BD48059A0AF0F0
:101FF000C1FF24E7CB480088B0F5167F17DBB9484E
:1020000000880A2190FBF1F201FB12000990B5480B
:10201000008890FBF1F0089009980090B348B0F95F
:102020000020DCA1AE48089B0AF0A4FF29E0CB48C1
:10203000B0F90000FEF7EDF8C9490490FEF7A9F8E1
:102040000590FEF7EFF8CDE90801A64800880A21BF
:1020500090FBF1F201FB12000790A24801880A20D0
:1020600091FBF0F00690DDE90801CDE90201079847
:1020700000909E48B0F90020D3A19948069B0AF031
:1020800079FFDCE6A7480088B0F5167F13DB95489A
:1020900000880A2190FBF1F201FB1200099091489F
:1020A000008890FBF1F008900246D3A18C48099B70
:1020B0000AF060FF24E0A948B0F90000FEF7A9F893
:1020C000A7490490FEF765F80590FEF7ABF8CDE957
:1020D0000801844800880A2190FBF1F201FB1200FC
:1020E00007908048008890FBF1F00690DDE9080138
:1020F000CDE90001CCA17A48DDE906230AF03AFFD8
:102100009DE6D5480278D5A175480AF033FF96E6DA
:10211000E0480378D0480278DFA171480AF02AFF2E
:102120008DE6DC480378CC480278E9A16C480AF0D7
:1021300021FF84E6D7480278F4A169480AF01AFF23
:102140007DE6FF48B0F900000A2190FBF1F201FBA7
:1021500012000990FA48B0F900100A2091FBF0F043
:102160000890F848B0F900000A2190FBF1F201FB59
:1021700012000790F348B0F900100A2091FBF0F02C
:1021800006905B48B0F90020DDE908018DE8070002
:10219000EDA15348DDE906230AF0ECFE4FE6524874
:1021A000B0F900000A2190FBF1F201FB1200099046
:1021B0004D48B0F9000090FBF1F00890E048B0F90C
:1021C000000090FBF1F201FB12000790DC48B0F92F
:1021D000000090FBF1F00690454AB2F90020DDE9DD
:1021E0000810CDE900210290E6A13D48DDE9062373
:1021F0000AF0C0FE23E63C48B0F900000A2190FB3B
:10220000F1F201FB120009903748B0F9000090FB91
:10221000F1F008903548B0F900100998CDE90001B7
:102220003348B0F90020E6A12D48089B0AF0A2FE31
:1022300005E62C4800880A2190FBF1F201FB120010
:102240000990284801880A2091FBF0F00890264860
:10225000B0F900000A2190FBF1F201FB1200079097
:102260002148B0F900100A2091FBF0F006901F4AB7
:10227000B2F90020DDE90810CDE900210290DDA1CE
:102280001748DDE906230AF075FED8E53348B0F9B2
:102290000000FDF7BEFF32490490FDF77AFF05907C
:1022A000FDF7C0FFCDE908010E4800880A21BDE115
:1022B0002049E2FBF53D252D752E25303175C00AEC
:1022C0002050E2FBF53D252D64C2F20A2055F1E5D0
:1022D000F2E83D252D75C20A20743D256427430090
:1022E000E40900102EE0072012E007203AE0072062
:1022F0003CE007202050E2FBF53D252D64C2F20AA8
:102300002055F1E5F2E83D252D75C20A20743D25E2
:102310002D6427430A2055E1E0F23D252D752E2539
:102320002D754200540000102055F1E5F2E83D25DE
:102330002D75C20A20743D252D6427430A2055E1DE
:10234000E0F23D252D752E252D75420A2049E1E04C
:10235000F23DCAC0CBC8C1D02E00000030E007203B
:102360000000C8422055F1E5F2E83D252D75C20A6E
:1023700020743D252D6427430A2055E1E0F23D25D8
:102380002D752E252D75420A2049E1E0F23D252EBE
:102390003266410020743D252D6427430A2055E113
:1023A000E0F23D252D752E252D75420A2049E1E0EC
:1023B000F23DCAC0CBC8C1D02E0A20D3D1D2C0CDE5
:1023C000CEC2CAC80000000020743D252D642743FA
:1023D0000A2055E1E0F23D252D752E252D75420A86
:1023E0002049E1E0F23D252E3266410A20D3D1D2C8
:1023F000C0CDCEC2CAC800002055E1E0F23D252D77
:10240000752E252D75420A2049E1E0F23DCAC0CB68
:10241000C8C1D02E0A20D3D1D2C0CDCEC2CAC80ADC
:1024200020C2DBD5CEC400002055E1E0F23D252DD1
:10243000752E252D75420A2049E1E0F23D252E3208
:1024400066410A20D3D1D2C0CDCEC2CAC80A20C2AA
:10245000DBD5CEC400000000620000102020202048
:10246000D3D1D2C0CDCEC2CAC80A20C2FBE1EEF0A1
:1024700020E3EB2EECE5EDFE0A20C8EDF2E5F0EDF1
:10248000E5F20A2055E1E0F22EE2EAEB3D252D755A
:10249000420000006300001020202020D3D1D2C0D1
:1024A000CDCEC2CAC80A20C8EDF2E5F0EDE5F20AC9
:1024B0002055E1E0F22EE2EAEB3D252D75420A209F
:1024C00055E1E0F22EE2FBEAEB3D252D75420000DE
:1024D00020202020D3D1D2C0CDCEC2CAC80A2055D8
:1024E000E1E0F22EE2EAEB3D252D75420A2055E1AE
:1024F000E0F22EE2FBEAEB3D252D75420A20CAE010
:10250000EBE8E1F0EEE2EAE000000000202020200D
:10251000D3D1D2C0CDCEC2CAC80A2055E1E0F22E36
:10252000E2FBEAEB3D252D75420A20CAE0EBE8E12B
:10253000F0EEE2EAE00A20C2FBF5EEE40000000063
:1025400038E0072036E00720202020CAC0CBC8C1D1
:10255000D0CEC2CAC00A2055E2FBF53D252D752E0E
:1025600025303175C20A2049E2FBF53D252D752E37
:1025700025303175C00A2050E2FBF53D252D64C29F
:10258000F2000000202020CAC0CBC8C1D0CEC2CAF1
:10259000C00A2049E2FBF53D252D752E2530317509
:1025A000C00A2050E2FBF53D252D64C2F20A2055F9
:1025B000F1E5F2E83D252D752E25303175C200007C
:1025C000202020CAC0CBC8C1D0CEC2CAC00A205069
:1025D000E2FBF53D252D64C2F20A2055F1E5F2E853
:1025E0003D252D752E25303175C20A20743D256498
:1025F00027430000202020CAC0CBC8C1D0CEC2CA09
:10260000C00A2055F1E5F2E83D252D752E25303123
:1026100075C20A20743D256427430A2055E1E0F283
:102620003D252D752E252D754200000090FBF1F201
:1026300001FB12000790F848008890FBF1F006902B
:10264000DDE90801CDE9020107980090F348B0F9EF
:102650000020F3A1FF48069B0AF08CFC4CE4FE48E6
:10266000007810B9FDA00E9008E0FB480078012822
:1026700002D1FCA00E9001E0FCA00E90FC48B0F945
:102680000000FDF7C6FDFB490490FDF782FD0590B3
:10269000FDF7C8FDCDE90801DF4801880A2091FB5C
:1026A000F0F200FB12100790DB4800880A2190FB33
:1026B000F1F006900E980290DDE90801CDE90001E5
:1026C000EDA1E448DDE906230AF054FC14E4E248F5
:1026D000007810B9E1A00E9008E0DF4800780128EA
:1026E00002D1E0A00E9001E0E0A00E90F04800784A
:1026F00010B9DAA00F9001E0DCA00F90DC48B0F92F
:102700000000FDF786FDDB490690FDF742FD0790CE
:10271000FDF788FDCDE90801DDE90E01CDE90001F5
:10272000E4A1CC48DDE908230AF024FC0AE4CA4805
:10273000007810B9C9A00E9008E0C74800780128B9
:1027400002D1C8A00E9001E0C8A00E90D848007831
:1027500010B9C2A00F9001E0C4A00F900F9809908B
:102760000E9808900246E1A1BA48099B0AF002FCC3
:102770003FE4EA48008810B1BCA00E9001E0B7A089
:102780000E90E748008810B1B8A00F9001E0B3A008
:102790000F900F9809900E9808900246E1A1AD485D
:1027A000099B0AF0E7FB24E4DC48008810B1EAA0AA
:1027B0000E9001E0A9A00E90D948008810B1E6A0C3
:1027C0000F9001E0A5A00F90E548B0F90000E549A1
:1027D000B1F90010E44AB2F90020CDE900210290DD
:1027E0000F980990E148B0F90030E1A19948099AA1
:1027F0000AF0C0FBED480078E8B1ED480078032806
:1028000019D14FF02001EB4800784FF0290202EB7C
:102810008000904A1154E74800784FF02A0202EBFA
:1028200080008C4A1154E34800784FF02B0202EBF1
:102830008000884A115424E4C948B0F90000C9490D
:10284000B1F90010CDE90010C748B0F90030C74811
:10285000B0F90020D8A17F480AF08CFBD34800785B
:10286000E8B1D3480078022819D14FF02001D148AF
:1028700000784FF0180202EB8000764A1154CD48E0
:1028800000784FF0190202EB8000724A1154C948D7
:1028900000784FF01A0202EB80006E4A11542FE4C8
:1028A000D448B0F90000D449B1F90010D34AB2F9C4
:1028B0000020D34BB3F90030CDE90232CDE904104A
:1028C000A748B0F90000A749B1F90010CDE9001000
:1028D000A548B0F90030A548B0F90020C9495D48C5
:1028E0000AF048FBB1480078E8B1B1480078032805
:1028F00019D14FF02001AF4800784FF02F0202EBC2
:102900008000544A1154AB4800784FF0300202EB7B
:102910008000504A1154A74800784FF0310202EB72
:1029200080004C4A1154A1480078E8B1A0480078D2
:10293000012819D14FF020019E4800784FF00E0277
:1029400002EB8000434A11549A4800784FF00F027E
:1029500002EB80003F4A1154964800784FF0100275
:1029600002EB80003B4A115418E4A248B0F9000081
:10297000A149B1F90010CDE90010A048B0F900302C
:102980009F48B0F90020A0A132480AF0F3FA874826
:102990000078D0B186480078022816D14FF0200187
:1029A000844800784FF01E0202EB8000294A11543F
:1029B000804800784FF01F0202EB8000254A115436
:1029C0007C48007801EB8000115413E49D48B0F975
:1029D00000009D49B1F900109C4AB2F900209C4BBF
:1029E000B3F90030CDE90232CDE904108148B0F9E5
:1029F00000008149B1F90010CDE900107F48B0F91D
:102A000000307F48B0F9002092A112480AF0B2FAD3
:102A1000664800783EE100002EE007203AE00720FB
:102A2000202020CAC0CBC8C1D0CEC2CAC00A2074E0
:102A30003D256427430A2055E1E0F23D252D752E02
:102A4000252D75420A2049E1E0F23D252E326641EE
:102A500000000000E409001068000010C2DBCACBCF
:102A600000000000C0CCCFCB00000000C2CACB00E9
:102A700030E007200000C842202020CAC0CBC8C1D7
:102A8000D0CEC2CAC00A2055E1E0F23D252D752EF8
:102A9000252D75420A2049E1E0F23D252E3266419E
:102AA0000A20CAEEEDF2F02EF1E5F2E820257300DF
:102AB00069000010202020CAC0CBC8C1D0CEC2CA35
:102AC000C00A2049E1E0F23D252E3266410A20CAC3
:102AD000EEEDF2F02EF1E5F2E82025730A20D3EFB7
:102AE000F02ED8C8CC20257300000000202020CA7A
:102AF000C0CBC8C1D0CEC2CAC00A20CAEEEDF2F027
:102B00002EF1E5F2E82025730A20D3EFF02ED8C885
:102B1000CC2025730A20C2DBD5CEC4009C00001057
:102B20009E00001020202045544845524E45543AFE
:102B30000A2045746865726E65742025730A204406
:102B4000484350EAEBE8E5EDF22025730A204950AE
:102B5000E0E4F0E5F13A0000C2CACB20000000003A
:102B6000A6000010A4000010A2000010A000001099
:102B700020202045544845524E45543A0A204448A6
:102B80004350EAEBE8E5EDF22025730A204950E0D6
:102B9000E4F0E5F13A0A20253033752E25303375FF
:102BA0002E253033752E2530337500005700001068
:102BB0003C0000105D000010202020455448455284
:102BC0004E45543A0A204950E0E4F0E5F13A0A2033
:102BD000253033752E253033752E253033752E254F
:102BE0003033750A20CCE0F1EAE020EFEEE4F1E5C5
:102BF000F2E83A00AE000010AC000010AA0000108D
:102C0000A8000010E8490100202020455448455202
:102C10004E45543A0A20CCE0F1EAE020EFEEE4F130
:102C2000E5F2E83A0A20253033752E253033752E2B
:102C3000253033752E253033750A20D8EBFEE73A60
:102C400000000000B6000010B4000010B200001038
:102C5000B000001020202045544845524E45543ABB
:102C60000A20253033752E253033752E25303375E7
:102C70002E253033750A20D8EBFEE73A0A2025309E
:102C800033752E253033752E253033752E25303390
:102C900075000000E8B1FF480078012819D14FF015
:102CA0002001FD4800784FF00E0202EB8000FB4A45
:102CB0001154F94800784FF00F0202EB8000F74AF8
:102CC0001154F54800784FF0100202EB8000F34AEF
:102CD0001154F3480078E8B1EE480078032819D180
:102CE0004FF02001EC4800784FF0260202EB800004
:102CF000EA4A1154E84800784FF0270202EB8000BE
:102D0000E64A1154E44800784FF0280202EB8000B4
:102D1000E24A1154A2E4E348B0F90010E248B0F9E5
:102D20000000E24AB2F90020CDE900200291E0481B
:102D3000B0F90030DF48B0F90020DFA1D7480AF031
:102D400019F9D7480078E8B1D2480078022819D19B
:102D50004FF02001D04800784FF0150202EB8000C0
:102D6000CE4A1154CC4800784FF0160202EB800096
:102D7000CA4A1154C84800784FF0170202EB80008D
:102D8000C64A11546AE4DB48B0F90020C548B0F9DE
:102D90000000C549B1F90010C44BB3F90030CDE9CA
:102DA0000031CDE90202C248B0F90030C148B0F9A3
:102DB0000020D149B9480AF0DDF8B9480078E8B1F7
:102DC000B4480078012819D14FF02001B2480078AA
:102DD0004FF00E0202EB8000B04A1154AE4800786A
:102DE0004FF00F0202EB8000AC4A1154AA48007861
:102DF0004FF0100202EB8000A84A11542EE4BD48A7
:102E0000B0F90030A748B0F90020BCA1A3480AF0EF
:102E1000B1F823E44FF000000A9009E0C6490A988F
:102E2000095C0BAA11540A9800F10100C0B20A9083
:102E30000A980A28F2DB9A480078C8B195480078C9
:102E4000032815D14FF05F000BA9934A12788854DC
:102E5000B948FDF796F990490978884208D10BA83E
:102E6000FDF78FF900F101000BA94FF00A020A5497
:102E70000BABA048B0F90020B0A188480AF07AF85E
:102E800024E44FF000000A9009E0AB490A98095C7D
:102E90000BAA11540A9800F10100C0B20A900A98D6
:102EA0000A28F2DB7E480078C8B17A480078022808
:102EB00015D14FF05F000BA9774A127888549E48CD
:102EC000FDF75FF974490978884208D10BA8FDF72E
:102ED00058F900F101000BA94FF00A020A540BAA9D
:102EE000A2A16E480AF046F820E44FF000000A90D4
:102EF00009E091490A98095C0BAA11540A9800F15B
:102F00000100C0B20A900A980A28F2DB64480078EF
:102F1000C8B160480078012815D14FF05F010BA8B7
:102F20005D4A127881548448FDF72BF95A49097893
:102F3000884208D10BA8FDF724F900F101000BA984
:102F40004FF00A020A549548B0F900009449B1F9CB
:102F50000010944AB2F90020CDE900210290924875
:102F6000B0F900300BAA91A14C480AF003F84C4884
:102F7000007850B347480078032826D10BA8FDF706
:102F800000F900F121004449097800EB8100434930
:102F90004FF020020A540BA8FDF7F3F800F12200CD
:102FA0003D49097800EB81003C494FF020020A546A
:102FB0000BA8FDF7E6F800F123003749097800EB8C
:102FC000810036494FF020020A5434E47348B0F9C6
:102FD00000007349B1F90010CDE900107148B0F953
:102FE00000307148B0F90020434944312B4809F0C2
:102FF000C1FF2B480078D0B126480078022816D1AE
:103000004FF02001244800784FF01F0202EB8000AF
:10301000224A11542048007801EB800011541E48C8
:1030200000784FF0210202EB80001C4A115436E474
:103030006C48B0F900006C49B1F900106B4AB2F964
:1030400000206B4BB3F90030CDE90232CDE904101A
:103050005248B0F900005249B1F90010CDE9001012
:103060005048B0F900305048B0F90020224988316A
:103070000A4809F07FFF0A48007850B105480078F7
:10308000012806D14FF02001034800784FF00E02CE
:10309000B0E0C3E03C0000105D000010E409001047
:1030A00057000010BC000010B6000010B400001063
:1030B000B2000010B00000102020204554484552B6
:1030C0004E45543A0A20D8EBFEE73A0A2025303321
:1030D000752E253033752E253033752E25303375FA
:1030E0000A20CFEEF0F22EF7F2E5EDE8FF20252DD5
:1030F00075000000BE000010304A0100202020456D
:10310000544845524E45543A0A20CFEEF0F220F78B
:10311000F2E5EDE8FF20252D750A20CFEEF0F22034
:10312000E7E0EFE8F1E820252D750A20436F6D6D8B
:10313000756E6974793A00001A000010202020454D
:10314000544845524E45543A0A20CFEEF0F220E75B
:10315000E0EFE8F1E820252D750A20436F6D6D75CD
:103160006E6974793A0A20257300000020202045FA
:10317000544845524E45543A0A20436F6D6D756E62
:103180006974793A0A2025730A20C0E4F0E5F1E079
:10319000F22054524150204E31000000C600001071
:1031A000C4000010C2000010C00000102020204504
:1031B000544845524E45543A0A2025730A20C0E42B
:1031C000F0E5F1E0F22054524150204E310A202522
:1031D0003033752E253033752E253033752E25303E
:1031E00033750000CE000010CC000010CA000010A3
:1031F000C800001002EB8000FC4A1154FC48007823
:103200004FF00F0202EB8000F84A1154F8480078A2
:103210004FF0100202EB8000F44A1154F548007898
:10322000E8B1F5480078032819D14FF02001F048A3
:1032300000784FF0300202EB8000EC4A1154EC4869
:1032400000784FF0310202EB8000E84A1154E84860
:1032500000784FF0320202EB8000E44A11547DE323
:10326000E648B0F90000E649B1F90010CDE90010D8
:10327000E448B0F90030E448B0F90020E349DB4805
:1032800009F078FEDB480078D0B1DB4800780228EE
:1032900016D14FF02001D64800784FF01F0202EB04
:1032A0008000D24A1154D248007801EB80001154BA
:1032B000CF4800784FF0210202EB8000CB4A115436
:1032C0004CE3D348B0F90020D248B0F90010D248FE
:1032D000B0F90000D14BB3F90030CDE90230CDE9AF
:1032E0000412C648B0F90000C549B1F90010CDE993
:1032F0000010C448B0F90030C348B0F90020C349F9
:103300004431BA4809F036FEBA480078E8B1BA4804
:103310000078012819D14FF02001B54800784FF00E
:103320000E0202EB8000B14A1154B14800784FF010
:103330000F0202EB8000AD4A1154AD4800784FF007
:10334000100202EB8000A94A1154AA480078E8B1A3
:10335000A9480078032819D14FF02001A44800782B
:103360004FF0300202EB8000A04A1154A0480078D0
:103370004FF0310202EB80009C4A11549C480078C7
:103380004FF0320202EB8000984A1154E6E2A04866
:10339000B0F900009F49B1F90010CDE900109E4836
:1033A000B0F900309D48B0F9002098498C318F4821
:1033B00009F0E0FD8F480078D0B18F4800780228EE
:1033C00016D14FF020018A4800784FF01F0202EB1F
:1033D0008000864A11548648007801EB8000115421
:1033E000834800784FF0210202EB80007F4A11549D
:1033F000B4E28B48B0F900108A48B0F900008A4A5C
:10340000B2F90020894BB3F90030CDE90232CDE9A1
:1034100004017F48B0F900007E49B1F90010CDE900
:1034200000107D48B0F900307C48B0F900207749A1
:10343000D0316E4809F09EFD6E480078E8B16E48C4
:103440000078012819D14FF02001694800784FF029
:103450000E0202EB8000654A1154654800784FF077
:103460000F0202EB8000614A1154614800784FF06E
:10347000100202EB80005D4A11545E480078E8B10A
:103480005D480078032819D14FF020015848007892
:103490004FF0300202EB8000544A11545448007837
:1034A0004FF0310202EB8000504A1154504800782E
:1034B0004FF0320202EB80004C4A11544EE2584861
:1034C000B0F900005749B1F90010CDE90010564895
:1034D000B0F900305548B0F900205549434809F08B
:1034E00049FD44480078D0B143480078022816D1FD
:1034F0004FF020013E4800784FF01F0202EB8000A1
:103500003A4A11543A48007801EB80001154384887
:1035100000784FF0210202EB8000344A11541DE282
:103520004448B0F900004449B1F90010434AB2F9E7
:103530000020434BB3F90030CDE90232CDE904104D
:103540003748B0F900003749B1F90010CDE9001053
:103550003548B0F900303548B0F9002034494431DD
:10356000224809F007FD23480078E8B12248007896
:10357000012819D14FF020011D4800784FF00E02AC
:1035800002EB8000194A1154194800784FF00F02DD
:1035900002EB8000154A1154154800784FF01002D4
:1035A00002EB8000114A115412480078E8B1124829
:1035B0000078032819D14FF020010D4800784FF012
:1035C000300202EB8000094A1154094800784FF09C
:1035D000310202EB8000054A1154054800784FF093
:1035E000320202EB8000014A1154B7E1E4090010F5
:1035F0005D000010570000103C000010CE000010CD
:10360000CC000010CA000010C8000010004B0100E0
:10361000D6000010D4000010D2000010D00000101E
:10362000DE000010DC000010DA000010D8000010EE
:10363000184C0100E6000010E4000010E200001049
:10364000E0000010E848B0F90000E849B1F90010C6
:10365000CDE90010E648B0F90030E648B0F90020A6
:10366000E5A1F44809F086FCF3480078D0B1F348AE
:103670000078022816D14FF02001F14800784FF071
:103680001F0202EB8000EB4A1154ED48007801EB79
:1036900080001154EA4800784FF0210202EB8000CC
:1036A000E44A11545AE1E7A1E24809F063FC55E10C
:1036B000ED48007818B1AFF64C400E9002E0AFF63E
:1036C00064400E90E848C078E7498978CDE9001059
:1036D000E548407809900E9808900246E3A1D54845
:1036E000099B09F047FC39E1DF480079DE49C978D8
:1036F000CDE90010DC4880780990DB4840780890DC
:103700000246E8A1CB48099B09F034FC26E1D648E3
:103710004079D5490979CDE90010D348C07809909E
:10372000D148807808900246EBA1C248099B09F075
:1037300021FC13E1CC488079CB494979CDE90010CF
:10374000C94800790990C848C07808900246EEA19F
:10375000B848099B09F00EFC00E1C348C079C24992
:103760008979CDE90010C04840790990BE480079B8
:1037700008900246EFA1AF48099B09F0FBFBEDE082
:10378000B948007AB849C979CDE90010B6488079BE
:103790000990B548407908900246F1A1A548099BD7
:1037A00009F0E8FBDAE0B048007A0090AE48C07952
:1037B0000990AD48807908900246F4A19D48099B84
:1037C00009F0D8FBCAE0FB48B0F900000A2190FBE1
:1037D000F1F00246F8A10990964809F0CBFBBDE054
:1037E000F848B0F90000642190FBF1F201FB1200EF
:1037F0000990F448B0F9000090FBF1F008900246FF
:10380000F1A18C48099B09F0B5FBA7E0F248B0F99B
:103810000020F2A1874809F0ADFB9FE0F248B0F923
:1038200000000A2190FBF1F00246F0A109908148C6
:1038300009F0A0FB92E0F04800880A2190FBF1F229
:1038400001FB12000990EC48008890FBF1F0089011
:103850000246EAA17748099B09F08CFB7EE0EB4821
:10386000B0F90000B0F5FA7F05DCE848B0F90000D7
:1038700010F5FA7F1EDAE548B0F900004FF00A01B2
:1038800090FBF1F000B2E14908800846B0F9000071
:10389000FCF7BFFCDE490690FCF77BFC0790FCF7C9
:1038A000C1FC02460B46CDE90801DAA1614809F0E6
:1038B00061FB13E0D548B0F90000FCF7AAFCD84939
:1038C0000690FCF766FC0790FCF7ACFC02460B4642
:1038D000CDE90801D3A1574809F04CFB3EE0D4489C
:1038E0000288D4A1534809F045FB37E0D04802884C
:1038F000DAA1504809F03EFB30E0CD480288E1A152
:103900004C4809F037FB29E0E8A14A4809F032FBAE
:10391000ED4801780078401EEB4A1070E9B9EB4899
:103920000088B82807D1EA480078EA490870EA48D0
:10393000007842490870E5480088A0F5407169396F
:1039400007D1E6480078E3490870E54800783B492C
:1039500008704FF00000DD49088000BF00BF2DB0A7
:1039600000BD10B5FEF7B8F9DA480078EF2811DD90
:10397000D8480078F6280DDA4FF00600D9490870CB
:103980004FF00202084601782A48FDF753FBFDF785
:10399000A8FB18E04FF01000D24908704FF0040265
:1039A000084601782348FDF745FBCA480078FA2805
:1039B00007DA4FF03E01214800781E4A02EB001062
:1039C0000170FDF76EFF4FF0000408E0C649095D85
:1039D000084608F0A7F904F1010000B20446B4F566
:1039E000806FF3DB10BD0000E6000010E400001063
:1039F000E2000010E000001020202045544845520D
:103A00004E45543A0A20C0E4F0E5F1E0F220545269
:103A10004150204E350A20253033752E2530337520
:103A20002E253033752E253033750A20C2DBD5CED6
:103A3000C4000000E4090010570000103C00001012
:103A40005D00001020202045544845524E45543A10
:103A50000A2045746865726E657420C2DBCACB0AA1
:103A600020C2DBD5CEC40A00A805001020C3EB2E6F
:103A7000ECE5EDFE2025730A20F7E5F0E5E72025CB
:103A80002D75F1E5EA0A20E8EDF2E5F0E2E0EB2041
:103A9000252D75F1E5EA0A202025632055E2FBF586
:103AA0000000000020F7E5F0E5E720252D75F1E5A1
:103AB000EA0A20E8EDF2E5F0E2E0EB20252D75F1D1
:103AC000E5EA0A202025632055E2FBF50A2020259F
:103AD000632049E2FBF5000020E8EDF2E5F0E2E0CA
:103AE000EB20252D75F1E5EA0A202025632055E21B
:103AF000FBF50A202025632049E2FBF50A2020255A
:103B00006320D0E2FBF50000202025632055E2FB76
:103B1000F50A202025632049E2FBF50A20202563D1
:103B200020D0E2FBF50A202025632055F1E5F2E8DC
:103B300000000000202025632049E2FBF50A202038
:103B4000256320D0E2FBF50A202025632055F1E50E
:103B5000F2E80A202025632055E1E0F20000000091
:103B60002020256320D0E2FBF50A20202563205584
:103B7000F1E5F2E80A202025632055E1E0F20A2071
:103B80002025632049E1E0F20000000020202563A9
:103B90002055F1E5F2E80A202025632055E1E0F206
:103BA0000A202025632049E1E0F20A20C2DBD5CEBD
:103BB000C400000036E007202055E2FBF50A20256E
:103BC0002D75420038E007202049E2FBF50A252D3B
:103BD000752E25303275C0003CE007202050E2FBF6
:103BE000F50A252D6442F20012E0072055F1E5F2B6
:103BF000E80A252D754200002EE007202055E1E05F
:103C0000F20A252D752E252D7542000030E0072083
:103C1000000020412049E1E0F20A252E31664100F2
:103C20000000C8422049E1E0F20A252E3266410038
:103C300058000010C2E2E5E4E8F2E520EFE0F0EE23
:103C4000EBFC3A0A20202020202025303375200A62
:103C500020202020202020202A0A0000C2E2E5E4C3
:103C6000E8F2E520EFE0F0EEEBFC3A0A202020201D
:103C7000202025303375200A202020202020202AD3
:103C80000A000000C2E2E5E4E8F2E520EFE0F0EE31
:103C9000EBFC3A0A20202020202025303375200A12
:103CA0002020202020202A0A000000000A202020B6
:103CB0002020CFE0F0EEEBFC0A20202020EDE520D4
:103CC000E2E5F0E5ED210A005C0000105A0000106A
:103CD0003A000010390000103D0000103B000010B9
:103CE0003E00001019010010E4050010FF480078A4
:103CF00030B1FE480078A0F10100FC49087005E0F1
:103D0000FB480078A0F10100F94908707047F748B6
:103D10000078032806D1F648007800F10100F44944
:103D2000087005E0F148007800F10100EF490870E3
:103D30007047EE480078012806DDEC480078A0F1D5
:103D40000100EA49087005E0E9480078A0F10100A7
:103D5000E7490870704710B50021642007F041F86A
:103D60000021662007F03DF8C021682007F039F8EF
:103D7000A8216A2007F035F801216C2007F031F8FE
:103D8000F9216E2007F02DF8FF21702007F029F8A7
:103D9000FF21722007F025F8FF21742007F021F899
:103DA0000021762007F01DF8C021A42007F019F8A3
:103DB000A821A62007F015F80121A82007F011F886
:103DC000FE21AA2007F00DF8A121A02007F009F894
:103DD000A221084607F005F8A121C82007F001F844
:103DE000A221CA2006F0FDFF7021CC2006F0B5FF0D
:103DF0007521CD2006F0B1FF6221CE2006F0ADFF87
:103E00006C21CF2006F0A9FF6921D02006F0A5FF84
:103E10006321D12006F0A1FF0021D22006F09DFFF2
:103E2000C021EC2006F0DDFFA821EE2006F0D9FF2E
:103E30000121F02006F0D5FF0221F22006F0D1FF8B
:103E4000C021F42006F0CDFFA821F62006F0C9FF1E
:103E50000121F82006F0C5FF0421FA2006F0C1FF79
:103E6000C021FC2006F0BDFFA821FE2006F0B9FF0E
:103E70000121080206F0B5FF06214FF4817006F01B
:103E8000B0FFC0214FF4827006F0ABFFA8214FF4C1
:103E9000837006F0A6FF01214FF4847006F0A1FFA5
:103EA00008214FF4857006F09CFFC0214FF4867006
:103EB00006F097FFA8214FF4877006F092FF0121CA
:103EC0004FF4887006F08DFF09214FF4897006F0D9
:103ED00088FF00214FF4E17006F083FF1E214FF4AC
:103EE000E27006F07EFF03214FF4E37006F079FFE5
:103EF0004FF0030004460BE04FF4E17101EB440185
:103F000008462D2106F06DFF04F10100C0B2044601
:103F10000A2CF1DB10BD1FB575480078734909788C
:103F200008442F2801F0068232DC83F00481DFE8A8
:103F300010F0730081009A00B300CC00EE0007017E
:103F400020015701EF15EF15EF15EF15EF15EF15E0
:103F5000EF15EF15EF15EF15EF15EF1574019B0138
:103F6000DF012E027D02B402EF15EF15EF15EF15FC
:103F7000D3024903C903300497040D057405FD05F8
:103F80004406A106C006FA0662078E07AC08C608FA
:103F90003F2802F0BD8314DCA0F130000F28C4D20A
:103FA000DFE810F0E2091C0B7B0BDA0BF40B330D8E
:103FB0004D0D6B0E850EC10FDB0FFD1017115A1240
:103FC00074124B2802F0A5850DDCA0F143000828EF
:103FD000ABD2DFE810F0C113EB139D1511144A1496
:103FE0009F14F41439154F2802F0A7860ADC4C28D8
:103FF00002F0D4854D2802F016864E2843F09B80AF
:1040000002F056BEFA2802F0B886FB2802F0458777
:10401000FC28F3D102F0FDBF36480088022807D102
:104020003448008800F1010032490880FFF76FFE34
:1040300003F081B830480088022807D12E48008854
:1040400000F101002C490880FFF750FE2948008844
:10405000022807D12748008800F10100254908807F
:10406000FFF755FEE4E724480088022807D12248DC
:10407000008800F1010020490880FFF737FE1D4845
:104080000088022807D11B48008800F10100194967
:104090000880FFF73CFECBE717480088022807D1CD
:1040A0001548008800F1010013490880FFF71EFE43
:1040B00010480088022807D10E48008800F101004E
:1040C0000C490880FFF723FEB2E70B48008802285E
:1040D00007D10948008800F1010007490880FFF76F
:1040E00005FE04480088022810D107E03C000010BB
:1040F000390000104E00001050000010FF480088EA
:1041000000F10100FD490880FFF701FE90E7FC483F
:104110000088022807D1FA48008800F10100F84918
:104120000880FFF7E3FDF5480088022807D1F3482F
:10413000008800F10100F1490880FFF7E8FD77E70A
:10414000EF480088022807D1ED48008800F10100FF
:10415000EB490880FFF7CAFDE8480088022807D12C
:10416000E648008800F10100E4490880FFF7CFFD30
:104170005EE7E3480088022807D1E148008800F1A3
:104180000100DF490880FFF7B1FDDC480088022804
:1041900007D1DA48008800F10100D8490880FFF70C
:1041A000B6FDD8480088022819D1D648008800F109
:1041B0000100D4490880D4480078D4490870D44814
:1041C0000078D44908704FF0FC00CF4908704FF0D8
:1041D0000000CF4908704FF0B800CF49088027E7AA
:1041E000C7480088022807D1C548008800F10100AF
:1041F000C3490880FFF77AFDC248008802280BD126
:10420000C048008800F10100BE4908804FF000005E
:10421000BD490870BE4908700AE7B84800880228FE
:1042200007D1B648008800F10100B4490880FFF7C3
:104230006EFDB4480088022815D1B248008800F10C
:104240000100B0490880B0480078B4490870B0480F
:104250000078B34908704FF00100AD4908704FF085
:104260004600A9490870E3E6A5480088022810D155
:10427000A348008800F10100A1490880A248007805
:10428000152804D14FF014009F49087001E0FFF792
:1042900050FD9A480088022807D19848008800F10C
:1042A000010096490880FFF732FD964800880228F1
:1042B0001DD19448008800F101009249088092487D
:1042C00000789649087092480078954908704FF038
:1042D00001008F4908709348008820B14FF02800F2
:1042E0008949087003E04FF04200874908709FE653
:1042F00083480088022807D18148008800F1010026
:104300007F490880FFF715FD7C480088022807D107
:104310007A48008800F1010078490880FFF7F7FC2F
:1043200081480088022803D07F4800881E2812D1C7
:104330004FF003007C4908804FF000004FF09403D9
:10434000CDE9003002904FF0EE024FF01B010390D8
:10435000084606F083FE75480088022803D073489B
:1043600000881E2812D14FF00300704908804FF0DA
:1043700000004FF09203CDE9003002904FF0EE02C2
:104380004FF01B010390084606F068FE50E65C48BB
:104390000088022807D15A48008800F101005849D6
:1043A0000880FFF7C6FC55480088022807D153480B
:1043B000008800F1010051490880FFF7A8FC5A4825
:1043C0000088022803D0584800881E2812D14FF0D8
:1043D0000300554908804FF000004FF08403CDE9F9
:1043E000003002904FF0EE024FF01B0103900846A0
:1043F00006F034FE4D480088022803D04B48008860
:104400001E2812D14FF00300484908804FF00000E9
:104410004FF08203CDE9003002904FF0EE024FF0F2
:104420001B010390084606F019FE01E63448008897
:10443000022807D13248008800F101003049088085
:10444000FFF777FC2D480088022807D12B48008809
:1044500000F1010029490880FFF759FC294800882C
:10446000022819D12748008800F101002549088059
:10447000254800782949087025480078284908709F
:104480004FF0FC00204908704FF0000020490870F0
:1044900040F2693020490880CAE51948008802289E
:1044A00007D11748008800F1010015490880FFF77F
:1044B00040FC1448008802280DD11248008800F101
:1044C000010010490880114800780F490870114810
:1044D00000780F490870ABE508480088022807D12A
:1044E0000648008800F1010004490880FFF70FFC2E
:1044F0000D48008802281ED00B4819E04E0000101D
:104500005000001052000010390000103A00001056
:104510003C0000103D0000105A0000103B0000104D
:104520003E0000109C0000104C0000104A000010DB
:10453000008805281ED14FF00300FD490880FD4882
:104540000078FF280BD100200523CDE90030029030
:10455000EE221B210390084606F080FD0AE00020B1
:104560000423CDE900300290EE221B21039008467F
:1045700006F074FDF0480088022803D0EE48008859
:1045800005281ED14FF00300EB490880EB48007866
:10459000FF280BD100200323CDE900300290EE224A
:1045A0001B210390084606F059FD0AE00020022373
:1045B000CDE900300290EE221B210390084606F060
:1045C0004DFD35E5DE480088022807D1DC4800882B
:1045D00000F10100DA490880FFF7ABFBD9480088F9
:1045E000022807D1D748008800F10100D54908808A
:1045F000FFF78DFBCE480088022803D0CC48008806
:1046000005281ED14FF00300C9490880C948007829
:10461000FF280BD100202523CDE900300290EE22A7
:104620001B210390084606F019FD0AE00020242310
:10463000CDE900300290EE221B210390084606F0DF
:104640000DFDBD480088022803D0BB48008805281E
:104650001ED14FF00300B8490880B8480078FF2801
:104660000BD100202323CDE900300290EE221B2144
:104670000390084606F0F2FC0AE000202223CDE970
:1046800000300290EE221B210390084606F0E6FC63
:10469000AD480088022814D1AB48008800F1010021
:1046A000A94908804FF000004FF02103CDE9003008
:1046B00002904FF0EE024FF01B010390084606F007
:1046C000CDFCB5E49E480088022807D19C480088AC
:1046D00000F101009A490880FFF72BFB99480088F8
:1046E000022807D19748008800F101009549088009
:1046F000FFF70DFB8E480088022803D08C48008805
:1047000005281ED14FF003008949088089480078A8
:10471000FF280BD100206523CDE900300290EE2266
:104720001B210390084606F099FC0AE00020642350
:10473000CDE900300290EE221B210390084606F0DE
:104740008DFC7D480088022803D07B48008805281E
:104750001ED14FF003007849088078480078FF2880
:104760000BD100206323CDE900300290EE221B2103
:104770000390084606F072FC0AE000206223CDE9AF
:1047800000300290EE221B210390084606F066FCE2
:104790004EE46B480088022807D16948008800F180
:1047A000010067490880FFF7C4FA664800880228BC
:1047B00007D16448008800F1010062490880FFF7D2
:1047C000A6FA5B480088022803D0594800880528CB
:1047D0001ED14FF003005649088056480078FF2844
:1047E0000BD100205523CDE900300290EE221B2191
:1047F0000390084606F032FC0AE000205423CDE97D
:1048000000300290EE221B210390084606F026FCA1
:1048100049480088022803D04748008805281ED14F
:104820004FF003004449088044480078FF280BD12A
:1048300000205323CDE900300290EE221B2103908B
:10484000084606F00BFC0AE000205223CDE90030B8
:104850000290EE221B210390084606F0FFFB1AE4AB
:1048600037480088022807D13548008800F1010048
:1048700033490880FFF75DFA32480088022807D1E3
:104880003048008800F101002E490880FFF73FFA08
:1048900027480088022803D02548008805281ED113
:1048A0004FF003002249088022480078FF280BD1EE
:1048B00000203523CDE900300290EE221B21039029
:1048C000084606F0CBFB0AE000203423CDE9003097
:1048D0000290EE221B210390084606F0BFFB16480B
:1048E0000088022803D01448008805281ED14FF004
:1048F00003001149088011480078FF280BD10020DF
:104900003323CDE900300290EE221B2103900846AC
:1049100006F0A4FB0AE000203223CDE9003002902B
:10492000EE221B210390084606F098FB07E40000E6
:104930004C000010450000104A0000104400001018
:10494000500000104E00001052000010FF48008878
:10495000022807D1FD48008800F10100FB490880CA
:10496000FFF7E7F9FA480088022807D1F8480088DD
:1049700000F10100F6490880FFF7C9F9F548008801
:10498000022803D0F348008805281ED14FF0030009
:10499000F0490880F0480078FF280BD100207523EB
:1049A000CDE900300290EE221B210390084606F06C
:1049B00055FB0AE000207423CDE900300290EE227E
:1049C0001B210390084606F049FBE44800880228B2
:1049D00003D0E248008805281ED14FF00300DF49CC
:1049E0000880DF480078FF280BD100207323CDE931
:1049F00000300290EE221B210390084606F02EFBA9
:104A00000AE000207223CDE900300290EE221B2143
:104A10000390084606F022FB25E4CC4800880228D3
:104A200007D1CA48008800F10100C8490880FFF793
:104A300080F9C7480088022807D1C548008800F1DE
:104A40000100C3490880FFF762F9C24800880228C4
:104A500003D0C04800880F2827D14FF00500BD497A
:104A60000880BD4800784FF00A0190FBF1F000F19A
:104A70000100BC49B1F9001088420EDAB64800784E
:104A80004FF00A0190FBF1F000F10100B5490988EF
:104A9000A1EB000000B2B3490880B248B0F90000B1
:104AA00001460390162006F09CF9AC4800880228C5
:104AB00003D0AA4800880F2820D14FF00500A7494D
:104AC0000880A848B0F9000044F6206188420DDA59
:104AD000A34800784FF00A0190FBF1F000F10100CB
:104AE000A0490988084400B29E4908809D48B0F951
:104AF000000001460390162006F073F99A480088DA
:104B0000022812D19848008800F1010096490880D7
:104B100096484088964908800846B0F9000001464A
:104B200003904FF0140006F05CF92FE487480088EA
:104B3000022807D18548008800F1010083490880D8
:104B4000FFF7F7F882480088022807D180480088DC
:104B500000F101007E490880FFF7D9F87D48008800
:104B6000022812D14FF005007A4908808148007868
:104B700000280ADD0020D423CDE900300290EE2287
:104B80001B210390084606F069FA74480088022841
:104B900012D14FF00500714908807648007803284B
:104BA0000ADA0020D223CDE900300290EE221B2148
:104BB0000390084606F052FA37E464480088022859
:104BC00007D16248008800F1010060490880FFF7C2
:104BD000B0F85F480088022807D15D48008800F1DE
:104BE00001005B490880FFF792F85A4800880228C4
:104BF0001DD14FF00500574908805F48007858B92B
:104C00000020E223CDE900300290EE221B21039028
:104C1000084606F023FA0AE00020E423CDE900303C
:104C20000290EE221B210390084606F017FA4B482B
:104C3000008802281DD14FF00500484908804E48E1
:104C4000007858B90020E223CDE900300290EE222E
:104C50001B210390084606F001FA0AE00020E42335
:104C6000CDE900300290EE221B210390084606F0A9
:104C7000F5F911E435480088022807D13348008847
:104C800000F1010031490880FFF753F836480088E9
:104C900002280DD13448008800F101003249088013
:104CA000364800783649087036480078364908702A
:104CB00011E4284800881E280DDD284800881E2899
:104CC00009DD3248007830B9FFF745F84FF00100B0
:104CD0002E49087026E024480088022816D1224870
:104CE000008800F101002049088029480088C8B1E7
:104CF0004FF000002649088001464FF0640006F09E
:104D000070F84FF042001E4908700BE01048008810
:104D1000022807D10E48008800F101000C490880E4
:104D2000FEF7F5FF4DE40B4800881E2832DD0B48E6
:104D300000881E282EDD1548007830B9FFF70BF8E3
:104D40004FF001001149087054E023E050000010BA
:104D50004E0000104C000010450000104A000010EA
:104D60004400001092000010520000101C120010AD
:104D70008E00001068000010690000103B00001059
:104D8000390000103E0000103C00001056000010DA
:104D90009C000010FC480088022812D1FB480088C3
:104DA00020B14FF00000F949088003E04FF0010006
:104DB000F6490880F548B0F90010662006F011F8B1
:104DC00018E0F3480088022808D1F148008800F173
:104DD0000100EF490880FEF7ACFF0BE0ED480088CA
:104DE000022807D1EB48008800F10100E94908805A
:104DF000FEF78DFF65E4E84800881E280DDDE748D2
:104E000000881E2809DDE648007830B9FEF7A3FFC8
:104E10004FF00100E249087018E0DD4800880228E0
:104E200008D1DB48008800F10100D9490880FEF76D
:104E300080FF0BE0D7480088022807D1D5480088BA
:104E400000F10100D3490880FEF761FF39E4D04842
:104E5000008802280CD1CE48008800F10100CC491E
:104E60000880FEF766FF4FF00000CE4908700BE1A6
:104E7000C848008802280CD1C648008800F101000B
:104E8000C4490880FEF743FF4FF00000C549087091
:104E9000FAE0BD4800880A280DD1C248007800F128
:104EA0000100C049087008460078032802DD4FF071
:104EB00000000870E8E0B8480088022803D0B6482F
:104EC000008832286AD14FF01E00B3490880B548E7
:104ED0000078A8B9B448008820B94FF0FF00B24963
:104EE000088006E0B0480088A0F1010000B2AE4999
:104EF0000880AD48B0F90010682005F072FFC3E0EB
:104F0000A8480078012815D1A848008820B94FF09A
:104F1000FF00A649088006E0A4480088A0F101002F
:104F200000B2A2490880A148B0F900106A2005F03B
:104F300058FFA9E09B480078022815D19C480088BA
:104F400020B94FF0FF009A49088006E09848008891
:104F5000A0F1010000B2964908809548B0F9001010
:104F60006C2005F03EFF8FE08E480078032814D1B6
:104F70009048008820B94FF0FF008E49088006E075
:104F80008C480088A0F1010000B28A490880894855
:104F9000B0F900106E2005F024FF75E07F4800880E
:104FA000022803D07D48008832286DD14FF01E00C2
:104FB0007A4908807B480078B0B97B480088FF2890
:104FC00004D14FF000007849088006E07648008858
:104FD00000F1010000B2744908807348B0F9001074
:104FE000682005F0FEFE4FE06E480078012816D1DB
:104FF0006E480088FF2804D14FF000006B490880FC
:1050000006E06A48008800F1010000B267490880A4
:105010006648B0F900106A2005F0E3FE34E061480C
:105020000078022816D162480088FF2804D14FF08A
:1050300000005F49088006E05D48008800F101003B
:1050400000B25B4908805A48B0F900106C2005F0A6
:10505000C8FE19E053480078032815D15548008848
:10506000FF2804D14FF000005249088006E0514863
:10507000008800F1010000B24E4908804D48B0F9A7
:1050800000106E2005F0ADFE50E441480088022873
:1050900008D13F48008800F101003D490880FEF733
:1050A00048FE0BE03B480088022807D139480088B9
:1050B00000F1010037490880FEF729FE36E4344844
:1050C000008802280CD13248008800F101003049E4
:1050D0000880FEF72EFE4FF000003249087028E1EC
:1050E0002C48008802280CD12A48008800F10100D1
:1050F00028490880FEF70BFE4FF000002949087090
:1051000017E1214800880A280DD12648007800F1CF
:1051100001002449087008460078032802DD4FF09A
:105120000000087005E11C480088022803D01A48D6
:105130000088322878D14FF01E001749088019489E
:105140000078A8B91C48008820B94FF0FF001A4920
:10515000088006E018480088A0F1010000B2164956
:1051600008801548B0F90010702005F03AFEE0E024
:105170000C480078012831D11048008800BB4FF05E
:10518000FF000E49088022E0520000109E0000102F
:10519000500000104E0000104C0000104A0000109B
:1051A000560000105D000010A0000010A2000010CA
:1051B000A4000010A6000010A8000010AA00001013
:1051C000F8480088A0F1010000B2F6490880F548CF
:1051D000B0F90010722005F004FEAAE0F248007851
:1051E000022815D1F148008820B94FF0FF00EF499F
:1051F000088006E0ED480088A0F1010000B2EB490C
:105200000880EA48B0F90010742005F0EAFD90E04B
:10521000E5480078032815D1E548008828B94FF003
:10522000FF00E349088007E00DE0E1480088A0F1B5
:10523000010000B2DE490880DD48B0F90010762098
:1052400005F0CFFD75E0DB480088022803D0D9487F
:10525000008832286DD14FF01E00D6490880D24810
:105260000078B0B9D4480088FF2804D14FF000007E
:10527000D149088006E0D048008800F1010000B262
:10528000CD490880CC48B0F90010702005F0A9FD88
:105290004FE0C5480078012816D1C2480088FF2891
:1052A00004D14FF00000BF49088006E0BD480088E7
:1052B00000F1010000B2BB490880BA48B0F9001003
:1052C000722005F08EFD34E0B7480078022816D130
:1052D000B6480088FF2804D14FF00000B349088089
:1052E00006E0B248008800F1010000B2AF49088032
:1052F000AE48B0F90010742005F073FD19E0AA481B
:105300000078032815D1AA480088FF2804D14FF05F
:105310000000A749088006E0A548008800F10100C8
:1053200000B2A3490880A248B0F90010762005F029
:1053300058FD41E4A1480088022808D19F48008810
:1053400000F101009D490880FEF7F3FC0BE09C484A
:105350000088022807D19A48008800F10100984986
:105360000880FEF7D4FC27E49448008802280CD17A
:105370009248008800F1010090490880FEF7D9FCAE
:105380004FF00000884908700BE18D480088022822
:105390000CD18B48008800F1010089490880FEF794
:1053A000B6FC4FF0000080490870FAE0854800889C
:1053B0000A280DD17C48007800F101007A49087074
:1053C00008460078032802DD4FF000000870E8E08E
:1053D0007D480088022803D07B48008832286AD1A3
:1053E0004FF01E00784908806F480078A8B97748C8
:1053F000008820B94FF0FF007449088006E0734828
:105400000088A0F1010000B2704908806F48B0F92F
:105410000010A42005F0E5FCC3E0634800780128F3
:1054200015D16B48008820B94FF0FF00684908800B
:1054300006E067480088A0F1010000B264490880D6
:105440006348B0F90010A62005F0CBFCA9E056484F
:105450000078022815D15F48008820B94FF0FF007E
:105460005C49088006E05B480088A0F1010000B2BA
:10547000584908805748B0F90010A82005F0B1FC41
:105480008FE049480078032814D15348008820B998
:105490004FF0FF005049088006E04F480088A0F117
:1054A000010000B24C4908804B48B0F90010AA2016
:1054B00005F097FC75E03F480088022803D03D487E
:1054C000008832286DD14FF01E003A4908803648D6
:1054D0000078B0B93D480088FF2804D14FF00000A3
:1054E0003A49088006E03948008800F1010000B21E
:1054F000364908803548B0F90010A42005F071FC49
:105500004FE029480078012816D131480088FF284B
:1055100004D14FF000002E49088006E02C48008896
:1055200000F1010000B22A4908802948B0F90010B2
:10553000A62005F056FC34E01B480078022816D15E
:1055400024480088FF2804D14FF00000214908803A
:1055500006E02048008800F1010000B21D490880E3
:105560001C48B0F90010A82005F03BFC19E00E48DB
:105570000078032815D118480088FF2804D14FF07F
:1055800000001549088006E01348008800F101007A
:1055900000B2114908801048B0F90010AA2005F0A7
:1055A00020FC27E4AA0000105D000010AC000010F1
:1055B000AE0000104A000010A800001050000010BB
:1055C0004E000010520000104C000010B0000010FF
:1055D000B2000010B4000010B6000010FF480088B0
:1055E000022808D1FD48008800F10100FB4908802D
:1055F000FEF79FFB50E0FA480088022808D1F848DF
:10560000008800F10100F6490880FEF780FB43E0C6
:10561000F4480088022803D0F2480088322819D1C3
:105620004FF01E00EF490880EF48008820B94FF086
:10563000FF00ED49088006E0EB480088A0F101007A
:1056400000B2E9490880E848B0F90010C82005F028
:10565000C8FB21E0E5480088022803D0E348008821
:10566000322819D14FF01E00E0490880DE4800883A
:10567000FF2804D14FF00000DB49088006E0DA483B
:10568000008800F1010000B2D7490880D648B0F97F
:105690000010C82005F0A5FBF6E4D04800880228D9
:1056A00008D1CE48008800F10100CC490880FEF7FF
:1056B00040FB50E0CA480088022808D1C84800884A
:1056C00000F10100C6490880FEF721FB43E0C54810
:1056D0000088022803D0C3480088322819D14FF02F
:1056E0001E00C0490880C248008820B94FF0FF0062
:1056F000BF49088006E0BE480088A0F1010000B262
:10570000BB490880BA48B0F90010CA2005F069FB0F
:1057100021E0B6480088022803D0B4480088322827
:1057200019D14FF01E00B1490880B1480088FF2808
:1057300004D14FF00000AE49088006E0AC48008874
:1057400000F1010000B2AA490880A948B0F9001090
:10575000CA2005F046FB97E4A0480088022808D13B
:105760009E48008800F101009C490880FEF7E1FA9C
:105770000BE09B480088022807D19948008800F177
:10578000010097490880FEF7C2FA7DE4934800883B
:1057900002280CD19148008800F101008F4908804F
:1057A000FEF7C7FA4FF00000924908702CE18C48D0
:1057B000008802280CD18A48008800F1010088493D
:1057C0000880FEF7A4FA4FF000008A4908701BE138
:1057D000894800880A2827D18648007800F101000E
:1057E0008449087085480978405C70B94FF0000121
:1057F000824A8048007800F1010011547D48007809
:1058000000F1CD00039005F0A8FA7A480078401E18
:105810007A49085C18B177480078072803DD4FF013
:10582000000074490870EFE06E480088022803D039
:105830006C480088322866D14FF01E006949088004
:105840006E486C490978405C30B94FF07A016B487A
:10585000684A1278815449E0684866490978405C92
:1058600030281ED163480078A0B14FF00000634992
:10587000604A127888540146604A5E48007800F118
:10588000010011545B48007800F1CD00039005F051
:1058900064FA2BE04FF07A015848564A1278815446
:1058A00024E0564853490978405C412806D14FF01E
:1058B000390052494F4A1278885417E04F484D49F1
:1058C0000978405C612806D14FF05A004B49494A9B
:1058D000127888540AE0494846490978405CA0F1AA
:1058E0000100C1B24548434A1278815443484149B6
:1058F0000978405C03903F480078CC3002900399CF
:1059000005F02BFA80E039480088022803D0374898
:105910000088322878D14FF01E003449088037487B
:1059200034490978405C30B94FF030013348314A8E
:105930001278815448E031482E490978405C392872
:1059400006D14FF041002D492A4A127888543BE095
:105950002A4828490978405C5A2806D14FF061004E
:105960002649244A127888542EE02448214909788F
:10597000405C7A281ED11F480078A0B14FF000008B
:105980001E491C4A1278885402461A48007800F1D1
:1059900001000A541748007800F1CD001146039029
:1059A00005F0DBF910E04FF030001449114A12788D
:1059B000885409E011480F490978405C00F1010062
:1059C0000E490C4A127888540C480A490978405C00
:1059D000039008480078CC30029012E0500000108C
:1059E0004E0000104C000010BC0000104A000010D7
:1059F000BE0000105D000010520000101A000010E0
:105A000002E0039905F0A9F993E4FD480088022813
:105A100008D1FB48008800F10100F9490880FEF731
:105A200088F90BE0F7480088022807D1F54800887C
:105A300000F10100F3490880FEF769F979E4F048C4
:105A4000008802280CD1EE48008800F10100EC49E2
:105A50000880FEF76EF94FF00000EB4908700BE18B
:105A6000E848008802280CD1E648008800F10100CF
:105A7000E4490880FEF74BF94FF00000E249087056
:105A8000FAE0E24800880A280DD1DF48007800F1EA
:105A90000100DD49087008460078032802DD4FF058
:105AA00000000870E8E0DA480088022803D0D848EF
:105AB000008832286AD14FF01E00D5490880D248AC
:105AC0000078A8B9D348008820B94FF0FF00D14929
:105AD000088006E0CF480088A0F1010000B2CD495F
