:020000040000FA
:10000000C8420010E1000000E5000000E700000029
:10001000E9000000EB000000ED000000000000001F
:10002000000000000000000000000000EF000000E1
:10003000F100000000000000F30000002D090000A6
:10004000F7000000F7000000F7000000F7000000D4
:10005000F7000000F7000000F7000000F7000000C4
:10006000F7000000F7000000F7000000F7000000B4
:10007000F7000000F7000000F7000000F7000000A4
:10008000F7000000F7000000F7000000F700000094
:10009000F7000000F7000000ED080000F700000086
:1000A000F7000000CF9E0000F7000000F7000000FE
:1000B0005FAB0000F7000000F7000000F700000051
:1000C000F7000000F7000000F7000000DFF80CD098
:1000D00000F0A2F800480047E75A0000C8420010AC
:1000E00005480047FEE7FEE7FEE7FEE7FEE7FEE71E
:1000F000FEE7FEE7FEE7FEE7CD00000006280AD295
:10010000DFE800F003040506070804E003E002E06E
:1001100001E000E000BF00BF00BFFEE710B50BF03C
:10012000E3FB0BF03FFC0BF031FCAFF30080BDE8CC
:1001300010400BF0FDBB10B50CF0BEF90CF072FDD9
:10014000BDE810400CF010BA0CF024B90BF0ECBE76
:1001500009B1002070470BF0EFBA00207047000093
:1001600030B5104C2478A0420ED10F4CB4F90040A9
:10017000A14209D10D4CB4F90040A24204D10C4C6B
:10018000B4F90040A3420BD0064C2070064C2180ED
:10019000064C2280064C23804FF00104054D2C7044
:1001A00030BD0000690100106C0100106E010010EC
:1001B000700100106801001040EA01039B0703D0A2
:1001C00009E008C9121F08C0042AFAD203E011F896
:1001D000013B00F8013B521EF9D270470146002056
:1001E00000E0401C0A5C002AFBD1704730B50B468A
:1001F000014600202022012409E021FA02F59D4257
:1002000005D303FA02F5491B04FA02F52844151E2A
:10021000A2F10102F1DC30BD064C074D06E0E068BA
:1002200040F0010394E8070098471034AC42F6D33D
:10023000FFF750FFBCE70000FCE7000070B501EBE2
:10024000020410F8015B15F0070301D110F8013B1F
:100250002A1106D110F8012B03E010F8016B01F808
:10026000016B5B1EF9D12B0705D40023521E0FD45E
:1002700001F8013BFAE710F8013B02F10202A1EBA1
:10028000030303E013F8015B01F8015B521EF9D58B
:10029000A142D6D3002070BD00B5002200F008F8BE
:1002A000C04380B2010241EA102080B200BD0000CC
:1002B00005E000BF30F8023B891E5BBA1A440129F1
:1002C000F8DC11B1007802EB002290B200EB124092
:1002D00000EB104080B27047084400EB104080B241
:1002E0007047010241EA102080B2704702E008C85E
:1002F000121F08C1002AFAD170477047FFFFFFFFA5
:100300004FF020008749086000BF8648006810F061
:10031000400FFAD04FF00300834908604FF40030DB
:100320008249C1F8A8014FF00000814908604FF0F0
:100330000100804908608048804908604FF0010052
:10034000A1F1040108604FF0AA007D4908604FF058
:1003500055007649C1F88C0000BF7848001D006840
:1003600010F0806FF9D04FF00300764908604FF02D
:10037000AA006E49C1F88C004FF055007049086022
:100380004FF02300704908604FF00100A1F1040113
:1003900008604FF0AA006D4908604FF055000860F2
:1003A00000BF6948001D006810F4806FF9D04FF05D
:1003B0000300674908604FF0AA005C49C1F8AC002F
:1003C0004FF05500614908606248634908604FF08A
:1003D00000005649C1F8C8010846D0F88800C0F3AB
:1003E0000160032868D15348006810F0030006D06C
:1003F000012823D002283FD003285CD100E000BFB1
:1004000056480068C0F30E0000F101004FEA4001B9
:100410004648D0F88800C0F3074000F10100B1FB66
:10042000F0F04F4900FB01F03F490968C9B201F102
:100430000101B0FBF1F04B4908603CE0474800681F
:10044000C0F30E0000F101004FEA40013748D0F838
:100450008800C0F3074000F10100B1FBF0F0424911
:1004600000FB01F030490968C9B201F10101B0FB9C
:10047000F1F03C4908601EE038480068C0F30E0007
:1004800000F101004FEA40012848D0F88800C0F38D
:10049000074000F10100B1FBF0F04FF4FA4100FB1E
:1004A00001F021490968C9B201F10101B0FBF1F085
:1004B0002C49086000BF2FE01E48006810F00300C0
:1004C00006D0012810D0022819D0032823D100E03B
:1004D00000BF15480068C0B200F101002049B1FB1F
:1004E000F0F02049086016E00F480068C0B200F143
:1004F00001001D49B1FBF0F01A4908600BE00A4801
:100500000068C0B200F101004FF4FA41B1FBF0F015
:100510001449086000BF00BF43F23A000349086075
:1005200070470000A0C10F4004C10F4000C00F4041
:10053000ACC10F400CC10F404F00030084C00F40FE
:100540008CC00F4080C00F40A4C00F40ACC00F4013
:10055000A0C00F4048F10041C4C00F4088C00F4008
:1005600000093D00200000108096980000EB8002FA
:10057000114600BFA1F101021100FBD170470146F5
:1005800000BFA1F101021100FBD170474FF0110033
:10059000FF49087270471FB5FE480078401CC0B282
:1005A000FC490870182802DB4FF000000870F94879
:1005B000007807287EDCF7480078C0EBC00000EB2D
:1005C0004000F54901EB800090F83100F1490978CD
:1005D000C1EBC10101EB4101EF4A02EB810191F84E
:1005E0003010EC4A1278C2EBC20202EB4202EA4B34
:1005F00003EB820292F82D20E64B1B78C3EBC3037A
:1006000003EB4303E44C04EB830393F82C30CDE974
:100610000032CDE90210DF480078C0EBC00000EBEB
:100620004000214601EB800090F828000346ED22AF
:10063000D8480178007809F037F9D6480078D749CA
:10064000097888427EDAD3480078C0EBC00000EB1E
:100650004000214601EB8000C0780A2835DACD48F9
:100660000078C0EBC00000EB400001EB8000C078D8
:1006700000F10100C7490978C1EBC10101EB41015B
:10068000224602EB8101C870C2480078C0EBC0006E
:1006900000EB4000114601EB8000C0780A2820DB07
:1006A000BC480078C0EBC00000EB400001EB8000CC
:1006B000407800E058E010F0080F12D10122032129
:1006C000B448007806F0FBFD0BE04FF00A00B1499A
:1006D0000978C1EBC10101EB4101AF4A02EB810195
:1006E000C870AC480078C0EBC00000EB4000AA49DD
:1006F00001EB8000C07803281FDBA6480078C0EB20
:10070000C00000EB400001EB80000079032814DA00
:10071000A0480078C0EBC00000EB400001EB800077
:10072000407900F101009B490978C1EBC10101EB5F
:100730004101994A02EB8101487196480078C0EB6B
:10074000C00000E028E000EB4000934901EB80008E
:10075000C07890490978C1EBC10101EB41018E4A93
:1007600002EB8101087167E08A480078082863D0AD
:100770008848007809285FD0864800780A280CD17C
:1007800000200090019002900346024603908148A9
:100790000178007809F088F84EE07E4800780C284F
:1007A0004AD07C4800780D2846D07A4800780E2838
:1007B00042D07848007814280CD100200090019095
:1007C000029003460246039072480178007809F0CF
:1007D0006BF831E06F48007815280CD100200090AC
:1007E000019002900346024603906A48017800781F
:1007F00009F05AF820E06748007816280CD100204C
:1008000000900190029003460246039061480178EF
:10081000007809F049F80FE05E48007817280BD1FE
:100820000020009001900290034602460390594830
:100830000178007809F038F81FBD10B5682008F07D
:1008400062FD574908706A2008F05DFD5449487000
:100850006C2008F058FD524988706E2008F053FD56
:100860004F49C870702008F04EFD4D490872722043
:1008700008F049FDC1B24A4841724FF0740008F0D7
:1008800042FDC1B2464881724FF0760008F03BFD50
:10089000C1B24348C1724FF0A40008F034FD404992
:1008A0000871A62008F02FFDC1B23D4841714FF0FC
:1008B000A80008F028FDC1B2394881714FF0AA00A4
:1008C00008F021FDC1B23648C17110BD10B50CF061
:1008D000EBFB4FF001003349087010BD01460029C1
:1008E00002DA484200B270470846FCE72E4800682A
:1008F00020F0E0602C49086008464068C0F30B1007
:100900002A492B4A127821F812002948007800F170
:1009100001002749087008460078032805DA2248B4
:10092000006840F080702049086070474FF0010077
:10093000204908702048008800F1010000B21E49DB
:1009400008800A2807D14FF001001C4908704FF0B9
:100950000000194908801A480088401C00B2184954
:100960000880142807D14FF00100164908704FF095
:1009700000001349088014480088401C00B2124946
:100980000880642828D14FF00100104908701FE04A
:1009900000400240F0000010380A00103100001042
:1009A000884000106400001000400340180100104F
:1009B0000F0100105D000010240000105E00001008
:1009C000260000105F0000102800001060000010DA
:1009D0004FF00000FF490880FF480088401C00B22B
:1009E000FD490880C82807D14FF00100FB49087075
:1009F0004FF00000F8490880F9480088401C00B218
:100A0000F7490880B0F5FA7F07D14FF00100F549AA
:100A100008704FF00000F2490880F3480088401C3D
:100A200000B2F1490880B0F57A7F07D14FF001009C
:100A3000EE4908704FF00000EB490880704710B590
:100A400080B913884FF6FF74A34203DA138803F1C9
:100A5000010313800B78FF2B08DA0B7803F10103F5
:100A60000B7003E04FF0000313800B7010BD58B9FA
:100A70000B78012B03DB4FF0FF0313700EE00B78B4
:100A800003F101030B7009E00B781BB94FF0000371
:100A9000137003E00B78A3F101030B70704780B96A
:100AA000137873B90B78012B03DB4FF0FF0313703E
:100AB0000DE00B78012B0ADA0B7803F101030B70C0
:100AC00005E00B781BB10B78A3F101030B707047A5
:100AD00010B518B1C64B1B78012B13D113788BB905
:100AE0000B78012B09DB4FF00F0313704FF000035D
:100AF000BF4C2370BF4C237032E00B7803F101032D
:100B00000B702DE018B1BB4B1B78012B14D113785F
:100B10001F2B11D10B78012B09DB4FF02F03137022
:100B20004FF00003B34C2370B14C237018E00B78E6
:100B300003F101030B7013E00B788BB180B10B78DC
:100B4000A3F101030B7013780F2B03D14FF01F0398
:100B5000137005E013782F2B02D14FF000031370B0
:100B600010BD30B591B002464FF00004204621463A
:100B70004FF00104234636E04FEA0314A4F11004B9
:100B8000E4B2204621E0545C0A2C09D0545C3CB10C
:100B9000545C0DF8004001F10104E4B2214610E07C
:100BA00000BF07E04FF020040DF8004000F1010401
:100BB000E4B220461C018442F4DC01F10104E4B2F9
:100BC000214600F10104E4B220461C018442DADC33
:100BD000545C0A2C03D101F10104E4B2214603F173
:100BE0000104E4B22346052BC6DB4FF00004204687
:100BF00006E01DF80040145400F10104E4B2204660
:100C00004028F6DB11B030BDF0B54FF000052A46A4
:100C100007E04FF00005784EB55402F101052DB202
:100C20002A4640F2FF35AA42F3DB4FF000052A4680
:100C3000F1E04FF000052C46E6E04FF0100505FB13
:100C400002456E4E735DBF2B06DDA3F1610505EB1A
:100C500045054FEAC5000BE01F2B06DDA3F120057B
:100C600005EB45054FEAC50002E04FF000052846B8
:100C70004FEA02254FF0080606FB0451604E00F1D2
:100C80000405775D0D4601F1010631465A4E775550
:100C90005B4E00F10605775D0D4601F10106314618
:100CA000554E7755564E00F10805775D0D4601F11A
:100CB00001063146504E7755514E00F10A05775DD9
:100CC0000D4601F1010631464B4E77554C4E00F171
:100CD0000C05775D0D4601F101063146464E77550C
:100CE000474E00F10E05775D0D4601F101063146D4
:100CF000414E7755424E00F11005775D0D4601F1EA
:100D0000010631463C4E77553D4E00F11205775DA8
:100D10000D4601F101063146374E77554FEA02255F
:100D20004FF0080606FB045505F180052946344EB0
:100D300000F10505775D0D4601F1010631462E4EA5
:100D400077552F4E00F10705775D0D4601F101063D
:100D50003146294E77552A4E00F10905775D0D463B
:100D600001F101063146244E7755254E00F10B0561
:100D7000775D0D4601F1010631461F4E7755204E35
:100D800000F10D05775D0D4601F1010631461A4E61
:100D900077551B4E00F10F05775D0D4601F10106F9
:100DA0003146154E7755164E00F11105775D0D460B
:100DB00001F101063146104E7755114E00F1130531
:100DC000775D0D4601F1010631460B4E775504F172
:100DD000010517E0280000102A0000106100001033
:100DE0002C000010620000102E00001063000010A4
:100DF0000C0100100B010010F0050010F0090010AC
:100E000010D300002DB22C46102CFFF616AF02F1C5
:100E100001052DB22A46042AFFF60BAFF0BD00B53E
:100E2000ADB04FF001000E90FC48007831287DD025
:100E30002EDC21287BD017DC052879D006DC81F058
:100E40001184DFE800F05B8FB6DCFE001E2870D056
:100E500005DC14286ED0152841F004847FE11F289A
:100E600069D02028F8D1EFE222380F28E7D2DFE856
:100E700010F036036E03400A400A400A400AA203FB
:100E8000BD0305043904A004D10451068906C50632
:100E9000422801F02E8310DCA0F132000B28CED2C4
:100EA000DFE810F0EE06220793079408F9082B09F3
:100EB0009109C309280A5A0AF60A4B2801F08683C9
:100EC0000ADCA0F146000528B9D2DFE810F0170BC4
:100ED000330B460B590B6C0BFB2801F0A18306DC8E
:100EE0004C2801F08683FA28B6D101F092BBFC2889
:100EF00001F09D83FF28AFD101F0A0BBC848B0F935
:100F000000000A2190FBF1F00990C648B0F90000FA
:100F100090FBF1F201FB12000890C248B0F90010FA
:100F20000A2091FBF0F00790BF4805E0FEE3A9E23C
:100F3000DDE019E10EE144E1B0F900000A2190FB87
:100F4000F1F00690B949B1F90020DDE90810CDE9CA
:100F500000120290B6A1C348DDE9062309F07AFE2B
:100F600001F080BBAE48B0F900000A2190FBF1F01F
:100F70000990AC48B0F90000642190FBF1F201FB4C
:100F800012000890A748B0F9000090FBF1F007901C
:100F9000B548B0F90010A54AB2F900200998CDE98A
:100FA00000200291B1A1AF48DDE9072309F052FE0C
:100FB000D6E7BA48B0F900000A2190FBF1F201FB34
:100FC00012000990B548B0F9000090FBF1F00890CC
:100FD0009348B0F9000090FBF1F00790A24AB2F9F3
:100FE0000020DDE90810CDE9002102908F48B0F91A
:100FF0000020ABA19B48079B09F02CFEB0E7B4484A
:10100000B0F90000002802DA4FF0FF300E90B0492E
:10101000B1F900100E984843642190FBF1F201FBF6
:1010200012000990AA48B0F9000090FBF1F0089076
:101030009A48B0F900000A2190FBF1F201FB12007E
:1010400000E01DE007909548B0F9000090FBF1F03A
:1010500006907348B0F9000090FBF1F00590DDE9CF
:101060000623DDE90810CDE90023CDE902107E4812
:10107000B0F9003097A17B48059A09F0EBFD6FE7C6
:101080009348B0F90000002802DA4FF0FF300E90CC
:101090008F49B1F900100E984843642190FBF1F29A
:1010A00001FB120009908A48B0F9000090FBF1F0B2
:1010B00008907A48B0F900000A2190FBF1F201FB98
:1010C000120007907548B0F9000090FBF1F006900F
:1010D000DDE907120998CDE9001202906248B0F9E3
:1010E000002089A15F48069B09F0B4FD38E77848E5
:1010F000B0F90000002802DA4FF0FF300E9074497A
:10110000B1F900100E984843642190FBF1F201FB05
:10111000120009906E48B0F9000090FBF1F00890C1
:101120005E48B0F900000A2190FBF1F201FB1200C9
:1011300007905A48B0F9000090FBF1F00690DDE905
:101140000801CDE900017DA14648DDE9062309F04B
:1011500081FD05E786A1434809F07CFD00E791A1E8
:10116000404809F077FDFBE62E48B0F90000642105
:1011700090FBF1F201FB120009902A48B0F900003F
:1011800090FBF1F008902848B0F900000A2190FB8C
:10119000F1F201FB120007902348B0F900100A2079
:1011A00091FBF0F006902148B0F90020DDE908013C
:1011B0008DE8070086A12B48DDE9062309F04AFDEA
:1011C000CEE61748B0F900000A2190FBF1F201FBCE
:1011D000120009901248B0F9000090FBF1F008905D
:1011E0001048B0F90000642190FBF1F201FB1200FD
:1011F00007900C48B0F9000090FBF1F006900B4A04
:10120000B2F90020DDE90810CDE9002102907FA1AC
:101210001448DDE9062309F01DFDA1E634000010A5
:1012200012E0072038E0072036E007203CE00720E6
:101230002055E2FBF53D252D75C20A2049E2FBF55C
:101240003D252D752E25303175C00A2050E2FBF565
:101250003D252D64C2F20A2055F1E5F2E83D252D29
:1012600075C20000F00900103AE007202049E2FBB7
:10127000F53D252D752E25303275C00A2050E2FB34
:10128000F53D252D64C2F20A2055F1E5F2E83D2531
:101290002D75C20A20743D25642743002EE00720E7
:1012A0002050E2FBF53D252D64C2F20A2055F1E500
:1012B000F2E83D252D75C20A20743D252D64274393
:1012C0000A2055E1E0F23D252D752E252D754200B1
:1012D00030E007202055F1E5F2E83D252D75C20AE2
:1012E00020743D252D6427430A2055E1E0F23D2579
:1012F0002D752E252D75420A2049E1E0F23D252D60
:10130000642E25303275410020743D252D6427431D
:101310000A2055E1E0F23D252D752E252D75420A56
:101320002049E1E0F23D252D642E25303275410A39
:1013300020D3D1D2C0CDCEC2CAC800002055E1E032
:10134000F23D252D752E252D75420A2049E1E0F24A
:101350003D252D642E25303275410A20D3D1D2C0CF
:10136000CDCEC2CAC80A20C2DBD5CEC40000000060
:1013700020202020D3D1D2C0CDCEC2CAC80A20C2DC
:10138000FBE1EEF020E3EB2EECE5EDFE0A20C8EDEC
:10139000F2E5F0EDE5F20A20CAE0EBE8E1F0EEE27A
:1013A000EAE0000020202020D3D1D2C0CDCEC2CA96
:1013B000C80A20C8EDF2E5F0EDE5F20A20CAE0EB3C
:1013C000E8E1F0EEE2EAE00A20C2DBD5CEC400009C
:1013D000202020CAC0CBC8C1D0CEC2CAC00A205566
:1013E000E2FBF53D252D752E25303175C20A2049C9
:1013F000E2FBF53D252D752E25303275C00A2050B3
:10140000E2FBF53D252D75C2F2000000202020CA28
:10141000C0CBC8C1D0CEC2CAC00A2049E2FBF53D4C
:10142000252D752E25303275C00A2050E2FBF53D82
:10143000252D75C2F20A2055F1E5F2E83D252D75FE
:101440002E25303175C20000FB48B0F900000A219A
:1014500090FBF1F201FB12000990F748B0F900008F
:1014600090FBF1F00890F548B0F900100998CDE92B
:101470000001F348B0F90020F2A1FF48089B09F0F1
:10148000E9FB6DE5FD48B0F900000A2190FBF1F29F
:1014900001FB12000990F948B0F9000090FBF1F04F
:1014A0000890E548B0F9000090FBF1F201FB120052
:1014B0000790E148B0F900100A2091FBF0F0069087
:1014C000DE4AB2F90020DDE90810CDE900210290E2
:1014D000EBA1E948DDE9062309F0BCFB40E5F6484D
:1014E000B0F90000002802DA4FF0FF300E90F24908
:1014F000B1F900100E984843642190FBF1F201FB12
:1015000012000990EC48B0F9000090FBF1F008904F
:10151000DA48B0F900000A2190FBF1F201FB120059
:101520000790D648B0F900100A2091FBF0F0069021
:10153000DDE907120998CDE900120290BF48B0F921
:101540000020DEA1CC48069B09F084FB08E5DA48C0
:10155000B0F90000002802DA4FF0FF300E90D649B3
:10156000B1F900100E984843642190FBF1F201FBA1
:1015700012000990D048B0F90010642091FBF0F0FF
:101580000890BE48B0F900000A2190FBF1F201FB7F
:1015900012000790B948B0F9000090FBF1F00690F6
:1015A000DDE90801CDE90001D2A1B348DDE9062358
:1015B00009F050FBD4E4DC48008810B1DBA00F90A8
:1015C00001E0DBA00F90DC48008810B1D7A010909C
:1015D00001E0D7A01090109809900F98089002464B
:1015E000D6A1A548099B09F035FBB9E4CE4800888F
:1015F00010B1DFA00F9001E0CDA00F90CE48008881
:1016000010B1DBA0109001E0C9A01090DA48B0F949
:101610000000DA49B1F90010D94AB2F90020CDE949
:101620000021029010980990D648B0F90030D6A158
:101630009148099A09F00EFBE2480078E8B1E248C7
:101640000078032819D14FF02001E04800784FF0CE
:10165000290202EB8000884A1154DC4800784FF0E0
:101660002A0202EB8000844A1154D84800784FF0D7
:101670002B0202EB8000804A115471E4BE48B0F99D
:101680000000BE49B1F90010CDE90010BC48B0F926
:101690000030BC48B0F90020CDA1774809F0DAFA53
:1016A000C8480078E8B1C8480078022819D14FF03E
:1016B0002001C64800784FF0180202EB80006E4A05
:1016C0001154C24800784FF0190202EB80006A4AB8
:1016D0001154BE4800784FF01A0202EB8000664AAF
:1016E00011543DE4C948B0F90000C949B1F90010EE
:1016F000C84AB2F90020C84BB3F90030CDE9023234
:10170000CDE904109C48B0F900009C49B1F90010E3
:10171000CDE900109A48B0F900309A48B0F900209D
:10172000BE49554809F096FAA64800E071E20078F3
:10173000E8B1A5480078032819D14FF02001A3484B
:1017400000784FF02F0202EB80004B4A11549F4863
:1017500000784FF0300202EB8000474A11549B485A
:1017600000784FF0310202EB8000434A1154954853
:101770000078E8B194480078012819D14FF0200191
:10178000924800784FF00E0202EB80003A4A115462
:101790008E4800784FF00F0202EB8000364A115459
:1017A0008A4800784FF0100202EB8000324A115450
:1017B00024E49648B0F900009549B1F90010CDE94C
:1017C00000109448B0F900309348B0F9002094A17B
:1017D000294809F03FFA7B480078D0B17A48007870
:1017E000022816D14FF02001784800784FF01E02F1
:1017F00002EB8000204A1154744800784FF01F0219
:1018000002EB80001C4A11547048007801EB800004
:10181000115434E49148B0F900009149B1F9001035
:10182000904AB2F90020904BB3F90030CDE9023272
:10183000CDE90410754819E112E007203AE00720CD
:101840003CE00720202020CAC0CBC8C1D0CEC2CAED
:10185000C00A2050E2FBF53D252D75C2F20A205545
:10186000F1E5F2E83D252D752E25303175C20A20AF
:10187000743D256427430000F00900102EE0072086
:10188000202020CAC0CBC8C1D0CEC2CAC00A2055B1
:10189000F1E5F2E83D252D752E25303175C20A207F
:1018A000743D256427430A2055E1E0F23D252D755E
:1018B0002E252D754200000030E00720202020CA90
:1018C000C0CBC8C1D0CEC2CAC00A20743D2564278F
:1018D000430A2055E1E0F23D252D752E252D754258
:1018E0000A2049E1E0F23D252D642E253032754174
:1018F00000000000202020CAC0CBC8C1D0CEC2CA80
:10190000C00A2055E1E0F23D252D752E252D7542AA
:101910000A2049E1E0F23D252D642E253032754143
:101920000A20C2DBD5CEC40094000010C2CACB008E
:10193000C2DBCACB0000000096000010202020452A
:10194000544845524E45543A0A2045746865726EB3
:1019500065742025730A2044484350EAEBE8E5ED1E
:10196000F22025730A204950E0E4F0E5F13A000046
:10197000C2CACB20000000009E0000109C00001096
:101980009A0000109800001020202045544845522D
:101990004E45543A0A2044484350EAEBE8E5EDF25C
:1019A0002025730A204950E0E4F0E5F13A0A2025A9
:1019B0003033752E253033752E253033752E253076
:1019C0003375000051000010370000105700001060
:1019D00020202045544845524E45543A0A2049504B
:1019E000E0E4F0E5F13A0A20253033752E25303356
:1019F000752E253033752E253033750A20CCE0F155
:101A0000EAE020EFEEE4F1E5F2E83A00A60000108B
:101A1000A4000010A2000010A00000102CE20000A2
:101A200020202045544845524E45543A0A20CCE0E7
:101A3000F1EAE020EFEEE4F1E5F2E83A0A202530A1
:101A400033752E253033752E253033752E253033E2
:101A5000750A20D8EBFEE73A00000000AE00001047
:101A6000AC000010AA000010A8000010B0F900009F
:101A7000EF49B1F90010CDE90010EE48B0F900309F
:101A8000ED48B0F90020EDA1FC4809F0E3F8FC486E
:101A90000078E8B1FB480078012819D14FF0200107
:101AA000F94800784FF00E0202EB8000F34A11541F
:101AB000F54800784FF00F0202EB8000EF4A115416
:101AC000F14800784FF0100202EB8000EB4A11540D
:101AD000EB480078E8B1EB480078032819D14FF0C3
:101AE0002001E94800784FF0260202EB8000E34A2B
:101AF0001154E54800784FF0270202EB8000DF4ADE
:101B00001154E14800784FF0280202EB8000DB4AD4
:101B10001154B6E4DD48B0F90010DD48B0F900001A
:101B2000DC4AB2F90020CDE900200291DA48B0F990
:101B30000030DA48B0F90020D9A1D04809F08AF87D
:101B4000CF480078E8B1CF480078022819D14FF08B
:101B50002001CD4800784FF0150202EB8000C74A03
:101B60001154C94800784FF0160202EB8000C34AB6
:101B70001154C54800784FF0170202EB8000BF4AAD
:101B800011547EE4D548B0F90010C048B0F9000007
:101B9000BF4AB2F90020BF4BB3F90030CDE90032A3
:101BA000CDE90201BC48B0F90030BC48B0F90020D2
:101BB000CB49B24809F04EF8B1480078E8B1B148D5
:101BC0000078012819D14FF02001AF4800784FF07C
:101BD0000E0202EB8000A94A1154AB4800784FF086
:101BE0000F0202EB8000A54A1154A74800784FF07D
:101BF000100202EB8000A14A115442E4B748B0F948
:101C00000030A248B0F90020B6A19C4809F022F8A3
:101C100037E44FF000000A9009E0C1490A98095CD6
:101C20000BAA11540A9800F10100C0B20A900A9858
:101C30000A28F2DB92480078C8B19248007803285D
:101C400015D14FF05F000BA98F4A12788854B44821
:101C5000FEF7C4FA8C490978884208D10BA8FEF730
:101C6000BDFA00F101000BA94FF00A020A540BABB8
:101C70009A48B0F90020ABA1804808F0EBFF2DE4B2
:101C80004FF000000A9009E0A5490A98095C0BAAE8
:101C900011540A9800F10100C0B20A900A980A286B
:101CA000F2DB77480078C8B176480078022815D171
:101CB0004FF05F010BA8744A127881549848FEF7E0
:101CC0008DFA71490978884208D10BA8FEF786FA87
:101CD00000F101000BA94FF00A020A540BAA9DA1C2
:101CE000664808F0B7FF31E44FF000000A9009E0C1
:101CF0008B490A98095C0BAA11540A9800F101005B
:101D0000C0B20A900A980A28F2DB5D480078C8B190
:101D10005C480078012815D14FF05F000BA95A4AA2
:101D2000127888547E48FEF759FA57490978884254
:101D300008D10BA8FEF752FA00F101000BA94FF0F1
:101D40000A020A548F48B0F900108F48B0F9000019
:101D50008E4AB2F90020CDE9002002918C48B0F9FA
:101D600000300BAA8BA1454808F074FF4448007866
:101D700050B344480078032826D10BA8FEF72EFA6A
:101D800000F121004049097800EB81003B494FF008
:101D900020020A540BA8FEF721FA00F122003A496A
:101DA000097800EB810035494FF020020A540BA856
:101DB000FEF714FA00F123003349097800EB8100A3
:101DC0002E494FF020020A540FE46E48B0F900008B
:101DD0006D49B1F90010CDE900106C48B0F9003040
:101DE0006B48B0F900203E494431244808F032FFE6
:101DF00023480078D0B123480078022816D14FF04C
:101E00002001214800784FF01F0202EB80001B4A9E
:101E100011541D48007801EB800011541A480078D5
:101E20004FF0210202EB8000144A115461E20000DD
:101E3000A4000010A2000010A000001020202045E7
:101E4000544845524E45543A0A20253033752E25C4
:101E50003033752E253033752E253033750A20D852
:101E6000EBFEE73A0A20253033752E253033752EE8
:101E7000253033752E25303375000000F009001031
:101E8000510000103700001057000010B000001083
:101E9000AE000010AC000010AA000010A800001056
:101EA00020202045544845524E45543A0A20D8EB4C
:101EB000FEE73A0A20253033752E253033752E255E
:101EC0003033752E253033750A20CFEEF0F22EF721
:101ED000F2E5EDE8FF20252D75000000B2000010AE
:101EE00074E2000020202045544845524E45543AA3
:101EF0000A20CFEEF0F220F7F2E5EDE8FF20252DE5
:101F0000750A20CFEEF0F220E7E0EFE8F1E82025B7
:101F10002D750A20436F6D6D756E6974793A0000F6
:101F20001600001020202045544845524E45543A92
:101F30000A20CFEEF0F220E7E0EFE8F1E820252DCF
:101F4000750A20436F6D6D756E6974793A0A2025A4
:101F50007300000020202045544845524E45543A15
:101F60000A20436F6D6D756E6974793A0A20257386
:101F70000A20C0E4F0E5F1E0F22054524150204E36
:101F800031000000BA000010B8000010B6000010C8
:101F9000B400001020202045544845524E45543A84
:101FA0000A2025730A20C0E4F0E5F1E0F220545243
:101FB0004150204E310A20253033752E253033759F
:101FC0002E253033752E253033750000FF48B0F9CB
:101FD0000000FF49B1F90020FE49B1F90010FE4BA5
:101FE000B3F90030CDE90231CDE90420FB48B0F966
:101FF0000000FB49B1F90010CDE90010F948B0F933
:102000000030F948B0F90020F849F94808F022FEFC
:10201000F8480078E8B1F8480078012819D14FF065
:102020002001F64800784FF00E0202EB8000F04AE3
:102030001154F24800784FF00F0202EB8000EC4A96
:102040001154EE4800784FF0100202EB8000E84A8D
:102050001154E8480078E8B1E7480078032819D11E
:102060004FF02001E54800784FF0300202EB80008D
:10207000DF4A1154E14800784FF0310202EB800052
:10208000DB4A1154DD4800784FF0320202EB800049
:10209000D74A1154E6E2CD48B0F90000CC49B1F975
:1020A0000010CDE90010CB48B0F90030CA48B0F9B3
:1020B0000020CE494831CE4808F0CCFDCD4800780C
:1020C000D0B1CD480078022816D14FF02001CB487E
:1020D00000784FF01F0202EB8000C54A1154C74838
:1020E000007801EB80001154C44800784FF02102C1
:1020F00002EB8000BE4A1154B4E2C148B0F90000BE
:10210000C049B1F90010C04AB2F90020BF4BB3F981
:102110000030CDE90232CDE90410AC48B0F900003E
:10212000AB49B1F90010CDE90010AA48B0F9003070
:10213000A948B0F90020AD498C31AD4808F08AFDBE
:10214000AC480078E8B1AC480078012819D14FF0CC
:102150002001AA4800784FF00E0202EB8000A44A4A
:102160001154A64800784FF00F0202EB8000A04AFD
:102170001154A24800784FF0100202EB80009C4AF4
:1021800011549C480078E8B19B480078032819D185
:102190004FF02001994800784FF0300202EB8000A8
:1021A000934A1154954800784FF0310202EB8000B9
:1021B0008F4A1154914800784FF0320202EB8000B0
:1021C0008B4A11544EE28E48B0F900008D49B1F9A6
:1021D0000010CDE900108C48B0F900308B48B0F900
:1021E00000208249D431824808F034FD81480078CB
:1021F000D0B181480078022816D14FF020017F48E5
:1022000000784FF01F0202EB8000794A11547B489E
:10221000007801EB80001154784800784FF02102DB
:1022200002EB8000724A11541CE27948B0F90000B8
:102230007849B1F90010784AB2F90020774BB3F928
:102240000030CDE90232CDE904106D48B0F900004C
:102250006C49B1F90010CDE900106B48B0F90030BD
:102260006A48B0F900206E49614808F0F3FC614803
:102270000078E8B160480078012819D14FF02001BA
:102280005E4800784FF00E0202EB8000584A11546D
:102290005A4800784FF00F0202EB8000544A115464
:1022A000564800784FF0100202EB8000504A11545B
:1022B00050480078E8B150480078032819D14FF011
:1022C00020014E4800784FF0300202EB8000484A6F
:1022D00011544A4800784FF0310202EB8000444A22
:1022E0001154464800784FF0320202EB8000404A19
:1022F0001154B7E14648B0F900004649B1F9001061
:10230000CDE900104448B0F900304448B0F900204D
:1023100043494831364808F09DFC36480078D0B132
:1023200035480078022816D14FF020013348007854
:102330004FF01F0202EB80002D4A11542F48007805
:1023400001EB800011542D4800784FF0210202EB80
:102350008000274A115485E13248B0F90000324923
:10236000B1F90010314AB2F90020314BB3F9003015
:10237000CDE90232CDE904102548B0F90000254925
:10238000B1F90010CDE900102348B0F9003023481E
:10239000B0F9002022498C31154808F05BFC154843
:1023A000007890B11448007801284FD14FF02001F7
:1023B000124800784FF00E0202EB80000C4A1154D4
:1023C0000E4800784FF00F0234E03FE0C2000010EA
:1023D000C0000010BE000010BC000010BA000010C9
:1023E000B8000010B6000010B4000010FCE20000BD
:1023F000F0090010510000103700001057000010C5
:10240000CA000010C8000010C6000010C400001070
:10241000D2000010D0000010CE000010CC00001040
:1024200014E40000DA000010D8000010D6000010FC
:10243000D400001002EB8000E94A1154E94800780A
:102440004FF0100202EB8000E54A1154E648007894
:10245000E8B1E6480078032819D14FF02001E1489F
:1024600000784FF0300202EB8000DD4A1154DD4865
:1024700000784FF0310202EB8000D94A1154D9485C
:1024800000784FF0320202EB8000D54A1154E9E0A7
:10249000D748B0F90000D749B1F90010CDE90010D4
:1024A000D548B0F90030D548B0F90020D4A1CC48C7
:1024B00008F0D0FBCC480078D0B1CC480078022896
:1024C00016D14FF02001C74800784FF01F0202EBF1
:1024D0008000C34A1154C348007801EB80001154B6
:1024E000C04800784FF0210202EB8000BC4A115432
:1024F000B8E0D2A1BA4808F0ADFBB3E0D848007804
:1025000018B1AFF6D8300F9002E0AFF6DC300F9084
:10251000D348C078D2498978CDE90010D0484078B6
:1025200009900F9808900246CEA1AD48099B08F08B
:1025300091FB97E0CA480079C949C978CDE90010F4
:10254000C74880780990C648407808900246D3A1D1
:10255000A348099B08F07EFB84E0C1484079C0494C
:102560000979CDE90010BE48C0780990BC48807850
:1025700008900246D6A19A48099B08F06BFB71E0CF
:10258000B7488079B6494979CDE90010B448007957
:102590000990B348C07808900246D9A19048099B99
:1025A00008F058FB5EE0AE48C079AD498979CDE9C5
:1025B0000010AB4840790990A9480079089002467C
:1025C000DAA18748099B08F045FB4BE0A448007A54
:1025D000A349C979CDE90010A14880790990A048A4
:1025E000407908900246DCA17D48099B08F032FB47
:1025F00038E09B48007A00909948C0790990984843
:10260000807908900246DFA17548099B08F022FBFB
:1026100028E0E6480288E6A1714808F01BFB21E0AB
:10262000E2480288ECA16E4808F014FB1AE0DF488B
:102630000288F3A16A4808F00DFB13E0FAA168488C
:1026400008F008FBFF4801780078401EFD4A107032
:1026500039B9FD480078FD490870FD4800786349A4
:10266000087000BF00BF2DB000BD10B5FEF7D7FB4E
:102670005B48FEF776FAF5480078FA2807DA4FF05B
:102680003E015A480078564A02EB00100170FEF7EE
:10269000BBFA4FF0000408E0EE49095D084607F078
:1026A0008FFC04F1010000B20446B4F5806FF3DB47
:1026B00010BD4E48007830B14C480078A0F10100C0
:1026C0004A49087005E0E1480078A0F10100DF49BF
:1026D0000870704745480078032806D1DB48007829
:1026E00000F10100D949087005E04048007800F188
:1026F00001003E49087070473C480078012806DD1B
:102700003A480078A0F101003849087005E0CF4848
:102710000078A0F10100CD490870704710B5012183
:10272000642006F084FF0021662006F080FFC021AF
:10273000682006F07CFFA8216A2006F078FF0121BE
:102740006C2006F074FFF9216E2006F070FFFF2167
:10275000702006F06CFFFF21722006F068FFFF2159
:10276000742006F064FF0021762006F060FFC0218F
:10277000A42006F05CFFA821A62006F058FF012146
:10278000A82006F054FFFE21AA2006F050FFA12148
:10279000A02006F04CFFA221084606F048FFA12128
:1027A000C82006F044FFA221CA2006F040FF702195
:1027B000CC2006F03CFF7521CE2006F038FF6221C8
:1027C000D02006F034FF6C21D22006F030FF6921C2
:1027D000D42006F02CFF6321D62006F028FF3BE131
:1027E000F0090010570000105100001037000010D1
:1027F000DA000010D8000010D6000010D40000103D
:1028000020202045544845524E45543A0A20C0E401
:10281000F0E5F1E0F22054524150204E350A2025D7
:102820003033752E253033752E253033752E2530F7
:1028300033750A20C2DBD5CEC4000000202020451D
:10284000544845524E45543A0A2045746865726EA4
:10285000657420C2DBCACB0A20C2DBD5CEC40A0015
:10286000B405001020C3EB2EECE5EDFE2025730A25
:1028700020F7E5F0E5E720252D75F1E5EA0A20E8E7
:10288000EDF2E5F0E2E0EB20252D75F1E5EA0A2016
:102890002025632055E2FBF50000000020F7E5F05D
:1028A000E5E720252D75F1E5EA0A20E8EDF2E5F0EF
:1028B000E2E0EB20252D75F1E5EA0A2020256320D2
:1028C00055E2FBF50A202025632049E2FBF50000D4
:1028D00020E8EDF2E5F0E2E0EB20252D75F1E5EAE8
:1028E0000A202025632055E2FBF50A2020256320DD
:1028F00049E2FBF50A2020256320D0E2FBF5000029
:10290000202025632055E2FBF50A2020256320497D
:10291000E2FBF50A2020256320D0E2FBF50A202007
:1029200025632055F1E5F2E8000000002020256332
:102930002049E2FBF50A2020256320D0E2FBF50ABE
:10294000202025632055F1E5F2E80A2020256320A8
:1029500055E1E0F2000000002020256320D0E2FBDA
:10296000F50A202025632055F1E5F2E80A2020250C
:10297000632055E1E0F20A202025632049E1E0F2DE
:1029800000000000202025632055F1E5F2E80A2030
:102990002025632055E1E0F20A202025632049E14B
:1029A000E0F20A20C2DBD5CEC400000052000010C5
:1029B000C2E2E5E4E8F2E520EFE0F0EEEBFC3A0AF3
:1029C00020202020202025303375200A20202020A0
:1029D000202020202A0A0000C2E2E5E4E8F2E520F7
:1029E000EFE0F0EEEBFC3A0A2020202020202530FA
:1029F0003375200A202020202020202A0A000000F1
:102A0000C2E2E5E4E8F2E520EFE0F0EEEBFC3A0AA2
:102A100020202020202025303375200A202020204F
:102A200020202A0A000000000A2020202020CFE0D9
:102A3000F0EEEBFC0A20202020EDE520E2E5F0E5B9
:102A4000ED210A005600001035000010340000107F
:102A500038000010F00500102021D82006F0E7FD16
:102A60000021DA2006F0E3FDC021EC2006F0DFFDB6
:102A7000A821EE2006F0DBFD0121F02006F0D7FDB5
:102A80000221F22006F0D3FDC021F42006F0CFFD94
:102A9000A821F62006F0CBFD0121F82006F0C7FDA5
:102AA0000421FA2006F0C3FDC021FC2006F0BFFD82
:102AB000A821FE2006F0BBFD0121080206F0B7FDAB
:102AC00006214FF4817006F0B2FDC0214FF48270F0
:102AD00006F0ADFDA8214FF4837006F0A8FD01219A
:102AE0004FF4847006F0A3FD08214FF4857006F0C2
:102AF0009EFDC0214FF4867006F099FDA8214FF489
:102B0000877006F094FD01214FF4887006F08FFD68
:102B100009214FF4897006F08AFD00214FF4E1701D
:102B200006F085FD1E214FF4E27006F080FD0321C2
:102B30004FF4E37006F07BFD4FF0030004460BE01A
:102B40004FF4E17101EB440108462D2106F06FFDC1
:102B500004F10100C0B204460A2CF1DB10BD1FB520
:102B6000FE480078FE4909780844312801F0D281F6
:102B700034DC82F0A987DFE810F071007F00980054
:102B8000B100CA00E300FC0015014C01BE14BE14E4
:102B9000BE14BE14BE14BE14BE14BE14BE14BE14A5
:102BA000BE14BE1469017601BA010702BE14BE1438
:102BB000BE14BE14BE14BE142602810201036803B3
:102BC000CF034C04AC043405BE14BE1453058D056C
:102BD000D005FC0541075B079508AF08432802F0C4
:102BE0008D8213DCA0F132000E28C2D2DFE810F093
:102BF000F1096D0A870AC70BE10B130D2D0D680E45
:102C0000820EA40FBE0F01111B1141124C2802F0BD
:102C100089840DDCA0F144000828AAD2DFE810F076
:102C200098126B14BA12F31248139D13E21327146F
:102C3000FA2802F066850ADC4D2802F0B8844E2896
:102C400002F0FA844F2842F03F8702F03ABDFB2899
:102C500002F0E985FC28F6D102F0A2BEC148008846
:102C6000022807D1BF48008800F10100BD49088053
:102C7000FFF730FD02F028BFBB480088022807D1CB
:102C8000B948008800F10100B7490880FFF711FD3D
:102C9000B4480088022807D1B248008800F101003A
:102CA000B0490880FFF716FDE4E7AF480088022826
:102CB00007D1AD48008800F10100AB490880FFF75B
:102CC000F8FCA8480088022807D1A648008800F12F
:102CD0000100A4490880FFF7FDFCCBE7A24800886B
:102CE000022807D1A048008800F101009E49088011
:102CF000FFF7DFFC9B480088022807D1994800882D
:102D000000F1010097490880FFF7E4FCB2E796481C
:102D10000088022807D19448008800F101009249F8
:102D20000880FFF7C6FC8F480088022807D18D482D
:102D3000008800F101008B490880FFF7CBFC99E780
:102D400089480088022807D18748008800F10100DF
:102D500085490880FFF7ADFC82480088022807D12A
:102D60008048008800F101007E490880FFF7B2FC2E
:102D700080E77D480088022807D17B48008800F161
:102D8000010079490880FFF794FC76480088022802
:102D900007D17448008800F1010072490880FFF7EC
:102DA00099FC67E770480088022807D16E480088C0
:102DB00000F101006C490880FFF77BFC694800883E
:102DC000022807D16748008800F1010065490880A2
:102DD000FFF780FC65480088022819D16348008805
:102DE00000F10100614908805C4800786049087082
:102DF0005B4800785F4908704FF0FC005749087045
:102E00004FF00000564908704FF0B8005A4908804A
:102E100030E755480088022807D15348008800F160
:102E2000010051490880FFF744FC504800880228FF
:102E30000BD14E48008800F101004C4908804FF04A
:102E40000000464908704649087013E74548008865
:102E5000022807D14348008800F101004149088059
:102E6000FFF738FC06E740480088022810D13E48AA
:102E7000008800F101003C49088038480078152896
:102E800004D14FF014003549087001E0FFF711FC40
:102E900034480088022807D13248008800F1010038
:102EA00030490880FFF716FC3048008802281DD101
:102EB0002E48008800F101002C490880274800783E
:102EC0002E490870264800782D4908704FF00100FF
:102ED000234908702B48008820B14FF028001F4973
:102EE000087003E04FF042001C490870C2E61E481B
:102EF0000088022807D11C48008800F101001A4907
:102F00000880FFF7D6FB17480088022807D115482C
:102F1000008800F1010013490880FFF7DBFB13482C
:102F20000088022819D11148008800F101000F49DA
:102F300008800A480078114908700948007810494B
:102F400008704FF0FC00054908704FF0000004497C
:102F5000087040F26930084908808BE634000010A0
:102F6000370000104A0000104C0000104E00001006
:102F7000350000103800001054000010360000101A
:102F80003900001094000010FD480088022807D185
:102F9000FB48008800F10100F9490880FFF789FB30
:102FA000F848008802280DD1F648008800F1010099
:102FB000F4490880F4480078F4490870F44800782F
:102FC000F449087056E6F4480088022807D1F24810
:102FD000008800F10100F0490880FFF77BFBEF4813
:102FE0000088022803D0ED48008805281ED14FF044
:102FF0000300EA490880EA480078FF280BD1002046
:103000000523CDE900300290EE221B2103900846F3
:1030100006F04AFC0AE000200423CDE900300290CB
:10302000EE221B210390084606F03EFCDD48008896
:10303000022803D0DB48008805281ED14FF003008A
:10304000D8490880D8480078FF280BD100200323F6
:10305000CDE900300290EE221B210390084606F0D5
:1030600023FC0AE000200223CDE900300290EE228A
:103070001B210390084606F017FCFBE5C0480088BA
:10308000022807D1BE48008800F10100BC49088031
:10309000FFF732FBC0480088022807D1BE480088ED
:1030A00000F10100BC490880FFF714FBBB48008811
:1030B000022803D0B948008805281ED14FF003002C
:1030C000B6490880B6480078FF280BD10020252398
:1030D000CDE900300290EE221B210390084606F055
:1030E000E3FB0AE000202423CDE900300290EE2229
:1030F0001B210390084606F0D7FBAA480088022847
:1031000003D0A848008805281ED14FF00300A54928
:103110000880A5480078FF280BD100202323CDE9A3
:1031200000300290EE221B210390084606F0BCFB03
:103130000AE000202223CDE900300290EE221B217C
:103140000390084606F0B0FB8E480088022814D190
:103150008C48008800F101008A4908804FF0000087
:103160004FF02103CDE9003002904FF0EE024FF016
:103170001B010390084606F097FB7BE5804800881A
:10318000022807D17E48008800F101007C490880B0
:10319000FFF7B2FA80480088022807D17E480088ED
:1031A00000F101007C490880FFF794FA7B48008811
:1031B000022803D07948008805281ED14FF003006B
:1031C0007649088076480078FF280BD100206523D7
:1031D000CDE900300290EE221B210390084606F054
:1031E00063FB0AE000206423CDE900300290EE2268
:1031F0001B210390084606F057FB6A480088022806
:1032000003D06848008805281ED14FF003006549A7
:10321000088065480078FF280BD100206323CDE9A2
:1032200000300290EE221B210390084606F03CFB82
:103230000AE000206223CDE900300290EE221B213B
:103240000390084606F030FB14E54D48008802283C
:1032500007D14B48008800F1010049490880FFF779
:103260004BFA4D480088022807D14B48008800F1EE
:10327000010049490880FFF72DFA484800880228D4
:1032800003D04648008805281ED14FF0030043496B
:10329000088043480078FF280BD100205523CDE952
:1032A00000300290EE221B210390084606F0FCFA43
:1032B0000AE000205423CDE900300290EE221B21C9
:1032C0000390084606F0F0FA36480088022803D03A
:1032D0003448008805281ED14FF00300314908808A
:1032E00031480078FF280BD100205323CDE900306E
:1032F0000290EE221B210390084606F0D5FA0AE060
:1033000000205223CDE900300290EE221B210390D1
:10331000084606F0C9FAADE419480088022807D12A
:103320001748008800F1010015490880FFF7E4F90B
:1033300019480088022807D11748008800F10100C9
:1033400015490880FFF7C6F914480088022803D001
:1033500012480088052834D14FF003000F49088037
:103360000F480078FF2821D100203523CDE9003017
:103370000290EE221B210390084606F095FA20E009
:103380004C0000104E0000103500001034000010FA
:1033900038000010370000104A00001048000010EC
:1033A00041000010460000104000001000203423AF
:1033B000CDE900300290EE221B210390084606F072
:1033C00073FAFD480088022803D0FB4800880528CE
:1033D0001ED14FF00300F8490880F8480078FF2814
:1033E0000BD100213323CDE900310291EE2203916C
:1033F0001B21084606F058FA0AE000203223CDE9E6
:1034000000300290EE221B210390084606F04CFA91
:1034100030E4EB480088022807D1E948008800F131
:103420000100E7490880FFF767F9E64800880228AD
:1034300007D1E448008800F10100E2490880FFF765
:1034400049F9E1480088022803D0DF4800880528B0
:103450001BD14FF00300DC490880DC48B0F90000C4
:10346000DB490978884208DDD8480088D8490978BE
:10347000A0EB010000B2D5490880D448B0F90000A3
:1034800001460390102006F0D2F8CB4800880228AD
:1034900003D0C948008805281AD14FF00300C64957
:1034A0000880CA48B0F9000042F21071884207DA79
:1034B000C6480088C1490978084400B2C349088059
:1034C000C248B0F9000001460390102006F0AFF8A2
:1034D0001CE4BB480088022807D1B948008800F1E5
:1034E0000100B7490880FFF707F9B64800880228AD
:1034F00007D1B448008800F10100B2490880FFF705
:10350000E9F8B1480088022803D0AF4800880F28A6
:1035100027D14FF00500AC490880AD4800784FF046
:103520000A0190FBF1F000F10100AA49B1F9001085
:1035300088420EDAA64800784FF00A0190FBF1F0BD
:1035400000F10100A3490988A1EB000000B2A149E4
:103550000880A048B0F9000001460390162006F04C
:1035600066F895480088022803D0934800880F2801
:103570001FD14FF00500904908809648B0F900002F
:10358000B0F5FA5F0DDA8D4800784FF00A0190FB34
:10359000F1F000F101008F490988084400B28D491B
:1035A00008808C48B0F9000001460390162006F010
:1035B0003EF889480088022812D18748008800F127
:1035C000010085490880854840888549088008466B
:1035D000B0F90000014603904FF0140006F027F800
:1035E00016E477480088022807D17548008800F162
:1035F000010073490880FFF77FF8774800880228A8
:103600000DD17548008800F10100734908807548A4
:10361000007875490870754800787549087014E499
:10362000694800881E280DDD634800881E2809DDD2
:103630007048007830B9FFF771F84FF001006D491C
:10364000087026E064480088022816D16248008885
:1036500000F101006049088067480088C8B14FF058
:1036600000006549088001464FF0640005F0DFFF67
:103670004FF042005C4908700BE052480088022875
:1036800007D15048008800F101004E490880FFF73B
:1036900021F82BE44C4800881E280DDD46480088A0
:1036A0001E2809DD5348007830B9FFF737F84FF08E
:1036B0000100504908702FE047480088022812D1C5
:1036C0004E48008820B14FF000004C49088003E0CC
:1036D0004FF00100494908804848B0F900106620C1
:1036E00005F0A5FF18E036480088022808D13448C4
:1036F000008800F1010032490880FEF7FDFF0BE071
:1037000030480088022807D12E48008800F10100C7
:103710002C490880FEF7DEFF1FE42B4800881E2896
:103720000DDD254800881E2809DD3248007830B9B3
:10373000FEF7F4FF4FF001002E49087018E0204812
:103740000088022808D11E48008800F101001C49A9
:103750000880FEF7D1FF0BE01A480088022807D145
:103760001848008800F1010016490880FEF7B2FFF2
:1037700028E41348008802280CD11148008800F181
:1037800001000F490880FEF7B7FF4FF000001C4909
:10379000087032E10B480088022833D109480088BC
:1037A00000F1010007490880FEF794FF4FF0000088
:1037B0001349087021E1000046000010400000108D
:1037C0004C0000104A00001048000010800000105B
:1037D00041000010880000104E0000102812001058
:1037E0008400001036000010340000103900001072
:1037F00037000010500000109400001096000010D8
:1038000057000010FE4800880A280DD1FD480078B6
:1038100000F10100FB49087008460078032802DD2A
:103820004FF000000870E8E0F7480088022803D055
:10383000F548008832286AD14FF01E00F24908800E
:10384000F0480078A8B9F148008820B94FF0FF008F
:10385000EE49088006E0ED480088A0F1010000B2C2
:10386000EA490880E948B0F90010682005F0DFFE59
:10387000C3E0E4480078012815D1E548008820B964
:103880004FF0FF00E249088006E0E1480088A0F11F
:10389000010000B2DE490880DD48B0F900106A205E
:1038A00005F0C5FEA9E0D7480078022815D1D9480F
:1038B000008820B94FF0FF00D649088006E0D548BF
:1038C0000088A0F1010000B2D2490880D148B0F9C7
:1038D00000106C2005F0ABFE8FE0CA48007803288A
:1038E00014D1CD48008820B94FF0FF00CA490880A4
:1038F00006E0C9480088A0F1010000B2C64908806E
:10390000C548B0F900106E2005F091FE75E0C3487F
:103910000088022803D0C148008832286DD14FF0BA
:103920001E00BE490880B7480078B0B9B748008883
:10393000FF2804D14FF00000B449088006E0B348E6
:10394000008800F1010000B2B0490880AF48B0F92A
:103950000010682005F06BFE4FE0AA4800780128AF
:1039600016D1AB480088FF2804D14FF00000A849C9
:10397000088006E0A648008800F1010000B2A449D2
:103980000880A348B0F900106A2005F050FE34E02A
:103990009C480078022816D19E480088FF2804D150
:1039A0004FF000009B49088006E09A48008800F12B
:1039B000010000B2974908809648B0F900106C20C9
:1039C00005F035FE19E08F480078032815D192489C
:1039D0000088FF2804D14FF000008F49088006E0DE
:1039E0008D48008800F1010000B28B4908808A48A8
:1039F000B0F900106E2005F01AFE25E48848008812
:103A0000022808D18648008800F101008449088016
:103A1000FEF772FE0BE083480088022807D1814838
:103A2000008800F101007F490880FEF753FE0BE497
:103A30007B48008802280CD17948008800F10100F9
:103A400077490880FEF758FE4FF000006D49087076
:103A500027E17448008802280CD17248008800F1E0
:103A6000010070490880FEF735FE4FF000006549FF
:103A7000087016E1624800880A280DD16148007874
:103A800000F101005F49087008460078032802DD54
:103A90004FF00000087004E15B480088022803D062
:103AA0005948008832286AD14FF01E0056490880D4
:103AB00054480078A8B95C48008820B94FF0FF004E
:103AC0005949088006E058480088A0F1010000B27A
:103AD000554908805448B0F90010702005F0A7FD42
:103AE000DFE048480078012815D15048008820B907
:103AF0004FF0FF004D49088006E04C480088A0F1D7
:103B0000010000B2494908804848B0F9001072200D
:103B100005F08DFDC5E03B480078022815D14448EA
:103B2000008820B94FF0FF004149088006E0404876
:103B30000088A0F1010000B23D4908803C48B0F97E
:103B40000010742005F073FDABE02E4800780328C8
:103B500014D13848008820B94FF0FF00354908805B
:103B600006E034480088A0F1010000B23149088025
:103B70003048B0F90010762005F059FD91E0274853
:103B80000088022803D02548008832281CD14FF035
:103B90001E00224908801B480078B0B922480088DE
:103BA000FF2804D14FF000001F49088006E01E489E
:103BB000008800F1010000B21B4908801A48B0F9E2
:103BC0000010702005F033FD6BE00E4800780128EE
:103BD00032D116480088FF2804D14FF00000134965
:103BE000088006E01148008800F1010000B20F498A
:103BF00008800E48B0F90010722005F018FD50E062
:103C00004E000010570000104800001098000010EF
:103C10009A0000109C0000109E000010460000104A
:103C20004C0000104A000010A0000010A20000107C
:103C3000A4000010A6000010FD480078022816D14C
:103C4000FC480088FF2804D14FF00000F9490880A3
:103C500006E0F848008800F1010000B2F54908804C
:103C6000F448B0F90010742005F0E1FC19E0F048C8
:103C70000078032815D1F0480088FF2804D14FF0C0
:103C80000000ED49088006E0EB48008800F10100E3
:103C900000B2E9490880E848B0F90010762005F044
:103CA000C6FC15E4E5480088022808D1E3480088EE
:103CB00000F10100E1490880FEF71EFD0BE0E0483D
:103CC0000088022807D1DE48008800F10100DC49A5
:103CD0000880FEF7FFFC83E4D848008802280CD156
:103CE000D648008800F10100D4490880FEF704FDA1
:103CF0004FF00000CE4908700BE1D148008802283F
:103D00000CD1CF48008800F10100CD490880FEF7B2
:103D1000E1FC4FF00000C6490870FAE0C94800888D
:103D20000A280DD1C248007800F10100C04908708E
:103D300008460078032802DD4FF000000870E8E034
:103D4000C1480088022803D0BF48008832286AD1C1
:103D50004FF01E00BC490880B5480078A8B9BB48A0
:103D6000008820B94FF0FF00B849088006E0B74846
:103D70000088A0F1010000B2B4490880B348B0F94E
:103D80000010A42005F053FCC3E0A94800780128E6
:103D900015D1AF48008820B94FF0FF00AC4908802A
:103DA00006E0AB480088A0F1010000B2A8490880F5
:103DB000A748B0F90010A62005F039FCA9E09C48FE
:103DC0000078022815D1A348008820B94FF0FF00E1
:103DD000A049088006E09F480088A0F1010000B2D9
:103DE0009C4908809B48B0F90010A82005F01FFCF2
:103DF0008FE08F480078032814D19748008820B9B5
:103E00004FF0FF009449088006E093480088A0F135
:103E1000010000B2904908808F48B0F90010AA2034
:103E200005F005FC75E08D480088022803D08B481A
:103E3000008832286DD14FF01E00884908807C48E8
:103E40000078B0B981480088FF2804D14FF0000005
:103E50007E49088006E07D48008800F1010000B23C
:103E60007A4908807948B0F90010A42005F0DFFBFA
:103E70004FE06F480078012816D175480088FF2868
:103E800004D14FF000007249088006E070480088B5
:103E900000F1010000B26E4908806D48B0F90010D1
:103EA000A62005F0C4FB34E061480078022816D152
:103EB00068480088FF2804D14FF000006549088059
:103EC00006E06448008800F1010000B26149088002
:103ED0006048B0F90010A82005F0A9FB19E054488B
:103EE0000078032815D15C480088FF2804D14FF0E2
:103EF00000005949088006E05748008800F1010099
:103F000000B2554908805448B0F90010AA2005F0C5
:103F10008EFB2DE449480088022808D147480088D4
:103F200000F1010045490880FEF7E6FB50E04448F7
:103F30000088022808D14248008800F10100404969
:103F40000880FEF7C7FB43E03F480088022803D003
:103F50003D480088322819D14FF01E003A490880A8
:103F60003F48008820B94FF0FF003D49088006E037
:103F70003B480088A0F1010000B239490880384868
:103F8000B0F90010C82005F052FB21E0334800884A
:103F9000022803D031480088322819D14FF01E0082
:103FA0002E4908802E480088FF2804D14FF00000D9
:103FB0002B49088006E02A48008800F1010000B281
:103FC000274908802648B0F90010C82005F02FFBCB
:103FD00013E51A480088022808D11848008800F123
:103FE000010016490880FEF787FB6DE01448008841
:103FF000022808D11248008800F101001049088009
:10400000FEF768FB60E010480088022803D00E48E5
:104010000088322836D14FF01E000B490880114825
:10402000008820B94FF0FF000E49088023E01BE014
:1040300057000010A4000010A60000104C00001053
:104040004A0000104E00001048000010A8000010A8
:10405000AA000010AC000010AE00001046000010D6
:10406000B0000010B2000010FE480088A0F101006E
:1040700000B2FC490880FB48B0F90010CA2005F0E6
:10408000D6FA21E0F8480088022803D0F6480088D4
:10409000322819D14FF01E00F3490880F1480088FA
:1040A000FF2804D14FF00000EE49088006E0ED48FB
:1040B000008800F1010000B2EA490880E948B0F93F
:1040C0000010CA2005F0B3FA97E4E84800880228F7
:1040D00008D1E648008800F10100E4490880FEF7B5
:1040E0000BFB0BE0E2480088022807D1E04800887B
:1040F00000F10100DE490880FEF7ECFA7DE4DB48C0
:10410000008802280CD1D948008800F10100D74965
:104110000880FEF7F1FA4FF00000D64908702DE153
:10412000D348008802280CD1D148008800F1010052
:10413000CF490880FEF7CEFA4FF00000CD49087055
:104140001CE1CD4800880A282DD1CA48007800F12A
:104150000100C8490870C9480978405CA0B94FF00F
:104160000002C649C348007800F101000A54C14862
:10417000007800F101004FF0CC0101EB40004FF05E
:104180000001039005F053FABA480078401EBB497D
:10419000085C18B1B7480078072803DD4FF000002D
:1041A000B4490870EAE0B6480088022803D0B44851
:1041B000008832286DD14FF01E00B1490880AF4809
:1041C000AC490978405C30B94FF07A00AB49A94A54
:1041D000127888544EE0A948A6490978405C3028F6
:1041E00023D1A4480078C8B14FF00000A349A14AE8
:1041F0001278885402469F48007800F101000A5462
:104200009C48007800F101004FF0CC0101EB400028
:104210004FF00001039005F00AFA2BE04FF07A000E
:104220009649944A1278885424E094489149097830
:10423000405C412806D14FF0390190488D4A1278F0
:10424000815417E08D488B490978405C612806D17C
:104250004FF05A008949874A127888540AE0874803
:1042600084490978405CA0F10100C1B28348814AC9
:104270001278815481487F490978405C03907D48D9
:104280000078CC2101EB40000290039905F0CFF9B2
:1042900074E075480088022803D0734800883228EB
:1042A0006CD14FF01E00704908807448714909783C
:1042B000405C30B94FF0300170486E4A127881543A
:1042C0004EE06E486B490978405C392806D14FF0C2
:1042D00041006A49674A1278885441E06748654955
:1042E0000978405C5A2806D14FF061006349614A61
:1042F0001278885434E061485E490978405C7A2835
:1043000024D15C480078D0B14FF000015B48594A95
:10431000127881540A4601465648007800F101009F
:104320000A545448007800F101004FF0CC0101EB31
:1043300040004FF00001039005F079F910E04FF0D4
:1043400030004E494B4A1278885409E04B4849499D
:104350000978405C00F101004849464A12788854C7
:10436000464844490978405C039042480078CC2193
:1043700001EB40000290039905F059F991E43B48A4
:104380000088022808D13948008800F10100374927
:104390000880FEF7B1F90BE035480088022807D104
:1043A0003348008800F1010031490880FEF792F996
:1043B00077E42E48008802280CD12C48008800F1B0
:1043C00001002A490880FEF797F94FF000002949BB
:1043D00008701FE12648008802280CD12448008874
:1043E00000F1010022490880FEF774F94FF0000047
:1043F000204908700EE1204800880A280DD11D4888
:10440000007800F101001B49087008460078032875
:1044100002DD4FF000000870FCE019480088022817
:1044200003D01748008832287ED14FF01E0014496F
:1044300008801048007838BB1248008820B94FF037
:10444000FF001049088006E00E480088A0F1010036
:1044500000B20C4908800B48B0F90010EC2005F0C0
:10446000E6F8D7E0B2000010460000104C00001043
:104470004A000010570000104E00001016000010F7
:1044800048000010B4000010FFE7F8480078012849
:1044900015D1F748008820B94FF0FF00F449088093
:1044A00006E0F3480088A0F1010000B2F04908805E
:1044B000EF48B0F90010EE2005F0B9F8AAE0EB489B
:1044C0000078022815D1EB48008820B94FF0FF0092
:1044D000E849088006E0E7480088A0F1010000B242
:1044E000E4490880E348B0F90010F02005F09FF897
:1044F00090E0DE480078032815D1DF48008828B90D
:104500004FF0FF00DC49088007E00DE0DA48008842
:10451000A0F1010000B2D8490880D748B0F90010D6
:10452000F22005F084F875E0D4480088022803D012
:10453000D248008832286DD14FF01E00CF49088044
:10454000CA480078B0B9CE480088FF2804D14FF09F
:104550000000CB49088006E0C948008800F101004E
:1045600000B2C7490880C648B0F90010EC2005F039
:104570005EF84FE0BD480078012816D1BC4800889D
:10458000FF2804D14FF00000B949088006E0B84880
:10459000008800F1010000B2B5490880B448B0F9C4
:1045A0000010EE2005F043F834E0B048007802280F
:1045B00016D1B0480088FF2804D14FF00000AD4963
:1045C000088006E0AB48008800F1010000B2A9496C
:1045D0000880A848B0F90010F02005F028F819E08C
:1045E000A2480078032815D1A3480088FF2804D1E9
:1045F0004FF00000A049088006E09F48008800F1C5
:10460000010000B29C4908809B48B0F90010F220DC
:1046100005F00DF87DE49B480088022808D19948F0
:10462000008800F1010097490880FEF765F80BE06B
:1046300095480088022807D19348008800F10100BE
:1046400091490880FEF746F863E48E480088022806
:104650000CD18C48008800F101008A490880FEF7DF
:104660004BF84FF000008149087028E18648008827
:1046700002280CD18448008800F10100824908809A
:10468000FEF728F84FF000007849087017E17F48DE
:1046900000880A280DD17548007800F1010073499F
:1046A000087008460078032802DD4FF0000008700B
:1046B00005E177480088022803D075480088322831
:1046C0006AD14FF01E007249088068480078A8B986
:1046D0007048008820B94FF0FF006E49088006E05E
:1046E0006C480088A0F1010000B26A49088069485E
:1046F000B0F90010F42004F09AFFE0E05B48007885
:10470000012815D16448008820B94FF0FF006249A4
:10471000088006E060480088A0F1010000B25E4910
:1047200008805D48B0F90010F62004F080FFC6E074
:104730004E480078022815D15848008820B94FF01B
:10474000FF005649088006E054480088A0F10100A7
:1047500000B2524908805148B0F90010F82004F026
:1047600066FFACE041480078032814D14C4800882B
:1047700020B94FF0FF004A49088006E04848008809
:10478000A0F1010000B2464908804548B0F9001088
:10479000FA2004F04CFF92E038480088022803D049
:1047A0003648008832281CD14FF01E00334908805B
:1047B0002E480078B0B937480088FF2804D14FF060
:1047C00000003449088006E03248008800F101000A
:1047D00000B2304908802F48B0F90010F42004F0EE
:1047E00026FF6CE021480078012816D12A4800886D
:1047F000FF2804D14FF000002749088006E0264832
:10480000008800F1010000B2234908802248B0F975
:104810000010F62004F00BFF51E014480078022845
:1048200016D11E480088FF2804D14FF000001B4914
:10483000088006E01948008800F1010000B217491D
:1048400008801648B0F90010F82004F0F0FE36E0B9
:1048500006480078032832D111480088FF2821D16A
:104860004FF000000E49088023E0000057000010C0
:10487000B6000010B8000010BA000010460000108A
:10488000B40000104C0000104A0000104E00001050
:1048900048000010BC000010BE000010C000001056
:1048A000C2000010F948008800F1010000B2F74989
:1048B0000880F648B0F90010FA2004F0B8FE1DE4B4
:1048C000F3480088022808D1F148008800F101006F
:1048D000EF490880FDF710FF0BE0EE480088022842
:1048E00007D1EC48008800F10100EA490880FDF793
:1048F000F1FE43E5E648008802280CD1E448008830
:1049000000F10100E2490880FDF7F6FE4FF00000DB
:10491000E14908700FE1DF48008802280CD1DD482A
:10492000008800F10100DB490880FDF7D3FE4FF05D
:104930000000D9490870FEE0D84800880A280DD147
:10494000D548007800F10100D34908700846007886
:10495000032802DD4FF000000870ECE0D04800882A
:10496000022803D0CE48008832286CD14FF01E00B8
:10497000CB490880C8480078A8B9CA48008820B93F
:104980004FF0FF00C749088006E0C6480088A0F144
:10499000010000B2C3490880C248B0F90010FC20F1
:1049A00004F045FEC7E0BC480078012815D1BE4898
:1049B000008820B94FF0FF00BB49088006E0BA48E4
:1049C0000088A0F1010000B2B7490880B648B0F9EC
:1049D0000010FE2004F02BFEADE0AF480078022866
:1049E00016D1B248008820B94FF0FF00AF490880C7
:1049F00006E0AE480088A0F1010000B2AB49088093
:104A0000AA48B0F900104FF4807004F010FE92E054
:104A1000A1480078032815D1A548008820B94FF097
:104A2000FF00A349088006E0A1480088A0F101002A
:104A300000B29F4908809E48B0F900104FF4817081
:104A400004F0F5FD77E09B480088022803D09948E0
:104A5000008832286FD14FF01E00964908808E489A
:104A60000078B0B98F480088FF2804D14FF00000CB
:104A70008C49088006E08B48008800F1010000B2F4
:104A8000884908808748B0F90010FC2004F0CFFD69
:104A900051E081480078012816D183480088FF281A
:104AA00004D14FF000008049088006E07E4800886D
:104AB00000F1010000B27C4908807B48B0F9001089
:104AC000FE2004F0B4FD36E073480078022817D1C8
:104AD00076480088FF2804D14FF000007349088011
:104AE00006E07248008800F1010000B26F490880BA
:104AF0006E48B0F900104FF4807004F098FD1AE091
:104B000065480078032816D169480088FF2804D139
:104B10004FF000006649088006E06548008800F113
:104B2000010000B2624908806148B0F900104FF4FA
:104B3000817004F07CFD21E455480088022808D1EA
:104B40005348008800F1010051490880FDF7D4FD69
:104B50000BE050480088022807D14E48008800F139
:104B600001004C490880FDF7B5FD07E4484800887E
:104B700002280CD14648008800F101004449088011
:104B8000FDF7BAFD4FF000004349087030E141489D
:104B9000008802280CD13F48008800F101003D49FF
:104BA0000880FDF797FD4FF000003B4908701FE1BA
:104BB0003A4800880A280DD13748007800F10100F2
:104BC0003549087008460078032802DD4FF00000E0
:104BD00008700DE132480088022803D03048008870
:104BE00032286FD14FF01E002D4908802A480078E6
:104BF000B0B93148008820B94FF0FF002E49088035
:104C000006E02D480088A0F1010000B22A49088082
:104C10002948B0F900104FF4827004F008FDE7E075
:104C20001D480078012816D12448008820B94FF08B
:104C3000FF002249088006E020480088A0F101001A
:104C400000B21E4908801D48B0F900104FF483706F
:104C500004F0EDFCCCE010480078022833D118486D
:104C6000008820B94FF0FF001549088006E014487D
:104C70000088A0F1010000B2114908801048B0F985
:104C800000104FF4847004F0D2FCB1E0C2000010B8
:104C90004C0000104A000010570000104E00001099
:104CA00048000010C4000010C6000010C80000102A
:104CB000CA00001046000010CC000010CE0000100A
:104CC000D00000101AE0FB480078032815D1FA48FC
:104CD000008820B94FF0FF00F749088006E0F64849
:104CE0000088A0F1010000B2F3490880F248B0F951
:104CF00000104FF4857004F09AFC79E0EF480088CA
:104D0000022803D0ED480088322871D14FF01E00F0
:104D1000EA490880E7480078B8B9E9480088FF28E0
:104D200004D14FF00000E649088006E0E44800881E
:104D300000F1010000B2E2490880E148B0F900103A
:104D40004FF4827004F073FC52E0DA4800780128D6
:104D500017D1DC480088FF2804D14FF00000D94962
:104D6000088006E0D748008800F1010000B2D5496C
:104D70000880D448B0F900104FF4837004F057FC59
:104D800036E0CC480078022817D1CF480088FF28A9
:104D900004D14FF00000CC49088006E0CA480088E2
:104DA00000F1010000B2C8490880C748B0F90010FE
:104DB0004FF4847004F03BFC1AE0BE4800780328EE
:104DC00016D1BD480088FF2804D14FF00000BA4931
:104DD000088006E0B848008800F1010000B2B6493A
:104DE0000880B548B0F900104FF4857004F01FFC3E
:104DF00010E4B6480088022808D1B448008800F1C1
:104E00000100B2490880FDF777FC0BE0B04800884C
:104E1000022807D1AE48008800F10100AC490880A3
:104E2000FDF758FC10E4A948008802280CD1A748D7
:104E3000008800F10100A5490880FDF75DFC4FF0F6
:104E400000009C49087013E1A148008802280CD199
:104E50009F48008800F101009D490880FDF73AFC59
:104E60004FF000009349087002E19A4800880A2830
:104E70000DD19048007800F101008E490870084675
:104E80000078032802DD4FF000000870F0E092483F
:104E90000088022803D09048008832286ED14FF055
:104EA0001E008D49088083480078B0B98B4800887F
:104EB00020B94FF0FF008949088006E08748008844
:104EC000A0F1010000B2854908808448B0F90010C3
:104ED0004FF4867004F0ABFBCAE0764800780128F6
:104EE00016D17F48008820B94FF0FF007C49088028
:104EF00006E07B480088A0F1010000B278490880F4
:104F00007748B0F900104FF4877004F090FBAFE0E1
:104F100068480078022816D17248008820B94FF0FE
:104F2000FF007049088006E06E480088A0F101008B
:104F300000B26C4908806B48B0F900104FF48870DB
:104F400004F075FB94E05B480078032815D16648AF
:104F5000008820B94FF0FF006349088006E06248EE
:104F60000088A0F1010000B25F4908805E48B0F9F6
:104F700000104FF4897004F05AFB79E04F48008824
:104F8000022803D04D480088322871D14FF01E000E
:104F90004A49088047480078B8B950480088FF2837
:104FA00004D14FF000004D49088006E04B480088CE
:104FB00000F1010000B2494908804848B0F90010EA
:104FC0004FF4867004F033FB52E03A480078012831
:104FD00017D143480088FF2804D14FF00000404912
:104FE000088006E03E48008800F1010000B23C491C
:104FF00008803B48B0F900104FF4877004F017FBAD
:1050000036E02C480078022817D136480088FF285F
:1050100004D14FF000003349088006E03148008891
:1050200000F1010000B22F4908802E48B0F90010AD
:105030004FF4887004F0FBFA1AE01E480078032849
:1050400016D129480088FF2804D14FF000002649D6
:10505000088006E02448008800F1010000B22249DF
:1050600008802148B0F900104FF4897004F0DFFA8D
:1050700041E216480088022808D11448008800F14F
:10508000010012490880FDF737FB11E01148008844
:1050900002280DD10F48008800F101000D49088059
:1050A00012480078124908701248007812490870B6
:1050B00021E2000057000010D2000010460000104E
:1050C000CC000010CE000010D00000104C000010EA
:1050D0004A0000104E00001048000010D4000010DC
:1050E000D6000010D8000010DA00001036000010C2
:1050F000340000103900001037000010FE4800880E
:1051000002280AD1FC48008800F10100FA49088011
:105110004FF00200F949087019E0F94800880228A8
:1051200015D1F748008800F10100F5490880F548DD
:10513000008860B94FF00100F249088001464FF045
:10514000640004F074FA4FF02800EF490870D2E1CF
:10515000EE48008802280AD1EC48008800F10100DE
:10516000EA4908804FF00100E449087011E0E44882
:10517000008802280DD1E248008800F10100E049D2
:105180000880E3480078E0490870E2480078DB498D
:105190000870B0E1D8480088022807D1D6480088B6
:1051A00000F10100D4490880FDF794FADA4800883C
:1051B000022811D1D848008800F10100D6490880A2
:1051C0004FF00000D549087008460078014603906A
:1051D0004FF4E17004F02BFAD1480088022811D175
:1051E000CF48008800F10100CD4908804FF0010050
:1051F000CA49087008460078014603904FF4E170F0
:1052000004F015FA77E1C1480088022807D1BF48A9
:10521000008800F10100BD490880FDF74AFAB64850
:105220000088022807D1B448008800F10100B24983
:105230000880FDF74FFAB8480088022803D0B64826
:105240000088322815D14FF01E00B3490880B348BA
:10525000407828280DDBB1484078A0F10A00AF491A
:10526000487008464078014603904FF4E27004F01D
:10527000DEF9AB480088022803D0A948008832280C
:1052800015D14FF01E00A6490880A4484078FA289E
:105290000DDAA248407800F10A00A049487008469B
:1052A0004078014603904FF4E27004F0C0F922E127
:1052B00096480088022807D19448008800F1010030
:1052C00092490880FDF7F5F98B480088022807D13C
:1052D0008948008800F1010087490880FDF7FAF944
:1052E0008D480088022803D08B480088322815D1C9
:1052F0004FF01E00884908808848807804280DDD1A
:1053000086488078A0F1010084498870084680783A
:10531000014603904FF4E37004F089F98048008857
:10532000022803D07E480088322815D14FF01E0095
:105330007B490880794880783C280DDA7748807866
:1053400000F1010075498870084680780146039095
:105350004FF4E37004F06BF9B6E36C480088022860
:1053600007D16A48008800F1010068490880FDF70C
:10537000A0F961480088022807D15F48008800F141
:1053800001005D490880FDF7A5F9634800880228FF
:1053900011D16148008800F101005F4908804FF099
:1053A0002D005E49C8700846C078014603904FF44E
:1053B000E47004F03CF95A480088022811D158489A
:1053C000008800F10100564908804FF02B00534936
:1053D000C8700846C078014603904FF4E47004F0AA
:1053E00026F971E349480088022807D14748008818
:1053F00000F1010045490880FDF75BF93E4800884F
:10540000022807D13C48008800F101003A49088091
:10541000FDF760F940480088022811D13E48008815
:1054200000F101003C4908804FF02D003B49087114
:1054300008460079014603904FF4E57004F0F7F850
:1054400037480088022811D13548008800F1010052
:10545000334908804FF02B00304908710846007925
:10546000014603904FF4E57004F0E1F82CE327487F
:105470000088022807D12548008800F1010023494F
:105480000880FDF716F91C480088022807D11A4841
:10549000008800F1010018490880FDF71BF91E483B
:1054A0000088022811D11C48008800F101001A4927
:1054B00008804FF02D00194948710846407901468F
:1054C00003904FF4E67004F0B2F815480088022803
:1054D00011D11348008800F10100114908804FF0F4
:1054E0002B000E49487108464079014603904FF45D
:1054F000E67004F09CF8E7E24A0000103700001064
:105500004E00001094000010340000104C000010F9
:10551000360000103900001048000010B4050010DB
:1055200046000010FF480088022807D1FD48008887
:1055300000F10100FB490880FDF7BBF8FA4800883C
:10554000022807D1F848008800F10100F6490880D8
:10555000FDF7C0F8F5480088022811D1F34800880B
:1055600000F10100F14908804FF02D00F0498871E9
:1055700008468079014603904FF4E77004F057F82D
:10558000EC480088022811D1EA48008800F10100A7
:10559000E84908804FF02B00E5498871084680797A
:1055A000014603904FF4E77004F041F88CE2DD48C7
:1055B0000088022807D1DB48008800F10100D949A2
:1055C0000880FDF776F8D8480088022807D1D64829
:1055D000008800F10100D4490880FDF77BF8D3482A
:1055E0000088022811D1D148008800F10100CF497C
:1055F00008804FF02D00CE49C8710846C079014699
:1056000003904FF4E87004F012F8CA4800880228AA
:1056100011D1C848008800F10100C64908804FF048
:105620002B00C349C8710846C079014603904FF466
:10563000E87003F0FCFF47E2BA480088022807D16F
:10564000B848008800F10100B6490880FDF731F83C
:10565000B5480088022807D1B348008800F101004E
:10566000B1490880FDF736F8B0480088022811D10A
:10567000AE48008800F10100AC4908804FF02D00D1
:10568000AB4908720846007A014603904FF4E9706E
:1056900003F0CDFFA7480088022811D1A548008853
:1056A00000F10100A34908804FF02B00A0490872C7
:1056B0000846007A014603904FF4E97003F0B7FF03
:1056C00002E298480088022808D19648008800F134
:1056D000010094490880FCF7ECFF11E0964800882F
:1056E00002280DD19448008800F1010092490880F9
:1056F0009248007892490870924800789249087060
:10570000E2E18A48008802280BD18848008800F12D
:105710000100864908808A48007800F10100884924
:1057200008708048008802281CD17E48008800F15B
:1057300001007C490880854800884FF00A0190FBF1
:10574000F1F201FB1200092806D180480088A0F17F
:1057500009007E49088005E07C48008800F10100CE
:105760007A4908807048008802281BD16E4800885A
:1057700000F101006C490880744800884FF00A016C
:1057800090FBF1F201FB120030B97048008800F183
:1057900009006E49088005E06C480088A0F101000E
:1057A0006A4908806448008802283BD16248008822
:1057B00000F1010060490880654800886349098854
:1057C00088420CD161480088B82808D14FF01400F5
:1057D0005B4908704FF001005B4908701CE05C48B1
:1057E00000885A49098888420ED158480088A0F597
:1057F0004071693908D14FF01E00514908704FF0CF
:1058000001005149087007E04FF0FF004C49087053
:105810004FF004004F4908704FF000004C490880D9
:105820004A49088050E14148008802280BD13F488E
:10583000008800F101003D4908804148007800F1EE
:1058400001003F4908703B48008802280BD13948C5
:10585000008800F101003749088039480078A0F13C
:105860000100374908702F48008802281CD12D48B4
:10587000008800F101002B490880344800884FF06F
:10588000640190FBF1F201FB12005A2806DB2F485D
:105890000088A0F15A002D49088005E02B480088B7
:1058A00000F10A00294908801F48008802281CD1FD
:1058B0001D48008800F101001B490880234800882A
:1058C0004FF0640190FBF1F201FB12000A2806DAA6
:1058D0001E48008800F15A001C49088005E01B485A
:1058E0000088A0F10A00194908801348008802289E
:1058F00055D11148008800F101000F490880144873
:10590000008812490988884226D110480088B828A2
:1059100022D14FF014000A4908704FF001000A49E3
:10592000087036E04C0000104A00001048000010DB
:10593000B4050010460000104E00001036000010A4
:105940003400001039000010370000105200001021
:105950005400001056000010FF480088FF490988D5
:1059600088420ED1FD480088A0F54071693908D100
:105970004FF01E00FA4908704FF00100F949087015
:1059800007E04FF0FF00F64908704FF00400F649B9
:1059900008704FF00000F0490880F049088093E05B
:1059A000F248008802280BD1F048008800F101007D
:1059B000EE490880EA480078A0F10100E849087043
:1059C000EB48008802281DD1E948008800F1010059
:1059D000E7490880E14800884FF47A7190FBF1F2C2
:1059E00001FB1200B0F5617F06DBDC480088A0F502
:1059F0006170DA49088005E0D848008800F1640049
:105A0000D6490880DB48008802281CD1D948008884
:105A100000F10100D7490880D04800884FF47A711E
:105A200090FBF1F201FB1200642806DACB480088F3
:105A300000F56170C949088005E0C8480088A0F1F8
:105A40006400C6490880CC48008802283BD1CA4877
:105A5000008800F10100C8490880BF480088BF499C
:105A6000098888420CD1BD480088B82808D14FF079
:105A70001400BB4908704FF00100BA4908701CE0DF
:105A8000B5480088B549098888420ED1B3480088D6
:105A9000A0F54071693908D14FF01E00B049087077
:105AA0004FF00100AF49087007E04FF0FF00AC492C
:105AB00008704FF00400AC4908704FF00000A64990
:105AC0000880A649088000BF00BFAC48007848B1F4
:105AD000AB48008830B9A548008818B94FF00000DD
