:020000040000FA
:10000000F0420010E1000000E5000000E700000001
:10001000E9000000EB000000ED000000000000001F
:10002000000000000000000000000000EF000000E1
:10003000F100000000000000F30000002D090000A6
:10004000F7000000F7000000F7000000F7000000D4
:10005000F7000000F7000000F7000000F7000000C4
:10006000F7000000F7000000F7000000F7000000B4
:10007000F7000000F7000000F7000000F7000000A4
:10008000F7000000F7000000F7000000F700000094
:10009000F7000000F7000000ED080000F700000086
:1000A000F7000000DBC00000F7000000F7000000D0
:1000B0008FD20000F7000000F7000000F7000000FA
:1000C000F7000000F7000000F7000000DFF80CD098
:1000D0000DF044FB00480047A7790000F0420010F3
:1000E00005480047FEE7FEE7FEE7FEE7FEE7FEE71E
:1000F000FEE7FEE7FEE7FEE7CD00000006280AD295
:10010000DFE800F003040506070804E003E002E06E
:1001100001E000E000BF00BF00BFFEE710B50EF039
:1001200001FD0EF05DFD0EF04FFDAFF30080BDE868
:1001300010400EF01BBD10B50FF0D8FA0FF08CFE7A
:10014000BDE810400FF02ABB0FF03EBA0FF006B822
:1001500009B1002070470EF00DBC0020704740EA46
:1001600001039B0703D009E008C9121F08C0042A35
:10017000FAD203E011F8013B00F8013B521EF9D21C
:1001800070470146002000E0401C0A5C002AFBD1B9
:10019000704780EA010202F0004330B430F00042C0
:1001A00021F0004015D0A0B1C0F3C755C2F3C75429
:1001B000C2F31601C0F31600651B41F4000140F4C0
:1001C00000007D35814201D36D1C00E04900002D07
:1001D00002DA30BC002070474FF400020024814254
:1001E00001D3091A144352084FEA4101F7D151B122
:1001F000814202D14FF0004105E002D24FF00101EF
:1002000001E06FF0010104EBC55030BC18440DF063
:10021000B9B8C10F80EAE0700844CA0796230021EC
:100220000DF0B9B800F0004230F000400DD0C10D23
:1002300001F5607142EA01510022C0F31600520735
:1002400042EAD00240071143704700200146704740
:1002500030B50B46014600202022012409E021FA96
:1002600002F59D4205D303FA02F5491B04FA02F593
:100270002844151EA2F10102F1DC30BD2DE9F05F2A
:100280000546002092469B46884606468146402405
:100290001CE028464146474622460DF080FA524669
:1002A0005B46801A994111D31046194622460DF03B
:1002B00067FA2D1A67EB0107B8464F462246012020
:1002C00000210DF05DFA38184E418146201EA4F140
:1002D0000104DEDC484631462A464346BDE8F09F2D
:1002E00000B500220DF00EFBC04380B2010241EACE
:1002F000102080B200BD704770477047FFFFFFFFBE
:100300004FF020008749086000BF8648006810F061
:10031000400FFAD04FF00300834908604FF40030DB
:100320008249C1F8A8014FF00000814908604FF0F0
:100330000100804908608048804908604FF0010052
:10034000A1F1040108604FF0AA007D4908604FF058
:1003500055007649C1F88C0000BF7848001D006840
:1003600010F0806FF9D04FF00300764908604FF02D
:10037000AA006E49C1F88C004FF055007049086022
:100380004FF02300704908604FF00100A1F1040113
:1003900008604FF0AA006D4908604FF055000860F2
:1003A00000BF6948001D006810F4806FF9D04FF05D
:1003B0000300674908604FF0AA005C49C1F8AC002F
:1003C0004FF05500614908606248634908604FF08A
:1003D00000005649C1F8C8010846D0F88800C0F3AB
:1003E0000160032868D15348006810F0030006D06C
:1003F000012823D002283FD003285CD100E000BFB1
:1004000056480068C0F30E0000F101004FEA4001B9
:100410004648D0F88800C0F3074000F10100B1FB66
:10042000F0F04F4900FB01F03F490968C9B201F102
:100430000101B0FBF1F04B4908603CE0474800681F
:10044000C0F30E0000F101004FEA40013748D0F838
:100450008800C0F3074000F10100B1FBF0F0424911
:1004600000FB01F030490968C9B201F10101B0FB9C
:10047000F1F03C4908601EE038480068C0F30E0007
:1004800000F101004FEA40012848D0F88800C0F38D
:10049000074000F10100B1FBF0F04FF4FA4100FB1E
:1004A00001F021490968C9B201F10101B0FBF1F085
:1004B0002C49086000BF2FE01E48006810F00300C0
:1004C00006D0012810D0022819D0032823D100E03B
:1004D00000BF15480068C0B200F101002049B1FB1F
:1004E000F0F02049086016E00F480068C0B200F143
:1004F00001001D49B1FBF0F01A4908600BE00A4801
:100500000068C0B200F101004FF4FA41B1FBF0F015
:100510001449086000BF00BF43F23A000349086075
:1005200070470000A0C10F4004C10F4000C00F4041
:10053000ACC10F400CC10F404F00030084C00F40FE
:100540008CC00F4080C00F40A4C00F40ACC00F4013
:10055000A0C00F4048F10041C4C00F4088C00F4008
:1005600000093D00240000108096980000EB8002F6
:10057000114600BFA1F101021100FBD170470146F5
:1005800000BFA1F101021100FBD170474FF0110033
:10059000FF49087270471FB5FE480078401CC0B282
:1005A000FC490870182802DB4FF000000870F94879
:1005B000007807287EDCF7480078C0EBC00000EB2D
:1005C0004000F54901EB800090F83100F1490978CD
:1005D000C1EBC10101EB4101EF4A02EB810191F84E
:1005E0003010EC4A1278C2EBC20202EB4202EA4B34
:1005F00003EB820292F82D20E64B1B78C3EBC3037A
:1006000003EB4303E44C04EB830393F82C30CDE974
:100610000032CDE90210DF480078C0EBC00000EBEB
:100620004000214601EB800090F828000346ED22AF
:10063000D848017800780BF09FF9D6480078D74960
:10064000097888427EDAD3480078C0EBC00000EB1E
:100650004000214601EB8000C0780A2835DACD48F9
:100660000078C0EBC00000EB400001EB8000C078D8
:1006700000F10100C7490978C1EBC10101EB41015B
:10068000224602EB8101C870C2480078C0EBC0006E
:1006900000EB4000114601EB8000C0780A2820DB07
:1006A000BC480078C0EBC00000EB400001EB8000CC
:1006B000407800E058E010F0080F12D10122032129
:1006C000B448007808F031FE0BE04FF00A00B14961
:1006D0000978C1EBC10101EB4101AF4A02EB810195
:1006E000C870AC480078C0EBC00000EB4000AA49DD
:1006F00001EB8000C07803281FDBA6480078C0EB20
:10070000C00000EB400001EB80000079032814DA00
:10071000A0480078C0EBC00000EB400001EB800077
:10072000407900F101009B490978C1EBC10101EB5F
:100730004101994A02EB8101487196480078C0EB6B
:10074000C00000E028E000EB4000934901EB80008E
:10075000C07890490978C1EBC10101EB41018E4A93
:1007600002EB8101087167E08A480078082863D0AD
:100770008848007809285FD0864800780A280CD17C
:1007800000200090019002900346024603908148A9
:10079000017800780BF0F0F84EE07E4800780C28E5
:1007A0004AD07C4800780D2846D07A4800780E2838
:1007B00042D07848007814280CD100200090019095
:1007C00002900346024603907248017800780BF0CD
:1007D000D3F831E06F48007815280CD10020009044
:1007E000019002900346024603906A48017800781F
:1007F0000BF0C2F820E06748007816280CD10020E2
:1008000000900190029003460246039061480178EF
:1008100000780BF0B1F80FE05E48007817280BD194
:100820000020009001900290034602460390594830
:10083000017800780BF0A0F81FBD10B568200AF011
:10084000CAFD574908706A200AF0C5FD544948702E
:100850006C200AF0C0FD524988706E200AF0BBFD82
:100860004F49C87070200AF0B6FD4D4908727220D9
:100870000AF0B1FDC1B24A4841724FF074000AF06B
:10088000AAFDC1B2464881724FF076000AF0A3FD7E
:10089000C1B24348C1724FF0A4000AF09CFD404928
:1008A0000871A6200AF097FDC1B23D4841714FF092
:1008B000A8000AF090FDC1B2394881714FF0AA003A
:1008C0000AF089FDC1B23648C17110BD10B50FF0F4
:1008D00005FD4FF001003349087010BD01460029A5
:1008E00002DA484200B270470846FCE72E4800682A
:1008F00020F0E0602C49086008464068C0F30B1007
:100900002A492B4A127821F812002948007800F170
:1009100001002749087008460078032805DA2248B4
:10092000006840F080702049086070474FF0010077
:10093000204908702048008800F1010000B21E49DB
:1009400008800A2807D14FF001001C4908704FF0B9
:100950000000194908801A480088401C00B2184954
:100960000880142807D14FF00100164908704FF095
:1009700000001349088014480088401C00B2124946
:100980000880642831D14FF00100104908701FE041
:100990000040024004010010640A001037000010FB
:1009A000B040001084000010004003402E010010F1
:1009B000250100107D0000102A0000107E000010AC
:1009C0002C0000107F0000102E000010800000108E
:1009D0004FF00000FC490880FC48007828B1FC4832
:1009E000406B80F48010FA494863FA480088401C44
:1009F00000B2F8490880C82807D14FF00100F64935
:100A000008704FF00000F3490880F4480088401C4B
:100A100000B2F2490880B0F5FA7F07D14FF001002B
:100A2000EF4908704FF00000EC490880ED4800885D
:100A3000401C00B2EB490880B0F57A7F07D14FF037
:100A40000100E94908704FF00000E649088070474E
:100A5000E6480078002871D0E548007800286ED17B
:100A6000E448007800286BD1E348007800287ED164
:100A7000DE48C0782B280CD14FF00100DE49087009
:100A8000DE480078DE4908704FF0F000DB4908705E
:100A900068E0D64800792B280CD14FF00200D649E7
:100AA0000870D6480078D64908704FF0F100D34955
:100AB000087057E0CD4840792B280CD14FF0030047
:100AC000CD490870CD480078CD4908704FF0F2004C
:100AD000CA49087046E0C54880792B280CD14FF0F0
:100AE0000400C5490870C5480078C54908704FF032
:100AF000F300C249087035E0BC48C0792B280CD1FE
:100B00004FF00500BC490870BC480078BC4908702B
:100B10004FF0F400B949087024E0B448007A2B285B
:100B200010D14FF00600B4490870B4480078B449B9
:100B300008704FF0F500B149087013E039E296E211
:100B40008EE214E0A948407A2B280BD14FF0070021
:100B5000A9490870A9480078A94908704FF0F60023
:100B6000A6490870A1488078A249087085E2A24889
:100B70000078012851D19D4800792B2808D14FF0E9
:100B800002009D4908704FF0F1009C4908703FE059
:100B9000964840792B2808D14FF0030096490870F9
:100BA0004FF0F2009549087032E0904880792B2888
:100BB00008D14FF00400904908704FF0F3008F49BE
:100BC000087025E08948C0792B2808D14FF005002E
:100BD000894908704FF0F4008849087018E083488C
:100BE000007A2B2808D14FF00600834908704FF097
:100BF000F500824908700BE07C48407A2B2807D129
:100C00004FF007007C4908704FF0F6007B490870F0
:100C100076488078774908702FE277480078022874
:100C200051D1724840792B2808D14FF00300724906
:100C300008704FF0F200714908703FE06B4880790E
:100C40002B2808D14FF004006B4908704FF0F300D7
:100C50006A49087032E06548C0792B2808D14FF006
:100C60000500654908704FF0F4006449087025E0FC
:100C70005E48007A2B2808D14FF006005E490870C4
:100C80004FF0F5005D49087018E05848407A2B286D
:100C900008D14FF00700584908704FF0F600574947
:100CA00008700BE05148C0782B2807D14FF00100A5
:100CB000514908704FF0F000504908704B48807857
:100CC0004C490870D9E14C480078032851D1474875
:100CD00080792B2808D14FF00400474908704FF065
:100CE000F300464908703FE04048C0792B2808D1FE
:100CF0004FF00500404908704FF0F4003F4908707C
:100D000032E03A48007A2B2808D14FF006003A49E1
:100D100008704FF0F5003949087025E03348407AF3
:100D20002B2808D14FF00700334908704FF0F60028
:100D30003249087018E02D48C0782B2808D14FF0B0
:100D400001002D4908704FF0F0002C4908700BE0AD
:100D5000264800792B2807D14FF002002649087059
:100D60004FF0F1002549087020488078214908702B
:100D700083E121480078042870D11C48C0792B28D1
:100D800008D14FF005001C4908704FF0F4001B49D2
:100D900008705DE01548007A2B2808D14FF0060056
:100DA000154908704FF0F5001449087050E00F48DD
:100DB000407A2B2826D14FF007000F4908704FF0DA
:100DC000F6000E49087043E02E0000108500001068
:100DD00000C0092030000010810000103200001017
:100DE000820000103400001083000010CC050010B9
:100DF0006300001064000010650000103D0000104A
:100E000043000010FF48C0782B2808D14FF00100A4
:100E1000FD4908704FF0F000FC49087018E0F948EF
:100E200000792B2808D14FF00200F74908704FF0E5
:100E3000F100F64908700BE0F24840792B2807D101
:100E40004FF00300F04908704FF0F200EF490870CE
:100E5000EC488078EE4908700FE1FFE7EA48007837
:100E6000052851D1E748007A2B2808D14FF0060019
:100E7000E54908704FF0F500E44908703FE0E148AB
:100E8000407A2B2808D14FF00700DF4908704FF057
:100E9000F600DE49087032E0DA48C0782B2808D125
:100EA0004FF00100D84908704FF0F000D7490870A2
:100EB00025E0D44800792B2808D14FF00200D24910
:100EC00008704FF0F100D149087018E0CD48407922
:100ED0002B2808D14FF00300CB4908704FF0F200E7
:100EE000CA4908700BE0C74880792B2807D14FF01A
:100EF0000400C54908704FF0F300C4490870C148A8
:100F00008078C3490870B8E0BF480078062851D1FE
:100F1000BC48407A2B2808D14FF00700BA49087026
:100F20004FF0F600B94908703FE0B648C0782B286A
:100F300008D14FF00100B44908704FF0F000B349F8
:100F4000087032E0AF4800792B2808D14FF002003A
:100F5000AD4908704FF0F100AC49087025E0A94890
:100F600040792B2808D14FF00300A74908704FF0B3
:100F7000F200A649087018E0A24880792B2808D111
:100F80004FF00400A04908704FF0F3009F4908702B
:100F90000BE09C48C0792B2807D14FF005009A49F7
:100FA00008704FF0F4009949087096488078984985
:100FB000087062E09448007807285ED19148C078B4
:100FC0002B2808D14FF001008F4908704FF0F00036
:100FD0008E4908703FE08B4800792B2808D14FF0EC
:100FE0000200894908704FF0F1008849087032E02A
:100FF000844840792B2808D14FF0030082490870BB
:101000004FF0F2008149087025E07E4880792B2856
:1010100008D14FF004007C4908704FF0F3007B4981
:10102000087018E07748C0792B2808D14FF00500E8
:10103000754908704FF0F400744908700BE071486E
:10104000007A2B2807D14FF006006F4908704FF047
:10105000F5006E4908706B4880786D4908700CE0A7
:101060006B480078A0F101006949087005E0694803
:101070000078A0F1010067490870704710B580B989
:1010800013884FF6FF74A34203DA138803F10103B8
:1010900013800B78FF2B08DA0B7803F101030B7038
:1010A00003E04FF0000313800B7010BD58B90B78AC
:1010B000012B03DB4FF0FF0313700EE00B7803F1FD
:1010C00001030B7009E00B781BB94FF0000313709C
:1010D00003E00B78A3F101030B70704780B913781C
:1010E00073B90B78012B03DB4FF0FF0313700DE096
:1010F0000B78012B0ADA0B7803F101030B7005E082
:101100000B781BB10B78A3F101030B70704710B57E
:1011100018B1414B1B78012B13D113788BB90B7885
:10112000012B09DB4FF00F0313704FF000033A4C13
:1011300023703A4C237032E00B7803F101030B70FB
:101140002DE018B1354B1B78012B14D113781F2BD0
:1011500011D10B78012B09DB4FF02F0313704FF0E7
:1011600000032E4C23702C4C237018E00B7803F1F5
:1011700001030B7013E00B788BB180B10B78A3F1F6
:1011800001030B7013780F2B03D14FF01F03137063
:1011900005E013782F2B02D14FF00003137010BD20
:1011A000F0B591B0034615464FF000063046324682
:1011B0004FF00106344647E001FB04F6A6EB0106BA
:1011C000F6B2304631E09E5C0A2E09D09E5C3EB1FC
:1011D0009E5C0DF8006002F10106F6B2324620E096
:1011E00000BF07E04FF020060DF8006000F1010697
:1011F000F6B2304601FB04F68642F3DC02F101064A
:10120000F6B20DE0CC050010650000103D000010A6
:101210006400001063000010200100101F01001086
:10122000324600F10106F6B2304601FB04F6864272
:10123000C9DC9E5C0A2E03D102F10106F6B23246E9
:1012400004F10106F6B23446AC42B5DD4FF00006BB
:10125000304606E01DF800601E5400F10106F6B2AB
:101260003046B0EB810FF5DB11B0F0BDF0B54FF0BB
:101270001505FF4E35704FF00605FE4E35704FF0E8
:101280001505FD4E35704FF000052A4607E04FF07A
:101290000005FA4EB55402F101052DB22A4640F27E
:1012A000FF35AA42F3DB4FF000052A46A5E34FF0D5
:1012B00000052B4698E3EF4D2D7805FB0235F04EE7
:1012C000745DBF2C09DDA4F16105E94E367805FB9C
:1012D00006F54FEA850529460EE01F2C09DDA4F12D
:1012E0002005E34E367805FB06F54FEA85052946CD
:1012F00002E04FF0000529464FEA4225DE4E3678DF
:1013000006FB0350DF4D6F5C054600F101063046D9
:10131000DA4E7755DB4E01F10405775D054600F1A5
:1013200001063046D54E7755D64E01F10805775D5A
:10133000054600F101063046D04E7755D14E01F1F9
:101340000C05775D054600F101063046CB4E77551A
:10135000CC4E01F11005775D054600F101063046DF
:10136000C64E7755C74E01F11405775D054600F16D
:1013700001063046C14E7755C24E01F11805775D22
:10138000054600F101063046BC4E7755BD4E01F1D1
:101390001C05775D054600F101063046B74E7755CE
:1013A000B84E01F12005775D054600F10106304693
:1013B000B24E7755B34E01F12405775D054600F135
:1013C00001063046AD4E7755AE4E01F12805775DEA
:1013D000054600F101063046A84E7755A94E01F1A9
:1013E0002C05775D054600F101063046A34E775582
:1013F000A44E01F13005775D054600F10106304647
:101400009E4E77559F4E01F13405775D054600F1FC
:1014100001063046994E77559A4E01F13805775DB1
:10142000054600F101063046944E7755954E01F180
:101430003C05775D054600F1010630468F4E775535
:10144000904E01F14005775D054600F101063046FA
:101450008A4E77558B4E01F14405775D054600F1C4
:1014600001063046854E7755864E01F14805775D79
:10147000054600F101063046804E7755814E01F158
:101480004C05775D054600F1010630467B4E7755E9
:101490007C4E01F15005775D054600F101063046AE
:1014A000764E77554FEA4225734E367806FB035544
:1014B00005F180052846734E01F10105775D05466B
:1014C00000F1010630466D4E77556E4E01F105056F
:1014D000775D054600F101063046684E7755694E46
:1014E00001F10905775D054600F101063046634EBE
:1014F0007755644E01F10D05775D054600F1010653
:1015000030465E4E77555F4E01F11105775D054619
:1015100000F101063046594E77555A4E01F1150536
:10152000775D054600F101063046544E7755554E1D
:1015300001F11905775D054600F1010630464F4E71
:101540007755504E01F11D05775D054600F1010606
:1015500030464A4E77554B4E01F12105775D0546E1
:1015600000F101063046454E7755464E01F12505FE
:10157000775D054600F101063046404E7755414EF5
:1015800001F12905775D054600F1010630463B4E25
:1015900077553C4E01F12D05775D054600F10106BA
:1015A0003046364E7755374E01F13105775D0546A9
:1015B00000F101063046314E7755324E01F13505C6
:1015C000775D054600F1010630462C4E77552D4ECD
:1015D00001F13905775D054600F101063046274ED9
:1015E0007755284E01F13D05775D054600F101066E
:1015F0003046224E7755234E01F14105775D054671
:1016000000F1010630461D4E77551E4E01F145058D
:10161000775D054600F101063046184E7755194EA4
:1016200001F14905775D054600F101063046134E8C
:101630007755144E01F14D05775D054600F1010621
:1016400030460E4E77550F4E01F15105775D054638
:1016500000F101063046094E77554FEA4225064E05
:10166000367806FB035505F580752846054E0BE0D8
:101670002301001021010010220100101E0600109D
:101680001E0A00102414010001F10205775D0546D1
:1016900000F101063046FC4E7755FC4E01F106057F
:1016A000775D054600F101063046F74E7755F74E57
:1016B00001F10A05775D054600F101063046F24E5C
:1016C0007755F24E01F10E05775D054600F10106F2
:1016D0003046ED4E7755ED4E01F11205775D05462A
:1016E00000F101063046E84E7755E84E01F1160547
:1016F000775D054600F101063046E34E7755E34E2F
:1017000001F11A05775D054600F101063046DE4E0F
:101710007755DE4E01F11E05775D054600F10106A5
:101720003046D94E7755D94E01F12205775D0546F1
:1017300000F101063046D44E7755D44E01F126050E
:10174000775D054600F101063046CF4E7755CF4E06
:1017500001F12A05775D054600F101063046CA4EC3
:101760007755CA4E01F12E05775D054600F1010659
:101770003046C54E7755C54E01F13205775D0546B9
:1017800000F101063046C04E7755C04E01F13605D6
:10179000775D054600F101063046BB4E7755BB4EDE
:1017A00001F13A05775D054600F101063046B64E77
:1017B0007755B64E01F13E05775D054600F101060D
:1017C0003046B14E7755B14E01F14205775D054681
:1017D00000F101063046AC4E7755AC4E01F146059E
:1017E000775D054600F101063046A74E7755A74EB6
:1017F00001F14A05775D054600F101063046A24E2B
:101800007755A24E01F14E05775D054600F10106C0
:1018100030469D4E77559D4E01F15205775D054648
:1018200000F101063046984E77554FEA4225984E12
:10183000367806FB035505F5C0752846934E01F131
:101840000305775D054600F1010630468E4E77555B
:101850008E4E01F10705775D054600F10106304621
:10186000894E7755894E01F10B05775D054600F1EC
:1018700001063046844E7755844E01F10F05775DA1
:10188000054600F1010630467F4E77557F4E01F147
:101890001305775D054600F1010630467A4E77550F
:1018A0007A4E01F11705775D054600F101063046D5
:1018B000754E7755754E01F11B05775D054600F1B4
:1018C00001063046704E7755704E01F11F05775D69
:1018D000054600F1010630466B4E77556B4E01F11F
:1018E0002305775D054600F101063046664E7755C3
:1018F000664E01F12705775D054600F10106304689
:10190000614E7755614E01F12B05775D054600F17B
:10191000010630465C4E77555C4E01F12F05775D30
:10192000054600F101063046574E7755574E01F1F6
:101930003305775D054600F101063046524E775576
:10194000524E01F13705775D054600F1010630463C
:101950004D4E77554D4E01F13B05775D054600F143
:1019600001063046484E7755484E01F13F05775DF8
:10197000054600F101063046434E7755434E01F1CE
:101980004305775D054600F1010630463E4E77552A
:101990003E4E01F14705775D054600F101063046F0
:1019A000394E7755394E01F14B05775D054600F10B
:1019B00001063046344E7755344E01F14F05775DC0
:1019C000054600F1010630462F4E77552F4E01F1A6
:1019D0005305775D054600F1010630462A4E7755DE
:1019E00003F101052DB22B462A4D2D78AB42FFF6AF
:1019F00062AC02F101052DB22A46022AFFF657AC6D
:101A0000F0BDF0B54FF00905234E35704FF01005CD
:101A1000204E35704FF008051D4E35704FF0000513
:101A20002A4607E04FF00005174EB55402F10105B4
:101A30002DB22A4640F2FF35AA42F3DB4FF00005F3
:101A40002A46ECE04FF000052C46DFE0114D2D78E2
:101A500005FB0245114E735DBF2B09DDA3F1610546
:101A60000D4E367805FB06F54FEA450529461AE086
:101A70001F2B15DDA3F12005074E367805FB06F573
:101A80004FEA450529460EE01E0600102414010009
:101A90002201001021010010230100101E0A001075
:101AA0004FF0000529464FEA0225E74E367806FB3F
:101AB0000450E64E01F10205775D054600F101068E
:101AC0003046E34E7755E14E01F10405775D05465A
:101AD00000F101063046DE4E7755DC4E01F1060579
:101AE000775D054600F101063046D94E7755D74E51
:101AF00001F10805775D054600F101063046D44E38
:101B00007755D24E01F10A05775D054600F10106D1
:101B10003046CF4E7755CD4E01F10C05775D054629
:101B200000F101063046CA4E7755C84E01F10E0548
:101B3000775D054600F101063046C54E7755C34E28
:101B400001F11005775D054600F101063046C04EF3
:101B500077554FEA0225BC4E367806FB045505F151
:101B600080052846B94E01F10305775D054600F171
:101B700001063046B64E7755B44E01F10505775D46
:101B8000054600F101063046B14E7755AF4E01F1E2
:101B90000705775D054600F101063046AC4E7755E6
:101BA000AA4E01F10905775D054600F101063046B0
:101BB000A74E7755A54E01F10B05775D054600F15F
:101BC00001063046A24E7755A04E01F10D05775D16
:101BD000054600F1010630469D4E77559B4E01F1BA
:101BE0000F05775D054600F101063046984E7755A2
:101BF000964E01F11105775D054600F1010630466C
:101C0000934E775504F101052DB22C46914D2D7858
:101C1000AC42FFF61BAF02F101052DB22A46042AA1
:101C2000FFF610AFF0BDF0B54FF00C058A4E3570E1
:101C30004FF01005874E35704FF00805824E357015
:101C40004FF000052A4607E04FF00005804EB554DE
:101C500002F101052DB22A4640F2FF35AA42F3DB1C
:101C60004FF000052A46E0E04FF000052C46D3E097
:101C7000784D2D7805FB0245784E735DBF2B09DD4D
:101C8000A3F16105744E367805FB06F54FEA45056C
:101C900029460EE01F2B09DDA3F120056E4E367894
:101CA00005FB06F54FEA4505294602E04FF0000521
:101CB00029464FEA0225644E367806FB0450684EEA
:101CC00001F10405775D054600F101063046604EDE
:101CD0007755634E01F10605775D054600F1010673
:101CE00030465B4E77555E4E01F10805775D05463F
:101CF00000F101063046564E7755594E01F10A055E
:101D0000775D054600F101063046514E7755544E39
:101D100001F10C05775D054600F1010630464C4E99
:101D200077554F4E01F10E05775D054600F101062E
:101D30003046474E77554A4E01F11005775D05460E
:101D400000F101063046424E7755454E01F112052D
:101D5000775D054600F1010630463D4E77554FEA66
:101D60000225394E367806FB045505F180052846D4
:101D70003B4E01F10505775D054600F10106304651
:101D8000334E7755364E01F10705775D054600F174
:101D9000010630462E4E7755314E01F10905775D2B
:101DA000054600F101063046294E77552C4E01F1CB
:101DB0000B05775D054600F101063046244E775548
:101DC000274E01F10D05775D054600F1010630460D
:101DD0001F4E7755224E01F10F05775D054600F144
:101DE000010630461A4E77551D4E01F11105775DFB
:101DF000054600F101063046154E7755184E01F1A3
:101E00001305775D054600F101063046104E775503
:101E100004F101052DB22C460E4D2D78AC42FFF693
:101E200027AF02F101052DB22A46042AFFF61CAFA6
:101E3000F0BD00B5ADB00B480078362801F0E28265
:101E40004ADC82F0C4800FE02201001050480100FB
:101E50001E06001021010010230100101E0A0010B0
:101E60003C0501003D000010DFE810F08B00B800D9
:101E7000DE0002015B01A301DB0FDB0FDB0FDB0FD9
:101E8000DB0FDB0FDB0FDB0FDB0FDB0FDB0FDB0F02
:101E9000DB0FDB0FE301EA01F301FC01030208029F
:101EA000DB0FDB0FDB0FDB0F0D0239026502620473
:101EB0008C04B604ED041D05DB0FDB0F3F055A054E
:101EC000A205D6053B06A20707083F087B0886083F
:101ED000BD08F1086209670A512801F086851FDCF8
:101EE000A0F137001A28ACD2DFE810F0BE0A240BAC
:101EF000560BBB0BED0B890C9B0F9B0F9B0F9B0F86
:101F00009B0FBA0C9B0F9B0F9B0FBF0CDB0CEE0CB7
:101F1000010D140D270D3A0D4D0D9B0F9B0F5D0DFF
:101F2000F32801F0A9871BDC5A2801F077850DDC26
:101F3000522801F05F85532801F06185542801F093
:101F40006385552842F0438001F063BDF02801F01D
:101F50006987F12801F07387F228F3D101F084BF7B
:101F6000F4380C28BFD2DFE810F0940FA80FE80F68
:101F70005C0F5C0F5C0FF30FFA0F01105C0F5C0F2E
:101F80000810FC48B0F900000A2190FBF1F009901C
:101F9000F948B0F90000FEF73CF9F8490390FEF764
:101FA000F8F80490FEF73EF9CDE90601F448B0F9DF
:101FB00000000A2190FBF1F00590F249B1F9001000
:101FC0000998CDE90210DDE90601CDE90001EEA195
:101FD000F948059A0BF0B4FC01F0F9BFE548B0F9F7
:101FE00000000A2190FBF1F00990E348B0F90000ED
:101FF000FEF70FF9E1490490FEF7CBF80590FEF7E4
:1020000011F9CDE90601ED48B0F90010DD4AB2F949
:1020100000200998CDE900200291E9A1E648DDE918
:1020200006230BF08DFCD7E7F04800880A2190FBCF
:10203000F1F201FB12000990EC48008890FBF1F0EE
:102040000890CC48B0F9000090FBF1F00790DB4A13
:10205000B2F90020DDE90810CDE900210290C9485D
:10206000B0F90020E2A1D448079B0BF069FCB3E76C
:10207000EB480088B0F5167F1FDBDC4800880A219A
:1020800090FBF1F201FB12000990D848008890FB08
:10209000F1F00890B748B0F9000090FBF1F007901C
:1020A000DDE90801CDE90001C448B0F90030DDA147
:1020B000C148079A0BF044FC32E0E748B0F9000051
:1020C000FEF7A7F8E5490390FEF763F80490FEF7E2
:1020D000A9F8CDE90801C54801880A2091FBF0F272
:1020E00000FB12100790C14800880A2190FBF1F014
:1020F0000690A048B0F900100A2091FBF0F005907E
:10210000DDE90801CDE90201DDE90601CDE90001C3
:10211000AA48B0F90030D2A1A748059A0BF010FCEC
:102120005AE7BF480088B0F5167F18DBAF48008833
:102130000A2190FBF1F201FB12000990AB480188E3
:102140000A2091FBF0F00890099800909B48B0F9A4
:102150000020CFA19848089B0BF0F2FB28E0BE4876
:10216000B0F90000FEF755F8BC490490FEF711F8ED
:102170000590FEF757F8CDE908019C4800880A2130
:1021800090FBF1F201FB120007909848008890FB49
:10219000F1F00690DDE90801CDE902010798009011
:1021A0008648B0F90020C7A18348069B0BF0C8FB06
:1021B00012E79B480088B0F5167F14DB8B48008837
:1021C0000A2190FBF1F201FB120009908748018877
:1021D0000A2091FBF0F008900246C6A17648099BC0
:1021E0000BF0AEFB24E09C48B0F90000FEF711F8BC
:1021F0009A490490FDF7CDFF0590FEF713F8CDE95D
:1022000008017A4800880A2190FBF1F201FB1200D4
:1022100007907648008890FBF1F00690DDE9080110
:10222000CDE90001BFA16448DDE906230BF088FB7E
:10223000D2E6C8480278C8A15F480BF081FBCBE624
:10224000D3480378C3480278D2A15B480BF078FBEF
:10225000C2E6CF480378BF480278DCA156480BF0AD
:102260006FFBB9E6CA480278E6A153480BF068FB59
:10227000B2E6F0A150480BF063FBADE6F8A14E4882
:102280000BF05EFBA8E63C48B0F90000FDF7C1FF8B
:102290003A490490FDF77DFF0590FDF7C3FFCDE9B6
:1022A00008013748B0F900000A2190FBF1F201FB68
:1022B000120007903248B0F9000090FBF1F0069050
:1022C0003048B0F900000290DDE90801CDE90001D5
:1022D000EEA13948DDE906230BF032FB7CE6254808
:1022E000B0F900000A2190FBF1F201FB1200099005
:1022F0002048B0F9000090FBF1F008901E48B0F9BA
:102300000000FDF786FF1D490490FDF742FF059090
:10231000FDF788FFCDE906011A4AB2F90020DDE990
:102320000810CDE900210290E6A12348DDE906234B
:102330000BF006FB50E60F48B0F900000A2190FBB5
:10234000F1F201FB120009900A48B0F9000090FB7D
:10235000F1F008901948B0F900100998CDE9000192
:102360000848B0F90020E5A11348089B0BF0E8FAF3
:1023700032E6000012E0072038E00720000020418C
:1023800036E007203CE007202055E2FBF53D252DF7
:1023900075C20A2049E2FBF53D252E3166C00A20B0
:1023A00050E2FBF53D252D64C2F20A2055F1E5F21D
:1023B000E83D252D75C200001E0A00103AE00720F6
:1023C0002049E2FBF53D252E3166C00A2050E2FB94
:1023D000F53D252D64C2F20A2055F1E5F2E83D25D0
:1023E0002D75C20A20743D25642743002EE0072086
:1023F0002050E2FBF53D252D64C2F20A2055F1E59F
:10240000F2E83D252D75C20A20743D252D64274331
:102410000A2055E1E0F23D252D752E252D7542004F
:10242000580000102055F1E5F2E83D252D75C20A4F
:1024300020743D252D6427430A2055E1E0F23D2517
:102440002D752E252D75420A2049E1E0F23DCAC0C6
:10245000CBC8C1D02E00000030E007200000C842E9
:102460002055F1E5F2E83D252D75C20A20743D2581
:102470002D6427430A2055E1E0F23D252D752E25D8
:102480002D75420A2049E1E0F23D252E32664100D9
:1024900020743D252D6427430A2055E1E0F23D25B7
:1024A0002D752E252D75420A2049E1E0F23DCAC066
:1024B000CBC8C1D02E0A20D3D1D2C0CDCEC2CAC87B
:1024C0000000000020743D252D6427430A2055E1BB
:1024D000E0F23D252D752E252D75420A2049E1E0BB
:1024E000F23D252E3266410A20D3D1D2C0CDCEC2D4
:1024F000CAC800002055E1E0F23D252D752E252D9E
:1025000075420A2049E1E0F23DCAC0CBC8C1D02ED5
:102510000A20D3D1D2C0CDCEC2CAC80A20CDC0C2F3
:10252000C5D0D5002055E1E0F23D252D752E252D95
:1025300075420A2049E1E0F23D252E3266410A202B
:10254000D3D1D2C0CDCEC2CAC80A20CDC0C2C5D058
:10255000D50000006600001020202020D3D1D2C07A
:10256000CDCEC2CAC80A20C2FBE1EEF020E3EB2EBA
:10257000ECE5EDFE0A20C8EDF2E5F0EDE5F20A200B
:1025800055E1E0F22EE2EAEB3D252D754200000018
:102590006700001020202020D3D1D2C0CDCEC2CAE7
:1025A000C80A20C8EDF2E5F0EDE5F20A2055E1E0B9
:1025B000F22EE2EAEB3D252D75420A2055E1E0F2CC
:1025C0002EE2FBEAEB3D252D754200002020202065
:1025D000D3D1D2C0CDCEC2CAC80A2055E1E0F22E76
:1025E000E2EAEB3D252D75420A2055E1E0F22EE2AC
:1025F000FBEAEB3D252D75420A20D0E5EBE520B93D
:102600003100000020202020D3D1D2C0CDCEC2CABC
:10261000C80A2055E1E0F22EE2FBEAEB3D252D75DC
:10262000420A20D0E5EBE520B9310A20D0E5EBE500
:1026300020B9320020202020D3D1D2C0CDCEC2CAB2
:10264000C80A20D0E5EBE520B9310A20D0E5EBE55A
:1026500020B9320A20CAE0EBE8E1F0EEE2EAE0005D
:1026600020202020D3D1D2C0CDCEC2CAC80A20D0CB
:10267000E5EBE520B9320A20CAE0EBE8E1F0EEE252
:10268000EAE00A20C2FBF5EEE4000000202020CAA8
:10269000C0CBC8C1D0CEC2CAC00A2055E2FBF53DAE
:1026A000252D752E25303175C20A2049E2FBF53DF6
:1026B000252E3166C00A2050E2FBF53D252D64C26F
:1026C000F2000000202020CAC0CBC8C1D0CEC2CAB0
:1026D000C00A2049E2FBF53D252E3166C00A205094
:1026E000E2FBF53D252D64C2F20A2055F1E5F2E842
:1026F0003D252D752E25303175C20000202020CAC1
:10270000C0CBC8C1D0CEC2CAC00A2050E2FBF53D42
:10271000252D64C2F20A2055F1E5F2E83D252D751C
:102720002E25303175C20A20743D256427430000F0
:10273000FF4800880A2190FBF1F201FB120009908A
:10274000FB48008890FBF1F00890FA48B0F90000CF
:1027500090FBF1F201FB12000790F648B0F900007F
:1027600090FBF1F00690F44AB2F90020DDE9081080
:10277000CDE900210290F1A1FE48DDE906230BF02E
:10278000DFF829E4FC48B0F90000FDF742FDFB4901
:102790000490FDF7FEFC0590FDF744FDCDE908012E
:1027A000E34800880A2190FBF1F201FB1200079038
:1027B000DF48008890FBF1F00690DDE90801CDE9E3
:1027C000020107980090DC48B0F90020ECA1E9482C
:1027D000069B0BF0B5F826E4F648007810B9F6A091
:1027E0000E9008E0F3480078012802D1F4A00E9082
:1027F00001E0F5A00E90E048B0F90000FDF709FDFA
:10280000DE490490FDF7C5FC0590FDF70BFDCDE911
:102810000801C74800880A2190FBF1F201FB120071
:102820000790C348008890FBF1F006900E98029044
:10283000DDE90801CDE90001E4A1CE48DDE9062388
:102840000BF07EF813E4DB48007810B9DAA00E90A4
:1028500008E0D8480078012802D1D9A00E9001E004
:10286000D9A00E90E748007810B9D3A00F9001E0EE
:10287000D5A00F90C048B0F90000FDF7CAFCBF49D1
:102880000690FDF786FC0790FDF7CCFCCDE908012A
:10289000DDE90E01CDE90001DBA1B648DDE9082341
:1028A0000BF04EF83CE4C348007810B9C2A00E907B
:1028B00008E0C0480078012802D1C1A00E9001E0D4
:1028C000C1A00E90CF48007810B9BBA00F9001E0D6
:1028D000BDA00F900F9809900E9808900246D8A1BD
:1028E000A448099B0BF02CF81AE4E148008810B1C9
:1028F000B5A00E9001E0B0A00E90DE48008810B1A7
:10290000B1A00F9001E0ACA00F900F9809900E9825
:1029100008900246D8A19748099B0BF011F847E4AC
:10292000D348008810B1E1A00E9001E0A2A00E9063
:10293000D048008810B1DDA00F9001E09EA00F905C
:10294000DC48B0F90010DC48B0F90000DB4AB2F90D
:102950000020CDE9002002910F980990D848B0F9E5
:102960000030D8A18348099A0AF0EAFFE4480078C9
:10297000E8B1E4480078032819D14FF02001E2487B
:1029800000784FF0290202EB80007A4A1154DE48A9
:1029900000784FF02A0202EB8000764A1154DA48A0
:1029A00000784FF02B0202EB8000724A11543FE492
:1029B000C048B0F90000C049B1F90010CDE90010DD
:1029C000BE48B0F90030BE48B0F90020CFA1694838
:1029D0000AF0B6FFCA480078E8B1CA480078022871
:1029E00019D14FF02001C84800784FF0180202EBCF
:1029F0008000604A1154C44800784FF0190202EB7D
:102A000080005C4A1154C04800784FF01A0202EB73
:102A10008000584A11540BE4CB48B0F90000CB4970
:102A2000B1F90010CA4AB2F90020CA4BB3F900301C
:102A3000CDE90232CDE904109E48B0F900009E496C
:102A4000B1F90010CDE900109C48B0F900309C4865
:102A5000B0F90020C04947480AF072FFA848007842
:102A6000E8B1A8480078032819D14FF02001A64802
:102A700000784FF02F0202EB80003E4A1154A2482A
:102A800000784FF0300202EB80003A4A11549E4821
:102A900000784FF0310202EB8000364A115498481A
:102AA0000078E8B197480078012819D14FF020014B
:102AB000954800784FF00E0202EB80002D4A115429
:102AC000914800784FF00F0202EB8000294A115420
:102AD0008D4800784FF0100202EB8000254A115417
:102AE00028E49948B0F900009849B1F90010CDE9FF
:102AF00000109748B0F900309648B0F9002097A12F
:102B00001C480AF01DFF7E48007880B17D4800789F
:102B100002280CD14FF020017B4800784FF01E02B4
:102B200002EB8000134A11547748007834E13EE10B
:102B30002EE0072012E007203AE00720202020CADC
:102B4000C0CBC8C1D0CEC2CAC00A2055F1E5F2E858
:102B50003D252D752E25303175C20A20743D256422
:102B600027430A2055E1E0F23D252D752E252D75D0
:102B7000420000001E0A001030E007200000C8429A
:102B8000202020CAC0CBC8C1D0CEC2CAC00A20747F
:102B90003D256427430A2055E1E0F23D252D752EA1
:102BA000252D75420A2049E1E0F23D252E3266418D
:102BB000000000006D000010C2DBCACB0000000066
:102BC000C0CCCFCB00000000C2CACB00202020CA5E
:102BD000C0CBC8C1D0CEC2CAC00A2055E1E0F23D88
:102BE000252D752E252D75420A2049E1E0F23D255F
:102BF0002E3266410A20CAEEEDF2F02EF1E5F2E83F
:102C0000202573006E000010202020CAC0CBC8C150
:102C1000D0CEC2CAC00A2049E1E0F23D252E32667C
:102C2000410A20CAEEEDF2F02EF1E5F2E82025731C
:102C30000A20D3EFF02ED8C8CC2025730000000066
:102C4000202020CAC0CBC8C1D0CEC2CAC00A20CA68
:102C5000EEEDF2F02EF1E5F2E82025730A20D3EF35
:102C6000F02ED8C8CC2025730A20C2DBD5CEC400F4
:102C7000A8000010AA00001020202045544845520A
:102C80004E45543A0A2045746865726E6574202575
:102C9000730A2044484350EAEBE8E5EDF22025733F
:102CA0000A204950E0E4F0E5F13A0000C2CACB2026
:102CB00000000000B2000010B0000010AE000010D4
:102CC000AC00001020202045544845524E45543A4F
:102CD0000A2044484350EAEBE8E5EDF22025730A68
:102CE000204950E0E4F0E5F13A0A20253033752E12
:102CF000253033752E253033752E25303375000081
:102D00005B000010400000106100001020202045F2
:102D1000544845524E45543A0A204950E0E4F0E503
:102D2000F13A0A20253033752E253033752E2530A3
:102D300033752E253033750A20CCE0F1EAE020EF20
:102D4000EEE4F1E5F2E83A00BA000010B800001035
:102D5000B6000010B4000010B4530100202020453C
:102D6000544845524E45543A0A20CCE0F1EAE0205E
:102D7000EFEEE4F1E5F2E83A0A20253033752E252E
:102D80003033752E253033752E253033750A20D813
:102D9000EBFEE73A000000004FF01F0202EB80005C
:102DA000FA4A1154FA48007801EB80001154E8E423
:102DB000F848B0F90000F849B1F90010F74AB2F943
:102DC0000020F74BB3F90030CDE90232CDE9041011
:102DD000F448B0F90000F449B1F90010CDE9001051
:102DE000F248B0F90030F248B0F90020F1A1E7480C
:102DF0000AF0A6FDFF480078E8B1FF4800780128F6
:102E000019D14FF02001E24800784FF00E0202EB9A
:102E10008000DE4A1154DE4800784FF00F0202EBCA
:102E20008000DA4A1154DA4800784FF0100202EBC1
:102E30008000D64A1154EF480078E8B1EE48007897
:102E4000032819D14FF02001D14800784FF0260215
:102E500002EB8000CD4A1154CD4800784FF0270294
:102E600002EB8000C94A1154C94800784FF028028B
:102E700002EB8000C54A115483E4E048B0F9001029
:102E8000C448B0F90000C44AB2F90020CDE90020DE
:102E90000291C248B0F90030C148B0F90020D8A171
:102EA000BA480AF04DFDD3480078E8B1D24800781E
:102EB000022819D14FF02001B54800784FF01502D3
:102EC00002EB8000B14A1154B14800784FF016026D
:102ED00002EB8000AD4A1154AD4800784FF0170264
:102EE00002EB8000A94A11544BE4D448B0F9001019
:102EF000C248B0F90020A748B0F90000A64BB3F9CA
:102F00000030CDE90030CDE90221A448B0F900300D
:102F1000A348B0F90020CA499C480AF011FDB54801
:102F20000078E8B1B4480078012819D14FF02001A9
:102F3000974800784FF00E0202EB8000934A11543C
:102F4000934800784FF00F0202EB80008F4A115433
:102F50008F4800784FF0100202EB80008B4A11542A
:102F60000FE4B648B0F90030A448B0F90020B5A18C
:102F700086480AF0E5FC04E44FF000000A9009E0FE
:102F8000BF490A98095C0BAA11540A9800F1010084
:102F9000C0B20A900A980A28F2DB96480078C8B1B5
:102FA00095480078032815D14FF05F000BA9784AA7
:102FB00012788854B248FDF7E4F8754909788842D8
:102FC00008D10BA8FDF7DDF800F101000BA94FF0C7
:102FD0000A020A540BAB9948B0F90020A9A16B482A
:102FE0000AF0AEFC2EE44FF000000A9009E0A4497C
:102FF0000A98095C0BAA11540A9800F10100C0B2AA
:103000000A900A980A28F2DB7A480078C8B17A4810
:103010000078022815D14FF05F010BA85C4A1278A6
:1030200081549748FDF7ADF859490978884208D18D
:103030000BA8FDF7A6F800F101000BA94FF00A025A
:103040000A540BAA9BA151480AF07AFC2AE44FF0DB
:1030500000000A9009E08A490A98095C0BAA1154F9
:103060000A9800F10100C0B20A900A980A28F2DB1F
:1030700060480078C8B160480078012815D14FF049
:103080005F000BA9424A127888547D48FDF779F811
:103090003F490978884208D10BA8FDF772F800F182
:1030A00001000BA94FF00A020A548E48B0F9001033
:1030B0008D48B0F900008D4AB2F90020CDE900201A
:1030C00002918B48B0F900300BAA8AA12F480AF070
:1030D00037FC4848007850B347480078032826D189
:1030E0000BA8FDF74EF800F121002949097800EB03
:1030F000810026494FF020020A540BA8FDF741F841
:1031000000F122002249097800EB81001F494FF0AD
:1031100020020A540BA8FDF734F800F123001C49E3
:10312000097800EB810019494FF020020A543EE46F
:103130006C48B0F900006C49B1F90010CDE90010FD
:103140006A48B0F900306A48B0F900203C4944317F
:103150000E480AF0F5FB27480078A8B12648007809
:10316000022811D14FF02001094800784FF01F02CA
:1031700002EB8000054A11540548007801EB8000FD
:10318000115403480078D1E0D6E000001E0A001078
:1031900061000010C2000010C0000010BE0000104E
:1031A000BC000010BA000010B8000010B6000010FB
:1031B000B400001020202045544845524E45543A52
:1031C0000A20253033752E253033752E2530337582
:1031D0002E253033750A20D8EBFEE73A0A20253039
:1031E00033752E253033752E253033752E2530332B
:1031F000750000005B00001040000010C4000010CB
:1032000020202045544845524E45543A0A20D8EBD8
:10321000FEE73A0A20253033752E253033752E25EA
:103220003033752E253033750A20CFEEF0F22EF7AD
:10323000F2E5EDE8FF20252D75000000C600001026
:10324000FC53010020202045544845524E45543A35
:103250000A20CFEEF0F220F7F2E5EDE8FF20252D71
:10326000750A20CFEEF0F220E7E0EFE8F1E8202544
:103270002D750A20436F6D6D756E6974793A000083
:103280001A00001020202045544845524E45543A1B
:103290000A20CFEEF0F220E7E0EFE8F1E820252D5C
:1032A000750A20436F6D6D756E6974793A0A202531
:1032B0007300000020202045544845524E45543AA2
:1032C0000A20436F6D6D756E6974793A0A20257313
:1032D0000A20C0E4F0E5F1E0F22054524150204EC3
:1032E00031000000CE000010CC000010CA00001019
:1032F000C800001020202045544845524E45543AFD
:103300000A2025730A20C0E4F0E5F1E0F2205452CF
:103310004150204E310A20253033752E253033752B
:103320002E253033752E2530337500004FF02102E5
:1033300002EB8000FF4A115439E5FF48B0F9000064
:10334000FE49B1F90010FE4AB2F90020FD4BB3F975
:103350000030CDE90232CDE90410FB48B0F900009D
:10336000FA49B1F90010CDE90010F948B0F9003080
:10337000F848B0F90020F849EE480AF0E1FAF748B9
:103380000078E8B1F6480078012819D14FF0200103
:10339000F44800784FF00E0202EB8000E54A115429
:1033A000F04800784FF00F0202EB8000E14A115420
:1033B000EC4800784FF0100202EB8000DD4A115417
:1033C000E6480078E8B1E6480078032819D14FF0C4
:1033D0002001E44800784FF0300202EB8000D54A2B
:1033E0001154E04800784FF0310202EB8000D14ADE
:1033F0001154DC4800784FF0320202EB8000CD4AD5
:103400001154D4E4CC48B0F90000CC49B1F9001013
:10341000CDE90010CA48B0F90030CA48B0F9002020
:10342000CD494831C3480AF08BFACC480078D0B176
:10343000CB480078022816D14FF02001C948007807
:103440004FF01F0202EB8000BA4A1154C5480078C1
:1034500001EB80001154C34800784FF0210202EBC9
:103460008000B44A1154A2E4BF48B0F90000BF493B
:10347000B1F90010BE4AB2F90020BE4BB3F90030DA
:10348000CDE90232CDE90410AB48B0F90000AB49F8
:10349000B1F90010CDE90010A948B0F90030A948F1
:1034A000B0F90020AC498C31A2480AF049FAAB4887
:1034B0000078E8B1AA480078012819D14FF020011E
:1034C000A84800784FF00E0202EB8000994A115490
:1034D000A44800784FF00F0202EB8000954A115487
:1034E000A04800784FF0100202EB8000914A11547E
:1034F0009A480078E8B19A480078032819D14FF02B
:103500002001984800784FF0300202EB8000894A91
:103510001154944800784FF0310202EB8000854A44
:103520001154904800784FF0320202EB8000814A3B
:1035300011543CE48C48B0F900008C49B1F90010FA
:10354000CDE900108A48B0F900308A48B0F900206F
:103550008149D43177480AF0F3F980480078D0B136
:103560007F480078022816D14FF020017D4800786E
:103570004FF01F0202EB80006E4A11547948007828
:1035800001EB80001154774800784FF0210202EBE4
:103590008000684A11540AE47748B0F9000077497E
:1035A000B1F90010764AB2F90020764BB3F9003039
:1035B000CDE90232CDE904106B48B0F900006B4947
:1035C000B1F90010CDE900106948B0F90030694840
:1035D000B0F900206C4957480AF0B2F95F4800780A
:1035E000E8B15F480078012819D14FF020015D480B
:1035F00000784FF00E0202EB80004E4A11545948F9
:1036000000784FF00F0202EB80004A4A11545548EF
:1036100000784FF0100202EB8000464A11544F48E8
:103620000078E8B14E480078032819D14FF0200106
:103630004C4800784FF0300202EB80003D4A1154B4
:10364000484800784FF0310202EB8000394A1154AB
:10365000444800784FF0320202EB8000354A1154A2
:103660000AE44548B0F900004449B1F90010CDE939
:1036700000104348B0F900304248B0F900204249F8
:1036800048312C480AF05CF934480078D0B134480D
:103690000078022816D14FF02001324800784FF010
:1036A0001F0202EB8000234A11542E48007801EBE0
:1036B000800011542B4800784FF0210202EB80006B
:1036C0001C4A115410E43148B0F900103048B0F9E8
:1036D00000203048B0F900002F4BB3F90030CDE99D
:1036E0000230CDE904212448B0F900002349B1F9A2
:1036F0000010CDE900102248B0F900302148B0F99F
:10370000002021498C310B480AF01AF9134800783F
:1037100078B11348007801284FD14FF020011148AB
:1037200000784FF00E0202EB8000024A11540D485F
:1037300034E042E01E0A0010D6000010D400001051
:10374000D2000010D0000010CE000010CC000010FD
:10375000CA000010C8000010845401005B00001073
:103760004000001061000010DE000010DC000010BE
:10377000DA000010D8000010E6000010E40000108D
:10378000E2000010E00000109C550100EE00001067
:10379000EC000010EA000010E800001000784FF084
:1037A0000F0202EB80009E4A11549E4800784FF0B1
:1037B000100202EB80009A4A11549B480078E8B14D
:1037C0009A480078032819D14FF0200195480078D5
:1037D0004FF0300202EB8000914A1154914800787A
:1037E0004FF0310202EB80008D4A11548D48007871
:1037F0004FF0320202EB8000894A1154E7E38C4813
:10380000B0F900008B49B1F90010CDE900108A48E9
:10381000B0F900308948B0F9002089A180480AF049
:103820008FF881480078D0B180480078022816D1FE
:103830004FF020017B4800784FF01F0202EB800020
:10384000774A11547748007801EB8000115475488D
:1038500000784FF0210202EB8000714A1154B6E368
:1038600086A16F480AF06CF8B1E38D48007818B172
:10387000AFF6AC400E9002E0AFF6C4400E90884820
:10388000C07887498978CDE900108548407809904B
:103890000E980890024683A16148099B0AF050F8EF
:1038A00095E37F4800797E49C978CDE900107C48CE
:1038B000807809907A4840780890024687A1584855
:1038C000099B0AF03DF882E375484079744909790B
:1038D000CDE900107248C07809907148807808904E
:1038E00002468BA14E48099B0AF02AF86FE36C4808
:1038F00080796B494979CDE90010694800790990D0
:103900006748C078089002468DA14548099B0AF097
:1039100017F85CE36248C07961498979CDE9001004
:103920005F48407909905E480079089002468FA16F
:103930003B48099B0AF004F849E35948007A584982
:10394000C979CDE9001056488079099054484079EA
:103950000890024690A13248099B09F0F1FF36E336
:103960004F48407A4E49097ACDE900104C48C07959
:1039700009904B4880790890024692A12848099BFB
:1039800009F0DEFF23E34648407A00904448007A7D
:1039900009904348C0790890024694A12048099BA9
:1039A00009F0CEFF13E320480078C8B198480078AA
:1039B00020B998A11A4809F0C3FF15E0944800788F
:1039C000012804D19FA1164809F0BAFF0CE09048E5
:1039D0000078022808D1A7A1114809F0B1FF03E03F
:1039E000B0A10F4809F0ACFFF1E2BDA10C4809F00D
:1039F000A7FFECE2C9A10A4809F0A2FFE7E2D6A1BD
:103A0000074809F09DFFE2E2E2A1054809F098FFAE
:103A1000DDE2EFA1024809F093FFD8E2F9A1FDE150
:103A20001E0A0010610000105B0000104000001032
:103A3000EE000010EC000010EA000010E80000109A
:103A400020202045544845524E45543A0A20C0E4AF
:103A5000F0E5F1E0F22054524150204E350A202585
:103A60003033752E253033752E253033752E2530A5
:103A700033750A20C2DBD5CEC400000020202045CB
:103A8000544845524E45543A0A2045746865726E52
:103A9000657420C2DBCACB0A20C2DBD5CEC40A00C3
:103AA000CC05001020C3EB2EECE5EDFE2025730ABB
:103AB00020F7E5F0E5E720252D75F1E5EA0A20E895
:103AC000EDF2E5F0E2E0EB20252D75F1E5EA0A20C4
:103AD0002025632055E2FBF50000000020F7E5F00B
:103AE000E5E720252D75F1E5EA0A20E8EDF2E5F09D
:103AF000E2E0EB20252D75F1E5EA0A202025632080
:103B000055E2FBF50A202025632049E2FBF5000081
:103B100020E8EDF2E5F0E2E0EB20252D75F1E5EA95
:103B20000A202025632055E2FBF50A20202563208A
:103B300049E2FBF50A2020256320D0E2FBF50000D6
:103B4000202025632055E2FBF50A2020256320492B
:103B5000E2FBF50A2020256320D0E2FBF50A2020B5
:103B600025632055F1E5F2E80000000020202563E0
:103B70002049E2FBF50A2020256320D0E2FBF50A6C
:103B8000202025632055F1E5F2E80A202025632056
:103B900055E1E0F2000000002020256320D0E2FB88
:103BA000F50A202025632055F1E5F2E80A202025BA
:103BB000632055E1E0F20A202025632049E1E0F28C
:103BC00000000000202025632055F1E5F2E80A20DE
:103BD0002025632055E1E0F20A202025632049E1F9
:103BE000E0F20A2020256320746000002020256375
:103BF0002055E1E0F20A202025632049E1E0F20AA5
:103C0000202025632074600A20C2DBD5CEC40000CA
:103C10007C000010202020D0E5EBE520313A0A207E
:103C2000200A20E0E2E0F0E8FF20F1E5F2E820CD14
:103C3000D00A20E0E2E0F0E8FF2055E2FBF520CDDD
:103C4000C7000000202020D0E5EBE520313A0A2013
:103C5000E0E2E0F0E8FF20F1E5F2E820CDC70A203D
:103C60000A20E0E2E0F0E8FF2055E2FBF520CDC7B6
:103C700000000000202020D0E5EBE520313A0A20AA
:103C8000E0E2E0F0E8FF20F1E5F2E820CDC70A200D
:103C9000E0E2E0F0E8FF20F1E5F2E820CDD00A20F4
:103CA00000000000202020D0E5EBE520313A0A207A
:103CB000E0E2E0F0E8FF20F1E5F2E820CDC70A20DD
:103CC000E0E2E0F0E8FF20F1E5F2E820CDD00A20C4
:103CD000E0E2E0F0E8FF2055E2FBF520CDC7000070
:103CE000202020D0E5EBE520313A0A20E0E2E0F0A8
:103CF000E8FF20F1E5F2E820CDD00A20E0E2E0F094
:103D0000E8FF2055E2FBF520CDC70A20E0E2E0F015
:103D1000E8FF2055E2FBF52048500000202020D08D
:103D2000E5EBE520313A0A20E0E2E0F0E8FF20553B
:103D3000E2FBF520CDC70A20E0E2E0F0E8FF2055E5
:103D4000E2FBF52048500A20E0E2E0F0E8FF2055D1
:103D5000E2FBF52048C70000202020D0E5EBE5205D
:103D6000313A0A20E0E2E0F0E8FF2055E2FBF520DE
:103D700048500A20E0E2E0F0E8FF2055E2FBF520A1
:103D800048C70A20C0CAC120F0E0E7F0FFE62E20B5
:103D9000CDC70000202020D0E5EBE520313A0A20F5
:103DA000E0E2E0F0E8FF2055E2FBF52048C70A20FA
:103DB000C0CAC120F0E0E7F0FFE62E20CDC70A2000
:103DC000C0CAC120F0E0E7F0FFE62E20CDD0000011
:103DD000202020D0E5EBE520313A0A20C0CAC120DE
:103DE000F0E0E7F0FFE62E20CDC70A20C0CAC120D0
:103DF000F0E0E7F0FFE62E20CDD00A20C2DBD5CEE2
:103E0000C4000000202055E1E0F20A202049E1E052
:103E1000F20A20200A20C2DBD5CEC400FF4809F0F8
:103E20008FFDD4E0FE48B0F900000A2190FBF1F0CC
:103E30000246FCA10990F94809F082FDC7E0FC4860
:103E4000B0F90000FCF7E5F9FA490690FCF7A1F992
:103E50000790FCF7E7F902460B46CDE90801F6A109
:103E6000EE4809F06DFDB2E0F648B0F90020F6A189
:103E7000EA4809F065FDAAE0F648B0F900000A2119
:103E800090FBF1F00246F4A10990E44809F058FDD6
:103E90009DE0F44800880A2190FBF1F201FB12003A
:103EA0000990F048008890FBF1F008900246EEA1DE
:103EB000DA48099B09F044FD89E0EF48B0F90000B9
:103EC000B0F5FA7F05DCEC48B0F9000010F5FA7F98
:103ED0001EDAE948B0F900004FF00A0190FBF1F05A
:103EE00000B2E54908800846B0F90000FCF791F9F6
:103EF000D0490690FCF74DF90790FCF793F902467C
:103F00000B46CDE90801DDA1C44809F019FD13E015
:103F1000D948B0F90000FCF77CF9DB490690FCF7C2
:103F200038F90790FCF77EF902460B46CDE9080107
:103F3000D6A1BA4809F004FD49E022200090D648F5
:103F4000B0F900302222D5A1B44809F0F9FC3EE0D6
:103F5000D6480288D6A1B14809F0F2FC37E0D34830
:103F60000288DDA1AD4809F0EBFC30E0CF480288C3
:103F7000E3A1AA4809F0E4FC29E0EBA1A74809F075
:103F8000DFFCF04801780078401EEE4A1070E9B975
:103F9000ED480088B82807D1EC480078EC49087053
:103FA000EC480078EC490870E7480088A0F54071BB
:103FB000693907D1E9480078E5490870E848007890
:103FC000E54908704FF00000DF49088000BF00BFDE
:103FD0002DB000BD10B5FDF72CFFDD480078EF28AF
:103FE00011DDDB480078F7280DDA4FF00600DD49D7
:103FF00008704FF00202084601788848FDF7D0F8B3
:10400000FDF734F918E04FF01000D64908704FF072
:104010000402084601788148FDF7C2F8CC480078D0
:10402000FA2807DA4FF03E01CB4800787B4A02EBD2
:1040300000100170FDF7E5FC4FF0000408E0CA49EC
:10404000095D084608F054FB04F1010000B2044683
:10405000B4F5806FF3DB10BDBF48007830B1BE48C7
:104060000078A0F10100BC49087005E0B84800786C
:10407000A0F10100B64908707047B74800780328DE
:1040800006D1B348007800F10100B149087005E09D
:10409000B148007800F10100AF4908707047AE48A0
:1040A0000078012806DDAC480078A0F10100AA499B
:1040B000087005E0A6480078A0F10100A449087046
:1040C000704710B50021642007F019FB002166201D
:1040D00007F015FBC021682007F011FBA8216A201A
:1040E00007F00DFB01216C2007F009FBF9216E2080
:1040F00007F005FBFF21702007F001FBFF21722074
:1041000007F0FDFAFF21742007F0F9FA002176206C
:1041100007F0F5FAC021A42007F0F1FAA821A620A3
:1041200007F0EDFA0121A82007F0E9FAFE21AA2004
:1041300007F0E5FAA121C82007F0E1FAA221CA2080
:1041400007F0DDFA7021CC2007F095FA7521CD201B
:1041500007F091FA6221CE2007F08DFA6C21CF2072
:1041600007F089FA6921D02007F085FA6321D12070
:1041700007F081FA0021D22007F07DFAC021EC205F
:1041800007F0BDFAA821EE2007F0B9FA0121F020CE
:1041900007F0B5FA0221F22007F0B1FAC021F420AD
:1041A00007F0ADFAA821F62007F0A9FA0121F820BE
:1041B00007F0A5FA0421FA2007F0A1FAC021FC209B
:1041C00007F09DFAA821FE2007F099FA01210802C4
:1041D00007F095FA06214FF4817007F090FAC0219C
:1041E0004FF4827007F08BFAA8214FF4837007F028
:1041F00086FA01214FF4847007F081FA08214FF408
:10420000857007F07CFAC0214FF4867007F077FACA
:10421000A8214FF4877007F072FAA7E01E0A001079
:1042200036E007202055E2FBF50A20252D754200D7
:1042300038E00720000020412049E2FBF50A252E46
:104240003166C0003CE007202050E2FBF50A252D36
:104250006442F20012E0072055F1E5F2E80A252D4C
:10426000754200002EE007202055E1E0F20A252DDE
:10427000752E252D7542000030E007202049E1E031
:10428000F20A252E316641000000C8422049E1E0D3
:10429000F20A252E326641003AE0072020207425DC
:1042A000630A20252D642563430000005C00001094
:1042B000C2E2E5E4E8F2E520EFE0F0EEEBFC3A0ADA
:1042C00020202020202025303375200A2020202087
:1042D000202020202A0A0000C2E2E5E4E8F2E520DE
:1042E000EFE0F0EEEBFC3A0A2020202020202530E1
:1042F0003375200A202020202020202A0A000000D8
:10430000C2E2E5E4E8F2E520EFE0F0EEEBFC3A0A89
:1043100020202020202025303375200A2020202036
:1043200020202A0A000000000A2020202020CFE0C0
:10433000F0EEEBFC0A20202020EDE520E2E5F0E5A0
:10434000ED210A00600000105E0000103E00001029
:104350003D00001041000010400000103F00001020
:1043600042000010210100101E06001001214FF430
:10437000887007F0C4F909214FF4897007F0BFF97C
:1043800000214FF4E17007F0BAF91E214FF4E270FA
:1043900007F0B5F903214FF4E37007F0B0F94FF0DF
:1043A000030004460BE04FF4E17101EB44010846C1
:1043B0002D2107F0A4F904F10100C0B204460B2C32
:1043C000F1DB10BD1FB5F8480078F84909780844BA
:1043D000322801F0238435DC83F0D682DFE810F048
:1043E00080008E00A700C000D900F2000B0124015C
:1043F0005B010217021702170217021702170217B2
:104400000217021702170217021778019F01FA011B
:1044100049029802C902FA02310302170217500337
:10442000AB034804AF0416057D05E4057E06C5060A
:10443000220741077B07BE07EA0733094D09870AB0
:10444000A10ABF0B492802F0A3851BDCA0F13300B1
:104450001628C1D2DFE810F05D0C770CA10DBB0D62
:10446000F00E0A0F2810421081119B11DE12F81273
:104470001E14C616C616C61642146C14C616B914F7
:10448000F2144715522802F0B9870DDCA0F14A005A
:104490000828A1D2DFE810F0C11506164B16A716A2
:1044A000EC16311776179617572803F074800DDC39
:1044B000532802F0CC87542802F0F287552803F0E5
:1044C0001880562843F0608203F03CB8FA2803F0C5
:1044D0009880FB2803F02581FC28F3D103F0C2B9B2
:1044E000B3480088022807D1B148008800F10100D4
:1044F000AF490880FFF7C1FD03F046BAAD48008818
:10450000022807D1AB48008800F10100A9490880C2
:10451000FFF7A2FDA6480088022807D1A44800881A
:1045200000F10100A2490880FFF7A7FDE4E7A148D8
:104530000088022807D19F48008800F101009D49AA
:104540000880FFF789FD9A480088022807D198481B
:10455000008800F1010096490880FFF78EFDCBE747
:1045600094480088022807D19248008800F1010091
:1045700090490880FFF770FD8D480088022807D118
:104580008B48008800F1010089490880FFF775FD1C
:10459000B2E788480088022807D18648008800F1E1
:1045A000010084490880FFF757FD814800880228F0
:1045B00007D17F48008800F101007D490880FFF79E
:1045C0005CFD99E77B480088022807D1794800887C
:1045D00000F1010077490880FFF73EFD744800882C
:1045E000022807D17248008800F101007049088054
:1045F000FFF743FD80E76F480088022807D16D4828
:10460000008800F101006B490880FFF725FD68482C
:104610000088022807D16648008800F1010064493B
:104620000880FFF72AFD67E762480088022807D163
:104630006048008800F101005E490880FFF70CFD2A
:104640005B480088022807D15948008800F1010022
:1046500057490880FFF711FD57480088022819D1F3
:104660005548008800F10100534908804E48007801
:10467000524908704D480078514908704FF0FC00CD
:10468000494908704FF00000484908704FF0B800E1
:104690004C49088030E747480088022807D1454840
:1046A000008800F1010043490880FFF7D5FC42482B
:1046B000008802280BD14048008800F101003E49E3
:1046C00008804FF00000384908703849087013E737
:1046D00037480088022807D13548008800F10100DA
:1046E00033490880FFF7C9FC33480088022815D1F8
:1046F0003148008800F101002F4908802A480078DD
:104700003149087029480078304908704FF000009E
:10471000264908704FF0460023490870ECE625480A
:104720000088022810D12348008800F101002149A7
:1047300008801D480078152804D14FF014001A494C
:10474000087001E0FFF7ABFC19480088022807D188
:104750001748008800F1010015490880FFF78DFC1B
:104760001548008802281DD11348008800F1010077
:10477000114908800C480078134908700B480078EC
:10478000124908704FF0010008490870104800886D
:1047900020B14FF028000449087003E04FF04200B8
:1047A00001490870A8E600003D000010400000101C
:1047B0005200001054000010560000103E0000107F
:1047C000410000105E0000103F0000104200001089
:1047D000A8000010FF480088022807D1FD48008883
:1047E00000F10100FB490880FFF759FCFA480088F6
:1047F000022807D1F848008800F10100F649088036
:10480000FFF73BFCF5480088022803D0F3480088F6
:104810001E2812D14FF00300F04908804FF000002D
:104820004FF09403CDE9003002904FF0EE024FF0CC
:104830001B010390084607F09FF8E948008802280A
:1048400003D0E74800881E2812D14FF00300E44946
:1048500008804FF000004FF09203CDE90030029045
:104860004FF0EE024FF01B010390084607F084F86A
:1048700042E6D8480088022807D1D648008800F1CF
:104880000100D4490880FFF70AFCD34800880228B9
:1048900007D1D148008800F10100CF490880FFF717
:1048A000ECFBCE480088022803D0CC4800881E28A4
:1048B00012D14FF00300C94908804FF000004FF0BB
:1048C0008403CDE9003002904FF0EE024FF01B015F
:1048D0000390084607F050F8C1480088022803D02A
:1048E000BF4800881E2812D14FF00300BC49088041
:1048F0004FF000004FF08203CDE9003002904FF0FE
:10490000EE024FF01B010390084607F035F8F3E57F
:10491000B0480088022807D1AE48008800F10100A5
:10492000AC490880FFF7BBFBAB480088022807D1E1
:10493000A948008800F10100A7490880FFF79DFB06
:10494000A8480088022813D14FF00300A34908802B
:10495000A5480078A5490870A5480078A5490870C1
:104960004FF05000A04908704FF00000A0490870B7
:10497000C2E598480088022807D19648008800F1CF
:10498000010094490880FFF78AFB934800880228B9
:1049900007D19148008800F101008F490880FFF796
:1049A0006CFB90480088022813D14FF003008B491C
:1049B00008808D4800788D4908708D4800788D49B1
:1049C00008704FF05A00884908704FF0000088497D
:1049D000087091E57F480088022807D17D4800884B
:1049E00000F101007B490880FFF759FB7A480088F5
:1049F000022807D17848008800F101007649088034
:104A0000FFF73BFB77480088022819D175480088DA
:104A100000F10100734908807348007873490870F9
:104A200073480078734908704FF0FC006E490870B5
:104A30004FF000006E49087040F269306E490880FE
:104A40005AE564480088022807D16248008800F1CE
:104A5000010060490880FFF722FB624800880228B5
:104A60000DD16048008800F101005E49088063486C
:104A700000785D490870624800785D4908703BE540
:104A800055480088022807D15348008800F10100EA
:104A900051490880FFF7F1FA50480088022803D0F6
:104AA0004E48008805281ED14FF003004B4908806E
:104AB00054480078FF280BD100200523CDE90030B1
:104AC0000290EE221B210390084606F055FF0AE0F3
:104AD00000200423CDE900300290EE221B21039038
:104AE000084606F049FF3E480088022803D03C48AB
:104AF000008805281ED14FF003003949088042483C
:104B00000078FF280BD100200323CDE9003002906C
:104B1000EE221B210390084606F02EFF0AE000203B
:104B20000223CDE900300290EE221B2103900846BB
:104B300006F022FFE0E427480088022807D1254834
:104B4000008800F1010023490880FFF7A8FA2248F5
:104B50000088022807D12048008800F101001E4982
:104B60000880FFF78AFA1D480088022803D01B48F6
:104B7000008805281ED14FF00300184908802148FD
:104B80000078FF280BD100202523CDE900300290CA
:104B9000EE221B210390084606F0EEFE0AE00020FC
:104BA0002423CDE900300290EE221B210390084619
:104BB00006F0E2FE0A480088022803D00848008870
:104BC00005283BD14FF00300054908800E480078C6
:104BD000FF281BE05400001052000010500000108D
:104BE0004E000010560000103D0000103F00001065
:104BF00040000010420000105E0000103E00001057
:104C00004100001049000010480000100BD10020A6
:104C10002323CDE900300290EE221B2103900846A9
:104C200006F0AAFE0AE000202223CDE9003002901F
:104C3000EE221B210390084606F09EFEFF480088E6
:104C4000022814D1FD48008800F10100FB490880CA
:104C50004FF000004FF02103CDE9003002904FF0FB
:104C6000EE024FF01B010390084606F085FE43E478
:104C7000F3480088022807D1F148008800F10100BC
:104C8000EF490880FFF70BFAEE480088022807D1A9
:104C9000EC48008800F10100EA490880FFF7EDF9CF
:104CA000E9480088022803D0E748008805281ED17B
:104CB0004FF00300E4490880E4480078FF280BD156
:104CC00000206523CDE900300290EE221B210390E5
:104CD000084606F051FE0AE000206423CDE90030CA
:104CE0000290EE221B210390084606F045FED848AC
:104CF0000088022803D0D648008805281ED14FF02E
:104D00000300D3490880D3480078FF280BD1002046
:104D10006323CDE900300290EE221B210390084668
:104D200006F02AFE0AE000206223CDE9003002905E
:104D3000EE221B210390084606F01EFE0FE4C04839
:104D40000088022807D1BE48008800F10100BC4954
:104D50000880FFF7A4F9BB480088022807D1B948AA
:104D6000008800F10100B7490880FFF786F9B648CE
:104D70000088022803D0B448008805281ED14FF0CF
:104D80000300B1490880B1480078FF280BD100200A
:104D90005523CDE900300290EE221B2103900846F6
:104DA00006F0EAFD0AE000205423CDE9003002902D
:104DB000EE221B210390084606F0DEFDA448008881
:104DC000022803D0A248008805281ED14FF0030016
:104DD0009F4908809F480078FF280BD1002053236B
:104DE000CDE900300290EE221B210390084606F028
:104DF000C3FD0AE000205223CDE900300290EE22EC
:104E00001B210390084606F0B7FD0CE48C4800888F
:104E1000022807D18A48008800F1010088490880EB
:104E2000FFF73DF987480088022807D185480088A8
:104E300000F1010083490880FFF71FF982480088CC
:104E4000022803D08048008805281ED14FF00300B7
:104E50007D4908807D480078FF280BD1002035234C
:104E6000CDE900300290EE221B210390084606F0A7
:104E700083FD0AE000203423CDE900300290EE22C9
:104E80001B210390084606F077FD71480088022830
:104E900003D06F48008805281ED14FF003006C49ED
:104EA00008806C480078FF280BD100203323CDE91F
:104EB00000300290EE221B210390084606F05CFDB4
:104EC0000AE000203223CDE900300290EE221B21BF
:104ED0000390084606F050FD20E459480088022857
:104EE00007D15748008800F1010055490880FFF7B5
:104EF000D6F854480088022807D15248008800F1AB
:104F0000010050490880FFF7B8F84F480088022890
:104F100003D04D48008805281ED14FF003004A49B0
:104F200008804A480078FF280BD100207523CDE97E
:104F300000300290EE221B210390084606F01CFD73
:104F40000AE000207423CDE900300290EE221B21FC
:104F50000390084606F010FD3D480088022803D063
:104F60003B48008805281ED14FF0030038490880CF
:104F700038480078FF280BD100207323CDE900309A
:104F80000290EE221B210390084606F0F5FC0AE091
:104F900000207223CDE900300290EE221B21039005
:104FA000084606F0E9FC63E425480088022807D19A
:104FB0002348008800F1010021490880FFF76FF8BD
:104FC00020480088022807D11E48008800F101000F
:104FD0001C490880FFF751F81B480088022803D0BD
:104FE000194800880F2827D14FF00500164908807E
:104FF000164800784FF00A0190FBF1F000F1010033
:105000001549B1F9001088420EDA104800784FF0C7
:105010000A0190FBF1F000F101000F490988A1EBB2
:10502000000000B20C4908800B48B0F900000146AE
:105030000390162006F063FB05480FE056000010B1
:1050400054000010520000105000001049000010E1
:105050004E000010480000109E000010008802283A
:1050600003D0FA4800880F2820D14FF00500F749F7
:105070000880F748B0F9000044F6206188420DDA54
:10508000F44800784FF00A0190FBF1F000F10100C4
:10509000EF490988084400B2ED490880EC48B0F9AE
:1050A000000001460390162006F029FBEA4800881C
:1050B000022812D1E848008800F10100E649088082
:1050C000E6484088E64908800846B0F900000146F5
:1050D00003904FF0140006F012FB18E4E14800883A
:1050E000022807D1DF48008800F10100DD4908806F
:1050F000FEF7D5FFDC480088022807D1DA4800888F
:1051000000F10100D8490880FEF7B7FFD7480088B2
:10511000022812D14FF00500D4490880D448007805
:1051200000280ADD0020D423CDE900300290EE22D1
:105130001B210390084606F01FFCC4480088022883
:1051400012D14FF00500C1490880C94800780328F2
:105150000ADA0020D223CDE900300290EE221B2192
:105160000390084606F008FC33E4BE480088022895
:1051700007D1BC48008800F10100BA490880FEF759
:105180008EFFB9480088022807D1B748008800F18F
:105190000100B5490880FEF770FFB4480088022876
:1051A0001DD14FF00500B1490880B248007858B9C8
:1051B0000020E223CDE900300290EE221B21039073
:1051C000084606F0D9FB0AE00020E423CDE90030D0
:1051D0000290EE221B210390084606F0CDFB9B486F
:1051E000008802281DD14FF0050098490880A14889
:1051F000007858B90020E223CDE900300290EE2279
:105200001B210390084606F0B7FB0AE00020E423C8
:10521000CDE900300290EE221B210390084606F0F3
:10522000ABFB0DE48F480088022807D18D48008829
:1052300000F101008B490880FEF731FF86480088A5
:1052400002280DD18448008800F1010082490880BD
:105250008948007889490870894800788949087028
:105260000DE4824800881E280DDD784800881E283D
:1052700009DD8548007830B9FEF723FF4FF00100C3
:105280008149087026E074480088022816D17248C7
:10529000008800F10100704908807C480088C8B18E
:1052A0004FF000007949088001464FF0640006F095
:1052B00026FA4FF04200714908700BE06A480088F6
:1052C000022807D16848008800F10100664908807B
:1052D000FEF7D3FE2EE4654800881E280DDD5B48EE
:1052E00000881E2809DD6848007830B9FEF7E9FE1D
:1052F0004FF00100644908702FE0574800880228E9
:1053000012D16348008820B14FF000006049088046
:1053100003E04FF001005E4908805D48B0F90010DD
:10532000662006F0ECF918E04E480088022808D103
:105330004C48008800F101004A490880FEF7AFFEA2
:105340000BE049480088022807D14748008800F14F
:10535000010045490880FEF790FE88E44348008834
:105360001E280DDD394800881E2809DD46480078D2
:1053700030B9FEF7A6FE4FF001004349087018E06F
:1053800038480088022808D13648008800F101001A
:1053900034490880FEF783FE0BE03348008802287A
:1053A00007D13148008800F101002F490880FEF73D
:1053B00064FE5CE42B48008802280CD12948008850
:1053C00000F1010027490880FEF769FE4FF0000058
:1053D0003049087036E12448008802280CD1224860
:1053E000008800F1010020490880FEF746FE4FF0DA
:1053F00000002849087025E1174800880A280DD1C7
:105400002448007800F1010022490870084600781D
:10541000032802DD4FF00000087013E113480088F4
:10542000022803D01148008832287AD14FF01E009C
:105430000E4908801748007838B91748008868BBBB
:105440004FF0FF001449088030E036E04E000010B5
:105450009E0000104800001056000010541200106A
:105460009A0000105400001052000010500000106C
:105470006D0000106E0000103F0000103D00001095
:1054800042000010400000105A000010A800001058
:10549000AA00001061000010AC000010FFE7F848FF
:1054A0000088A0F1010000B2F5490880F448B0F985
:1054B0000010682006F023F9C4E0F24800780128C3
:1054C00015D1F148008820B94FF0FF00EE4908805F
:1054D00006E0ED480088A0F1010000B2EA4908802A
:1054E000E948B0F900106A2006F009F9AAE0E54899
:1054F0000078022816D1E548008820B94FF0FF0057
:10550000E249088006E0E1480088A0F1010000B20D
:10551000DE490880DD48B0F900106C2006F0EFF895
:1055200090E019E0D7480078032814D1D8480088C3
:1055300020B94FF0FF00D649088006E0D448008823
:10554000A0F1010000B2D2490880D148B0F90010A2
:105550006E2006F0D4F875E0CE480088022803D00B
:10556000CC48008832286DD14FF01E00C949088010
:10557000C4480078B0B9C2480088FF2804D14FF071
:105580000000BF49088006E0BD48008800F1010026
:1055900000B2BB490880BA48B0F90010682006F094
:1055A000AEF84FE0B7480078012816D1B648008819
:1055B000FF2804D14FF00000B349088006E0B2484C
:1055C000008800F1010000B2AF490880AE48B0F990
:1055D00000106A2006F093F834E0AA480078022808
:1055E00016D1AA480088FF2804D14FF00000A7492F
:1055F000088006E0A548008800F1010000B2A34938
:105600000880A248B0F900106C2006F078F819E084
:105610009C480078032815D19D480088FF2804D1B4
:105620004FF000009A49088006E09948008800F190
:10563000010000B2964908809548B0F900106E202C
:1056400006F05DF848E494480088022808D19248A2
:10565000008800F1010090490880FEF720FD0BE072
:105660008E480088022807D18C48008800F101008C
:105670008A490880FEF701FD2EE487480088022849
:105680000CD18548008800F1010083490880FEF7AD
:1056900006FD4FF000007B49087027E17F48008835
:1056A00002280CD17D48008800F101007B49088068
:1056B000FEF7E3FC4FF000007249087016E17848ED
:1056C00000880A280DD16F48007800F101006D496B
:1056D000087008460078032802DD4FF000000870CB
:1056E00004E170480088022803D06E480088322800
:1056F0006AD14FF01E006B49088062480078A8B953
:105700006948008820B94FF0FF006749088006E02B
:1057100065480088A0F1010000B263490880624832
:10572000B0F90010702005F0EAFFDFE0554800787E
:10573000012815D15D48008820B94FF0FF005B4972
:10574000088006E059480088A0F1010000B25749DE
:1057500008805648B0F90010722005F0D0FFC5E06F
:1057600048480078022815D15148008820B94FF0E8
:10577000FF004F49088006E04D480088A0F1010075
:1057800000B24B4908804A48B0F90010742005F077
:10579000B6FFABE03B480078032814D145480088A9
:1057A00020B94FF0FF004349088006E041480088D7
:1057B000A0F1010000B23F4908803E48B0F9001056
:1057C000762005F09CFF91E032480088022803D043
:1057D0003048008832281CD14FF01E002D49088027
:1057E00028480078B0B930480088FF2804D14FF02D
:1057F00000002D49088006E02B48008800F10100D8
:1058000000B2294908802848B0F90010702005F03E
:1058100076FF6BE01B480078012816D123480088EA
:10582000FF2804D14FF000002049088006E01F48FF
:10583000008800F1010000B21C4908801B48B0F943
:105840000010722005F05BFF50E00E48007802283F
:1058500032D117480088FF2804D14FF000001449C6
:10586000088006E01248008800F1010000B21049EB
:1058700008800F48B0F90010742005F040FF35E0B3
:10588000AC00001061000010AE000010B00000106D
:10589000B20000104E000010540000105200001022
:1058A0005600001050000010B4000010B6000010A8
:1058B000B8000010BA000010FF480078032815D186
:1058C000FE480088FF2804D14FF00000FB49088003
:1058D00006E0FA48008800F1010000B2F7490880AC
:1058E000F648B0F90010762005F009FF3CE4F448D2
:1058F0000088022808D1F248008800F10100F04930
:105900000880FEF7CCFB0BE0EE480088022807D1A8
:10591000EC48008800F10100EA490880FEF7ADFB81
:1059200022E4E748008802280CD1E548008800F10D
:105930000100E3490880FEF7B2FB4FF00000DE49AA
:1059400008700BE1DF48008802280CD1DD48008890
:1059500000F10100DB490880FEF78FFB4FF00000EB
:10596000D5490870FAE0D84800880A280DD1D248F5
:10597000007800F10100D04908700846007803283B
:1059800002DD4FF000000870E8E0D04800880228EF
:1059900003D0CE48008832286AD14FF01E00CB4990
:1059A0000880C5480078A8B9C948008820B94FF0D8
:1059B000FF00C749088006E0C5480088A0F1010043
:1059C00000B2C3490880C248B0F90010A42005F015
:1059D00096FEC3E0B8480078012815D1BD4800887C
:1059E00020B94FF0FF00BB49088006E0B9480088A5
:1059F000A0F1010000B2B7490880B648B0F9001024
:105A0000A62005F07CFEA9E0AB480078022815D15D
:105A1000B148008820B94FF0FF00AF49088006E088
:105A2000AD480088A0F1010000B2AB490880AA4847
:105A3000B0F90010A82005F062FE8FE09E480078C3
:105A4000032814D1A548008820B94FF0FF00A349CE
:105A5000088006E0A1480088A0F1010000B29F493B
:105A600008809E48B0F90010AA2005F048FE75E0B5
:105A70009B480088022803D09948008832286DD1BD
:105A80004FF01E00964908808B480078B0B99048C6
:105A90000088FF2804D14FF000008D49088006E0FF
:105AA0008B48008800F1010000B2894908808848CD
:105AB000B0F90010A42005F022FE4FE07E480078E7
:105AC000012816D183480088FF2804D14FF0000038
:105AD0008049088006E07F48008800F1010000B29C
