:020000040000FA
:10000000C8420010E1000000E5000000E700000029
:10001000E9000000EB000000ED000000000000001F
:10002000000000000000000000000000EF000000E1
:10003000F100000000000000F30000002D090000A6
:10004000F7000000F7000000F7000000F7000000D4
:10005000F7000000F7000000F7000000F7000000C4
:10006000F7000000F7000000F7000000F7000000B4
:10007000F7000000F7000000F7000000F7000000A4
:10008000F7000000F7000000F7000000F700000094
:10009000F7000000F7000000ED080000F700000086
:1000A000F700000085A30000F7000000F700000043
:1000B00013B00000F7000000F7000000F700000098
:1000C000F7000000F7000000F7000000DFF80CD098
:1000D00000F002F9004800472B5E0000C842001003
:1000E00005480047FEE7FEE7FEE7FEE7FEE7FEE71E
:1000F000FEE7FEE7FEE7FEE7CD00000006280AD295
:10010000DFE800F003040506070804E003E002E06E
:1001100001E000E000BF00BF00BFFEE710B50CF03B
:10012000F1FB0CF04DFC0CF03FFCAFF30080BDE8A0
:1001300010400CF00BBC10B50DF0CCF90DF080FDAB
:10014000BDE810400DF01EBA0DF032B90CF0FABE49
:1001500009B1002070470CF0FDBA00207047000084
:1001600030B5104C2478A0420ED10F4CB4F90040A9
:10017000A14209D10D4CB4F90040A24204D10C4C6B
:10018000B4F90040A3420BD0064C2070064C2180ED
:10019000064C2280064C23804FF00104054D2C7044
:1001A00030BD0000690100106C0100106E010010EC
:1001B000700100106801001040EA01039B0703D0A2
:1001C00009E008C9121F08C0042AFAD203E011F896
:1001D000013B00F8013B521EF9D270470146002056
:1001E00000E0401C0A5C002AFBD1704780EA010253
:1001F00002F0004330B430F0004221F0004015D04E
:10020000A0B1C0F3C755C2F3C754C2F31601C0F37F
:100210001600651B41F4000140F400007D35814269
:1002200001D36D1C00E04900002D02DA30BC002033
:1002300070474FF400020024814201D3091A14438D
:1002400052084FEA4101F7D151B1814202D14FF03A
:10025000004105E002D24FF0010101E06FF0010121
:1002600004EBC55030BC18440AF080BFC10F80EACF
:10027000E0700844CA07962300210AF080BF00F00E
:10028000004230F000400DD0C10D01F5607142EA2E
:1002900001510022C0F31600520742EAD002400783
:1002A0001143704700200146704730B50B460146A8
:1002B00000202022012409E021FA02F59D4205D305
:1002C00003FA02F5491B04FA02F52844151EA2F1AF
:1002D0000102F1DC30BD0000064C074D06E0E0688D
:1002E00040F0010394E8070098471034AC42F6D37D
:1002F000FFF7F0FED0F7000010F80000FFFFFFFF4F
:100300004FF020008749086000BF8648006810F061
:10031000400FFAD04FF00300834908604FF40030DB
:100320008249C1F8A8014FF00000814908604FF0F0
:100330000100804908608048804908604FF0010052
:10034000A1F1040108604FF0AA007D4908604FF058
:1003500055007649C1F88C0000BF7848001D006840
:1003600010F0806FF9D04FF00300764908604FF02D
:10037000AA006E49C1F88C004FF055007049086022
:100380004FF02300704908604FF00100A1F1040113
:1003900008604FF0AA006D4908604FF055000860F2
:1003A00000BF6948001D006810F4806FF9D04FF05D
:1003B0000300674908604FF0AA005C49C1F8AC002F
:1003C0004FF05500614908606248634908604FF08A
:1003D00000005649C1F8C8010846D0F88800C0F3AB
:1003E0000160032868D15348006810F0030006D06C
:1003F000012823D002283FD003285CD100E000BFB1
:1004000056480068C0F30E0000F101004FEA4001B9
:100410004648D0F88800C0F3074000F10100B1FB66
:10042000F0F04F4900FB01F03F490968C9B201F102
:100430000101B0FBF1F04B4908603CE0474800681F
:10044000C0F30E0000F101004FEA40013748D0F838
:100450008800C0F3074000F10100B1FBF0F0424911
:1004600000FB01F030490968C9B201F10101B0FB9C
:10047000F1F03C4908601EE038480068C0F30E0007
:1004800000F101004FEA40012848D0F88800C0F38D
:10049000074000F10100B1FBF0F04FF4FA4100FB1E
:1004A00001F021490968C9B201F10101B0FBF1F085
:1004B0002C49086000BF2FE01E48006810F00300C0
:1004C00006D0012810D0022819D0032823D100E03B
:1004D00000BF15480068C0B200F101002049B1FB1F
:1004E000F0F02049086016E00F480068C0B200F143
:1004F00001001D49B1FBF0F01A4908600BE00A4801
:100500000068C0B200F101004FF4FA41B1FBF0F015
:100510001449086000BF00BF43F23A000349086075
:1005200070470000A0C10F4004C10F4000C00F4041
:10053000ACC10F400CC10F404F00030084C00F40FE
:100540008CC00F4080C00F40A4C00F40ACC00F4013
:10055000A0C00F4048F10041C4C00F4088C00F4008
:1005600000093D00240000108096980000EB8002F6
:10057000114600BFA1F101021100FBD170470146F5
:1005800000BFA1F101021100FBD170474FF0110033
:10059000FF49087270471FB5FE480078401CC0B282
:1005A000FC490870182802DB4FF000000870F94879
:1005B000007807287EDCF7480078C0EBC00000EB2D
:1005C0004000F54901EB800090F83100F1490978CD
:1005D000C1EBC10101EB4101EF4A02EB810191F84E
:1005E0003010EC4A1278C2EBC20202EB4202EA4B34
:1005F00003EB820292F82D20E64B1B78C3EBC3037A
:1006000003EB4303E44C04EB830393F82C30CDE974
:100610000032CDE90210DF480078C0EBC00000EBEB
:100620004000214601EB800090F828000346ED22AF
:10063000D8480178007809F087FBD6480078D74978
:10064000097888427EDAD3480078C0EBC00000EB1E
:100650004000214601EB8000C0780A2835DACD48F9
:100660000078C0EBC00000EB400001EB8000C078D8
:1006700000F10100C7490978C1EBC10101EB41015B
:10068000224602EB8101C870C2480078C0EBC0006E
:1006900000EB4000114601EB8000C0780A2820DB07
:1006A000BC480078C0EBC00000EB400001EB8000CC
:1006B000407800E058E010F0080F12D10122032129
:1006C000B448007807F04BF80BE04FF00A00B1494E
:1006D0000978C1EBC10101EB4101AF4A02EB810195
:1006E000C870AC480078C0EBC00000EB4000AA49DD
:1006F00001EB8000C07803281FDBA6480078C0EB20
:10070000C00000EB400001EB80000079032814DA00
:10071000A0480078C0EBC00000EB400001EB800077
:10072000407900F101009B490978C1EBC10101EB5F
:100730004101994A02EB8101487196480078C0EB6B
:10074000C00000E028E000EB4000934901EB80008E
:10075000C07890490978C1EBC10101EB41018E4A93
:1007600002EB8101087167E08A480078082863D0AD
:100770008848007809285FD0864800780A280CD17C
:1007800000200090019002900346024603908148A9
:100790000178007809F0D8FA4EE07E4800780C28FD
:1007A0004AD07C4800780D2846D07A4800780E2838
:1007B00042D07848007814280CD100200090019095
:1007C000029003460246039072480178007809F0CF
:1007D000BBFA31E06F48007815280CD1002000905A
:1007E000019002900346024603906A48017800781F
:1007F00009F0AAFA20E06748007816280CD10020FA
:1008000000900190029003460246039061480178EF
:10081000007809F099FA0FE05E48007817280BD1AC
:100820000020009001900290034602460390594830
:100830000178007809F088FA1FBD10B5682008F02B
:10084000B2FF574908706A2008F0ADFF544948705C
:100850006C2008F0A8FF524988706E2008F0A3FFB2
:100860004F49C870702008F09EFF4D4908727220F1
:1008700008F099FFC1B24A4841724FF0740008F085
:1008800092FFC1B2464881724FF0760008F08BFFAC
:10089000C1B24348C1724FF0A40008F084FF404940
:1008A0000871A62008F07FFFC1B23D4841714FF0AA
:1008B000A80008F078FFC1B2394881714FF0AA0052
:1008C00008F071FFC1B23648C17110BD10B50DF00E
:1008D000F9FB4FF001003349087010BD01460029B3
:1008E00002DA484200B270470846FCE72E4800682A
:1008F00020F0E0602C49086008464068C0F30B1007
:100900002A492B4A127821F812002948007800F170
:1009100001002749087008460078032805DA2248B4
:10092000006840F080702049086070474FF0010077
:10093000204908702048008800F1010000B21E49DB
:1009400008800A2807D14FF001001C4908704FF0B9
:100950000000194908801A480088401C00B2184954
:100960000880142807D14FF00100164908704FF095
:1009700000001349088014480088401C00B2124946
:100980000880642831D14FF00100104908701FE041
:1009900000400240F0000010380A0010350000103E
:1009A000884000106C000010004003401801001047
:1009B0000F010010650000102800001066000010F4
:1009C0002A000010670000102C00001068000010C2
:1009D0004FF00000FF490880FF48007828B1FF4829
:1009E000406B80F48010FD494863FD480088401C3E
:1009F00000B2FB490880C82807D14FF00100F9492F
:100A000008704FF00000F6490880F7480088401C45
:100A100000B2F5490880B0F5FA7F07D14FF0010028
:100A2000F24908704FF00000EF490880F048008854
:100A3000401C00B2EE490880B0F57A7F07D14FF034
:100A40000100EC4908704FF00000E9490880704748
:100A500010B580B913884FF6FF74A34203DA1388E8
:100A600003F1010313800B78FF2B08DA0B7803F1F5
:100A700001030B7003E04FF0000313800B7010BDF7
:100A800058B90B78012B03DB4FF0FF0313700EE016
:100A90000B7803F101030B7009E00B781BB94FF0E1
:100AA0000003137003E00B78A3F101030B70704790
:100AB00080B9137873B90B78012B03DB4FF0FF0378
:100AC00013700DE00B78012B0ADA0B7803F10103A8
:100AD0000B7005E00B781BB10B78A3F101030B70D1
:100AE000704710B518B1C44B1B78012B13D1137884
:100AF0008BB90B78012B09DB4FF00F0313704FF00C
:100B00000003BD4C2370BD4C237032E00B7803F121
:100B100001030B702DE018B1B84B1B78012B14D1D9
:100B200013781F2B11D10B78012B09DB4FF02F030A
:100B300013704FF00003B14C2370AF4C237018E0DA
:100B40000B7803F101030B7013E00B788BB180B1CC
:100B50000B78A3F101030B7013780F2B03D14FF027
:100B60001F03137005E013782F2B02D14FF0000301
:100B7000137010BD30B591B002464FF0000420460E
:100B800021464FF00104234636E04FEA0314A4F156
:100B90001004E4B2204621E0545C0A2C09D0545CD5
:100BA0003CB1545C0DF8004001F10104E4B221466F
:100BB00010E000BF07E04FF020040DF8004000F106
:100BC0000104E4B220461C018442F4DC01F101047A
:100BD000E4B2214600F10104E4B220461C01844243
:100BE000DADC545C0A2C03D101F10104E4B22146A1
:100BF00003F10104E4B22346052BC6DB4FF00004E9
:100C0000204606E01DF80040145400F10104E4B24F
:100C100020464028F6DB11B030BDF0B54FF000059E
:100C20002A4607E04FF00005754EB55402F1010564
:100C30002DB22A4640F2FF35AA42F3DB4FF0000501
:100C40002A46F5E04FF000052C46EAE04FF010058B
:100C500005FB02456B4E735DBF2B06DDA3F16105FD
:100C600005EB45054FEAC5000BE01F2B06DDA3F1A0
:100C7000200505EB45054FEAC50002E04FF00005F1
:100C800028464FEA02254FF0080606FB04515E4E47
:100C900000F10405775D0D4601F101063146584E1D
:100CA0007755594E00F10605775D0D4601F10106B5
:100CB0003146534E7755544E00F10805775D0D4689
:100CC00001F1010631464E4E77554F4E00F10A05AF
:100CD000775D0D4601F101063146494E77554A4E82
:100CE00000F10C05775D0D4601F101063146444ED9
:100CF0007755454E00F10E05775D0D4601F1010671
:100D000031463F4E7755404E00F11005775D0D4658
:100D100001F1010631463A4E77553B4E00F112057E
:100D2000775D0D4601F101063146354E77554FEAA4
:100D300002254FF0080606FB045505F180052946FB
:100D4000314E00F10505775D0D4601F10106314692
:100D50002B4E77552C4E00F10705775D0D4601F1BE
:100D600001063146264E7755274E00F10905775D7D
:100D70000D4601F101063146214E7755224E00F114
:100D80000B05775D0D4601F1010631461C4E775586
:100D90001D4E00F10D05775D0D4601F1010631464E
:100DA000174E7755184E00F10F05775D0D4601F18E
:100DB00001063146124E7755134E00F11105775D4D
:100DC0000D4601F1010631460D4E77550E4E00F1EC
:100DD00013051BE02C0000106D00001000C009205E
:100DE0002E00001069000010300000106A00001092
:100DF000320000106B0000100C0100100B010010FD
:100E0000F0050010F009001024E30000775D0D46A6
:100E100001F101063146F84E775504F101052DB276
:100E20002C46102CFFF612AF02F101052DB22A4616
:100E3000042AFFF607AFF0BD00B5ADB0EF4800786B
:100E400030287DD033DC81F01C85DFE810F06800AD
:100E50009700BE00E40041018C01C90BC90BC90B0E
:100E6000C90BC90BC90BC90BC90BC90BC90BC90BE2
:100E7000C90BC90BC90BD001E502C90BC90BC90BC2
:100E8000C90BC90BC90BC90BC90BEA0217034503F0
:100E900063038F03BC03F5032504C90BC90B470487
:100EA0006204AB045D06C206F306580790074228A9
:100EB00001F02E8411DCA0F131000C28C3D2DFE850
:100EC00010F09E07D507DB084C097D09E309150AD8
:100ED0007B0AAC0A5F0B900BF60B4B2801F0858464
:100EE0000ADCA0F146000528ADD2DFE810F0160CB0
:100EF000320C450C580C6B0CFB2801F0A08407DC6D
:100F00004C2801F08584FA2841F0BB8401F090BCA4
:100F1000FC2801F09B84FF28F6D101F09EBCB84864
:100F2000B0F900000A2190FBF1F00990B548B0F942
:100F3000000090FBF1F201FB12000890B14800E0C4
:100F4000F5E3B0F900100A2091FBF0F00790AE48ED
:100F5000B0F900100A2091FBF0F00690AB49B1F90E
:100F60000020DDE90810CDE900120290A8A1B548E3
:100F7000DDE906230AF0D2FB01F083BCA048B0F9FA
:100F800000000A2190FBF1F009909E48B0F90000A2
:100F9000642190FBF1F201FB120008909948B0F92E
:100FA000000090FBF1F00790A748B0F90010974AB5
:100FB000B2F900200998CDE900200291A3A1A1482F
:100FC000DDE907230AF0AAFBD6E7AC48B0F9000038
:100FD0000A2190FBF1F201FB12000990A748B0F939
:100FE000000090FBF1F008908548B0F9000090FBFC
:100FF000F1F00790944AB2F90020DDE90810CDE93C
:10100000002102908148B0F900209DA18D48079BE6
:101010000AF084FBB0E7A6480088B0F5167F21DB14
:101020009648B0F900000A2190FBF1F201FB120092
:1010300009909248B0F9000090FBF1F008907048D8
:10104000B0F9000090FBF1F00790DDE90801CDE96F
:1010500000017D48B0F9003096A17A48079A0AF05D
:101060005DFB34E0A048B0F90000FFF7FFF89F49AE
:101070000390FFF7BBF80490FFF701F9CDE90801F1
:101080007E48B0F900000A2190FBF1F201FB12004A
:1010900007907A48B0F900100A2091FBF0F0069012
:1010A0005748B0F900000A2190FBF1F00590DDE906
:1010B0000801CDE90201DDE90601CDE90001624840
:1010C000B0F900308AA15F48059A0AF027FB53E780
:1010D00077480088B0F5167F19DB6848B0F9000042
:1010E0000A2190FBF1F201FB120009906348B0F96C
:1010F000000090FBF1F00890099800905248B0F978
:10110000002087A14F48089B0AF008FB2AE0764898
:10111000B0F90000FFF7AAF874490490FFF766F8E9
:101120000590FFF7ACF8CDE908015448B0F900008C
:101130000A2190FBF1F201FB120007904F48B0F931
:10114000000090FBF1F00690DDE90801CDE9020115
:10115000079800903C48B0F900207EA13948069BD2
:101160000AF0DCFA08E752480088B0F5167F16DB73
:101170004248B0F900000A2190FBF1F201FB120095
:1011800009903E48B0F900100A2091FBF0F0089059
:1011900002467CA12B48099B0AF0C0FA26E052487F
:1011A000B0F90000FFF762F850490490FFF71EF80D
:1011B0000590FFF764F8CDE908013048B0F9000068
:1011C0000A2190FBF1F201FB120007902B48B0F9C5
:1011D000000090FBF1F00690DDE90801CDE9000187
:1011E00074A11848DDE906230AF098FAC4E67DA147
:1011F00014480AF093FABFE6F0050010380000101A
:1012000012E0072038E0072036E007203CE0072006
:101210002055E2FBF53D252D75C20A2049E2FBF57C
:101220003D252D752E25303175C00A2050E2FBF585
:101230003D252D64C2F20A2055F1E5F2E83D252D49
:1012400075C20000F00900103AE007202049E2FBD7
:10125000F53D252D752E25303275C00A2050E2FB54
:10126000F53D252D64C2F20A2055F1E5F2E83D2551
:101270002D75C20A20743D25642743002EE0072007
:101280002050E2FBF53D252D64C2F20A2055F1E520
:10129000F2E83D252D75C20A20743D252D642743B3
:1012A0000A2055E1E0F23D252D752E252D754200D1
:1012B000540000102055F1E5F2E83D252D75C20AD5
:1012C00020743D252D6427430A2055E1E0F23D2599
:1012D0002D752E252D75420A2049E1E0F23DCAC048
:1012E000CBC8C1D02E00000030E007200000C8426B
:1012F0002055F1E5F2E83D252D75C20A20743D2503
:101300002D6427430A2055E1E0F23D252D752E2559
:101310002D75420A2049E1E0F23D252E326641005A
:1013200020743D252D6427430A2055E1E0F23D2538
:101330002D752E252D75420A2049E1E0F23DCAC0E7
:10134000CBC8C1D02E0A20D3D1D2C0CDCEC2CAC8FC
:101350000000000020743D252D6427430A2055E13C
:10136000E0F23D252D752E252D75420A2049E1E03C
:10137000F23D252E3266410A20D3D1D2C0CDCEC255
:10138000CAC800002055E1E0F23D252D752E252D1F
:1013900075420A2049E1E0F23DCAC0CBC8C1D02E57
:1013A0000A20D3D1D2C0CDCEC2CAC80A20C2DBD552
:1013B000CEC400002055E1E0F23D252D752E252DEF
:1013C00075420A2049E1E0F23D252E3266410A20AD
:1013D000D3D1D2C0CDCEC2CAC80A20C2DBD5CEC4BA
:1013E0000000000020202020D3D1D2C0CDCEC2CA20
:1013F000C80A20C2FBE1EEF020E3EB2EECE5EDFEA7
:101400000A20C8EDF2E5F0EDE5F20A20CAE0EBE8CB
:10141000E1F0EEE2EAE00000F4A1FF480AF07EF914
:10142000AAE5FE48B0F90000642190FBF1F201FB4F
:1014300012000990F948B0F9000090FBF1F0089013
:10144000F748B0F900000A2190FBF1F201FB12000D
:101450000790F348B0F900100A2091FBF0F00690D5
:10146000F048B0F90020DDE908018DE80700EEA1A1
:10147000E948DDE906230AF051F97DE5F948B0F9BC
:1014800000000A2190FBF1F201FB12000990F548DF
:10149000B0F900100A2091FBF0F00890DF48B0F995
:1014A0000000642190FBF1F201FB12000790DB4881
:1014B000B0F9000090FBF1F00690DA4AB2F9002092
:1014C000DDE90810CDE900210290E7A1D248DDE96D
:1014D00006230AF023F94FE5E248B0F900000A219B
:1014E00090FBF1F201FB12000990DE48B0F9000018
:1014F00090FBF1F00890EB48B0F900100998CDE9A5
:101500000001C848B0F90020E7A1C348089B0AF0D1
:1015100005F931E5F148B0F900000A2190FBF1F23C
:1015200001FB12000990ED48B0F9000090FBF1F0CA
:101530000890CC48B0F9000090FBF1F201FB1200DA
:101540000790C848B0F9000090FBF1F00690D54A2A
:10155000B2F90020DDE90810CDE900210290E0A1F8
:10156000AD48DDE906230AF0D9F805E5EA48B0F907
:101570000000FEF77BFEE9490490FEF737FE059078
:10158000FEF77DFECDE90801D448B0F900000A213C
:1015900090FBF1F201FB12000790D048B0F9001067
:1015A0000A2091FBF0F00690DDE90801CDE9020187
:1015B00007980090BB48B0F90020D9A19648069B37
:1015C0000AF0ACF8D8E4E348007810B9E2A00E9035
:1015D00008E0E0480078012802D1E1A00E9001E087
:1015E000E1A00E90CC48B0F90000FEF73FFECB49D9
:1015F0000490FEF7FBFD0590FEF741FECDE90801E2
:10160000B648B0F900000A2190FBF1F201FB12008C
:101610000790B248B0F9000090FBF1F006900E98E8
:101620000290DDE90801CDE90001D0A17A48DDE9A9
:1016300006230AF073F89FE4C648007810B9C6A0E4
:101640000E9008E0C3480078012802D1C4A00E9093
:1016500001E0C5A00E90BF48007810B9BEA00F9061
:1016600001E0C1A00F90AC48B0F90000FEF7FEFD0C
:10167000AA490690FEF7BAFD0790FEF700FECDE9F5
:101680000801DDE90E01CDE90001C6A16248DDE9EE
:1016900008230AF043F86FE4AE48007810B9AEA012
:1016A0000E9008E0AB480078012802D1ACA00E9063
:1016B00001E0ADA00E90A748007810B9A6A00F9049
:1016C00001E0A9A00F900F9809900E98089002468B
:1016D000C2A15148099B0AF021F84DE4CB4800888B
:1016E00010B1A1A00E9001E09BA00E90C848008808
:1016F00010B19DA00F9001E097A00F900F98099056
:101700000E9808900246C3A14348099B0AF006F8C8
:1017100032E4BE48008810B1CBA00E9001E08EA04C
:101720000E90BB48008818B1C7A00F9002E05BE3A1
:1017300089A00F90C648B0F90010C648B0F9000063
:10174000C54AB2F90020CDE9002002910F98099016
:10175000C248B0F90030C2A12F48099A09F0DEFF53
:10176000CE480078E8B1CE480078032819D14FF070
:101770002001CC4800784FF0290202EB8000264A75
:101780001154C84800784FF02A0202EB8000224A28
:101790001154C44800784FF02B0202EB80001E4A1F
:1017A000115411E4AA48B0F90000AA49B1F9001097
:1017B000CDE90010A848B0F90030A848B0F90020E1
:1017C000B9A1154809F0AAFFB448007868B1B44837
:1017D0000078022809D14FF02001B24800784FF07C
:1017E000180202EB80000C4A7CE18CE120202020D2
:1017F000D3D1D2C0CDCEC2CAC80A20C8EDF2E5F01E
:10180000EDE5F20A20CAE0EBE8E1F0EEE2EAE00AF8
:1018100020C2DBD5CEC40000F009001038E007205C
:1018200036E007203CE00720202020CAC0CBC8C1FA
:10183000D0CEC2CAC00A2055E2FBF53D252D752E3B
:1018400025303175C20A2049E2FBF53D252D752E64
:1018500025303275C00A2050E2FBF53D252D64C2CB
:10186000F200000012E00720202020CAC0CBC8C12F
:10187000D0CEC2CAC00A2049E2FBF53D252D752E07
:1018800025303275C00A2050E2FBF53D252D64C29B
:10189000F20A2055F1E5F2E83D252D752E2530316F
:1018A00075C200003AE00720202020CAC0CBC8C182
:1018B000D0CEC2CAC00A2050E2FBF53D252D64C23D
:1018C000F20A2055F1E5F2E83D252D752E2530313F
:1018D00075C20A20743D2564274300002EE00720CE
:1018E000202020CAC0CBC8C1D0CEC2CAC00A205551
:1018F000F1E5F2E83D252D752E25303175C20A201F
:10190000743D256427430A2055E1E0F23D252D75FD
:101910002E252D754200000030E007200000C8424F
:10192000202020CAC0CBC8C1D0CEC2CAC00A2074F1
:101930003D256427430A2055E1E0F23D252D752E13
:10194000252D75420A2049E1E0F23D252E326641FF
:101950000000000063000010C2DBCACB00000000E2
:10196000C0CCCFCB00000000C2CACB00202020CAD0
:10197000C0CBC8C1D0CEC2CAC00A2055E1E0F23DFA
:10198000252D752E252D75420A2049E1E0F23D25D1
:101990002E3266410A20CAEEEDF2F02EF1E5F2E8B1
:1019A00020257300202020CAC0CBC8C1D0CEC2CA17
:1019B000C00A2049E1E0F23D252E3266410A20CAE4
:1019C000EEEDF2F02EF1E5F2E82025730A20D3EFD8
:1019D000F02ED8C8CC20257300000000202020CA9B
:1019E000C0CBC8C1D0CEC2CAC00A20CAEEEDF2F048
:1019F0002EF1E5F2E82025730A20D3EFF02ED8C8A7
:101A0000CC2025730A20C2DBD5CEC4009000001084
:101A10009200001020202045544845524E45543A2B
:101A20000A2045746865726E65742025730A204427
:101A3000484350EAEBE8E5EDF22025730A204950CF
:101A4000E0E4F0E5F13A0000C2CACB20000000005B
:101A50009A000010980000109600001094000010EA
:101A600020202045544845524E45543A0A204448C7
:101A70004350EAEBE8E5EDF22025730A204950E0F7
:101A8000E4F0E5F13A0A20253033752E2530337520
:101A90002E253033752E2530337500005700001089
:101AA0003B0000105D0000102020204554484552A6
:101AB0004E45543A0A204950E0E4F0E5F13A0A2054
:101AC000253033752E253033752E253033752E2570
:101AD0003033750A20CCE0F1EAE020EFEEE4F1E5E6
:101AE000F2E83A001154FB4800784FF0190202EB7B
:101AF0008000F94A1154F74800784FF01A0202EBBF
:101B00008000F54A11548BE4F448B0F90000F44920
:101B1000B1F90010F34AB2F90020F34BB3F90030E9
:101B2000CDE90232CDE90410F048B0F90000F049E7
:101B3000B1F90010CDE90010EE48B0F90030EE48E0
:101B4000B0F90020ED49E44809F0E8FDEC480078E0
:101B5000E8B1EC480078032819D14FF02001DD48A6
:101B600000784FF02F0202EB8000DB4A1154D94875
:101B700000784FF0300202EB8000D74A1154D5486C
:101B800000784FF0310202EB8000D34A1154DC4858
:101B90000078E8B1DB480078012819D14FF0200126
:101BA000CC4800784FF00E0202EB8000CA4A115474
:101BB000C84800784FF00F0202EB8000C64A11546B
:101BC000C44800784FF0100202EB8000C24A115462
:101BD00026E4C248B0F90000C149B1F90010CDE9CE
:101BE0000010C048B0F90030BF48B0F90020C6A1CD
:101BF000B94809F093FDC2480078D0B1C1480078D7
:101C0000022816D14FF02001B24800784FF01E0292
:101C100002EB8000B04A1154AE4800784FF01F022A
:101C200002EB8000AC4A1154AA48007801EB800016
:101C3000115422E4C348B0F90010C348B0F90000C1
:101C4000C24AB2F90020C24BB3F90030CDE90232EA
:101C5000CDE90401A148B0F90000A149B1F9001093
:101C6000CDE900109F48B0F900309F48B0F900203E
:101C7000B8A1994809F052FDA1480078E8B1A148FF
:101C80000078012819D14FF02001924800784FF0D8
:101C90000E0202EB8000904A11548E4800784FF0FB
:101CA0000F0202EB80008C4A11548A4800784FF0F2
:101CB000100202EB8000884A115491480078E8B184
:101CC00090480078032819D14FF02001814800780E
:101CD0004FF0260202EB80007F4A11547D480078C5
:101CE0004FF0270202EB80007B4A115479480078BC
:101CF0004FF0280202EB8000774A115409E4A5480E
:101D0000B0F900108F48B0F900008F4AB2F90020F6
:101D1000CDE9002002918D48B0F900308C48B0F92F
:101D200000209DA16C4809F0F9FC75480078E8B1E5
:101D300074480078022819D14FF0200165480078D6
:101D40004FF0150202EB8000634A1154614800789D
:101D50004FF0160202EB80005F4A11545D48007894
:101D60004FF0170202EB80005B4A11542AE49948B5
:101D7000B0F900008749B1F90010724AB2F90020A9
:101D8000714BB3F90030CDE90032CDE902106F4854
:101D9000B0F900306E48B0F90020584948314E483B
:101DA00009F0BCFC56480078E8B156480078012894
:101DB00019D14FF02001474800784FF00E0202EB96
:101DC0008000454A1154434800784FF00F0202EB5F
:101DD0008000414A11543F4800784FF0100202EB56
:101DE00080003D4A115426E47A48B0F90030694831
:101DF000B0F9002078A1384809F090FC1BE44FF0BE
:101E000000000A9009E083490A98095C0BAA115462
:101E10000A9800F10100C0B20A900A980A28F2DB81
:101E200037480078C8B137480078032815D14FF0FB
:101E30005F000BA9274A127888547648FEF7CEF93E
:101E400024490978884208D10BA8FEF7C7F900F1A8
:101E500001000BA94FF00A020A540BAB5D48B0F920
:101E600000206DA11C4809F059FC14E44FF000005B
:101E70000A9009E067490A98095C0BAA11540A986C
:101E800000F10100C0B20A900A980A28F2DB1C484F
:101E90000078C8B11B480078022815D14FF05F00C8
:101EA0000BA90C4A127888545A48FEF797F9094949
:101EB0000978884208D10BA8FEF790F900F10100DB
:101EC0000BA94FF00A020A540BAA5FA1024809F0BD
:101ED00025FC1DE45D000010F0090010A2000010B8
:101EE000A00000109E0000109C0000109A0000103E
:101EF00098000010960000109400001040F20000BE
:101F0000570000103B000010202020455448455247
:101F10004E45543A0A20CCE0F1EAE020EFEEE4F13D
:101F2000E5F2E83A0A20253033752E253033752E38
:101F3000253033752E253033750A20D8EBFEE73A6D
:101F400000000000AA000010A8000010A600001069
:101F5000A400001020202045544845524E45543AD4
:101F60000A20253033752E253033752E25303375F4
:101F70002E253033750A20D8EBFEE73A0A202530AB
:101F800033752E253033752E253033752E2530339D
:101F900075000000B0000010202020455448455234
:101FA0004E45543A0A20D8EBFEE73A0A2025303352
:101FB000752E253033752E253033752E253033752B
:101FC0000A20CFEEF0F22EF7F2E5EDE8FF20252D06
:101FD00075000000B20000102020204554484552F2
:101FE0004E45543A0A20CFEEF0F220F7F2E5EDE844
:101FF000FF20252D750A20CFEEF0F220E7E0EFE874
:10200000F1E820252D750A20436F6D6D756E69749A
:10201000793A00001A00001020202045544845520B
:102020004E45543A0A20CFEEF0F220E7E0EFE8F117
:10203000E820252D750A20436F6D6D756E697479E2
:102040003A0A2025730000002020204554484552BC
:102050004E45543A0A20436F6D6D756E6974793A36
:102060000A2025730A20C0E4F0E5F1E0F220545282
:102070004150204E310000004FF000000A9009E06E
:10208000FF490A98095C0BAA11540A9800F1010053
:10209000C0B20A900A980A28F2DBFA480078C8B160
:1020A000F9480078012815D14FF05F000BA9F74AD5
:1020B00012788854F248FEF791F8F449097888427A
:1020C00008D10BA8FEF78AF800F101000BA94FF028
:1020D0000A020A54EE48B0F90010EE48B0F90000C8
:1020E000ED4AB2F90020CDE900200291EB48B0F9A9
:1020F00000300BAAEAA1F84809F010FBE14800788B
:1021000050B3E1480078032826D10BA8FEF766F803
:1021100000F12100DD49097800EB8100EE494FF024
:1021200020020A540BA8FEF759F800F12200D74903
:10213000097800EB8100E8494FF020020A540BA80F
:10214000FEF74CF800F12300D049097800EB81003C
:10215000E1494FF020020A5493E3CD48B0F9000062
:10216000CC49B1F90010CDE90010CB48B0F90030EE
:10217000CA48B0F90020D949D74809F0CFFAC14878
:102180000078D0B1C0480078022816D14FF0200165
:10219000BE4800784FF01F0202EB8000CE4A115477
:1021A000BA48007801EB80001154B84800784FF02D
:1021B000210202EB8000C84A115462E3C848B0F91A
:1021C0000010C848B0F90020C748B0F90000C74B5C
:1021D000B3F90030CDE90230CDE90421AC48B0F9C3
:1021E0000000AC49B1F90010CDE90010AA48B0F9DF
:1021F0000030AA48B0F90020B8494431B64809F087
:102200008DFAA0480078E8B19F480078012819D1DC
:102210004FF020019D4800784FF00E0202EB800045
:10222000AD4A1154994800784FF00F0202EB80003C
:10223000A94A1154954800784FF0100202EB800033
:10224000A54A11548F480078E8B18F4800780328D8
:1022500019D14FF020018D4800784FF0300202EB89
:1022600080009D4A1154894800784FF0310202EBFA
:102270008000994A1154854800784FF0320202EBF1
:102280008000954A1154FCE29548B0F90000954948
:10229000B1F90010CDE900109348B0F9003093482F
:1022A000B0F900208D498C318B4809F037FA754818
:1022B0000078D0B174480078022816D14FF0200180
:1022C000724800784FF01F0202EB8000824A1154DE
:1022D0006E48007801EB800011546C4800784FF094
:1022E000210202EB80007C4A1154CAE28048B0F916
:1022F00000008049B1F900107F4AB2F900207F4BFD
:10230000B3F90030CDE90232CDE904107448B0F9D8
:1023100000007449B1F90010CDE900107248B0F91D
:1023200000307248B0F900206C49D0316A4809F099
:10233000F5F954480078E8B153480078012819D1DC
:102340004FF02001514800784FF00E0202EB800060
:10235000614A11544D4800784FF00F0202EB8000A3
:102360005D4A1154494800784FF0100202EB80009A
:10237000594A115443480078E8B14348007803288B
:1023800019D14FF02001414800784FF0300202EBA4
:102390008000514A11543D4800784FF0310202EB61
:1023A00080004D4A1154394800784FF0320202EB58
:1023B0008000494A115464E24D48B0F900004D498B
:1023C000B1F90010CDE900104B48B0F900304B488E
:1023D000B0F900204A49404809F0A0F9294800789E
:1023E000D0B129480078022816D14FF020012748A3
:1023F00000784FF01F0202EB8000374A1154234847
:10240000007801EB80001154204800784FF0210241
:1024100002EB8000304A115433E23A48B0F9000030
:102420003949B1F90010394AB2F90020384BB3F9F3
:102430000030CDE90232CDE904102D48B0F900009A
:102440002C49B1F90010CDE900102B48B0F900304B
:102450002A48B0F900202A4944311F4809F05EF9A2
:102460000848007850B108480078012866D14FF03C
:102470002001064800784FF00E024BE05EE00000BD
:102480001A000010570000103B0000105D00001003
:10249000BA000010B8000010B6000010B400001020
:1024A00020202045544845524E45543A0A20257371
:1024B0000A20C0E4F0E5F1E0F22054524150204EF1
:1024C000310A20253033752E253033752E253033D3
:1024D000752E253033750000F0090010CCF2000095
:1024E000C2000010C0000010BE000010BC000010B0
:1024F000CA000010C8000010C6000010C400001080
:10250000E4F30000D2000010D0000010CE00001054
:10251000CC00001002EB8000FC4A1154FC4800780B
:102520004FF00F0202EB8000F84A1154F84800788F
:102530004FF0100202EB8000F44A1154F548007885
:10254000E8B1F5480078032819D14FF02001F04890
:1025500000784FF0300202EB8000EC4A1154EC4856
:1025600000784FF0310202EB8000E84A1154E8484D
:1025700000784FF0320202EB8000E44A115480E10F
:10258000E648B0F90000E649B1F90010CDE90010C5
:10259000E448B0F90030E448B0F90020E349DB48F2
:1025A00009F0BCF8DB480078D0B1DB48007802289D
:1025B00016D14FF02001D64800784FF01F0202EBF1
:1025C0008000D24A1154D248007801EB80001154A7
:1025D000CF4800784FF0210202EB8000CB4A115423
:1025E0004FE1D348B0F90000D249B1F90010D24A06
:1025F000B2F90020D14BB3F90030CDE90232CDE978
:102600000410C648B0F90000C549B1F90010CDE981
:102610000010C448B0F90030C348B0F90020C349E5
:102620004431BA4809F07AF8BA480078E8B1BA48B3
:102630000078012819D14FF02001B54800784FF0FB
:102640000E0202EB8000B14A1154B14800784FF0FD
:102650000F0202EB8000AD4A1154AD4800784FF0F4
:10266000100202EB8000A94A1154AA480078E8B190
:10267000A9480078032819D14FF02001A448007818
:102680004FF0300202EB8000A04A1154A0480078BD
:102690004FF0310202EB80009C4A11549C480078B4
:1026A0004FF0320202EB8000984A1154E9E0A04852
:1026B000B0F900009F49B1F90010CDE900109E4823
:1026C000B0F900309D48B0F900209DA18F4809F075
:1026D00025F890480078D0B18F480078022816D1AC
:1026E0004FF020018A4800784FF01F0202EB800073
:1026F000864A11548648007801EB800011548448C2
:1027000000784FF0210202EB8000804A1154B8E0BB
:102710009AA17E4809F002F8B3E0A148007818B108
:10272000AFF6BC500E9002E0AFF6D4500E909C482D
:10273000C0789B498978CDE9001099484078099084
:102740000E980890024697A17048099B08F0E6FF92
:1027500097E0934800799249C978CDE900109048F4
:10276000807809908E484078089002469BA167487F
:10277000099B08F0D3FF84E08948407988490979AA
:10278000CDE900108648C078099085488078089087
:1027900002469FA15D48099B08F0C0FF71E0804898
:1027A00080797F494979CDE900107D480079099009
:1027B0007B48C07808900246A1A15448099B08F0C4
:1027C000ADFF5EE07648C07975498979CDE90010A2
:1027D0007348407909907248007908900246A3A195
:1027E0004A48099B08F09AFF4BE06D48007A6C4913
:1027F000C979CDE900106A48807909906848407924
:1028000008900246A4A14148099B08F087FF38E0E0
:102810006348007A00906248C079099060488079E6
:1028200008900246A7A13948099B08F077FF28E0E5
:10283000AE480288AEA1354808F070FF21E0AB48F1
:102840000288B5A1314808F069FF1AE0A74802885C
:10285000BBA12E4808F062FF13E0C3A12B4808F08B
:102860005DFFC84801780078401EC64A107039B92B
:10287000C5480078C5490870C548007826490870E1
:1028800000BF00BF2DB000BD10B5FEF7D5FA1F4840
:10289000FEF770F9BD480078FA2807DA4FF03E01DC
:1028A0001D480078194A02EB00100170FEF7B5F9D7
:1028B0004FF0000408E0B749095D084607F0DAFD6B
:1028C00004F1010000B20446B4F5806FF3DB10BDE3
:1028D0001148007830B110480078A0F101000E498D
:1028E000087005E0A9480078A0F10100A749087028
:1028F000704709480078032806D1A448007800F101
:102900000100A24908704DE146E10000F009001005
:102910005D000010570000103B000010D2000010B6
:10292000D0000010CE000010CC00001070F40000A9
:10293000DA000010D8000010D6000010D4000010FB
:1029400020202045544845524E45543A0A20C0E4C0
:10295000F0E5F1E0F22054524150204E350A202596
:102960003033752E253033752E253033752E2530B6
:1029700033750A20C2DBD5CEC400000020202045DC
:10298000544845524E45543A0A2045746865726E63
:10299000657420C2DBCACB0A20C2DBD5CEC40A00D4
:1029A000B405001020C3EB2EECE5EDFE2025730AE4
:1029B00020F7E5F0E5E720252D75F1E5EA0A20E8A6
:1029C000EDF2E5F0E2E0EB20252D75F1E5EA0A20D5
:1029D0002025632055E2FBF50000000020F7E5F01C
:1029E000E5E720252D75F1E5EA0A20E8EDF2E5F0AE
:1029F000E2E0EB20252D75F1E5EA0A202025632091
:102A000055E2FBF50A202025632049E2FBF5000092
:102A100020E8EDF2E5F0E2E0EB20252D75F1E5EAA6
:102A20000A202025632055E2FBF50A20202563209B
:102A300049E2FBF50A2020256320D0E2FBF50000E7
:102A4000202025632055E2FBF50A2020256320493C
:102A5000E2FBF50A2020256320D0E2FBF50A2020C6
:102A600025632055F1E5F2E80000000020202563F1
:102A70002049E2FBF50A2020256320D0E2FBF50A7D
:102A8000202025632055F1E5F2E80A202025632067
:102A900055E1E0F2000000002020256320D0E2FB99
:102AA000F50A202025632055F1E5F2E80A202025CB
:102AB000632055E1E0F20A202025632049E1E0F29D
:102AC00000000000202025632055F1E5F2E80A20EF
:102AD0002025632055E1E0F20A202025632049E10A
:102AE000E0F20A20C2DBD5CEC4000000580000107E
:102AF000C2E2E5E4E8F2E520EFE0F0EEEBFC3A0AB2
:102B000020202020202025303375200A202020205E
:102B1000202020202A0A0000C2E2E5E4E8F2E520B5
:102B2000EFE0F0EEEBFC3A0A2020202020202530B8
:102B30003375200A202020202020202A0A000000AF
:102B4000C2E2E5E4E8F2E520EFE0F0EEEBFC3A0A61
:102B500020202020202025303375200A202020200E
:102B600020202A0A000000000A2020202020CFE098
:102B7000F0EEEBFC0A20202020EDE520E2E5F0E578
:102B8000ED210A005C000010390000103800001030
:102B90003C000010F0050010FF48007800F1010033
:102BA000FD4908707047FC480078012806DDFA48A6
:102BB0000078A0F10100F849087005E0F7480078B6
:102BC000A0F10100F5490870704710B5012164209B
:102BD00006F07DFF0021662006F079FFC021682005
:102BE00006F075FFA8216A2006F071FF01216C2014
:102BF00006F06DFFF9216E2006F069FFFF217020BD
:102C000006F065FFFF21722006F061FFFF217420AE
:102C100006F05DFF0021762006F059FFC021A420B8
:102C200006F055FFA821A62006F051FF0121A8209B
:102C300006F04DFFFE21AA2006F049FFA121A020A9
:102C400006F045FFA221084606F041FFA121C82059
:102C500006F03DFFA221CA2006F039FF7021CC20EA
:102C600006F0F1FE7521CD2006F0EDFE6221CE20AA
:102C700006F0E9FE6C21CF2006F0E5FE6921D020A8
:102C800006F0E1FE6321D12006F0DDFE0021D22016
:102C900006F0D9FEC021EC2006F019FFA821EE2095
:102CA00006F015FF0121F02006F011FF0221F220AD
:102CB00006F00DFFC021F42006F009FFA821F62040
:102CC00006F005FF0121F82006F001FF0421FA209B
:102CD00006F0FDFEC021FC2006F0F9FEA821FE2032
:102CE00006F0F5FE0121080206F0F1FE06214FF480
:102CF000817006F0ECFEC0214FF4827006F0E7FE12
:102D0000A8214FF4837006F0E2FE01214FF4847095
:102D100006F0DDFE08214FF4857006F0D8FEC021D4
:102D20004FF4867006F0D3FEA8214FF4877006F0AA
:102D3000CEFE01214FF4887006F0C9FE09214FF440
:102D4000897006F0C4FE00214FF4E17006F0BFFE6A
:102D50001E214FF4E27006F0BAFE03214FF4E37037
:102D600006F0B5FE4FF0030004460BE04FF4E171AE
:102D700001EB440108462D2106F0A9FE04F10100F3
:102D8000C0B204460A2CF1DB10BD1FB583480078A1
:102D9000814909780844302801F03B8133DC83F015
:102DA0003580DFE810F071007F009800B100CA00A4
:102DB000E30005011E0155010E150E150E150E1529
:102DC0000E150E150E150E150E150E150E150E15EB
:102DD00072017F01C301FA010E150E150E150E15B5
:102DE0000E150E1519027402F4027A03E103480469
:102DF000DC047505AC05D505F4052E0671069D06A7
:102E0000E407FE071C09432802F0FA8214DCA0F153
:102E100031000F28C3D2DFE810F0360A950AF40A11
:102E20000E0B500C6A0C9E0DB80DD60EF00E321023
:102E30004C108F11A911CF124C2802F008850DDC1F
:102E4000A0F144000828AAD2DFE810F00413BB1454
:102E50002A138813DD1332147714BC14FA2802F0F5
:102E6000F1850ADC4D2802F037854E2802F0858571
:102E70004F2842F0CB8702F0C5BDFB2802F07486D4
:102E8000FC28F6D102F013BF45480088022807D17C
:102E90004348008800F1010041490880FFF729FDFF
:102EA00002F0B4BF3F480088022807D13D4800889F
:102EB00000F101003B490880FFF70AFD384800880F
:102EC000022807D13648008800F101003449088003
:102ED000FFF70FFDE4E733480088022807D13148A7
:102EE000008800F101002F490880FFF7F1FC2C4811
:102EF0000088022807D12A48008800F101002849EB
:102F00000880FFF7F6FCCBE726480088022807D1A7
:102F10002448008800F1010022490880FFF7D8FC0E
:102F20001F480088022807D11D48008800F10100D1
:102F30001B490880FFF7DDFCB2E71A480088022829
:102F400007D11848008800F1010016490880FFF7F2
:102F5000BFFC13480088022807D11148008800F1FF
:102F600001000F490880FFF7C4FC99E70D4800886D
:102F7000022807D10B48008800F1010009490880A8
:102F8000FFF7A6FC06480088022810D104480088F4
:102F900000F10100024907E03B000010380000107A
:102FA0004E000010500000100880FFF7A2FC77E7E9
:102FB000FF480088022807D1FD48008800F1010081
:102FC000FB490880FFF784FCFA480088022807D1F3
:102FD000F848008800F10100F6490880FFF789FCF5
:102FE0005EE7F3480088022807D1F148008800F125
:102FF0000100EF490880FFF76BFCEE4800880228CB
:1030000007D1EC48008800F10100EA490880FFF789
:1030100070FCE9480088022819D1E748008800F1CF
:103020000100E5490880E5480078E5490870E54871
:103030000078E54908704FF0FC00E04908704FF057
:103040000000E04908704FF0B800E049088027E729
:10305000D7480088022807D1D548008800F1010030
:10306000D3490880FFF734FCD348008802280BD1ED
:10307000D148008800F10100CF4908804FF00000DE
:10308000CE490870CF4908700AE7CA48008802286C
:1030900007D1C848008800F10100C6490880FFF741
:1030A00028FCFDE6C2480088022810D1C0480088EC
:1030B00000F10100BE490880C0480078152804D1FD
:1030C0004FF01400BD49087001E0FFF701FCB9485A
:1030D0000088022807D1B748008800F10100B549EF
:1030E0000880FFF706FCB448008802281DD1B248CA
:1030F000008800F10100B0490880B0480078B44968
:103100000870B0480078B34908704FF00100AD492D
:103110000870B148008820B14FF02800A749087016
:1031200003E04FF04200A5490870B9E6A0480088C6
:10313000022807D19E48008800F101009C490880C0
:10314000FFF7C6FB9B480088022807D199480088F2
:1031500000F1010097490880FFF7CBFB96480088F3
:10316000022819D19448008800F101009249088092
:1031700092480078964908709248007895490870FE
:103180004FF0FC008D4908704FF000008D49087029
:1031900040F269308D49088082E68548008802281F
:1031A00007D18348008800F1010081490880FFF7BA
:1031B0008FFB8148008802280DD17F48008800F1EC
:1031C00001007D4908807E4800787C4908707E486F
:1031D00000787C49087063E676480088022807D1A9
:1031E0007448008800F1010072490880FFF781FBF4
:1031F0007A480088022803D07848008805281ED124
:103200004FF003007549088075480078FF280BD1FE
:1032100000200523CDE900300290EE221B2103900F
:10322000084606F091FD0AE000200423CDE90030B5
:103230000290EE221B210390084606F085FD6948A6
:103240000088022803D06748008805281ED14FF067
:1032500003006449088064480078FF280BD10020EF
:103260000323CDE900300290EE221B210390084693
:1032700006F06AFD0AE000200223CDE9003002904A
:10328000EE221B210390084606F05EFD08E6484842
:103290000088022807D14648008800F1010044490F
:1032A0000880FFF780FC43480088022807D1414886
:1032B000008800F101003F490880FFF71AFB4748EA
:1032C0000088022803D04548008805281ED14FF009
:1032D00003004249088042480078FF280BD10020B3
:1032E0002523CDE900300290EE221B2103900846F1
:1032F00006F02AFD0AE000202423CDE900300290E8
:10330000EE221B210390084606F01EFD354800887A
:10331000022803D03348008805281ED14FF003004F
:103320003049088030480078FF280BD10020232343
:10333000CDE900300290EE221B210390084606F0F2
:1033400003FD0AE000202223CDE900300290EE22A6
:103350001B210390084606F0F7FC17480088022856
:1033600014D11548008800F10100134908804FF07E
:1033700000004FF02103CDE9003002904FF0EE0243
:103380004FF01B010390084606F0DEFC88E5084874
:103390000088022807D10648008800F1010004498E
:1033A0000880FFF700FC03480088022826D11DE0B2
:1033B000500000104E0000105200001038000010A5
:1033C000390000103B0000103C0000105A000010B3
:1033D0003A0000103D000010900000104C0000105A
:1033E000450000104A00001044000010FF4800880B
:1033F00000F10100FD490880FFF77BFAFC480088D6
:10340000022803D0FA48008805281ED14FF0030097
:10341000F7490880F7480078FF280BD10020652382
:10342000CDE900300290EE221B210390084606F001
:103430008BFC0AE000206423CDE900300290EE22EC
:103440001B210390084606F07FFCEB480088022809
:1034500003D0E948008805281ED14FF00300E64953
:103460000880E6480078FF280BD100206323CDE9CF
:1034700000300290EE221B210390084606F064FC07
:103480000AE000206223CDE900300290EE221B21E9
:103490000390084606F058FC02E5D9480088022847
:1034A00007D1D748008800F10100D5490880FFF70F
:1034B0007AFBCE480088022807D1CC48008800F16A
:1034C0000100CA490880FFF714FAC9480088022899
:1034D00003D0C748008805281ED14FF00300C44917
:1034E0000880C4480078FF280BD100205523CDE97F
:1034F00000300290EE221B210390084606F024FCC7
:103500000AE000205423CDE900300290EE221B2176
:103510000390084606F018FCB7480088022803D03C
:10352000B548008805281ED14FF00300B249088035
:10353000B2480078FF280BD100205323CDE900309A
:103540000290EE221B210390084606F0FDFB0AE0E4
:1035500000205223CDE900300290EE221B2103907F
:10356000084606F0F1FB9BE4A5480088022807D135
:10357000A348008800F10100A1490880FFF713FB70
:103580009A480088022807D19848008800F1010075
:1035900096490880FFF7ADF995480088022803D0C6
:1035A0009348008805281ED14FF0030090490880F9
:1035B00090480078FF280BD100203523CDE900305A
:1035C0000290EE221B210390084606F0BDFB0AE0A4
:1035D00000203423CDE900300290EE221B2103901D
:1035E000084606F0B1FB84480088022803D08248D0
:1035F000008805281ED14FF003007F4908807F48CE
:103600000078FF280BD100203323CDE90030029051
:10361000EE221B210390084606F096FB0AE00020EC
:103620003223CDE900300290EE221B2103900846A0
:1036300006F08AFB34E472480088022807D17048FB
:10364000008800F101006E490880FFF7ACFA674876
:103650000088022807D16548008800F1010063490D
:103660000880FFF746F962480088022803D06048C6
:103670000088052836D14FF003005D490880614875
:10368000B0F9000001280BDD5A480078322807DA2B
:103690005C480088A0F1010000B25A49088019E096
:1036A000544800780A2190FBF1F0401C5549B1F9CB
:1036B000001088420EDA4F4800784FF00A0190FB64
:1036C000F1F000F101004F490988A1EB000000B2C0
:1036D0004C4908804B48B0F9000001460390102087
:1036E00006F0F5F944480088022803D042480088D3
:1036F000052833D14FF003003F4908803F48007848
:1037000032280EDA3F48B0F9000042F210718842C8
:1037100007DA3C48008800F1010000B2394908800E
:1037200014E03848B0F9000042F2107188420DDA16
:10373000324800784FF00A0190FBF1F000F10100EF
:1037400030490988084400B22E4908802D48B0F954
:10375000000001460390102006F0B9F905E428485E
:103760000088022807D12648008800F1010024497A
:103770000880FFF718FA1D480088022807D11B4867
:10378000008800F1010019490880FFF7B2F81848D5
:103790000088022803D0164800880F2838D14FF03F
:1037A000050013490880134800784FF00A0190FB88
:1037B000F1F000F101001449B1F9001088420EDA6D
:1037C0000C4800784FF00A0190FBF1F000F1010085
:1037D0000D490988A1EB000000B20B4908800A4896
:1037E000B0F900000146039016200FE04E000010D3
:1037F0004C000010450000104A000010440000106A
:10380000500000107E0000108600001006F05FF9E6
:10381000FA480088022803D0F84800880F281FD1F2
:103820004FF00500F5490880F548B0F90000B0F503
:10383000FA5F0DDAF34800784FF00A0190FBF1F0DF
:1038400000F10100EE490988084400B2EC49088003
:10385000EB48B0F9000001460390162006F037F956
:10386000E9480088022812D1E748008800F10100E9
:10387000E5490880E5484088E54908800846B0F9F0
:103880000000014603904FF0140006F020F908E410
:10389000E0480088022807D1DE48008800F10100D6
:1038A000DC490880FFF77FF9DB480088022807D150
:1038B000D948008800F10100D7490880FFF719F8BE
:1038C000D6480088022811D14FF00500D34908805E
:1038D0004FF0000000900190029003464FF0FD026F
:1038E0004FF01B010390084606F02EFAC3480088EB
:1038F000022803D14FF00500C049088015E4C548EF
:103900000088022807D1C348008800F10100C1499E
:103910000880FFF748F9C0480088022807D1BE4850
:10392000008800F10100BC490880FEF7E2FFBB48B7
:103930000088022803D14FF00500B8490880AF483D
:103940000088022803D14FF00500AC49088023E429
:10395000B0480088022807D1AE48008800F1010075
:10396000AC490880FFF71FF9A748008802280DD14D
:10397000A548008800F10100A3490880A848007804
:10398000A8490870A8480078A849087004E4A3482A
:1039900000881E280DDD994800881E2809DDA448EE
:1039A000007830B9FFF711F94FF00100A049087015
:1039B00026E095480088022816D19348008800F137
:1039C0000100914908809B480088C8B14FF0000071
:1039D0009849088001464FF0640006F078F84FF0EF
:1039E0004200904908700BE08B480088022807D1FC
:1039F0008948008800F1010087490880FEF779FFB7
:103A000044E4864800881E280DDD7C4800881E2876
:103A100009DD8748007830B9FFF7D7F84FF001008B
:103A2000834908702FE078480088022812D1824824
:103A3000008820B14FF000007F49088003E04FF07C
:103A400001007D4908807C48B0F90010662006F02E
:103A50003EF818E06F480088022808D16D480088B9
:103A600000F101006B490880FFF79DF80BE06A4800
:103A70000088022807D16848008800F101006649E3
:103A80000880FEF736FF81E4644800881E280DDDBB
:103A90005A4800881E2809DD6548007830B9FFF7CC
:103AA00094F84FF001006249087018E05948008806
:103AB000022808D15748008800F1010055490880C4
:103AC000FFF771F80BE054480088022807D15248EC
:103AD000008800F1010050490880FEF70AFF55E414
:103AE0004C48008802280CD14A48008800F10100A7
:103AF00048490880FFF757F84FF000004F49087019
:103B000034E14548008802280CD14348008800F180
:103B1000010041490880FEF7ECFE4FF000004749E4
:103B2000087023E1384800880A280DD143480078FE
:103B300000F101004149087008460078032802DDC1
:103B40004FF00000087011E134480088022803D0CB
:103B500032480088322850D14FF01E002F4908808B
:103B600036480078A8B93648008820B94FF0FF00E1
:103B70003349088006E032480088A0F1010000B215
:103B80002F4908802E48B0F90010682005F09FFFEB
:103B9000ECE02A480078012815D12A48008820B98D
:103BA0004FF0FF002749088006E026480088A0F172
:103BB000010000B2234908802248B0F900106A20B1
:103BC00005F085FFD2E01D48007802283ED11E484E
:103BD000008820B94FF0FF001B49088006E01A4812
:103BE0000088A0F1010000B2174908801648B0F91A
:103BF00000106C2005F06BFFB8E041E04A000010B7
:103C0000860000104400001052000010281200101E
:103C100082000010500000104E0000104C000010F8
:103C20003A000010380000103D0000103B0000106A
:103C30005600001090000010920000105D0000106F
:103C4000940000109600001098000010F9480078C9
:103C5000032814D1F848008820B94FF0FF00F64936
:103C6000088006E0F4480088A0F1010000B2F249A3
:103C70000880F148B0F900106E2005F028FF75E0CB
:103C8000EE480088022803D0EC48008832286DD125
:103C90004FF01E00E9490880E6480078B0B9E848CE
:103CA0000088FF2804D14FF00000E549088006E0B5
:103CB000E348008800F1010000B2E1490880E048D3
:103CC000B0F90010682005F002FF4FE0D9480078F5
:103CD000012816D1DB480088FF2804D14FF00000EE
:103CE000D849088006E0D748008800F1010000B2FA
:103CF000D4490880D348B0F900106A2005F0E7FEE7
:103D000034E0CC480078022816D1CF480088FF283C
:103D100004D14FF00000CC49088006E0CA48008872
:103D200000F1010000B2C8490880C748B0F900108E
:103D30006C2005F0CCFE19E0BE480078032815D1B0
:103D4000BD480088FF2804D14FF00000BA49088020
:103D500006E0B948008800F1010000B2B6490880C9
:103D6000B548B0F900106E2005F0B1FE62E4B74826
:103D70000088022808D1B548008800F10100B34945
:103D80000880FEF710FF0BE0B1480088022807D139
:103D9000AF48008800F10100AD490880FEF7A9FD99
:103DA00048E4AA48008802280CD1A848008800F1FD
:103DB0000100A6490880FEF7F6FE4FF000009D497D
:103DC00008700BE1A248008802280CD1A0480088A6
:103DD00000F101009E490880FEF78BFD4FF00000C6
:103DE00094490870FAE09B4800880A280DD1914850
:103DF000007800F101008F49087008460078032818
:103E000002DD4FF000000870E8E0934800880228C7
:103E100003D09148008832286AD14FF01E008E49A5
:103E2000088084480078A8B98C48008820B94FF0F1
:103E3000FF008A49088006E088480088A0F1010058
:103E400000B2864908808548B0F90010702005F05E
:103E50003EFEC3E077480078012815D180480088ED
:103E600020B94FF0FF007E49088006E07C480088BA
:103E7000A0F1010000B27A4908807948B0F9001039
:103E8000722005F024FEA9E06A480078022815D1C6
:103E90007448008820B94FF0FF007249088006E09E
:103EA00070480088A0F1010000B26E4908806D489A
:103EB000B0F90010742005F00AFE8FE05D4800782C
:103EC000032814D16848008820B94FF0FF006649E4
:103ED000088006E064480088A0F1010000B2624951
:103EE00008806148B0F90010762005F0F0FD75E01B
:103EF00052480088022803D05048008832286DD1EB
:103F00004FF01E004D4908804A480078B0B9534828
:103F10000088FF2804D14FF000005049088006E0D7
:103F20004E48008800F1010000B24C4908804B481F
:103F3000B0F90010702005F0CAFD4FE03D48007850
:103F4000012816D146480088FF2804D14FF0000010
:103F50004349088006E04248008800F1010000B2B1
:103F60003F4908803E48B0F90010722005F0AFFDCF
:103F700034E030480078022816D13A480088FF28FB
:103F800004D14FF000003749088006E0354800882A
:103F900000F1010000B2334908803248B0F9001046
:103FA000742005F094FD19E022480078032815D10B
:103FB0002D480088FF2804D14FF000002A490880CE
:103FC00006E02948008800F1010000B22649088077
:103FD0002548B0F90010762005F079FD57E41B481C
:103FE0000088022808D11948008800F1010017490B
:103FF0000880FEF7D8FD0BE015480088022807D19D
:104000001348008800F1010011490880FEF771FC97
:104010003DE40E480088022828D10C48008800F1B1
:1040200001000A490880FEF7BEFD4FF0000001497B
:10403000087027E15D0000109A0000104A0000108F
:10404000940000109600001098000010500000101E
:104050004E000010520000104C0000109C00001098
:104060009E000010A0000010A2000010FA48008876
:1040700002280CD1F848008800F10100F6490880B8
:10408000FEF737FC4FF00000F4490870FAE0F448FE
:1040900000880A280DD1F148007800F10100EF49AD
:1040A000087008460078032802DD4FF00000087011
:1040B000E8E0EC480088022803D0EA48008832286B
:1040C0006AD14FF01E00E7490880E4480078A8B99B
:1040D000E548008820B94FF0FF00E349088006E07A
:1040E000E1480088A0F1010000B2DF490880DE4805
:1040F000B0F90010A42005F0EAFCC3E0D74800782E
:10410000012815D1D948008820B94FF0FF00D749C0
:10411000088006E0D5480088A0F1010000B2D3492C
:104120000880D248B0F90010A62005F0D0FCA9E024
:10413000CA480078022815D1CD48008820B94FF030
:10414000FF00CB49088006E0C9480088A0F10100C3
:1041500000B2C7490880C648B0F90010A82005F091
:10416000B6FC8FE0BD480078032814D1C148008810
:1041700020B94FF0FF00BF49088006E0BD48008825
:10418000A0F1010000B2BB490880BA48B0F90010A4
:10419000AA2005F09CFC75E0B7480088022803D0EF
:1041A000B548008832286DD14FF01E00B249088012
:1041B000AA480078B0B9AC480088FF2804D14FF075
:1041C0000000A949088006E0A748008800F1010026
:1041D00000B2A5490880A448B0F90010A42005F059
:1041E00076FC4FE09D480078012816D19F48008852
:1041F000FF2804D14FF000009C49088006E09B484E
:10420000008800F1010000B2984908809748B0F991
:104210000010A62005F05BFC34E0904800780228EE
:1042200016D193480088FF2804D14FF00000904930
:10423000088006E08E48008800F1010000B28C4939
:1042400008808B48B0F90010A82005F040FC19E068
:1042500082480078032815D186480088FF2804D1B9
:104260004FF000008349088006E08248008800F192
:10427000010000B27F4908807E48B0F90010AA20F2
:1042800005F025FC2BE47D480088022808D17B48F6
:10429000008800F1010079490880FEF784FC50E0B5
:1042A0006D480088022808D16B48008800F10100A1
:1042B00069490880FEF71DFB43E06A480088022830
:1042C00003D068480088322819D14FF01E00654994
:1042D00008806B48008820B94FF0FF0068490880CB
:1042E00006E067480088A0F1010000B26449088038
:1042F0006348B0F90010C82005F0E9FB21E05E48F2
:104300000088022803D05C480088322819D14FF079
:104310001E00594908805A480088FF2804D14FF0F0
:1043200000005749088006E05548008800F1010068
:1043300000B2534908805248B0F90010C82005F077
:10434000C6FB13E54D480088022808D14B48008879
:1043500000F1010049490880FEF725FC50E03E4885
:104360000088022808D13C48008800F101003A4941
:104370000880FEF7BEFA43E03A480088022803D0DE
:1043800038480088322819D14FF01E00354908807E
:104390003C48008820B94FF0FF003A49088006E009
:1043A00038480088A0F1010000B23649088035483D
:1043B000B0F90010CA2005F08AFB21E02E480088E1
:1043C000022803D02C480088322819D14FF01E0053
:1043D000294908802B480088FF2804D14FF00000AD
:1043E0002849088006E02748008800F1010000B253
:1043F000244908802348B0F90010CA2005F067FB63
:10440000B4E41E480088022808D11C48008800F146
:1044100001001A490880FEF7C6FB0BE00E48008831
:10442000022807D10C48008800F101000A490880E1
:10443000FEF75FFA9AE411480088022824D10F4859
:10444000008800F101000D490880FEF7ACFB4FF039
:104450000000024908702FE14E0000105D000010BE
:10446000520000104C000010A4000010A600001024
:10447000A8000010AA0000104A0000105000001010
:10448000B0000010B2000010F848008802280CD1DB
:10449000F648008800F10100F4490880FEF729FA87
:1044A0004FF00000F249087006E1F24800880A283F
:1044B00028D1EF48007800F10100ED490870EE487E
:1044C0000978405C78B94FF00002EB49E848007881
:1044D00000F101000A54E648007800F1CD001146D1
:1044E000039005F0B0FAE2480078401EE249085C0B
:1044F00018B1DF480078072803DD4FF00000DC49E1
:104500000870D9E0DD480088022803D0DB48008825
:10451000322865D14FF01E00D8490880D648D449CA
:104520000978405C30B94FF07A01D348D04A12780C
:10453000815448E0D048CE490978405C30281ED1EB
:10454000CB480078A0B14FF00000CB49C84A1278A0
:1045500088540146C84AC648007800F10100115449
:10456000C348007800F1CD00039005F06CFA2AE012
:104570004FF07A00C049BE4A1278885423E0BE4802
:10458000BB490978405C412806D14FF03901BA484F
:10459000B74A1278815416E0B748B5490978405CAB
:1045A000612806D14FF05A00B349B14A12788854B5
:1045B00009E0B148AE490978405CA0F10100AE497C
:1045C000AB4A12788854AC48A9490978405C0390FA
:1045D000A7480078CC300290039905F034FA6BE0DC
:1045E000A7480088022803D0A5480088322863D154
:1045F0004FF01E00A24908809F489D490978405C01
:1046000030B94FF030019C48994A1278815447E004
:10461000994897490978405C392806D14FF0410004
:104620009549934A127888543AE09348904909781A
:10463000405C5A2806D14FF061008F498C4A1278AD
:1046400088542DE08C488A490978405C7A281DD12D
:104650008748007898B14FF000018748844A127863
:10466000815402468248007800F1010011548048CC
:10467000007800F1CD00039005F0E5F910E04FF06F
:1046800030017D487A4A1278815409E07A487849A5
:104690000978405C00F101007749754A1278885426
:1046A000754873490978405C039071480078CC30B4
:1046B0000290039905F0C7F990E472480088022837
:1046C00008D17048008800F101006E490880FEF7AB
:1046D0006AFA0BE065480088022807D16348008821
:1046E00000F1010061490880FEF703F976E46548AE
:1046F000008802280CD16348008800F1010061495C
:104700000880FEF750FA4FF000005949087021E187
:104710005648008802280CD15448008800F1010056
:1047200052490880FEF7E5F84FF000005049087044
:1047300010E1504800880A280DD14D48007800F15A
:1047400001004B49087008460078032802DD4FF04D
:1047500000000870FEE049480088022803D047485E
:10476000008832286AD14FF01E0044490880404832
:104770000078A8B94448008820B94FF0FF004249AA
:10478000088006E040480088A0F1010000B23E49E0
:1047900008803D48B0F90010EC2005F098F9D9E008
:1047A00033480078012815D13848008820B94FF0E7
:1047B000FF003649088006E034480088A0F1010077
:1047C00000B2324908803148B0F90010EE2005F0FF
:1047D0007EF9BFE026480078022815D12C480088D1
:1047E00020B94FF0FF002A49088006E028480088D9
:1047F000A0F1010000B2264908802548B0F9001058
:10480000F02005F064F9A5E019480078032814D1D8
:104810002048008820B94FF0FF001E49088006E0BC
:104820001C480088A0F1010000B21A49088019480C
:10483000B0F90010F22005F04AF98BE0104800882A
:10484000022803D00E480088322832D14FF01E00D3
:104850000B4908800648007860BB0B480088FF2899
:104860001AD14FF00000084908801CE04E000010EB
:104870005D000010520000101A0000104C000010E3
:104880004A00001050000010B4000010B6000010E4
:10489000B8000010BA000010FD48008800F10100C7
:1048A00000B2FB490880FA48B0F90010EC2005F08E
:1048B0000EF94FE0F7480078012816D1F648008835
:1048C000FF2804D14FF00000F349088006E0F248C9
:1048D000008800F1010000B2EF490880EE48B0F90D
:1048E0000010EE2005F0F3F834E0EA4800780228E2
:1048F00016D1EA480088FF2804D14FF00000E749AC
:10490000088006E0E548008800F1010000B2E349B4
:104910000880E248B0F90010F02005F0D8F819E05E
:10492000DC480078032815D1DD480088FF2804D131
:104930004FF00000DA49088006E0D948008800F10D
:10494000010000B2D6490880D548B0F90010F22025
:1049500005F0BDF896E4D3480088022808D1D14874
:10496000008800F10100CF490880FEF71CF90BE038
:10497000CD480088022807D1CB48008800F101000B
:10498000C9490880FDF7B5FF7CE4C64800880228C5
:104990000CD1C448008800F10100C2490880FEF72C
:1049A00002F94FF00000BB4908700BE1BE480088D7
:1049B00002280CD1BC48008800F10100BA490880E7
:1049C000FDF797FF4FF00000B2490870FAE0B748D2
:1049D00000880A280DD1AF48007800F10100AD49E8
:1049E000087008460078032802DD4FF000000870C8
:1049F000E8E0AF480088022803D0AD48008832289C
:104A00006AD14FF01E00AA490880A2480078A8B9D0
:104A1000A848008820B94FF0FF00A649088006E0AA
:104A2000A4480088A0F1010000B2A2490880A14872
:104A3000B0F90010F42005F04AF8C3E0954800787A
:104A4000012815D19C48008820B94FF0FF009A49F1
:104A5000088006E098480088A0F1010000B296495D
:104A600008809548B0F90010F62005F030F8A9E06C
:104A700088480078022815D19048008820B94FF066
:104A8000FF008E49088006E08C480088A0F10100F4
:104A900000B28A4908808948B0F90010F82005F072
:104AA00016F88FE07B480078032814D184480088EA
:104AB00020B94FF0FF008249088006E08048008856
:104AC000A0F1010000B27E4908807D48B0F90010D5
:104AD000FA2004F0FCFF75E07A480088022803D031
:104AE0007848008832286DD14FF01E007549088043
:104AF00068480078B0B96F480088FF2804D14FF0AB
:104B000000006C49088006E06A48008800F1010056
:104B100000B2684908806748B0F90010F42004F03A
:104B2000D6FF4FE05B480078012816D16248008824
:104B3000FF2804D14FF000005F49088006E05E487E
:104B4000008800F1010000B25B4908805A48B0F9C2
:104B50000010F62004F0BBFF34E04E480078022835
:104B600016D156480088FF2804D14FF00000534961
:104B7000088006E05148008800F1010000B24F496A
:104B800008804E48B0F90010F82004F0A0FF19E0AA
:104B900040480078032815D149480088FF2804D1EF
:104BA0004FF000004649088006E04548008800F1C3
:104BB000010000B2424908804148B0F90010FA20D3
:104BC00004F085FF1CE437480088022808D13548E6
:104BD000008800F1010033490880FDF7E4FF0BE095
:104BE00031480088022807D12F48008800F10100D1
:104BF0002D490880FDF77DFE1CE42A480088022824
:104C00000CD12848008800F1010026490880FDF7F2
:104C1000CAFF4FF000001F4908702FE122480088AA
:104C200002280CD12048008800F101001E490880AC
:104C3000FDF75FFE4FF00000164908701EE11B48AB
:104C400000880A280DD11348007800F101001149AD
:104C5000087008460078032802DD4FF00000087055
:104C60000CE113480088022803D01148008832283C
:104C700070D14FF01E000E4908800648007898BB9E
:104C80001148008810BB4FF0FF000F49088024E056
:104C9000B40000105D000010B6000010B800001055
:104CA000BA000010500000104E000010520000101A
:104CB0004C000010BC000010BE000010C00000102E
:104CC000C20000104A000010C4000010FE48008816
:104CD000A0F1010000B2FC490880FB48B0F90010C7
:104CE000FC2004F0F4FEC9E0FFE7F8480078012852
:104CF00015D1F748008820B94FF0FF00F44908802B
:104D000006E0F3480088A0F1010000B2F0490880F5
:104D1000EF48B0F90010FE2004F0D9FEAEE0EB48F9
:104D20000078022817D1EB48008820B94FF0FF0027
:104D3000E849088006E0E7480088A0F1010000B2D9
:104D4000E4490880E348B0F900104FF4807004F0A3
:104D5000BEFE93E01AE0DD480078032815D1DE4856
:104D6000008820B94FF0FF00DB49088006E0DA48F0
:104D70000088A0F1010000B2D7490880D648B0F9F8
:104D800000104FF4817004F0A2FE77E0D348008851
:104D9000022803D0D148008832286FD14FF01E007E
:104DA000CE490880C9480078B0B9C7480088FF28B4
:104DB00004D14FF00000C449088006E0C2480088D2
:104DC00000F1010000B2C0490880BF48B0F90010EE
:104DD000FC2004F07CFE51E0BC480078012816D18C
:104DE000BB480088FF2804D14FF00000B849088074
:104DF00006E0B748008800F1010000B2B44908801D
:104E0000B348B0F90010FE2004F061FE36E0AF4870
:104E10000078022817D1AF480088FF2804D14FF04E
:104E20000000AC49088006E0AA48008800F10100B3
:104E300000B2A8490880A748B0F900104FF480706C
:104E400004F045FE1AE0A1480078032816D1A248D4
:104E50000088FF2804D14FF000009F49088006E039
:104E60009D48008800F1010000B29B4908809A48E3
:104E7000B0F900104FF4817004F029FE1CE498484A
:104E80000088022808D19648008800F10100944962
:104E90000880FDF788FE0BE092480088022807D1C1
:104EA0009048008800F101008E490880FDF721FD3F
:104EB0001CE48B48008802280CD18948008800F146
:104EC000010087490880FDF76EFE4FF000007F4922
:104ED000087030E18348008802280CD1814800889E
:104EE00000F101007F490880FDF703FD4FF000004D
:104EF000764908701FE17C4800880A280DD1734864
:104F0000007800F101007149087008460078032814
:104F100002DD4FF0000008700DE17448008802289F
:104F200003D07248008832286ED14FF01E006F49BE
:104F3000088066480078B0B96D48008820B94FF005
:104F4000FF006B49088006E069480088A0F1010075
:104F500000B2674908806648B0F900104FF48270CB
:104F600004F0B5FDE7E059480078012816D1614802
:104F7000008820B94FF0FF005E49088006E05D48D8
:104F80000088A0F1010000B25A4908805948B0F9E0
:104F900000104FF4837004F09AFDCCE04B48007889
:104FA000022816D15448008820B94FF0FF0052491A
:104FB000088006E050480088A0F1010000B24E4988
:104FC00008804D48B0F900104FF4847004F07FFD64
:104FD000B1E03E480078032815D14848008820B940
:104FE0004FF0FF004549088006E044480088A0F1E2
:104FF000010000B2414908804048B0F900104FF468
:10500000857004F064FD96E034480088022803D0DF
:105010003248008832281DD14FF01E002F490880E9
:105020002A480078B8B932480088FF2804D14FF0E8
:1050300000002F49088006E02D48008800F101009B
:1050400000B22B4908802A48B0F900104FF4827052
:1050500004F03DFD6FE01D480078012817D1254878
:105060000088FF2804D14FF000002249088006E0A4
:105070002048008800F1010000B21E4908801D4848
:10508000B0F900104FF4837004F021FD53E00F4895
:105090000078022834D118480088FF2804D14FF046
:1050A00000001549088006E01348008800F101005F
:1050B00000B2114908801048B0F900104FF4847014
:1050C00004F005FD37E00000C40000105D00001092
:1050D000C6000010C8000010CA0000104A000010EE
:1050E000500000104E000010520000104C00001044
:1050F000CC000010CE000010D0000010D200001034
:10510000FF480078032816D1FE480088FF2804D104
:105110004FF00000FB49088006E0FA48008800F1E3
:10512000010000B2F7490880F648B0F900104FF4CA
:10513000857004F0CCFC0DE4F3480088022808D107
:10514000F148008800F10100EF490880FDF72BFDD0
:105150000BE0EE480088022807D1EC48008800F1F7
:105160000100EA490880FDF7C4FB0DE4E648008829
:1051700002280CD1E448008800F10100E2490880CF
:10518000FDF711FD4FF00000DD49087013E1DF4825
:10519000008802280CD1DD48008800F10100DB49BD
:1051A0000880FDF7A6FB4FF00000D549087002E12A
:1051B000D74800880A280DD1D148007800F10100B5
:1051C000CF49087008460078032802DD4FF0000040
:1051D0000870F0E0CF480088022803D0CD4800884E
:1051E00032286ED14FF01E00CA490880C4480078AA
:1051F000B0B9C948008820B94FF0FF00C6490880FF
:1052000006E0C5480088A0F1010000B2C24908804C
:10521000C148B0F900104FF4867004F058FCCAE0A1
:10522000B7480078012816D1BC48008820B94FF053
:10523000FF00BA49088006E0B8480088A0F10100E4
:1052400000B2B6490880B548B0F900104FF4877035
:1052500004F03DFCAFE0AA480078022816D1B0481F
:10526000008820B94FF0FF00AD49088006E0AC4847
:105270000088A0F1010000B2A9490880A848B0F94F
:1052800000104FF4887004F022FC94E09C480078F1
:10529000032815D1A348008820B94FF0FF00A14989
:1052A000088006E09F480088A0F1010000B29D49F7
:1052B00008809C48B0F900104FF4897004F007FC96
:1052C00079E099480088022803D09748008832285E
:1052D00071D14FF01E009449088089480078B8B910
:1052E0008D480088FF2804D14FF000008A490880CB
:1052F00006E08948008800F1010000B28649088074
:105300008548B0F900104FF4867004F0E0FB52E0DD
:105310007B480078012817D180480088FF2804D1F5
:105320004FF000007D49088006E07C48008800F1CD
:10533000010000B2794908807848B0F900104FF4B4
:10534000877004F0C4FB36E06D480078022817D15E
:1053500073480088FF2804D14FF00000704908808E
:1053600006E06F48008800F1010000B26C49088037
:105370006B48B0F900104FF4887004F0A8FB1AE0F5
:105380005F480078032816D166480088FF2804D1BA
:105390004FF000006349088006E06248008800F191
:1053A000010000B25F4908805E48B0F900104FF478
:1053B000897004F08CFB04E253480088022808D16D
:1053C0005148008800F101004F490880FDF7EBFBD0
:1053D00015E04F480088022811D14D48008800F19F
:1053E00001004B49088051480078514908705148E4
:1053F0000078514908704FF0020050490870E0E110
:105400004248008802280AD14048008800F1010083
:105410003E4908804FF002004749087019E03C48B7
:105420000088022815D13A48008800F10100384967
:1054300008804348008860B94FF001004049088067
:1054400001464FF0640004F042FB4FF02800384959
:105450000870B6E12C48008802280AD12A48008842
:1054600000F10100284908804FF00100324908701E
:1054700015E027480088022811D12548008800F14E
:1054800001002349088029480078294908702948E3
:105490000078294908704FF002002849087090E10F
:1054A0001A480088022807D11848008800F1010036
:1054B00016490880FDF71DFA16480088022811D108
:1054C0001448008800F10100124908804FF00000E4
:1054D0001C49087008460078014603904FF4E170BB
:1054E00004F0F5FA10480088022836D10E480088EA
:1054F00000F101000C4908804FF00100114923E040
:105500005D000010D2000010500000104E0000108E
:10551000520000104C000010D4000010D600001003
:10552000D8000010DA0000104A0000103A00001005
:10553000380000103D0000103B000010600000101B
:1055400090000010B405001008700846007801466D
:1055500003904FF4E17004F0BAFA32E1FF4800889A
:10556000022807D1FD48008800F10100FB490880AE
:10557000FDF7AEF9FA480088022807D1F8480088FC
:1055800000F10100F6490880FDF7B3F9F5480088FD
:10559000022803D0F3480088322815D14FF01E00AE
:1055A000F0490880F048407828280DDBEE48407824
:1055B000A0F10A00EC494870084640780146039083
:1055C0004FF4E27004F083FAE8480088022803D020
:1055D000E6480088322815D14FF01E00E3490880C4
:1055E000E1484078FA280DDADF48407800F10A00F7
:1055F000DD49487008464078014603904FF4E27058
:1056000004F065FADDE0D5480088022807D1D348C8
:10561000008800F10100D1490880FDF759F9D04810
:105620000088022807D1CE48008800F10100CC494B
:105630000880FDF75EF9CB480088022803D0C948EE
:105640000088322815D14FF01E00C6490880C64890
:10565000807803280DDDC4488078A0F10100C2499C
:10566000887008468078014603904FF4E37004F098
:105670002EFABE480088022803D0BC480088322891
:1056800015D14FF01E00B9490880B74880783C28F2
:105690000DDAB548807800F10100B34988700846FA
:1056A0008078014603904FF4E37004F010FAADE304
:1056B000AA480088022807D1A848008800F1010004
:1056C000A6490880FDF704F9A5480088022807D1FB
:1056D000A348008800F10100A1490880FDF709F9FD
:1056E000A0480088022811D19E48008800F10100DE
:1056F0009C4908804FF02D009B49C8700846C0782F
:10570000014603904FF4E47004F0E1F997480088F3
:10571000022811D19548008800F1010093490880C2
:105720004FF02B009049C8700846C078014603909E
:105730004FF4E47004F0CBF968E38848008802284D
:1057400007D18648008800F1010084490880FDF7F0
:10575000BFF883480088022807D18148008800F1FB
:1057600001007F490880FDF7C4F87E4800880228C0
:1057700011D17C48008800F101007A4908804FF07F
:105780002D007949087108460079014603904FF4CD
:10579000E57004F09CF975480088022811D173481F
:1057A000008800F10100714908804FF02B006E491C
:1057B000087108460079014603904FF4E57004F043
:1057C00086F923E365480088022807D163480088EA
:1057D00000F1010061490880FDF77AF8604800880F
:1057E000022807D15E48008800F101005C4908806A
:1057F000FDF77FF85B480088022811D159480088DE
:1058000000F10100574908804FF02D0056494871BA
:1058100008464079014603904FF4E67004F057F9CA
:1058200052480088022811D15048008800F1010038
:105830004E4908804FF02B004B494871084640798B
:10584000014603904FF4E67004F041F9DEE243486C
:105850000088022807D14148008800F101003F4933
:105860000880FDF735F83E480088022807D13C48FB
:10587000008800F101003A490880FDF73AF83948FC
:105880000088022811D13748008800F1010035490D
:1058900008804FF02D003449887108468079014610
:1058A00003904FF4E77004F012F9304800880228A2
:1058B00011D12E48008800F101002C4908804FF0DA
:1058C0002B002949887108468079014603904FF4DE
:1058D000E77004F0FCF899E220480088022807D11C
:1058E0001E48008800F101001C490880FCF7F0FF09
:1058F0001B480088022807D11948008800F10100E0
:1059000017490880FCF7F5FF16480088022811D1D6
:105910001448008800F10100124908804FF02D0062
:105920001149C8710846C079014603904FF4E870E8
:1059300004F0CDF80D48008802281DD10B480088DE
:1059400000F10100094908804FF02B000649C87199
:105950000846C079014603900AE00000500000109C
:105960004E0000104C000010B40500104A0000105A
:105970004FF4E87004F0ABF848E2FF4800880228D2
:1059800007D1FD48008800F10100FB490880FCF7C1
:105990009FFFFA480088022807D1F848008800F1E4
:1059A0000100F6490880FCF7A4FFF54800880228AA
:1059B00011D1F348008800F10100F14908804FF04F
:1059C0002D00F04908720846007A014603904FF412
:1059D000E97004F07CF8EC480088022811D1EA480C
:1059E000008800F10100E84908804FF02B00E549EC
:1059F00008720846007A014603904FF4E97004F0FB
:105A000066F803E2DC480088022808D1DA480088FA
:105A100000F10100D8490880FCF75AFF11E0DB488B
:105A2000008802280DD1D948008800F10100D7492B
:105A30000880D7480078D7490870D7480078D749F8
:105A40000870E3E1CE48008802280BD1CC480088DA
:105A500000F10100CA490880CE48007800F1010039
:105A6000CC490870C448008802281CD1C24800886C
:105A700000F10100C0490880C94800884FF00A01C0
:105A800090FBF1F201FB1200092806D1C4480088FE
:105A9000A0F10900C249088005E0C148008800F172
:105AA0000100BF490880B548008802281BD1B348CF
:105AB000008800F10100B1490880B94800884FF022
:105AC0000A0190FBF1F201FB120030B9B4480088E2
:105AD00000F10900B249088005E0B1480088A0F152
