:020000040000FA
:10000000503E0010E1000000E5000000E7000000A5
:10001000E9000000EB000000ED000000000000001F
:10002000000000000000000000000000EF000000E1
:10003000F100000000000000F30000005312000077
:10004000F7000000F7000000F7000000F7000000D4
:10005000F7000000F7000000F7000000F7000000C4
:10006000F7000000F7000000F7000000F7000000B4
:10007000F7000000F7000000F7000000F7000000A4
:10008000F7000000F7000000F7000000F700000094
:10009000F7000000F7000000C9110000F7000000A1
:1000A000F70000004D610000F7000000F7000000BD
:1000B00093680000F7000000F7000000F700000060
:1000C000F7000000F7000000F7000000DFF80CD098
:1000D00000F094F80048004723130000503E001041
:1000E00005480047FEE7FEE7FEE7FEE7FEE7FEE71E
:1000F000FEE7FEE7FEE7FEE7CD00000006280AD295
:10010000DFE800F003040506070804E003E002E06E
:1001100001E000E000BF00BF00BFFEE710B507F040
:100120008FF807F0EBF807F0DDF8AFF30080BDE8DB
:10013000104007F0A9B810B507F068FE08F01CFAE7
:10014000BDE8104007F0BABE07F0CEBD07F096BB81
:1001500009B10020704706F0A1BF0020704790F958
:1001600000308B4200DA027090F90030934200DDDB
:100170000170704790F900308B4200DA017090F9FD
:100180000030934200DD02707047B0F900308B42BE
:1001900000DA0180B0F90030934200DD0280704740
:1001A000B0F900308B4200DA0280B0F9003093429F
:1001B00000DD0180704703688B4200DA026003684B
:1001C000934200DD0160704740EA01039B0703D0C2
:1001D00009E008C9121F08C0042AFAD203E011F886
:1001E000013B00F8013B521EF9D270470146002046
:1001F00000E0401C0A5C002AFBD17047064C074D0A
:1002000006E0E06840F0010394E8070098471034E6
:10021000AC42F6D3FFF75EFF648F0000A48F0000AE
:1002200070B501EB020410F8015B15F0070301D172
:1002300010F8013B2A1106D110F8012B03E010F849
:10024000016B01F8016B5B1EF9D12B0705D400236C
:10025000521E0FD401F8013BFAE710F8013B02F1FE
:100260000202A1EB030303E013F8015B01F8015B59
:10027000521EF9D5A142D6D3002070BD00B5002290
:1002800000F008F8C04380B2010241EA102080B2B9
:1002900000BD000005E000BF30F8023B891E5BBADC
:1002A0001A440129F8DC11B1007802EB002290B267
:1002B00000EB124000EB104080B27047084400EBA6
:1002C000104080B27047010241EA102080B27047AE
:1002D00002E008C8121F08C1002AFAD1704770470F
:1002E000002001E001C1121F002AFBD17047002845
:1002F00000DAC043400008F077BC7047FFFFFFFF03
:100300004FF020008749086000BF8648006810F061
:10031000400FFAD04FF00300834908604FF40030DB
:100320008249C1F8A8014FF00000814908604FF0F0
:100330000100804908608048804908604FF0010052
:10034000A1F1040108604FF0AA007D4908604FF058
:1003500055007649C1F88C0000BF7848001D006840
:1003600010F0806FF9D04FF00300764908604FF02D
:10037000AA006E49C1F88C004FF055007049086022
:100380004FF02300704908604FF00100A1F1040113
:1003900008604FF0AA006D4908604FF055000860F2
:1003A00000BF6948001D006810F4806FF9D04FF05D
:1003B0000300674908604FF0AA005C49C1F8AC002F
:1003C0004FF05500614908606248634908604FF08A
:1003D00000005649C1F8C8010846D0F88800C0F3AB
:1003E0000160032868D15348006810F0030006D06C
:1003F000012823D002283FD003285CD100E000BFB1
:1004000056480068C0F30E0000F101004FEA4001B9
:100410004648D0F88800C0F3074000F10100B1FB66
:10042000F0F04F4900FB01F03F490968C9B201F102
:100430000101B0FBF1F04B4908603CE0474800681F
:10044000C0F30E0000F101004FEA40013748D0F838
:100450008800C0F3074000F10100B1FBF0F0424911
:1004600000FB01F030490968C9B201F10101B0FB9C
:10047000F1F03C4908601EE038480068C0F30E0007
:1004800000F101004FEA40012848D0F88800C0F38D
:10049000074000F10100B1FBF0F04FF4FA4100FB1E
:1004A00001F021490968C9B201F10101B0FBF1F085
:1004B0002C49086000BF2FE01E48006810F00300C0
:1004C00006D0012810D0022819D0032823D100E03B
:1004D00000BF15480068C0B200F101002049B1FB1F
:1004E000F0F02049086016E00F480068C0B200F143
:1004F00001001D49B1FBF0F01A4908600BE00A4801
:100500000068C0B200F101004FF4FA41B1FBF0F015
:100510001449086000BF00BF43F23A000349086075
:1005200070470000A0C10F4004C10F4000C00F4041
:10053000ACC10F400CC10F404F00030084C00F40FE
:100540008CC00F4080C00F40A4C00F40ACC00F4013
:10055000A0C00F4048F10041C4C00F4088C00F4008
:1005600000093D0024000010809698007047014665
:1005700000BFA1F101021100FBD170471FB5F34884
:10058000007800B97BE301221146F1A004F070F974
:10059000F948007800BBF9480078782803D0F7487C
:1005A0000078772803D14FF00100F3490870F34831
:1005B00000787D2806D14FF00A00EF4908704FF00F
:1005C00000004870ED480078F72804D10122114658
:1005D000DFA004F04DF951E3E748007801287ED10F
:1005E000E6480078782803D0E44800787728F2D1EC
:1005F0004FF00000E04908704FF0C000E04908806B
:100600004FF0A800DF4908804FF00100DE49088064
:10061000DE490880DA48B0F900104FF06E0005F0AE
:100620005AF8D848B0F90010702005F054F8D648B0
:10063000B0F90010722005F04EF8D448B0F900105F
:10064000742005F048F84FF0FF00D1490880D149E7
:100650000880D14908804FF00000D0490880CC487C
:10066000B0F900104FF0760005F035F8C948B0F940
:100670000010782005F02FF8C748B0F900107A2054
:1006800005F029F8C548B0F900107C2005F023F8E2
:100690004FF0C000C24908804FF0A800C14908804F
:1006A0004FF00100C04908804FF0FE00BF490880AC
:1006B000BB48B0F900104FF07E0005F00CF8B948C7
:1006C000B0F90010802005F006F8B748B0F9001026
:1006D000822005F000F8B548B0F9001000E048E0CD
:1006E000842004F0F8FF4FF07000B14908704FF01B
:1006F000750048704FF0620088704FF06C00C87051
:100700004FF0690008714FF0630048714FF000002E
:100710008871C871087248728872C8720873487309
:100720008873C87304460BE0A14A125D114604F1B8
:10073000CC02104604F08BFF04F10100C0B2044665
:10074000102CF1DB4FF0A1009A4908800846B0F95F
:1007500000104FF0C80004F0BEFF4FF0A200964911
:1007600008800846B0F900104FF0CA0004F0B3FF4B
:1007700084E2814800780A28FAD1804800787D28F0
:1007800003D14FF000007C4908707C480078FD28B8
:100790000FD17948407800F1010040B276494870A5
:1007A000084690F901000628E2DB4FF0000048708F
:1007B00064E27148407878BB70480078FE280BD11D
:1007C00000200223CDE900300290EE2207210390A1
:1007D000084605F0BDF851E2684800787E280BD144
:1007E00000200323CDE900300290EE220721039080
:1007F000084605F0ADF841E260480078FB280CD1CE
:1008000000200423CDE900300290EE22072103905E
:10081000084605F09DF831E20FE0584800787B2843
:10082000A6D100200523CDE900300290EE22072159
:100830000390084605F08CF820E24F4840780128E4
:100840004FD14E480078FE280BD100202223CDE95D
:1008500000300290EE2207210390084605F078F858
:100860000CE2464800787E280BD100202323CDE9F6
:1008700000300290EE2207210390084605F068F848
:10088000FCE13E480078FB280BD100202423CDE971
:1008900000300290EE2207210390084605F058F838
:1008A000ECE1364800787B280BD100202523CDE9E8
:1008B00000300290EE2207210390084605F048F828
:1008C000DCE12E480078FA2885D100202123CDE9EB
:1008D00000300290EE2207210390084605F038F818
:1008E000CCE125484078022878D124480078FE28B9
:1008F0000BD100203223CDE900300290EE220721F7
:100900000390084605F024F8B8E11C4800787E28DA
:100910000BD100203323CDE900300290EE220721D5
:100920000390084605F014F8A8E114480078FB2865
:1009300044D100203423CDE900300290EE2207217B
:100940000390084605F004F898E147E0CC00001059
:100950004D61696E20706F77657220616C61726D98
:100960002E20506F77657220736F757263652069F2
:1009700073204143420000004F000010CD000010E2
:10098000700000107200001074000010760000105B
:10099000780000107A0000107C0000107E0000102B
:1009A00080000010820000108400001086000010FB
:1009B000DC0E0010880000108A000010FF4800784C
:1009C0007B288DD100203523CDE900300290EE2226
:1009D00007210390084604F0BBFF4FE1F848407838
:1009E000032867D1F5480078FE2815D1F54800881E
:1009F00000F1020000B2F349088040F6340240F2F0
:100A0000DC51F048FFF7C1FBEE48B0F900000146A9
:100A1000102004F060FE31E1E84800787E2815D10E
:100A2000E848008800F1050000B2E649088040F679
:100A3000340240F2DC51E348FFF7A7FBE148B0F98C
:100A400000000146102004F046FE17E1DB48007864
:100A5000FB2815D1DB480088A0F1020000B2D9497B
:100A6000088040F6340240F2DC51D648FFF78DFB97
:100A7000D448B0F900000146102004F02CFEFDE03F
:100A8000CE4800787B28A8D1CE480088A0F1050088
:100A900000B2CC49088040F6340240F2DC51C9482B
:100AA000FFF773FBC748B0F900000146102004F0BF
:100AB00012FEE3E0C2484078042878D1BF480078AD
:100AC000FE2815D1C048008800F1050000B2BE49DB
:100AD000088040F2DC524FF4FA71BB48FFF755FB37
:100AE000B948B0F900000146162004F0F4FDC5E055
:100AF000B24800787E2815D1B348008800F1140070
:100B000000B2B149088040F2DC524FF4FA71AE48AD
:100B1000FFF73BFBAC48B0F900000146162004F09B
:100B2000DAFDABE0A5480078FB2815D1A64800887F
:100B3000A0F1050000B2A449088040F2DC524FF455
:100B4000FA71A148FFF721FB9F48B0F90000014668
:100B5000162004F0C0FD91E0984800787B2815D15C
:100B600099480088A0F1140000B29749088040F22B
:100B7000DC524FF4FA719448FFF707FB9248B0F942
:100B800000000146162004F0A6FD77E08B480078AF
:100B9000FA2873D18D4840888D4908800846B0F9FD
:100BA00000000146142004F096FD67E0FFE784484A
:100BB0004078052862D181480078FE2814D1854804
:100BC000008800F1010000B28249088040F214520E
:100BD0004FF461717F48FFF7D8FA7E48B0F90010F2
:100BE000202004F078FD49E0744800787E2814D174
:100BF0007848008800F1050000B27649088040F28C
:100C000014524FF461717348FFF7BFFA7148B0F99D
:100C10000010202004F05FFD30E068480078FB28D9
:100C200014D16C480088A0F1010000B26949088025
:100C300040F214524FF461716648FFF7A6FA654816
:100C4000B0F90010202004F046FD17E05B48007862
:100C50007B2813D15F480088A0F1050000B25D49F0
:100C6000088040F214524FF461715A48FFF78DFA30
:100C70005848B0F90010202004F02DFD00BF4FF0BF
:100C80000000554908701FBD5448006A20F080706C
:100C9000524908625248C06C20F47C305049C86404
:100CA0000846C06C20F44030C8640846C06C20F48C
:100CB0004020C8640846C06C20F44010C86447480F
:100CC000006A20F08040454908624548C06C20F029
:100CD00040504349C8644148406B60F0E06041497E
:100CE0000860084600684FEA106008603B48406BA7
:100CF00010F0804F05D00846006840F008000860FA
:100D000005E03848006820F008003649086035489A
:100D10000068FF2805D033480068334909688842D5
:100D200034D04FF000003149087031480078042871
:100D300002DA3048007850B12F48007838B94FF0C7
:100D4000010025490870284800681C490870294896
:100D500000782A490978884209DB4FF001001E49D2
:100D600008702148006800F07F00144908704FF0B7
:100D70000000214908704FF01400204908704FF01E
:100D800000001B4908701B49087062E015480068A4
:100D90001549096888425BD11548007800F10100C7
:100DA0001349087008460078042851DB4FF0000012
:100DB00008701048007800F1010021E0CD0000101B
:100DC0004F0000105E00001066000010B40D00100F
:100DD000620000106A000010CC00001000C0092062
:100DE00000C00240D0000010D4000010CA00001063
:100DF000D8000010D9000010CB000010DA0000105D
:100E0000FF49087008460078FE49097888421FDBD0
:100E1000FD48006800F07F00FC4908704FF00000BA
:100E2000F74908704FF00100F9490870F949087056
:100E3000F948007860B1F34800784FEA6000F14962
:100E4000087008460078022802DC4FF002000870A3
:100E500000BFF2480068EC490860F148006A20F0E1
:100E6000E060EF49086270474FF01100ED490872E9
:100E700070471FB5EC480078401CC0B2EA490870C2
:100E8000182802DB4FF000000870E74800780728B8
:100E90007EDCE5480078C0EBC00000EB4000E34991
:100EA00001EB800090F83100DF490978C1EBC10106
:100EB00001EB4101DD4A02EB810191F83010DA4A81
:100EC0001278C2EBC20202EB4202D84B03EB820261
:100ED00092F82D20D44B1B78C3EBC30303EB4303E1
:100EE000D24C04EB830393F82C30CDE90032CDE9EA
:100EF0000210CD480078C0EBC00000EB4000214656
:100F000001EB800090F828000346ED22C6480178E6
:100F1000007804F01DFDC4480078C549097888426E
:100F20007EDAC1480078C0EBC00000EB40002146EB
:100F300001EB8000C0780A2835DABB480078C0EBA6
:100F4000C00000EB400001EB8000C07800F1010020
:100F5000B5490978C1EBC10101EB4101224602EB21
:100F60008101C870B0480078C0EBC00000EB4000C1
:100F7000114601EB8000C0780A2820DBAA480078DF
:100F8000C0EBC00000EB400001EB8000407800E0C7
:100F900058E010F0080F12D101220321A248007876
:100FA00001F0A7FF0BE04FF00A009F490978C1EB61
:100FB000C10101EB41019D4A02EB8101C8709A48D1
:100FC0000078C0EBC00000EB4000984901EB8000C6
:100FD000C07803281FDB94480078C0EBC00000EB0A
:100FE000400001EB80000079032814DA8E48007875
:100FF000C0EBC00000EB400001EB8000407900F145
:10100000010089490978C1EBC10101EB4101874A1F
:1010100002EB8101487184480078C0EBC00000E019
:1010200028E000EB4000814901EB8000C0787E4958
:101030000978C1EBC10101EB41017C4A02EB81015E
:10104000087167E078480078082863D0764800780F
:1010500009285FD0744800780A280CD1002000903D
:10106000019002900346024603906F480178007891
:1010700004F06EFC4EE06C4800780C284AD06A48B8
:1010800000780D2846D0684800780E2842D066487F
:10109000007814280CD100200090019002900346A3
:1010A0000246039060480178007804F051FC31E07A
:1010B0005D48007815280CD1002000900190029026
:1010C00003460246039058480178007804F040FC3B
:1010D00020E05548007816280CD10020009001909F
:1010E00002900346024603904F480178007804F0CE
:1010F0002FFC0FE04C48007817280BD100200090FF
:101100000190029003460246039047480178007818
:1011100004F01EFC1FBD10B56E2004F048F94549CF
:101120000870702004F043F942494870722004F0BE
:101130003EF940498870742004F039F93D49C8707F
:10114000762004F034F93B490872782004F02FF936
:10115000C1B2384841724FF07A0004F028F9C1B2A8
:10116000344881724FF07C0004F021F9C1B231485B
:10117000C1724FF07E0004F01AF92E4908718020E8
:1011800004F015F9C1B22B4841714FF0820004F010
:101190000EF9C1B2274881714FF0840004F007F9BD
:1011A000C1B22448C17110BD10B507F027FC4FF043
:1011B00001002149086010BD0146002902DA4842B9
:1011C00000B270470846FCE71C48006820F0E06069
:1011D0001A49086008464068C0F30B101849194ABC
:1011E000127821F812001748007800F10100154923
:1011F00008700846007803282ADA1048006823E0BF
:10120000D9000010DA000010D4000010CD0000104A
:10121000CC000010CB000010CA000010D00000105D
:1012200000C0092000400240C8000010C4050010A2
:1012300035000010103C001040000010004003403A
:10124000EE000010E500001040F08070FF490860DB
:1012500070474FF00100FE490870FE48008800F119
:10126000010000B2FB4908800A2807D14FF00100B5
:10127000F94908704FF00000F6490880F7480088E7
:10128000401C00B2F5490880142807D14FF0010036
:10129000F34908704FF00000F0490880F1480088D9
:1012A000401C00B2EF490880642807D14FF00100CC
:1012B000ED4908704FF00000EA490880EB480088CB
:1012C000401C00B2E9490880C82807D14FF001004E
:1012D000E74908704FF00000E4490880E5480088BD
:1012E000401C00B2E3490880B0F5FA7F07D14FF007
:1012F0000100E14908704FF00000DE490880DF4836
:101300000088401C00B2DD490880B0F57A7F07D123
:101310004FF00100DA4908704FF00000D74908800B
:1013200070470EB5D7A103C9CDE90101FEF7E8FF6B
:10133000D64800684FF47A72B0FBF2F0A0F10101D8
:10134000B1F1807F00D327E021F07F40A0F10100C0
:101350004FF0E02250614FF0FF304FF01F020028A5
:101360000ADA4FEAC2634FEA1363C94C00F00F0573
:10137000A5F10405635505E04FEAC2634FEA136324
:10138000C44C235400BF4FF000004FF0E0229061A6
:101390004FF00700106100BFBF48006A40F48010A2
:1013A000BD4908620846006A20F0805008624FF08C
:1013B0000000034602460146009003F049FE002368
:1013C0001A461946184604F0D9FEFFF74DFDB248FB
:1013D000006840F08040B04908600846C06940F0AD
:1013E0008040C8610846406B80F480104863AB4879
:1013F000FFF7BDF8A848406B80F48010A649486309
:101400000846806940F08040886100F0DDFDA44816
:1014100004F088FD4FF4C771002004F0C4FD01F012
:101420008FFA9D48406B80F480109B4948634FF0D1
:1014300001024FF003014FF0070001F05AFD4FF495
:10144000AF7004F000F897490860084600788DF8FE
:101450000900084640788DF80800084680788DF825
:101460000700062201A9904806F0A8F88A48406BB8
:1014700080F48010884948634FF0CC0003F049FFA6
:101480008A490870CD2003F044FF88494870084617
:10149000407818B108464078202803D14FF000006A
:1014A00082494870CE2003F034FF80498870084696
:1014B000807818B108468078202803D14FF00000CA
:1014C0007A498870CF2003F024FF7849C870084615
:1014D000C07818B10846C078202803D14FF000002A
:1014E0007249C870D02003F014FF70490871084693
:1014F000007918B108460079202803D14FF0000088
:101500006A490871D12003F004FF68494871084610
:10151000407918B108464079202803D14FF00000E7
:1015200062494871D22003F0F4FE60498871084690
:10153000807918B108468079202803D14FF0000047
:101540005A498871D32003F0E4FE5849C87108460F
:10155000C07918B10846C079202803D14FF00000A7
:101560005249C871D42003F0D4FE5049087208468D
:10157000007A18B10846007A202803D14FF0000005
:101580004A490872D52003F0C4FE4849487208460B
:10159000407A18B10846407A202803D14FF0000065
:1015A00042494872D62003F0B4FE4049887208468A
:1015B000807A18B10846807A202803D14FF00000C5
:1015C0003A498872D72003F0A4FE3849C872084609
:1015D000C07A18B10846C07A202803D14FF0000025
:1015E0003249C872D82003F094FE30490873084687
:1015F000007B18B10846007B202803D14FF0000083
:101600002A490873D92003F084FE28494873084604
:10161000407B18B10846407B202803D14FF00000E2
:1016200022494873DA2003F074FE20498873084683
:10163000807B18B10846807B202803D14FF0000042
:101640001A498873DB2003F064FE31E00040034058
:1016500039000010280000103A0000102A00001085
:101660003B0000102C0000103C0000102E00001069
:101670003D000010300000103E000010320000104D
:101680003F000010007305323C46000024000010AB
:1016900018ED00E000E400E000C00920809698000A
:1016A00018009C006C000010100000101A000010C0
:1016B000FF49C8730846C07B18B10846C07B202884
:1016C00003D14FF00000FA49C8734FF00000F84909
:1016D0000874F848406B80F48010F64948634FF076
:1016E000C80003F064FEF4490880CA2003F05FFEDE
:1016F000F2490880EF48406B80F48010ED49486360
:1017000005F06EFDEB48406B80F48010E9494863BA
:10171000FFF701FDE748406B80F48010E54948631E
:1017200005E2E748007838B14FF00000E44908705E
:1017300000F09DFC03F052FAE248007888B14FF0C7
:101740000000E0490870DB48006A80F48010D94945
:10175000086204F034FD03F0A3FCFFF795FAFEF7EE
:101760000DFFD948007840B14FF00000D64908700D
:10177000D648007808B1FFF77CFBD54800780028F0
:101780007ED04FF00000D2490870CA48406B80F408
:101790008010C849486300F0D1F9CE48B0F9000084
:1017A000022802DD072000F069FDFFF7FDFC05F0CF
:1017B000D7FEFEF7DBFEC84800780028E0D0C64818
:1017C0000078A0F10100C44908700846007800289C
:1017D00056D1CC2003F09DFDB5490870CD2003F013
:1017E00098FDB34948700846407818B108464078DB
:1017F000202803D14FF00000AD494870CE2003F0FF
:1018000088FDAB4988700846807818B10846807812
:10181000202803D14FF00000A5498870CF2003F0A5
:1018200078FDA349C8700846C07818B10846C0784A
:10183000202803D14FF000009D49C870D02003F04C
:1018400068FD9B4908710846007918B1084600797F
:10185000202803D14FF0000095490871D12003F0F2
:1018600058FD934948710846407918B108464079B7
:10187000202803D14FF000008D494871D22000E0AC
:10188000B1E003F046FD8A4988710846807918B1B5
:1018900008468079202803D14FF0000084498871E0
:1018A000D32003F036FD8249C8710846C07918B1CB
:1018B0000846C079202803D14FF000007C49C87148
:1018C000D42003F026FD7A4908720846007A18B140
:1018D0000846007A202803D14FF0000074490872AE
:1018E000D52003F016FD724948720846407A18B1B7
:1018F0000846407A202803D14FF000006C49487216
:10190000D62003F006FD6A4988720846807A18B12D
:101910000846807A202803D14FF00000644988727D
:10192000D72003F0F6FC6249C8720846C07A18B1A5
:101930000846C07A202803D14FF000005C49C872E5
:10194000D82003F0E6FC5A4908730846007B18B11A
:101950000846007B202803D14FF00000544908734B
:10196000D92003F0D6FC524948730846407B18B191
:101970000846407B202803D14FF000004C494873B3
:10198000DA2003F0C6FC4A4988730846807B18B108
:101990000846807B202803D14FF00000444988731B
:1019A000DB2003F0B6FC4249C8730846C07B18B17F
:1019B0000846C07B202803D14FF000003C49C87383
:1019C0004FF000003A4908744FF0C80003F0EFFCF4
:1019D00039490880CA2003F0EAFC3849088005F03C
:1019E000FFFBFFF798FB3D480078C8B34FF00000BD
:1019F0003A4908703548007828BB394800780A28E9
:101A000012DA3748007800F101003549087035488E
:101A1000007800F10100334908703348007800F184
:101A20000100314908700EE02848007858B94FF09D
:101A30000100264908704FF000002B490870294921
:101A400008702749087001F037F900F079FF1F4846
:101A5000007808B100F0C0F800F0C1FB01F092FC82
:101A60002248007898B14FF00000204908702048C3
:101A70000078032807D01F480078032803D01E48A9
:101A80000078032803D14FF000001C4908701C485F
:101A90000078B8B34FF00000194908701448007876
:101AA000032833D01348007803282FD012482AE0A7
:101AB0001A00001000C009201600001018000010C5
:101AC000390000103A0000103B00001047000010E1
:101AD0003C000010DC000010380000103D00001039
:101AE0004400001045000010460000103E000010A9
:101AF0004C0000104D0000104E0000104B00001074
:101B00003F00001013E00078032803D14FF00A00D3
:101B1000074908700748B0F90000B0F57A7F06DA87
:101B20000448008800F1010000B202490880F8E58D
:101B30004B000010DC0000107047704710B5FF48E4
:101B4000B0F90000B4280CDAFD48B0F90000032811
:101B500007DDFC480088A0F1010000B2F9490880C7
:101B600006E0F848008800F1010000B2F54908805D
:101B7000F448B0F9000010F10A0F03DA6FF0090021
:101B8000F0490880EF48B0F900000A2803DD4FF063
:101B90000A00EC490880EB48B0F9000010F1050F8D
:101BA0000ADAE948007838B9012001F041F94FF02C
:101BB0000000E64908800EE0E248B0F90000052880
:101BC00009DDE148007830B1002001F031F94FF033
:101BD0000100DE49088010BD10B54FF00702104625
:101BE000C0EBC00202EB4202D94B03EB8202D27877
:101BF000052A7EDAC0EBC00202EB420203EB82024E
:101C00009379C0EBC00202EB4202D14C04EB82029A
:101C1000D27903EB0222C0EBC00303EB430304EBD6
:101C200083031A62C0EBC00202EB4202234603EBBD
:101C30008202137AC0EBC00202EB420204EB820282
:101C4000527A03EB0222C0EBC00303EB430304EB25
:101C50008303DA61C0EBC00202EB4202234603EBCE
:101C60008202937AC0EBC00202EB420204EB8202D2
:101C7000D27A03EB0222C0EBC00303EB430304EB75
:101C800083039A61C0EBC00202EB4202234603EBDE
:101C90008202127BC0EBC00303EB430304EB83031C
:101CA0005A62C0EBC00202EB4202234603EB8202FF
:101CB000527BC0EBC00303EB430304EB830383F8C5
:101CC0005220C0EBC00202EB4202234603EB820229
:101CD000927BC0EBC00303EB430304EB830383F865
:101CE0003E20C0EBC00202EB4202234603EB82021D
:101CF00000E011E0137CC0EBC00202EB420204EBF7
:101D00008202527C03EB0222C0EBC00303EB4303CD
:101D100004EB8303DA642DE04FF00002C0EBC00354
:101D200003EB43038A4C04EB83039A61C0EBC003CB
:101D300003EB430304EB83031A62C0EBC00303EB22
:101D4000430304EB8303DA61C0EBC00303EB4303FB
:101D500004EB83035A62C0EBC00303EB430304EBC1
:101D6000830383F83E20C0EBC00303EB430304EB83
:101D70008303DA64C0EBC00202EB4202744B03EB54
:101D80008202926940F26C739A421ADDC0EBC00283
:101D900002EB42026E4B03EB82029269B2F5166FC0
:101DA0000FDCC0EBC00202EB420203EB820292693D
:101DB000A2F26C724FF0320392FBF3F2654B1A7091
:101DC00013E0C0EBC00202EB4202614B03EB820264
:101DD0009269B2F5166F04DD4FF00A025D4B1A707E
:101DE00003E04FF000025B4B1A705A4A12780A2A3D
:101DF00003DD4FF00A02574B1A70C0EBC00202EB32
:101E00004202534B03EB820292694FF00A0392FBAA
:101E1000F3F212B2504B1A80C0EBC00202EB420246
:101E20004B4B03EB8202126A002A1ADDC0EBC002A0
:101E300002EB420203EB8202126A9B2A11DCC0EB26
:101E4000C00202EB420203EB8202126A02EB820240
:101E50004FEA42024FF0960392FBF3F23F4B1A70A7
:101E600012E0C0EBC00202EB4202394B03EB8202EC
:101E7000126A9B2A04DD4FF00002384B1A7003E00F
:101E80004FF00002354B1A70344A12780A2A03DDEB
:101E90004FF00A02314B1A70C0EBC00202EB420253
:101EA0002B4B03EB8202126A12B22D4B1A80C0EB4D
:101EB000C00202EB4202264B03EB8202526A12B2CC
:101EC000284B1A80284AB2F900201146274AB2F955
:101ED000002001FB02F14FF4C85291FBF2F21146CF
:101EE0000AB2234B1A80B1F5C87F0CDD40F23A22CA
:101EF000914208DCA1F5C8724FF0110392FBF3F296
:101F00001C4B1A700CE040F23A22914204DD4FF073
:101F10000A02184B1A7003E04FF00002154B1A70BA
:101F2000144A12780A2A03DD4FF00A02114B1A7084
:101F30000D4AB2F9022011460F4A1FE012E00720B5
:101F4000DC00001036000010C900001014E007206B
:101F5000C40500104400001036E0072045000010C2
:101F600038E007203AE00720B40D00105E000010B2
:101F70002EE007204600001062000010B2F9002099
:101F8000A1EB02021146FF4AB2F9002001FB02F167
:101F90004FF47A7291FBF2F21146C1F1000212B2D3
:101FA000F94B1A80F94AB2F904201146F84AB2F9FD
:101FB000002001FB02F143F6982291FBF2F2114658
:101FC0000AB2F44B1A8010BDF348406820F4403048
:101FD00040F48030F04948600846406820F44040B2
:101FE00040F4804048600846C06840F04040C86007
:101FF0000846406C20F4403040F400304864084605
:10200000406C20F4404040F4004048640846C06CF6
:1020100020F0404040F00040C864E048006820F0F4
:10202000E060DE4908600846006840F4001008607F
:102030000846006820F4803008600846006820F4F4
:102040007F4040F4807008604FF48070C8604FF0AB
:1020500016004FF0010101FA00F14FEA50124FF063
:10206000E02303EB8202C2F8001100BF704710B5F5
:10207000CB494988CA4A1288891A09B20846FFF72B
:102080009BF8C8490880C6498988C54A5288891A78
:1020900009B20846FFF790F8C2494880C0498988CC
:1020A000BF4A1288891A09B20846FFF785F8BD4968
:1020B00088800846B0F90400B0F5967F04DAB84885
:1020C0008088B949088014E0B648B0F90200B0F53C
:1020D000967F04DAB2484088B349088009E0B148E5
:1020E000B0F90000B0F5967F03DAAD480088AE493C
:1020F0000880AD48B0F90000AC49AD4A127801EB58
:102100008211AC4A127841F82200AA48007810F0F7
:10211000030F1CD14FF00002114610460CE0A34AF9
:10212000A34B1B7802EB831252F820200A4411467D
:1021300000F10102D2B210461028F0DB4FEA211262
:1021400012B2924B9A4C247823F8142000BF98487E
:102150000078401CC0B29649087003280FDB4FF08E
:10216000000008709348007800F101009149087060
:1021700008460078102802DB4FF0000008704FF08E
:1021800000008D4908708A48007840B9834800688B
:1021900020F0FF0000F101008049086018E0844849
:1021A0000078012808D17D48006820F0FF0000F188
:1021B00002007A4908600BE07D480078022807D1C8
:1021C0007648006820F0FF0040F020007349086066
:1021D0007248006840F080707049086010BD774810
:1021E000006A40F4000075490862754890F84D0295
:1021F00010F01F0F0FD07348008800F1010000B2EB
:10220000704908800846B0F90000322812DD4FF00E
:10221000320008800EE06B480088A0F1010000B297
:10222000684908800846B0F90000002802DA4FF03B
:10223000000008806348B0F90000302804DD4FF04A
:1022400001006149087008E05E48B0F9000002280A
:1022500003DA4FF000005C4908705B48007830B149
:102260005648C06B40F400005449C86305E0534829
:10227000806B40F4000051498863704770B5044694
:10228000C4EBC40000EB40004D4901EB800090F826
:102290003E000546C4EBC40000EB400001EB8000AB
:1022A000006A6E284CDBC4EBC40000EB400001EB7D
:1022B0008000006AC82843DCC4EBC40000EB400087
:1022C00001EB8000B0F940000A2838DAC4EBC40002
:1022D00000EB400001EB8000B0F8400000F101008D
:1022E00000B2C4EBC40101EB4101354A02EB8101AC
:1022F000A1F84000C4EBC40000EB4000114601EB24
:102300008000B0F940000A2819DB4FF00A00C4EB46
:10231000C40101EB410102EB8101A1F84000C4EBD3
:10232000C40000EB4000114601EB8000407810F043
:10233000200F04D101220521204600F0DAFD91E0B2
:10234000C4EBC40000EB40001D4901EB8000006AB3
:102350006E2870DAC4EBC40000EB400001EB800093
:10236000006A00287EDBC4EBC40000EB400001EBF8
:102370008000B0F9400000285EDDC4EBC40000EB33
:10238000400023E06600001030E00720B40D00108C
:102390006A00001012E0072000C002400040034025
:1023A000EE000010F4000010FA000010B409001054
:1023B000E8000010E9000010E500001000C009204E
:1023C000C4050010E0000010E200001001EB8000E6
:1023D000B0F84000A0F1010000B2C4EBC40101EB71
:1023E0004101F84A02EB8101A1F84000C4EBC400AE
:1023F00000EB4000114601EB8000B0F940000028DE
:1024000030DC4FF00000C4EBC40101EB410102EBF2
:102410008101A1F84000C4EBC40000EB400011466C
:1024200001EB8000407810F0200F1BD00022052126
:10243000204600F05EFD15E0C4EBC40000EB400058
:10244000E04901EB8000B0F9400000280ADA4FF0C3
:102450000000C4EBC40101EB4101DA4A02EB810147
:10246000A1F8400015F0010F44D0C4EBC40000EB0C
:102470004000D44901EB8000B0F942000A2838DA64
:10248000C4EBC40000EB400001EB8000B0F8420058
:1024900000F1010000B2C4EBC40101EB4101C94AE3
:1024A00002EB8101A1F84200C4EBC40000EB400044
:1024B000114601EB8000B0F942000A2878DB4FF0AA
:1024C0000A00C4EBC40101EB410102EB8101A1F858
:1024D0004200C4EBC40000EB4000114601EB800059
:1024E000407810F0100F63D101220421204600F043
:1024F00000FD5DE015F0010F5AD1C4EBC40000EB04
:102500004000B04901EB8000B0F94200002839DDFD
:10251000C4EBC40000EB400001EB8000B0F84200C7
:10252000A0F1010000B2C4EBC40101EB4101A54AD6
:1025300002EB8101A1F84200C4EBC40000EB4000B3
:10254000114601EB8000B0F94200002830DC4FF06A
:102550000000C4EBC40101EB410102EB8101A1F8D1
:102560004200C4EBC40000EB4000114601EB8000C8
:10257000407810F0100F1BD000220421204600F0FC
:10258000B8FC15E0C4EBC40000EB40008D4901EB42
:102590008000B0F9420000280ADA4FF00000C4EBD6
:1025A000C40101EB4101874A02EB8101A1F842001D
:1025B00015F0020F46D0C4EBC40000EB4000814987
:1025C00001EB8000B0F94400B0F5966F74DAC4EB0B
:1025D000C40000EB400001EB8000B0F8440000F1C3
:1025E000010000B2C4EBC40101EB4101754A02EBEA
:1025F0008101A1F84400C4EBC40000EB4000114687
:1026000001EB8000B0F94400B0F5966F54DB4FF455
:102610009660C4EBC40101EB410102EB8101A1F81A
:102620004400C4EBC40000EB4000114601EB800005
:10263000407810F0010F3FD101220021204600F028
:1026400058FC39E015F0020F36D1C4EBC40000EBA2
:1026500040005C4901EB8000B0F8440060B3C4EB7B
:10266000C40000EB400001EB8000B0F84400A0F192
:10267000010000B2C4EBC40101EB4101514A02EB7D
:102680008101A1F84400C4EBC40000EB40001146F6
:1026900001EB8000B0F8440070B9C4EBC40000EB5B
:1026A000400001EB8000407810F0010F04D00022C0
:1026B0001146204600F01DFC15F0080F44D0C4EB75
:1026C000C40000EB40003F4901EB8000B0F9460038
:1026D000282838DAC4EBC40000EB400001EB80008E
:1026E000B0F8460000F1010000B2C4EBC40101EBF8
:1026F0004101344A02EB8101A1F84600C4EBC40059
:1027000000EB4000114601EB8000B0F9460028289C
:1027100070DB4FF02800C4EBC40101EB410102EB78
:102720008101A1F84600C4EBC40000EB4000114653
:1027300001EB8000407810F0020F5BD101221146BE
:10274000204600F0D6FB55E015F0080F52D1C4EB3F
:10275000C40000EB40001B4901EB8000B0F94600CB
:10276000002831DDC4EBC40000EB400001EB800029
:10277000B0F84600A0F1010000B2C4EBC40101EBC7
:102780004101104A02EB8101A1F84600C4EBC400EC
:1027900000EB4000114601EB8000B0F8460048BB5A
:1027A0004FF00000C4EBC40101EB410102EB8101D9
:1027B000A1F8460002464FF00101204600F099FBC7
:1027C00018E00000C4050010C4EBC40000EB40009A
:1027D0005A4901EB8000B0F9460000280ADA4FF0B0
:1027E0000000C4EBC40101EB4101544A02EB81013A
:1027F000A1F8460015F0100F44D0C4EBC40000EB64
:1028000040004E4901EB8000B0F94800282838DA32
:10281000C4EBC40000EB400001EB8000B0F84800BE
:1028200000F1010000B2C4EBC40101EB4101434AD5
:1028300002EB8101A1F84800C4EBC40000EB4000AA
:10284000114601EB8000B0F94800282875DB4FF0F5
:102850002800C4EBC40101EB410102EB8101A1F8A6
:102860004800C4EBC40000EB4000114601EB8000BF
:10287000407810F0040F60D101220221204600F0C0
:1028800038FB5AE015F0100F57D1C4EBC40000EB31
:1028900040002A4901EB8000B0F8480070B3C4EB57
:1028A000C40000EB400001EB8000B0F84800A0F14C
:1028B000010000B2C4EBC40101EB41011F4A02EB6D
:1028C0008101A1F84800C4EBC40000EB40001146B0
:1028D00001EB8000B0F8480078BB4FF00000C4EB7B
:1028E000C40101EB410102EB8101A1F8480002465D
:1028F0004FF00201204600F0FCFA1EE0C4EBC400D9
:1029000000EB40000D4901EB8000B0F948000A28B7
:1029100013DDC4EBC40000EB400001EB8000B0F815
:102920004800A0F1010000B2C4EBC40101EB410179
:10293000024A02EB8101A1F8480070BDC4050010F5
:1029400010B5102002F033FD00B2A9490880142010
:1029500002F02DFD00B2A7490880162002F027FDE5
:1029600000B2A5490880202002F021FD00B2A34951
:102970000880C82002F01BFD00B2A1490880CA20CF
:1029800002F015FD00B29F4908804FF00000044698
:102990000AE004F1CC01084602F0BBFC9A49085554
:1029A00004F10100C0B20446102CF2DB4FF000002D
:1029B00004460AE004F1DC01084602F0AAFC93494F
:1029C000085504F10100C0B20446102CF2DBEC20E3
:1029D00002F0EDFC00B28E490880EE2002F0E7FC28
:1029E00000B28C490880F02002F0E1FC00B28A4974
:1029F0000880F22002F0DBFC00B288490880F42055
:102A000002F0D5FC00B286490880F62002F0CFFC27
:102A100000B284490880F82002F0C9FC00B2824963
:102A20000880FA2002F0C3FC00B280490880FC2034
:102A300002F0BDFC00B27E490880FE2002F0B7FC27
:102A400000B27C4908804FF4807002F0B0FC00B204
:102A5000794908804FF4817002F0A9FC00B27749EF
:102A600008804FF4827002F0A2FC00B27449088022
:102A70004FF4837002F09BFC00B2724908804FF45F
:102A8000847002F094FC00B26F4908804FF48570A6
:102A900002F08DFC00B26D4908804FF4867002F0A0
:102AA00086FC00B26A4908804FF4877002F07FFC10
:102AB00000B2684908804FF4887002F078FC00B2D8
:102AC000654908804FF4897002F071FC00B26349D7
:102AD00008806E2002F06BFC00B261490880702013
:102AE00002F065FC00B25F490880722002F05FFCD2
:102AF00000B25D490880742002F059FC00B25B49C5
:102B00000880762002F053FC00B2594908807820F2
:102B100002F04DFC00B2574908807A2002F047FCD1
:102B200000B2554908807C2002F041FC00B25349B4
:102B300008807E2002F03BFC00B2514908808020D2
:102B400002F035FC00B24F490880822002F02FFCD1
:102B500000B24D490880842002F029FC00B24B49A4
:102B600008804FF4C87002F022FC00B24849088087
:102B70004FF4C97002F01BFC00B2464908804FF4C4
:102B8000CA7002F014FC00B2434908804FF4CB70C5
:102B900002F00DFC00B2414908804FF4CC7002F005
:102BA00006FC00B23E4908804FF4CD7002F0FFFBF6
:102BB00000B23C4908804FF4CE7002F0F8FB00B23E
:102BC000394908804FF4CF7002F0F1FB00B2374969
:102BD00008804FF4D07002F0EAFB00B2344908805C
:102BE0004FF4D17002F0E3FB00B23249088010BD0F
:102BF0005E00001062000010660000106A00001005
:102C0000880000108A000010DC0E0010EC0E00108E
:102C10008C0000108E000010900000109200001038
:102C20009400001096000010980000109A00001008
:102C30009C0000109E000010A0000010A2000010D8
:102C4000A4000010A6000010A8000010AA000010A8
:102C5000AC000010AE000010B0000010B200001078
:102C60007000001072000010740000107600001058
:102C7000780000107A0000107C0000107E00001028
:102C800080000010820000108400001086000010F8
:102C9000B4000010B6000010B8000010BA00001018
:102CA000BC000010BE000010C0000010C2000010E8
:102CB000C4000010C6000010FF49097841B1FF4967
:102CC000096821F0010101F10101FC4A116005E0F0
:102CD000FA49096821F00101F84A11604FF000003B
:102CE00077E0C0EBC00101EB4101F54A02EB810145
:102CF0004978E1B1C0EBC00101EB410112F82110AC
:102D0000032914D100F103014FF0010202FA01F28C
:102D1000EA49096821EA020100F103024FF00103C8
:102D200003FA02F341EA0301E44A11604DE0C0EB0B
:102D3000C00101EB4101E24A02EB81014978E1B1B6
:102D4000C0EBC00101EB410112F82110052914D19B
:102D500000F10F014FF0010202FA01F2D7490968B0
:102D600021EA020100F10F024FF0010303FA02F31E
:102D700041EA0301D14A116027E000F103014FF05D
:102D8000010202FA01F2CD49096821EA020100F1CB
:102D900003024FF0000303FA02F341EA0301C74ABA
:102DA000116000F10F014FF0010202FA01F2C34974
:102DB000096821EA020100F10F024FF0000303FA53
:102DC00002F341EA0301BD4A116000F10101C9B2F9
:102DD00008460C2885DBB9490968BA4A126881EAB5
:102DE0000201B64A126801EA0201B74A1160B74906
:102DF0000968126841EA0201B44A1160AF490968E2
:102E0000B04A126881EA0201AE4A126801EA020180
:102E10006FEA0101AE4A1160AC490968126801EA23
:102E20000201AA4A1160A5490968A64A11607047C3
:102E300038B50446012C30D1A64908704FF01E0069
:102E40004FF4FA734FF000024FF0320100904FF050
:102E5000010002F0FDF8204697490870984890F864
:102E60004D0220F01700964981F84D024FF0000105
:102E70009348A0F89012A0F88E12A0F88C12A0F837
:102E80009212A0F8941294480088002830D00122B1
:102E9000114692A001F0ECFC2AE04FF000008D49B1
:102EA0000870034602460146009002F0D1F84FF048
:102EB000000081490870824890F84D0220F0170008
:102EC0007F4981F84D024FF000017D48A0F8901233
:102ED000A0F88E12A0F88C12A0F89212A0F894120A
:102EE0008848008820B10022012187A001F0C0FCA1
:102EF00038BDF8B504460D461646012E7DD1072C87
:102F0000FCD1E5B9C4EBC40000EB40006C4901EB17
:102F10008000407840F00100C4EBC40101EB4101A6
:102F2000674A02EB8101487040F213134FF0000230
:102F30004FF019014FF0010003F020F9BBE0012D23
:102F400023D1C4EBC40000EB40005D4901EB8000DD
:102F5000407840F00200C4EBC40101EB4101584A43
:102F600002EB810148704FF0E1034FF01902114666
:102F70004FF0030003F002F90020E123192211466B
:102F80000090032002F064F895E0022D23D1C4EBF9
:102F9000C40000EB40004A4901EB8000407840F05B
:102FA0000400C4EBC40101EB4101454A02EB81017D
:102FB00048704FF0C8034FF0190211464FF004005B
:102FC00003F0DCF80020C8231922114600900420E9
:102FD00002F03EF86FE0032D21D1C4EBC40000EBFA
:102FE0004000374901EB8000407840F00800C4EB16
:102FF000C40101EB4101324A00E0ABE002EB810188
:1030000048704FF000031A464FF064014FF0010082
:1030100003F0B4F84FF00000484908704BE0042D6D
:1030200023D1C4EBC40000EB4000254901EB800034
:10303000407840F01000C4EBC40101EB4101204A8C
:1030400002EB810148704FF096034FF019021146D0
:103050004FF0020003F092F8002096231922114647
:103060000090022001F0F4FF25E0052D23D1C4EBF0
:10307000C40000EB4000124901EB8000407840F0B2
:103080002000C4EBC40101EB41010D4A02EB8101B8
:1030900048704FF0FA034FF000024FF019014FF063
:1030A000010003F06BF81E20FA2300221921009082
:1030B000012001F0CDFF43E0C90000100001001025
:1030C000C4050010080100100C01001004010010DC
:1030D0001001001034000010B40000104D61696E42
:1030E00020706F77657220616C61726D2E20506F59
:1030F00077657220736F7572636520697320414331
:1031000042000000B60000104D61696E20706F77BC
:10311000657220616C61726D20636C6561722E2036
:10312000506F77657220736F7572636520697320C5
:103130006D61696E20706F77657200005A00001033
:10314000C4EBC40000EB40008B4901EB800080F829
:1031500053500FE1002EFCD1072CFAD1FDB94FF0EE
:10316000000086490870844890F84D0220F03F0026
:10317000814981F84D024FF000017F48A0F88E127E
:10318000A0F88C12A0F89012A0F89212A0F8941255
:103190000B461A461946184602F0F0FFEAE0012DE8
:1031A00038D1C4EBC40000EB4000734901EB800050
:1031B000407820F00200C4EBC40101EB41016E4AEB
:1031C00002EB810148704FF000006C490870104616
:1031D00090F84D0220F03F00114681F84D024FF06B
:1031E00000011046A0F88E12A0F88C12A0F89012E0
:1031F000A0F89212A0F894120B461A4619461846E7
:1032000002F0BCFF0020034602460146009001F098
:103210001FFFAFE0022D38D1C4EBC40000EB40002B
:10322000554901EB8000407820F00400C4EBC40154
:1032300001EB4101504A02EB810148704FF0000060
:103240004E490870104690F84D0220F03F0011469C
:1032500081F84D024FF000011046A0F88E12A0F840
:103260008C12A0F89012A0F89212A0F894120B46BB
:103270001A461946184602F081FF0020034602460E
:103280000146009001F0E4FE74E0032D21D14FF0DF
:1032900000003A490870C4EBC40000EB4000364916
:1032A00001EB8000407820F03F00C4EBC40101EB4B
:1032B0004101314A02EB810148704FF000031A4688
:1032C0001946184602F05AFF4FF001002C490870C9
:1032D00050E0042D26D14FF0000028490870264800
:1032E00090F84D0220F03F00234981F84D024FF045
:1032F00000012148A0F88E12A0F88C12A0F89012BC
:10330000A0F89212A0F894120B461A4619461846D5
:1033100002F034FF0020034602460146009001F00F
:1033200097FE27E0052D25D14FF0000013490870C6
:10333000114890F84D0220F03F000F4981F84D02EE
:103340004FF000010C48A0F88E12A0F88C12A0F8E3
:103350009012A0F89212A0F894120B461A46194641
:10336000184602F00BFF002003460246014600907B
:1033700001F06EFE00BFF8BDC4050010C9000010CA
:103380005A000010FF48B0F90000FF490880FF48CC
:10339000B0F90000FE490880FE4800884FEA00604E
:1033A000FD49098800EB0140FC49B1F9001000EB30
:1033B0000120FB49B1F900100844FA490860FA48B5
:1033C00000884FEA0060F949098800EB0140F8499C
:1033D000B1F9001000EB0120F649B1F900100844E2
:1033E000F5490860F54800884FEA0060F44909880B
:1033F00000EB0140F349B1F9001000EB0120F24964
:10340000B1F900100844F1490860F14800884FEA1A
:103410000060F049098800EB0140EF49B1F9001064
:1034200000EB0120ED49B1F900100844EC490860B7
:10343000EC4800884FEA0060EB49098800EB014046
:10344000EA49B1F9001000EB0120E949B1F9001097
:103450000844E8490860E84800884FEA0060E74906
:10346000098800EB0140E649B1F9001000EB0120AA
:10347000E449B1F900100844E3490860E3480088D2
:103480004FEA0060E249098800EB0140E149B1F9E7
:10349000001000EB0120E049B1F900100844DF49B9
:1034A0000860DF4800884FEA0060DE49098800EBC9
:1034B0000140DD49B1F9001000EB0120DB49B1F911
:1034C00000100844DA490860DA48B0F90000DA4927
:1034D0000880DA48B0F900000880D948B0F9000047
:1034E000D8490880D848B0F90000D8490880D848A1
:1034F000B0F90000D7490880D748B0F90000D74993
:103500000880D748B0F90000D6490880D648B0F9FD
:103510000000D6490880D648B0F90000D549088097
:10352000D548B0F90000D5490880D54890F88A02FE
:10353000D4490880704770B50546012D10D14FF071
:1035400000040BE0D04A125D114604F59672104655
:1035500002F07DF804F10100C0B20446402CF1DB1A
:1035600070BD70B50546012D10D14FF000040BE081
:10357000C64A125D114604F1CC02104602F067F80B
:1035800004F10100C0B20446102CF1DB70BD70B52F
:103590000546012D10D14FF000040BE0BC4A125D2E
:1035A000114604F1DC02104602F051F804F101006A
:1035B000C0B20446102CF1DB70BD704710B5044654
:1035C000012C05D17048B0F90010C82002F083F832
:1035D00010BD10B50446012C05D16D48B0F900109E
:1035E000CA2002F078F810BD10B50446012C2FD186
:1035F0006C480068C0B26A4908806A480068C0F335
:1036000007206649088067480068C0F307406249A0
:103610000880644800684FEA10605E49088060488E
:10362000B0F900104FF0EC0002F055F85B48B0F92B
:103630000010EE2002F04FF85748B0F90010F020CB
:1036400002F049F85348B0F90010F22002F043F8B4
:1036500010BD10B50446012C2FD157480068C0B2E8
:103660005449088054480068C0F307205049088036
:1036700051480068C0F307404C4908804E48006834
:103680004FEA1060484908804A48B0F900104FF0EE
:10369000F40002F020F84648B0F90010F62002F0DD
:1036A0001AF84248B0F90010F82002F014F83E4829
:1036B000B0F90010FA2002F00EF810BD10B5044663
:1036C000012C30D141480068C0B23F4908803F48D2
:1036D0000068C0F307203B4908803C480068C0F3FD
:1036E000074037490880394800684FEA106033497D
:1036F00008803548B0F900104FF0FC0001F0EBFFF6
:103700003048B0F90010FE2001F0E5FF2C48B0F978
:103710000010200201F0DFFF2848B0F900104FF43C
:10372000817001F0D8FF10BD10B50446012C28D1DE
:103730002B480068C0B22949088029480068C0F3B6
:1037400007202549088026480068C0F30740214922
:103750000880234800684FEA10601D4908801F4810
:10376000B0F900104FF4827001F0B5FF1A48B0F9BB
:1037700000104FF4837001F0AEFF1648B0F900104E
:1037800088E092E08800001040E007208A000010E6
:1037900042E0072092000010900000108E00001000
:1037A0008C00001044E007209A00001098000010E0
:1037B000960000109400001048E00720A2000010BE
:1037C000A00000109E0000109C0000104CE007209C
:1037D000AA000010A8000010A6000010A40000100D
:1037E00050E00720B2000010B0000010AE00001042
:1037F000AC00001054E007207600001074000010A8
:10380000720000107000001058E007207E000010C9
:103810007C0000107A000010780000105CE00720A7
:10382000860000108400001082000010800000104C
:1038300060E00720B400001066E00720B60000102A
:10384000B800001068E00720BA0000106AE0072006
:10385000BC0000106CE00720BE0000106EE00720E6
:10386000C000001070E00720C200001072E00720C6
:10387000C400001074E00720C600001076E00720A6
:10388000C40500109AE00720140E0010DC0E001092
:10389000EC0E00104FF4847001F01DFFFF48B0F9EA
:1038A00000104FF4857001F016FF10BD10B50446EE
:1038B000012C32D1FA480068C0B2FA490880F848B1
:1038C0000068C0F30720F8490880F5480068C0F395
:1038D0000740F6490880F24800684FEA1060F44952
:1038E0000880F048B0F900104FF4867001F0F3FE44
:1038F000ED48B0F900104FF4877001F0ECFEEB4892
:10390000B0F900104FF4887001F0E5FEE848B0F916
:1039100000104FF4897001F0DEFE10BD10B50446B2
:10392000012C2FD1E3480068C0B2E3490880E14888
:103930000068C0F30720E1490880DE480068C0F352
:103940000740DF490880DB4800684FEA1060DD4926
:103950000880D948B0F900104FF06E0001F0BBFEAE
:10396000D648B0F90010702001F0B5FED448B0F987
:103970000010722001F0AFFED248B0F900107420A0
:1039800001F0A9FE10BD10B50446012C2FD1CE4880
:103990000068C0B2CD490880CB480068C0F307205A
:1039A000CB490880C8480068C0F30740C94908806F
:1039B000C54800684FEA1060C7490880C348B0F99D
:1039C00000104FF0760001F086FEC148B0F90010FB
:1039D000782001F080FEBF48B0F900107A2001F095
:1039E0007AFEBD48B0F900107C2001F074FE10BDD5
:1039F00010B50446012C2FD1B8480068C0B2B849B0
:103A00000880B6480068C0F30720B6490880B3486C
:103A10000068C0F30740B4490880B04800684FEA26
:103A20001060B2490880AE48B0F900104FF07E0037
:103A300001F051FEAB48B0F90010802001F04BFEC0
:103A4000A948B0F90010822001F045FEA748B0F95E
:103A50000010842001F03FFE10BD10B50446012C7B
:103A600006D1A348B0F900104FF4C87001F033FE3E
:103A700010BD10B50446012C06D19E48B0F90010C7
:103A80004FF4C97001F027FE10BD10B50446012C9B
:103A900006D19948B0F900104FF4CA7001F01BFE2E
:103AA00010BD10B50446012C06D19448B0F90010A1
:103AB0004FF4CB7001F00FFE10BD10B50446012C81
:103AC00006D18F48B0F900104FF4CC7001F003FE1E
:103AD00010BD10B50446012C06D18A48B0F900107B
:103AE0004FF4CD7001F0F7FD10BD10B50446012C68
:103AF00006D18548B0F900104FF4CE7001F0EBFD0F
:103B000010BD10B50446012C06D18048B0F9001054
:103B10004FF4CF7001F0DFFD10BD10B50446012C4D
:103B200006D17B48B0F900104FF4D07001F0D3FDFE
:103B300010BD10B50446012C06D17648B0F900102E
:103B40004FF4D17001F0C7FD10BD7047704770474A
:103B5000012806D100BF4EF6EE616F4A118000BF0A
:103B600000BF70472DE9F04385B004460F46154667
:103B70001E46DDE90C894FF0140268A16846FCF787
:103B800023FB4FF00A0094FBF0F100FB114000F121
:103B90003000C0B28DF801004FF00A0094FBF0F045
:103BA00000F13000C0B28DF80000634800EB8700E0
:103BB0000188ADF8031080788DF805004FF00A00F9
:103BC00095FBF0F100FB115000F13000C0B28DF810
:103BD00008004FF00A0095FBF0F000F13000C0B291
:103BE0008DF807004FF00A0096FBF0F100FB116022
:103BF00000F13000C0B28DF80C004FF00A0096FBC7
:103C0000F0F000F13000C0B28DF80B004FF00A0068
:103C100098FBF0F100FB118000F13000C0B28DF88C
:103C20000F004FF00A0098FBF0F000F13000C0B236
:103C30008DF80E004FF00A0099FBF0F100FB119097
:103C400000F13000C0B28DF812004FF00A0099FB6D
:103C5000F0F000F13000C0B28DF81100684605B0F8
:103C6000BDE8F08301B590B03449109801EBC01065
:103C70004E2233490790FCF7A7FA08984FEA401004
:103C800008900EA9089801F040FC09A90898001DA9
:103C900001F03BFC0DA90898083053E0AA00001081
:103CA00054E00720AC000010AE000010B00000107F
:103CB000B200001058E007207000001072000010E1
:103CC00074000010760000105CE0072078000010FF
:103CD0007A0000107C0000107E00001060E00720D9
:103CE0008000001082000010840000108600001088
:103CF00064E0072066E0072068E007206AE007200C
:103D00006CE007206EE0072070E0072072E00720DB
:103D100074E0072076E007203CE0072030302FFFDA
:103D2000EDE22F3030202030303A30303A30302041
:103D300020202020202000005C8C000000C00720F4
:103D4000908C000001F0E1FB0CA908980C3001F008
:103D5000DCFB0BA90898103001F0D7FB0AA90898E2
:103D6000143001F0D2FB9DF83800552838D19DF869
:103D70003A00522833D1FF49109801EBC01032228B
:103D8000FDA10790FCF720FA9DF832009DF8311054
:103D9000CDE900109DF8300006909DF834000590A4
:103DA0009DF8350004909DF83600039004A90EC9D3
:103DB000FFF7D8FEEF490790109801EBC0101130C3
:103DC000142206900799FCF7FFF9EA49109801EBD5
:103DD000C01028301422F6A10790FCF7F5F9C5E2CF
:103DE0009DF8380050287ED14FF000000F90E14937
:103DF000109801EBC0110F9808444FF01702F2A180
:103E00000790FCF7E1F90F9800F117000F909DF86B
:103E100032009DF83110CDE900109DF83000069079
:103E20009DF8340005909DF8350004909DF836000B
:103E3000039004A90EC9FFF795FECE49079010988C
:103E400001EBC0110F980844132206900799FCF764
:103E5000BBF90F9800F113000F904FF04001C54AD5
:103E6000109802EBC0120F9811540F9800F1010046
:103E70000F909DF82C00412814D19DF82D00412869
:103E800010D1BC49109801EBC0110F9808440D22C5
:103E9000D4A10790FCF798F90F9800F10D00C0B27B
:103EA0000F909CE7B349109801EBC0110F9808449C
:103EB000D0A10A6802604A6842600A890281897A50
:103EC00081720F9800F10B00C0B20F909DF82A008C
:103ED0009DF82910CDE900109DF8280006909DF866
:103EE0002C00059000E016E09DF82D0004909DF850
:103EF0002E00039004A90EC9FFF734FE9D490790D8
:103F0000109801EBC0110F980844132206900799EE
:103F1000FCF75AF963E79DF83800422874D14FF056
:103F200000000F909DF83A0043286CD191491098F9
:103F300001EBC0110F9808441522B2A10790FCF7BD
:103F400043F90F9800F11500C0B20F909DF83200B0
:103F50009DF83110CDE900109DF8300006909DF8D5
:103F6000340005909DF8350004909DF836000390CC
:103F700004A90EC9FFF7F6FD7E490790109801EBE2
:103F8000C0110F980844132206900799FCF71CF9FA
:103F90000F9800F11300C0B20F904FF04001754A26
:103FA000109802EBC0120F9811540F9800F1010005
:103FB000C0B20F906F49109801EBC0110F980844E0
:103FC0004FF0160295A10790FCF7FEF80F9800F14C
:103FD0001600C0B20F909DF82C00412815D19DF815
:103FE0002D00412811D16349109801EBC0110F98A1
:103FF00008440D227BA10790FCF7E6F80F9800F12A
:104000000D00C0B20F9036E0F3E25A49109801EB70
:10401000C0110F98014477A002680A6042684A60A4
:1040200002890A81807A88720F9800F10B00C0B271
:104030000F909DF82A009DF82910CDE900109DF8F9
:10404000280006909DF82C0005909DF82D00049006
:104050009DF82E00039004A90EC9FFF783FD454982
:104060000790109801EBC0110F9808441322069096
:104070000799FCF7A9F89DF83A005A285BD13D4909
:10408000109801EBC0110F980844202269A10790F5
:10409000FCF79AF80F9800F12000C0B20F909DF83D
:1040A00032009DF83110CDE900109DF830000690E7
:1040B0009DF8340005909DF8350004909DF8360079
:1040C000039004A90EC9FFF74DFD2A4907901098E7
:1040D00001EBC0110F980844132206900799FCF7D2
:1040E00073F80F9800F11300C0B20F904FF0400129
:1040F000204A109802EBC0120F9811540F9800F14B
:104100000100C0B20F909DF82C00412814D19DF8F9
:104110002D00412810D11749109801EBC0110F98BC
:1041200008440D224CA10790FCF74EF80F9800F1BF
:104130000D00C0B20F90B8E00E49109801EBC0110D
:104140000F98014448A002680A6042684A600289E8
:104150000A81807A88720F9800F10B00C0B20F902C
:104160009DF82A009DF82910CDE900109DF828003F
:10417000069081E000C00720C2EAEBFEF7E5EDE81B
:10418000E520C8C1DDCFE0402020202020202020D5
:10419000202020202020202020202020202020201F
:1041A000202020202020202020202020202000004F
:1041B00040202020202020202020202020202020DF
:1041C0002020202000000000C0E2E0F0E8FF20EF07
:1041D000E8F2E0FEF9E5E920F1E5F2E820402020F0
:1041E0000000000020EDE520F3F1F2F0E0EDE5ED58
:1041F000E020200020F3F1F2F0E0EDE5EDE02020FA
:1042000020000000C1E0F2E0F0E5FF2E2020C0E237
:10421000E0F0E8FF2121212040202000C1E0F2E071
:10422000F0E5FF20EDE520EEE1EDE0F0F3E6E5ED71
:10423000E02C2000C1E0F2E0F0E5FF2E2020C2FBE0
:10424000F0E0E2EDE8E2E0FEF9E8E920E7E0F0FF87
:10425000E42040202000000020EDE520E7E0E2E53A
:10426000F0F8E5ED2020000020E7E0E2E5F0F8E5D9
:10427000ED202020000000009DF82C0005909DF806
:104280002D0004909DF82E00039004A90EC9FFF79D
:1042900069FCFF490790109801EBC0110F98084482
:1042A000132206900799FBF78FFF9DF83A004B28E1
:1042B0005CD1F749109801EBC0110F9808441D22FA
:1042C000F4A10790FBF780FF0F9800F11D00C0B22A
:1042D0000F909DF832009DF83110CDE900109DF847
:1042E000300006909DF8340005909DF8350004904C
:1042F0009DF83600039004A90EC9FFF733FCE4498A
:104300000790109801EBC0110F98084413220690F3
:104310000799FBF759FF0F9800F11300C0B20F90F7
:104320004FF04001DA4A109802EBC0120F98115476
:104330000F9800F10100C0B20F909DF82C004128A9
:1043400015D19DF82D00412811D1D149109801EBCC
:10435000C0110F9808440D22AFF204110790FBF72B
:1043600033FF0F9800F10D00C0B20F907EE2C849F4
:10437000109801EBC0110F980844AFF214110A68AD
:1043800002604A6842600A890281897A81720F98C4
:1043900000F10B00C0B20F909DF82A009DF8291083
:1043A000CDE900109DF8280005909DF82C000490A0
:1043B0009DF82D0003909DF82E00029003A90EC9D0
:1043C000FFF7D0FBB2490690109801EBC0110F988F
:1043D0000844132205900699FBF7F6FEAC491098A5
:1043E00001EBC0110F9808442722B2A10690FBF7F9
:1043F000EBFE9DF837109DF8330001EB002000B272
:1044000007904FF00A01079890FBF1F201FB1200B0
:1044100000F13000C1B29E4A109802EBC0120F9812
:1044200000F10A0011544FF00A01079890FBF1F0D7
:1044300000B20790079890FBF1F201FB120000F127
:104440003000C1B2924A109802EBC0120F9800F1EE
:10445000080011544FF00A01079890FBF1F000B2E8
:104460000790079880B1079890FBF1F201FB1200CA
:1044700000F13000C1B2864A109802EBC0120F98CA
:1044800000F10700115409E04FF02001804A109814
:1044900002EBC0120F9800F1070011549DF826108E
:1044A0009DF8270001EB002000B207904FF00A01B1
:1044B000079890FBF1F201FB120000F13000C1B24D
:1044C000734A109802EBC0120F9800F116001154B5
:1044D0004FF00A01079890FBF1F000B2079007989F
:1044E00090FBF1F201FB120000F13000C1B2684A0A
:1044F000109802EBC0120F9800F1140011544FF005
:104500000A01079890FBF1F000B20790079880B17C
:10451000079890FBF1F201FB120000F13000C1B2EC
:104520005B4A109802EBC0120F9800F1130011546F
:1045300009E04FF02001564A109802EBC0120F9884
:1045400000F1130011549DF824109DF8250001EB93
:10455000002000B207904FF00A02079890FBF2F19A
:1045600002FB110000F13000C1B2494A109802EB81
:10457000C0120F9800F1230011544FF00A01079860
:1045800090FBF1F000B20790079890FBF1F201FB6D
:10459000120000F13000C1B23D4A109802EBC01287
:1045A0000F9800F1210011544FF00A01079890FB79
:1045B000F1F000B20790079880B1079890FBF1F2F4
:1045C00001FB120000F13000C1B2314A109802EB39
:1045D000C0120F9800F12000115409E04FF02001A3
:1045E0002B4A109802EBC0120F9800F120001154D2
:1045F0003CE19DF838005328FAD14FF000000F90AD
:104600002349109801EBC01035A10A68026089881F
:1046100081804FF006000F909DF8390000F13100C5
:10462000C1B21B4A109802EBC01041714FF0070055
:104630000F901146109801EBC0110F9808444FF0ED
:104640000E022AA10790FBF7BFFD0F9800F10E00A4
:104650000F909DF832009DF83110CDE900109DF8C3
:10466000300006909DF8340005909DF835000490C8
:104670009DF83600039004A90EC9FFF773FA0449A8
:104680000790109801EBC0110F980844132235E0F1
:1046900000C00720C1E0F2E0F0E5FF2E2020CAEEC6
:1046A000EDF2F0EEEBFC20E5ECEAEEF1F2E8204072
:1046B000202000002C2055EDE0F72020202C20C2E7
:1046C0002C2055EAEEED2020202C20C22C2043E1A6
:1046D000E0F2202020202C20C02AF720000000003B
:1046E000C1CFD120B920202020202000202020C0B0
:1046F000E2E0F0E8FF212121402020000690079908
:10470000FBF762FD0F9800F114000F909DF83A003E
:104710004C280DD1F849109801EBC0102830142214
:10472000F6A10790FBF750FD4FF041000F9052E0CB
:104730009DF83A00542812D1EF49109801EBC011AE
:104740000F980144F4A002680A6042684A60008938
:1047500008810F9800F10A00C0B20F903BE09DF86D
:104760003A00552810D1E449109801EBC0110F9878
:1047700008441022ECA10790FBF726FD0F9800F1EA
:104780001000C0B20F9026E09DF83A00752810D1B5
:10479000D949109801EBC0110F9808441022E7A1E5
:1047A0000790FBF711FD0F9800F11000C0B20F90B9
:1047B00011E0D149109801EBC0110F980844E4A111
:1047C0000A6802608A888280897981710F9800F175
:1047D0000700C0B20F909DF82C00412814D19DF81D
:1047E0002D00412810D1C449109801EBC0110F9839
:1047F00008440F22D9A10790FBF7E6FC0F9800F1BF
:104800000F00C0B20F9031E0BB49109801EBC0110E
:104810000F9808440D22D6A10790FBF7D5FC0F98FE
:1048200000F10D00C0B20F909DF82A009DF82910EC
:10483000CDE900109DF8280006909DF82C00059009
:104840009DF82D0004909DF82E00039004A90EC938
:10485000FFF788F9A8490790109801EBC0110F984D
:104860000844132206900799FBF7AEFC11B000BD77
:104870002DE9FE4306460F4690464FF000000446E1
:1048800007E04FF00000BE49085504F10100C0B236
:104890000446642CF5DB4FF00000ADF804004FF047
:1048A0000105FEB1BDF8040000F1010080B2ADF8D1
:1048B00004004FF00000044606E0305DB0490855A2
:1048C00004F10100C0B20446642C02DA305D002815
:1048D000F3D14FF0260001A921F8150005F10100E0
:1048E000C0B20546A7F57F40FF3812D0BDF80400DE
:1048F00000F1010080B2ADF8040038B2A14908808F
:104900004FF0270001A921F8150005F10100C0B200
:104910000546A8F57F40FF380FD0BDF8040000F130
:10492000010080B2ADF804000FFA88F096490880C3
:104930004FF0280001A921F8150094480088FF28AD
:1049400027D093480088FF2823D092480088FF286A
:104950001FD091480088FF281BD08C480088C0B227
:104960008DF800008A480088C0B28DF8010089489F
:104970000088C0B28DF8020087480088C0B28DF868
:10498000030001AB4FF003024FF00601684603F04D
:104990005FFC82480088FF2827D081480088FF28D4
:1049A00023D07C480088FF281FD07E480088FF283D
:1049B0001BD07A480088C0B28DF800007848008883
:1049C000C0B28DF8010078480088C0B28DF80200AE
:1049D00074480088C0B28DF8030001AB4FF00302A9
:1049E0004FF00601684603F033FC70480088FF284A
:1049F00027D06F480088FF2823D06E480088FF2802
:104A00001FD06D480088FF281BD068480088C0B2BE
:104A10008DF8000066480088C0B28DF80100654836
:104A20000088C0B28DF8020063480088C0B28DF8DB
:104A3000030001AB4FF003024FF00601684603F09C
:104A400007FC5E480088FF2827D05D480088FF28C3
:104A500023D05C480088FF281FD05B480088FF28CF
:104A60001BD056480088C0B28DF80000544800881A
:104A7000C0B28DF8010053480088C0B28DF8020022
:104A800051480088C0B28DF8030001AB4FF003021B
:104A90004FF00601684603F0DBFB4C480088FF2816
:104AA00027D04B480088FF2823D04A480088FF2899
:104AB0001FD049480088FF281BD044480088C0B256
:104AC0008DF8000042480088C0B28DF801004148CE
:104AD0000088C0B28DF802003F480088C0B28DF84F
:104AE000030001AB4FF003024FF00601684603F0EC
:104AF000AFFBBDE8FE83000000C0072040EEF2EAF5
:104B0000EBFEF7E8EBF1FF202020202020202020E2
:104B100020202020000000004020EFE5F0E5E3F039
:104B2000E5E22020200000004020E7E0E2FBF8E57D
:104B3000EDEE2055E2FBF52E202000004020E7E0BE
:104B4000EDE8E6E5EDEE2055E2FBF52E2020000035
:104B50004020F4E8E3EDFF20200000002C20EDE5EC
:104B600020F3F1F2F0E0EDE5EDE0202000000000A0
:104B70002C2020F3F1F2F0E0EDE5EDE02020200024
:104B8000780E00109CE007209EE007208C000010AB
:104B90008E00001090000010920000109400001091
:104BA000960000109A000010980000109C00001061
:104BB0009E000010A0000010A2000010A400001031
:104BC000A6000010A8000010AA000010AC00001001
:104BD000AE000010B0000010B200001010B54FF091
:104BE00000031A46FF4B1B8833B1FE4B1B88A3F111
:104BF00001031BB2FB4C2380FB4B1B6C41F2FF34C7
:104C000043EA0403F84C2364F84B1B6843F0405319
:104C1000C4F8803023461B6843F0CC43236023460E
:104C2000DB6D43F48053E3652346D3F89C3043F0B7
:104C30004053C4F89C302346DB6D41F2FF3443EA15
:104C40000403E94CE365EA4B1B780A2B43D1E84B9C
:104C50005B7823B9E74B1B78E74C237034E0E44BD7
:104C60005B78012B04D1E54B1B78E34C23702BE0E0
:104C7000DF4B5B78022B0DD1E14BD3F87032A3F1FF
:104C800014034FF0050493FBF4F303F10503DA4C2E
:104C9000237019E0D64B5B78032B04D1D94B1B78DA
:104CA000D54C237010E0D24B5B78052B0CD1D64B42
:104CB000B3F90030A3F1DC034FF00A0493FBF4F3E3
:104CC00003F10503CC4C2370C94B5B7803F101035E
:104CD000CE4C23700BE0C74B1B78C74C2370C74BDF
:104CE0001B78CA4C2370C74B1B78C94C2370C94B27
:104CF0001B785B1CDBB2C74C2370012B04D0022B4A
:104D000045D0032B76D187E04FF001004FF0000132
:104D100007E04FEA40031BB2184601F10103DBB282
:104D20001946B54B1B789942F3DBBB4B1B78012B23
:104D300012D1A0F101031BB218464FF000031A462E
:104D400007E04FF4007303EB62031A464FEA600377
:104D500018460028F5D10EE0AF4B1B78022B06D188
:104D6000034600EBD3744FEA6404224603E0A0F14B
:104D700001031BB21A469C4B9B6D43EA02039A4CFB
:104D8000A36523469B6D43F48053A36591E04FF0E8
:104D900001004FF0000107E04FEA40031BB2184644
:104DA00001F10103DBB21946984B1B789942F3DB02
:104DB0009A4B1B78012B12D1A0F101031BB21846AC
:104DC0004FF000031A4607E04FF4007303EB620351
:104DD0001A464FEA600318460028F5D10FE08F4BC2
:104DE0001B78022B07D1034600EBD3744FEA64040F
:104DF000224604E058E0A0F101031BB21A467A4BA8
:104E00009B6D43EA0203784CA365854B1B6843F016
:104E10008053C4F898304CE04FF001004FF000018F
:104E200007E04FEA40031BB2184601F10103DBB271
:104E30001946774B1B789942F3DB7A4B1B78012B91
:104E400012D1A0F101031BB218464FF000031A461D
:104E500007E04FF4007303EB62031A464FEA600366
:104E600018460028F5D10EE06E4B1B78022B06D1B8
:104E7000034600EBD3744FEA6404224603E0A0F13A
:104E800001031BB21A46584B9B6D43EA0203564C72
:104E9000A365634B1B6843F00053C4F898304FF090
:104EA00000035C4C237004E04FF00003594C237066
:104EB00000BF00BF4E4B1B78012B22D15A4B1B78F1
:104EC00003F10103584C237023461B7813F0400F65
:104ED0000BD0454BDB6943F08043434CE3612346F1
:104EE000DB6943F00053E361AEE03F4B9B6943F065
:104EF00080433D4CA36123469B6943F00053A3616B
:104F0000A2E03B4B1B780A2B1ED1484B1B7803F1C8
:104F10000103464C237023461B7813F0400F06D044
:104F2000314BDB6943F080432F4CE36105E02E4BAE
:104F30009B6943F080432C4CA3612B4B9B6943F04E
:104F40000053294CA3617FE0264B1B8833B3254BCC
:104F50001B8813F0100F10D0234BDB6943F0804304
:104F6000214CE3612346DB6943F00053E3612346B0
:104F7000DB6943F00073E36166E01B4B9B6943F020
:104F80008043194CA36123469B6943F00053A361FE
:104F900023469B6943F00073A36155E0244B1B78C3
:104FA0005BB9114BDB6943F080430F4CE36123464F
:104FB0009B6943F00053A3610AE00B4BDB6943F0AC
:104FC0000053094CE36123469B6943F08043A3618E
:104FD000184B1B78012B31D1034B9B6943F00073B5
:104FE000014C29E05C00001000C0092080C00920AD
:104FF0004F00001044000010480000104500001051
:10500000C40500104600001012E0072049000010FF
:105010004A0000101A0100104C0000104D00001052
:1050200098C009204E0000101B0100101C01001048
:10503000340000105A000010A36105E0034BDB6947
:1050400043F00073014CE36110BD000000C0092073
:1050500070B5049C604D2D78A8420ED15F4DB5F916
:105060000050A94209D15E4DB5F90050AA4204D1C1
:105070005C4DB5F90050AB4211D0574D2870574DDB
:105080002980574D2A80574D2B804FF0640504FB33
:1050900005F5554E35804FF00105544E357070BD05
:1050A00008B55348006A40F00060514908624F4813
:1050B000007888B10846C06B40F00060C8634FF0CC
:1050C00001004C4908704FF000004B4908804B49E3
:1050D0000880464908707DE03F480078002879D074
:1050E0004548B0F900003D49B1F9001088420DDA99
:1050F0003F48806B40F000603D4988633E4800882F
:1051000000F1010000B23C4908804CE039480078C9
:1051100031490978884224DA3048B0F90000304932
:10512000B1F9001008443449B1F9001088420DDD8E
:105130002F48C06B40F000602D49C8632E4800889E
:1051400000F1010000B22C4908802CE04FF0000073
:10515000294908802748007800F101002549087096
:1051600021E01E48B0F900001E49B1F900100844C2
:105170002149B1F9001088420DDD1D48C06B40F097
:1051800000601B49C8631C48008800F1010000B2A0
:105190001949088007E04FF00000174908804FF0D8
:1051A0000100144908701048008898B11348B0F9FC
:1051B00000100088401C00B2104A10800A48B0F964
:1051C0000000814206D100200346024601460090BD
:1051D000FFF73EFF08BD00001F0100102201001074
:1051E0002401001026010010280100101E010010EB
:1051F00000C00920200100102A0100102C0100101D
:105200000146FD48816000BFFB48406810F0800FF8
:10521000FAD0F9488068C0B27047F848006840F09A
:105220004040F64908600846406820F003004860A6
:105230000846406840F00C0048600846406840F06E
:10524000300048604FF00800EB49C8604FF0200084
:1052500008607047E948006820F04040E74908606E
:105260000846406820F0030048600846406820F087
:105270000C0048600846406820F0300048604FF05D
:105280000000DD490860704700B5FFF7C6FFDC4845
:10529000006840F48010DA4908600846C06940F4AC
:1052A0008010C8614FF00600FFF7AAFFD4480068DD
:1052B00040F48010D24908600846806940F48010AC
:1052C0008861FFF7C7FF00BD00B5FFF7A6FFCC4818
:1052D000006840F48010CA4908600846C06940F47C
:1052E0008010C8614FF00500FFF78AFFFF20FFF72D
:1052F00087FF0246C248006840F48010C049086039
:105300000846806940F480108861FFF7A3FF1046CB
:1053100000BD01B54FF00000034600BFFFF7D4FF0A
:1053200010F0010FFAD1FFF778FFB548006840F49C
:105330008010B34908600846C06940F48010C86115
:105340000846006840F4801008600846C06940F4D0
:105350008010C8614FF00300FFF752FF9DF8010075
:1053600003461846FFF74CFF9DF800000346184619
:10537000FFF746FFFF20FFF743FF0346A048006802
:1053800040F480109E4908600846806940F480100F
:1053900088610846006840F480100860084680690B
:1053A00040F480108861FFF755FF184608BD11B51D
:1053B00000BFFFF789FF10F0010FFAD1FFF72DFFB3
:1053C0008F48006840F480108D4908600846C06925
:1053D00040F48010C8614FF00300FFF711FF9DF803
:1053E000010004462046FFF70BFF9DF8000004462D
:1053F0002046FFF705FFFF20FFF702FF04464FF0AE
:10540000FF00FFF7FDFE03464FEA0320034603EBD0
:10541000040003467A48006840F480107849086028
:105420000846806940F4801088610846006840F4AE
:10543000801008600846806940F480108861FFF79A
:1054400009FF184618BD71B500BFFFF73DFF10F00A
:10545000010FFAD1FFF7E1FE6948006840F48010BF
:10546000674908600846C06940F48010C8614FF081
:105470000300FFF7C5FE9DF8010004462046FFF734
:10548000BFFE9DF8000004462046FFF7B9FEFF204E
:10549000FFF7B6FE04464FF0FF00FFF7B1FE0646E9
:1054A0004FF0FF00FFF7ACFE05464FF0FF00FFF79F
:1054B000A7FE03464FEA0320034603EB050003461D
:1054C0004FEA0320034603EB060003464FEA03209E
:1054D000034603EB040003464948006840F480108B
:1054E000474908600846806940F480108861084692
:1054F000006840F4801008600846806940F480101D
:105500008861FFF7A7FE184678BD13B50B4600BFAC
:10551000FFF7DAFE10F0010FFAD1FFF77EFE3848F0
:10552000006840F48010364908600846C06940F4BD
:105530008010C8614FF00300FFF762FE9DF8010084
:1055400004462046FFF75CFE9DF800000446204616
:10555000FFF756FEFF20FFF753FE1870FF20FFF7FE
:105560004FFE5870FF20FFF74BFE9870FF20FFF7AB
:1055700047FED8702248006840F480102049086037
:105580000846806940F4801088610846006840F44D
:10559000801008600846806940F480108861FFF739
:1055A00059FE1CBD77B50B46154600BFFFF78CFEB4
:1055B00010F0010FFAD1FFF730FE1148006840F4F7
:1055C00080100F4908600846C06940F48010C86127
:1055D0004FF00300FFF714FE9DF801000646304629
:1055E000FFF70EFE9DF8000006463046FFF708FE66
:1055F0004FF0000411E000000000024000C0024033
:1056000000C00920FF20FFF7FBFD187003F1010027
:10561000034604F10100C0B20446AC42F2DBA948E3
:10562000006840F48010A74908600846806940F48B
:10563000801088610846006840F4801008600846C1
:10564000806940F480108861FFF704FE7EBD13B5C9
:105650000B4600BFFFF738FE10F0010FFAD1FFF73D
:1056600013FEFFF7DAFD9748006840F48010954973
:1056700008600846C06940F48010C8614FF002001D
:10568000FFF7BEFD9DF8010004462046FFF7B8FD78
:105690009DF8000004462046FFF7B2FD1846FFF7CC
:1056A000AFFD04468748006840F4801085490860D3
:1056B0000846806940F4801088610846006840F41C
:1056C000801008600846806940F480108861FFF708
:1056D000C1FD20461CBD03B500BFFFF7F5FD10F06E
:1056E000010FFAD1FFF7D0FDFFF797FD754800686D
:1056F00040F48010734908600846C06940F4801087
:10570000C8614FF00200FFF77BFD9DF801000346E2
:105710001846FFF775FD9DF8000003461846FFF791
:105720006FFD9DF8040003461846FFF769FD9DF8DC
:10573000050003461846FFF763FD6248006840F421
:105740008010604908600846806940F480108861D4
:105750000846006840F4801008600846806940F4FC
:1057600080108861FFF776FD18460CBD03B500BFB9
:10577000FFF7AAFD10F0010FFAD1FFF785FDFFF743
:105780004CFD5048006840F480104E4908600846BF
:10579000C06940F48010C8614FF00200FFF730FD8F
:1057A0009DF8010003461846FFF72AFD9DF800000A
:1057B00003461846FFF724FD9DF8040003461846EB
:1057C000FFF71EFD9DF8050003461846FFF718FD7C
:1057D0009DF8060003461846FFF712FD9DF80700E6
:1057E00003461846FFF70CFD3648006840F4801069
:1057F000344908600846806940F480108861084692
:10580000006840F4801008600846806940F4801009
:105810008861FFF71FFD18460CBD13B50B4600BF8E
:10582000FFF752FD10F0010FFAD1FFF72DFDFFF742
:10583000F4FC2448006840F48010224908600846BF
:10584000C06940F48010C8614FF00200FFF7D8FC37
:105850009DF8010004462046FFF7D2FC9DF80000A9
:1058600004462046FFF7CCFC187804462046FFF794
:10587000C7FC587804462046FFF7C2FC98780446D7
:105880002046FFF7BDFCD87804462046FFF7B8FC59
:105890000C48006840F480100A4908600846806996
:1058A00040F4801088610846006840F48010086069
:1058B0000846806940F480108861FFF7CBFC2046E1
:1058C0001CBD000000C0092010B5FA4B5B7803F046
:1058D0001F0303F104031A46F64B1B7818464FF0DA
:1058E000010319460AE0F34B5B5CF34C245C83EA4A
:1058F0000403184601F10103DBB21946531C994217
:10590000F1DB10B94FF0FF03184610BD10B5EB4B9B
:105910005B7803F01F0303F104031A46E74B1B787F
:1059200018464FF0010319460AE0E44B5B5CE24C79
:10593000245C83EA0403184601F10103DBB2194633
:10594000531C9942F1DB10B94FF0FF03184610BD0C
:105950002DE9F04307ACF0CC4FF4002CDFF8608366
:10596000DFF8609399F8009048F829C04FF09E0C3A
:10597000DFF85483DFF84C9399F8009048F829C079
:10598000DFF848C3DFF83C8398F800800CF8280063
:10599000DFF8308398F800800CEB880C8CF801104D
:1059A000DFF828C3DFF81C8398F800800CEB880C24
:1059B0008CF80220DFF814C3DFF8088398F8008021
:1059C0000CEB880C8CF80330DFF804C3DFF8F482AA
:1059D00098F800800CF82840DFF8E88298F80080FA
:1059E0000CEB880C8CF80150DFF8E4C2DFF8D482AD
:1059F00098F800800CEB880C8CF80260DFF8D0C2BD
:105A0000DFF8C08298F800800CEB880C8CF80370EB
:105A1000DFF8B0C29CF800C00CF1010CDFF8A482E2
:105A200088F800C0C4469CF800C0BCF1080F03DB36
:105A30004FF0000C88F800C0DFF898C29CF800C056
:105A4000BCF1000F4DD0DFF878C2DFF88C8298F8F7
:105A500000805CF828C0DFF88482C8F830C0DFF826
:105A600068C2DFF8748298F800805CF828C0DFF81C
:105A70006C82C8F834C0DFF854C2DFF85C8298F852
:105A800000805CF828C0DFF85482C8F838C0DFF81E
:105A900040C2DFF8448298F800805CF828C0DFF844
:105AA0003C82C8F83CC04FF0210CC8F804C0DFF8B5
:105AB00028C29CF800C00CF1010CDFF81C8288F8A9
:105AC00000C0C4469CF800C0BCF1080F03DB4FF0D7
:105AD000000C88F800C04FF0000CDFF8F88188F85F
