:020000040000FA
:10000000983F0010E1000000E5000000E70000005C
:10001000E9000000EB000000ED000000000000001F
:10002000000000000000000000000000EF000000E1
:10003000F100000000000000F300000019090000BA
:10004000F7000000F7000000F7000000F7000000D4
:10005000F7000000F7000000F7000000F7000000C4
:10006000F7000000F7000000F7000000F7000000B4
:10007000F7000000F7000000F7000000F7000000A4
:10008000F7000000F7000000F7000000F700000094
:10009000F7000000F7000000D9080000F70000009A
:1000A000F7000000A1510000F7000000F700000079
:1000B000E7580000F7000000F7000000F70000001C
:1000C000F7000000F7000000F7000000DFF80CD098
:1000D00005F09EFC00480047270A0000983F0010EA
:1000E00005480047FEE7FEE7FEE7FEE7FEE7FEE71E
:1000F000FEE7FEE7FEE7FEE7CD00000006280AD295
:10010000DFE800F003040506070804E003E002E06E
:1001100001E000E000BF00BF00BFFEE710B506F041
:1001200033F906F08FF906F081F9AFF30080BDE8EE
:10013000104006F04DB910B506F00CFF07F092F92B
:10014000BDE8104006F05EBF06F072BE06F03ABC95
:1001500009B10020704706F03FB80020704790F9C1
:1001600000308B4200DA027090F90030934200DDDB
:100170000170704790F900308B4200DA017090F9FD
:100180000030934200DD02707047B0F900308B42BE
:1001900000DA0180B0F90030934200DD0280704740
:1001A000B0F900308B4200DA0280B0F9003093429F
:1001B00000DD0180704703688B4200DA026003684B
:1001C000934200DD016070474348006A20F0807070
:1001D000414908624148C06C20F47C303F49C86402
:1001E0000846C06C20F44030C8640846C06C20F457
:1001F0004020C8640846C06C20F44010C8643648EB
:10020000406B00F0E06036490860084600684FEA3D
:100210001060086008460068072801D0012000E04F
:1002200000203049097809B1012100E0002108438C
:1002300050D02C48007800F101002A490870084687
:1002400000780A2846DB084600780A2803D12448AB
:1002500000682549087022480068072801D101205C
:1002600000E000202149097809B1012100E00021C6
:1002700008431DD01D48007850B91D48007818B9B2
:10028000194800781B49087016480078174908700B
:1002900014480178154800780A3081421ADB4FF083
:1002A000000010490870114908701149087011E0E8
:1002B0000C48007832280DDB0B48007800F1320042
:1002C0000C4908704FF00B00064908704FF0010010
:1002D000074908707047000000C0092000C00240B4
:1002E000EC000010F1000010F0000010F20000100F
:1002F000F3000010F400001070477047FFFFFFFF8D
:100300004FF020008749086000BF8648006810F061
:10031000400FFAD04FF00300834908604FF40030DB
:100320008249C1F8A8014FF00000814908604FF0F0
:100330000100804908608048804908604FF0010052
:10034000A1F1040108604FF0AA007D4908604FF058
:1003500055007649C1F88C0000BF7848001D006840
:1003600010F0806FF9D04FF00300764908604FF02D
:10037000AA006E49C1F88C004FF055007049086022
:100380004FF02300704908604FF00100A1F1040113
:1003900008604FF0AA006D4908604FF055000860F2
:1003A00000BF6948001D006810F4806FF9D04FF05D
:1003B0000300674908604FF0AA005C49C1F8AC002F
:1003C0004FF05500614908606248634908604FF08A
:1003D00000005649C1F8C8010846D0F88800C0F3AB
:1003E0000160032868D15348006810F0030006D06C
:1003F000012823D002283FD003285CD100E000BFB1
:1004000056480068C0F30E0000F101004FEA4001B9
:100410004648D0F88800C0F3074000F10100B1FB66
:10042000F0F04F4900FB01F03F490968C9B201F102
:100430000101B0FBF1F04B4908603CE0474800681F
:10044000C0F30E0000F101004FEA40013748D0F838
:100450008800C0F3074000F10100B1FBF0F0424911
:1004600000FB01F030490968C9B201F10101B0FB9C
:10047000F1F03C4908601EE038480068C0F30E0007
:1004800000F101004FEA40012848D0F88800C0F38D
:10049000074000F10100B1FBF0F04FF4FA4100FB1E
:1004A00001F021490968C9B201F10101B0FBF1F085
:1004B0002C49086000BF2FE01E48006810F00300C0
:1004C00006D0012810D0022819D0032823D100E03B
:1004D00000BF15480068C0B200F101002049B1FB1F
:1004E000F0F02049086016E00F480068C0B200F143
:1004F00001001D49B1FBF0F01A4908600BE00A4801
:100500000068C0B200F101004FF4FA41B1FBF0F015
:100510001449086000BF00BF43F23A000349086075
:1005200070470000A0C10F4004C10F4000C00F4041
:10053000ACC10F400CC10F404F00030084C00F40FE
:100540008CC00F4080C00F40A4C00F40ACC00F4013
:10055000A0C00F4048F10041C4C00F4088C00F4008
:1005600000093D0024000010809698004FF0110013
:10057000FF49087270471FB5FE480078401CC0B2A2
:10058000FC490870182802DB4FF000000870F94899
:10059000007807287EDCF7480078C0EBC00000EB4D
:1005A0004000F54901EB800090F83100F1490978ED
:1005B000C1EBC10101EB4101EF4A02EB810191F86E
:1005C0003010EC4A1278C2EBC20202EB4202EA4B54
:1005D00003EB820292F82D20E64B1B78C3EBC3039A
:1005E00003EB4303E44C04EB830393F82C30CDE995
:1005F0000032CDE90210DF480078C0EBC00000EB0C
:100600004000214601EB800090F828000346ED22CF
:10061000D8480178007804F0CBF9D6480078D7495B
:10062000097888427EDAD3480078C0EBC00000EB3E
:100630004000214601EB8000C0780A2835DACD4819
:100640000078C0EBC00000EB400001EB8000C078F8
:1006500000F10100C7490978C1EBC10101EB41017B
:10066000224602EB8101C870C2480078C0EBC0008E
:1006700000EB4000114601EB8000C0780A2820DB27
:10068000BC480078C0EBC00000EB400001EB8000EC
:10069000407800E058E010F0080F12D10122032149
:1006A000B448007801F048FF0BE04FF00A00B14970
:1006B0000978C1EBC10101EB4101AF4A02EB8101B5
:1006C000C870AC480078C0EBC00000EB4000AA49FD
:1006D00001EB8000C07803281FDBA6480078C0EB40
:1006E000C00000EB400001EB80000079032814DA21
:1006F000A0480078C0EBC00000EB400001EB800098
:10070000407900F101009B490978C1EBC10101EB7F
:100710004101994A02EB8101487196480078C0EB8B
:10072000C00000E028E000EB4000934901EB8000AE
:10073000C07890490978C1EBC10101EB41018E4AB3
:1007400002EB8101087167E08A480078082863D0CD
:100750008848007809285FD0864800780A280CD19C
:1007600000200090019002900346024603908148C9
:100770000178007804F01CF94EE07E4800780C28DF
:100780004AD07C4800780D2846D07A4800780E2858
:1007900042D07848007814280CD1002000900190B5
:1007A000029003460246039072480178007804F0F4
:1007B000FFF831E06F48007815280CD10020009038
:1007C000019002900346024603906A48017800783F
:1007D00004F0EEF820E06748007816280CD10020DD
:1007E0000090019002900346024603906148017810
:1007F000007804F0DDF80FE05E48007817280BD190
:100800000020009001900290034602460390594850
:100810000178007804F0CCF81FBD10B56E2003F00D
:10082000F6FD57490870702003F0F1FD54494870F7
:10083000722003F0ECFD52498870742003F0E7FD4C
:100840004F49C870762003F0E2FD4D4908727820C8
:1008500003F0DDFDC1B24A4841724FF07A0003F067
:10086000D6FDC1B2464881724FF07C0003F0CFFD47
:10087000C1B24348C1724FF07E0003F0C8FD404949
:100880000871802003F0C3FDC1B23D4841714FF0B3
:10089000820003F0BCFDC1B2394881714FF0840081
:1008A00003F0B5FDC1B23648C17110BD10B54FF0AF
:1008B000E020006910F4803F05D007F015F84FF0F4
:1008C00001003049086010BD0146002902DA4842A3
:1008D00000B270470846FCE72B48006820F0E06053
:1008E0002949086008464068C0F30B102749284A88
:1008F000127821F812002648007800F101002449FE
:10090000087008460078032805DA1F48006840F0A0
:1009100080701D49086070474FF001001D49087044
:100920001D48008800F1010000B21B4908800A2818
:1009300007D14FF00100194908704FF00000164927
:10094000088017480088401C00B215490880142808
:1009500007D14FF00100134908704FF00000104913
:10096000088011480088401C00B20F4908801DE033
:1009700000400240A8000010E806001034000010FB
:10098000583D00103C00001000400340BC00001027
:10099000B1000010350000102800001036000010D3
:1009A0002A000010370000102C000010642807D126
:1009B0004FF00100F64908704FF00000F54908803B
:1009C000F5480088401C00B2F3490880C82807D1C8
:1009D0004FF00100F14908704FF00000EE49088027
:1009E000EF480088401C00B2ED490880B0F5FA7F5E
:1009F00007D14FF00100EB4908704FF00000E849C3
:100A00000880E9480088401C00B2E7490880B0F53A
:100A10007A7F07D14FF00100E44908704FF00000E1
:100A2000E149088070470EB5E1A103C9CDE9010194
:100A3000FFF766FCE04800684FF47A72B0FBF2F012
:100A4000A0F10101B1F1807F00D327E021F07F40C8
:100A5000A0F101004FF0E02250614FF0FF304FF065
:100A60001F0200280ADA4FEAC2634FEA1363D34C2D
:100A700000F00F05A5F10405635505E04FEAC263D8
:100A80004FEA1363CE4C235400BF4FF000004FF0E9
:100A9000E02290614FF00700106100BFC948006A72
:100AA00040F48010C74908620846006A20F0805070
:100AB00008624FF00000034602460146009003F032
:100AC000F7FA00231A461946184604F081FBFFF78F
:100AD0004DFD00F0E1FDBC4804F050FA4FF4C77141
:100AE000002004F08CFA01F0A5FA0122032107206E
:100AF00001F022FD4FF4AF7003F0D5FCB34908605C
:100B0000084600788DF80900084640788DF80800FE
:100B1000084680788DF80700062201A9AC4805F048
:100B2000F1FDCC2003F025FCAA490870CD2003F08C
:100B300020FCA84948700846407818B1084640781B
:100B4000202803D14FF00000A2494870CE2003F0C6
:100B500010FCA04988700846807818B10846807853
:100B6000202803D14FF000009A498870CF2003F06D
:100B700000FC9849C8700846C07818B10846C0788B
:100B8000202803D14FF000009249C870D02003F014
:100B9000F0FB904908710846007918B108460079C1
:100BA000202803D14FF000008A490871D12003F0BA
:100BB000E0FB884948710846407918B108464079F9
:100BC000202803D14FF0000082494871D22003F061
:100BD000D0FB804988710846807918B10846807931
:100BE000202803D14FF000007A498871D32003F008
:100BF000C0FB7849C8710846C07918B10846C07969
:100C0000202803D14FF000007249C871D42003F0AE
:100C1000B0FB704908720846007A18B10846007A9D
:100C2000202803D14FF000006A4908724FF00000FD
:100C30006849487205F078FBFFF7EFFDA6E0FFF783
:100C400035FE05F031FD6448007838B14FF0000002
:100C50006149087000F067FD03F090F85F48007884
:100C600078B14FF000005D4908705648006A80F482
:100C7000801054490862FFF7A7FA04F0CAFA03F09B
:100C80003FFA5748007840B14FF0000054490870CF
:100C90005448007808B1FFF76EFC3D48007850B129
:100CA0004FF000003A49087000F0ACF800F0DCFAB0
:100CB000072000F071FE39480078C8B34FF00000FB
:100CC000364908704748007828BB474800780A280A
:100CD00012DA4548007800F10100434908704348A2
:100CE000007800F10100414908704148007800F1A6
:100CF00001003F4908700EE03A48007858B94FF0BB
:100D00000100384908704FF0000039490870374930
:100D100008703549087001F003FB01F08BF9314888
:100D2000007808B100F0EFFA00F01DFE01F0AEFD12
:100D30001C48007898B14FF000001A4908702D48FF
:100D40000078032807D02C480078032803D02B48CC
:100D50000078032803D14FF0000029490870134898
:100D6000007898B14FF000001049087021480078D1
:100D7000032807D020480078032803D01F480078B4
:100D8000032803D14FF00A001D49087057E70000FF
:100D9000380000102C0000102E0000103900001048
:100DA000300000103A000010320000103B0000102C
:100DB000007305323C4600002400001018ED00E0EE
:100DC00000E400E000C0092018009C00580000105A
:100DD000100000101A00001035000010360000103E
:100DE00037000010430000104000001041000010C8
:100DF0004200001048000010490000104A00001096
:100E0000470000101FB5FF480078322875D008DC75
:100E100002280DD003282BD005286FD0062826D114
:100E200014E1352859D0372869D03828F7D142E164
:100E3000F5480078032812D0F448007803280ED033
:100E4000F348007803280AD04FF00300EE490870F9
:100E50004FF00000ED490870ED49087007E04FF0D1
:100E60000000E9490870E9490870E9490870F1E1B2
:100E7000E548007803280BD100200423CDE9003099
:100E80000290EE2207210390084603F091FD23E033
:100E9000DE48007803280BD100202423CDE9003060
:100EA0000290EE2207210390084603F081FD13E033
:100EB000D8480088A0F1050000B2D649088040F665
:100EC000340240F2DC51D348FFF75FF9D148B0F962
:100ED0000010102003F02FFCBCE1CB480078032861
:100EE0000ED100200523CDE900300290EE2207212B
:100EF0000390084603F05CFD26E011E125E077E071
:100F0000C248007803280BD100202523CDE900300A
:100F10000290EE2207210390084603F049FD13E0FA
:100F2000BC480088A0F1140000B2BA49088040F61D
:100F3000340240F2DC51B748FFF727F9B548B0F961
:100F40000010102003F0F7FB84E1AF48007803287D
:100F50001CD0AE480078032818D0AD48007803288C
:100F600014D0A948007840B94FF00200A649087093
:100F7000A6490870A649087039E04FF00000A24960
:100F80000870A2490870A249087030E09E480078B5
:100F900003280CD14FF000009B4908704FF003006C
:100FA0009A4908704FF00000994908701FE097486F
:100FB0000078032811D14FF000009349087093493D
:100FC00008704FF00300924908704FF0100003F0D2
:100FD0001EFA00B28F49088009E04FF003008A49E9
:100FE00008704FF00000894908708949087031E1A4
:100FF00086480078032812D100202123CDE9003053
:101000000290EE2207210390084603F0D1FC012054
:10101000642300220A21009003F04AF815E07C487E
:101020000078032811D14FF4E1607A49088008461E
:10103000B0F900104FF0100003F07DFB0120642395
:1010400000220A21009003F033F803E16E48007893
:1010500003280BD100200223CDE900300290EE22BC
:1010600007210390084603F0A3FC23E067480078BB
:1010700003280BD100202223CDE900300290EE227C
:1010800007210390084603F093FC13E061480088B1
:1010900000F1050000B25F49088040F6340240F2DA
:1010A000DC515C48FFF771F85A48B0F90010102085
:1010B00003F041FBCEE05448007803280BD1002018
:1010C0000323CDE900300290EE2207210390084669
:1010D00003F06EFC23E04D48007803280BD100207C
:1010E0002323CDE900300290EE2207210390084629
:1010F00003F05EFC13E04748008800F1140000B2E2
:101100004449088040F6340240F2DC514148FFF780
:101110003CF84048B0F90010102003F00CFB99E0B7
:101120004FF0C0003C4908804FF0A8003B490880C0
:101130004FF001003A4908803A4908803648B0F932
:1011400000104FF06E0003F0F6FA3448B0F90010CA
:10115000702003F0F0FA3248B0F90010722003F06A
:10116000EAFA3048B0F90010742003F0E4FA4FF0C6
:10117000FF002D4908802D4908802D4908804FF037
:1011800000002C4908802848B0F900104FF0760084
:1011900003F0D1FA2548B0F90010782003F0CBFA1B
:1011A0002348B0F900107A2003F0C5FA2148B0F9BD
:1011B00000107C2003F0BFFA4FF0C0001E490880E9
:1011C0004FF0A8001D4908804FF001001C4908801D
:1011D0004FF0FE001B4908801748B0F900104FF08F
:1011E0007E0003F0A8FA1548B0F90010802003F043
:1011F000A2FA1348B0F90010822003F09CFA1148BB
:1012000022E00000F4000010480000104900001027
:101210004A000010AC0000105C0000105E000010DE
:1012200060000010620000106400001066000010F2
:10123000680000106A0000106C0000106E000010C2
:101240007000001072000010B0F90010842003F04C
:1012500072FA00BF00BF4FF00000014908701FBDC7
:10126000F40000107047704708B5FC48406B10F060
:10127000805F12D0FA48007810B9012001F00CF913
:10128000F848007802280EDA002032230246194678
:101290000090012002F00CFF05E0F148007810B149
:1012A000002001F0F9F8ED48406B10F0805F0AD0A3
:1012B000ED48007898B1EC480078A0F1010040B208
:1012C000E94908700BE0E84890F900000A2806DABE
:1012D000E548007800F1010040B2E3490870E248B7
:1012E00090F90000082804DD4FF00100DF49088074
:1012F00008E0DD4890F90000022803DA4FF0000012
:10130000DA49088008BD10B54FF007021046C0EB5F
:10131000C00202EB4202D64B03EB8202D278052ACE
:101320007EDAC0EBC00202EB420203EB8202937949
:10133000C0EBC00202EB4202CD4C04EB8202D27938
:1013400003EB0222C0EBC00303EB430304EB830374
:101350001A62C0EBC00202EB4202234603EB820298
:10136000137AC0EBC00202EB420204EB8202527A13
:1013700003EB0222C0EBC00303EB430304EB830344
:10138000DA61C0EBC00202EB4202234603EB8202A9
:10139000937AC0EBC00202EB420204EB8202D27AE3
:1013A00003EB0222C0EBC00303EB430304EB830314
:1013B0009A61C0EBC00202EB4202234603EB8202B9
:1013C000127BC0EBC00303EB430304EB83035A62BD
:1013D000C0EBC00202EB4202234603EB8202527BC7
:1013E000C0EBC00303EB430304EB830383F85220F9
:1013F000C0EBC00202EB4202234603EB8202927B67
:10140000C0EBC00303EB430304EB830383F83E20EC
:10141000C0EBC00202EB4202234603EB820200E073
:1014200011E0137CC0EBC00202EB420204EB82022B
:10143000527C03EB0222C0EBC00303EB430304EB3B
:101440008303DA642DE04FF00002C0EBC00303EB2E
:101450004303874C04EB83039A61C0EBC00303EBA7
:10146000430304EB83031A62C0EBC00303EB4303A3
:1014700004EB8303DA61C0EBC00303EB430304EB2B
:1014800083035A62C0EBC00303EB430304EB830303
:1014900083F83E20C0EBC00303EB430304EB83035C
:1014A000DA64C0EBC00202EB4202714B03EB820232
:1014B000926940F26C739A421ADDC0EBC00202EBF3
:1014C00042026B4B03EB82029269B2F5166F0FDC9E
:1014D000C0EBC00202EB420203EB82029269A2F26D
:1014E0006C724FF0320392FBF3F2624B1A7013E00E
:1014F000C0EBC00202EB42025D4B03EB8202926939
:10150000B2F5166F04DD4FF00A025A4B1A7003E071
:101510004FF00002574B1A70564A12780A2A03DD20
:101520004FF00A02534B1A70C0EBC00202EB4202AA
:101530004F4B03EB8202926912B24F4B1A80C0EB01
:10154000C00202EB42024A4B03EB8202126A002AFB
:101550001ADDC0EBC00202EB420203EB8202126A08
:101560009B2A11DCC0EBC00202EB420203EB8202B9
:10157000126A02EB82024FEA42024FF0960392FB9C
:10158000F3F23E4B1A7012E0C0EBC00202EB4202D3
:10159000374B03EB8202126A9B2A04DD4FF00002F4
:1015A000364B1A7003E04FF00002344B1A70334A86
:1015B00012780A2A03DD4FF00A02304B1A70C0EB92
:1015C000C00202EB42022A4B03EB8202126A12B201
:1015D0002B4B1A80C0EBC00202EB4202244B03EB00
:1015E0008202526A12B2274B1A80274AB2F90020AF
:1015F0001146264AB2F9002001FB02F14FF4C8520D
:1016000091FBF2F211460AB2214B1A80B1F5FA7F32
:101610000BDDB1F5347F08DCA1F5FA724FF016034B
:1016200092FBF3F20F4B1A700BE0B1F5347F04DD3F
:101630004FF00A020B4B1A7003E04FF00002094B07
:101640001A70084A12780A2A03DD4FF00A02054B85
:101650001A700D4A52880F4B1A8010BD00C0092025
:10166000A900001042000010AA00001014E007209A
:10167000E80600104000001036E00720410000108E
:1016800038E007203AE00720D80E00104E00001086
:101690002EE0072030E00720FF48406820F440306B
:1016A00040F48030FC4948600846406820F44040DF
:1016B00040F4804048600846406C20F4403040F4DC
:1016C000003048640846406C20F4404040F400403C
:1016D0004864F248006820F0E060F049086008467D
:1016E000006840F4001008600846006820F480306C
:1016F00008600846006820F47F4040F4807008606D
:101700004FF48070C8604FF016004FF0010101FAED
:1017100000F14FEA50124FF0E02303EB8202C2F8CF
:10172000001100BF704710B5DD494988DC4A1288B6
:10173000891A09B20846FFF7C7F8DA490880D8497C
:101740008988D74A5288891A09B20846FFF7BCF837
:10175000D4494880D2498988D14A1288891A09B265
:101760000846FFF7B1F8CF4988800846B0F9040071
:10177000B0F5967F04DACA488088CB49088014E027
:10178000C848B0F90200B0F5967F04DAC448408832
:10179000C549088009E0C348B0F90000B0F5967F5C
:1017A00003DABF480088C0490880C0480078002894
:1017B0004BD0BF480068BC49B1F900100844BC498F
:1017C000086008464068B849B1F900100844B849B3
:1017D000486008468068B449B1F900100844B4492B
:1017E00088600846C068B049B1F900100844B049A3
:1017F000C860B048008800F1010000B2AD4908801F
:101800000846B0F90000B0F5805F02DB4FF0000041
:101810000880A84800888005800D60D1A548B0F9EF
:1018200000004FEAA020A24951F82000C0F30F2089
:10183000A14908804FF000009E49B1F900104FEA1D
:10184000A1219B4A42F8210049E0984800780028ED
:1018500045D19548B0F900009849994A127801EBB2
:101860008211984A127841F822009648007810F0C8
:10187000030F1CD14FF00002114610460CE08F4AB6
:101880008F4B1B7802EB831252F820200A4411463A
:1018900000F10102D2B210461028F0DB4FEA21120B
:1018A00012B2894B864C247823F8142000BF844858
:1018B0000078401CC0B28249087010280FDB4FF03E
:1018C000000008707F48007800F101007D49087031
:1018D00008460078102802DB4FF0000008704FF037
:1018E00000007A4908707148007800F101006F49E2
:1018F00008700846007800F001000870084600787B
:1019000058B17348006C40F0800071490864084683
:10191000406D40F0800048651EE06D48006C40F06E
:1019200080006B4908640846406D20F080004865DF
:101930006348007840B95948006820F0FF0000F182
:1019400001005649086007E05448006820F0FF0095
:1019500000F10200514908605048006840F0807072
:101960004E49086010BD5A48006A40F400005849CA
:101970000862584890F84D0210F01F0F05D0084635
:10198000C06B40F40000C86305E05148806B40F430
:1019900000004F498863704770B50446C4EBC4002B
:1019A00000EB40004B4901EB800090F83E000546FB
:1019B000C4EBC40000EB400001EB8000006A6E281D
:1019C00043DBC4EBC40000EB400001EB8000B0F946
:1019D00040000A2838DAC4EBC40000EB400001EBF9
:1019E0008000B0F8400000F1010000B2C4EBC40177
:1019F00001EB4101374A02EB8101A1F84000C4EB41
:101A0000C40000EB4000114601EB8000B0F940003B
:101A10000A2819DB4FF00A00C4EBC40101EB4101B5
:101A200002EB8101A1F84000C4EBC40000EB4000D0
:101A3000114601EB8000407810F0200F04D1012204
:101A40000521204600F078FD84E0C4EBC40000EBE3
:101A50004000204901EB8000006A6E287ADAC4EB6E
:101A6000C40000EB400001EB8000B0F9400000280A
:101A70005ADDC4EBC40000EB400001EB8000B0F87D
:101A80004000A0F1010000B2C4EBC40101EB410130
:101A9000104A02EB81011FE000C0024000400340F9
:101AA000BC000010C2000010CC000010B2000010FA
:101AB000380F0010CE000010B8000010D80A001037
:101AC000B5000010B6000010D80E0010B1000010D4
:101AD00000C00920E8060010A1F84000C4EBC400D3
:101AE00000EB4000114601EB8000B0F940000028F7
:101AF00030DC4FF00000C4EBC40101EB410102EB0C
:101B00008101A1F84000C4EBC40000EB4000114685
:101B100001EB8000407810F0200F1BD0002205213F
:101B2000204600F009FD15E0C4EBC40000EB4000C6
:101B3000FF4901EB8000B0F9400000280ADA4FF0BD
:101B40000000C4EBC40101EB4101F94A02EB810141
:101B5000A1F8400015F0010F44D0C4EBC40000EB25
:101B60004000F34901EB8000B0F942000A2838DA5E
:101B7000C4EBC40000EB400001EB8000B0F8420071
:101B800000F1010000B2C4EBC40101EB4101E84ADD
:101B900002EB8101A1F84200C4EBC40000EB40005D
:101BA000114601EB8000B0F942000A2878DB4FF0C3
:101BB0000A00C4EBC40101EB410102EB8101A1F871
:101BC0004200C4EBC40000EB4000114601EB800072
:101BD000407810F0100F63D101220421204600F05C
:101BE000ABFC5DE015F0010F5AD1C4EBC40000EB73
:101BF0004000CF4901EB8000B0F94200002839DDF8
:101C0000C4EBC40000EB400001EB8000B0F84200E0
:101C1000A0F1010000B2C4EBC40101EB4101C44AD0
:101C200002EB8101A1F84200C4EBC40000EB4000CC
:101C3000114601EB8000B0F94200002830DC4FF083
:101C40000000C4EBC40101EB410102EB8101A1F8EA
:101C50004200C4EBC40000EB4000114601EB8000E1
:101C6000407810F0100F1BD000220421204600F015
:101C700063FC15E0C4EBC40000EB4000AC4901EB91
:101C80008000B0F9420000280ADA4FF00000C4EBEF
:101C9000C40101EB4101A64A02EB8101A1F8420017
:101CA00015F0020F46D0C4EBC40000EB4000A04981
:101CB00001EB8000B0F94400B0F5966F74DAC4EB24
:101CC000C40000EB400001EB8000B0F8440000F1DC
:101CD000010000B2C4EBC40101EB4101944A02EBE4
:101CE0008101A1F84400C4EBC40000EB40001146A0
:101CF00001EB8000B0F94400B0F5966F54DB4FF46F
:101D00009660C4EBC40101EB410102EB8101A1F833
:101D10004400C4EBC40000EB4000114601EB80001E
:101D2000407810F0010F3FD101220021204600F041
:101D300003FC39E015F0020F36D1C4EBC40000EB10
:101D400040007B4901EB8000B0F8440060B3C4EB75
:101D5000C40000EB400001EB8000B0F84400A0F1AB
:101D6000010000B2C4EBC40101EB4101704A02EB77
:101D70008101A1F84400C4EBC40000EB400011460F
:101D800001EB8000B0F8440070B9C4EBC40000EB74
:101D9000400001EB8000407810F0010F04D00022D9
:101DA0001146204600F0C8FB15F0080F44D0C4EBE4
:101DB000C40000EB40005E4901EB8000B0F9460032
:101DC0000A2838DAC4EBC40000EB400001EB8000C5
:101DD000B0F8460000F1010000B2C4EBC40101EB11
:101DE0004101534A02EB8101A1F84600C4EBC40053
:101DF00000EB4000114601EB8000B0F946000A28D4
:101E00006DDB4FF00A00C4EBC40101EB410102EBB2
:101E10008101A1F84600C4EBC40000EB400011466C
:101E200001EB8000407810F0020F58D101221146DA
:101E3000204600F081FB52E015F0080F4FD1C4EBB3
:101E4000C40000EB40003A4901EB8000B0F94600C5
:101E500000282EDDC4EBC40000EB400001EB800045
:101E6000B0F84600A0F1010000B2C4EBC40101EBE0
:101E700041012F4A02EB8101A1F84600C4EBC400E6
:101E800000EB4000114601EB8000B0F8460030BB8B
:101E90004FF00000C4EBC40101EB410102EB8101F2
:101EA000A1F8460002464FF00101204600F044FB35
:101EB00015E0C4EBC40000EB40001D4901EB8000BD
:101EC000B0F9460000280ADA4FF00000C4EBC40164
:101ED00001EB4101164A02EB8101A1F8460015F021
:101EE000100F48D0C4EBC40000EB4000104901EBD8
:101EF0008000B0F948000A283CDAC4EBC40000EBCB
:101F0000400001EB8000B0F8480000F1010000B291
:101F1000C4EBC40101EB4101054A02EB8101A1F8C8
:101F20004800C4EBC40000EB4000114602E0000092
:101F3000E806001001EB8000B0F948000A2875DBC4
:101F40004FF00A00C4EBC40101EB410102EB810137
:101F5000A1F84800C4EBC40000EB4000114601EBBF
:101F60008000407810F0040F60D101220221204649
:101F700000F0E2FA5AE015F0100F57D1C4EBC4009C
:101F800000EB40002A4901EB8000B0F8480070B334
:101F9000C4EBC40000EB400001EB8000B0F8480047
:101FA000A0F1010000B2C4EBC40101EB4101204AE1
:101FB00002EB8101A1F84800C4EBC40000EB400033
:101FC000114601EB8000B0F8480078BB4FF00000EC
:101FD000C4EBC40101EB410102EB8101A1F848000F
:101FE00002464FF00201204600F0A6FA1EE0C4EBC4
:101FF000C40000EB40000E4901EB8000B0F948003E
:102000000A2813DDC4EBC40000EB400001EB8000A4
:10201000B0F84800A0F1010000B2C4EBC40101EB2C
:102020004101034A02EB8101A1F8480070BD0000A4
:10203000E806001010B5102002F0E9F900B28E4950
:102040000880142002F0E3F98C490880C82002F0CF
:10205000DEF900B28A490880CA2002F0D8F900B23D
:10206000884908804FF0000004460AE004F1CC01E2
:10207000084602F07EF98449085504F10100C0B217
:102080000446102CF2DB4FF0000004460AE004F195
:10209000DC01084602F06DF97C49085504F10100A5
:1020A000C0B20446102CF2DBEC2002F0B0F900B212
:1020B00077490880EE2002F0AAF900B2754908803D
:1020C000F02002F0A4F900B273490880F22002F077
:1020D0009EF900B271490880F42002F098F900B22C
:1020E0006F490880F62002F092F900B26D4908802D
:1020F000F82002F08CF900B26B490880FA2002F057
:1021000086F900B269490880FC2002F080F900B22B
:1021100067490880FE2002F07AF900B2654908801C
:102120004FF4807002F073F900B2634908804FF4F5
:10213000817002F06CF900B2604908804FF482703F
:1021400002F065F900B25E4908804FF4837002F036
:102150005EF900B25B4908804FF4847002F057F9D1
:1021600000B2594908804FF4857002F050F900B26E
:10217000564908804FF4867002F049F900B254497C
:1021800008804FF4877002F042F900B2514908808C
:102190004FF4887002F03BF900B24F4908804FF4C9
:1021A000897002F034F900B24C4908806E2002F0C8
:1021B0002EF900B24A490880702002F028F900B2D6
:1021C00048490880722002F022F900B2464908808E
:1021D000742002F01CF900B244490880762002F015
:1021E00016F900B242490880782002F010F900B2D6
:1021F000404908807A2002F00AF900B23E4908807E
:102200007C2002F004F900B23C4908807E2002F0F4
:10221000FEF800B23A490880802002F0F8F800B2D7
:1022200038490880822002F0F2F800B2364908806E
:10223000842002F0ECF800B2344908804FF4C870F2
:1022400002F0E5F800B2324908804FF4C97002F09C
:10225000DEF800B22F4908804FF4CA7002F0D7F8B8
:1022600000B22D4908804FF4CB7002F0D0F800B2D4
:102270002A49088010BD00004E00001052000010D6
:1022800074000010760000102010001030100010B4
:10229000780000107A0000107C0000107E00001012
:1022A00080000010820000108400001086000010E2
:1022B000880000108A0000108C0000108E000010B2
:1022C0009000001092000010940000109600001082
:1022D000980000109A0000109C0000109E00001052
:1022E0005C0000105E000010600000106200001032
:1022F0006400001066000010680000106A00001002
:102300006C0000106E0000107000001072000010D1
:10231000A0000010A2000010A4000010A6000010F1
:10232000FD49097841B1FD49096821F0010101F138
:102330000101FA4A116005E0F849096821F001013C
:10234000F64A11604FF0000077E0C0EBC00101EBEE
:102350004101F34A02EB81014978E1B1C0EBC001D0
:1023600001EB410112F82110032914D100F10301FE
:102370004FF0010202FA01F2E849096821EA02017C
:1023800000F103024FF0010303FA02F341EA0301F3
:10239000E24A11604DE0C0EBC00101EB4101E04AAF
:1023A00002EB81014978E1B1C0EBC00101EB4101D1
:1023B00012F82110052914D100F10F014FF001028C
:1023C00002FA01F2D549096821EA020100F10F027F
:1023D0004FF0010303FA02F341EA0301CF4A11600F
:1023E00027E000F103014FF0010202FA01F2CB49AC
:1023F000096821EA020100F103024FF0000303FA29
:1024000002F341EA0301C54A116000F10F014FF0E8
:10241000010202FA01F2C149096821EA020100F150
:102420000F024FF0000303FA02F341EA0301BB4A33
:10243000116000F10101C9B208460C2885DBB749DB
:102440000968B84A126881EA0201B44A126801EACE
:102450000201B54A1160B5490968126841EA0201F2
:10246000B24A1160AD490968AE4A126881EA0201B8
:10247000AC4A126801EA02016FEA0101AC4A11603C
:10248000AA490968126801EA0201A84A1160A34931
:102490000968A44A1160704738B50446012C27D159
:1024A000A44908704FF01E004FF4FA734FF0000279
:1024B0004FF0320100904FF0010001F0F9FD20468D
:1024C00095490870964890F84D0220F017009449FD
:1024D00081F84D024FF000019148A0F89012A0F849
:1024E0008E12A0F88C12A0F89212A0F8941222E09A
:1024F0004FF000008F4908700346024601460090E5
:1025000001F0D6FD4FF0000083490870844890F830
:102510004D0220F01700824981F84D024FF0000172
:102520007F48A0F89012A0F88E12A0F88C12A0F8A4
:102530009212A0F8941238BDF8B504460D4616461E
:10254000012E7DD1072CFCD1E5B9C4EBC40000EB12
:102550004000734901EB8000407840F00100C4EB7B
:10256000C40101EB41016E4A02EB8101487040F267
:1025700013134FF000024FF019014FF0010002F069
:1025800027FE99E0012D12D1C4EBC40000EB4000FE
:10259000634901EB8000407840F00200C4EBC401C5
:1025A00001EB41015E4A02EB8101487084E0022D9B
:1025B00012D1C4EBC40000EB4000594901EB80008C
:1025C000407840F00400C4EBC40101EB4101544ADF
:1025D00002EB810148706FE0032D1FD1C4EBC400F2
:1025E00000EB40004E4901EB8000407840F00800CD
:1025F000C4EBC40101EB4101494A02EB810148707F
:102600004FF000031A464FF064014FF0010002F052
:10261000DFFD4FF00000484908704DE0042D25D142
:10262000C4EBC40000EB40003D4901EB8000407862
:1026300040F01000C4EBC40101EB4101384A00E056
:1026400044E002EB810148704FF096034FF019020D
:1026500011464FF0020002F0BBFD00209623192224
:1026600011460090022001F023FD25E0052D23D125
:10267000C4EBC40000EB4000294901EB8000407826
:1026800040F02000C4EBC40101EB4101244A02EBFD
:10269000810148704FF0FA034FF000024FF019012A
:1026A0004FF0010002F094FD1E20FA2300221921B0
:1026B0000090012001F0FCFCC4EBC40000EB4000E2
:1026C000174901EB800080F85350D6E0002EFCD172
:1026D000072CFAD1FDB94FF000000F4908701048DF
:1026E00090F84D0220F03F000D4981F84D024FF067
:1026F00000010B48A0F88E12A0F88C12A0F89012DE
:10270000A0F89212A0F894120B461A4619461846E1
:1027100002F05EFDB1E011E0A9000010D000001051
:10272000E8060010D8000010DC000010D4000010F3
:10273000E00000104B0000104C000010012D12D1E1
:10274000C4EBC40000EB40004D4901EB8000407831
:1027500020F00200C4EBC40101EB4101484A02EB46
:102760008101487089E0022D12D1C4EBC40000EB56
:102770004000434901EB8000407820F00400C4EBA6
:10278000C40101EB41013E4A02EB8101487074E053
:10279000032D21D14FF000003A490870C4EBC4006A
:1027A00000EB4000364901EB8000407820F03F000C
:1027B000C4EBC40101EB4101314A02EB81014870D5
:1027C0004FF000031A461946184602F001FD4FF07B
:1027D00001002D49087050E0042D26D14FF0000073
:1027E00028490870264890F84D0220F03F002449FF
:1027F00081F84D024FF000012148A0F88E12A0F898
:102800008C12A0F89012A0F89212A0F894120B4625
:102810001A461946184602F0DBFC00200346024621
:102820000146009001F044FC27E0052D25D14FF032
:10283000000014490870124890F84D0220F03F0043
:102840000F4981F84D024FF000010D48A0F88E129B
:10285000A0F88C12A0F89012A0F89212A0F894128E
:102860000B461A461946184602F0B2FC00200346F1
:1028700002460146009001F01BFC00BFF8BD0000BD
:10288000E8060010A90000104C000010FF48B0F945
:102890000000FF490880FF48B0F90000FE490880A9
:1028A000FE4800884FEA0060FD49098800EB0140BE
:1028B000FC49B1F9001000EB0120FB49B1F900100F
:1028C0000844FA490860FA4800884FEA0060F9496C
:1028D000098800EB0140F849B1F9001000EB012034
:1028E000F649B1F900100844F5490860F548008838
:1028F0004FEA0060F449098800EB0140F349B1F95F
:10290000001000EB0120F249B1F900100844F14930
:102910000860F14800884FEA0060F049098800EB40
:102920000140EF49B1F9001000EB0120ED49B1F988
:1029300000100844EC490860EC4800884FEA006049
:10294000EB49098800EB0140EA49B1F9001000EBBE
:102950000120E949B1F900100844E8490860E84855
:1029600000884FEA0060E749098800EB0140E6492A
:10297000B1F9001000EB0120E449B1F9001008445E
:10298000E3490860E34800884FEA0060E2490988AB
:1029900000EB0140E149B1F9001000EB0120E049F2
:1029A000B1F900100844DF490860DF4800884FEAA9
:1029B0000060DE49098800EB0140DD49B1F90010F3
:1029C00000EB0120DB49B1F900100844DA49086046
:1029D000DA48B0F90000DA490880DA48B0F90000B6
:1029E0000880D948B0F90000D8490880D848B0F923
:1029F0000000D8490880704770B50546012D10D1F8
:102A00004FF000040BE0D44A125D114604F59672B3
:102A1000104601F04CFE04F10100C0B20446402C07
:102A2000F1DB70BD70B50546012D10D14FF00004EB
:102A30000BE0CA4A125D114604F1CC02104601F0C7
:102A400036FE04F10100C0B20446102CF1DB70BD6B
:102A500070B50546012D10D14FF000040BE0C04ABF
:102A6000125D114604F1DC02104601F020FE04F173
:102A70000100C0B20446102CF1DB70BD704710B5E8
:102A80000446012C05D18248B0F90010C82001F09D
:102A900052FE10BD10B50446012C05D17E48B0F998
:102AA0000010CA2001F047FE10BD10B50446012CED
:102AB0002FD17E480068C0B27B4908807B480068FF
:102AC000C0F307207749088078480068C0F30740C2
:102AD00073490880754800684FEA10606F490880A4
:102AE0007148B0F900104FF0EC0001F024FE6D4881
:102AF000B0F90010EE2001F01EFE6948B0F9001098
:102B0000F02001F018FE6548B0F90010F22001F045
:102B100012FE10BD10B50446012C2FD16848006884
:102B2000C0B26649088066480068C0F30720624961
:102B3000088063480068C0F307405E490880604829
:102B400000684FEA10605A4908805C48B0F90010EC
:102B50004FF0F40001F0EFFD5748B0F90010F620F7
:102B600001F0E9FD5348B0F90010F82001F0E3FD51
:102B70004F48B0F90010FA2001F0DDFD10BD10B58E
:102B80000446012C30D153480068C0B25049088037
:102B900050480068C0F307204C4908804D48006841
:102BA000C0F30740484908804A4800684FEA10606F
:102BB000444908804648B0F900104FF0FC0001F08D
:102BC000BAFD4248B0F90010FE2001F0B4FD3E48C5
:102BD000B0F90010200201F0AEFD3A48B0F9001043
:102BE0004FF4817001F0A7FD10BD10B50446012C13
:102BF00032D13D480068C0B23A4908803A4800687E
:102C0000C0F307203649088037480068C0F3074002
:102C100032490880344800684FEA10602E49088025
:102C20003048B0F900104FF4827001F084FD2C4858
:102C3000B0F900104FF4837001F07DFD2748B0F922
:102C400000104FF4847001F076FD2348B0F90010B5
:102C50004FF4857001F06FFD10BD10B50446012CD6
:102C600013D126480068C0B2234908802348006871
:102C7000C0F307201F49088020480068C0F30740C0
:102C80001B4908801D4800686CE08BE07400001050
:102C900040E007207600001042E007207E00001090
:102CA0007C0000107A0000107800001044E007203B
:102CB00086000010840000108200001080000010C8
:102CC00048E007208E0000108C0000108A000010E1
:102CD000880000104CE007209600001094000010BF
:102CE000920000109000001050E007209E0000109D
:102CF0009C0000109A0000109800001054E007207B
:102D000062000010600000105E0000105C00001007
:102D100058E007206A0000106800001066000010EC
:102D2000640000105CE007207200001070000010CA
:102D30006E0000106C00001060E00720A000001082
:102D400066E00720A2000010A400001068E0072041
:102D5000A60000106AE00720580F00102010001095
:102D6000301000104FEA1060FF490880FF48B0F9AA
:102D700000104FF4867001F0DEFCFD48B0F9001041
:102D80004FF4877001F0D7FCFA48B0F900104FF407
:102D9000887001F0D0FCF448B0F900104FF489704D
:102DA00001F0C9FC10BD10B50446012C2FD1F2482A
:102DB0000068C0B2F1490880EF480068C0F30720FE
:102DC000EF490880EC480068C0F30740ED490880EF
:102DD000E94800684FEA1060EB490880E748B0F91D
:102DE00000104FF06E0001F0A6FCE548B0F90010AD
:102DF000702001F0A0FCE348B0F90010722001F04F
:102E00009AFCE148B0F90010742001F094FC10BD68
:102E100010B50446012C2FD1DC480068C0B2DC4953
:102E20000880DA480068C0F30720DA490880D748EC
:102E30000068C0F30740D8490880D44800684FEACA
:102E40001060D6490880D248B0F900104FF07600E3
:102E500001F071FCCF48B0F90010782001F06BFC54
:102E6000CD48B0F900107A2001F065FCCB48B0F9EC
:102E700000107C2001F05FFC10BD10B50446012C51
:102E80002FD1C7480068C0B2C6490880C44800684E
:102E9000C0F30720C4490880C1480068C0F3074058
:102EA000C2490880BE4800684FEA1060C0490880E7
:102EB000BC48B0F900104FF07E0001F03CFCBA486D
:102EC000B0F90010802001F036FCB848B0F90010CD
:102ED000822001F030FCB648B0F90010842001F0E7
:102EE0002AFC10BD10B50446012C06D1B148B0F93A
:102EF00000104FF4C87001F01EFC10BD10B5044660
:102F0000012C06D1AC48B0F900104FF4C97001F0A3
:102F100012FC10BD10B50446012C06D1A748B0F92B
:102F200000104FF4CA7001F006FC10BD10B5044645
:102F3000012C06D1A248B0F900104FF4CB7001F07B
:102F4000FAFB10BD70477047704770477047704775
:102F50007047704770477047012806D100BF4EF692
:102F6000EE61984A118000BF00BF70472DE9F04321
:102F700085B004460F4615461E46DDE90C894FF024
:102F8000140291A1684602F029FD4FF00A0094FB5B
:102F9000F0F100FB114000F13000C0B28DF80100EB
:102FA0004FF00A0094FBF0F000F13000C0B28DF851
:102FB00000008C4800EB87000188ADF80310807892
:102FC0008DF805004FF00A0095FBF0F100FB115061
:102FD00000F13000C0B28DF808004FF00A0095FBF8
:102FE000F0F000F13000C0B28DF807004FF00A0099
:102FF00096FBF0F100FB116000F13000C0B28DF8DB
:103000000C004FF00A0096FBF0F000F13000C0B267
:103010008DF80B004FF00A0098FBF0F100FB1180D7
:1030200000F13000C0B28DF80F004FF00A0098FB9D
:10303000F0F000F13000C0B28DF80E004FF00A0041
:1030400099FBF0F100FB119000F13000C0B28DF857
:1030500012004FF00A0099FBF0F000F13000C0B20E
:103060008DF81100684605B0BDE8F08301B590B059
:103070005D49109801EBC0104E225C49079002F0A8
:10308000ADFC08984FEA401008900EA9089801F08E
:103090006CFA09A90898001D01F067FA0DA90898B3
:1030A000083001F062FA0CA908980C3001F05DFAC2
:1030B0000BA90898103001F058FA0AA908981430A2
:1030C00001F053FA9DF83800552838D19DF83A00A0
:1030D000522833D14449109801EBC010322244A148
:1030E000079002F07BFC9DF832009DF83110CDE98D
:1030F00000109DF8300006909DF8340005909DF872
:10310000350004909DF83600039004A90EC9FFF71E
:103110002DFF35490790109801EBC0101130142293
:103120000690079902F05AFC2F49109801EBC01045
:10313000283014223CA1079002F050FCA7E29DF831
:10314000380050280FD14FF000000F9026491098FA
:1031500001EBC0110F9808444FF0170238A10790F7
:1031600002F03CFC7AE0FFE09E00001098000010A6
:103170009A0000109C00001058E007205C0000102E
:103180005E00001060000010620000105CE007208C
:103190006400001066000010680000106A00001053
:1031A00060E007206C0000106E000010700000103E
:1031B0007200001064E0072066E0072068E0072046
:1031C0006AE007203CE0072030302FFFEDE22F308F
:1031D00030202030303A30303A303020202020204B
:1031E00020200000487B000000C007207C7B0000FE
:1031F000C2EAEBFEF7E5EDE8E520C8C1DDCFE0402F
:1032000020202020202020202020202020202020BE
:1032100020202020202020202020202020202020AE
:1032200020202020202000004020202020202020BE
:10323000202020202020202020202020000000000E
:10324000C0E2E0F0E8FF20EFE8F2E0FEF9E5E92077
:10325000F1E5F2E820402020000000000F9800F186
:1032600017000F909DF832009DF83110CDE9001045
:103270009DF8300006909DF8340005909DF83500CB
:1032800004909DF83600039004A90EC9FFF76EFE66
:10329000FF490790109801EBC0110F9808441322C2
:1032A0000690079902F09AFB0F9800F113000F9017
:1032B0004FF04001F64A109802EBC0120F981154DB
:1032C0000F9800F101000F909DF82C00412814D1B7
:1032D0009DF82D00412810D1ED49109801EBC01147
:1032E0000F9808440D22EBA1079002F077FB0F988E
:1032F00000F10D00C0B20F9020E7E549109801EBF6
:10330000C0110F980844E7A10A6802604A68426049
:103310000A890281897A81720F9800F10B00C0B28C
:103320000F909DF82A009DF82910CDE900109DF816
:10333000280006909DF82C0005909DF82D00049023
:103340009DF82E00039004A90EC9FFF70FFED04987
:103350000790109801EBC0110F98084413220690B3
:10336000079902F03BFBE9E69DF83800422874D14A
:103370004FF000000F909DF83A0043286CD1C449EB
:10338000109801EBC0110F9808441522C9A10790AD
:1033900002F024FB0F9800F11500C0B20F909DF8C9
:1033A00032009DF83110CDE900109DF830000690F4
:1033B0009DF8340005909DF8350004909DF8360086
:1033C000039004A90EC9FFF7D1FDB14907901098E9
:1033D00001EBC0110F98084413220690079902F0E0
:1033E000FDFA0F9800F11300C0B20F904FF04001AA
:1033F000A74A109802EBC0120F9811540F9800F1D1
:103400000100C0B20F90A249109801EBC0110F98B3
:1034100008444FF01602ADA1079002F0DFFA0F98B2
:1034200000F11600C0B20F909DF82C00412815D174
:103430009DF82D00412811D19549109801EBC0113C
:103440000F9808440D2293A1079002F0C7FA0F9835
:1034500000F10D00C0B20F9036E0CEE28C4910981A
:1034600001EBC0110F9801448EA002680A60426807
:103470004A6002890A81807A88720F9800F10B00F5
:10348000C0B20F909DF82A009DF82910CDE90010D8
:103490009DF8280006909DF82C0005909DF82D00C1
:1034A00004909DF82E00039004A90EC9FFF75EFD5D
:1034B00077490790109801EBC0110F980844132228
:1034C0000690079902F08AFA9DF83A005A285BD1D3
:1034D0006F49109801EBC0110F980844202281A178
:1034E000079002F07BFA0F9800F12000C0B20F9015
:1034F0009DF832009DF83110CDE900109DF83000A4
:1035000006909DF8340005909DF8350004909DF8D4
:103510003600039004A90EC9FFF728FD5C49079007
:10352000109801EBC0110F980844132206900799D8
:1035300002F054FA0F9800F11300C0B20F904FF050
:103540004001534A109802EBC0120F9811540F9883
:1035500000F10100C0B20F909DF82C00412814D159
:103560009DF82D00412810D14949109801EBC01158
:103570000F9808440D2264A1079002F02FFA0F98CB
:1035800000F10D00C0B20F9035E04149109801EBF9
:10359000C0110F98014460A002680A6042684A6046
:1035A00002890A81807A88720F9800F10B00C0B2FC
:1035B0000F909DF82A009DF82910CDE900109DF884
:1035C000280006909DF82C0005909DF82D00049091
:1035D0009DF82E00039004A90EC9FFF7C7FC2C49E3
:1035E0000790109801EBC0110F9808441322069021
:1035F000079902F0F3F99DF83A004B2847D1244986
:10360000109801EBC0110F9808441D2246A10790A5
:1036100002F0E4F90F9800F11D00C0B20F909DF880
:1036200032009DF83110CDE900109DF83000069071
:103630009DF8340005909DF8350004909DF8360003
:10364000039004A90EC9FFF791FC11490790109847
:1036500001EBC0110F98084413220690079902F05D
:10366000BDF90F9800F11300C0B20F904FF0400168
:10367000074A109802EBC0120F9811540F9800F1EE
:103680000100C0B20F909DF82C0041285CE0D7E209
:1036900000C0072020EDE520F3F1F2F0E0EDE5EDCC
:1036A000E020200020F3F1F2F0E0EDE5EDE0202055
:1036B00020000000C1E0F2E0F0E5FF2E2020C0E293
:1036C000E0F0E8FF2121212040202000C1E0F2E0CD
:1036D000F0E5FF20EDE520EEE1EDE0F0F3E6E5EDCD
:1036E000E02C2000C1E0F2E0F0E5FF2E2020C2FB3C
:1036F000F0E0E2EDE8E2E0FEF9E8E920E7E0F0FFE3
:10370000E42040202000000020EDE520E7E0E2E595
:10371000F0F8E5ED2020000020E7E0E2E5F0F8E534
:10372000ED20202000000000C1E0F2E0F0E5FF2ED7
:103730002020CAEEEDF2F0EEEBFC20E5ECEAEEF133
:10374000F2E820402020000015D19DF82D004128EE
:1037500011D1FE49109801EBC0110F9808440D22B9
:10376000AFF25C01079002F039F90F9800F10D00FB
:10377000C0B20F9097E2F549109801EBC0110F9875
:103780000844AFF26C010A6802604A6842600A8924
:103790000281897A81720F9800F10B00C0B20F90FC
:1037A0009DF82A009DF82910CDE900109DF8280009
:1037B00005909DF82C0004909DF82D0003909DF835
:1037C0002E00029003A90EC9FFF7D0FBDF49069037
:1037D000109801EBC0110F98084413220590069928
:1037E00002F0FCF8D949109801EBC0110F98084479
:1037F0002722D7A1069002F0F1F89DF837109DF826
:10380000330001EB002000B207904FF00A01079847
:1038100090FBF1F201FB120000F13000C1B2CB4A83
:10382000109802EBC0120F9800F10A0011544FF0EB
:103830000A01079890FBF1F000B20790079890FBFF
:10384000F1F201FB120000F13000C1B2BF4A109842
:1038500002EBC0120F9800F1080011544FF00A015A
:10386000079890FBF1F000B20790079880B1079895
:1038700090FBF1F201FB120000F13000C1B2B34A3B
:10388000109802EBC0120F9800F10700115409E0E4
:103890004FF02001AD4A109802EBC0120F9800F1D2
:1038A000070011549DF826109DF8270001EB002019
:1038B00000B207904FF00A01079890FBF1F201FB6C
:1038C000120000F13000C1B2A04A109802EBC01201
:1038D0000F9800F1160011544FF00A01079890FB61
:1038E000F1F000B20790079890FBF1F201FB120093
:1038F00000F13000C1B2954A109802EBC0120F9847
:1039000000F1140011544FF00A01079890FBF1F0F8
:1039100000B20790079880B1079890FBF1F201FB85
:10392000120000F13000C1B2884A109802EBC012B8
:103930000F9800F11300115409E04FF02001834A61
:10394000109802EBC0120F9800F1130011549DF86B
:1039500024109DF8250001EB002000B207904FF0E5
:103960000A02079890FBF2F102FB110000F130000F
:10397000C1B2764A109802EBC0120F9800F12300F2
:1039800011544FF00A01079890FBF1F000B2079034
:10399000079890FBF1F201FB120000F13000C1B278
:1039A0006A4A109802EBC0120F9800F121001154DE
:1039B0004FF00A01079890FBF1F000B207900798CA
:1039C00080B1079890FBF1F201FB120000F130008A
:1039D000C1B25E4A109802EBC0120F9800F12000AD
:1039E000115409E04FF02001584A109802EBC01220
:1039F0000F9800F12000115455E19DF8380053282C
:103A0000FAD14FF000000F905049109801EBC01010
:103A10005AA10A680260898881804FF006000F90E1
:103A20009DF8390000F13100C1B2484A109802EB0C
:103A3000C01041714FF007000F901146109801EB34
:103A4000C0110F9808444FF00E024FA1079001F0EB
:103A5000C5FF0F9800F10E000F909DF832009DF801
:103A60003110CDE900109DF8300006909DF834002B
:103A700005909DF8350004909DF83600039004A948
:103A80000EC9FFF773FA31490790109801EBC01186
:103A90000F98084413220690079901F09FFF0F9892
:103AA00000F114000F909DF83A004C280DD12749E1
:103AB000109801EBC0102830142237A1079001F0B4
:103AC0008DFF4FF041000F90A2E09DF83A0054287E
:103AD00012D11E49109801EBC0110F98014435A076
:103AE00002680A6042684A60008908810F9800F104
:103AF0000A00C0B20F908BE09DF83A00552810D113
:103B00001249109801EBC0110F98084410222DA102
:103B1000079001F063FF0F9800F11000C0B20F9002
:103B200076E09DF83A00752860D10849109801EBBD
:103B3000C0110F980844102227A1079001F04EFFF2
:103B40000F9800F11000C0B20F9061E000C0072094
:103B50002C2055EDE0F72020202C20C22C2055EA07
:103B6000EEED2020202C20C22C2043E1E0F220208A
:103B700020202C20C02AF72000000000C1CFD12037
:103B8000B920202020202000202020C0E2E0F0E802
:103B9000FF2121214020200040EEF2EAEBFEF7E871
:103BA000EBF1FF202020202020202020202020209A
:103BB000000000004020EFE5F0E5E3F0E5E2202022
:103BC000200000004020E7E0E2FBF8E5EDEE2055A4
:103BD000E2FBF52E202000004020E7E0EDE8E6E5DE
:103BE000EDEE2055E2FBF52E202000005449109800
:103BF00001EBC0110F98084452A10A6802608A883C
:103C00008280897981710F9800F10700C0B20F900E
:103C10009DF82C00412814D19DF82D00412810D189
:103C20004749109801EBC0110F9808440F2248A192
:103C3000079001F0D3FE0F9800F10F00C0B20F9073
:103C400031E03F49109801EBC0110F9808440D2254
:103C500044A1079001F0C2FE0F9800F10D00C0B220
:103C60000F909DF82A009DF82910CDE900109DF8CD
:103C7000280006909DF82C0005909DF82D000490DA
:103C80009DF82E00039004A90EC9FFF76FF92C4987
:103C90000790109801EBC0110F980844132206906A
:103CA000079901F09BFE11B000BD3CB502460B46E2
:103CB0004FF00004204607E04FF000042D4D2C5437
:103CC00000F10104E4B220466428F5DB4FF0000463
:103CD000ADF800404FF00101F2B1BDF8004004F131
:103CE0000104A4B2ADF800404FF00004204606E005
:103CF000145C204D2C5400F10104E4B220466428E9
:103D000002DA145C002CF3D14FF026042DF8114098
:103D100001F10104E4B22146A3F57F44FF3C0DD03C
:103D2000BDF8004004F10104A4B2ADF800401CB29B
:103D3000114D2C804FF027042DF811403CBD0000A0
:103D400000C007204020F4E8E3EDFF202000000041
:103D50002C20EDE520F3F1F2F0E0EDE5EDE02020A0
:103D6000000000002C2020F3F1F2F0E0EDE5EDE0A2
:103D700020202000BC0F001034E0072010B54FF0C9
:103D800000031A46BA4B1B6C41F2FF3443EA0403AA
:103D9000B74C2364B74B1B6843F04053C4F88030E2
:103DA00023461B6843F0CC4323602346DB6D43F47A
:103DB0008053E3652346D3F89C3043F04053C4F866
:103DC0009C302346DB6D41F2FF3443EA0403A84CE8
:103DD000E365A94B1B78032B0CD1A84B1B78A84C8F
:103DE0002370A84B1B78A84C2370A64B1B78A74CBC
:103DF00023702DE0A64B1B78032B0CD1A14B1B7815
:103E00009F4C2370A34B1B789F4C23709D4B1B78BA
:103E10009E4C23701CE0A04B1B78032B0CD1994BBC
:103E20001B78974C2370974B1B78974C23709B4BB8
:103E30001B78964C23700BE0904B1B78904C2370B2
:103E4000944B1B78904C2370944B1B788F4C2370B1
:103E5000934B1B785B1CDBB2914C2370012B04D07D
:103E6000022B45D0032B76D187E04FF001004FF0B5
:103E7000000107E04FEA40031BB2184601F10103BD
:103E8000DBB219467E4B1B789942F3DB7A4B1B78E9
:103E9000012B12D1A0F101031BB218464FF0000311
:103EA0001A4607E04FF4007303EB62031A464FEA29
:103EB000600318460028F5D10EE06F4B1B78022BEB
:103EC00006D1034600EBD3744FEA6404224603E0B4
:103ED000A0F101031BB21A46654B9B6D43EA020336
:103EE000634CA36523469B6D43F48053A36591E027
:103EF0004FF001004FF0000107E04FEA40031BB212
:103F0000184601F10103DBB219465F4B1B78994259
:103F1000F3DB5F4B1B78012B12D1A0F101031BB225
:103F200018464FF000031A4607E04FF4007303EB06
:103F300062031A464FEA600318460028F5D10FE0E5
:103F4000534B1B78022B07D1034600EBD3744FEA87
:103F50006404224604E058E0A0F101031BB21A46B3
:103F6000434B9B6D43EA0203414CA3654D4B1B68D9
:103F700043F08053C4F898304CE04FF001004FF00C
:103F8000000107E04FEA40031BB2184601F10103AC
:103F9000DBB219463D4B1B789942F3DB3E4B1B7855
:103FA000012B12D1A0F101031BB218464FF0000300
:103FB0001A4607E04FF4007303EB62031A464FEA18
:103FC000600318460028F5D10EE0334B1B78022B16
:103FD00006D1034600EBD3744FEA6404224603E0A3
:103FE000A0F101031BB21A46214B9B6D43EA020369
:103FF0001F4CA3652B4B1B6843F00053C4F898304B
:104000004FF00003264C237004E04FF00003244CD3
:10401000237000BF00BF244B1B785BB9144BDB69D6
:1040200043F08043124CE36123469B6943F0005305
:10403000A3610AE00E4BDB6943F000530C4CE361D3
:1040400023469B6943F08043A361184B1B78012BE7
:1040500006D1074B9B6943F00073054CA36105E053
:10406000034BDB6943F00073014CE36110BD0000BA
:1040700000C0092080C00920480000104000001046
:1040800044000010470000104500001046000010DA
:1040900049000010410000104A00001042000010CA
:1040A000F500001098C009204B0000104C000010D3
:1040B00070B5049C604D2D78A8420ED15F4DB5F9C6
:1040C0000050A94209D15E4DB5F90050AA4204D171
:1040D0005C4DB5F90050AB4211D0574D2870574D8B
:1040E0002980574D2A80574D2B804FF0640504FBE3
:1040F00005F5554E35804FF00105544E357070BDB5
:1041000008B55348006A40F00060514908624F48C2
:10411000007888B10846C06B40F00060C8634FF07B
:1041200001004C4908704FF000004B4908804B4992
:104130000880464908707DE03F480078002879D023
:104140004548B0F900003D49B1F9001088420DDA48
:104150003F48806B40F000603D4988633E480088DE
:1041600000F1010000B23C4908804CE03948007879
:1041700031490978884224DA3048B0F900003049E2
:10418000B1F9001008443449B1F9001088420DDD3E
:104190002F48C06B40F000602D49C8632E4800884E
:1041A00000F1010000B22C4908802CE04FF0000023
:1041B000294908802748007800F101002549087046
:1041C00021E01E48B0F900001E49B1F90010084472
:1041D0002149B1F9001088420DDD1D48C06B40F047
:1041E00000601B49C8631C48008800F1010000B250
:1041F0001949088007E04FF00000174908804FF088
:104200000100144908701048008898B11348B0F9AB
:1042100000100088401C00B2104A10800A48B0F913
:104220000000814206D1002003460246014600906C
:10423000FFF73EFF08BD0000F7000010FA00001075
:10424000FC000010FE00001000010010F60000103D
:1042500000C00920F8000010020100100401001045
:104260000146FD48816000BFFB48406810F0800FA8
:10427000FAD0F9488068C0B27047F848006840F04A
:104280004040F64908600846406820F00300486056
:104290000846406840F00C0048600846406840F01E
:1042A000300048604FF00800EB49C8604FF0200034
:1042B00008607047E948006820F04040E74908601E
:1042C0000846406820F0030048600846406820F037
:1042D0000C0048600846406820F0300048604FF00D
:1042E0000000DD490860704700B5FFF7C6FFDC48F5
:1042F000006840F48010DA4908600846C06940F45C
:104300008010C8614FF00600FFF7AAFFD44800688C
:1043100040F48010D24908600846806940F480105B
:104320008861FFF7C7FF00BD00B5FFF7A6FFCC48C7
:10433000006840F48010CA4908600846C06940F42B
:104340008010C8614FF00500FFF78AFFFF20FFF7DC
:1043500087FF0246C248006840F48010C0490860E8
:104360000846806940F480108861FFF7A3FF10467B
:1043700000BD01B54FF00000034600BFFFF7D4FFBA
:1043800010F0010FFAD1FFF778FFB548006840F44C
:104390008010B34908600846C06940F48010C861C5
:1043A0000846006840F4801008600846C06940F480
:1043B0008010C8614FF00300FFF752FF9DF8010025
:1043C00003461846FFF74CFF9DF8000003461846C9
:1043D000FFF746FFFF20FFF743FF0346A0480068B2
:1043E00040F480109E4908600846806940F48010BF
:1043F00088610846006840F48010086008468069BB
:1044000040F480108861FFF755FF184608BD11B5CC
:1044100000BFFFF789FF10F0010FFAD1FFF72DFF62
:104420008F48006840F480108D4908600846C069D4
:1044300040F48010C8614FF00300FFF711FF9DF8B2
:10444000010004462046FFF70BFF9DF800000446DC
:104450002046FFF705FFFF20FFF702FF04464FF05D
:10446000FF00FFF7FDFE03464FEA0320034603EB80
:10447000040003467A48006840F4801078490860D8
:104480000846806940F4801088610846006840F45E
:10449000801008600846806940F480108861FFF74A
:1044A00009FF184618BD71B500BFFFF73DFF10F0BA
:1044B000010FFAD1FFF7E1FE6948006840F480106F
:1044C000674908600846C06940F48010C8614FF031
:1044D0000300FFF7C5FE9DF8010004462046FFF7E4
:1044E000BFFE9DF8000004462046FFF7B9FEFF20FE
:1044F000FFF7B6FE04464FF0FF00FFF7B1FE064699
:104500004FF0FF00FFF7ACFE05464FF0FF00FFF74E
:10451000A7FE03464FEA0320034603EB05000346CC
:104520004FEA0320034603EB060003464FEA03204D
:10453000034603EB040003464948006840F480103A
:10454000474908600846806940F480108861084641
:10455000006840F4801008600846806940F48010CC
:104560008861FFF7A7FE184678BD13B50B4600BF5C
:10457000FFF7DAFE10F0010FFAD1FFF77EFE3848A0
:10458000006840F48010364908600846C06940F46D
:104590008010C8614FF00300FFF762FE9DF8010034
:1045A00004462046FFF75CFE9DF8000004462046C6
:1045B000FFF756FEFF20FFF753FE1870FF20FFF7AE
:1045C0004FFE5870FF20FFF74BFE9870FF20FFF75B
:1045D00047FED8702248006840F4801020490860E7
:1045E0000846806940F4801088610846006840F4FD
:1045F000801008600846806940F480108861FFF7E9
:1046000059FE1CBD77B50B46154600BFFFF78CFE63
:1046100010F0010FFAD1FFF730FE1148006840F4A6
:1046200080100F4908600846C06940F48010C861D6
:104630004FF00300FFF714FE9DF8010006463046D8
:10464000FFF70EFE9DF8000006463046FFF708FE15
:104650004FF0000411E000000000024000C00240E2
:1046600000C00920FF20FFF7FBFD187003F10100D7
:10467000034604F10100C0B20446AC42F2DBA94893
:10468000006840F48010A74908600846806940F43B
:10469000801088610846006840F480100860084671
:1046A000806940F480108861FFF704FE7EBD13B579
:1046B0000B4600BFFFF738FE10F0010FFAD1FFF7ED
:1046C00013FEFFF7DAFD9748006840F48010954923
:1046D00008600846C06940F48010C8614FF00200CD
:1046E000FFF7BEFD9DF8010004462046FFF7B8FD28
:1046F0009DF8000004462046FFF7B2FD1846FFF77C
:10470000AFFD04468748006840F480108549086082
:104710000846806940F4801088610846006840F4CB
:10472000801008600846806940F480108861FFF7B7
:10473000C1FD20461CBD03B500BFFFF7F5FD10F01D
:10474000010FFAD1FFF7D0FDFFF797FD754800681C
:1047500040F48010734908600846C06940F4801036
:10476000C8614FF00200FFF77BFD9DF80100034692
:104770001846FFF775FD9DF8000003461846FFF741
:104780006FFD9DF8040003461846FFF769FD9DF88C
:10479000050003461846FFF763FD6248006840F4D1
:1047A0008010604908600846806940F48010886184
:1047B0000846006840F4801008600846806940F4AC
:1047C00080108861FFF776FD18460CBD03B500BF69
:1047D000FFF7AAFD10F0010FFAD1FFF785FDFFF7F3
:1047E0004CFD5048006840F480104E49086008466F
:1047F000C06940F48010C8614FF00200FFF730FD3F
:104800009DF8010003461846FFF72AFD9DF80000B9
:1048100003461846FFF724FD9DF80400034618469A
:10482000FFF71EFD9DF8050003461846FFF718FD2B
:104830009DF8060003461846FFF712FD9DF8070095
:1048400003461846FFF70CFD3648006840F4801018
:10485000344908600846806940F480108861084641
:10486000006840F4801008600846806940F48010B9
:104870008861FFF71FFD18460CBD13B50B4600BF3E
:10488000FFF752FD10F0010FFAD1FFF72DFDFFF7F2
:10489000F4FC2448006840F480102249086008466F
:1048A000C06940F48010C8614FF00200FFF7D8FCE7
:1048B0009DF8010004462046FFF7D2FC9DF8000059
:1048C00004462046FFF7CCFC187804462046FFF744
:1048D000C7FC587804462046FFF7C2FC9878044687
:1048E0002046FFF7BDFCD87804462046FFF7B8FC09
:1048F0000C48006840F480100A4908600846806946
:1049000040F4801088610846006840F48010086018
:104910000846806940F480108861FFF7CBFC204690
:104920001CBD000000C0092010B5FA4B5B7803F0F5
:104930001F0303F104031A46F64B1B7818464FF089
:10494000010319460AE0F34B5B5CF34C245C83EAF9
:104950000403184601F10103DBB21946531C9942C6
:10496000F1DB10B94FF0FF03184610BD10B5EB4B4B
:104970005B7803F01F0303F104031A46E74B1B782F
:1049800018464FF0010319460AE0E44B5B5CE24C29
:10499000245C83EA0403184601F10103DBB21946E3
:1049A000531C9942F1DB10B94FF0FF03184610BDBC
:1049B0002DE9F04307ACF0CC4FF4002CDFF8608316
:1049C000DFF8609399F8009048F829C04FF09E0CEA
:1049D000DFF85483DFF84C9399F8009048F829C029
:1049E000DFF848C3DFF83C8398F800800CF8280013
:1049F000DFF8308398F800800CEB880C8CF80110FD
:104A0000DFF828C3DFF81C8398F800800CEB880CD3
:104A10008CF80220DFF814C3DFF8088398F80080D0
:104A20000CEB880C8CF80330DFF804C3DFF8F48259
:104A300098F800800CF82840DFF8E88298F80080A9
:104A40000CEB880C8CF80150DFF8E4C2DFF8D4825C
:104A500098F800800CEB880C8CF80260DFF8D0C26C
:104A6000DFF8C08298F800800CEB880C8CF803709B
:104A7000DFF8B0C29CF800C00CF1010CDFF8A48292
:104A800088F800C0C4469CF800C0BCF1080F03DBE6
:104A90004FF0000C88F800C0DFF898C29CF800C006
:104AA000BCF1000F4DD0DFF878C2DFF88C8298F8A7
:104AB00000805CF828C0DFF88482C8F830C0DFF8D6
:104AC00068C2DFF8748298F800805CF828C0DFF8CC
:104AD0006C82C8F834C0DFF854C2DFF85C8298F802
:104AE00000805CF828C0DFF85482C8F838C0DFF8CE
:104AF00040C2DFF8448298F800805CF828C0DFF8F4
:104B00003C82C8F83CC04FF0210CC8F804C0DFF864
:104B100028C29CF800C00CF1010CDFF81C8288F858
:104B200000C0C4469CF800C0BCF1080F03DB4FF086
:104B3000000C88F800C04FF0000CDFF8F88188F80E
:104B400000C0BDE8F0837348C0787449887071482C
:104B50008078C8706F4800794FEA10106D49097964
:104B600001F00F0140EA01106C4908716948407971
:104B70004FEA10106749497901F00F0140EA01102E
:104B800066494871704710B56D48407800F10100E2
:104B90006B4948705F484078DA287ED15D480078DC
:104BA00010F01F0079D45B48007800F01F0008283F
:104BB00073DA6448007B00F10100C1B261480173FF
:104BC0005448007800F01F045248007810F0E00FBD
:104BD00009D14FF00300C4EBC40101EB41015A4A73
:104BE00002F821000EE04B48007800F0E000402879
:104BF00008D14FF00500C4EBC40101EB4101524A5A
:104C000002F8210043488078C4EBC40101EB410164
:104C10004D4A02EB810188713E48C178C4EBC40063
:104C200000EB400002EB8000C1713A480179C4EB0F
:104C3000C40000EB400002EB80000172354841796E
:104C4000C4EBC40000EB400002EB8000417231482D
:104C50008179C4EBC40000EB400002EB800081725C
:104C60002C48C179C4EBC40000EB400002EB80008B
:104C7000C1724FF00000C4EBC40101EB410102EB33
:104C80008101C8704FF00A00C4EBC40101EB41017F
:104C900002EB810181F8340000E017E0C4EBC400AE
:104CA00000EB4000114601EB8000C07870B9C4EB06
:104CB000C40000EB400001EB8000407810F0080FCA
:104CC00004D0002203212046FDF736FC114840782D
:104CD000DB287DD10F48007810F01F0078D40D48F4
:104CE000007800F01F00082872DA0A48007800F007
:104CF0001F0004460748007810F0E00F26D14FF05F
:104D00000300C4EBC40101EB41010F4A02F821008A
:104D10002BE0000064110010CD7B00008C1100100E
:104D2000401000100C0100106010001080100010E6
:104D3000A01000100A0100100D01001000400440F6
:104D40003612001040120010E8060010FC480078EF
:104D500000F0E000402808D14FF00500C4EBC4018A
:104D600001EB4101F74A02F82100F5488178C4EBD4
:104D7000C40000EB4000F34A02EB80000173F048EE
:104D8000C178C4EBC40000EB400002EB800041732B
:104D9000EB480179C4EBC40000EB400002EB80005B
:104DA0008173E7484179C4EBC40000EB400002EB9B
:104DB0008000C173E2488179C4EBC40000EB40007D
:104DC00002EB80000174DE48C179C4EBC40000E04E
:104DD00017E000EB400002EB800041744FF0000050
:104DE000C4EBC40101EB410102EB8101C8704FF03B
:104DF0000A00C4EBC40101EB410102EB810181F81F
:104E000034004FF00000D049087010BD2DE9F0418A
:104E1000CE48008800F10100CC490880CC48006AE7
:104E2000CC4908425FD1C948408800F10100C74918
:104E30004880C748006AC0F3090000EB4000C6493B
:104E400001EB80000446C248006AC44900EA010040
:104E50000546C34845EA00000546BD48406AC0F320
:104E60000A0040EA05000546256004F104000446F6
:104E7000B748806A206004F104000446B448C06A60
:104E8000206045F040700546A4F108000446256006
:104E9000B1484068C7B2302F04D14FF00000B1498B
:104EA000087005E0AF48007800F10100AD490870D6
:104EB000A9480068C0F303400746DFF89C8208F168
:104EC00004084FF000060AE098F800009C49885555
:104ED00008F10100804606F10100C0B20646BE425C
:104EE000F2DBFFF750FE4FF0040099494860BDE83F
:104EF000F0819D48007800F101009B4908709348BB
:104F0000408900F10100914948819848007898490A
:104F1000097888422CD097489549097850F82100A3
:104F20008B49086394489249097850F821008849D0
:104F3000486392488E49097850F821008449886373
:104F40008F488B49097850F821008149C8634FF098
:104F5000210048608648007800F10100844908700B
:104F600008460078082807DB4FF00000087003E0CF
:104F70004FF00100834908707047704710B5014633
:104F80008148006840F40050804AC2F8C40080485C
:104F9000006820F00F007E4A10601046006840F064
:104FA000050010604FF000007A4A10804FF00100B9
:104FB000794A1060664A10604FF0000010619060FE
:104FC000104641614FF0000010604FF019004FF0A3
:104FD000010202FA00F24FEA50134FF0E02404EB12
:104FE0008303C3F8002100BF4FF00300584A10614B
:104FF0004FF0010010BD03464FF0010070472DE94E
:10500000F04705460B464FF00100DFF88CA1CAF8C7
:1050100000006048008828B943F2FF70DFF838A12B
:10502000CAF800005B48B0F90000022802DB00204B
:10503000BDE8F087C3F30A00034643EA4530034660
:105040004FF000010CE001EB4100DFF80CA15AF831
:10505000200080B2984200D907E001F1010001462A
:105060004C48B0F900008142EDD300BF01EB410094
:10507000DFF8E4A05AF8206001EB41004AF8203044
:105080004448008800F1010000B2DFF808A1AAF846
:1050900000000DE001F10100014601EB4100DFF8E5
:1050A000B8A05AF8207001EB41004AF820603E4653
:1050B0003848B0F900008142ECD34FF000000146BF
:1050C00035484160354C4FF0000220E04FEA420085
:1050D00000EB4000DFF880A05AF820001FFA80F8AB
:1050E0004FF0010000EB420000EB40005AF82000B6
:1050F0001FFA80F909EB084CC4F800C001F1040064
:10510000014604F10400044602F101000246DFF802
:1051100084A0BAF900A00AF1010A0AEBDA7AB2EB2C
:105120006A0FD3D31C488160C160016141614FF0B7
:105130000000DFF864A0CAF800004FF0010077E734
:1051400064110010E8060010120100104011001058
:1051500000400440000400C04C11001000000FC0CB
:105160000020000110010010160100100C010010B9
:105170000D01001040100010601000108010001091
:10518000A01000100A010010C4C00F4000C00F4062
:1051900000C002400801001000C00340008003402E
:1051A00010B50948C068094908600846006810F051
:1051B000010F01D0FFF72AFE0448006810F0020F2B
:1051C00001D0FFF796FE10BD00400440180100100A
:1051D00030B5504C2478A0420ED14F4CB4F9004069
:1051E000A14209D14D4CB4F90040A24204D14C4C2B
:1051F000B4F90040A3420BD0464C2070464C2180AD
:10520000464C2280464C23804FF00104454D2C70C3
:1052100030BD4548006840F080604349086041481F
:10522000007878B10846C06940F08060C8614FF0EE
:1052300001003E4908704FF000003D49088039499F
:10524000087066E033480078002862D03848B0F92A
:1052500000003149B1F9001088420DDA3248806906
:1052600040F08060304988613148008800F10100D9
:1052700000B22F4908804CE02C4800782549097875
:10528000884224DA2448B0F900002449B1F900101A
:1052900008442749B1F9001088420DDD2248C06951
:1052A00040F080602049C8612148008800F1010079
:1052B00000B21F4908802CE04FF000001C49088014
:1052C0001A48007800F101001849087021E01248DE
:1052D000B0F900001249B1F9001008441449B1F9BD
:1052E000001088420DDD1048C06940F080600E4912
:1052F000C8610F48008800F1010000B20C49088025
:1053000007E04FF000000A4908804FF0010007490C
:10531000087070471D0100102001001022010010CC
:10532000240100101C01001000C009201E01001003
:10533000260100104FF00001084612E000EB40018A
:10534000F84A02EB4121F84A42F830104FF00001D0
:1053500002EBC0025160F54A42F8201000F1010151
:1053600008460328EAD3F049F14A1160EF494FF0AB
:10537000A042C2F820114FF00201EE4A11604FF036
:1053800000014FF0A042C2F8281170474FF0000111
:10539000084616E000EB4001E74A02EB4121E74AEC
:1053A00042F83010E64902EBC00251604FF00001B4
:1053B000E44A42F8301002EBC002516000F10101F2
:1053C00008460428E6D3DD49DF4A1160DD494FF085
:1053D000A042C2F80C114FF00301DC4A11604FF0FB
:1053E00000014FF0A042C2F818117047D848006C75
:1053F00020F40070D64908644FF48070886500BFBF
:1054000000BF00BFC86500BF00BF00BF70474FF0BE
:1054100000021046114615E04FEA400210464FF4D4
:105420008072CB4B9A6500BF00BF00BFDA651A4699
:10543000526D12F4007F02D040F00102104601F1DB
:10544000010211461029E7D37047C1F1200200FA8A
:1054500002F210461CE010F0004F04D04FF400722E
:10546000BB4B9A6503E04FF40072B94BDA6500BF9D
:1054700000BF00BF4FF48072B54B9A6500BF00BFFC
:1054800000BFDA654FEA40021046A1F10102114661
:105490000029E0D1704770B50646AE480078012873
:1054A0001FD1AB48006C40F40070A94908644FF06C
:1054B00020014FF0FF30FFF7C8FF04210620FFF75F
:1054C000C4FF05210120FFF7C0FF05213046FFF78B
:1054D000BCFFFFF78BFFFFF79AFF0546FFF786FF3C
:1054E0001FE046F480704FF0A04188624FF0010049
:1054F00048624FF0000409E04FF0A040406B10F00C
:10550000010F00D105E004F101000446B4F5A02F1D
:10551000F2D300BF4FF000004FF0A04148620846B0
:10552000056BA8B270BD70B506460C468948007878
:10553000012822D18648006C40F400708449086438
:105540004FF020014FF0FF30FFF77FFF04210520CF
:10555000FFF77BFF05210120FFF777FF052130468C
:10556000FFF773FF02210846FFF76FFF1021204667
:10557000FFF76BFFFFF73AFF17E046F480704FF03C
:10558000A04188620846C4624FF0000509E04FF070
:10559000A040406B10F0010F00D105E005F10100C3
:1055A0000546B5F5A02FF2D300BF70BD2DE9FC4133
:1055B0004FF00000674908704FF0360000906946D0
:1055C0006846654A1268904725210198B1EB106F33
:1055D00003D14FF001005F4908706048006840F057
:1055E00080405F49C1F8C4005E485F4988605948FF
:1055F000007838B90846C06820F00F0000F10500B7
:10560000C8600BE05848006920F4702056490861D2
:105610004F48006C40F480704D4908644FF44F408F
:105620004FF0A04108604FF07800504908604FF0FB
:10563000640402E0A4F101000446002CFAD14FF00A
:1056400002004FF0A04108604FF0300048604FF476
:10565000C060486143F20F7008614FF01200C860EB
:105660004FF41070414908604FF400604FF0A041C2
:1056700088614FF06400044602E0A4F10100044692
:10568000002CFAD120464FF0A04188614FF4004130
:10569000FFF749FF204604460AE00020FFF7FBFE23
:1056A000054615F4084F00D105E004F10100044659
:1056B000B4F5801FF1D300BF0220FFF7ECFE0746D0
:1056C0004FF00300FFF7E7FE06464FF6F07006EADC
:1056D000000040EA07402649884217D14FF4405164
:1056E0000020FFF720FF4FF0000004460AE00120F1
:1056F000FFF7D1FE054615F0200F00D005E004F1BC
:1057000001000446B4F5801FF1D300BF4FF0000044
:10571000044632E01020FFF7BEFE054615F0010FEB
:1057200028D02DE0BC2A001098120010B0120010F2
:105730001C01005024010050BC120010581200102F
:10574000FF05008078120010080100501001005081
:1057500000C009202C01001028010010C4C00F4017
:1057600000C00F400501155000C00240000100506C
:10577000905C002004F101000446B4F5803FC9D3D9
:1057800000BF15F0040F11D04FF0A040406840F06A
:1057900001004FF0A04148608448006840F48060F8
:1057A000C1F800014FF01500886004E04FF01200CE
:1057B0004FF0A041886015F0020F05D04FF00000B7
:1057C0004FF0A041886104E04FF480704FF0A04199
:1057D0008861774800797649497940EA01204FF09D
:1057E000A0410864724880787149C97840EA012074
:1057F0004FF0A04148646E4800786D49497840EA0E
:1058000001204FF0A0418864FFF7C0FDFFF792FD33
:105810004FF02600674908604FF088004FF0A04124
:10582000C1F8E40F4FF6FF70C1F8E80F0846D0F852
:10583000000140F00300C1F800010846006840F094
:1058400001000860BDE8FC814FF01C004FF0010131
:1058500001FA00F14FEA50124FF0E02303EB82020D
:10586000C2F8001100BF70474FF01C004FF001015B
:1058700001FA00F1504A4FEA501342F8231000BFDA
:10588000704770B54D4D2D68294600F104052B4633
:105890004B4D55F831502C46058805F103054FEA6C
:1058A000A5052A460AE01D68256003F104052B467C
:1058B00004F104052C46A2F101052A46002AF2D182
:1058C0000588A5F1010545F040453D4E06EBC106B2
:1058D000756001F101052946032D01D115462946C0
:1058E000364D296070BD2DE9F04753E04FF0A040E0
:1058F000C0F8E88F18F0080F4BD032480068044613
:1059000043E0314850F8347017F0804F00D133E055
:10591000C7F30A00A0F10300054640F2EA508542B1
:1059200002D82A48074200D026E045F00041084648
:1059300000F05CF90646F6B106F104008246244800
:1059400050F83400814605F103004FEA9000054607
:105950000CE0D9F80000CAF8000009F10400814603
:105960000AF104008246A5F101000546002DF0D1A0
:10597000304601F0BFFA00BF601C0446042802D183
:105980004FF0000004460F48046012480068A0422F
:10599000B7D100BF104800684FF0A041D1F8E41F14
:1059A00010EA0108A2D1BDE8F08700000001005014
:1059B000100000100002005080E100E028010050BB
:1059C0009812001018010050781200100000901B6F
:1059D0005812001014010050E00F005040EA01037B
:1059E0009B0703D009E008C9121F08C0042AFAD295
:1059F00003E011F8013B00F8013B521EF9D2704759
:105A00000146002000E0401C0A5C002AFBD17047E0
:105A1000064C074D06E0E06840F0010394E80700FB
:105A200098471034AC42F6D3FAF754FB747E00006A
:105A3000B47E000070B501EB020410F8015B15F0B4
:105A4000070301D110F8013B2A1106D110F8012BF0
:105A500003E010F8016B01F8016B5B1EF9D12B0715
:105A600005D40023521E0FD401F8013BFAE710F8C9
:105A7000013B02F10202A1EB030303E013F8015B17
:105A800001F8015B521EF9D5A142D6D3002070BDAA
:105A900000B5002200F008F8C04380B2010241EADC
:105AA000102080B200BD000005E000BF30F8023BCE
:105AB000891E5BBA1A440129F8DC11B1007802EBA7
:105AC000002290B200EB124000EB104080B2704711
:105AD000084400EB104080B27047010241EA1020F8
